{
	"contracts/MultisigWallet.sol": {
		"MultisigWallet": {
			"abi": [
				{
					"inputs": [
						{
							"internalType": "address[]",
							"name": "collaborators_",
							"type": "address[]"
						},
						{
							"internalType": "uint8",
							"name": "at_least_sign_count_",
							"type": "uint8"
						}
					],
					"stateMutability": "nonpayable",
					"type": "constructor"
				},
				{
					"inputs": [],
					"name": "balance",
					"outputs": [
						{
							"internalType": "uint256",
							"name": "",
							"type": "uint256"
						}
					],
					"stateMutability": "view",
					"type": "function"
				},
				{
					"inputs": [],
					"name": "cancel_withdraw",
					"outputs": [],
					"stateMutability": "nonpayable",
					"type": "function"
				},
				{
					"inputs": [],
					"name": "cancel_withdraw_by_counterparty",
					"outputs": [],
					"stateMutability": "nonpayable",
					"type": "function"
				},
				{
					"inputs": [
						{
							"internalType": "address",
							"name": "newAccount",
							"type": "address"
						}
					],
					"name": "changePlatformAccount",
					"outputs": [],
					"stateMutability": "nonpayable",
					"type": "function"
				},
				{
					"inputs": [],
					"name": "collaboratorSign",
					"outputs": [],
					"stateMutability": "nonpayable",
					"type": "function"
				},
				{
					"inputs": [
						{
							"internalType": "uint256",
							"name": "weis",
							"type": "uint256"
						},
						{
							"internalType": "address payable",
							"name": "targetAddress",
							"type": "address"
						}
					],
					"name": "process_withdraw",
					"outputs": [],
					"stateMutability": "nonpayable",
					"type": "function"
				},
				{
					"inputs": [],
					"name": "topin",
					"outputs": [],
					"stateMutability": "payable",
					"type": "function"
				},
				{
					"inputs": [],
					"name": "withdraw_count",
					"outputs": [
						{
							"internalType": "uint256",
							"name": "",
							"type": "uint256"
						}
					],
					"stateMutability": "view",
					"type": "function"
				},
				{
					"inputs": [],
					"name": "withdraw_fee_rate",
					"outputs": [
						{
							"internalType": "uint256",
							"name": "",
							"type": "uint256"
						}
					],
					"stateMutability": "view",
					"type": "function"
				},
				{
					"inputs": [],
					"name": "withdraw_free_count",
					"outputs": [
						{
							"internalType": "uint256",
							"name": "",
							"type": "uint256"
						}
					],
					"stateMutability": "view",
					"type": "function"
				}
			],
			"devdoc": {
				"kind": "dev",
				"methods": {},
				"version": 1
			},
			"evm": {
				"assembly": "    /* \"contracts/MultisigWallet.sol\":108:7478  contract MultisigWallet {... */\n  mstore(0x40, 0x80)\n    /* \"contracts/MultisigWallet.sol\":1293:2038  constructor(address[] memory collaborators_, uint8 at_least_sign_count_) {... */\n  callvalue\n  dup1\n  iszero\n  tag_1\n  jumpi\n  0x00\n  dup1\n  revert\ntag_1:\n  pop\n  mload(0x40)\n  sub(codesize, bytecodeSize)\n  dup1\n  bytecodeSize\n  dup4\n  codecopy\n  dup2\n  dup2\n  add\n  0x40\n  mstore\n  dup2\n  add\n  swap1\n  tag_2\n  swap2\n  swap1\n  tag_3\n  jump\t// in\ntag_2:\n    /* \"contracts/MultisigWallet.sol\":1378:1388  msg.sender */\n  caller\n    /* \"contracts/MultisigWallet.sol\":1370:1375  owner */\n  0x01\n  0x00\n    /* \"contracts/MultisigWallet.sol\":1370:1388  owner = msg.sender */\n  0x0100\n  exp\n  dup2\n  sload\n  dup2\n  0xffffffffffffffffffffffffffffffffffffffff\n  mul\n  not\n  and\n  swap1\n  dup4\n  0xffffffffffffffffffffffffffffffffffffffff\n  and\n  mul\n  or\n  swap1\n  sstore\n  pop\n    /* \"contracts/MultisigWallet.sol\":1424:1425  0 */\n  0x00\n    /* \"contracts/MultisigWallet.sol\":1400:1414  collaborators_ */\n  dup3\n    /* \"contracts/MultisigWallet.sol\":1400:1421  collaborators_.length */\n  mload\n    /* \"contracts/MultisigWallet.sol\":1400:1425  collaborators_.length > 0 */\n  gt\n    /* \"contracts/MultisigWallet.sol\":1392:1466  require(collaborators_.length > 0, \"all collaborators count at least one\") */\n  tag_6\n  jumpi\n  mload(0x40)\n  0x08c379a000000000000000000000000000000000000000000000000000000000\n  dup2\n  mstore\n  0x04\n  add\n  tag_7\n  swap1\n  tag_8\n  jump\t// in\ntag_7:\n  mload(0x40)\n  dup1\n  swap2\n  sub\n  swap1\n  revert\ntag_6:\n    /* \"contracts/MultisigWallet.sol\":1478:1507  no_duplicated_collaborators() */\n  tag_9\n    /* \"contracts/MultisigWallet.sol\":1478:1505  no_duplicated_collaborators */\n  shl(0x20, tag_10)\n    /* \"contracts/MultisigWallet.sol\":1478:1507  no_duplicated_collaborators() */\n  0x20\n  shr\n  jump\t// in\ntag_9:\n    /* \"contracts/MultisigWallet.sol\":1470:1551  require(no_duplicated_collaborators(), \"the collaborators must no be duplicated\") */\n  tag_11\n  jumpi\n  mload(0x40)\n  0x08c379a000000000000000000000000000000000000000000000000000000000\n  dup2\n  mstore\n  0x04\n  add\n  tag_12\n  swap1\n  tag_13\n  jump\t// in\ntag_12:\n  mload(0x40)\n  dup1\n  swap2\n  sub\n  swap1\n  revert\ntag_11:\n    /* \"contracts/MultisigWallet.sol\":1586:1587  0 */\n  0x00\n    /* \"contracts/MultisigWallet.sol\":1563:1583  at_least_sign_count_ */\n  dup2\n    /* \"contracts/MultisigWallet.sol\":1563:1587  at_least_sign_count_ > 0 */\n  0xff\n  and\n  gt\n    /* \"contracts/MultisigWallet.sol\":1563:1636  at_least_sign_count_ > 0 && at_least_sign_count_ <= collaborators_.length */\n  dup1\n  iszero\n  tag_14\n  jumpi\n  pop\n    /* \"contracts/MultisigWallet.sol\":1615:1629  collaborators_ */\n  dup2\n    /* \"contracts/MultisigWallet.sol\":1615:1636  collaborators_.length */\n  mload\n    /* \"contracts/MultisigWallet.sol\":1591:1611  at_least_sign_count_ */\n  dup2\n    /* \"contracts/MultisigWallet.sol\":1591:1636  at_least_sign_count_ <= collaborators_.length */\n  0xff\n  and\n  gt\n  iszero\n    /* \"contracts/MultisigWallet.sol\":1563:1636  at_least_sign_count_ > 0 && at_least_sign_count_ <= collaborators_.length */\ntag_14:\n    /* \"contracts/MultisigWallet.sol\":1555:1721  require(at_least_sign_count_ > 0 && at_least_sign_count_ <= collaborators_.length, \"at least sign count must more than 0 and less than or equals collaborators count\") */\n  tag_15\n  jumpi\n  mload(0x40)\n  0x08c379a000000000000000000000000000000000000000000000000000000000\n  dup2\n  mstore\n  0x04\n  add\n  tag_16\n  swap1\n  tag_17\n  jump\t// in\ntag_16:\n  mload(0x40)\n  dup1\n  swap2\n  sub\n  swap1\n  revert\ntag_15:\n    /* \"contracts/MultisigWallet.sol\":1741:1755  collaborators_ */\n  dup2\n    /* \"contracts/MultisigWallet.sol\":1725:1738  collaborators */\n  0x02\n    /* \"contracts/MultisigWallet.sol\":1725:1755  collaborators = collaborators_ */\n  swap1\n  dup1\n  mload\n  swap1\n  0x20\n  add\n  swap1\n  tag_18\n  swap3\n  swap2\n  swap1\n  tag_19\n  jump\t// in\ntag_18:\n  pop\n    /* \"contracts/MultisigWallet.sol\":1783:1803  at_least_sign_count_ */\n  dup1\n    /* \"contracts/MultisigWallet.sol\":1761:1780  at_least_sign_count */\n  0x03\n  0x00\n    /* \"contracts/MultisigWallet.sol\":1761:1803  at_least_sign_count = at_least_sign_count_ */\n  0x0100\n  exp\n  dup2\n  sload\n  dup2\n  0xff\n  mul\n  not\n  and\n  swap1\n  dup4\n  0xff\n  and\n  mul\n  or\n  swap1\n  sstore\n  pop\n    /* \"contracts/MultisigWallet.sol\":1926:1968  0xdD870fA1b7C4700F2BD7f44238821C26f7392148 */\n  0xdd870fa1b7c4700f2bd7f44238821c26f7392148\n    /* \"contracts/MultisigWallet.sol\":1899:1915  platform_account */\n  0x0c\n  0x00\n    /* \"contracts/MultisigWallet.sol\":1899:1969  platform_account = payable(0xdD870fA1b7C4700F2BD7f44238821C26f7392148) */\n  0x0100\n  exp\n  dup2\n  sload\n  dup2\n  0xffffffffffffffffffffffffffffffffffffffff\n  mul\n  not\n  and\n  swap1\n  dup4\n  0xffffffffffffffffffffffffffffffffffffffff\n  and\n  mul\n  or\n  swap1\n  sstore\n  pop\n    /* \"contracts/MultisigWallet.sol\":1999:2001  20 */\n  0x14\n    /* \"contracts/MultisigWallet.sol\":1979:1996  withdraw_fee_rate */\n  0x0a\n    /* \"contracts/MultisigWallet.sol\":1979:2001  withdraw_fee_rate = 20 */\n  dup2\n  swap1\n  sstore\n  pop\n    /* \"contracts/MultisigWallet.sol\":2033:2034  5 */\n  0x05\n    /* \"contracts/MultisigWallet.sol\":2011:2030  withdraw_free_count */\n  0x0b\n    /* \"contracts/MultisigWallet.sol\":2011:2034  withdraw_free_count = 5 */\n  dup2\n  swap1\n  sstore\n  pop\n    /* \"contracts/MultisigWallet.sol\":1293:2038  constructor(address[] memory collaborators_, uint8 at_least_sign_count_) {... */\n  pop\n  pop\n    /* \"contracts/MultisigWallet.sol\":108:7478  contract MultisigWallet {... */\n  jump(tag_20)\n    /* \"contracts/MultisigWallet.sol\":2272:2642  function no_duplicated_collaborators() private view returns (bool) {... */\ntag_10:\n    /* \"contracts/MultisigWallet.sol\":2333:2337  bool */\n  0x00\n    /* \"contracts/MultisigWallet.sol\":2343:2358  bool duplicated */\n  dup1\n    /* \"contracts/MultisigWallet.sol\":2361:2366  false */\n  0x00\n    /* \"contracts/MultisigWallet.sol\":2343:2366  bool duplicated = false */\n  swap1\n  pop\n    /* \"contracts/MultisigWallet.sol\":2374:2380  uint i */\n  0x00\n    /* \"contracts/MultisigWallet.sol\":2370:2617  for(uint i=0; i<collaborators.length; i++) {... */\ntag_22:\n    /* \"contracts/MultisigWallet.sol\":2386:2399  collaborators */\n  0x02\n    /* \"contracts/MultisigWallet.sol\":2386:2406  collaborators.length */\n  dup1\n  sload\n  swap1\n  pop\n    /* \"contracts/MultisigWallet.sol\":2384:2385  i */\n  dup2\n    /* \"contracts/MultisigWallet.sol\":2384:2406  i<collaborators.length */\n  lt\n    /* \"contracts/MultisigWallet.sol\":2370:2617  for(uint i=0; i<collaborators.length; i++) {... */\n  iszero\n  tag_23\n  jumpi\n    /* \"contracts/MultisigWallet.sol\":2449:2450  1 */\n  0x01\n    /* \"contracts/MultisigWallet.sol\":2426:2439  collaborators */\n  0x02\n    /* \"contracts/MultisigWallet.sol\":2426:2446  collaborators.length */\n  dup1\n  sload\n  swap1\n  pop\n    /* \"contracts/MultisigWallet.sol\":2426:2450  collaborators.length - 1 */\n  tag_25\n  swap2\n  swap1\n  tag_26\n  jump\t// in\ntag_25:\n    /* \"contracts/MultisigWallet.sol\":2421:2422  i */\n  dup2\n    /* \"contracts/MultisigWallet.sol\":2421:2450  i == collaborators.length - 1 */\n  eq\n    /* \"contracts/MultisigWallet.sol\":2418:2469  if(i == collaborators.length - 1) {... */\n  iszero\n  tag_27\n  jumpi\n    /* \"contracts/MultisigWallet.sol\":2458:2463  break */\n  jump(tag_23)\n    /* \"contracts/MultisigWallet.sol\":2418:2469  if(i == collaborators.length - 1) {... */\ntag_27:\n    /* \"contracts/MultisigWallet.sol\":2477:2483  uint j */\n  0x00\n    /* \"contracts/MultisigWallet.sol\":2486:2487  1 */\n  0x01\n    /* \"contracts/MultisigWallet.sol\":2484:2485  i */\n  dup3\n    /* \"contracts/MultisigWallet.sol\":2484:2487  i+1 */\n  tag_31\n  swap2\n  swap1\n  tag_32\n  jump\t// in\ntag_31:\n    /* \"contracts/MultisigWallet.sol\":2477:2487  uint j=i+1 */\n  swap1\n  pop\n    /* \"contracts/MultisigWallet.sol\":2473:2613  for(uint j=i+1; j<collaborators.length; j++) {... */\ntag_28:\n    /* \"contracts/MultisigWallet.sol\":2491:2504  collaborators */\n  0x02\n    /* \"contracts/MultisigWallet.sol\":2491:2511  collaborators.length */\n  dup1\n  sload\n  swap1\n  pop\n    /* \"contracts/MultisigWallet.sol\":2489:2490  j */\n  dup2\n    /* \"contracts/MultisigWallet.sol\":2489:2511  j<collaborators.length */\n  lt\n    /* \"contracts/MultisigWallet.sol\":2473:2613  for(uint j=i+1; j<collaborators.length; j++) {... */\n  iszero\n  tag_29\n  jumpi\n    /* \"contracts/MultisigWallet.sol\":2547:2560  collaborators */\n  0x02\n    /* \"contracts/MultisigWallet.sol\":2561:2562  j */\n  dup2\n    /* \"contracts/MultisigWallet.sol\":2547:2563  collaborators[j] */\n  dup2\n  sload\n  dup2\n  lt\n  tag_33\n  jumpi\n  tag_34\n  tag_35\n  jump\t// in\ntag_34:\ntag_33:\n  swap1\n  0x00\n  mstore\n  keccak256(0x00, 0x20)\n  add\n  0x00\n  swap1\n  sload\n  swap1\n  0x0100\n  exp\n  swap1\n  div\n  0xffffffffffffffffffffffffffffffffffffffff\n  and\n    /* \"contracts/MultisigWallet.sol\":2527:2563  collaborators[i] == collaborators[j] */\n  0xffffffffffffffffffffffffffffffffffffffff\n  and\n    /* \"contracts/MultisigWallet.sol\":2527:2540  collaborators */\n  0x02\n    /* \"contracts/MultisigWallet.sol\":2541:2542  i */\n  dup4\n    /* \"contracts/MultisigWallet.sol\":2527:2543  collaborators[i] */\n  dup2\n  sload\n  dup2\n  lt\n  tag_37\n  jumpi\n  tag_38\n  tag_35\n  jump\t// in\ntag_38:\ntag_37:\n  swap1\n  0x00\n  mstore\n  keccak256(0x00, 0x20)\n  add\n  0x00\n  swap1\n  sload\n  swap1\n  0x0100\n  exp\n  swap1\n  div\n  0xffffffffffffffffffffffffffffffffffffffff\n  and\n    /* \"contracts/MultisigWallet.sol\":2527:2563  collaborators[i] == collaborators[j] */\n  0xffffffffffffffffffffffffffffffffffffffff\n  and\n  eq\n    /* \"contracts/MultisigWallet.sol\":2524:2608  if(collaborators[i] == collaborators[j]) {... */\n  iszero\n  tag_40\n  jumpi\n    /* \"contracts/MultisigWallet.sol\":2585:2589  true */\n  0x01\n    /* \"contracts/MultisigWallet.sol\":2572:2589  duplicated = true */\n  swap3\n  pop\n    /* \"contracts/MultisigWallet.sol\":2596:2601  break */\n  jump(tag_29)\n    /* \"contracts/MultisigWallet.sol\":2524:2608  if(collaborators[i] == collaborators[j]) {... */\ntag_40:\n    /* \"contracts/MultisigWallet.sol\":2513:2516  j++ */\n  dup1\n  dup1\n  tag_41\n  swap1\n  tag_42\n  jump\t// in\ntag_41:\n  swap2\n  pop\n  pop\n    /* \"contracts/MultisigWallet.sol\":2473:2613  for(uint j=i+1; j<collaborators.length; j++) {... */\n  jump(tag_28)\ntag_29:\n  pop\n    /* \"contracts/MultisigWallet.sol\":2408:2411  i++ */\n  dup1\n  dup1\n  tag_43\n  swap1\n  tag_42\n  jump\t// in\ntag_43:\n  swap2\n  pop\n  pop\n    /* \"contracts/MultisigWallet.sol\":2370:2617  for(uint i=0; i<collaborators.length; i++) {... */\n  jump(tag_22)\ntag_23:\n  pop\n    /* \"contracts/MultisigWallet.sol\":2628:2638  duplicated */\n  dup1\n    /* \"contracts/MultisigWallet.sol\":2627:2638  !duplicated */\n  iszero\n    /* \"contracts/MultisigWallet.sol\":2620:2638  return !duplicated */\n  swap2\n  pop\n  pop\n    /* \"contracts/MultisigWallet.sol\":2272:2642  function no_duplicated_collaborators() private view returns (bool) {... */\n  swap1\n  jump\t// out\n    /* \"contracts/MultisigWallet.sol\":108:7478  contract MultisigWallet {... */\ntag_19:\n  dup3\n  dup1\n  sload\n  dup3\n  dup3\n  sstore\n  swap1\n  0x00\n  mstore\n  keccak256(0x00, 0x20)\n  swap1\n  dup2\n  add\n  swap3\n  dup3\n  iszero\n  tag_44\n  jumpi\n  swap2\n  0x20\n  mul\n  dup3\n  add\ntag_45:\n  dup3\n  dup2\n  gt\n  iszero\n  tag_46\n  jumpi\n  dup3\n  mload\n  dup3\n  exp(0x0100, 0x00)\n  dup2\n  sload\n  dup2\n  0xffffffffffffffffffffffffffffffffffffffff\n  mul\n  not\n  and\n  swap1\n  dup4\n  0xffffffffffffffffffffffffffffffffffffffff\n  and\n  mul\n  or\n  swap1\n  sstore\n  pop\n  swap2\n  0x20\n  add\n  swap2\n  swap1\n  0x01\n  add\n  swap1\n  jump(tag_45)\ntag_46:\ntag_44:\n  pop\n  swap1\n  pop\n  tag_47\n  swap2\n  swap1\n  tag_48\n  jump\t// in\ntag_47:\n  pop\n  swap1\n  jump\t// out\ntag_48:\ntag_49:\n  dup1\n  dup3\n  gt\n  iszero\n  tag_50\n  jumpi\n  0x00\n  dup2\n  0x00\n  swap1\n  sstore\n  pop\n  0x01\n  add\n  jump(tag_49)\ntag_50:\n  pop\n  swap1\n  jump\t// out\n    /* \"#utility.yul\":24:768   */\ntag_52:\n    /* \"#utility.yul\":131:136   */\n  0x00\n    /* \"#utility.yul\":156:237   */\n  tag_54\n    /* \"#utility.yul\":172:236   */\n  tag_55\n    /* \"#utility.yul\":229:235   */\n  dup5\n    /* \"#utility.yul\":172:236   */\n  tag_56\n  jump\t// in\ntag_55:\n    /* \"#utility.yul\":156:237   */\n  tag_57\n  jump\t// in\ntag_54:\n    /* \"#utility.yul\":147:237   */\n  swap1\n  pop\n    /* \"#utility.yul\":257:262   */\n  dup1\n    /* \"#utility.yul\":286:292   */\n  dup4\n    /* \"#utility.yul\":279:284   */\n  dup3\n    /* \"#utility.yul\":272:293   */\n  mstore\n    /* \"#utility.yul\":320:324   */\n  0x20\n    /* \"#utility.yul\":313:318   */\n  dup3\n    /* \"#utility.yul\":309:325   */\n  add\n    /* \"#utility.yul\":302:325   */\n  swap1\n  pop\n    /* \"#utility.yul\":346:352   */\n  dup3\n    /* \"#utility.yul\":396:399   */\n  dup6\n    /* \"#utility.yul\":388:392   */\n  0x20\n    /* \"#utility.yul\":380:386   */\n  dup7\n    /* \"#utility.yul\":376:393   */\n  mul\n    /* \"#utility.yul\":371:374   */\n  dup3\n    /* \"#utility.yul\":367:394   */\n  add\n    /* \"#utility.yul\":364:400   */\n  gt\n    /* \"#utility.yul\":361:504   */\n  iszero\n  tag_58\n  jumpi\n    /* \"#utility.yul\":415:494   */\n  tag_59\n  tag_60\n  jump\t// in\ntag_59:\n    /* \"#utility.yul\":361:504   */\ntag_58:\n    /* \"#utility.yul\":528:529   */\n  0x00\n    /* \"#utility.yul\":513:762   */\ntag_61:\n    /* \"#utility.yul\":538:544   */\n  dup6\n    /* \"#utility.yul\":535:536   */\n  dup2\n    /* \"#utility.yul\":532:545   */\n  lt\n    /* \"#utility.yul\":513:762   */\n  iszero\n  tag_63\n  jumpi\n    /* \"#utility.yul\":606:609   */\n  dup2\n    /* \"#utility.yul\":635:683   */\n  tag_64\n    /* \"#utility.yul\":679:682   */\n  dup9\n    /* \"#utility.yul\":667:677   */\n  dup3\n    /* \"#utility.yul\":635:683   */\n  tag_65\n  jump\t// in\ntag_64:\n    /* \"#utility.yul\":630:633   */\n  dup5\n    /* \"#utility.yul\":623:684   */\n  mstore\n    /* \"#utility.yul\":713:717   */\n  0x20\n    /* \"#utility.yul\":708:711   */\n  dup5\n    /* \"#utility.yul\":704:718   */\n  add\n    /* \"#utility.yul\":697:718   */\n  swap4\n  pop\n    /* \"#utility.yul\":747:751   */\n  0x20\n    /* \"#utility.yul\":742:745   */\n  dup4\n    /* \"#utility.yul\":738:752   */\n  add\n    /* \"#utility.yul\":731:752   */\n  swap3\n  pop\n    /* \"#utility.yul\":573:762   */\n  pop\n    /* \"#utility.yul\":560:561   */\n  0x01\n    /* \"#utility.yul\":557:558   */\n  dup2\n    /* \"#utility.yul\":553:562   */\n  add\n    /* \"#utility.yul\":548:562   */\n  swap1\n  pop\n    /* \"#utility.yul\":513:762   */\n  jump(tag_61)\ntag_63:\n    /* \"#utility.yul\":517:531   */\n  pop\n    /* \"#utility.yul\":137:768   */\n  pop\n  pop\n    /* \"#utility.yul\":24:768   */\n  swap4\n  swap3\n  pop\n  pop\n  pop\n  jump\t// out\n    /* \"#utility.yul\":774:917   */\ntag_65:\n    /* \"#utility.yul\":831:836   */\n  0x00\n    /* \"#utility.yul\":862:868   */\n  dup2\n    /* \"#utility.yul\":856:869   */\n  mload\n    /* \"#utility.yul\":847:869   */\n  swap1\n  pop\n    /* \"#utility.yul\":878:911   */\n  tag_67\n    /* \"#utility.yul\":905:910   */\n  dup2\n    /* \"#utility.yul\":878:911   */\n  tag_68\n  jump\t// in\ntag_67:\n    /* \"#utility.yul\":774:917   */\n  swap3\n  swap2\n  pop\n  pop\n  jump\t// out\n    /* \"#utility.yul\":940:1325   */\ntag_69:\n    /* \"#utility.yul\":1022:1027   */\n  0x00\n    /* \"#utility.yul\":1071:1074   */\n  dup3\n    /* \"#utility.yul\":1064:1068   */\n  0x1f\n    /* \"#utility.yul\":1056:1062   */\n  dup4\n    /* \"#utility.yul\":1052:1069   */\n  add\n    /* \"#utility.yul\":1048:1075   */\n  slt\n    /* \"#utility.yul\":1038:1160   */\n  tag_71\n  jumpi\n    /* \"#utility.yul\":1079:1158   */\n  tag_72\n  tag_73\n  jump\t// in\ntag_72:\n    /* \"#utility.yul\":1038:1160   */\ntag_71:\n    /* \"#utility.yul\":1189:1195   */\n  dup2\n    /* \"#utility.yul\":1183:1196   */\n  mload\n    /* \"#utility.yul\":1214:1319   */\n  tag_74\n    /* \"#utility.yul\":1315:1318   */\n  dup5\n    /* \"#utility.yul\":1307:1313   */\n  dup3\n    /* \"#utility.yul\":1300:1304   */\n  0x20\n    /* \"#utility.yul\":1292:1298   */\n  dup7\n    /* \"#utility.yul\":1288:1305   */\n  add\n    /* \"#utility.yul\":1214:1319   */\n  tag_52\n  jump\t// in\ntag_74:\n    /* \"#utility.yul\":1205:1319   */\n  swap2\n  pop\n    /* \"#utility.yul\":1028:1325   */\n  pop\n    /* \"#utility.yul\":940:1325   */\n  swap3\n  swap2\n  pop\n  pop\n  jump\t// out\n    /* \"#utility.yul\":1331:1470   */\ntag_75:\n    /* \"#utility.yul\":1386:1391   */\n  0x00\n    /* \"#utility.yul\":1417:1423   */\n  dup2\n    /* \"#utility.yul\":1411:1424   */\n  mload\n    /* \"#utility.yul\":1402:1424   */\n  swap1\n  pop\n    /* \"#utility.yul\":1433:1464   */\n  tag_77\n    /* \"#utility.yul\":1458:1463   */\n  dup2\n    /* \"#utility.yul\":1433:1464   */\n  tag_78\n  jump\t// in\ntag_77:\n    /* \"#utility.yul\":1331:1470   */\n  swap3\n  swap2\n  pop\n  pop\n  jump\t// out\n    /* \"#utility.yul\":1476:2182   */\ntag_3:\n    /* \"#utility.yul\":1578:1584   */\n  0x00\n    /* \"#utility.yul\":1586:1592   */\n  dup1\n    /* \"#utility.yul\":1635:1637   */\n  0x40\n    /* \"#utility.yul\":1623:1632   */\n  dup4\n    /* \"#utility.yul\":1614:1621   */\n  dup6\n    /* \"#utility.yul\":1610:1633   */\n  sub\n    /* \"#utility.yul\":1606:1638   */\n  slt\n    /* \"#utility.yul\":1603:1722   */\n  iszero\n  tag_80\n  jumpi\n    /* \"#utility.yul\":1641:1720   */\n  tag_81\n  tag_82\n  jump\t// in\ntag_81:\n    /* \"#utility.yul\":1603:1722   */\ntag_80:\n    /* \"#utility.yul\":1782:1783   */\n  0x00\n    /* \"#utility.yul\":1771:1780   */\n  dup4\n    /* \"#utility.yul\":1767:1784   */\n  add\n    /* \"#utility.yul\":1761:1785   */\n  mload\n    /* \"#utility.yul\":1812:1830   */\n  0xffffffffffffffff\n    /* \"#utility.yul\":1804:1810   */\n  dup2\n    /* \"#utility.yul\":1801:1831   */\n  gt\n    /* \"#utility.yul\":1798:1915   */\n  iszero\n  tag_83\n  jumpi\n    /* \"#utility.yul\":1834:1913   */\n  tag_84\n  tag_85\n  jump\t// in\ntag_84:\n    /* \"#utility.yul\":1798:1915   */\ntag_83:\n    /* \"#utility.yul\":1939:2028   */\n  tag_86\n    /* \"#utility.yul\":2020:2027   */\n  dup6\n    /* \"#utility.yul\":2011:2017   */\n  dup3\n    /* \"#utility.yul\":2000:2009   */\n  dup7\n    /* \"#utility.yul\":1996:2018   */\n  add\n    /* \"#utility.yul\":1939:2028   */\n  tag_69\n  jump\t// in\ntag_86:\n    /* \"#utility.yul\":1929:2028   */\n  swap3\n  pop\n    /* \"#utility.yul\":1732:2038   */\n  pop\n    /* \"#utility.yul\":2077:2079   */\n  0x20\n    /* \"#utility.yul\":2103:2165   */\n  tag_87\n    /* \"#utility.yul\":2157:2164   */\n  dup6\n    /* \"#utility.yul\":2148:2154   */\n  dup3\n    /* \"#utility.yul\":2137:2146   */\n  dup7\n    /* \"#utility.yul\":2133:2155   */\n  add\n    /* \"#utility.yul\":2103:2165   */\n  tag_75\n  jump\t// in\ntag_87:\n    /* \"#utility.yul\":2093:2165   */\n  swap2\n  pop\n    /* \"#utility.yul\":2048:2175   */\n  pop\n    /* \"#utility.yul\":1476:2182   */\n  swap3\n  pop\n  swap3\n  swap1\n  pop\n  jump\t// out\n    /* \"#utility.yul\":2188:2554   */\ntag_88:\n    /* \"#utility.yul\":2330:2333   */\n  0x00\n    /* \"#utility.yul\":2351:2418   */\n  tag_90\n    /* \"#utility.yul\":2415:2417   */\n  0x24\n    /* \"#utility.yul\":2410:2413   */\n  dup4\n    /* \"#utility.yul\":2351:2418   */\n  tag_91\n  jump\t// in\ntag_90:\n    /* \"#utility.yul\":2344:2418   */\n  swap2\n  pop\n    /* \"#utility.yul\":2427:2520   */\n  tag_92\n    /* \"#utility.yul\":2516:2519   */\n  dup3\n    /* \"#utility.yul\":2427:2520   */\n  tag_93\n  jump\t// in\ntag_92:\n    /* \"#utility.yul\":2545:2547   */\n  0x40\n    /* \"#utility.yul\":2540:2543   */\n  dup3\n    /* \"#utility.yul\":2536:2548   */\n  add\n    /* \"#utility.yul\":2529:2548   */\n  swap1\n  pop\n    /* \"#utility.yul\":2188:2554   */\n  swap2\n  swap1\n  pop\n  jump\t// out\n    /* \"#utility.yul\":2560:2926   */\ntag_94:\n    /* \"#utility.yul\":2702:2705   */\n  0x00\n    /* \"#utility.yul\":2723:2790   */\n  tag_96\n    /* \"#utility.yul\":2787:2789   */\n  0x27\n    /* \"#utility.yul\":2782:2785   */\n  dup4\n    /* \"#utility.yul\":2723:2790   */\n  tag_91\n  jump\t// in\ntag_96:\n    /* \"#utility.yul\":2716:2790   */\n  swap2\n  pop\n    /* \"#utility.yul\":2799:2892   */\n  tag_97\n    /* \"#utility.yul\":2888:2891   */\n  dup3\n    /* \"#utility.yul\":2799:2892   */\n  tag_98\n  jump\t// in\ntag_97:\n    /* \"#utility.yul\":2917:2919   */\n  0x40\n    /* \"#utility.yul\":2912:2915   */\n  dup3\n    /* \"#utility.yul\":2908:2920   */\n  add\n    /* \"#utility.yul\":2901:2920   */\n  swap1\n  pop\n    /* \"#utility.yul\":2560:2926   */\n  swap2\n  swap1\n  pop\n  jump\t// out\n    /* \"#utility.yul\":2932:3298   */\ntag_99:\n    /* \"#utility.yul\":3074:3077   */\n  0x00\n    /* \"#utility.yul\":3095:3162   */\n  tag_101\n    /* \"#utility.yul\":3159:3161   */\n  0x50\n    /* \"#utility.yul\":3154:3157   */\n  dup4\n    /* \"#utility.yul\":3095:3162   */\n  tag_91\n  jump\t// in\ntag_101:\n    /* \"#utility.yul\":3088:3162   */\n  swap2\n  pop\n    /* \"#utility.yul\":3171:3264   */\n  tag_102\n    /* \"#utility.yul\":3260:3263   */\n  dup3\n    /* \"#utility.yul\":3171:3264   */\n  tag_103\n  jump\t// in\ntag_102:\n    /* \"#utility.yul\":3289:3291   */\n  0x60\n    /* \"#utility.yul\":3284:3287   */\n  dup3\n    /* \"#utility.yul\":3280:3292   */\n  add\n    /* \"#utility.yul\":3273:3292   */\n  swap1\n  pop\n    /* \"#utility.yul\":2932:3298   */\n  swap2\n  swap1\n  pop\n  jump\t// out\n    /* \"#utility.yul\":3304:3723   */\ntag_8:\n    /* \"#utility.yul\":3470:3474   */\n  0x00\n    /* \"#utility.yul\":3508:3510   */\n  0x20\n    /* \"#utility.yul\":3497:3506   */\n  dup3\n    /* \"#utility.yul\":3493:3511   */\n  add\n    /* \"#utility.yul\":3485:3511   */\n  swap1\n  pop\n    /* \"#utility.yul\":3557:3566   */\n  dup2\n    /* \"#utility.yul\":3551:3555   */\n  dup2\n    /* \"#utility.yul\":3547:3567   */\n  sub\n    /* \"#utility.yul\":3543:3544   */\n  0x00\n    /* \"#utility.yul\":3532:3541   */\n  dup4\n    /* \"#utility.yul\":3528:3545   */\n  add\n    /* \"#utility.yul\":3521:3568   */\n  mstore\n    /* \"#utility.yul\":3585:3716   */\n  tag_105\n    /* \"#utility.yul\":3711:3715   */\n  dup2\n    /* \"#utility.yul\":3585:3716   */\n  tag_88\n  jump\t// in\ntag_105:\n    /* \"#utility.yul\":3577:3716   */\n  swap1\n  pop\n    /* \"#utility.yul\":3304:3723   */\n  swap2\n  swap1\n  pop\n  jump\t// out\n    /* \"#utility.yul\":3729:4148   */\ntag_13:\n    /* \"#utility.yul\":3895:3899   */\n  0x00\n    /* \"#utility.yul\":3933:3935   */\n  0x20\n    /* \"#utility.yul\":3922:3931   */\n  dup3\n    /* \"#utility.yul\":3918:3936   */\n  add\n    /* \"#utility.yul\":3910:3936   */\n  swap1\n  pop\n    /* \"#utility.yul\":3982:3991   */\n  dup2\n    /* \"#utility.yul\":3976:3980   */\n  dup2\n    /* \"#utility.yul\":3972:3992   */\n  sub\n    /* \"#utility.yul\":3968:3969   */\n  0x00\n    /* \"#utility.yul\":3957:3966   */\n  dup4\n    /* \"#utility.yul\":3953:3970   */\n  add\n    /* \"#utility.yul\":3946:3993   */\n  mstore\n    /* \"#utility.yul\":4010:4141   */\n  tag_107\n    /* \"#utility.yul\":4136:4140   */\n  dup2\n    /* \"#utility.yul\":4010:4141   */\n  tag_94\n  jump\t// in\ntag_107:\n    /* \"#utility.yul\":4002:4141   */\n  swap1\n  pop\n    /* \"#utility.yul\":3729:4148   */\n  swap2\n  swap1\n  pop\n  jump\t// out\n    /* \"#utility.yul\":4154:4573   */\ntag_17:\n    /* \"#utility.yul\":4320:4324   */\n  0x00\n    /* \"#utility.yul\":4358:4360   */\n  0x20\n    /* \"#utility.yul\":4347:4356   */\n  dup3\n    /* \"#utility.yul\":4343:4361   */\n  add\n    /* \"#utility.yul\":4335:4361   */\n  swap1\n  pop\n    /* \"#utility.yul\":4407:4416   */\n  dup2\n    /* \"#utility.yul\":4401:4405   */\n  dup2\n    /* \"#utility.yul\":4397:4417   */\n  sub\n    /* \"#utility.yul\":4393:4394   */\n  0x00\n    /* \"#utility.yul\":4382:4391   */\n  dup4\n    /* \"#utility.yul\":4378:4395   */\n  add\n    /* \"#utility.yul\":4371:4418   */\n  mstore\n    /* \"#utility.yul\":4435:4566   */\n  tag_109\n    /* \"#utility.yul\":4561:4565   */\n  dup2\n    /* \"#utility.yul\":4435:4566   */\n  tag_99\n  jump\t// in\ntag_109:\n    /* \"#utility.yul\":4427:4566   */\n  swap1\n  pop\n    /* \"#utility.yul\":4154:4573   */\n  swap2\n  swap1\n  pop\n  jump\t// out\n    /* \"#utility.yul\":4579:4708   */\ntag_57:\n    /* \"#utility.yul\":4613:4619   */\n  0x00\n    /* \"#utility.yul\":4640:4660   */\n  tag_111\n  tag_112\n  jump\t// in\ntag_111:\n    /* \"#utility.yul\":4630:4660   */\n  swap1\n  pop\n    /* \"#utility.yul\":4669:4702   */\n  tag_113\n    /* \"#utility.yul\":4697:4701   */\n  dup3\n    /* \"#utility.yul\":4689:4695   */\n  dup3\n    /* \"#utility.yul\":4669:4702   */\n  tag_114\n  jump\t// in\ntag_113:\n    /* \"#utility.yul\":4579:4708   */\n  swap2\n  swap1\n  pop\n  jump\t// out\n    /* \"#utility.yul\":4714:4789   */\ntag_112:\n    /* \"#utility.yul\":4747:4753   */\n  0x00\n    /* \"#utility.yul\":4780:4782   */\n  0x40\n    /* \"#utility.yul\":4774:4783   */\n  mload\n    /* \"#utility.yul\":4764:4783   */\n  swap1\n  pop\n    /* \"#utility.yul\":4714:4789   */\n  swap1\n  jump\t// out\n    /* \"#utility.yul\":4795:5106   */\ntag_56:\n    /* \"#utility.yul\":4872:4876   */\n  0x00\n    /* \"#utility.yul\":4962:4980   */\n  0xffffffffffffffff\n    /* \"#utility.yul\":4954:4960   */\n  dup3\n    /* \"#utility.yul\":4951:4981   */\n  gt\n    /* \"#utility.yul\":4948:5004   */\n  iszero\n  tag_117\n  jumpi\n    /* \"#utility.yul\":4984:5002   */\n  tag_118\n  tag_119\n  jump\t// in\ntag_118:\n    /* \"#utility.yul\":4948:5004   */\ntag_117:\n    /* \"#utility.yul\":5034:5038   */\n  0x20\n    /* \"#utility.yul\":5026:5032   */\n  dup3\n    /* \"#utility.yul\":5022:5039   */\n  mul\n    /* \"#utility.yul\":5014:5039   */\n  swap1\n  pop\n    /* \"#utility.yul\":5094:5098   */\n  0x20\n    /* \"#utility.yul\":5088:5092   */\n  dup2\n    /* \"#utility.yul\":5084:5099   */\n  add\n    /* \"#utility.yul\":5076:5099   */\n  swap1\n  pop\n    /* \"#utility.yul\":4795:5106   */\n  swap2\n  swap1\n  pop\n  jump\t// out\n    /* \"#utility.yul\":5112:5281   */\ntag_91:\n    /* \"#utility.yul\":5196:5207   */\n  0x00\n    /* \"#utility.yul\":5230:5236   */\n  dup3\n    /* \"#utility.yul\":5225:5228   */\n  dup3\n    /* \"#utility.yul\":5218:5237   */\n  mstore\n    /* \"#utility.yul\":5270:5274   */\n  0x20\n    /* \"#utility.yul\":5265:5268   */\n  dup3\n    /* \"#utility.yul\":5261:5275   */\n  add\n    /* \"#utility.yul\":5246:5275   */\n  swap1\n  pop\n    /* \"#utility.yul\":5112:5281   */\n  swap3\n  swap2\n  pop\n  pop\n  jump\t// out\n    /* \"#utility.yul\":5287:5592   */\ntag_32:\n    /* \"#utility.yul\":5327:5330   */\n  0x00\n    /* \"#utility.yul\":5346:5366   */\n  tag_122\n    /* \"#utility.yul\":5364:5365   */\n  dup3\n    /* \"#utility.yul\":5346:5366   */\n  tag_123\n  jump\t// in\ntag_122:\n    /* \"#utility.yul\":5341:5366   */\n  swap2\n  pop\n    /* \"#utility.yul\":5380:5400   */\n  tag_124\n    /* \"#utility.yul\":5398:5399   */\n  dup4\n    /* \"#utility.yul\":5380:5400   */\n  tag_123\n  jump\t// in\ntag_124:\n    /* \"#utility.yul\":5375:5400   */\n  swap3\n  pop\n    /* \"#utility.yul\":5534:5535   */\n  dup3\n    /* \"#utility.yul\":5466:5532   */\n  0xffffffffffffffffffffffffffffffffffffffffffffffffffffffffffffffff\n    /* \"#utility.yul\":5462:5536   */\n  sub\n    /* \"#utility.yul\":5459:5460   */\n  dup3\n    /* \"#utility.yul\":5456:5537   */\n  gt\n    /* \"#utility.yul\":5453:5560   */\n  iszero\n  tag_125\n  jumpi\n    /* \"#utility.yul\":5540:5558   */\n  tag_126\n  tag_127\n  jump\t// in\ntag_126:\n    /* \"#utility.yul\":5453:5560   */\ntag_125:\n    /* \"#utility.yul\":5584:5585   */\n  dup3\n    /* \"#utility.yul\":5581:5582   */\n  dup3\n    /* \"#utility.yul\":5577:5586   */\n  add\n    /* \"#utility.yul\":5570:5586   */\n  swap1\n  pop\n    /* \"#utility.yul\":5287:5592   */\n  swap3\n  swap2\n  pop\n  pop\n  jump\t// out\n    /* \"#utility.yul\":5598:5789   */\ntag_26:\n    /* \"#utility.yul\":5638:5642   */\n  0x00\n    /* \"#utility.yul\":5658:5678   */\n  tag_129\n    /* \"#utility.yul\":5676:5677   */\n  dup3\n    /* \"#utility.yul\":5658:5678   */\n  tag_123\n  jump\t// in\ntag_129:\n    /* \"#utility.yul\":5653:5678   */\n  swap2\n  pop\n    /* \"#utility.yul\":5692:5712   */\n  tag_130\n    /* \"#utility.yul\":5710:5711   */\n  dup4\n    /* \"#utility.yul\":5692:5712   */\n  tag_123\n  jump\t// in\ntag_130:\n    /* \"#utility.yul\":5687:5712   */\n  swap3\n  pop\n    /* \"#utility.yul\":5731:5732   */\n  dup3\n    /* \"#utility.yul\":5728:5729   */\n  dup3\n    /* \"#utility.yul\":5725:5733   */\n  lt\n    /* \"#utility.yul\":5722:5756   */\n  iszero\n  tag_131\n  jumpi\n    /* \"#utility.yul\":5736:5754   */\n  tag_132\n  tag_127\n  jump\t// in\ntag_132:\n    /* \"#utility.yul\":5722:5756   */\ntag_131:\n    /* \"#utility.yul\":5781:5782   */\n  dup3\n    /* \"#utility.yul\":5778:5779   */\n  dup3\n    /* \"#utility.yul\":5774:5783   */\n  sub\n    /* \"#utility.yul\":5766:5783   */\n  swap1\n  pop\n    /* \"#utility.yul\":5598:5789   */\n  swap3\n  swap2\n  pop\n  pop\n  jump\t// out\n    /* \"#utility.yul\":5795:5891   */\ntag_133:\n    /* \"#utility.yul\":5832:5839   */\n  0x00\n    /* \"#utility.yul\":5861:5885   */\n  tag_135\n    /* \"#utility.yul\":5879:5884   */\n  dup3\n    /* \"#utility.yul\":5861:5885   */\n  tag_136\n  jump\t// in\ntag_135:\n    /* \"#utility.yul\":5850:5885   */\n  swap1\n  pop\n    /* \"#utility.yul\":5795:5891   */\n  swap2\n  swap1\n  pop\n  jump\t// out\n    /* \"#utility.yul\":5897:6023   */\ntag_136:\n    /* \"#utility.yul\":5934:5941   */\n  0x00\n    /* \"#utility.yul\":5974:6016   */\n  0xffffffffffffffffffffffffffffffffffffffff\n    /* \"#utility.yul\":5967:5972   */\n  dup3\n    /* \"#utility.yul\":5963:6017   */\n  and\n    /* \"#utility.yul\":5952:6017   */\n  swap1\n  pop\n    /* \"#utility.yul\":5897:6023   */\n  swap2\n  swap1\n  pop\n  jump\t// out\n    /* \"#utility.yul\":6029:6106   */\ntag_123:\n    /* \"#utility.yul\":6066:6073   */\n  0x00\n    /* \"#utility.yul\":6095:6100   */\n  dup2\n    /* \"#utility.yul\":6084:6100   */\n  swap1\n  pop\n    /* \"#utility.yul\":6029:6106   */\n  swap2\n  swap1\n  pop\n  jump\t// out\n    /* \"#utility.yul\":6112:6198   */\ntag_139:\n    /* \"#utility.yul\":6147:6154   */\n  0x00\n    /* \"#utility.yul\":6187:6191   */\n  0xff\n    /* \"#utility.yul\":6180:6185   */\n  dup3\n    /* \"#utility.yul\":6176:6192   */\n  and\n    /* \"#utility.yul\":6165:6192   */\n  swap1\n  pop\n    /* \"#utility.yul\":6112:6198   */\n  swap2\n  swap1\n  pop\n  jump\t// out\n    /* \"#utility.yul\":6204:6485   */\ntag_114:\n    /* \"#utility.yul\":6287:6314   */\n  tag_142\n    /* \"#utility.yul\":6309:6313   */\n  dup3\n    /* \"#utility.yul\":6287:6314   */\n  tag_143\n  jump\t// in\ntag_142:\n    /* \"#utility.yul\":6279:6285   */\n  dup2\n    /* \"#utility.yul\":6275:6315   */\n  add\n    /* \"#utility.yul\":6417:6423   */\n  dup2\n    /* \"#utility.yul\":6405:6415   */\n  dup2\n    /* \"#utility.yul\":6402:6424   */\n  lt\n    /* \"#utility.yul\":6381:6399   */\n  0xffffffffffffffff\n    /* \"#utility.yul\":6369:6379   */\n  dup3\n    /* \"#utility.yul\":6366:6400   */\n  gt\n    /* \"#utility.yul\":6363:6425   */\n  or\n    /* \"#utility.yul\":6360:6448   */\n  iszero\n  tag_144\n  jumpi\n    /* \"#utility.yul\":6428:6446   */\n  tag_145\n  tag_119\n  jump\t// in\ntag_145:\n    /* \"#utility.yul\":6360:6448   */\ntag_144:\n    /* \"#utility.yul\":6468:6478   */\n  dup1\n    /* \"#utility.yul\":6464:6466   */\n  0x40\n    /* \"#utility.yul\":6457:6479   */\n  mstore\n    /* \"#utility.yul\":6247:6485   */\n  pop\n    /* \"#utility.yul\":6204:6485   */\n  pop\n  pop\n  jump\t// out\n    /* \"#utility.yul\":6491:6724   */\ntag_42:\n    /* \"#utility.yul\":6530:6533   */\n  0x00\n    /* \"#utility.yul\":6553:6577   */\n  tag_147\n    /* \"#utility.yul\":6571:6576   */\n  dup3\n    /* \"#utility.yul\":6553:6577   */\n  tag_123\n  jump\t// in\ntag_147:\n    /* \"#utility.yul\":6544:6577   */\n  swap2\n  pop\n    /* \"#utility.yul\":6599:6665   */\n  0xffffffffffffffffffffffffffffffffffffffffffffffffffffffffffffffff\n    /* \"#utility.yul\":6592:6597   */\n  dup3\n    /* \"#utility.yul\":6589:6666   */\n  eq\n    /* \"#utility.yul\":6586:6689   */\n  iszero\n  tag_148\n  jumpi\n    /* \"#utility.yul\":6669:6687   */\n  tag_149\n  tag_127\n  jump\t// in\ntag_149:\n    /* \"#utility.yul\":6586:6689   */\ntag_148:\n    /* \"#utility.yul\":6716:6717   */\n  0x01\n    /* \"#utility.yul\":6709:6714   */\n  dup3\n    /* \"#utility.yul\":6705:6718   */\n  add\n    /* \"#utility.yul\":6698:6718   */\n  swap1\n  pop\n    /* \"#utility.yul\":6491:6724   */\n  swap2\n  swap1\n  pop\n  jump\t// out\n    /* \"#utility.yul\":6730:6910   */\ntag_127:\n    /* \"#utility.yul\":6778:6855   */\n  0x4e487b7100000000000000000000000000000000000000000000000000000000\n    /* \"#utility.yul\":6775:6776   */\n  0x00\n    /* \"#utility.yul\":6768:6856   */\n  mstore\n    /* \"#utility.yul\":6875:6879   */\n  0x11\n    /* \"#utility.yul\":6872:6873   */\n  0x04\n    /* \"#utility.yul\":6865:6880   */\n  mstore\n    /* \"#utility.yul\":6899:6903   */\n  0x24\n    /* \"#utility.yul\":6896:6897   */\n  0x00\n    /* \"#utility.yul\":6889:6904   */\n  revert\n    /* \"#utility.yul\":6916:7096   */\ntag_35:\n    /* \"#utility.yul\":6964:7041   */\n  0x4e487b7100000000000000000000000000000000000000000000000000000000\n    /* \"#utility.yul\":6961:6962   */\n  0x00\n    /* \"#utility.yul\":6954:7042   */\n  mstore\n    /* \"#utility.yul\":7061:7065   */\n  0x32\n    /* \"#utility.yul\":7058:7059   */\n  0x04\n    /* \"#utility.yul\":7051:7066   */\n  mstore\n    /* \"#utility.yul\":7085:7089   */\n  0x24\n    /* \"#utility.yul\":7082:7083   */\n  0x00\n    /* \"#utility.yul\":7075:7090   */\n  revert\n    /* \"#utility.yul\":7102:7282   */\ntag_119:\n    /* \"#utility.yul\":7150:7227   */\n  0x4e487b7100000000000000000000000000000000000000000000000000000000\n    /* \"#utility.yul\":7147:7148   */\n  0x00\n    /* \"#utility.yul\":7140:7228   */\n  mstore\n    /* \"#utility.yul\":7247:7251   */\n  0x41\n    /* \"#utility.yul\":7244:7245   */\n  0x04\n    /* \"#utility.yul\":7237:7252   */\n  mstore\n    /* \"#utility.yul\":7271:7275   */\n  0x24\n    /* \"#utility.yul\":7268:7269   */\n  0x00\n    /* \"#utility.yul\":7261:7276   */\n  revert\n    /* \"#utility.yul\":7288:7405   */\ntag_73:\n    /* \"#utility.yul\":7397:7398   */\n  0x00\n    /* \"#utility.yul\":7394:7395   */\n  dup1\n    /* \"#utility.yul\":7387:7399   */\n  revert\n    /* \"#utility.yul\":7411:7528   */\ntag_60:\n    /* \"#utility.yul\":7520:7521   */\n  0x00\n    /* \"#utility.yul\":7517:7518   */\n  dup1\n    /* \"#utility.yul\":7510:7522   */\n  revert\n    /* \"#utility.yul\":7534:7651   */\ntag_85:\n    /* \"#utility.yul\":7643:7644   */\n  0x00\n    /* \"#utility.yul\":7640:7641   */\n  dup1\n    /* \"#utility.yul\":7633:7645   */\n  revert\n    /* \"#utility.yul\":7657:7774   */\ntag_82:\n    /* \"#utility.yul\":7766:7767   */\n  0x00\n    /* \"#utility.yul\":7763:7764   */\n  dup1\n    /* \"#utility.yul\":7756:7768   */\n  revert\n    /* \"#utility.yul\":7780:7882   */\ntag_143:\n    /* \"#utility.yul\":7821:7827   */\n  0x00\n    /* \"#utility.yul\":7872:7874   */\n  0x1f\n    /* \"#utility.yul\":7868:7875   */\n  not\n    /* \"#utility.yul\":7863:7865   */\n  0x1f\n    /* \"#utility.yul\":7856:7861   */\n  dup4\n    /* \"#utility.yul\":7852:7866   */\n  add\n    /* \"#utility.yul\":7848:7876   */\n  and\n    /* \"#utility.yul\":7838:7876   */\n  swap1\n  pop\n    /* \"#utility.yul\":7780:7882   */\n  swap2\n  swap1\n  pop\n  jump\t// out\n    /* \"#utility.yul\":7888:8111   */\ntag_93:\n    /* \"#utility.yul\":8028:8062   */\n  0x616c6c20636f6c6c61626f7261746f727320636f756e74206174206c65617374\n    /* \"#utility.yul\":8024:8025   */\n  0x00\n    /* \"#utility.yul\":8016:8022   */\n  dup3\n    /* \"#utility.yul\":8012:8026   */\n  add\n    /* \"#utility.yul\":8005:8063   */\n  mstore\n    /* \"#utility.yul\":8097:8103   */\n  0x206f6e6500000000000000000000000000000000000000000000000000000000\n    /* \"#utility.yul\":8092:8094   */\n  0x20\n    /* \"#utility.yul\":8084:8090   */\n  dup3\n    /* \"#utility.yul\":8080:8095   */\n  add\n    /* \"#utility.yul\":8073:8104   */\n  mstore\n    /* \"#utility.yul\":7888:8111   */\n  pop\n  jump\t// out\n    /* \"#utility.yul\":8117:8343   */\ntag_98:\n    /* \"#utility.yul\":8257:8291   */\n  0x74686520636f6c6c61626f7261746f7273206d757374206e6f20626520647570\n    /* \"#utility.yul\":8253:8254   */\n  0x00\n    /* \"#utility.yul\":8245:8251   */\n  dup3\n    /* \"#utility.yul\":8241:8255   */\n  add\n    /* \"#utility.yul\":8234:8292   */\n  mstore\n    /* \"#utility.yul\":8326:8335   */\n  0x6c69636174656400000000000000000000000000000000000000000000000000\n    /* \"#utility.yul\":8321:8323   */\n  0x20\n    /* \"#utility.yul\":8313:8319   */\n  dup3\n    /* \"#utility.yul\":8309:8324   */\n  add\n    /* \"#utility.yul\":8302:8336   */\n  mstore\n    /* \"#utility.yul\":8117:8343   */\n  pop\n  jump\t// out\n    /* \"#utility.yul\":8349:8653   */\ntag_103:\n    /* \"#utility.yul\":8489:8523   */\n  0x6174206c65617374207369676e20636f756e74206d757374206d6f7265207468\n    /* \"#utility.yul\":8485:8486   */\n  0x00\n    /* \"#utility.yul\":8477:8483   */\n  dup3\n    /* \"#utility.yul\":8473:8487   */\n  add\n    /* \"#utility.yul\":8466:8524   */\n  mstore\n    /* \"#utility.yul\":8558:8592   */\n  0x616e203020616e64206c657373207468616e206f7220657175616c7320636f6c\n    /* \"#utility.yul\":8553:8555   */\n  0x20\n    /* \"#utility.yul\":8545:8551   */\n  dup3\n    /* \"#utility.yul\":8541:8556   */\n  add\n    /* \"#utility.yul\":8534:8593   */\n  mstore\n    /* \"#utility.yul\":8627:8645   */\n  0x6c61626f7261746f727320636f756e7400000000000000000000000000000000\n    /* \"#utility.yul\":8622:8624   */\n  0x40\n    /* \"#utility.yul\":8614:8620   */\n  dup3\n    /* \"#utility.yul\":8610:8625   */\n  add\n    /* \"#utility.yul\":8603:8646   */\n  mstore\n    /* \"#utility.yul\":8349:8653   */\n  pop\n  jump\t// out\n    /* \"#utility.yul\":8659:8781   */\ntag_68:\n    /* \"#utility.yul\":8732:8756   */\n  tag_162\n    /* \"#utility.yul\":8750:8755   */\n  dup2\n    /* \"#utility.yul\":8732:8756   */\n  tag_133\n  jump\t// in\ntag_162:\n    /* \"#utility.yul\":8725:8730   */\n  dup2\n    /* \"#utility.yul\":8722:8757   */\n  eq\n    /* \"#utility.yul\":8712:8775   */\n  tag_163\n  jumpi\n    /* \"#utility.yul\":8771:8772   */\n  0x00\n    /* \"#utility.yul\":8768:8769   */\n  dup1\n    /* \"#utility.yul\":8761:8773   */\n  revert\n    /* \"#utility.yul\":8712:8775   */\ntag_163:\n    /* \"#utility.yul\":8659:8781   */\n  pop\n  jump\t// out\n    /* \"#utility.yul\":8787:8905   */\ntag_78:\n    /* \"#utility.yul\":8858:8880   */\n  tag_165\n    /* \"#utility.yul\":8874:8879   */\n  dup2\n    /* \"#utility.yul\":8858:8880   */\n  tag_139\n  jump\t// in\ntag_165:\n    /* \"#utility.yul\":8851:8856   */\n  dup2\n    /* \"#utility.yul\":8848:8881   */\n  eq\n    /* \"#utility.yul\":8838:8899   */\n  tag_166\n  jumpi\n    /* \"#utility.yul\":8895:8896   */\n  0x00\n    /* \"#utility.yul\":8892:8893   */\n  dup1\n    /* \"#utility.yul\":8885:8897   */\n  revert\n    /* \"#utility.yul\":8838:8899   */\ntag_166:\n    /* \"#utility.yul\":8787:8905   */\n  pop\n  jump\t// out\n    /* \"contracts/MultisigWallet.sol\":108:7478  contract MultisigWallet {... */\ntag_20:\n  dataSize(sub_0)\n  dup1\n  dataOffset(sub_0)\n  0x00\n  codecopy\n  0x00\n  return\nstop\n\nsub_0: assembly {\n        /* \"contracts/MultisigWallet.sol\":108:7478  contract MultisigWallet {... */\n      mstore(0x40, 0x80)\n      jumpi(tag_1, lt(calldatasize, 0x04))\n      shr(0xe0, calldataload(0x00))\n      dup1\n      0xb517e0b4\n      gt\n      tag_12\n      jumpi\n      dup1\n      0xb517e0b4\n      eq\n      tag_7\n      jumpi\n      dup1\n      0xb69ef8a8\n      eq\n      tag_8\n      jumpi\n      dup1\n      0xbc44e739\n      eq\n      tag_9\n      jumpi\n      dup1\n      0xca3ea43f\n      eq\n      tag_10\n      jumpi\n      dup1\n      0xcfa4a5f6\n      eq\n      tag_11\n      jumpi\n      jump(tag_1)\n    tag_12:\n      dup1\n      0x3bdf3e\n      eq\n      tag_2\n      jumpi\n      dup1\n      0x1535430b\n      eq\n      tag_3\n      jumpi\n      dup1\n      0x352ce050\n      eq\n      tag_4\n      jumpi\n      dup1\n      0x3a0a197b\n      eq\n      tag_5\n      jumpi\n      dup1\n      0x68a1376b\n      eq\n      tag_6\n      jumpi\n    tag_1:\n      0x00\n      dup1\n      revert\n        /* \"contracts/MultisigWallet.sol\":3280:3892  function process_withdraw(uint weis, address payable targetAddress) public onlyCollaborators {... */\n    tag_2:\n      callvalue\n      dup1\n      iszero\n      tag_13\n      jumpi\n      0x00\n      dup1\n      revert\n    tag_13:\n      pop\n      tag_14\n      0x04\n      dup1\n      calldatasize\n      sub\n      dup2\n      add\n      swap1\n      tag_15\n      swap2\n      swap1\n      tag_16\n      jump\t// in\n    tag_15:\n      tag_17\n      jump\t// in\n    tag_14:\n      stop\n        /* \"contracts/MultisigWallet.sol\":4258:4956  function cancel_withdraw_by_counterparty() public onlyCollaborators {... */\n    tag_3:\n      callvalue\n      dup1\n      iszero\n      tag_18\n      jumpi\n      0x00\n      dup1\n      revert\n    tag_18:\n      pop\n      tag_19\n      tag_20\n      jump\t// in\n    tag_19:\n      stop\n        /* \"contracts/MultisigWallet.sol\":5610:5974  function collaboratorSign() public onlyCollaborators {... */\n    tag_4:\n      callvalue\n      dup1\n      iszero\n      tag_21\n      jumpi\n      0x00\n      dup1\n      revert\n    tag_21:\n      pop\n      tag_22\n      tag_23\n      jump\t// in\n    tag_22:\n      stop\n        /* \"contracts/MultisigWallet.sol\":1163:1192  uint public withdraw_fee_rate */\n    tag_5:\n      callvalue\n      dup1\n      iszero\n      tag_24\n      jumpi\n      0x00\n      dup1\n      revert\n    tag_24:\n      pop\n      tag_25\n      tag_26\n      jump\t// in\n    tag_25:\n      mload(0x40)\n      tag_27\n      swap2\n      swap1\n      tag_28\n      jump\t// in\n    tag_27:\n      mload(0x40)\n      dup1\n      swap2\n      sub\n      swap1\n      return\n        /* \"contracts/MultisigWallet.sol\":3099:3277  function topin() public payable {... */\n    tag_6:\n      tag_29\n      tag_30\n      jump\t// in\n    tag_29:\n      stop\n        /* \"contracts/MultisigWallet.sol\":4998:5160  function cancel_withdraw() public onlyCollaborators {... */\n    tag_7:\n      callvalue\n      dup1\n      iszero\n      tag_31\n      jumpi\n      0x00\n      dup1\n      revert\n    tag_31:\n      pop\n      tag_32\n      tag_33\n      jump\t// in\n    tag_32:\n      stop\n        /* \"contracts/MultisigWallet.sol\":169:188  uint public balance */\n    tag_8:\n      callvalue\n      dup1\n      iszero\n      tag_34\n      jumpi\n      0x00\n      dup1\n      revert\n    tag_34:\n      pop\n      tag_35\n      tag_36\n      jump\t// in\n    tag_35:\n      mload(0x40)\n      tag_37\n      swap2\n      swap1\n      tag_28\n      jump\t// in\n    tag_37:\n      mload(0x40)\n      dup1\n      swap2\n      sub\n      swap1\n      return\n        /* \"contracts/MultisigWallet.sol\":2044:2269  function changePlatformAccount(address newAccount) public {... */\n    tag_9:\n      callvalue\n      dup1\n      iszero\n      tag_38\n      jumpi\n      0x00\n      dup1\n      revert\n    tag_38:\n      pop\n      tag_39\n      0x04\n      dup1\n      calldatasize\n      sub\n      dup2\n      add\n      swap1\n      tag_40\n      swap2\n      swap1\n      tag_41\n      jump\t// in\n    tag_40:\n      tag_42\n      jump\t// in\n    tag_39:\n      stop\n        /* \"contracts/MultisigWallet.sol\":1085:1111  uint public withdraw_count */\n    tag_10:\n      callvalue\n      dup1\n      iszero\n      tag_43\n      jumpi\n      0x00\n      dup1\n      revert\n    tag_43:\n      pop\n      tag_44\n      tag_45\n      jump\t// in\n    tag_44:\n      mload(0x40)\n      tag_46\n      swap2\n      swap1\n      tag_28\n      jump\t// in\n    tag_46:\n      mload(0x40)\n      dup1\n      swap2\n      sub\n      swap1\n      return\n        /* \"contracts/MultisigWallet.sol\":1220:1251  uint public withdraw_free_count */\n    tag_11:\n      callvalue\n      dup1\n      iszero\n      tag_47\n      jumpi\n      0x00\n      dup1\n      revert\n    tag_47:\n      pop\n      tag_48\n      tag_49\n      jump\t// in\n    tag_48:\n      mload(0x40)\n      tag_50\n      swap2\n      swap1\n      tag_28\n      jump\t// in\n    tag_50:\n      mload(0x40)\n      dup1\n      swap2\n      sub\n      swap1\n      return\n        /* \"contracts/MultisigWallet.sol\":3280:3892  function process_withdraw(uint weis, address payable targetAddress) public onlyCollaborators {... */\n    tag_17:\n        /* \"contracts/MultisigWallet.sol\":2967:2991  is_oneof_collaborators() */\n      tag_52\n        /* \"contracts/MultisigWallet.sol\":2967:2989  is_oneof_collaborators */\n      tag_53\n        /* \"contracts/MultisigWallet.sol\":2967:2991  is_oneof_collaborators() */\n      jump\t// in\n    tag_52:\n        /* \"contracts/MultisigWallet.sol\":2959:3034  require(is_oneof_collaborators(), \"only collaborators have the permission\") */\n      tag_54\n      jumpi\n      mload(0x40)\n      0x08c379a000000000000000000000000000000000000000000000000000000000\n      dup2\n      mstore\n      0x04\n      add\n      tag_55\n      swap1\n      tag_56\n      jump\t// in\n    tag_55:\n      mload(0x40)\n      dup1\n      swap2\n      sub\n      swap1\n      revert\n    tag_54:\n        /* \"contracts/MultisigWallet.sol\":3409:3410  0 */\n      0x00\n        /* \"contracts/MultisigWallet.sol\":3385:3405  waitfor_withdraw_wei */\n      sload(0x04)\n        /* \"contracts/MultisigWallet.sol\":3385:3410  waitfor_withdraw_wei == 0 */\n      eq\n        /* \"contracts/MultisigWallet.sol\":3377:3444  require(waitfor_withdraw_wei == 0, \"pre process has not been over\") */\n      tag_58\n      jumpi\n      mload(0x40)\n      0x08c379a000000000000000000000000000000000000000000000000000000000\n      dup2\n      mstore\n      0x04\n      add\n      tag_59\n      swap1\n      tag_60\n      jump\t// in\n    tag_59:\n      mload(0x40)\n      dup1\n      swap2\n      sub\n      swap1\n      revert\n    tag_58:\n        /* \"contracts/MultisigWallet.sol\":3466:3473  balance */\n      sload(0x00)\n        /* \"contracts/MultisigWallet.sol\":3458:3462  weis */\n      dup3\n        /* \"contracts/MultisigWallet.sol\":3458:3473  weis <= balance */\n      gt\n      iszero\n        /* \"contracts/MultisigWallet.sol\":3450:3522  require(weis <= balance, \"withdraw balance could not more than balance\") */\n      tag_61\n      jumpi\n      mload(0x40)\n      0x08c379a000000000000000000000000000000000000000000000000000000000\n      dup2\n      mstore\n      0x04\n      add\n      tag_62\n      swap1\n      tag_63\n      jump\t// in\n    tag_62:\n      mload(0x40)\n      dup1\n      swap2\n      sub\n      swap1\n      revert\n    tag_61:\n        /* \"contracts/MultisigWallet.sol\":3559:3562  0x0 */\n      0x00\n        /* \"contracts/MultisigWallet.sol\":3534:3563  targetAddress != address(0x0) */\n      0xffffffffffffffffffffffffffffffffffffffff\n      and\n        /* \"contracts/MultisigWallet.sol\":3534:3547  targetAddress */\n      dup2\n        /* \"contracts/MultisigWallet.sol\":3534:3563  targetAddress != address(0x0) */\n      0xffffffffffffffffffffffffffffffffffffffff\n      and\n      eq\n      iszero\n        /* \"contracts/MultisigWallet.sol\":3526:3589  require(targetAddress != address(0x0), \"invalid targetAddress\") */\n      tag_64\n      jumpi\n      mload(0x40)\n      0x08c379a000000000000000000000000000000000000000000000000000000000\n      dup2\n      mstore\n      0x04\n      add\n      tag_65\n      swap1\n      tag_66\n      jump\t// in\n    tag_65:\n      mload(0x40)\n      dup1\n      swap2\n      sub\n      swap1\n      revert\n    tag_64:\n        /* \"contracts/MultisigWallet.sol\":3605:3615  msg.sender */\n      caller\n        /* \"contracts/MultisigWallet.sol\":3593:3602  initiator */\n      0x06\n      0x00\n        /* \"contracts/MultisigWallet.sol\":3593:3615  initiator = msg.sender */\n      0x0100\n      exp\n      dup2\n      sload\n      dup2\n      0xffffffffffffffffffffffffffffffffffffffff\n      mul\n      not\n      and\n      swap1\n      dup4\n      0xffffffffffffffffffffffffffffffffffffffff\n      and\n      mul\n      or\n      swap1\n      sstore\n      pop\n        /* \"contracts/MultisigWallet.sol\":3642:3646  weis */\n      dup2\n        /* \"contracts/MultisigWallet.sol\":3619:3639  waitfor_withdraw_wei */\n      0x04\n        /* \"contracts/MultisigWallet.sol\":3619:3646  waitfor_withdraw_wei = weis */\n      dup2\n      swap1\n      sstore\n      pop\n        /* \"contracts/MultisigWallet.sol\":3677:3690  targetAddress */\n      dup1\n        /* \"contracts/MultisigWallet.sol\":3650:3674  waitfor_withdraw_address */\n      0x05\n      0x00\n        /* \"contracts/MultisigWallet.sol\":3650:3690  waitfor_withdraw_address = targetAddress */\n      0x0100\n      exp\n      dup2\n      sload\n      dup2\n      0xffffffffffffffffffffffffffffffffffffffff\n      mul\n      not\n      and\n      swap1\n      dup4\n      0xffffffffffffffffffffffffffffffffffffffff\n      and\n      mul\n      or\n      swap1\n      sstore\n      pop\n        /* \"contracts/MultisigWallet.sol\":3694:3708  current_signed */\n      0x07\n        /* \"contracts/MultisigWallet.sol\":3714:3724  msg.sender */\n      caller\n        /* \"contracts/MultisigWallet.sol\":3694:3725  current_signed.push(msg.sender) */\n      swap1\n      dup1\n      0x01\n      dup2\n      sload\n      add\n      dup1\n      dup3\n      sstore\n      dup1\n      swap2\n      pop\n      pop\n      0x01\n      swap1\n      sub\n      swap1\n      0x00\n      mstore\n      keccak256(0x00, 0x20)\n      add\n      0x00\n      swap1\n      swap2\n      swap1\n      swap2\n      swap1\n      swap2\n      0x0100\n      exp\n      dup2\n      sload\n      dup2\n      0xffffffffffffffffffffffffffffffffffffffff\n      mul\n      not\n      and\n      swap1\n      dup4\n      0xffffffffffffffffffffffffffffffffffffffff\n      and\n      mul\n      or\n      swap1\n      sstore\n      pop\n        /* \"contracts/MultisigWallet.sol\":3845:3864  signedCountEnough() */\n      tag_68\n        /* \"contracts/MultisigWallet.sol\":3845:3862  signedCountEnough */\n      tag_69\n        /* \"contracts/MultisigWallet.sol\":3845:3864  signedCountEnough() */\n      jump\t// in\n    tag_68:\n        /* \"contracts/MultisigWallet.sol\":3842:3889  if(signedCountEnough()) {... */\n      iszero\n      tag_70\n      jumpi\n        /* \"contracts/MultisigWallet.sol\":3871:3884  do_withdraw() */\n      tag_71\n        /* \"contracts/MultisigWallet.sol\":3871:3882  do_withdraw */\n      tag_72\n        /* \"contracts/MultisigWallet.sol\":3871:3884  do_withdraw() */\n      jump\t// in\n    tag_71:\n        /* \"contracts/MultisigWallet.sol\":3842:3889  if(signedCountEnough()) {... */\n    tag_70:\n        /* \"contracts/MultisigWallet.sol\":3280:3892  function process_withdraw(uint weis, address payable targetAddress) public onlyCollaborators {... */\n      pop\n      pop\n      jump\t// out\n        /* \"contracts/MultisigWallet.sol\":4258:4956  function cancel_withdraw_by_counterparty() public onlyCollaborators {... */\n    tag_20:\n        /* \"contracts/MultisigWallet.sol\":2967:2991  is_oneof_collaborators() */\n      tag_74\n        /* \"contracts/MultisigWallet.sol\":2967:2989  is_oneof_collaborators */\n      tag_53\n        /* \"contracts/MultisigWallet.sol\":2967:2991  is_oneof_collaborators() */\n      jump\t// in\n    tag_74:\n        /* \"contracts/MultisigWallet.sol\":2959:3034  require(is_oneof_collaborators(), \"only collaborators have the permission\") */\n      tag_75\n      jumpi\n      mload(0x40)\n      0x08c379a000000000000000000000000000000000000000000000000000000000\n      dup2\n      mstore\n      0x04\n      add\n      tag_76\n      swap1\n      tag_56\n      jump\t// in\n    tag_76:\n      mload(0x40)\n      dup1\n      swap2\n      sub\n      swap1\n      revert\n    tag_75:\n        /* \"contracts/MultisigWallet.sol\":4352:4361  initiator */\n      0x06\n      0x00\n      swap1\n      sload\n      swap1\n      0x0100\n      exp\n      swap1\n      div\n      0xffffffffffffffffffffffffffffffffffffffff\n      and\n        /* \"contracts/MultisigWallet.sol\":4338:4361  msg.sender != initiator */\n      0xffffffffffffffffffffffffffffffffffffffff\n      and\n        /* \"contracts/MultisigWallet.sol\":4338:4348  msg.sender */\n      caller\n        /* \"contracts/MultisigWallet.sol\":4338:4361  msg.sender != initiator */\n      0xffffffffffffffffffffffffffffffffffffffff\n      and\n      eq\n      iszero\n        /* \"contracts/MultisigWallet.sol\":4330:4424  require(msg.sender != initiator, \"only the counter party of initiator can call this function\") */\n      tag_78\n      jumpi\n      mload(0x40)\n      0x08c379a000000000000000000000000000000000000000000000000000000000\n      dup2\n      mstore\n      0x04\n      add\n      tag_79\n      swap1\n      tag_80\n      jump\t// in\n    tag_79:\n      mload(0x40)\n      dup1\n      swap2\n      sub\n      swap1\n      revert\n    tag_78:\n        /* \"contracts/MultisigWallet.sol\":4437:4501  address_array_in(current_cancel_counterparty_signed, msg.sender) */\n      tag_81\n        /* \"contracts/MultisigWallet.sol\":4454:4488  current_cancel_counterparty_signed */\n      0x08\n        /* \"contracts/MultisigWallet.sol\":4437:4501  address_array_in(current_cancel_counterparty_signed, msg.sender) */\n      dup1\n      sload\n      dup1\n      0x20\n      mul\n      0x20\n      add\n      mload(0x40)\n      swap1\n      dup2\n      add\n      0x40\n      mstore\n      dup1\n      swap3\n      swap2\n      swap1\n      dup2\n      dup2\n      mstore\n      0x20\n      add\n      dup3\n      dup1\n      sload\n      dup1\n      iszero\n      tag_82\n      jumpi\n      0x20\n      mul\n      dup3\n      add\n      swap2\n      swap1\n      0x00\n      mstore\n      keccak256(0x00, 0x20)\n      swap1\n    tag_83:\n      dup2\n      0x00\n      swap1\n      sload\n      swap1\n      0x0100\n      exp\n      swap1\n      div\n      0xffffffffffffffffffffffffffffffffffffffff\n      and\n      0xffffffffffffffffffffffffffffffffffffffff\n      and\n      dup2\n      mstore\n      0x20\n      add\n      swap1\n      0x01\n      add\n      swap1\n      dup1\n      dup4\n      gt\n      tag_83\n      jumpi\n    tag_82:\n      pop\n      pop\n      pop\n      pop\n      pop\n        /* \"contracts/MultisigWallet.sol\":4490:4500  msg.sender */\n      caller\n        /* \"contracts/MultisigWallet.sol\":4437:4453  address_array_in */\n      tag_84\n        /* \"contracts/MultisigWallet.sol\":4437:4501  address_array_in(current_cancel_counterparty_signed, msg.sender) */\n      jump\t// in\n    tag_81:\n        /* \"contracts/MultisigWallet.sol\":4436:4501  !address_array_in(current_cancel_counterparty_signed, msg.sender) */\n      iszero\n        /* \"contracts/MultisigWallet.sol\":4428:4552  require(!address_array_in(current_cancel_counterparty_signed, msg.sender), \"you have signed for cancellation, don't repeat\") */\n      tag_85\n      jumpi\n      mload(0x40)\n      0x08c379a000000000000000000000000000000000000000000000000000000000\n      dup2\n      mstore\n      0x04\n      add\n      tag_86\n      swap1\n      tag_87\n      jump\t// in\n    tag_86:\n      mload(0x40)\n      dup1\n      swap2\n      sub\n      swap1\n      revert\n    tag_85:\n        /* \"contracts/MultisigWallet.sol\":4587:4588  0 */\n      0x00\n        /* \"contracts/MultisigWallet.sol\":4564:4584  waitfor_withdraw_wei */\n      sload(0x04)\n        /* \"contracts/MultisigWallet.sol\":4564:4588  waitfor_withdraw_wei > 0 */\n      gt\n        /* \"contracts/MultisigWallet.sol\":4556:4640  require(waitfor_withdraw_wei > 0, \"there isn't any withdrwals wait for cancelation\") */\n      tag_88\n      jumpi\n      mload(0x40)\n      0x08c379a000000000000000000000000000000000000000000000000000000000\n      dup2\n      mstore\n      0x04\n      add\n      tag_89\n      swap1\n      tag_90\n      jump\t// in\n    tag_89:\n      mload(0x40)\n      dup1\n      swap2\n      sub\n      swap1\n      revert\n    tag_88:\n        /* \"contracts/MultisigWallet.sol\":4644:4678  current_cancel_counterparty_signed */\n      0x08\n        /* \"contracts/MultisigWallet.sol\":4684:4694  msg.sender */\n      caller\n        /* \"contracts/MultisigWallet.sol\":4644:4695  current_cancel_counterparty_signed.push(msg.sender) */\n      swap1\n      dup1\n      0x01\n      dup2\n      sload\n      add\n      dup1\n      dup3\n      sstore\n      dup1\n      swap2\n      pop\n      pop\n      0x01\n      swap1\n      sub\n      swap1\n      0x00\n      mstore\n      keccak256(0x00, 0x20)\n      add\n      0x00\n      swap1\n      swap2\n      swap1\n      swap2\n      swap1\n      swap2\n      0x0100\n      exp\n      dup2\n      sload\n      dup2\n      0xffffffffffffffffffffffffffffffffffffffff\n      mul\n      not\n      and\n      swap1\n      dup4\n      0xffffffffffffffffffffffffffffffffffffffff\n      and\n      mul\n      or\n      swap1\n      sstore\n      pop\n        /* \"contracts/MultisigWallet.sol\":4699:4715  uint signedCount */\n      0x00\n        /* \"contracts/MultisigWallet.sol\":4727:4733  uint i */\n      dup1\n        /* \"contracts/MultisigWallet.sol\":4723:4876  for(uint i=0; i<current_cancel_counterparty_signed.length; i++) {... */\n    tag_92:\n        /* \"contracts/MultisigWallet.sol\":4739:4773  current_cancel_counterparty_signed */\n      0x08\n        /* \"contracts/MultisigWallet.sol\":4739:4780  current_cancel_counterparty_signed.length */\n      dup1\n      sload\n      swap1\n      pop\n        /* \"contracts/MultisigWallet.sol\":4737:4738  i */\n      dup2\n        /* \"contracts/MultisigWallet.sol\":4737:4780  i<current_cancel_counterparty_signed.length */\n      lt\n        /* \"contracts/MultisigWallet.sol\":4723:4876  for(uint i=0; i<current_cancel_counterparty_signed.length; i++) {... */\n      iszero\n      tag_93\n      jumpi\n        /* \"contracts/MultisigWallet.sol\":4844:4845  0 */\n      0x00\n        /* \"contracts/MultisigWallet.sol\":4795:4846  current_cancel_counterparty_signed[i] != address(0) */\n      0xffffffffffffffffffffffffffffffffffffffff\n      and\n        /* \"contracts/MultisigWallet.sol\":4795:4829  current_cancel_counterparty_signed */\n      0x08\n        /* \"contracts/MultisigWallet.sol\":4830:4831  i */\n      dup3\n        /* \"contracts/MultisigWallet.sol\":4795:4832  current_cancel_counterparty_signed[i] */\n      dup2\n      sload\n      dup2\n      lt\n      tag_95\n      jumpi\n      tag_96\n      tag_97\n      jump\t// in\n    tag_96:\n    tag_95:\n      swap1\n      0x00\n      mstore\n      keccak256(0x00, 0x20)\n      add\n      0x00\n      swap1\n      sload\n      swap1\n      0x0100\n      exp\n      swap1\n      div\n      0xffffffffffffffffffffffffffffffffffffffff\n      and\n        /* \"contracts/MultisigWallet.sol\":4795:4846  current_cancel_counterparty_signed[i] != address(0) */\n      0xffffffffffffffffffffffffffffffffffffffff\n      and\n      eq\n        /* \"contracts/MultisigWallet.sol\":4792:4872  if(current_cancel_counterparty_signed[i] != address(0)){... */\n      tag_99\n      jumpi\n        /* \"contracts/MultisigWallet.sol\":4853:4866  signedCount++ */\n      dup2\n      dup1\n      tag_100\n      swap1\n      tag_101\n      jump\t// in\n    tag_100:\n      swap3\n      pop\n      pop\n        /* \"contracts/MultisigWallet.sol\":4792:4872  if(current_cancel_counterparty_signed[i] != address(0)){... */\n    tag_99:\n        /* \"contracts/MultisigWallet.sol\":4782:4785  i++ */\n      dup1\n      dup1\n      tag_102\n      swap1\n      tag_101\n      jump\t// in\n    tag_102:\n      swap2\n      pop\n      pop\n        /* \"contracts/MultisigWallet.sol\":4723:4876  for(uint i=0; i<current_cancel_counterparty_signed.length; i++) {... */\n      jump(tag_92)\n    tag_93:\n      pop\n        /* \"contracts/MultisigWallet.sol\":4920:4921  1 */\n      0x01\n        /* \"contracts/MultisigWallet.sol\":4897:4910  collaborators */\n      0x02\n        /* \"contracts/MultisigWallet.sol\":4897:4917  collaborators.length */\n      dup1\n      sload\n      swap1\n      pop\n        /* \"contracts/MultisigWallet.sol\":4897:4921  collaborators.length - 1 */\n      tag_103\n      swap2\n      swap1\n      tag_104\n      jump\t// in\n    tag_103:\n        /* \"contracts/MultisigWallet.sol\":4882:4893  signedCount */\n      dup2\n        /* \"contracts/MultisigWallet.sol\":4882:4921  signedCount == collaborators.length - 1 */\n      eq\n        /* \"contracts/MultisigWallet.sol\":4879:4953  if(signedCount == collaborators.length - 1) {... */\n      iszero\n      tag_105\n      jumpi\n        /* \"contracts/MultisigWallet.sol\":4928:4948  do_cancel_withdraw() */\n      tag_106\n        /* \"contracts/MultisigWallet.sol\":4928:4946  do_cancel_withdraw */\n      tag_107\n        /* \"contracts/MultisigWallet.sol\":4928:4948  do_cancel_withdraw() */\n      jump\t// in\n    tag_106:\n        /* \"contracts/MultisigWallet.sol\":4879:4953  if(signedCount == collaborators.length - 1) {... */\n    tag_105:\n        /* \"contracts/MultisigWallet.sol\":4326:4956  {... */\n      pop\n        /* \"contracts/MultisigWallet.sol\":4258:4956  function cancel_withdraw_by_counterparty() public onlyCollaborators {... */\n      jump\t// out\n        /* \"contracts/MultisigWallet.sol\":5610:5974  function collaboratorSign() public onlyCollaborators {... */\n    tag_23:\n        /* \"contracts/MultisigWallet.sol\":2967:2991  is_oneof_collaborators() */\n      tag_109\n        /* \"contracts/MultisigWallet.sol\":2967:2989  is_oneof_collaborators */\n      tag_53\n        /* \"contracts/MultisigWallet.sol\":2967:2991  is_oneof_collaborators() */\n      jump\t// in\n    tag_109:\n        /* \"contracts/MultisigWallet.sol\":2959:3034  require(is_oneof_collaborators(), \"only collaborators have the permission\") */\n      tag_110\n      jumpi\n      mload(0x40)\n      0x08c379a000000000000000000000000000000000000000000000000000000000\n      dup2\n      mstore\n      0x04\n      add\n      tag_111\n      swap1\n      tag_56\n      jump\t// in\n    tag_111:\n      mload(0x40)\n      dup1\n      swap2\n      sub\n      swap1\n      revert\n    tag_110:\n        /* \"contracts/MultisigWallet.sol\":5698:5699  0 */\n      0x00\n        /* \"contracts/MultisigWallet.sol\":5675:5695  waitfor_withdraw_wei */\n      sload(0x04)\n        /* \"contracts/MultisigWallet.sol\":5675:5699  waitfor_withdraw_wei > 0 */\n      gt\n        /* \"contracts/MultisigWallet.sol\":5667:5748  require(waitfor_withdraw_wei > 0, \"there is no withdraw action waiting for sign\") */\n      tag_113\n      jumpi\n      mload(0x40)\n      0x08c379a000000000000000000000000000000000000000000000000000000000\n      dup2\n      mstore\n      0x04\n      add\n      tag_114\n      swap1\n      tag_115\n      jump\t// in\n    tag_114:\n      mload(0x40)\n      dup1\n      swap2\n      sub\n      swap1\n      revert\n    tag_113:\n        /* \"contracts/MultisigWallet.sol\":5767:5783  already_signed() */\n      tag_116\n        /* \"contracts/MultisigWallet.sol\":5767:5781  already_signed */\n      tag_117\n        /* \"contracts/MultisigWallet.sol\":5767:5783  already_signed() */\n      jump\t// in\n    tag_116:\n        /* \"contracts/MultisigWallet.sol\":5766:5783  !already_signed() */\n      iszero\n        /* \"contracts/MultisigWallet.sol\":5758:5844  require(!already_signed(), \"you have signed this withdraw process, plz don't repeat.\") */\n      tag_118\n      jumpi\n      mload(0x40)\n      0x08c379a000000000000000000000000000000000000000000000000000000000\n      dup2\n      mstore\n      0x04\n      add\n      tag_119\n      swap1\n      tag_120\n      jump\t// in\n    tag_119:\n      mload(0x40)\n      dup1\n      swap2\n      sub\n      swap1\n      revert\n    tag_118:\n        /* \"contracts/MultisigWallet.sol\":5848:5862  current_signed */\n      0x07\n        /* \"contracts/MultisigWallet.sol\":5868:5878  msg.sender */\n      caller\n        /* \"contracts/MultisigWallet.sol\":5848:5879  current_signed.push(msg.sender) */\n      swap1\n      dup1\n      0x01\n      dup2\n      sload\n      add\n      dup1\n      dup3\n      sstore\n      dup1\n      swap2\n      pop\n      pop\n      0x01\n      swap1\n      sub\n      swap1\n      0x00\n      mstore\n      keccak256(0x00, 0x20)\n      add\n      0x00\n      swap1\n      swap2\n      swap1\n      swap2\n      swap1\n      swap2\n      0x0100\n      exp\n      dup2\n      sload\n      dup2\n      0xffffffffffffffffffffffffffffffffffffffff\n      mul\n      not\n      and\n      swap1\n      dup4\n      0xffffffffffffffffffffffffffffffffffffffff\n      and\n      mul\n      or\n      swap1\n      sstore\n      pop\n        /* \"contracts/MultisigWallet.sol\":5927:5946  signedCountEnough() */\n      tag_122\n        /* \"contracts/MultisigWallet.sol\":5927:5944  signedCountEnough */\n      tag_69\n        /* \"contracts/MultisigWallet.sol\":5927:5946  signedCountEnough() */\n      jump\t// in\n    tag_122:\n        /* \"contracts/MultisigWallet.sol\":5924:5971  if(signedCountEnough()) {... */\n      iszero\n      tag_123\n      jumpi\n        /* \"contracts/MultisigWallet.sol\":5953:5966  do_withdraw() */\n      tag_124\n        /* \"contracts/MultisigWallet.sol\":5953:5964  do_withdraw */\n      tag_72\n        /* \"contracts/MultisigWallet.sol\":5953:5966  do_withdraw() */\n      jump\t// in\n    tag_124:\n        /* \"contracts/MultisigWallet.sol\":5924:5971  if(signedCountEnough()) {... */\n    tag_123:\n        /* \"contracts/MultisigWallet.sol\":5610:5974  function collaboratorSign() public onlyCollaborators {... */\n      jump\t// out\n        /* \"contracts/MultisigWallet.sol\":1163:1192  uint public withdraw_fee_rate */\n    tag_26:\n      sload(0x0a)\n      dup2\n      jump\t// out\n        /* \"contracts/MultisigWallet.sol\":3099:3277  function topin() public payable {... */\n    tag_30:\n        /* \"contracts/MultisigWallet.sol\":3155:3156  0 */\n      0x00\n        /* \"contracts/MultisigWallet.sol\":3143:3152  msg.value */\n      callvalue\n        /* \"contracts/MultisigWallet.sol\":3143:3156  msg.value > 0 */\n      gt\n        /* \"contracts/MultisigWallet.sol\":3135:3249  require(msg.value > 0, \"TOPIN must more than 0 wei, indeed the gas fee do not decrease if you topin a low value.\") */\n      tag_126\n      jumpi\n      mload(0x40)\n      0x08c379a000000000000000000000000000000000000000000000000000000000\n      dup2\n      mstore\n      0x04\n      add\n      tag_127\n      swap1\n      tag_128\n      jump\t// in\n    tag_127:\n      mload(0x40)\n      dup1\n      swap2\n      sub\n      swap1\n      revert\n    tag_126:\n        /* \"contracts/MultisigWallet.sol\":3264:3273  msg.value */\n      callvalue\n        /* \"contracts/MultisigWallet.sol\":3253:3260  balance */\n      0x00\n      dup1\n        /* \"contracts/MultisigWallet.sol\":3253:3273  balance += msg.value */\n      dup3\n      dup3\n      sload\n      tag_129\n      swap2\n      swap1\n      tag_130\n      jump\t// in\n    tag_129:\n      swap3\n      pop\n      pop\n      dup2\n      swap1\n      sstore\n      pop\n        /* \"contracts/MultisigWallet.sol\":3099:3277  function topin() public payable {... */\n      jump\t// out\n        /* \"contracts/MultisigWallet.sol\":4998:5160  function cancel_withdraw() public onlyCollaborators {... */\n    tag_33:\n        /* \"contracts/MultisigWallet.sol\":2967:2991  is_oneof_collaborators() */\n      tag_132\n        /* \"contracts/MultisigWallet.sol\":2967:2989  is_oneof_collaborators */\n      tag_53\n        /* \"contracts/MultisigWallet.sol\":2967:2991  is_oneof_collaborators() */\n      jump\t// in\n    tag_132:\n        /* \"contracts/MultisigWallet.sol\":2959:3034  require(is_oneof_collaborators(), \"only collaborators have the permission\") */\n      tag_133\n      jumpi\n      mload(0x40)\n      0x08c379a000000000000000000000000000000000000000000000000000000000\n      dup2\n      mstore\n      0x04\n      add\n      tag_134\n      swap1\n      tag_56\n      jump\t// in\n    tag_134:\n      mload(0x40)\n      dup1\n      swap2\n      sub\n      swap1\n      revert\n    tag_133:\n        /* \"contracts/MultisigWallet.sol\":5076:5085  initiator */\n      0x06\n      0x00\n      swap1\n      sload\n      swap1\n      0x0100\n      exp\n      swap1\n      div\n      0xffffffffffffffffffffffffffffffffffffffff\n      and\n        /* \"contracts/MultisigWallet.sol\":5062:5085  msg.sender == initiator */\n      0xffffffffffffffffffffffffffffffffffffffff\n      and\n        /* \"contracts/MultisigWallet.sol\":5062:5072  msg.sender */\n      caller\n        /* \"contracts/MultisigWallet.sol\":5062:5085  msg.sender == initiator */\n      0xffffffffffffffffffffffffffffffffffffffff\n      and\n      eq\n        /* \"contracts/MultisigWallet.sol\":5054:5132  require(msg.sender == initiator, \"only the initiator can cancel this process\") */\n      tag_136\n      jumpi\n      mload(0x40)\n      0x08c379a000000000000000000000000000000000000000000000000000000000\n      dup2\n      mstore\n      0x04\n      add\n      tag_137\n      swap1\n      tag_138\n      jump\t// in\n    tag_137:\n      mload(0x40)\n      dup1\n      swap2\n      sub\n      swap1\n      revert\n    tag_136:\n        /* \"contracts/MultisigWallet.sol\":5136:5156  do_cancel_withdraw() */\n      tag_139\n        /* \"contracts/MultisigWallet.sol\":5136:5154  do_cancel_withdraw */\n      tag_107\n        /* \"contracts/MultisigWallet.sol\":5136:5156  do_cancel_withdraw() */\n      jump\t// in\n    tag_139:\n        /* \"contracts/MultisigWallet.sol\":4998:5160  function cancel_withdraw() public onlyCollaborators {... */\n      jump\t// out\n        /* \"contracts/MultisigWallet.sol\":169:188  uint public balance */\n    tag_36:\n      sload(0x00)\n      dup2\n      jump\t// out\n        /* \"contracts/MultisigWallet.sol\":2044:2269  function changePlatformAccount(address newAccount) public {... */\n    tag_42:\n        /* \"contracts/MultisigWallet.sol\":2134:2150  platform_account */\n      0x0c\n      0x00\n      swap1\n      sload\n      swap1\n      0x0100\n      exp\n      swap1\n      div\n      0xffffffffffffffffffffffffffffffffffffffff\n      and\n        /* \"contracts/MultisigWallet.sol\":2120:2150  msg.sender == platform_account */\n      0xffffffffffffffffffffffffffffffffffffffff\n      and\n        /* \"contracts/MultisigWallet.sol\":2120:2130  msg.sender */\n      caller\n        /* \"contracts/MultisigWallet.sol\":2120:2150  msg.sender == platform_account */\n      0xffffffffffffffffffffffffffffffffffffffff\n      and\n      eq\n        /* \"contracts/MultisigWallet.sol\":2112:2214  require(msg.sender == platform_account, \"only platform account itself can change it to other account\") */\n      tag_141\n      jumpi\n      mload(0x40)\n      0x08c379a000000000000000000000000000000000000000000000000000000000\n      dup2\n      mstore\n      0x04\n      add\n      tag_142\n      swap1\n      tag_143\n      jump\t// in\n    tag_142:\n      mload(0x40)\n      dup1\n      swap2\n      sub\n      swap1\n      revert\n    tag_141:\n        /* \"contracts/MultisigWallet.sol\":2251:2261  newAccount */\n      dup1\n        /* \"contracts/MultisigWallet.sol\":2224:2240  platform_account */\n      0x0c\n      0x00\n        /* \"contracts/MultisigWallet.sol\":2224:2262  platform_account = payable(newAccount) */\n      0x0100\n      exp\n      dup2\n      sload\n      dup2\n      0xffffffffffffffffffffffffffffffffffffffff\n      mul\n      not\n      and\n      swap1\n      dup4\n      0xffffffffffffffffffffffffffffffffffffffff\n      and\n      mul\n      or\n      swap1\n      sstore\n      pop\n        /* \"contracts/MultisigWallet.sol\":2044:2269  function changePlatformAccount(address newAccount) public {... */\n      pop\n      jump\t// out\n        /* \"contracts/MultisigWallet.sol\":1085:1111  uint public withdraw_count */\n    tag_45:\n      sload(0x09)\n      dup2\n      jump\t// out\n        /* \"contracts/MultisigWallet.sol\":1220:1251  uint public withdraw_free_count */\n    tag_49:\n      sload(0x0b)\n      dup2\n      jump\t// out\n        /* \"contracts/MultisigWallet.sol\":2645:2765  function is_oneof_collaborators() private view returns (bool) {... */\n    tag_53:\n        /* \"contracts/MultisigWallet.sol\":2701:2705  bool */\n      0x00\n        /* \"contracts/MultisigWallet.sol\":2718:2761  address_array_in(collaborators, msg.sender) */\n      tag_145\n        /* \"contracts/MultisigWallet.sol\":2735:2748  collaborators */\n      0x02\n        /* \"contracts/MultisigWallet.sol\":2718:2761  address_array_in(collaborators, msg.sender) */\n      dup1\n      sload\n      dup1\n      0x20\n      mul\n      0x20\n      add\n      mload(0x40)\n      swap1\n      dup2\n      add\n      0x40\n      mstore\n      dup1\n      swap3\n      swap2\n      swap1\n      dup2\n      dup2\n      mstore\n      0x20\n      add\n      dup3\n      dup1\n      sload\n      dup1\n      iszero\n      tag_146\n      jumpi\n      0x20\n      mul\n      dup3\n      add\n      swap2\n      swap1\n      0x00\n      mstore\n      keccak256(0x00, 0x20)\n      swap1\n    tag_147:\n      dup2\n      0x00\n      swap1\n      sload\n      swap1\n      0x0100\n      exp\n      swap1\n      div\n      0xffffffffffffffffffffffffffffffffffffffff\n      and\n      0xffffffffffffffffffffffffffffffffffffffff\n      and\n      dup2\n      mstore\n      0x20\n      add\n      swap1\n      0x01\n      add\n      swap1\n      dup1\n      dup4\n      gt\n      tag_147\n      jumpi\n    tag_146:\n      pop\n      pop\n      pop\n      pop\n      pop\n        /* \"contracts/MultisigWallet.sol\":2750:2760  msg.sender */\n      caller\n        /* \"contracts/MultisigWallet.sol\":2718:2734  address_array_in */\n      tag_84\n        /* \"contracts/MultisigWallet.sol\":2718:2761  address_array_in(collaborators, msg.sender) */\n      jump\t// in\n    tag_145:\n        /* \"contracts/MultisigWallet.sol\":2711:2761  return address_array_in(collaborators, msg.sender) */\n      swap1\n      pop\n        /* \"contracts/MultisigWallet.sol\":2645:2765  function is_oneof_collaborators() private view returns (bool) {... */\n      swap1\n      jump\t// out\n        /* \"contracts/MultisigWallet.sol\":7122:7475  function signedCountEnough() private view returns (bool) {... */\n    tag_69:\n        /* \"contracts/MultisigWallet.sol\":7173:7177  bool */\n      0x00\n        /* \"contracts/MultisigWallet.sol\":7183:7206  address[] memory signed */\n      dup1\n        /* \"contracts/MultisigWallet.sol\":7209:7223  current_signed */\n      0x07\n        /* \"contracts/MultisigWallet.sol\":7183:7223  address[] memory signed = current_signed */\n      dup1\n      sload\n      dup1\n      0x20\n      mul\n      0x20\n      add\n      mload(0x40)\n      swap1\n      dup2\n      add\n      0x40\n      mstore\n      dup1\n      swap3\n      swap2\n      swap1\n      dup2\n      dup2\n      mstore\n      0x20\n      add\n      dup3\n      dup1\n      sload\n      dup1\n      iszero\n      tag_149\n      jumpi\n      0x20\n      mul\n      dup3\n      add\n      swap2\n      swap1\n      0x00\n      mstore\n      keccak256(0x00, 0x20)\n      swap1\n    tag_150:\n      dup2\n      0x00\n      swap1\n      sload\n      swap1\n      0x0100\n      exp\n      swap1\n      div\n      0xffffffffffffffffffffffffffffffffffffffff\n      and\n      0xffffffffffffffffffffffffffffffffffffffff\n      and\n      dup2\n      mstore\n      0x20\n      add\n      swap1\n      0x01\n      add\n      swap1\n      dup1\n      dup4\n      gt\n      tag_150\n      jumpi\n    tag_149:\n      pop\n      pop\n      pop\n      pop\n      pop\n      swap1\n      pop\n        /* \"contracts/MultisigWallet.sol\":7227:7249  uint8 signedMatchCount */\n      0x00\n        /* \"contracts/MultisigWallet.sol\":7261:7267  uint i */\n      dup1\n        /* \"contracts/MultisigWallet.sol\":7257:7422  for(uint i=0; i<signed.length; i++) {... */\n    tag_151:\n        /* \"contracts/MultisigWallet.sol\":7273:7279  signed */\n      dup3\n        /* \"contracts/MultisigWallet.sol\":7273:7286  signed.length */\n      mload\n        /* \"contracts/MultisigWallet.sol\":7271:7272  i */\n      dup2\n        /* \"contracts/MultisigWallet.sol\":7271:7286  i<signed.length */\n      lt\n        /* \"contracts/MultisigWallet.sol\":7257:7422  for(uint i=0; i<signed.length; i++) {... */\n      iszero\n      tag_152\n      jumpi\n        /* \"contracts/MultisigWallet.sol\":7302:7308  uint j */\n      0x00\n        /* \"contracts/MultisigWallet.sol\":7298:7418  for(uint j=0; j<collaborators.length; j++) {... */\n    tag_154:\n        /* \"contracts/MultisigWallet.sol\":7314:7327  collaborators */\n      0x02\n        /* \"contracts/MultisigWallet.sol\":7314:7334  collaborators.length */\n      dup1\n      sload\n      swap1\n      pop\n        /* \"contracts/MultisigWallet.sol\":7312:7313  j */\n      dup2\n        /* \"contracts/MultisigWallet.sol\":7312:7334  j<collaborators.length */\n      lt\n        /* \"contracts/MultisigWallet.sol\":7298:7418  for(uint j=0; j<collaborators.length; j++) {... */\n      iszero\n      tag_155\n      jumpi\n        /* \"contracts/MultisigWallet.sol\":7370:7376  signed */\n      dup4\n        /* \"contracts/MultisigWallet.sol\":7377:7378  i */\n      dup3\n        /* \"contracts/MultisigWallet.sol\":7370:7379  signed[i] */\n      dup2\n      mload\n      dup2\n      lt\n      tag_157\n      jumpi\n      tag_158\n      tag_97\n      jump\t// in\n    tag_158:\n    tag_157:\n      0x20\n      mul\n      0x20\n      add\n      add\n      mload\n        /* \"contracts/MultisigWallet.sol\":7350:7379  collaborators[j] == signed[i] */\n      0xffffffffffffffffffffffffffffffffffffffff\n      and\n        /* \"contracts/MultisigWallet.sol\":7350:7363  collaborators */\n      0x02\n        /* \"contracts/MultisigWallet.sol\":7364:7365  j */\n      dup3\n        /* \"contracts/MultisigWallet.sol\":7350:7366  collaborators[j] */\n      dup2\n      sload\n      dup2\n      lt\n      tag_159\n      jumpi\n      tag_160\n      tag_97\n      jump\t// in\n    tag_160:\n    tag_159:\n      swap1\n      0x00\n      mstore\n      keccak256(0x00, 0x20)\n      add\n      0x00\n      swap1\n      sload\n      swap1\n      0x0100\n      exp\n      swap1\n      div\n      0xffffffffffffffffffffffffffffffffffffffff\n      and\n        /* \"contracts/MultisigWallet.sol\":7350:7379  collaborators[j] == signed[i] */\n      0xffffffffffffffffffffffffffffffffffffffff\n      and\n      eq\n        /* \"contracts/MultisigWallet.sol\":7347:7413  if(collaborators[j] == signed[i]) {... */\n      iszero\n      tag_162\n      jumpi\n        /* \"contracts/MultisigWallet.sol\":7388:7406  signedMatchCount++ */\n      dup3\n      dup1\n      tag_163\n      swap1\n      tag_164\n      jump\t// in\n    tag_163:\n      swap4\n      pop\n      pop\n        /* \"contracts/MultisigWallet.sol\":7347:7413  if(collaborators[j] == signed[i]) {... */\n    tag_162:\n        /* \"contracts/MultisigWallet.sol\":7336:7339  j++ */\n      dup1\n      dup1\n      tag_165\n      swap1\n      tag_101\n      jump\t// in\n    tag_165:\n      swap2\n      pop\n      pop\n        /* \"contracts/MultisigWallet.sol\":7298:7418  for(uint j=0; j<collaborators.length; j++) {... */\n      jump(tag_154)\n    tag_155:\n      pop\n        /* \"contracts/MultisigWallet.sol\":7288:7291  i++ */\n      dup1\n      dup1\n      tag_166\n      swap1\n      tag_101\n      jump\t// in\n    tag_166:\n      swap2\n      pop\n      pop\n        /* \"contracts/MultisigWallet.sol\":7257:7422  for(uint i=0; i<signed.length; i++) {... */\n      jump(tag_151)\n    tag_152:\n      pop\n        /* \"contracts/MultisigWallet.sol\":7452:7471  at_least_sign_count */\n      0x03\n      0x00\n      swap1\n      sload\n      swap1\n      0x0100\n      exp\n      swap1\n      div\n      0xff\n      and\n        /* \"contracts/MultisigWallet.sol\":7432:7471  signedMatchCount >= at_least_sign_count */\n      0xff\n      and\n        /* \"contracts/MultisigWallet.sol\":7432:7448  signedMatchCount */\n      dup2\n        /* \"contracts/MultisigWallet.sol\":7432:7471  signedMatchCount >= at_least_sign_count */\n      0xff\n      and\n      lt\n      iszero\n        /* \"contracts/MultisigWallet.sol\":7425:7471  return signedMatchCount >= at_least_sign_count */\n      swap3\n      pop\n      pop\n      pop\n        /* \"contracts/MultisigWallet.sol\":7122:7475  function signedCountEnough() private view returns (bool) {... */\n      swap1\n      jump\t// out\n        /* \"contracts/MultisigWallet.sol\":5980:6453  function do_withdraw() private {... */\n    tag_72:\n        /* \"contracts/MultisigWallet.sol\":6021:6030  uint weis */\n      0x00\n        /* \"contracts/MultisigWallet.sol\":6033:6053  waitfor_withdraw_wei */\n      sload(0x04)\n        /* \"contracts/MultisigWallet.sol\":6021:6053  uint weis = waitfor_withdraw_wei */\n      swap1\n      pop\n        /* \"contracts/MultisigWallet.sol\":6086:6087  0 */\n      0x00\n        /* \"contracts/MultisigWallet.sol\":6063:6083  waitfor_withdraw_wei */\n      0x04\n        /* \"contracts/MultisigWallet.sol\":6063:6087  waitfor_withdraw_wei = 0 */\n      dup2\n      swap1\n      sstore\n      pop\n        /* \"contracts/MultisigWallet.sol\":6097:6121  waitfor_withdraw_address */\n      0x05\n      0x00\n      swap1\n      sload\n      swap1\n      0x0100\n      exp\n      swap1\n      div\n      0xffffffffffffffffffffffffffffffffffffffff\n      and\n        /* \"contracts/MultisigWallet.sol\":6097:6130  waitfor_withdraw_address.transfer */\n      0xffffffffffffffffffffffffffffffffffffffff\n      and\n        /* \"contracts/MultisigWallet.sol\":6097:6136  waitfor_withdraw_address.transfer(weis) */\n      0x08fc\n        /* \"contracts/MultisigWallet.sol\":6131:6135  weis */\n      dup3\n        /* \"contracts/MultisigWallet.sol\":6097:6136  waitfor_withdraw_address.transfer(weis) */\n      swap1\n      dup2\n      iszero\n      mul\n      swap1\n      mload(0x40)\n      0x00\n      mload(0x40)\n      dup1\n      dup4\n      sub\n      dup2\n      dup6\n      dup9\n      dup9\n      call\n      swap4\n      pop\n      pop\n      pop\n      pop\n      iszero\n      dup1\n      iszero\n      tag_169\n      jumpi\n      returndatasize\n      0x00\n      dup1\n      returndatacopy\n      revert(0x00, returndatasize)\n    tag_169:\n      pop\n        /* \"contracts/MultisigWallet.sol\":6167:6171  weis */\n      dup1\n        /* \"contracts/MultisigWallet.sol\":6157:6164  balance */\n      sload(0x00)\n        /* \"contracts/MultisigWallet.sol\":6157:6171  balance - weis */\n      tag_170\n      swap2\n      swap1\n      tag_104\n      jump\t// in\n    tag_170:\n        /* \"contracts/MultisigWallet.sol\":6146:6153  balance */\n      0x00\n        /* \"contracts/MultisigWallet.sol\":6146:6171  balance =  balance - weis */\n      dup2\n      swap1\n      sstore\n      pop\n        /* \"contracts/MultisigWallet.sol\":6181:6195  withdraw_count */\n      0x09\n      0x00\n        /* \"contracts/MultisigWallet.sol\":6181:6197  withdraw_count++ */\n      dup2\n      sload\n      dup1\n      swap3\n      swap2\n      swap1\n      tag_171\n      swap1\n      tag_101\n      jump\t// in\n    tag_171:\n      swap2\n      swap1\n      pop\n      sstore\n      pop\n        /* \"contracts/MultisigWallet.sol\":6214:6238  waitfor_withdraw_address */\n      0x05\n      0x00\n        /* \"contracts/MultisigWallet.sol\":6207:6238  delete waitfor_withdraw_address */\n      0x0100\n      exp\n      dup2\n      sload\n      swap1\n      0xffffffffffffffffffffffffffffffffffffffff\n      mul\n      not\n      and\n      swap1\n      sstore\n        /* \"contracts/MultisigWallet.sol\":6256:6270  current_signed */\n      0x07\n      0x00\n        /* \"contracts/MultisigWallet.sol\":6249:6270  delete current_signed */\n      tag_172\n      swap2\n      swap1\n      tag_173\n      jump\t// in\n    tag_172:\n        /* \"contracts/MultisigWallet.sol\":6287:6296  initiator */\n      0x06\n      0x00\n        /* \"contracts/MultisigWallet.sol\":6280:6296  delete initiator */\n      0x0100\n      exp\n      dup2\n      sload\n      swap1\n      0xffffffffffffffffffffffffffffffffffffffff\n      mul\n      not\n      and\n      swap1\n      sstore\n        /* \"contracts/MultisigWallet.sol\":6313:6347  current_cancel_counterparty_signed */\n      0x08\n      0x00\n        /* \"contracts/MultisigWallet.sol\":6306:6347  delete current_cancel_counterparty_signed */\n      tag_174\n      swap2\n      swap1\n      tag_173\n      jump\t// in\n    tag_174:\n        /* \"contracts/MultisigWallet.sol\":6377:6396  withdraw_free_count */\n      sload(0x0b)\n        /* \"contracts/MultisigWallet.sol\":6360:6374  withdraw_count */\n      sload(0x09)\n        /* \"contracts/MultisigWallet.sol\":6360:6396  withdraw_count > withdraw_free_count */\n      gt\n        /* \"contracts/MultisigWallet.sol\":6357:6447  if(withdraw_count > withdraw_free_count) {... */\n      iszero\n      tag_175\n      jumpi\n        /* \"contracts/MultisigWallet.sol\":6412:6436  do_pay_service_fee(weis) */\n      tag_176\n        /* \"contracts/MultisigWallet.sol\":6431:6435  weis */\n      dup2\n        /* \"contracts/MultisigWallet.sol\":6412:6430  do_pay_service_fee */\n      tag_177\n        /* \"contracts/MultisigWallet.sol\":6412:6436  do_pay_service_fee(weis) */\n      jump\t// in\n    tag_176:\n        /* \"contracts/MultisigWallet.sol\":6357:6447  if(withdraw_count > withdraw_free_count) {... */\n    tag_175:\n        /* \"contracts/MultisigWallet.sol\":6011:6453  {... */\n      pop\n        /* \"contracts/MultisigWallet.sol\":5980:6453  function do_withdraw() private {... */\n      jump\t// out\n        /* \"contracts/MultisigWallet.sol\":6744:6991  function address_array_in(address[] memory array, address member) private pure returns (bool) {... */\n    tag_84:\n        /* \"contracts/MultisigWallet.sol\":6832:6836  bool */\n      0x00\n        /* \"contracts/MultisigWallet.sol\":6842:6854  bool inArray */\n      dup1\n        /* \"contracts/MultisigWallet.sol\":6857:6862  false */\n      0x00\n        /* \"contracts/MultisigWallet.sol\":6842:6862  bool inArray = false */\n      swap1\n      pop\n        /* \"contracts/MultisigWallet.sol\":6870:6876  uint i */\n      0x00\n        /* \"contracts/MultisigWallet.sol\":6866:6970  for(uint i=0; i<array.length; i++) {... */\n    tag_179:\n        /* \"contracts/MultisigWallet.sol\":6882:6887  array */\n      dup5\n        /* \"contracts/MultisigWallet.sol\":6882:6894  array.length */\n      mload\n        /* \"contracts/MultisigWallet.sol\":6880:6881  i */\n      dup2\n        /* \"contracts/MultisigWallet.sol\":6880:6894  i<array.length */\n      lt\n        /* \"contracts/MultisigWallet.sol\":6866:6970  for(uint i=0; i<array.length; i++) {... */\n      iszero\n      tag_180\n      jumpi\n        /* \"contracts/MultisigWallet.sol\":6921:6927  member */\n      dup4\n        /* \"contracts/MultisigWallet.sol\":6909:6927  array[i] == member */\n      0xffffffffffffffffffffffffffffffffffffffff\n      and\n        /* \"contracts/MultisigWallet.sol\":6909:6914  array */\n      dup6\n        /* \"contracts/MultisigWallet.sol\":6915:6916  i */\n      dup3\n        /* \"contracts/MultisigWallet.sol\":6909:6917  array[i] */\n      dup2\n      mload\n      dup2\n      lt\n      tag_182\n      jumpi\n      tag_183\n      tag_97\n      jump\t// in\n    tag_183:\n    tag_182:\n      0x20\n      mul\n      0x20\n      add\n      add\n      mload\n        /* \"contracts/MultisigWallet.sol\":6909:6927  array[i] == member */\n      0xffffffffffffffffffffffffffffffffffffffff\n      and\n      eq\n        /* \"contracts/MultisigWallet.sol\":6906:6966  if(array[i] == member) {... */\n      iszero\n      tag_184\n      jumpi\n        /* \"contracts/MultisigWallet.sol\":6945:6949  true */\n      0x01\n        /* \"contracts/MultisigWallet.sol\":6935:6949  inArray = true */\n      swap2\n      pop\n        /* \"contracts/MultisigWallet.sol\":6955:6960  break */\n      jump(tag_180)\n        /* \"contracts/MultisigWallet.sol\":6906:6966  if(array[i] == member) {... */\n    tag_184:\n        /* \"contracts/MultisigWallet.sol\":6896:6899  i++ */\n      dup1\n      dup1\n      tag_185\n      swap1\n      tag_101\n      jump\t// in\n    tag_185:\n      swap2\n      pop\n      pop\n        /* \"contracts/MultisigWallet.sol\":6866:6970  for(uint i=0; i<array.length; i++) {... */\n      jump(tag_179)\n    tag_180:\n      pop\n        /* \"contracts/MultisigWallet.sol\":6980:6987  inArray */\n      dup1\n        /* \"contracts/MultisigWallet.sol\":6973:6987  return inArray */\n      swap2\n      pop\n      pop\n        /* \"contracts/MultisigWallet.sol\":6744:6991  function address_array_in(address[] memory array, address member) private pure returns (bool) {... */\n      swap3\n      swap2\n      pop\n      pop\n      jump\t// out\n        /* \"contracts/MultisigWallet.sol\":5206:5402  function do_cancel_withdraw() private {... */\n    tag_107:\n        /* \"contracts/MultisigWallet.sol\":5255:5264  initiator */\n      0x06\n      0x00\n        /* \"contracts/MultisigWallet.sol\":5248:5264  delete initiator */\n      0x0100\n      exp\n      dup2\n      sload\n      swap1\n      0xffffffffffffffffffffffffffffffffffffffff\n      mul\n      not\n      and\n      swap1\n      sstore\n        /* \"contracts/MultisigWallet.sol\":5275:5299  waitfor_withdraw_address */\n      0x05\n      0x00\n        /* \"contracts/MultisigWallet.sol\":5268:5299  delete waitfor_withdraw_address */\n      0x0100\n      exp\n      dup2\n      sload\n      swap1\n      0xffffffffffffffffffffffffffffffffffffffff\n      mul\n      not\n      and\n      swap1\n      sstore\n        /* \"contracts/MultisigWallet.sol\":5327:5328  0 */\n      0x00\n        /* \"contracts/MultisigWallet.sol\":5304:5324  waitfor_withdraw_wei */\n      0x04\n        /* \"contracts/MultisigWallet.sol\":5304:5328  waitfor_withdraw_wei = 0 */\n      dup2\n      swap1\n      sstore\n      pop\n        /* \"contracts/MultisigWallet.sol\":5339:5353  current_signed */\n      0x07\n      0x00\n        /* \"contracts/MultisigWallet.sol\":5332:5353  delete current_signed */\n      tag_187\n      swap2\n      swap1\n      tag_173\n      jump\t// in\n    tag_187:\n        /* \"contracts/MultisigWallet.sol\":5364:5398  current_cancel_counterparty_signed */\n      0x08\n      0x00\n        /* \"contracts/MultisigWallet.sol\":5357:5398  delete current_cancel_counterparty_signed */\n      tag_188\n      swap2\n      swap1\n      tag_173\n      jump\t// in\n    tag_188:\n        /* \"contracts/MultisigWallet.sol\":5206:5402  function do_cancel_withdraw() private {... */\n      jump\t// out\n        /* \"contracts/MultisigWallet.sol\":6997:7119  function already_signed() private view returns (bool) {... */\n    tag_117:\n        /* \"contracts/MultisigWallet.sol\":7045:7049  bool */\n      0x00\n        /* \"contracts/MultisigWallet.sol\":7068:7112  address_array_in(current_signed, msg.sender) */\n      tag_190\n        /* \"contracts/MultisigWallet.sol\":7085:7099  current_signed */\n      0x07\n        /* \"contracts/MultisigWallet.sol\":7068:7112  address_array_in(current_signed, msg.sender) */\n      dup1\n      sload\n      dup1\n      0x20\n      mul\n      0x20\n      add\n      mload(0x40)\n      swap1\n      dup2\n      add\n      0x40\n      mstore\n      dup1\n      swap3\n      swap2\n      swap1\n      dup2\n      dup2\n      mstore\n      0x20\n      add\n      dup3\n      dup1\n      sload\n      dup1\n      iszero\n      tag_191\n      jumpi\n      0x20\n      mul\n      dup3\n      add\n      swap2\n      swap1\n      0x00\n      mstore\n      keccak256(0x00, 0x20)\n      swap1\n    tag_192:\n      dup2\n      0x00\n      swap1\n      sload\n      swap1\n      0x0100\n      exp\n      swap1\n      div\n      0xffffffffffffffffffffffffffffffffffffffff\n      and\n      0xffffffffffffffffffffffffffffffffffffffff\n      and\n      dup2\n      mstore\n      0x20\n      add\n      swap1\n      0x01\n      add\n      swap1\n      dup1\n      dup4\n      gt\n      tag_192\n      jumpi\n    tag_191:\n      pop\n      pop\n      pop\n      pop\n      pop\n        /* \"contracts/MultisigWallet.sol\":7101:7111  msg.sender */\n      caller\n        /* \"contracts/MultisigWallet.sol\":7068:7084  address_array_in */\n      tag_84\n        /* \"contracts/MultisigWallet.sol\":7068:7112  address_array_in(current_signed, msg.sender) */\n      jump\t// in\n    tag_190:\n        /* \"contracts/MultisigWallet.sol\":7061:7112  return address_array_in(current_signed, msg.sender) */\n      swap1\n      pop\n        /* \"contracts/MultisigWallet.sol\":6997:7119  function already_signed() private view returns (bool) {... */\n      swap1\n      jump\t// out\n        /* \"contracts/MultisigWallet.sol\":6459:6639  function do_pay_service_fee(uint transferWeis) private {       ... */\n    tag_177:\n        /* \"contracts/MultisigWallet.sol\":6531:6544  uint rate_wei */\n      0x00\n        /* \"contracts/MultisigWallet.sol\":6570:6587  withdraw_fee_rate */\n      sload(0x0a)\n        /* \"contracts/MultisigWallet.sol\":6562:6567  10000 */\n      0x2710\n        /* \"contracts/MultisigWallet.sol\":6547:6559  transferWeis */\n      dup4\n        /* \"contracts/MultisigWallet.sol\":6547:6567  transferWeis / 10000 */\n      tag_194\n      swap2\n      swap1\n      tag_195\n      jump\t// in\n    tag_194:\n        /* \"contracts/MultisigWallet.sol\":6547:6587  transferWeis / 10000 * withdraw_fee_rate */\n      tag_196\n      swap2\n      swap1\n      tag_197\n      jump\t// in\n    tag_196:\n        /* \"contracts/MultisigWallet.sol\":6531:6587  uint rate_wei = transferWeis / 10000 * withdraw_fee_rate */\n      swap1\n      pop\n        /* \"contracts/MultisigWallet.sol\":6597:6613  platform_account */\n      0x0c\n      0x00\n      swap1\n      sload\n      swap1\n      0x0100\n      exp\n      swap1\n      div\n      0xffffffffffffffffffffffffffffffffffffffff\n      and\n        /* \"contracts/MultisigWallet.sol\":6597:6622  platform_account.transfer */\n      0xffffffffffffffffffffffffffffffffffffffff\n      and\n        /* \"contracts/MultisigWallet.sol\":6597:6632  platform_account.transfer(rate_wei) */\n      0x08fc\n        /* \"contracts/MultisigWallet.sol\":6623:6631  rate_wei */\n      dup3\n        /* \"contracts/MultisigWallet.sol\":6597:6632  platform_account.transfer(rate_wei) */\n      swap1\n      dup2\n      iszero\n      mul\n      swap1\n      mload(0x40)\n      0x00\n      mload(0x40)\n      dup1\n      dup4\n      sub\n      dup2\n      dup6\n      dup9\n      dup9\n      call\n      swap4\n      pop\n      pop\n      pop\n      pop\n      iszero\n      dup1\n      iszero\n      tag_199\n      jumpi\n      returndatasize\n      0x00\n      dup1\n      returndatacopy\n      revert(0x00, returndatasize)\n    tag_199:\n      pop\n        /* \"contracts/MultisigWallet.sol\":6514:6639  {       ... */\n      pop\n        /* \"contracts/MultisigWallet.sol\":6459:6639  function do_pay_service_fee(uint transferWeis) private {       ... */\n      pop\n      jump\t// out\n    tag_173:\n      pop\n      dup1\n      sload\n      0x00\n      dup3\n      sstore\n      swap1\n      0x00\n      mstore\n      keccak256(0x00, 0x20)\n      swap1\n      dup2\n      add\n      swap1\n      tag_201\n      swap2\n      swap1\n      tag_202\n      jump\t// in\n    tag_201:\n      pop\n      jump\t// out\n    tag_202:\n    tag_203:\n      dup1\n      dup3\n      gt\n      iszero\n      tag_204\n      jumpi\n      0x00\n      dup2\n      0x00\n      swap1\n      sstore\n      pop\n      0x01\n      add\n      jump(tag_203)\n    tag_204:\n      pop\n      swap1\n      jump\t// out\n        /* \"#utility.yul\":7:146   */\n    tag_206:\n        /* \"#utility.yul\":53:58   */\n      0x00\n        /* \"#utility.yul\":91:97   */\n      dup2\n        /* \"#utility.yul\":78:98   */\n      calldataload\n        /* \"#utility.yul\":69:98   */\n      swap1\n      pop\n        /* \"#utility.yul\":107:140   */\n      tag_208\n        /* \"#utility.yul\":134:139   */\n      dup2\n        /* \"#utility.yul\":107:140   */\n      tag_209\n      jump\t// in\n    tag_208:\n        /* \"#utility.yul\":7:146   */\n      swap3\n      swap2\n      pop\n      pop\n      jump\t// out\n        /* \"#utility.yul\":152:307   */\n    tag_210:\n        /* \"#utility.yul\":206:211   */\n      0x00\n        /* \"#utility.yul\":244:250   */\n      dup2\n        /* \"#utility.yul\":231:251   */\n      calldataload\n        /* \"#utility.yul\":222:251   */\n      swap1\n      pop\n        /* \"#utility.yul\":260:301   */\n      tag_212\n        /* \"#utility.yul\":295:300   */\n      dup2\n        /* \"#utility.yul\":260:301   */\n      tag_213\n      jump\t// in\n    tag_212:\n        /* \"#utility.yul\":152:307   */\n      swap3\n      swap2\n      pop\n      pop\n      jump\t// out\n        /* \"#utility.yul\":313:452   */\n    tag_214:\n        /* \"#utility.yul\":359:364   */\n      0x00\n        /* \"#utility.yul\":397:403   */\n      dup2\n        /* \"#utility.yul\":384:404   */\n      calldataload\n        /* \"#utility.yul\":375:404   */\n      swap1\n      pop\n        /* \"#utility.yul\":413:446   */\n      tag_216\n        /* \"#utility.yul\":440:445   */\n      dup2\n        /* \"#utility.yul\":413:446   */\n      tag_217\n      jump\t// in\n    tag_216:\n        /* \"#utility.yul\":313:452   */\n      swap3\n      swap2\n      pop\n      pop\n      jump\t// out\n        /* \"#utility.yul\":458:787   */\n    tag_41:\n        /* \"#utility.yul\":517:523   */\n      0x00\n        /* \"#utility.yul\":566:568   */\n      0x20\n        /* \"#utility.yul\":554:563   */\n      dup3\n        /* \"#utility.yul\":545:552   */\n      dup5\n        /* \"#utility.yul\":541:564   */\n      sub\n        /* \"#utility.yul\":537:569   */\n      slt\n        /* \"#utility.yul\":534:653   */\n      iszero\n      tag_219\n      jumpi\n        /* \"#utility.yul\":572:651   */\n      tag_220\n      tag_221\n      jump\t// in\n    tag_220:\n        /* \"#utility.yul\":534:653   */\n    tag_219:\n        /* \"#utility.yul\":692:693   */\n      0x00\n        /* \"#utility.yul\":717:770   */\n      tag_222\n        /* \"#utility.yul\":762:769   */\n      dup5\n        /* \"#utility.yul\":753:759   */\n      dup3\n        /* \"#utility.yul\":742:751   */\n      dup6\n        /* \"#utility.yul\":738:760   */\n      add\n        /* \"#utility.yul\":717:770   */\n      tag_206\n      jump\t// in\n    tag_222:\n        /* \"#utility.yul\":707:770   */\n      swap2\n      pop\n        /* \"#utility.yul\":663:780   */\n      pop\n        /* \"#utility.yul\":458:787   */\n      swap3\n      swap2\n      pop\n      pop\n      jump\t// out\n        /* \"#utility.yul\":793:1283   */\n    tag_16:\n        /* \"#utility.yul\":869:875   */\n      0x00\n        /* \"#utility.yul\":877:883   */\n      dup1\n        /* \"#utility.yul\":926:928   */\n      0x40\n        /* \"#utility.yul\":914:923   */\n      dup4\n        /* \"#utility.yul\":905:912   */\n      dup6\n        /* \"#utility.yul\":901:924   */\n      sub\n        /* \"#utility.yul\":897:929   */\n      slt\n        /* \"#utility.yul\":894:1013   */\n      iszero\n      tag_224\n      jumpi\n        /* \"#utility.yul\":932:1011   */\n      tag_225\n      tag_221\n      jump\t// in\n    tag_225:\n        /* \"#utility.yul\":894:1013   */\n    tag_224:\n        /* \"#utility.yul\":1052:1053   */\n      0x00\n        /* \"#utility.yul\":1077:1130   */\n      tag_226\n        /* \"#utility.yul\":1122:1129   */\n      dup6\n        /* \"#utility.yul\":1113:1119   */\n      dup3\n        /* \"#utility.yul\":1102:1111   */\n      dup7\n        /* \"#utility.yul\":1098:1120   */\n      add\n        /* \"#utility.yul\":1077:1130   */\n      tag_214\n      jump\t// in\n    tag_226:\n        /* \"#utility.yul\":1067:1130   */\n      swap3\n      pop\n        /* \"#utility.yul\":1023:1140   */\n      pop\n        /* \"#utility.yul\":1179:1181   */\n      0x20\n        /* \"#utility.yul\":1205:1266   */\n      tag_227\n        /* \"#utility.yul\":1258:1265   */\n      dup6\n        /* \"#utility.yul\":1249:1255   */\n      dup3\n        /* \"#utility.yul\":1238:1247   */\n      dup7\n        /* \"#utility.yul\":1234:1256   */\n      add\n        /* \"#utility.yul\":1205:1266   */\n      tag_210\n      jump\t// in\n    tag_227:\n        /* \"#utility.yul\":1195:1266   */\n      swap2\n      pop\n        /* \"#utility.yul\":1150:1276   */\n      pop\n        /* \"#utility.yul\":793:1283   */\n      swap3\n      pop\n      swap3\n      swap1\n      pop\n      jump\t// out\n        /* \"#utility.yul\":1289:1655   */\n    tag_228:\n        /* \"#utility.yul\":1431:1434   */\n      0x00\n        /* \"#utility.yul\":1452:1519   */\n      tag_230\n        /* \"#utility.yul\":1516:1518   */\n      0x2f\n        /* \"#utility.yul\":1511:1514   */\n      dup4\n        /* \"#utility.yul\":1452:1519   */\n      tag_231\n      jump\t// in\n    tag_230:\n        /* \"#utility.yul\":1445:1519   */\n      swap2\n      pop\n        /* \"#utility.yul\":1528:1621   */\n      tag_232\n        /* \"#utility.yul\":1617:1620   */\n      dup3\n        /* \"#utility.yul\":1528:1621   */\n      tag_233\n      jump\t// in\n    tag_232:\n        /* \"#utility.yul\":1646:1648   */\n      0x40\n        /* \"#utility.yul\":1641:1644   */\n      dup3\n        /* \"#utility.yul\":1637:1649   */\n      add\n        /* \"#utility.yul\":1630:1649   */\n      swap1\n      pop\n        /* \"#utility.yul\":1289:1655   */\n      swap2\n      swap1\n      pop\n      jump\t// out\n        /* \"#utility.yul\":1661:2027   */\n    tag_234:\n        /* \"#utility.yul\":1803:1806   */\n      0x00\n        /* \"#utility.yul\":1824:1891   */\n      tag_236\n        /* \"#utility.yul\":1888:1890   */\n      0x3a\n        /* \"#utility.yul\":1883:1886   */\n      dup4\n        /* \"#utility.yul\":1824:1891   */\n      tag_231\n      jump\t// in\n    tag_236:\n        /* \"#utility.yul\":1817:1891   */\n      swap2\n      pop\n        /* \"#utility.yul\":1900:1993   */\n      tag_237\n        /* \"#utility.yul\":1989:1992   */\n      dup3\n        /* \"#utility.yul\":1900:1993   */\n      tag_238\n      jump\t// in\n    tag_237:\n        /* \"#utility.yul\":2018:2020   */\n      0x40\n        /* \"#utility.yul\":2013:2016   */\n      dup3\n        /* \"#utility.yul\":2009:2021   */\n      add\n        /* \"#utility.yul\":2002:2021   */\n      swap1\n      pop\n        /* \"#utility.yul\":1661:2027   */\n      swap2\n      swap1\n      pop\n      jump\t// out\n        /* \"#utility.yul\":2033:2399   */\n    tag_239:\n        /* \"#utility.yul\":2175:2178   */\n      0x00\n        /* \"#utility.yul\":2196:2263   */\n      tag_241\n        /* \"#utility.yul\":2260:2262   */\n      0x2e\n        /* \"#utility.yul\":2255:2258   */\n      dup4\n        /* \"#utility.yul\":2196:2263   */\n      tag_231\n      jump\t// in\n    tag_241:\n        /* \"#utility.yul\":2189:2263   */\n      swap2\n      pop\n        /* \"#utility.yul\":2272:2365   */\n      tag_242\n        /* \"#utility.yul\":2361:2364   */\n      dup3\n        /* \"#utility.yul\":2272:2365   */\n      tag_243\n      jump\t// in\n    tag_242:\n        /* \"#utility.yul\":2390:2392   */\n      0x40\n        /* \"#utility.yul\":2385:2388   */\n      dup3\n        /* \"#utility.yul\":2381:2393   */\n      add\n        /* \"#utility.yul\":2374:2393   */\n      swap1\n      pop\n        /* \"#utility.yul\":2033:2399   */\n      swap2\n      swap1\n      pop\n      jump\t// out\n        /* \"#utility.yul\":2405:2771   */\n    tag_244:\n        /* \"#utility.yul\":2547:2550   */\n      0x00\n        /* \"#utility.yul\":2568:2635   */\n      tag_246\n        /* \"#utility.yul\":2632:2634   */\n      0x15\n        /* \"#utility.yul\":2627:2630   */\n      dup4\n        /* \"#utility.yul\":2568:2635   */\n      tag_231\n      jump\t// in\n    tag_246:\n        /* \"#utility.yul\":2561:2635   */\n      swap2\n      pop\n        /* \"#utility.yul\":2644:2737   */\n      tag_247\n        /* \"#utility.yul\":2733:2736   */\n      dup3\n        /* \"#utility.yul\":2644:2737   */\n      tag_248\n      jump\t// in\n    tag_247:\n        /* \"#utility.yul\":2762:2764   */\n      0x20\n        /* \"#utility.yul\":2757:2760   */\n      dup3\n        /* \"#utility.yul\":2753:2765   */\n      add\n        /* \"#utility.yul\":2746:2765   */\n      swap1\n      pop\n        /* \"#utility.yul\":2405:2771   */\n      swap2\n      swap1\n      pop\n      jump\t// out\n        /* \"#utility.yul\":2777:3143   */\n    tag_249:\n        /* \"#utility.yul\":2919:2922   */\n      0x00\n        /* \"#utility.yul\":2940:3007   */\n      tag_251\n        /* \"#utility.yul\":3004:3006   */\n      0x3b\n        /* \"#utility.yul\":2999:3002   */\n      dup4\n        /* \"#utility.yul\":2940:3007   */\n      tag_231\n      jump\t// in\n    tag_251:\n        /* \"#utility.yul\":2933:3007   */\n      swap2\n      pop\n        /* \"#utility.yul\":3016:3109   */\n      tag_252\n        /* \"#utility.yul\":3105:3108   */\n      dup3\n        /* \"#utility.yul\":3016:3109   */\n      tag_253\n      jump\t// in\n    tag_252:\n        /* \"#utility.yul\":3134:3136   */\n      0x40\n        /* \"#utility.yul\":3129:3132   */\n      dup3\n        /* \"#utility.yul\":3125:3137   */\n      add\n        /* \"#utility.yul\":3118:3137   */\n      swap1\n      pop\n        /* \"#utility.yul\":2777:3143   */\n      swap2\n      swap1\n      pop\n      jump\t// out\n        /* \"#utility.yul\":3149:3515   */\n    tag_254:\n        /* \"#utility.yul\":3291:3294   */\n      0x00\n        /* \"#utility.yul\":3312:3379   */\n      tag_256\n        /* \"#utility.yul\":3376:3378   */\n      0x2c\n        /* \"#utility.yul\":3371:3374   */\n      dup4\n        /* \"#utility.yul\":3312:3379   */\n      tag_231\n      jump\t// in\n    tag_256:\n        /* \"#utility.yul\":3305:3379   */\n      swap2\n      pop\n        /* \"#utility.yul\":3388:3481   */\n      tag_257\n        /* \"#utility.yul\":3477:3480   */\n      dup3\n        /* \"#utility.yul\":3388:3481   */\n      tag_258\n      jump\t// in\n    tag_257:\n        /* \"#utility.yul\":3506:3508   */\n      0x40\n        /* \"#utility.yul\":3501:3504   */\n      dup3\n        /* \"#utility.yul\":3497:3509   */\n      add\n        /* \"#utility.yul\":3490:3509   */\n      swap1\n      pop\n        /* \"#utility.yul\":3149:3515   */\n      swap2\n      swap1\n      pop\n      jump\t// out\n        /* \"#utility.yul\":3521:3887   */\n    tag_259:\n        /* \"#utility.yul\":3663:3666   */\n      0x00\n        /* \"#utility.yul\":3684:3751   */\n      tag_261\n        /* \"#utility.yul\":3748:3750   */\n      0x38\n        /* \"#utility.yul\":3743:3746   */\n      dup4\n        /* \"#utility.yul\":3684:3751   */\n      tag_231\n      jump\t// in\n    tag_261:\n        /* \"#utility.yul\":3677:3751   */\n      swap2\n      pop\n        /* \"#utility.yul\":3760:3853   */\n      tag_262\n        /* \"#utility.yul\":3849:3852   */\n      dup3\n        /* \"#utility.yul\":3760:3853   */\n      tag_263\n      jump\t// in\n    tag_262:\n        /* \"#utility.yul\":3878:3880   */\n      0x40\n        /* \"#utility.yul\":3873:3876   */\n      dup3\n        /* \"#utility.yul\":3869:3881   */\n      add\n        /* \"#utility.yul\":3862:3881   */\n      swap1\n      pop\n        /* \"#utility.yul\":3521:3887   */\n      swap2\n      swap1\n      pop\n      jump\t// out\n        /* \"#utility.yul\":3893:4259   */\n    tag_264:\n        /* \"#utility.yul\":4035:4038   */\n      0x00\n        /* \"#utility.yul\":4056:4123   */\n      tag_266\n        /* \"#utility.yul\":4120:4122   */\n      0x58\n        /* \"#utility.yul\":4115:4118   */\n      dup4\n        /* \"#utility.yul\":4056:4123   */\n      tag_231\n      jump\t// in\n    tag_266:\n        /* \"#utility.yul\":4049:4123   */\n      swap2\n      pop\n        /* \"#utility.yul\":4132:4225   */\n      tag_267\n        /* \"#utility.yul\":4221:4224   */\n      dup3\n        /* \"#utility.yul\":4132:4225   */\n      tag_268\n      jump\t// in\n    tag_267:\n        /* \"#utility.yul\":4250:4252   */\n      0x60\n        /* \"#utility.yul\":4245:4248   */\n      dup3\n        /* \"#utility.yul\":4241:4253   */\n      add\n        /* \"#utility.yul\":4234:4253   */\n      swap1\n      pop\n        /* \"#utility.yul\":3893:4259   */\n      swap2\n      swap1\n      pop\n      jump\t// out\n        /* \"#utility.yul\":4265:4631   */\n    tag_269:\n        /* \"#utility.yul\":4407:4410   */\n      0x00\n        /* \"#utility.yul\":4428:4495   */\n      tag_271\n        /* \"#utility.yul\":4492:4494   */\n      0x1d\n        /* \"#utility.yul\":4487:4490   */\n      dup4\n        /* \"#utility.yul\":4428:4495   */\n      tag_231\n      jump\t// in\n    tag_271:\n        /* \"#utility.yul\":4421:4495   */\n      swap2\n      pop\n        /* \"#utility.yul\":4504:4597   */\n      tag_272\n        /* \"#utility.yul\":4593:4596   */\n      dup3\n        /* \"#utility.yul\":4504:4597   */\n      tag_273\n      jump\t// in\n    tag_272:\n        /* \"#utility.yul\":4622:4624   */\n      0x20\n        /* \"#utility.yul\":4617:4620   */\n      dup3\n        /* \"#utility.yul\":4613:4625   */\n      add\n        /* \"#utility.yul\":4606:4625   */\n      swap1\n      pop\n        /* \"#utility.yul\":4265:4631   */\n      swap2\n      swap1\n      pop\n      jump\t// out\n        /* \"#utility.yul\":4637:5003   */\n    tag_274:\n        /* \"#utility.yul\":4779:4782   */\n      0x00\n        /* \"#utility.yul\":4800:4867   */\n      tag_276\n        /* \"#utility.yul\":4864:4866   */\n      0x26\n        /* \"#utility.yul\":4859:4862   */\n      dup4\n        /* \"#utility.yul\":4800:4867   */\n      tag_231\n      jump\t// in\n    tag_276:\n        /* \"#utility.yul\":4793:4867   */\n      swap2\n      pop\n        /* \"#utility.yul\":4876:4969   */\n      tag_277\n        /* \"#utility.yul\":4965:4968   */\n      dup3\n        /* \"#utility.yul\":4876:4969   */\n      tag_278\n      jump\t// in\n    tag_277:\n        /* \"#utility.yul\":4994:4996   */\n      0x40\n        /* \"#utility.yul\":4989:4992   */\n      dup3\n        /* \"#utility.yul\":4985:4997   */\n      add\n        /* \"#utility.yul\":4978:4997   */\n      swap1\n      pop\n        /* \"#utility.yul\":4637:5003   */\n      swap2\n      swap1\n      pop\n      jump\t// out\n        /* \"#utility.yul\":5009:5375   */\n    tag_279:\n        /* \"#utility.yul\":5151:5154   */\n      0x00\n        /* \"#utility.yul\":5172:5239   */\n      tag_281\n        /* \"#utility.yul\":5236:5238   */\n      0x2a\n        /* \"#utility.yul\":5231:5234   */\n      dup4\n        /* \"#utility.yul\":5172:5239   */\n      tag_231\n      jump\t// in\n    tag_281:\n        /* \"#utility.yul\":5165:5239   */\n      swap2\n      pop\n        /* \"#utility.yul\":5248:5341   */\n      tag_282\n        /* \"#utility.yul\":5337:5340   */\n      dup3\n        /* \"#utility.yul\":5248:5341   */\n      tag_283\n      jump\t// in\n    tag_282:\n        /* \"#utility.yul\":5366:5368   */\n      0x40\n        /* \"#utility.yul\":5361:5364   */\n      dup3\n        /* \"#utility.yul\":5357:5369   */\n      add\n        /* \"#utility.yul\":5350:5369   */\n      swap1\n      pop\n        /* \"#utility.yul\":5009:5375   */\n      swap2\n      swap1\n      pop\n      jump\t// out\n        /* \"#utility.yul\":5381:5747   */\n    tag_284:\n        /* \"#utility.yul\":5523:5526   */\n      0x00\n        /* \"#utility.yul\":5544:5611   */\n      tag_286\n        /* \"#utility.yul\":5608:5610   */\n      0x2c\n        /* \"#utility.yul\":5603:5606   */\n      dup4\n        /* \"#utility.yul\":5544:5611   */\n      tag_231\n      jump\t// in\n    tag_286:\n        /* \"#utility.yul\":5537:5611   */\n      swap2\n      pop\n        /* \"#utility.yul\":5620:5713   */\n      tag_287\n        /* \"#utility.yul\":5709:5712   */\n      dup3\n        /* \"#utility.yul\":5620:5713   */\n      tag_288\n      jump\t// in\n    tag_287:\n        /* \"#utility.yul\":5738:5740   */\n      0x40\n        /* \"#utility.yul\":5733:5736   */\n      dup3\n        /* \"#utility.yul\":5729:5741   */\n      add\n        /* \"#utility.yul\":5722:5741   */\n      swap1\n      pop\n        /* \"#utility.yul\":5381:5747   */\n      swap2\n      swap1\n      pop\n      jump\t// out\n        /* \"#utility.yul\":5753:5871   */\n    tag_289:\n        /* \"#utility.yul\":5840:5864   */\n      tag_291\n        /* \"#utility.yul\":5858:5863   */\n      dup2\n        /* \"#utility.yul\":5840:5864   */\n      tag_292\n      jump\t// in\n    tag_291:\n        /* \"#utility.yul\":5835:5838   */\n      dup3\n        /* \"#utility.yul\":5828:5865   */\n      mstore\n        /* \"#utility.yul\":5753:5871   */\n      pop\n      pop\n      jump\t// out\n        /* \"#utility.yul\":5877:6296   */\n    tag_90:\n        /* \"#utility.yul\":6043:6047   */\n      0x00\n        /* \"#utility.yul\":6081:6083   */\n      0x20\n        /* \"#utility.yul\":6070:6079   */\n      dup3\n        /* \"#utility.yul\":6066:6084   */\n      add\n        /* \"#utility.yul\":6058:6084   */\n      swap1\n      pop\n        /* \"#utility.yul\":6130:6139   */\n      dup2\n        /* \"#utility.yul\":6124:6128   */\n      dup2\n        /* \"#utility.yul\":6120:6140   */\n      sub\n        /* \"#utility.yul\":6116:6117   */\n      0x00\n        /* \"#utility.yul\":6105:6114   */\n      dup4\n        /* \"#utility.yul\":6101:6118   */\n      add\n        /* \"#utility.yul\":6094:6141   */\n      mstore\n        /* \"#utility.yul\":6158:6289   */\n      tag_294\n        /* \"#utility.yul\":6284:6288   */\n      dup2\n        /* \"#utility.yul\":6158:6289   */\n      tag_228\n      jump\t// in\n    tag_294:\n        /* \"#utility.yul\":6150:6289   */\n      swap1\n      pop\n        /* \"#utility.yul\":5877:6296   */\n      swap2\n      swap1\n      pop\n      jump\t// out\n        /* \"#utility.yul\":6302:6721   */\n    tag_80:\n        /* \"#utility.yul\":6468:6472   */\n      0x00\n        /* \"#utility.yul\":6506:6508   */\n      0x20\n        /* \"#utility.yul\":6495:6504   */\n      dup3\n        /* \"#utility.yul\":6491:6509   */\n      add\n        /* \"#utility.yul\":6483:6509   */\n      swap1\n      pop\n        /* \"#utility.yul\":6555:6564   */\n      dup2\n        /* \"#utility.yul\":6549:6553   */\n      dup2\n        /* \"#utility.yul\":6545:6565   */\n      sub\n        /* \"#utility.yul\":6541:6542   */\n      0x00\n        /* \"#utility.yul\":6530:6539   */\n      dup4\n        /* \"#utility.yul\":6526:6543   */\n      add\n        /* \"#utility.yul\":6519:6566   */\n      mstore\n        /* \"#utility.yul\":6583:6714   */\n      tag_296\n        /* \"#utility.yul\":6709:6713   */\n      dup2\n        /* \"#utility.yul\":6583:6714   */\n      tag_234\n      jump\t// in\n    tag_296:\n        /* \"#utility.yul\":6575:6714   */\n      swap1\n      pop\n        /* \"#utility.yul\":6302:6721   */\n      swap2\n      swap1\n      pop\n      jump\t// out\n        /* \"#utility.yul\":6727:7146   */\n    tag_87:\n        /* \"#utility.yul\":6893:6897   */\n      0x00\n        /* \"#utility.yul\":6931:6933   */\n      0x20\n        /* \"#utility.yul\":6920:6929   */\n      dup3\n        /* \"#utility.yul\":6916:6934   */\n      add\n        /* \"#utility.yul\":6908:6934   */\n      swap1\n      pop\n        /* \"#utility.yul\":6980:6989   */\n      dup2\n        /* \"#utility.yul\":6974:6978   */\n      dup2\n        /* \"#utility.yul\":6970:6990   */\n      sub\n        /* \"#utility.yul\":6966:6967   */\n      0x00\n        /* \"#utility.yul\":6955:6964   */\n      dup4\n        /* \"#utility.yul\":6951:6968   */\n      add\n        /* \"#utility.yul\":6944:6991   */\n      mstore\n        /* \"#utility.yul\":7008:7139   */\n      tag_298\n        /* \"#utility.yul\":7134:7138   */\n      dup2\n        /* \"#utility.yul\":7008:7139   */\n      tag_239\n      jump\t// in\n    tag_298:\n        /* \"#utility.yul\":7000:7139   */\n      swap1\n      pop\n        /* \"#utility.yul\":6727:7146   */\n      swap2\n      swap1\n      pop\n      jump\t// out\n        /* \"#utility.yul\":7152:7571   */\n    tag_66:\n        /* \"#utility.yul\":7318:7322   */\n      0x00\n        /* \"#utility.yul\":7356:7358   */\n      0x20\n        /* \"#utility.yul\":7345:7354   */\n      dup3\n        /* \"#utility.yul\":7341:7359   */\n      add\n        /* \"#utility.yul\":7333:7359   */\n      swap1\n      pop\n        /* \"#utility.yul\":7405:7414   */\n      dup2\n        /* \"#utility.yul\":7399:7403   */\n      dup2\n        /* \"#utility.yul\":7395:7415   */\n      sub\n        /* \"#utility.yul\":7391:7392   */\n      0x00\n        /* \"#utility.yul\":7380:7389   */\n      dup4\n        /* \"#utility.yul\":7376:7393   */\n      add\n        /* \"#utility.yul\":7369:7416   */\n      mstore\n        /* \"#utility.yul\":7433:7564   */\n      tag_300\n        /* \"#utility.yul\":7559:7563   */\n      dup2\n        /* \"#utility.yul\":7433:7564   */\n      tag_244\n      jump\t// in\n    tag_300:\n        /* \"#utility.yul\":7425:7564   */\n      swap1\n      pop\n        /* \"#utility.yul\":7152:7571   */\n      swap2\n      swap1\n      pop\n      jump\t// out\n        /* \"#utility.yul\":7577:7996   */\n    tag_143:\n        /* \"#utility.yul\":7743:7747   */\n      0x00\n        /* \"#utility.yul\":7781:7783   */\n      0x20\n        /* \"#utility.yul\":7770:7779   */\n      dup3\n        /* \"#utility.yul\":7766:7784   */\n      add\n        /* \"#utility.yul\":7758:7784   */\n      swap1\n      pop\n        /* \"#utility.yul\":7830:7839   */\n      dup2\n        /* \"#utility.yul\":7824:7828   */\n      dup2\n        /* \"#utility.yul\":7820:7840   */\n      sub\n        /* \"#utility.yul\":7816:7817   */\n      0x00\n        /* \"#utility.yul\":7805:7814   */\n      dup4\n        /* \"#utility.yul\":7801:7818   */\n      add\n        /* \"#utility.yul\":7794:7841   */\n      mstore\n        /* \"#utility.yul\":7858:7989   */\n      tag_302\n        /* \"#utility.yul\":7984:7988   */\n      dup2\n        /* \"#utility.yul\":7858:7989   */\n      tag_249\n      jump\t// in\n    tag_302:\n        /* \"#utility.yul\":7850:7989   */\n      swap1\n      pop\n        /* \"#utility.yul\":7577:7996   */\n      swap2\n      swap1\n      pop\n      jump\t// out\n        /* \"#utility.yul\":8002:8421   */\n    tag_115:\n        /* \"#utility.yul\":8168:8172   */\n      0x00\n        /* \"#utility.yul\":8206:8208   */\n      0x20\n        /* \"#utility.yul\":8195:8204   */\n      dup3\n        /* \"#utility.yul\":8191:8209   */\n      add\n        /* \"#utility.yul\":8183:8209   */\n      swap1\n      pop\n        /* \"#utility.yul\":8255:8264   */\n      dup2\n        /* \"#utility.yul\":8249:8253   */\n      dup2\n        /* \"#utility.yul\":8245:8265   */\n      sub\n        /* \"#utility.yul\":8241:8242   */\n      0x00\n        /* \"#utility.yul\":8230:8239   */\n      dup4\n        /* \"#utility.yul\":8226:8243   */\n      add\n        /* \"#utility.yul\":8219:8266   */\n      mstore\n        /* \"#utility.yul\":8283:8414   */\n      tag_304\n        /* \"#utility.yul\":8409:8413   */\n      dup2\n        /* \"#utility.yul\":8283:8414   */\n      tag_254\n      jump\t// in\n    tag_304:\n        /* \"#utility.yul\":8275:8414   */\n      swap1\n      pop\n        /* \"#utility.yul\":8002:8421   */\n      swap2\n      swap1\n      pop\n      jump\t// out\n        /* \"#utility.yul\":8427:8846   */\n    tag_120:\n        /* \"#utility.yul\":8593:8597   */\n      0x00\n        /* \"#utility.yul\":8631:8633   */\n      0x20\n        /* \"#utility.yul\":8620:8629   */\n      dup3\n        /* \"#utility.yul\":8616:8634   */\n      add\n        /* \"#utility.yul\":8608:8634   */\n      swap1\n      pop\n        /* \"#utility.yul\":8680:8689   */\n      dup2\n        /* \"#utility.yul\":8674:8678   */\n      dup2\n        /* \"#utility.yul\":8670:8690   */\n      sub\n        /* \"#utility.yul\":8666:8667   */\n      0x00\n        /* \"#utility.yul\":8655:8664   */\n      dup4\n        /* \"#utility.yul\":8651:8668   */\n      add\n        /* \"#utility.yul\":8644:8691   */\n      mstore\n        /* \"#utility.yul\":8708:8839   */\n      tag_306\n        /* \"#utility.yul\":8834:8838   */\n      dup2\n        /* \"#utility.yul\":8708:8839   */\n      tag_259\n      jump\t// in\n    tag_306:\n        /* \"#utility.yul\":8700:8839   */\n      swap1\n      pop\n        /* \"#utility.yul\":8427:8846   */\n      swap2\n      swap1\n      pop\n      jump\t// out\n        /* \"#utility.yul\":8852:9271   */\n    tag_128:\n        /* \"#utility.yul\":9018:9022   */\n      0x00\n        /* \"#utility.yul\":9056:9058   */\n      0x20\n        /* \"#utility.yul\":9045:9054   */\n      dup3\n        /* \"#utility.yul\":9041:9059   */\n      add\n        /* \"#utility.yul\":9033:9059   */\n      swap1\n      pop\n        /* \"#utility.yul\":9105:9114   */\n      dup2\n        /* \"#utility.yul\":9099:9103   */\n      dup2\n        /* \"#utility.yul\":9095:9115   */\n      sub\n        /* \"#utility.yul\":9091:9092   */\n      0x00\n        /* \"#utility.yul\":9080:9089   */\n      dup4\n        /* \"#utility.yul\":9076:9093   */\n      add\n        /* \"#utility.yul\":9069:9116   */\n      mstore\n        /* \"#utility.yul\":9133:9264   */\n      tag_308\n        /* \"#utility.yul\":9259:9263   */\n      dup2\n        /* \"#utility.yul\":9133:9264   */\n      tag_264\n      jump\t// in\n    tag_308:\n        /* \"#utility.yul\":9125:9264   */\n      swap1\n      pop\n        /* \"#utility.yul\":8852:9271   */\n      swap2\n      swap1\n      pop\n      jump\t// out\n        /* \"#utility.yul\":9277:9696   */\n    tag_60:\n        /* \"#utility.yul\":9443:9447   */\n      0x00\n        /* \"#utility.yul\":9481:9483   */\n      0x20\n        /* \"#utility.yul\":9470:9479   */\n      dup3\n        /* \"#utility.yul\":9466:9484   */\n      add\n        /* \"#utility.yul\":9458:9484   */\n      swap1\n      pop\n        /* \"#utility.yul\":9530:9539   */\n      dup2\n        /* \"#utility.yul\":9524:9528   */\n      dup2\n        /* \"#utility.yul\":9520:9540   */\n      sub\n        /* \"#utility.yul\":9516:9517   */\n      0x00\n        /* \"#utility.yul\":9505:9514   */\n      dup4\n        /* \"#utility.yul\":9501:9518   */\n      add\n        /* \"#utility.yul\":9494:9541   */\n      mstore\n        /* \"#utility.yul\":9558:9689   */\n      tag_310\n        /* \"#utility.yul\":9684:9688   */\n      dup2\n        /* \"#utility.yul\":9558:9689   */\n      tag_269\n      jump\t// in\n    tag_310:\n        /* \"#utility.yul\":9550:9689   */\n      swap1\n      pop\n        /* \"#utility.yul\":9277:9696   */\n      swap2\n      swap1\n      pop\n      jump\t// out\n        /* \"#utility.yul\":9702:10121   */\n    tag_56:\n        /* \"#utility.yul\":9868:9872   */\n      0x00\n        /* \"#utility.yul\":9906:9908   */\n      0x20\n        /* \"#utility.yul\":9895:9904   */\n      dup3\n        /* \"#utility.yul\":9891:9909   */\n      add\n        /* \"#utility.yul\":9883:9909   */\n      swap1\n      pop\n        /* \"#utility.yul\":9955:9964   */\n      dup2\n        /* \"#utility.yul\":9949:9953   */\n      dup2\n        /* \"#utility.yul\":9945:9965   */\n      sub\n        /* \"#utility.yul\":9941:9942   */\n      0x00\n        /* \"#utility.yul\":9930:9939   */\n      dup4\n        /* \"#utility.yul\":9926:9943   */\n      add\n        /* \"#utility.yul\":9919:9966   */\n      mstore\n        /* \"#utility.yul\":9983:10114   */\n      tag_312\n        /* \"#utility.yul\":10109:10113   */\n      dup2\n        /* \"#utility.yul\":9983:10114   */\n      tag_274\n      jump\t// in\n    tag_312:\n        /* \"#utility.yul\":9975:10114   */\n      swap1\n      pop\n        /* \"#utility.yul\":9702:10121   */\n      swap2\n      swap1\n      pop\n      jump\t// out\n        /* \"#utility.yul\":10127:10546   */\n    tag_138:\n        /* \"#utility.yul\":10293:10297   */\n      0x00\n        /* \"#utility.yul\":10331:10333   */\n      0x20\n        /* \"#utility.yul\":10320:10329   */\n      dup3\n        /* \"#utility.yul\":10316:10334   */\n      add\n        /* \"#utility.yul\":10308:10334   */\n      swap1\n      pop\n        /* \"#utility.yul\":10380:10389   */\n      dup2\n        /* \"#utility.yul\":10374:10378   */\n      dup2\n        /* \"#utility.yul\":10370:10390   */\n      sub\n        /* \"#utility.yul\":10366:10367   */\n      0x00\n        /* \"#utility.yul\":10355:10364   */\n      dup4\n        /* \"#utility.yul\":10351:10368   */\n      add\n        /* \"#utility.yul\":10344:10391   */\n      mstore\n        /* \"#utility.yul\":10408:10539   */\n      tag_314\n        /* \"#utility.yul\":10534:10538   */\n      dup2\n        /* \"#utility.yul\":10408:10539   */\n      tag_279\n      jump\t// in\n    tag_314:\n        /* \"#utility.yul\":10400:10539   */\n      swap1\n      pop\n        /* \"#utility.yul\":10127:10546   */\n      swap2\n      swap1\n      pop\n      jump\t// out\n        /* \"#utility.yul\":10552:10971   */\n    tag_63:\n        /* \"#utility.yul\":10718:10722   */\n      0x00\n        /* \"#utility.yul\":10756:10758   */\n      0x20\n        /* \"#utility.yul\":10745:10754   */\n      dup3\n        /* \"#utility.yul\":10741:10759   */\n      add\n        /* \"#utility.yul\":10733:10759   */\n      swap1\n      pop\n        /* \"#utility.yul\":10805:10814   */\n      dup2\n        /* \"#utility.yul\":10799:10803   */\n      dup2\n        /* \"#utility.yul\":10795:10815   */\n      sub\n        /* \"#utility.yul\":10791:10792   */\n      0x00\n        /* \"#utility.yul\":10780:10789   */\n      dup4\n        /* \"#utility.yul\":10776:10793   */\n      add\n        /* \"#utility.yul\":10769:10816   */\n      mstore\n        /* \"#utility.yul\":10833:10964   */\n      tag_316\n        /* \"#utility.yul\":10959:10963   */\n      dup2\n        /* \"#utility.yul\":10833:10964   */\n      tag_284\n      jump\t// in\n    tag_316:\n        /* \"#utility.yul\":10825:10964   */\n      swap1\n      pop\n        /* \"#utility.yul\":10552:10971   */\n      swap2\n      swap1\n      pop\n      jump\t// out\n        /* \"#utility.yul\":10977:11199   */\n    tag_28:\n        /* \"#utility.yul\":11070:11074   */\n      0x00\n        /* \"#utility.yul\":11108:11110   */\n      0x20\n        /* \"#utility.yul\":11097:11106   */\n      dup3\n        /* \"#utility.yul\":11093:11111   */\n      add\n        /* \"#utility.yul\":11085:11111   */\n      swap1\n      pop\n        /* \"#utility.yul\":11121:11192   */\n      tag_318\n        /* \"#utility.yul\":11189:11190   */\n      0x00\n        /* \"#utility.yul\":11178:11187   */\n      dup4\n        /* \"#utility.yul\":11174:11191   */\n      add\n        /* \"#utility.yul\":11165:11171   */\n      dup5\n        /* \"#utility.yul\":11121:11192   */\n      tag_289\n      jump\t// in\n    tag_318:\n        /* \"#utility.yul\":10977:11199   */\n      swap3\n      swap2\n      pop\n      pop\n      jump\t// out\n        /* \"#utility.yul\":11286:11455   */\n    tag_231:\n        /* \"#utility.yul\":11370:11381   */\n      0x00\n        /* \"#utility.yul\":11404:11410   */\n      dup3\n        /* \"#utility.yul\":11399:11402   */\n      dup3\n        /* \"#utility.yul\":11392:11411   */\n      mstore\n        /* \"#utility.yul\":11444:11448   */\n      0x20\n        /* \"#utility.yul\":11439:11442   */\n      dup3\n        /* \"#utility.yul\":11435:11449   */\n      add\n        /* \"#utility.yul\":11420:11449   */\n      swap1\n      pop\n        /* \"#utility.yul\":11286:11455   */\n      swap3\n      swap2\n      pop\n      pop\n      jump\t// out\n        /* \"#utility.yul\":11461:11766   */\n    tag_130:\n        /* \"#utility.yul\":11501:11504   */\n      0x00\n        /* \"#utility.yul\":11520:11540   */\n      tag_323\n        /* \"#utility.yul\":11538:11539   */\n      dup3\n        /* \"#utility.yul\":11520:11540   */\n      tag_292\n      jump\t// in\n    tag_323:\n        /* \"#utility.yul\":11515:11540   */\n      swap2\n      pop\n        /* \"#utility.yul\":11554:11574   */\n      tag_324\n        /* \"#utility.yul\":11572:11573   */\n      dup4\n        /* \"#utility.yul\":11554:11574   */\n      tag_292\n      jump\t// in\n    tag_324:\n        /* \"#utility.yul\":11549:11574   */\n      swap3\n      pop\n        /* \"#utility.yul\":11708:11709   */\n      dup3\n        /* \"#utility.yul\":11640:11706   */\n      0xffffffffffffffffffffffffffffffffffffffffffffffffffffffffffffffff\n        /* \"#utility.yul\":11636:11710   */\n      sub\n        /* \"#utility.yul\":11633:11634   */\n      dup3\n        /* \"#utility.yul\":11630:11711   */\n      gt\n        /* \"#utility.yul\":11627:11734   */\n      iszero\n      tag_325\n      jumpi\n        /* \"#utility.yul\":11714:11732   */\n      tag_326\n      tag_327\n      jump\t// in\n    tag_326:\n        /* \"#utility.yul\":11627:11734   */\n    tag_325:\n        /* \"#utility.yul\":11758:11759   */\n      dup3\n        /* \"#utility.yul\":11755:11756   */\n      dup3\n        /* \"#utility.yul\":11751:11760   */\n      add\n        /* \"#utility.yul\":11744:11760   */\n      swap1\n      pop\n        /* \"#utility.yul\":11461:11766   */\n      swap3\n      swap2\n      pop\n      pop\n      jump\t// out\n        /* \"#utility.yul\":11772:11957   */\n    tag_195:\n        /* \"#utility.yul\":11812:11813   */\n      0x00\n        /* \"#utility.yul\":11829:11849   */\n      tag_329\n        /* \"#utility.yul\":11847:11848   */\n      dup3\n        /* \"#utility.yul\":11829:11849   */\n      tag_292\n      jump\t// in\n    tag_329:\n        /* \"#utility.yul\":11824:11849   */\n      swap2\n      pop\n        /* \"#utility.yul\":11863:11883   */\n      tag_330\n        /* \"#utility.yul\":11881:11882   */\n      dup4\n        /* \"#utility.yul\":11863:11883   */\n      tag_292\n      jump\t// in\n    tag_330:\n        /* \"#utility.yul\":11858:11883   */\n      swap3\n      pop\n        /* \"#utility.yul\":11902:11903   */\n      dup3\n        /* \"#utility.yul\":11892:11927   */\n      tag_331\n      jumpi\n        /* \"#utility.yul\":11907:11925   */\n      tag_332\n      tag_333\n      jump\t// in\n    tag_332:\n        /* \"#utility.yul\":11892:11927   */\n    tag_331:\n        /* \"#utility.yul\":11949:11950   */\n      dup3\n        /* \"#utility.yul\":11946:11947   */\n      dup3\n        /* \"#utility.yul\":11942:11951   */\n      div\n        /* \"#utility.yul\":11937:11951   */\n      swap1\n      pop\n        /* \"#utility.yul\":11772:11957   */\n      swap3\n      swap2\n      pop\n      pop\n      jump\t// out\n        /* \"#utility.yul\":11963:12311   */\n    tag_197:\n        /* \"#utility.yul\":12003:12010   */\n      0x00\n        /* \"#utility.yul\":12026:12046   */\n      tag_335\n        /* \"#utility.yul\":12044:12045   */\n      dup3\n        /* \"#utility.yul\":12026:12046   */\n      tag_292\n      jump\t// in\n    tag_335:\n        /* \"#utility.yul\":12021:12046   */\n      swap2\n      pop\n        /* \"#utility.yul\":12060:12080   */\n      tag_336\n        /* \"#utility.yul\":12078:12079   */\n      dup4\n        /* \"#utility.yul\":12060:12080   */\n      tag_292\n      jump\t// in\n    tag_336:\n        /* \"#utility.yul\":12055:12080   */\n      swap3\n      pop\n        /* \"#utility.yul\":12248:12249   */\n      dup2\n        /* \"#utility.yul\":12180:12246   */\n      0xffffffffffffffffffffffffffffffffffffffffffffffffffffffffffffffff\n        /* \"#utility.yul\":12176:12250   */\n      div\n        /* \"#utility.yul\":12173:12174   */\n      dup4\n        /* \"#utility.yul\":12170:12251   */\n      gt\n        /* \"#utility.yul\":12165:12166   */\n      dup3\n        /* \"#utility.yul\":12158:12167   */\n      iszero\n        /* \"#utility.yul\":12151:12168   */\n      iszero\n        /* \"#utility.yul\":12147:12252   */\n      and\n        /* \"#utility.yul\":12144:12275   */\n      iszero\n      tag_337\n      jumpi\n        /* \"#utility.yul\":12255:12273   */\n      tag_338\n      tag_327\n      jump\t// in\n    tag_338:\n        /* \"#utility.yul\":12144:12275   */\n    tag_337:\n        /* \"#utility.yul\":12303:12304   */\n      dup3\n        /* \"#utility.yul\":12300:12301   */\n      dup3\n        /* \"#utility.yul\":12296:12305   */\n      mul\n        /* \"#utility.yul\":12285:12305   */\n      swap1\n      pop\n        /* \"#utility.yul\":11963:12311   */\n      swap3\n      swap2\n      pop\n      pop\n      jump\t// out\n        /* \"#utility.yul\":12317:12508   */\n    tag_104:\n        /* \"#utility.yul\":12357:12361   */\n      0x00\n        /* \"#utility.yul\":12377:12397   */\n      tag_340\n        /* \"#utility.yul\":12395:12396   */\n      dup3\n        /* \"#utility.yul\":12377:12397   */\n      tag_292\n      jump\t// in\n    tag_340:\n        /* \"#utility.yul\":12372:12397   */\n      swap2\n      pop\n        /* \"#utility.yul\":12411:12431   */\n      tag_341\n        /* \"#utility.yul\":12429:12430   */\n      dup4\n        /* \"#utility.yul\":12411:12431   */\n      tag_292\n      jump\t// in\n    tag_341:\n        /* \"#utility.yul\":12406:12431   */\n      swap3\n      pop\n        /* \"#utility.yul\":12450:12451   */\n      dup3\n        /* \"#utility.yul\":12447:12448   */\n      dup3\n        /* \"#utility.yul\":12444:12452   */\n      lt\n        /* \"#utility.yul\":12441:12475   */\n      iszero\n      tag_342\n      jumpi\n        /* \"#utility.yul\":12455:12473   */\n      tag_343\n      tag_327\n      jump\t// in\n    tag_343:\n        /* \"#utility.yul\":12441:12475   */\n    tag_342:\n        /* \"#utility.yul\":12500:12501   */\n      dup3\n        /* \"#utility.yul\":12497:12498   */\n      dup3\n        /* \"#utility.yul\":12493:12502   */\n      sub\n        /* \"#utility.yul\":12485:12502   */\n      swap1\n      pop\n        /* \"#utility.yul\":12317:12508   */\n      swap3\n      swap2\n      pop\n      pop\n      jump\t// out\n        /* \"#utility.yul\":12514:12610   */\n    tag_344:\n        /* \"#utility.yul\":12551:12558   */\n      0x00\n        /* \"#utility.yul\":12580:12604   */\n      tag_346\n        /* \"#utility.yul\":12598:12603   */\n      dup3\n        /* \"#utility.yul\":12580:12604   */\n      tag_347\n      jump\t// in\n    tag_346:\n        /* \"#utility.yul\":12569:12604   */\n      swap1\n      pop\n        /* \"#utility.yul\":12514:12610   */\n      swap2\n      swap1\n      pop\n      jump\t// out\n        /* \"#utility.yul\":12616:12720   */\n    tag_348:\n        /* \"#utility.yul\":12661:12668   */\n      0x00\n        /* \"#utility.yul\":12690:12714   */\n      tag_350\n        /* \"#utility.yul\":12708:12713   */\n      dup3\n        /* \"#utility.yul\":12690:12714   */\n      tag_347\n      jump\t// in\n    tag_350:\n        /* \"#utility.yul\":12679:12714   */\n      swap1\n      pop\n        /* \"#utility.yul\":12616:12720   */\n      swap2\n      swap1\n      pop\n      jump\t// out\n        /* \"#utility.yul\":12726:12852   */\n    tag_347:\n        /* \"#utility.yul\":12763:12770   */\n      0x00\n        /* \"#utility.yul\":12803:12845   */\n      0xffffffffffffffffffffffffffffffffffffffff\n        /* \"#utility.yul\":12796:12801   */\n      dup3\n        /* \"#utility.yul\":12792:12846   */\n      and\n        /* \"#utility.yul\":12781:12846   */\n      swap1\n      pop\n        /* \"#utility.yul\":12726:12852   */\n      swap2\n      swap1\n      pop\n      jump\t// out\n        /* \"#utility.yul\":12858:12935   */\n    tag_292:\n        /* \"#utility.yul\":12895:12902   */\n      0x00\n        /* \"#utility.yul\":12924:12929   */\n      dup2\n        /* \"#utility.yul\":12913:12929   */\n      swap1\n      pop\n        /* \"#utility.yul\":12858:12935   */\n      swap2\n      swap1\n      pop\n      jump\t// out\n        /* \"#utility.yul\":12941:13027   */\n    tag_353:\n        /* \"#utility.yul\":12976:12983   */\n      0x00\n        /* \"#utility.yul\":13016:13020   */\n      0xff\n        /* \"#utility.yul\":13009:13014   */\n      dup3\n        /* \"#utility.yul\":13005:13021   */\n      and\n        /* \"#utility.yul\":12994:13021   */\n      swap1\n      pop\n        /* \"#utility.yul\":12941:13027   */\n      swap2\n      swap1\n      pop\n      jump\t// out\n        /* \"#utility.yul\":13033:13266   */\n    tag_101:\n        /* \"#utility.yul\":13072:13075   */\n      0x00\n        /* \"#utility.yul\":13095:13119   */\n      tag_356\n        /* \"#utility.yul\":13113:13118   */\n      dup3\n        /* \"#utility.yul\":13095:13119   */\n      tag_292\n      jump\t// in\n    tag_356:\n        /* \"#utility.yul\":13086:13119   */\n      swap2\n      pop\n        /* \"#utility.yul\":13141:13207   */\n      0xffffffffffffffffffffffffffffffffffffffffffffffffffffffffffffffff\n        /* \"#utility.yul\":13134:13139   */\n      dup3\n        /* \"#utility.yul\":13131:13208   */\n      eq\n        /* \"#utility.yul\":13128:13231   */\n      iszero\n      tag_357\n      jumpi\n        /* \"#utility.yul\":13211:13229   */\n      tag_358\n      tag_327\n      jump\t// in\n    tag_358:\n        /* \"#utility.yul\":13128:13231   */\n    tag_357:\n        /* \"#utility.yul\":13258:13259   */\n      0x01\n        /* \"#utility.yul\":13251:13256   */\n      dup3\n        /* \"#utility.yul\":13247:13260   */\n      add\n        /* \"#utility.yul\":13240:13260   */\n      swap1\n      pop\n        /* \"#utility.yul\":13033:13266   */\n      swap2\n      swap1\n      pop\n      jump\t// out\n        /* \"#utility.yul\":13272:13439   */\n    tag_164:\n        /* \"#utility.yul\":13309:13312   */\n      0x00\n        /* \"#utility.yul\":13332:13354   */\n      tag_360\n        /* \"#utility.yul\":13348:13353   */\n      dup3\n        /* \"#utility.yul\":13332:13354   */\n      tag_353\n      jump\t// in\n    tag_360:\n        /* \"#utility.yul\":13323:13354   */\n      swap2\n      pop\n        /* \"#utility.yul\":13376:13380   */\n      0xff\n        /* \"#utility.yul\":13369:13374   */\n      dup3\n        /* \"#utility.yul\":13366:13381   */\n      eq\n        /* \"#utility.yul\":13363:13404   */\n      iszero\n      tag_361\n      jumpi\n        /* \"#utility.yul\":13384:13402   */\n      tag_362\n      tag_327\n      jump\t// in\n    tag_362:\n        /* \"#utility.yul\":13363:13404   */\n    tag_361:\n        /* \"#utility.yul\":13431:13432   */\n      0x01\n        /* \"#utility.yul\":13424:13429   */\n      dup3\n        /* \"#utility.yul\":13420:13433   */\n      add\n        /* \"#utility.yul\":13413:13433   */\n      swap1\n      pop\n        /* \"#utility.yul\":13272:13439   */\n      swap2\n      swap1\n      pop\n      jump\t// out\n        /* \"#utility.yul\":13445:13625   */\n    tag_327:\n        /* \"#utility.yul\":13493:13570   */\n      0x4e487b7100000000000000000000000000000000000000000000000000000000\n        /* \"#utility.yul\":13490:13491   */\n      0x00\n        /* \"#utility.yul\":13483:13571   */\n      mstore\n        /* \"#utility.yul\":13590:13594   */\n      0x11\n        /* \"#utility.yul\":13587:13588   */\n      0x04\n        /* \"#utility.yul\":13580:13595   */\n      mstore\n        /* \"#utility.yul\":13614:13618   */\n      0x24\n        /* \"#utility.yul\":13611:13612   */\n      0x00\n        /* \"#utility.yul\":13604:13619   */\n      revert\n        /* \"#utility.yul\":13631:13811   */\n    tag_333:\n        /* \"#utility.yul\":13679:13756   */\n      0x4e487b7100000000000000000000000000000000000000000000000000000000\n        /* \"#utility.yul\":13676:13677   */\n      0x00\n        /* \"#utility.yul\":13669:13757   */\n      mstore\n        /* \"#utility.yul\":13776:13780   */\n      0x12\n        /* \"#utility.yul\":13773:13774   */\n      0x04\n        /* \"#utility.yul\":13766:13781   */\n      mstore\n        /* \"#utility.yul\":13800:13804   */\n      0x24\n        /* \"#utility.yul\":13797:13798   */\n      0x00\n        /* \"#utility.yul\":13790:13805   */\n      revert\n        /* \"#utility.yul\":13817:13997   */\n    tag_97:\n        /* \"#utility.yul\":13865:13942   */\n      0x4e487b7100000000000000000000000000000000000000000000000000000000\n        /* \"#utility.yul\":13862:13863   */\n      0x00\n        /* \"#utility.yul\":13855:13943   */\n      mstore\n        /* \"#utility.yul\":13962:13966   */\n      0x32\n        /* \"#utility.yul\":13959:13960   */\n      0x04\n        /* \"#utility.yul\":13952:13967   */\n      mstore\n        /* \"#utility.yul\":13986:13990   */\n      0x24\n        /* \"#utility.yul\":13983:13984   */\n      0x00\n        /* \"#utility.yul\":13976:13991   */\n      revert\n        /* \"#utility.yul\":14126:14243   */\n    tag_221:\n        /* \"#utility.yul\":14235:14236   */\n      0x00\n        /* \"#utility.yul\":14232:14233   */\n      dup1\n        /* \"#utility.yul\":14225:14237   */\n      revert\n        /* \"#utility.yul\":14249:14483   */\n    tag_233:\n        /* \"#utility.yul\":14389:14423   */\n      0x74686572652069736e277420616e792077697468647277616c73207761697420\n        /* \"#utility.yul\":14385:14386   */\n      0x00\n        /* \"#utility.yul\":14377:14383   */\n      dup3\n        /* \"#utility.yul\":14373:14387   */\n      add\n        /* \"#utility.yul\":14366:14424   */\n      mstore\n        /* \"#utility.yul\":14458:14475   */\n      0x666f722063616e63656c6174696f6e0000000000000000000000000000000000\n        /* \"#utility.yul\":14453:14455   */\n      0x20\n        /* \"#utility.yul\":14445:14451   */\n      dup3\n        /* \"#utility.yul\":14441:14456   */\n      add\n        /* \"#utility.yul\":14434:14476   */\n      mstore\n        /* \"#utility.yul\":14249:14483   */\n      pop\n      jump\t// out\n        /* \"#utility.yul\":14489:14734   */\n    tag_238:\n        /* \"#utility.yul\":14629:14663   */\n      0x6f6e6c792074686520636f756e746572207061727479206f6620696e69746961\n        /* \"#utility.yul\":14625:14626   */\n      0x00\n        /* \"#utility.yul\":14617:14623   */\n      dup3\n        /* \"#utility.yul\":14613:14627   */\n      add\n        /* \"#utility.yul\":14606:14664   */\n      mstore\n        /* \"#utility.yul\":14698:14726   */\n      0x746f722063616e2063616c6c20746869732066756e6374696f6e000000000000\n        /* \"#utility.yul\":14693:14695   */\n      0x20\n        /* \"#utility.yul\":14685:14691   */\n      dup3\n        /* \"#utility.yul\":14681:14696   */\n      add\n        /* \"#utility.yul\":14674:14727   */\n      mstore\n        /* \"#utility.yul\":14489:14734   */\n      pop\n      jump\t// out\n        /* \"#utility.yul\":14740:14973   */\n    tag_243:\n        /* \"#utility.yul\":14880:14914   */\n      0x796f752068617665207369676e656420666f722063616e63656c6c6174696f6e\n        /* \"#utility.yul\":14876:14877   */\n      0x00\n        /* \"#utility.yul\":14868:14874   */\n      dup3\n        /* \"#utility.yul\":14864:14878   */\n      add\n        /* \"#utility.yul\":14857:14915   */\n      mstore\n        /* \"#utility.yul\":14949:14965   */\n      0x2c20646f6e277420726570656174000000000000000000000000000000000000\n        /* \"#utility.yul\":14944:14946   */\n      0x20\n        /* \"#utility.yul\":14936:14942   */\n      dup3\n        /* \"#utility.yul\":14932:14947   */\n      add\n        /* \"#utility.yul\":14925:14966   */\n      mstore\n        /* \"#utility.yul\":14740:14973   */\n      pop\n      jump\t// out\n        /* \"#utility.yul\":14979:15150   */\n    tag_248:\n        /* \"#utility.yul\":15119:15142   */\n      0x696e76616c696420746172676574416464726573730000000000000000000000\n        /* \"#utility.yul\":15115:15116   */\n      0x00\n        /* \"#utility.yul\":15107:15113   */\n      dup3\n        /* \"#utility.yul\":15103:15117   */\n      add\n        /* \"#utility.yul\":15096:15143   */\n      mstore\n        /* \"#utility.yul\":14979:15150   */\n      pop\n      jump\t// out\n        /* \"#utility.yul\":15156:15402   */\n    tag_253:\n        /* \"#utility.yul\":15296:15330   */\n      0x6f6e6c7920706c6174666f726d206163636f756e7420697473656c662063616e\n        /* \"#utility.yul\":15292:15293   */\n      0x00\n        /* \"#utility.yul\":15284:15290   */\n      dup3\n        /* \"#utility.yul\":15280:15294   */\n      add\n        /* \"#utility.yul\":15273:15331   */\n      mstore\n        /* \"#utility.yul\":15365:15394   */\n      0x206368616e676520697420746f206f74686572206163636f756e740000000000\n        /* \"#utility.yul\":15360:15362   */\n      0x20\n        /* \"#utility.yul\":15352:15358   */\n      dup3\n        /* \"#utility.yul\":15348:15363   */\n      add\n        /* \"#utility.yul\":15341:15395   */\n      mstore\n        /* \"#utility.yul\":15156:15402   */\n      pop\n      jump\t// out\n        /* \"#utility.yul\":15408:15639   */\n    tag_258:\n        /* \"#utility.yul\":15548:15582   */\n      0x7468657265206973206e6f20776974686472617720616374696f6e2077616974\n        /* \"#utility.yul\":15544:15545   */\n      0x00\n        /* \"#utility.yul\":15536:15542   */\n      dup3\n        /* \"#utility.yul\":15532:15546   */\n      add\n        /* \"#utility.yul\":15525:15583   */\n      mstore\n        /* \"#utility.yul\":15617:15631   */\n      0x696e6720666f72207369676e0000000000000000000000000000000000000000\n        /* \"#utility.yul\":15612:15614   */\n      0x20\n        /* \"#utility.yul\":15604:15610   */\n      dup3\n        /* \"#utility.yul\":15600:15615   */\n      add\n        /* \"#utility.yul\":15593:15632   */\n      mstore\n        /* \"#utility.yul\":15408:15639   */\n      pop\n      jump\t// out\n        /* \"#utility.yul\":15645:15888   */\n    tag_263:\n        /* \"#utility.yul\":15785:15819   */\n      0x796f752068617665207369676e65642074686973207769746864726177207072\n        /* \"#utility.yul\":15781:15782   */\n      0x00\n        /* \"#utility.yul\":15773:15779   */\n      dup3\n        /* \"#utility.yul\":15769:15783   */\n      add\n        /* \"#utility.yul\":15762:15820   */\n      mstore\n        /* \"#utility.yul\":15854:15880   */\n      0x6f636573732c20706c7a20646f6e2774207265706561742e0000000000000000\n        /* \"#utility.yul\":15849:15851   */\n      0x20\n        /* \"#utility.yul\":15841:15847   */\n      dup3\n        /* \"#utility.yul\":15837:15852   */\n      add\n        /* \"#utility.yul\":15830:15881   */\n      mstore\n        /* \"#utility.yul\":15645:15888   */\n      pop\n      jump\t// out\n        /* \"#utility.yul\":15894:16206   */\n    tag_268:\n        /* \"#utility.yul\":16034:16068   */\n      0x544f50494e206d757374206d6f7265207468616e2030207765692c20696e6465\n        /* \"#utility.yul\":16030:16031   */\n      0x00\n        /* \"#utility.yul\":16022:16028   */\n      dup3\n        /* \"#utility.yul\":16018:16032   */\n      add\n        /* \"#utility.yul\":16011:16069   */\n      mstore\n        /* \"#utility.yul\":16103:16137   */\n      0x656420746865206761732066656520646f206e6f742064656372656173652069\n        /* \"#utility.yul\":16098:16100   */\n      0x20\n        /* \"#utility.yul\":16090:16096   */\n      dup3\n        /* \"#utility.yul\":16086:16101   */\n      add\n        /* \"#utility.yul\":16079:16138   */\n      mstore\n        /* \"#utility.yul\":16172:16198   */\n      0x6620796f7520746f70696e2061206c6f772076616c75652e0000000000000000\n        /* \"#utility.yul\":16167:16169   */\n      0x40\n        /* \"#utility.yul\":16159:16165   */\n      dup3\n        /* \"#utility.yul\":16155:16170   */\n      add\n        /* \"#utility.yul\":16148:16199   */\n      mstore\n        /* \"#utility.yul\":15894:16206   */\n      pop\n      jump\t// out\n        /* \"#utility.yul\":16212:16391   */\n    tag_273:\n        /* \"#utility.yul\":16352:16383   */\n      0x7072652070726f6365737320686173206e6f74206265656e206f766572000000\n        /* \"#utility.yul\":16348:16349   */\n      0x00\n        /* \"#utility.yul\":16340:16346   */\n      dup3\n        /* \"#utility.yul\":16336:16350   */\n      add\n        /* \"#utility.yul\":16329:16384   */\n      mstore\n        /* \"#utility.yul\":16212:16391   */\n      pop\n      jump\t// out\n        /* \"#utility.yul\":16397:16622   */\n    tag_278:\n        /* \"#utility.yul\":16537:16571   */\n      0x6f6e6c7920636f6c6c61626f7261746f7273206861766520746865207065726d\n        /* \"#utility.yul\":16533:16534   */\n      0x00\n        /* \"#utility.yul\":16525:16531   */\n      dup3\n        /* \"#utility.yul\":16521:16535   */\n      add\n        /* \"#utility.yul\":16514:16572   */\n      mstore\n        /* \"#utility.yul\":16606:16614   */\n      0x697373696f6e0000000000000000000000000000000000000000000000000000\n        /* \"#utility.yul\":16601:16603   */\n      0x20\n        /* \"#utility.yul\":16593:16599   */\n      dup3\n        /* \"#utility.yul\":16589:16604   */\n      add\n        /* \"#utility.yul\":16582:16615   */\n      mstore\n        /* \"#utility.yul\":16397:16622   */\n      pop\n      jump\t// out\n        /* \"#utility.yul\":16628:16857   */\n    tag_283:\n        /* \"#utility.yul\":16768:16802   */\n      0x6f6e6c792074686520696e69746961746f722063616e2063616e63656c207468\n        /* \"#utility.yul\":16764:16765   */\n      0x00\n        /* \"#utility.yul\":16756:16762   */\n      dup3\n        /* \"#utility.yul\":16752:16766   */\n      add\n        /* \"#utility.yul\":16745:16803   */\n      mstore\n        /* \"#utility.yul\":16837:16849   */\n      0x69732070726f6365737300000000000000000000000000000000000000000000\n        /* \"#utility.yul\":16832:16834   */\n      0x20\n        /* \"#utility.yul\":16824:16830   */\n      dup3\n        /* \"#utility.yul\":16820:16835   */\n      add\n        /* \"#utility.yul\":16813:16850   */\n      mstore\n        /* \"#utility.yul\":16628:16857   */\n      pop\n      jump\t// out\n        /* \"#utility.yul\":16863:17094   */\n    tag_288:\n        /* \"#utility.yul\":17003:17037   */\n      0x77697468647261772062616c616e636520636f756c64206e6f74206d6f726520\n        /* \"#utility.yul\":16999:17000   */\n      0x00\n        /* \"#utility.yul\":16991:16997   */\n      dup3\n        /* \"#utility.yul\":16987:17001   */\n      add\n        /* \"#utility.yul\":16980:17038   */\n      mstore\n        /* \"#utility.yul\":17072:17086   */\n      0x7468616e2062616c616e63650000000000000000000000000000000000000000\n        /* \"#utility.yul\":17067:17069   */\n      0x20\n        /* \"#utility.yul\":17059:17065   */\n      dup3\n        /* \"#utility.yul\":17055:17070   */\n      add\n        /* \"#utility.yul\":17048:17087   */\n      mstore\n        /* \"#utility.yul\":16863:17094   */\n      pop\n      jump\t// out\n        /* \"#utility.yul\":17100:17222   */\n    tag_209:\n        /* \"#utility.yul\":17173:17197   */\n      tag_382\n        /* \"#utility.yul\":17191:17196   */\n      dup2\n        /* \"#utility.yul\":17173:17197   */\n      tag_344\n      jump\t// in\n    tag_382:\n        /* \"#utility.yul\":17166:17171   */\n      dup2\n        /* \"#utility.yul\":17163:17198   */\n      eq\n        /* \"#utility.yul\":17153:17216   */\n      tag_383\n      jumpi\n        /* \"#utility.yul\":17212:17213   */\n      0x00\n        /* \"#utility.yul\":17209:17210   */\n      dup1\n        /* \"#utility.yul\":17202:17214   */\n      revert\n        /* \"#utility.yul\":17153:17216   */\n    tag_383:\n        /* \"#utility.yul\":17100:17222   */\n      pop\n      jump\t// out\n        /* \"#utility.yul\":17228:17366   */\n    tag_213:\n        /* \"#utility.yul\":17309:17341   */\n      tag_385\n        /* \"#utility.yul\":17335:17340   */\n      dup2\n        /* \"#utility.yul\":17309:17341   */\n      tag_348\n      jump\t// in\n    tag_385:\n        /* \"#utility.yul\":17302:17307   */\n      dup2\n        /* \"#utility.yul\":17299:17342   */\n      eq\n        /* \"#utility.yul\":17289:17360   */\n      tag_386\n      jumpi\n        /* \"#utility.yul\":17356:17357   */\n      0x00\n        /* \"#utility.yul\":17353:17354   */\n      dup1\n        /* \"#utility.yul\":17346:17358   */\n      revert\n        /* \"#utility.yul\":17289:17360   */\n    tag_386:\n        /* \"#utility.yul\":17228:17366   */\n      pop\n      jump\t// out\n        /* \"#utility.yul\":17372:17494   */\n    tag_217:\n        /* \"#utility.yul\":17445:17469   */\n      tag_388\n        /* \"#utility.yul\":17463:17468   */\n      dup2\n        /* \"#utility.yul\":17445:17469   */\n      tag_292\n      jump\t// in\n    tag_388:\n        /* \"#utility.yul\":17438:17443   */\n      dup2\n        /* \"#utility.yul\":17435:17470   */\n      eq\n        /* \"#utility.yul\":17425:17488   */\n      tag_389\n      jumpi\n        /* \"#utility.yul\":17484:17485   */\n      0x00\n        /* \"#utility.yul\":17481:17482   */\n      dup1\n        /* \"#utility.yul\":17474:17486   */\n      revert\n        /* \"#utility.yul\":17425:17488   */\n    tag_389:\n        /* \"#utility.yul\":17372:17494   */\n      pop\n      jump\t// out\n\n    auxdata: 0xa26469706673582212201e65dd16fb2bcf953655423837e2f306ee37b631ab420a1b2fd8ee87daf3c14b64736f6c63430008070033\n}\n",
				"bytecode": {
					"linkReferences": {},
					"object": "60806040523480156200001157600080fd5b50604051620024e8380380620024e88339818101604052810190620000379190620004e9565b33600160006101000a81548173ffffffffffffffffffffffffffffffffffffffff021916908373ffffffffffffffffffffffffffffffffffffffff1602179055506000825111620000bf576040517f08c379a0000000000000000000000000000000000000000000000000000000008152600401620000b690620005c4565b60405180910390fd5b620000cf6200020c60201b60201c565b62000111576040517f08c379a00000000000000000000000000000000000000000000000000000000081526004016200010890620005e6565b60405180910390fd5b60008160ff1611801562000129575081518160ff1611155b6200016b576040517f08c379a0000000000000000000000000000000000000000000000000000000008152600401620001629062000608565b60405180910390fd5b8160029080519060200190620001839291906200035f565b5080600360006101000a81548160ff021916908360ff16021790555073dd870fa1b7c4700f2bd7f44238821c26f7392148600c60006101000a81548173ffffffffffffffffffffffffffffffffffffffff021916908373ffffffffffffffffffffffffffffffffffffffff1602179055506014600a819055506005600b819055505050620009f3565b6000806000905060005b60028054905081101562000356576001600280549050620002389190620006f0565b811415620002465762000356565b600060018262000257919062000693565b90505b6002805490508110156200033f57600281815481106200027f576200027e62000829565b5b9060005260206000200160009054906101000a900473ffffffffffffffffffffffffffffffffffffffff1673ffffffffffffffffffffffffffffffffffffffff1660028381548110620002d757620002d662000829565b5b9060005260206000200160009054906101000a900473ffffffffffffffffffffffffffffffffffffffff1673ffffffffffffffffffffffffffffffffffffffff1614156200032957600192506200033f565b80806200033690620007ac565b9150506200025a565b5080806200034d90620007ac565b91505062000216565b50801591505090565b828054828255906000526020600020908101928215620003db579160200282015b82811115620003da5782518260006101000a81548173ffffffffffffffffffffffffffffffffffffffff021916908373ffffffffffffffffffffffffffffffffffffffff1602179055509160200191906001019062000380565b5b509050620003ea9190620003ee565b5090565b5b8082111562000409576000816000905550600101620003ef565b5090565b6000620004246200041e8462000653565b6200062a565b905080838252602082019050828560208602820111156200044a57620004496200088c565b5b60005b858110156200047e578162000463888262000488565b8452602084019350602083019250506001810190506200044d565b5050509392505050565b6000815190506200049981620009bf565b92915050565b600082601f830112620004b757620004b662000887565b5b8151620004c98482602086016200040d565b91505092915050565b600081519050620004e381620009d9565b92915050565b6000806040838503121562000503576200050262000896565b5b600083015167ffffffffffffffff81111562000524576200052362000891565b5b62000532858286016200049f565b92505060206200054585828601620004d2565b9150509250929050565b60006200055e60248362000682565b91506200056b82620008ac565b604082019050919050565b60006200058560278362000682565b91506200059282620008fb565b604082019050919050565b6000620005ac60508362000682565b9150620005b9826200094a565b606082019050919050565b60006020820190508181036000830152620005df816200054f565b9050919050565b60006020820190508181036000830152620006018162000576565b9050919050565b6000602082019050818103600083015262000623816200059d565b9050919050565b60006200063662000649565b905062000644828262000776565b919050565b6000604051905090565b600067ffffffffffffffff82111562000671576200067062000858565b5b602082029050602081019050919050565b600082825260208201905092915050565b6000620006a0826200075f565b9150620006ad836200075f565b9250827fffffffffffffffffffffffffffffffffffffffffffffffffffffffffffffffff03821115620006e557620006e4620007fa565b5b828201905092915050565b6000620006fd826200075f565b91506200070a836200075f565b92508282101562000720576200071f620007fa565b5b828203905092915050565b600062000738826200073f565b9050919050565b600073ffffffffffffffffffffffffffffffffffffffff82169050919050565b6000819050919050565b600060ff82169050919050565b62000781826200089b565b810181811067ffffffffffffffff82111715620007a357620007a262000858565b5b80604052505050565b6000620007b9826200075f565b91507fffffffffffffffffffffffffffffffffffffffffffffffffffffffffffffffff821415620007ef57620007ee620007fa565b5b600182019050919050565b7f4e487b7100000000000000000000000000000000000000000000000000000000600052601160045260246000fd5b7f4e487b7100000000000000000000000000000000000000000000000000000000600052603260045260246000fd5b7f4e487b7100000000000000000000000000000000000000000000000000000000600052604160045260246000fd5b600080fd5b600080fd5b600080fd5b600080fd5b6000601f19601f8301169050919050565b7f616c6c20636f6c6c61626f7261746f727320636f756e74206174206c6561737460008201527f206f6e6500000000000000000000000000000000000000000000000000000000602082015250565b7f74686520636f6c6c61626f7261746f7273206d757374206e6f2062652064757060008201527f6c69636174656400000000000000000000000000000000000000000000000000602082015250565b7f6174206c65617374207369676e20636f756e74206d757374206d6f726520746860008201527f616e203020616e64206c657373207468616e206f7220657175616c7320636f6c60208201527f6c61626f7261746f727320636f756e7400000000000000000000000000000000604082015250565b620009ca816200072b565b8114620009d657600080fd5b50565b620009e48162000769565b8114620009f057600080fd5b50565b611ae58062000a036000396000f3fe6080604052600436106100905760003560e01c8063b517e0b411610059578063b517e0b414610121578063b69ef8a814610138578063bc44e73914610163578063ca3ea43f1461018c578063cfa4a5f6146101b757610090565b80623bdf3e146100955780631535430b146100be578063352ce050146100d55780633a0a197b146100ec57806368a1376b14610117575b600080fd5b3480156100a157600080fd5b506100bc60048036038101906100b791906110c8565b6101e2565b005b3480156100ca57600080fd5b506100d3610429565b005b3480156100e157600080fd5b506100ea610744565b005b3480156100f857600080fd5b50610101610893565b60405161010e919061143b565b60405180910390f35b61011f610899565b005b34801561012d57600080fd5b506101366108f6565b005b34801561014457600080fd5b5061014d6109d7565b60405161015a919061143b565b60405180910390f35b34801561016f57600080fd5b5061018a6004803603810190610185919061109b565b6109dd565b005b34801561019857600080fd5b506101a1610ab1565b6040516101ae919061143b565b60405180910390f35b3480156101c357600080fd5b506101cc610ab7565b6040516101d9919061143b565b60405180910390f35b6101ea610abd565b610229576040517f08c379a0000000000000000000000000000000000000000000000000000000008152600401610220906113db565b60405180910390fd5b60006004541461026e576040517f08c379a0000000000000000000000000000000000000000000000000000000008152600401610265906113bb565b60405180910390fd5b6000548211156102b3576040517f08c379a00000000000000000000000000000000000000000000000000000000081526004016102aa9061141b565b60405180910390fd5b600073ffffffffffffffffffffffffffffffffffffffff168173ffffffffffffffffffffffffffffffffffffffff161415610323576040517f08c379a000000000000000000000000000000000000000000000000000000000815260040161031a9061131b565b60405180910390fd5b33600660006101000a81548173ffffffffffffffffffffffffffffffffffffffff021916908373ffffffffffffffffffffffffffffffffffffffff1602179055508160048190555080600560006101000a81548173ffffffffffffffffffffffffffffffffffffffff021916908373ffffffffffffffffffffffffffffffffffffffff1602179055506007339080600181540180825580915050600190039060005260206000200160009091909190916101000a81548173ffffffffffffffffffffffffffffffffffffffff021916908373ffffffffffffffffffffffffffffffffffffffff160217905550610417610b54565b1561042557610424610ce0565b5b5050565b610431610abd565b610470576040517f08c379a0000000000000000000000000000000000000000000000000000000008152600401610467906113db565b60405180910390fd5b600660009054906101000a900473ffffffffffffffffffffffffffffffffffffffff1673ffffffffffffffffffffffffffffffffffffffff163373ffffffffffffffffffffffffffffffffffffffff161415610501576040517f08c379a00000000000000000000000000000000000000000000000000000000081526004016104f8906112db565b60405180910390fd5b610591600880548060200260200160405190810160405280929190818152602001828054801561058657602002820191906000526020600020905b8160009054906101000a900473ffffffffffffffffffffffffffffffffffffffff1673ffffffffffffffffffffffffffffffffffffffff168152602001906001019080831161053c575b505050505033610e03565b156105d1576040517f08c379a00000000000000000000000000000000000000000000000000000000081526004016105c8906112fb565b60405180910390fd5b600060045411610616576040517f08c379a000000000000000000000000000000000000000000000000000000000815260040161060d906112bb565b60405180910390fd5b6008339080600181540180825580915050600190039060005260206000200160009091909190916101000a81548173ffffffffffffffffffffffffffffffffffffffff021916908373ffffffffffffffffffffffffffffffffffffffff1602179055506000805b60088054905081101561071e57600073ffffffffffffffffffffffffffffffffffffffff16600882815481106106b6576106b56116a8565b5b9060005260206000200160009054906101000a900473ffffffffffffffffffffffffffffffffffffffff1673ffffffffffffffffffffffffffffffffffffffff161461070b578180610707906115d7565b9250505b8080610716906115d7565b91505061067d565b5060016002805490506107319190611548565b81141561074157610740610e8b565b5b50565b61074c610abd565b61078b576040517f08c379a0000000000000000000000000000000000000000000000000000000008152600401610782906113db565b60405180910390fd5b6000600454116107d0576040517f08c379a00000000000000000000000000000000000000000000000000000000081526004016107c79061135b565b60405180910390fd5b6107d8610efb565b15610818576040517f08c379a000000000000000000000000000000000000000000000000000000000815260040161080f9061137b565b60405180910390fd5b6007339080600181540180825580915050600190039060005260206000200160009091909190916101000a81548173ffffffffffffffffffffffffffffffffffffffff021916908373ffffffffffffffffffffffffffffffffffffffff160217905550610883610b54565b1561089157610890610ce0565b5b565b600a5481565b600034116108dc576040517f08c379a00000000000000000000000000000000000000000000000000000000081526004016108d39061139b565b60405180910390fd5b346000808282546108ed9190611467565b92505081905550565b6108fe610abd565b61093d576040517f08c379a0000000000000000000000000000000000000000000000000000000008152600401610934906113db565b60405180910390fd5b600660009054906101000a900473ffffffffffffffffffffffffffffffffffffffff1673ffffffffffffffffffffffffffffffffffffffff163373ffffffffffffffffffffffffffffffffffffffff16146109cd576040517f08c379a00000000000000000000000000000000000000000000000000000000081526004016109c4906113fb565b60405180910390fd5b6109d5610e8b565b565b60005481565b600c60009054906101000a900473ffffffffffffffffffffffffffffffffffffffff1673ffffffffffffffffffffffffffffffffffffffff163373ffffffffffffffffffffffffffffffffffffffff1614610a6d576040517f08c379a0000000000000000000000000000000000000000000000000000000008152600401610a649061133b565b60405180910390fd5b80600c60006101000a81548173ffffffffffffffffffffffffffffffffffffffff021916908373ffffffffffffffffffffffffffffffffffffffff16021790555050565b60095481565b600b5481565b6000610b4f6002805480602002602001604051908101604052809291908181526020018280548015610b4457602002820191906000526020600020905b8160009054906101000a900473ffffffffffffffffffffffffffffffffffffffff1673ffffffffffffffffffffffffffffffffffffffff1681526020019060010190808311610afa575b505050505033610e03565b905090565b6000806007805480602002602001604051908101604052809291908181526020018280548015610bd957602002820191906000526020600020905b8160009054906101000a900473ffffffffffffffffffffffffffffffffffffffff1673ffffffffffffffffffffffffffffffffffffffff1681526020019060010190808311610b8f575b505050505090506000805b8251811015610cbf5760005b600280549050811015610cab57838281518110610c1057610c0f6116a8565b5b602002602001015173ffffffffffffffffffffffffffffffffffffffff1660028281548110610c4257610c416116a8565b5b9060005260206000200160009054906101000a900473ffffffffffffffffffffffffffffffffffffffff1673ffffffffffffffffffffffffffffffffffffffff161415610c98578280610c9490611620565b9350505b8080610ca3906115d7565b915050610bf0565b508080610cb7906115d7565b915050610be4565b50600360009054906101000a900460ff1660ff168160ff1610159250505090565b600060045490506000600481905550600560009054906101000a900473ffffffffffffffffffffffffffffffffffffffff1673ffffffffffffffffffffffffffffffffffffffff166108fc829081150290604051600060405180830381858888f19350505050158015610d57573d6000803e3d6000fd5b5080600054610d669190611548565b60008190555060096000815480929190610d7f906115d7565b9190505550600560006101000a81549073ffffffffffffffffffffffffffffffffffffffff021916905560076000610db7919061101e565b600660006101000a81549073ffffffffffffffffffffffffffffffffffffffff021916905560086000610dea919061101e565b600b546009541115610e0057610dff81610f92565b5b50565b6000806000905060005b8451811015610e80578373ffffffffffffffffffffffffffffffffffffffff16858281518110610e4057610e3f6116a8565b5b602002602001015173ffffffffffffffffffffffffffffffffffffffff161415610e6d5760019150610e80565b8080610e78906115d7565b915050610e0d565b508091505092915050565b600660006101000a81549073ffffffffffffffffffffffffffffffffffffffff0219169055600560006101000a81549073ffffffffffffffffffffffffffffffffffffffff0219169055600060048190555060076000610eeb919061101e565b60086000610ef9919061101e565b565b6000610f8d6007805480602002602001604051908101604052809291908181526020018280548015610f8257602002820191906000526020600020905b8160009054906101000a900473ffffffffffffffffffffffffffffffffffffffff1673ffffffffffffffffffffffffffffffffffffffff1681526020019060010190808311610f38575b505050505033610e03565b905090565b6000600a5461271083610fa591906114bd565b610faf91906114ee565b9050600c60009054906101000a900473ffffffffffffffffffffffffffffffffffffffff1673ffffffffffffffffffffffffffffffffffffffff166108fc829081150290604051600060405180830381858888f19350505050158015611019573d6000803e3d6000fd5b505050565b508054600082559060005260206000209081019061103c919061103f565b50565b5b80821115611058576000816000905550600101611040565b5090565b60008135905061106b81611a6a565b92915050565b60008135905061108081611a81565b92915050565b60008135905061109581611a98565b92915050565b6000602082840312156110b1576110b06116d7565b5b60006110bf8482850161105c565b91505092915050565b600080604083850312156110df576110de6116d7565b5b60006110ed85828601611086565b92505060206110fe85828601611071565b9150509250929050565b6000611115602f83611456565b9150611120826116dc565b604082019050919050565b6000611138603a83611456565b91506111438261172b565b604082019050919050565b600061115b602e83611456565b91506111668261177a565b604082019050919050565b600061117e601583611456565b9150611189826117c9565b602082019050919050565b60006111a1603b83611456565b91506111ac826117f2565b604082019050919050565b60006111c4602c83611456565b91506111cf82611841565b604082019050919050565b60006111e7603883611456565b91506111f282611890565b604082019050919050565b600061120a605883611456565b9150611215826118df565b606082019050919050565b600061122d601d83611456565b915061123882611954565b602082019050919050565b6000611250602683611456565b915061125b8261197d565b604082019050919050565b6000611273602a83611456565b915061127e826119cc565b604082019050919050565b6000611296602c83611456565b91506112a182611a1b565b604082019050919050565b6112b5816115c0565b82525050565b600060208201905081810360008301526112d481611108565b9050919050565b600060208201905081810360008301526112f48161112b565b9050919050565b600060208201905081810360008301526113148161114e565b9050919050565b6000602082019050818103600083015261133481611171565b9050919050565b6000602082019050818103600083015261135481611194565b9050919050565b60006020820190508181036000830152611374816111b7565b9050919050565b60006020820190508181036000830152611394816111da565b9050919050565b600060208201905081810360008301526113b4816111fd565b9050919050565b600060208201905081810360008301526113d481611220565b9050919050565b600060208201905081810360008301526113f481611243565b9050919050565b6000602082019050818103600083015261141481611266565b9050919050565b6000602082019050818103600083015261143481611289565b9050919050565b600060208201905061145060008301846112ac565b92915050565b600082825260208201905092915050565b6000611472826115c0565b915061147d836115c0565b9250827fffffffffffffffffffffffffffffffffffffffffffffffffffffffffffffffff038211156114b2576114b161164a565b5b828201905092915050565b60006114c8826115c0565b91506114d3836115c0565b9250826114e3576114e2611679565b5b828204905092915050565b60006114f9826115c0565b9150611504836115c0565b9250817fffffffffffffffffffffffffffffffffffffffffffffffffffffffffffffffff048311821515161561153d5761153c61164a565b5b828202905092915050565b6000611553826115c0565b915061155e836115c0565b9250828210156115715761157061164a565b5b828203905092915050565b6000611587826115a0565b9050919050565b6000611599826115a0565b9050919050565b600073ffffffffffffffffffffffffffffffffffffffff82169050919050565b6000819050919050565b600060ff82169050919050565b60006115e2826115c0565b91507fffffffffffffffffffffffffffffffffffffffffffffffffffffffffffffffff8214156116155761161461164a565b5b600182019050919050565b600061162b826115ca565b915060ff82141561163f5761163e61164a565b5b600182019050919050565b7f4e487b7100000000000000000000000000000000000000000000000000000000600052601160045260246000fd5b7f4e487b7100000000000000000000000000000000000000000000000000000000600052601260045260246000fd5b7f4e487b7100000000000000000000000000000000000000000000000000000000600052603260045260246000fd5b600080fd5b7f74686572652069736e277420616e792077697468647277616c7320776169742060008201527f666f722063616e63656c6174696f6e0000000000000000000000000000000000602082015250565b7f6f6e6c792074686520636f756e746572207061727479206f6620696e6974696160008201527f746f722063616e2063616c6c20746869732066756e6374696f6e000000000000602082015250565b7f796f752068617665207369676e656420666f722063616e63656c6c6174696f6e60008201527f2c20646f6e277420726570656174000000000000000000000000000000000000602082015250565b7f696e76616c696420746172676574416464726573730000000000000000000000600082015250565b7f6f6e6c7920706c6174666f726d206163636f756e7420697473656c662063616e60008201527f206368616e676520697420746f206f74686572206163636f756e740000000000602082015250565b7f7468657265206973206e6f20776974686472617720616374696f6e207761697460008201527f696e6720666f72207369676e0000000000000000000000000000000000000000602082015250565b7f796f752068617665207369676e6564207468697320776974686472617720707260008201527f6f636573732c20706c7a20646f6e2774207265706561742e0000000000000000602082015250565b7f544f50494e206d757374206d6f7265207468616e2030207765692c20696e646560008201527f656420746865206761732066656520646f206e6f74206465637265617365206960208201527f6620796f7520746f70696e2061206c6f772076616c75652e0000000000000000604082015250565b7f7072652070726f6365737320686173206e6f74206265656e206f766572000000600082015250565b7f6f6e6c7920636f6c6c61626f7261746f7273206861766520746865207065726d60008201527f697373696f6e0000000000000000000000000000000000000000000000000000602082015250565b7f6f6e6c792074686520696e69746961746f722063616e2063616e63656c20746860008201527f69732070726f6365737300000000000000000000000000000000000000000000602082015250565b7f77697468647261772062616c616e636520636f756c64206e6f74206d6f72652060008201527f7468616e2062616c616e63650000000000000000000000000000000000000000602082015250565b611a738161157c565b8114611a7e57600080fd5b50565b611a8a8161158e565b8114611a9557600080fd5b50565b611aa1816115c0565b8114611aac57600080fd5b5056fea26469706673582212201e65dd16fb2bcf953655423837e2f306ee37b631ab420a1b2fd8ee87daf3c14b64736f6c63430008070033",
					"opcodes": "PUSH1 0x80 PUSH1 0x40 MSTORE CALLVALUE DUP1 ISZERO PUSH3 0x11 JUMPI PUSH1 0x0 DUP1 REVERT JUMPDEST POP PUSH1 0x40 MLOAD PUSH3 0x24E8 CODESIZE SUB DUP1 PUSH3 0x24E8 DUP4 CODECOPY DUP2 DUP2 ADD PUSH1 0x40 MSTORE DUP2 ADD SWAP1 PUSH3 0x37 SWAP2 SWAP1 PUSH3 0x4E9 JUMP JUMPDEST CALLER PUSH1 0x1 PUSH1 0x0 PUSH2 0x100 EXP DUP2 SLOAD DUP2 PUSH20 0xFFFFFFFFFFFFFFFFFFFFFFFFFFFFFFFFFFFFFFFF MUL NOT AND SWAP1 DUP4 PUSH20 0xFFFFFFFFFFFFFFFFFFFFFFFFFFFFFFFFFFFFFFFF AND MUL OR SWAP1 SSTORE POP PUSH1 0x0 DUP3 MLOAD GT PUSH3 0xBF JUMPI PUSH1 0x40 MLOAD PUSH32 0x8C379A000000000000000000000000000000000000000000000000000000000 DUP2 MSTORE PUSH1 0x4 ADD PUSH3 0xB6 SWAP1 PUSH3 0x5C4 JUMP JUMPDEST PUSH1 0x40 MLOAD DUP1 SWAP2 SUB SWAP1 REVERT JUMPDEST PUSH3 0xCF PUSH3 0x20C PUSH1 0x20 SHL PUSH1 0x20 SHR JUMP JUMPDEST PUSH3 0x111 JUMPI PUSH1 0x40 MLOAD PUSH32 0x8C379A000000000000000000000000000000000000000000000000000000000 DUP2 MSTORE PUSH1 0x4 ADD PUSH3 0x108 SWAP1 PUSH3 0x5E6 JUMP JUMPDEST PUSH1 0x40 MLOAD DUP1 SWAP2 SUB SWAP1 REVERT JUMPDEST PUSH1 0x0 DUP2 PUSH1 0xFF AND GT DUP1 ISZERO PUSH3 0x129 JUMPI POP DUP2 MLOAD DUP2 PUSH1 0xFF AND GT ISZERO JUMPDEST PUSH3 0x16B JUMPI PUSH1 0x40 MLOAD PUSH32 0x8C379A000000000000000000000000000000000000000000000000000000000 DUP2 MSTORE PUSH1 0x4 ADD PUSH3 0x162 SWAP1 PUSH3 0x608 JUMP JUMPDEST PUSH1 0x40 MLOAD DUP1 SWAP2 SUB SWAP1 REVERT JUMPDEST DUP2 PUSH1 0x2 SWAP1 DUP1 MLOAD SWAP1 PUSH1 0x20 ADD SWAP1 PUSH3 0x183 SWAP3 SWAP2 SWAP1 PUSH3 0x35F JUMP JUMPDEST POP DUP1 PUSH1 0x3 PUSH1 0x0 PUSH2 0x100 EXP DUP2 SLOAD DUP2 PUSH1 0xFF MUL NOT AND SWAP1 DUP4 PUSH1 0xFF AND MUL OR SWAP1 SSTORE POP PUSH20 0xDD870FA1B7C4700F2BD7F44238821C26F7392148 PUSH1 0xC PUSH1 0x0 PUSH2 0x100 EXP DUP2 SLOAD DUP2 PUSH20 0xFFFFFFFFFFFFFFFFFFFFFFFFFFFFFFFFFFFFFFFF MUL NOT AND SWAP1 DUP4 PUSH20 0xFFFFFFFFFFFFFFFFFFFFFFFFFFFFFFFFFFFFFFFF AND MUL OR SWAP1 SSTORE POP PUSH1 0x14 PUSH1 0xA DUP2 SWAP1 SSTORE POP PUSH1 0x5 PUSH1 0xB DUP2 SWAP1 SSTORE POP POP POP PUSH3 0x9F3 JUMP JUMPDEST PUSH1 0x0 DUP1 PUSH1 0x0 SWAP1 POP PUSH1 0x0 JUMPDEST PUSH1 0x2 DUP1 SLOAD SWAP1 POP DUP2 LT ISZERO PUSH3 0x356 JUMPI PUSH1 0x1 PUSH1 0x2 DUP1 SLOAD SWAP1 POP PUSH3 0x238 SWAP2 SWAP1 PUSH3 0x6F0 JUMP JUMPDEST DUP2 EQ ISZERO PUSH3 0x246 JUMPI PUSH3 0x356 JUMP JUMPDEST PUSH1 0x0 PUSH1 0x1 DUP3 PUSH3 0x257 SWAP2 SWAP1 PUSH3 0x693 JUMP JUMPDEST SWAP1 POP JUMPDEST PUSH1 0x2 DUP1 SLOAD SWAP1 POP DUP2 LT ISZERO PUSH3 0x33F JUMPI PUSH1 0x2 DUP2 DUP2 SLOAD DUP2 LT PUSH3 0x27F JUMPI PUSH3 0x27E PUSH3 0x829 JUMP JUMPDEST JUMPDEST SWAP1 PUSH1 0x0 MSTORE PUSH1 0x20 PUSH1 0x0 KECCAK256 ADD PUSH1 0x0 SWAP1 SLOAD SWAP1 PUSH2 0x100 EXP SWAP1 DIV PUSH20 0xFFFFFFFFFFFFFFFFFFFFFFFFFFFFFFFFFFFFFFFF AND PUSH20 0xFFFFFFFFFFFFFFFFFFFFFFFFFFFFFFFFFFFFFFFF AND PUSH1 0x2 DUP4 DUP2 SLOAD DUP2 LT PUSH3 0x2D7 JUMPI PUSH3 0x2D6 PUSH3 0x829 JUMP JUMPDEST JUMPDEST SWAP1 PUSH1 0x0 MSTORE PUSH1 0x20 PUSH1 0x0 KECCAK256 ADD PUSH1 0x0 SWAP1 SLOAD SWAP1 PUSH2 0x100 EXP SWAP1 DIV PUSH20 0xFFFFFFFFFFFFFFFFFFFFFFFFFFFFFFFFFFFFFFFF AND PUSH20 0xFFFFFFFFFFFFFFFFFFFFFFFFFFFFFFFFFFFFFFFF AND EQ ISZERO PUSH3 0x329 JUMPI PUSH1 0x1 SWAP3 POP PUSH3 0x33F JUMP JUMPDEST DUP1 DUP1 PUSH3 0x336 SWAP1 PUSH3 0x7AC JUMP JUMPDEST SWAP2 POP POP PUSH3 0x25A JUMP JUMPDEST POP DUP1 DUP1 PUSH3 0x34D SWAP1 PUSH3 0x7AC JUMP JUMPDEST SWAP2 POP POP PUSH3 0x216 JUMP JUMPDEST POP DUP1 ISZERO SWAP2 POP POP SWAP1 JUMP JUMPDEST DUP3 DUP1 SLOAD DUP3 DUP3 SSTORE SWAP1 PUSH1 0x0 MSTORE PUSH1 0x20 PUSH1 0x0 KECCAK256 SWAP1 DUP2 ADD SWAP3 DUP3 ISZERO PUSH3 0x3DB JUMPI SWAP2 PUSH1 0x20 MUL DUP3 ADD JUMPDEST DUP3 DUP2 GT ISZERO PUSH3 0x3DA JUMPI DUP3 MLOAD DUP3 PUSH1 0x0 PUSH2 0x100 EXP DUP2 SLOAD DUP2 PUSH20 0xFFFFFFFFFFFFFFFFFFFFFFFFFFFFFFFFFFFFFFFF MUL NOT AND SWAP1 DUP4 PUSH20 0xFFFFFFFFFFFFFFFFFFFFFFFFFFFFFFFFFFFFFFFF AND MUL OR SWAP1 SSTORE POP SWAP2 PUSH1 0x20 ADD SWAP2 SWAP1 PUSH1 0x1 ADD SWAP1 PUSH3 0x380 JUMP JUMPDEST JUMPDEST POP SWAP1 POP PUSH3 0x3EA SWAP2 SWAP1 PUSH3 0x3EE JUMP JUMPDEST POP SWAP1 JUMP JUMPDEST JUMPDEST DUP1 DUP3 GT ISZERO PUSH3 0x409 JUMPI PUSH1 0x0 DUP2 PUSH1 0x0 SWAP1 SSTORE POP PUSH1 0x1 ADD PUSH3 0x3EF JUMP JUMPDEST POP SWAP1 JUMP JUMPDEST PUSH1 0x0 PUSH3 0x424 PUSH3 0x41E DUP5 PUSH3 0x653 JUMP JUMPDEST PUSH3 0x62A JUMP JUMPDEST SWAP1 POP DUP1 DUP4 DUP3 MSTORE PUSH1 0x20 DUP3 ADD SWAP1 POP DUP3 DUP6 PUSH1 0x20 DUP7 MUL DUP3 ADD GT ISZERO PUSH3 0x44A JUMPI PUSH3 0x449 PUSH3 0x88C JUMP JUMPDEST JUMPDEST PUSH1 0x0 JUMPDEST DUP6 DUP2 LT ISZERO PUSH3 0x47E JUMPI DUP2 PUSH3 0x463 DUP9 DUP3 PUSH3 0x488 JUMP JUMPDEST DUP5 MSTORE PUSH1 0x20 DUP5 ADD SWAP4 POP PUSH1 0x20 DUP4 ADD SWAP3 POP POP PUSH1 0x1 DUP2 ADD SWAP1 POP PUSH3 0x44D JUMP JUMPDEST POP POP POP SWAP4 SWAP3 POP POP POP JUMP JUMPDEST PUSH1 0x0 DUP2 MLOAD SWAP1 POP PUSH3 0x499 DUP2 PUSH3 0x9BF JUMP JUMPDEST SWAP3 SWAP2 POP POP JUMP JUMPDEST PUSH1 0x0 DUP3 PUSH1 0x1F DUP4 ADD SLT PUSH3 0x4B7 JUMPI PUSH3 0x4B6 PUSH3 0x887 JUMP JUMPDEST JUMPDEST DUP2 MLOAD PUSH3 0x4C9 DUP5 DUP3 PUSH1 0x20 DUP7 ADD PUSH3 0x40D JUMP JUMPDEST SWAP2 POP POP SWAP3 SWAP2 POP POP JUMP JUMPDEST PUSH1 0x0 DUP2 MLOAD SWAP1 POP PUSH3 0x4E3 DUP2 PUSH3 0x9D9 JUMP JUMPDEST SWAP3 SWAP2 POP POP JUMP JUMPDEST PUSH1 0x0 DUP1 PUSH1 0x40 DUP4 DUP6 SUB SLT ISZERO PUSH3 0x503 JUMPI PUSH3 0x502 PUSH3 0x896 JUMP JUMPDEST JUMPDEST PUSH1 0x0 DUP4 ADD MLOAD PUSH8 0xFFFFFFFFFFFFFFFF DUP2 GT ISZERO PUSH3 0x524 JUMPI PUSH3 0x523 PUSH3 0x891 JUMP JUMPDEST JUMPDEST PUSH3 0x532 DUP6 DUP3 DUP7 ADD PUSH3 0x49F JUMP JUMPDEST SWAP3 POP POP PUSH1 0x20 PUSH3 0x545 DUP6 DUP3 DUP7 ADD PUSH3 0x4D2 JUMP JUMPDEST SWAP2 POP POP SWAP3 POP SWAP3 SWAP1 POP JUMP JUMPDEST PUSH1 0x0 PUSH3 0x55E PUSH1 0x24 DUP4 PUSH3 0x682 JUMP JUMPDEST SWAP2 POP PUSH3 0x56B DUP3 PUSH3 0x8AC JUMP JUMPDEST PUSH1 0x40 DUP3 ADD SWAP1 POP SWAP2 SWAP1 POP JUMP JUMPDEST PUSH1 0x0 PUSH3 0x585 PUSH1 0x27 DUP4 PUSH3 0x682 JUMP JUMPDEST SWAP2 POP PUSH3 0x592 DUP3 PUSH3 0x8FB JUMP JUMPDEST PUSH1 0x40 DUP3 ADD SWAP1 POP SWAP2 SWAP1 POP JUMP JUMPDEST PUSH1 0x0 PUSH3 0x5AC PUSH1 0x50 DUP4 PUSH3 0x682 JUMP JUMPDEST SWAP2 POP PUSH3 0x5B9 DUP3 PUSH3 0x94A JUMP JUMPDEST PUSH1 0x60 DUP3 ADD SWAP1 POP SWAP2 SWAP1 POP JUMP JUMPDEST PUSH1 0x0 PUSH1 0x20 DUP3 ADD SWAP1 POP DUP2 DUP2 SUB PUSH1 0x0 DUP4 ADD MSTORE PUSH3 0x5DF DUP2 PUSH3 0x54F JUMP JUMPDEST SWAP1 POP SWAP2 SWAP1 POP JUMP JUMPDEST PUSH1 0x0 PUSH1 0x20 DUP3 ADD SWAP1 POP DUP2 DUP2 SUB PUSH1 0x0 DUP4 ADD MSTORE PUSH3 0x601 DUP2 PUSH3 0x576 JUMP JUMPDEST SWAP1 POP SWAP2 SWAP1 POP JUMP JUMPDEST PUSH1 0x0 PUSH1 0x20 DUP3 ADD SWAP1 POP DUP2 DUP2 SUB PUSH1 0x0 DUP4 ADD MSTORE PUSH3 0x623 DUP2 PUSH3 0x59D JUMP JUMPDEST SWAP1 POP SWAP2 SWAP1 POP JUMP JUMPDEST PUSH1 0x0 PUSH3 0x636 PUSH3 0x649 JUMP JUMPDEST SWAP1 POP PUSH3 0x644 DUP3 DUP3 PUSH3 0x776 JUMP JUMPDEST SWAP2 SWAP1 POP JUMP JUMPDEST PUSH1 0x0 PUSH1 0x40 MLOAD SWAP1 POP SWAP1 JUMP JUMPDEST PUSH1 0x0 PUSH8 0xFFFFFFFFFFFFFFFF DUP3 GT ISZERO PUSH3 0x671 JUMPI PUSH3 0x670 PUSH3 0x858 JUMP JUMPDEST JUMPDEST PUSH1 0x20 DUP3 MUL SWAP1 POP PUSH1 0x20 DUP2 ADD SWAP1 POP SWAP2 SWAP1 POP JUMP JUMPDEST PUSH1 0x0 DUP3 DUP3 MSTORE PUSH1 0x20 DUP3 ADD SWAP1 POP SWAP3 SWAP2 POP POP JUMP JUMPDEST PUSH1 0x0 PUSH3 0x6A0 DUP3 PUSH3 0x75F JUMP JUMPDEST SWAP2 POP PUSH3 0x6AD DUP4 PUSH3 0x75F JUMP JUMPDEST SWAP3 POP DUP3 PUSH32 0xFFFFFFFFFFFFFFFFFFFFFFFFFFFFFFFFFFFFFFFFFFFFFFFFFFFFFFFFFFFFFFFF SUB DUP3 GT ISZERO PUSH3 0x6E5 JUMPI PUSH3 0x6E4 PUSH3 0x7FA JUMP JUMPDEST JUMPDEST DUP3 DUP3 ADD SWAP1 POP SWAP3 SWAP2 POP POP JUMP JUMPDEST PUSH1 0x0 PUSH3 0x6FD DUP3 PUSH3 0x75F JUMP JUMPDEST SWAP2 POP PUSH3 0x70A DUP4 PUSH3 0x75F JUMP JUMPDEST SWAP3 POP DUP3 DUP3 LT ISZERO PUSH3 0x720 JUMPI PUSH3 0x71F PUSH3 0x7FA JUMP JUMPDEST JUMPDEST DUP3 DUP3 SUB SWAP1 POP SWAP3 SWAP2 POP POP JUMP JUMPDEST PUSH1 0x0 PUSH3 0x738 DUP3 PUSH3 0x73F JUMP JUMPDEST SWAP1 POP SWAP2 SWAP1 POP JUMP JUMPDEST PUSH1 0x0 PUSH20 0xFFFFFFFFFFFFFFFFFFFFFFFFFFFFFFFFFFFFFFFF DUP3 AND SWAP1 POP SWAP2 SWAP1 POP JUMP JUMPDEST PUSH1 0x0 DUP2 SWAP1 POP SWAP2 SWAP1 POP JUMP JUMPDEST PUSH1 0x0 PUSH1 0xFF DUP3 AND SWAP1 POP SWAP2 SWAP1 POP JUMP JUMPDEST PUSH3 0x781 DUP3 PUSH3 0x89B JUMP JUMPDEST DUP2 ADD DUP2 DUP2 LT PUSH8 0xFFFFFFFFFFFFFFFF DUP3 GT OR ISZERO PUSH3 0x7A3 JUMPI PUSH3 0x7A2 PUSH3 0x858 JUMP JUMPDEST JUMPDEST DUP1 PUSH1 0x40 MSTORE POP POP POP JUMP JUMPDEST PUSH1 0x0 PUSH3 0x7B9 DUP3 PUSH3 0x75F JUMP JUMPDEST SWAP2 POP PUSH32 0xFFFFFFFFFFFFFFFFFFFFFFFFFFFFFFFFFFFFFFFFFFFFFFFFFFFFFFFFFFFFFFFF DUP3 EQ ISZERO PUSH3 0x7EF JUMPI PUSH3 0x7EE PUSH3 0x7FA JUMP JUMPDEST JUMPDEST PUSH1 0x1 DUP3 ADD SWAP1 POP SWAP2 SWAP1 POP JUMP JUMPDEST PUSH32 0x4E487B7100000000000000000000000000000000000000000000000000000000 PUSH1 0x0 MSTORE PUSH1 0x11 PUSH1 0x4 MSTORE PUSH1 0x24 PUSH1 0x0 REVERT JUMPDEST PUSH32 0x4E487B7100000000000000000000000000000000000000000000000000000000 PUSH1 0x0 MSTORE PUSH1 0x32 PUSH1 0x4 MSTORE PUSH1 0x24 PUSH1 0x0 REVERT JUMPDEST PUSH32 0x4E487B7100000000000000000000000000000000000000000000000000000000 PUSH1 0x0 MSTORE PUSH1 0x41 PUSH1 0x4 MSTORE PUSH1 0x24 PUSH1 0x0 REVERT JUMPDEST PUSH1 0x0 DUP1 REVERT JUMPDEST PUSH1 0x0 DUP1 REVERT JUMPDEST PUSH1 0x0 DUP1 REVERT JUMPDEST PUSH1 0x0 DUP1 REVERT JUMPDEST PUSH1 0x0 PUSH1 0x1F NOT PUSH1 0x1F DUP4 ADD AND SWAP1 POP SWAP2 SWAP1 POP JUMP JUMPDEST PUSH32 0x616C6C20636F6C6C61626F7261746F727320636F756E74206174206C65617374 PUSH1 0x0 DUP3 ADD MSTORE PUSH32 0x206F6E6500000000000000000000000000000000000000000000000000000000 PUSH1 0x20 DUP3 ADD MSTORE POP JUMP JUMPDEST PUSH32 0x74686520636F6C6C61626F7261746F7273206D757374206E6F20626520647570 PUSH1 0x0 DUP3 ADD MSTORE PUSH32 0x6C69636174656400000000000000000000000000000000000000000000000000 PUSH1 0x20 DUP3 ADD MSTORE POP JUMP JUMPDEST PUSH32 0x6174206C65617374207369676E20636F756E74206D757374206D6F7265207468 PUSH1 0x0 DUP3 ADD MSTORE PUSH32 0x616E203020616E64206C657373207468616E206F7220657175616C7320636F6C PUSH1 0x20 DUP3 ADD MSTORE PUSH32 0x6C61626F7261746F727320636F756E7400000000000000000000000000000000 PUSH1 0x40 DUP3 ADD MSTORE POP JUMP JUMPDEST PUSH3 0x9CA DUP2 PUSH3 0x72B JUMP JUMPDEST DUP2 EQ PUSH3 0x9D6 JUMPI PUSH1 0x0 DUP1 REVERT JUMPDEST POP JUMP JUMPDEST PUSH3 0x9E4 DUP2 PUSH3 0x769 JUMP JUMPDEST DUP2 EQ PUSH3 0x9F0 JUMPI PUSH1 0x0 DUP1 REVERT JUMPDEST POP JUMP JUMPDEST PUSH2 0x1AE5 DUP1 PUSH3 0xA03 PUSH1 0x0 CODECOPY PUSH1 0x0 RETURN INVALID PUSH1 0x80 PUSH1 0x40 MSTORE PUSH1 0x4 CALLDATASIZE LT PUSH2 0x90 JUMPI PUSH1 0x0 CALLDATALOAD PUSH1 0xE0 SHR DUP1 PUSH4 0xB517E0B4 GT PUSH2 0x59 JUMPI DUP1 PUSH4 0xB517E0B4 EQ PUSH2 0x121 JUMPI DUP1 PUSH4 0xB69EF8A8 EQ PUSH2 0x138 JUMPI DUP1 PUSH4 0xBC44E739 EQ PUSH2 0x163 JUMPI DUP1 PUSH4 0xCA3EA43F EQ PUSH2 0x18C JUMPI DUP1 PUSH4 0xCFA4A5F6 EQ PUSH2 0x1B7 JUMPI PUSH2 0x90 JUMP JUMPDEST DUP1 PUSH3 0x3BDF3E EQ PUSH2 0x95 JUMPI DUP1 PUSH4 0x1535430B EQ PUSH2 0xBE JUMPI DUP1 PUSH4 0x352CE050 EQ PUSH2 0xD5 JUMPI DUP1 PUSH4 0x3A0A197B EQ PUSH2 0xEC JUMPI DUP1 PUSH4 0x68A1376B EQ PUSH2 0x117 JUMPI JUMPDEST PUSH1 0x0 DUP1 REVERT JUMPDEST CALLVALUE DUP1 ISZERO PUSH2 0xA1 JUMPI PUSH1 0x0 DUP1 REVERT JUMPDEST POP PUSH2 0xBC PUSH1 0x4 DUP1 CALLDATASIZE SUB DUP2 ADD SWAP1 PUSH2 0xB7 SWAP2 SWAP1 PUSH2 0x10C8 JUMP JUMPDEST PUSH2 0x1E2 JUMP JUMPDEST STOP JUMPDEST CALLVALUE DUP1 ISZERO PUSH2 0xCA JUMPI PUSH1 0x0 DUP1 REVERT JUMPDEST POP PUSH2 0xD3 PUSH2 0x429 JUMP JUMPDEST STOP JUMPDEST CALLVALUE DUP1 ISZERO PUSH2 0xE1 JUMPI PUSH1 0x0 DUP1 REVERT JUMPDEST POP PUSH2 0xEA PUSH2 0x744 JUMP JUMPDEST STOP JUMPDEST CALLVALUE DUP1 ISZERO PUSH2 0xF8 JUMPI PUSH1 0x0 DUP1 REVERT JUMPDEST POP PUSH2 0x101 PUSH2 0x893 JUMP JUMPDEST PUSH1 0x40 MLOAD PUSH2 0x10E SWAP2 SWAP1 PUSH2 0x143B JUMP JUMPDEST PUSH1 0x40 MLOAD DUP1 SWAP2 SUB SWAP1 RETURN JUMPDEST PUSH2 0x11F PUSH2 0x899 JUMP JUMPDEST STOP JUMPDEST CALLVALUE DUP1 ISZERO PUSH2 0x12D JUMPI PUSH1 0x0 DUP1 REVERT JUMPDEST POP PUSH2 0x136 PUSH2 0x8F6 JUMP JUMPDEST STOP JUMPDEST CALLVALUE DUP1 ISZERO PUSH2 0x144 JUMPI PUSH1 0x0 DUP1 REVERT JUMPDEST POP PUSH2 0x14D PUSH2 0x9D7 JUMP JUMPDEST PUSH1 0x40 MLOAD PUSH2 0x15A SWAP2 SWAP1 PUSH2 0x143B JUMP JUMPDEST PUSH1 0x40 MLOAD DUP1 SWAP2 SUB SWAP1 RETURN JUMPDEST CALLVALUE DUP1 ISZERO PUSH2 0x16F JUMPI PUSH1 0x0 DUP1 REVERT JUMPDEST POP PUSH2 0x18A PUSH1 0x4 DUP1 CALLDATASIZE SUB DUP2 ADD SWAP1 PUSH2 0x185 SWAP2 SWAP1 PUSH2 0x109B JUMP JUMPDEST PUSH2 0x9DD JUMP JUMPDEST STOP JUMPDEST CALLVALUE DUP1 ISZERO PUSH2 0x198 JUMPI PUSH1 0x0 DUP1 REVERT JUMPDEST POP PUSH2 0x1A1 PUSH2 0xAB1 JUMP JUMPDEST PUSH1 0x40 MLOAD PUSH2 0x1AE SWAP2 SWAP1 PUSH2 0x143B JUMP JUMPDEST PUSH1 0x40 MLOAD DUP1 SWAP2 SUB SWAP1 RETURN JUMPDEST CALLVALUE DUP1 ISZERO PUSH2 0x1C3 JUMPI PUSH1 0x0 DUP1 REVERT JUMPDEST POP PUSH2 0x1CC PUSH2 0xAB7 JUMP JUMPDEST PUSH1 0x40 MLOAD PUSH2 0x1D9 SWAP2 SWAP1 PUSH2 0x143B JUMP JUMPDEST PUSH1 0x40 MLOAD DUP1 SWAP2 SUB SWAP1 RETURN JUMPDEST PUSH2 0x1EA PUSH2 0xABD JUMP JUMPDEST PUSH2 0x229 JUMPI PUSH1 0x40 MLOAD PUSH32 0x8C379A000000000000000000000000000000000000000000000000000000000 DUP2 MSTORE PUSH1 0x4 ADD PUSH2 0x220 SWAP1 PUSH2 0x13DB JUMP JUMPDEST PUSH1 0x40 MLOAD DUP1 SWAP2 SUB SWAP1 REVERT JUMPDEST PUSH1 0x0 PUSH1 0x4 SLOAD EQ PUSH2 0x26E JUMPI PUSH1 0x40 MLOAD PUSH32 0x8C379A000000000000000000000000000000000000000000000000000000000 DUP2 MSTORE PUSH1 0x4 ADD PUSH2 0x265 SWAP1 PUSH2 0x13BB JUMP JUMPDEST PUSH1 0x40 MLOAD DUP1 SWAP2 SUB SWAP1 REVERT JUMPDEST PUSH1 0x0 SLOAD DUP3 GT ISZERO PUSH2 0x2B3 JUMPI PUSH1 0x40 MLOAD PUSH32 0x8C379A000000000000000000000000000000000000000000000000000000000 DUP2 MSTORE PUSH1 0x4 ADD PUSH2 0x2AA SWAP1 PUSH2 0x141B JUMP JUMPDEST PUSH1 0x40 MLOAD DUP1 SWAP2 SUB SWAP1 REVERT JUMPDEST PUSH1 0x0 PUSH20 0xFFFFFFFFFFFFFFFFFFFFFFFFFFFFFFFFFFFFFFFF AND DUP2 PUSH20 0xFFFFFFFFFFFFFFFFFFFFFFFFFFFFFFFFFFFFFFFF AND EQ ISZERO PUSH2 0x323 JUMPI PUSH1 0x40 MLOAD PUSH32 0x8C379A000000000000000000000000000000000000000000000000000000000 DUP2 MSTORE PUSH1 0x4 ADD PUSH2 0x31A SWAP1 PUSH2 0x131B JUMP JUMPDEST PUSH1 0x40 MLOAD DUP1 SWAP2 SUB SWAP1 REVERT JUMPDEST CALLER PUSH1 0x6 PUSH1 0x0 PUSH2 0x100 EXP DUP2 SLOAD DUP2 PUSH20 0xFFFFFFFFFFFFFFFFFFFFFFFFFFFFFFFFFFFFFFFF MUL NOT AND SWAP1 DUP4 PUSH20 0xFFFFFFFFFFFFFFFFFFFFFFFFFFFFFFFFFFFFFFFF AND MUL OR SWAP1 SSTORE POP DUP2 PUSH1 0x4 DUP2 SWAP1 SSTORE POP DUP1 PUSH1 0x5 PUSH1 0x0 PUSH2 0x100 EXP DUP2 SLOAD DUP2 PUSH20 0xFFFFFFFFFFFFFFFFFFFFFFFFFFFFFFFFFFFFFFFF MUL NOT AND SWAP1 DUP4 PUSH20 0xFFFFFFFFFFFFFFFFFFFFFFFFFFFFFFFFFFFFFFFF AND MUL OR SWAP1 SSTORE POP PUSH1 0x7 CALLER SWAP1 DUP1 PUSH1 0x1 DUP2 SLOAD ADD DUP1 DUP3 SSTORE DUP1 SWAP2 POP POP PUSH1 0x1 SWAP1 SUB SWAP1 PUSH1 0x0 MSTORE PUSH1 0x20 PUSH1 0x0 KECCAK256 ADD PUSH1 0x0 SWAP1 SWAP2 SWAP1 SWAP2 SWAP1 SWAP2 PUSH2 0x100 EXP DUP2 SLOAD DUP2 PUSH20 0xFFFFFFFFFFFFFFFFFFFFFFFFFFFFFFFFFFFFFFFF MUL NOT AND SWAP1 DUP4 PUSH20 0xFFFFFFFFFFFFFFFFFFFFFFFFFFFFFFFFFFFFFFFF AND MUL OR SWAP1 SSTORE POP PUSH2 0x417 PUSH2 0xB54 JUMP JUMPDEST ISZERO PUSH2 0x425 JUMPI PUSH2 0x424 PUSH2 0xCE0 JUMP JUMPDEST JUMPDEST POP POP JUMP JUMPDEST PUSH2 0x431 PUSH2 0xABD JUMP JUMPDEST PUSH2 0x470 JUMPI PUSH1 0x40 MLOAD PUSH32 0x8C379A000000000000000000000000000000000000000000000000000000000 DUP2 MSTORE PUSH1 0x4 ADD PUSH2 0x467 SWAP1 PUSH2 0x13DB JUMP JUMPDEST PUSH1 0x40 MLOAD DUP1 SWAP2 SUB SWAP1 REVERT JUMPDEST PUSH1 0x6 PUSH1 0x0 SWAP1 SLOAD SWAP1 PUSH2 0x100 EXP SWAP1 DIV PUSH20 0xFFFFFFFFFFFFFFFFFFFFFFFFFFFFFFFFFFFFFFFF AND PUSH20 0xFFFFFFFFFFFFFFFFFFFFFFFFFFFFFFFFFFFFFFFF AND CALLER PUSH20 0xFFFFFFFFFFFFFFFFFFFFFFFFFFFFFFFFFFFFFFFF AND EQ ISZERO PUSH2 0x501 JUMPI PUSH1 0x40 MLOAD PUSH32 0x8C379A000000000000000000000000000000000000000000000000000000000 DUP2 MSTORE PUSH1 0x4 ADD PUSH2 0x4F8 SWAP1 PUSH2 0x12DB JUMP JUMPDEST PUSH1 0x40 MLOAD DUP1 SWAP2 SUB SWAP1 REVERT JUMPDEST PUSH2 0x591 PUSH1 0x8 DUP1 SLOAD DUP1 PUSH1 0x20 MUL PUSH1 0x20 ADD PUSH1 0x40 MLOAD SWAP1 DUP2 ADD PUSH1 0x40 MSTORE DUP1 SWAP3 SWAP2 SWAP1 DUP2 DUP2 MSTORE PUSH1 0x20 ADD DUP3 DUP1 SLOAD DUP1 ISZERO PUSH2 0x586 JUMPI PUSH1 0x20 MUL DUP3 ADD SWAP2 SWAP1 PUSH1 0x0 MSTORE PUSH1 0x20 PUSH1 0x0 KECCAK256 SWAP1 JUMPDEST DUP2 PUSH1 0x0 SWAP1 SLOAD SWAP1 PUSH2 0x100 EXP SWAP1 DIV PUSH20 0xFFFFFFFFFFFFFFFFFFFFFFFFFFFFFFFFFFFFFFFF AND PUSH20 0xFFFFFFFFFFFFFFFFFFFFFFFFFFFFFFFFFFFFFFFF AND DUP2 MSTORE PUSH1 0x20 ADD SWAP1 PUSH1 0x1 ADD SWAP1 DUP1 DUP4 GT PUSH2 0x53C JUMPI JUMPDEST POP POP POP POP POP CALLER PUSH2 0xE03 JUMP JUMPDEST ISZERO PUSH2 0x5D1 JUMPI PUSH1 0x40 MLOAD PUSH32 0x8C379A000000000000000000000000000000000000000000000000000000000 DUP2 MSTORE PUSH1 0x4 ADD PUSH2 0x5C8 SWAP1 PUSH2 0x12FB JUMP JUMPDEST PUSH1 0x40 MLOAD DUP1 SWAP2 SUB SWAP1 REVERT JUMPDEST PUSH1 0x0 PUSH1 0x4 SLOAD GT PUSH2 0x616 JUMPI PUSH1 0x40 MLOAD PUSH32 0x8C379A000000000000000000000000000000000000000000000000000000000 DUP2 MSTORE PUSH1 0x4 ADD PUSH2 0x60D SWAP1 PUSH2 0x12BB JUMP JUMPDEST PUSH1 0x40 MLOAD DUP1 SWAP2 SUB SWAP1 REVERT JUMPDEST PUSH1 0x8 CALLER SWAP1 DUP1 PUSH1 0x1 DUP2 SLOAD ADD DUP1 DUP3 SSTORE DUP1 SWAP2 POP POP PUSH1 0x1 SWAP1 SUB SWAP1 PUSH1 0x0 MSTORE PUSH1 0x20 PUSH1 0x0 KECCAK256 ADD PUSH1 0x0 SWAP1 SWAP2 SWAP1 SWAP2 SWAP1 SWAP2 PUSH2 0x100 EXP DUP2 SLOAD DUP2 PUSH20 0xFFFFFFFFFFFFFFFFFFFFFFFFFFFFFFFFFFFFFFFF MUL NOT AND SWAP1 DUP4 PUSH20 0xFFFFFFFFFFFFFFFFFFFFFFFFFFFFFFFFFFFFFFFF AND MUL OR SWAP1 SSTORE POP PUSH1 0x0 DUP1 JUMPDEST PUSH1 0x8 DUP1 SLOAD SWAP1 POP DUP2 LT ISZERO PUSH2 0x71E JUMPI PUSH1 0x0 PUSH20 0xFFFFFFFFFFFFFFFFFFFFFFFFFFFFFFFFFFFFFFFF AND PUSH1 0x8 DUP3 DUP2 SLOAD DUP2 LT PUSH2 0x6B6 JUMPI PUSH2 0x6B5 PUSH2 0x16A8 JUMP JUMPDEST JUMPDEST SWAP1 PUSH1 0x0 MSTORE PUSH1 0x20 PUSH1 0x0 KECCAK256 ADD PUSH1 0x0 SWAP1 SLOAD SWAP1 PUSH2 0x100 EXP SWAP1 DIV PUSH20 0xFFFFFFFFFFFFFFFFFFFFFFFFFFFFFFFFFFFFFFFF AND PUSH20 0xFFFFFFFFFFFFFFFFFFFFFFFFFFFFFFFFFFFFFFFF AND EQ PUSH2 0x70B JUMPI DUP2 DUP1 PUSH2 0x707 SWAP1 PUSH2 0x15D7 JUMP JUMPDEST SWAP3 POP POP JUMPDEST DUP1 DUP1 PUSH2 0x716 SWAP1 PUSH2 0x15D7 JUMP JUMPDEST SWAP2 POP POP PUSH2 0x67D JUMP JUMPDEST POP PUSH1 0x1 PUSH1 0x2 DUP1 SLOAD SWAP1 POP PUSH2 0x731 SWAP2 SWAP1 PUSH2 0x1548 JUMP JUMPDEST DUP2 EQ ISZERO PUSH2 0x741 JUMPI PUSH2 0x740 PUSH2 0xE8B JUMP JUMPDEST JUMPDEST POP JUMP JUMPDEST PUSH2 0x74C PUSH2 0xABD JUMP JUMPDEST PUSH2 0x78B JUMPI PUSH1 0x40 MLOAD PUSH32 0x8C379A000000000000000000000000000000000000000000000000000000000 DUP2 MSTORE PUSH1 0x4 ADD PUSH2 0x782 SWAP1 PUSH2 0x13DB JUMP JUMPDEST PUSH1 0x40 MLOAD DUP1 SWAP2 SUB SWAP1 REVERT JUMPDEST PUSH1 0x0 PUSH1 0x4 SLOAD GT PUSH2 0x7D0 JUMPI PUSH1 0x40 MLOAD PUSH32 0x8C379A000000000000000000000000000000000000000000000000000000000 DUP2 MSTORE PUSH1 0x4 ADD PUSH2 0x7C7 SWAP1 PUSH2 0x135B JUMP JUMPDEST PUSH1 0x40 MLOAD DUP1 SWAP2 SUB SWAP1 REVERT JUMPDEST PUSH2 0x7D8 PUSH2 0xEFB JUMP JUMPDEST ISZERO PUSH2 0x818 JUMPI PUSH1 0x40 MLOAD PUSH32 0x8C379A000000000000000000000000000000000000000000000000000000000 DUP2 MSTORE PUSH1 0x4 ADD PUSH2 0x80F SWAP1 PUSH2 0x137B JUMP JUMPDEST PUSH1 0x40 MLOAD DUP1 SWAP2 SUB SWAP1 REVERT JUMPDEST PUSH1 0x7 CALLER SWAP1 DUP1 PUSH1 0x1 DUP2 SLOAD ADD DUP1 DUP3 SSTORE DUP1 SWAP2 POP POP PUSH1 0x1 SWAP1 SUB SWAP1 PUSH1 0x0 MSTORE PUSH1 0x20 PUSH1 0x0 KECCAK256 ADD PUSH1 0x0 SWAP1 SWAP2 SWAP1 SWAP2 SWAP1 SWAP2 PUSH2 0x100 EXP DUP2 SLOAD DUP2 PUSH20 0xFFFFFFFFFFFFFFFFFFFFFFFFFFFFFFFFFFFFFFFF MUL NOT AND SWAP1 DUP4 PUSH20 0xFFFFFFFFFFFFFFFFFFFFFFFFFFFFFFFFFFFFFFFF AND MUL OR SWAP1 SSTORE POP PUSH2 0x883 PUSH2 0xB54 JUMP JUMPDEST ISZERO PUSH2 0x891 JUMPI PUSH2 0x890 PUSH2 0xCE0 JUMP JUMPDEST JUMPDEST JUMP JUMPDEST PUSH1 0xA SLOAD DUP2 JUMP JUMPDEST PUSH1 0x0 CALLVALUE GT PUSH2 0x8DC JUMPI PUSH1 0x40 MLOAD PUSH32 0x8C379A000000000000000000000000000000000000000000000000000000000 DUP2 MSTORE PUSH1 0x4 ADD PUSH2 0x8D3 SWAP1 PUSH2 0x139B JUMP JUMPDEST PUSH1 0x40 MLOAD DUP1 SWAP2 SUB SWAP1 REVERT JUMPDEST CALLVALUE PUSH1 0x0 DUP1 DUP3 DUP3 SLOAD PUSH2 0x8ED SWAP2 SWAP1 PUSH2 0x1467 JUMP JUMPDEST SWAP3 POP POP DUP2 SWAP1 SSTORE POP JUMP JUMPDEST PUSH2 0x8FE PUSH2 0xABD JUMP JUMPDEST PUSH2 0x93D JUMPI PUSH1 0x40 MLOAD PUSH32 0x8C379A000000000000000000000000000000000000000000000000000000000 DUP2 MSTORE PUSH1 0x4 ADD PUSH2 0x934 SWAP1 PUSH2 0x13DB JUMP JUMPDEST PUSH1 0x40 MLOAD DUP1 SWAP2 SUB SWAP1 REVERT JUMPDEST PUSH1 0x6 PUSH1 0x0 SWAP1 SLOAD SWAP1 PUSH2 0x100 EXP SWAP1 DIV PUSH20 0xFFFFFFFFFFFFFFFFFFFFFFFFFFFFFFFFFFFFFFFF AND PUSH20 0xFFFFFFFFFFFFFFFFFFFFFFFFFFFFFFFFFFFFFFFF AND CALLER PUSH20 0xFFFFFFFFFFFFFFFFFFFFFFFFFFFFFFFFFFFFFFFF AND EQ PUSH2 0x9CD JUMPI PUSH1 0x40 MLOAD PUSH32 0x8C379A000000000000000000000000000000000000000000000000000000000 DUP2 MSTORE PUSH1 0x4 ADD PUSH2 0x9C4 SWAP1 PUSH2 0x13FB JUMP JUMPDEST PUSH1 0x40 MLOAD DUP1 SWAP2 SUB SWAP1 REVERT JUMPDEST PUSH2 0x9D5 PUSH2 0xE8B JUMP JUMPDEST JUMP JUMPDEST PUSH1 0x0 SLOAD DUP2 JUMP JUMPDEST PUSH1 0xC PUSH1 0x0 SWAP1 SLOAD SWAP1 PUSH2 0x100 EXP SWAP1 DIV PUSH20 0xFFFFFFFFFFFFFFFFFFFFFFFFFFFFFFFFFFFFFFFF AND PUSH20 0xFFFFFFFFFFFFFFFFFFFFFFFFFFFFFFFFFFFFFFFF AND CALLER PUSH20 0xFFFFFFFFFFFFFFFFFFFFFFFFFFFFFFFFFFFFFFFF AND EQ PUSH2 0xA6D JUMPI PUSH1 0x40 MLOAD PUSH32 0x8C379A000000000000000000000000000000000000000000000000000000000 DUP2 MSTORE PUSH1 0x4 ADD PUSH2 0xA64 SWAP1 PUSH2 0x133B JUMP JUMPDEST PUSH1 0x40 MLOAD DUP1 SWAP2 SUB SWAP1 REVERT JUMPDEST DUP1 PUSH1 0xC PUSH1 0x0 PUSH2 0x100 EXP DUP2 SLOAD DUP2 PUSH20 0xFFFFFFFFFFFFFFFFFFFFFFFFFFFFFFFFFFFFFFFF MUL NOT AND SWAP1 DUP4 PUSH20 0xFFFFFFFFFFFFFFFFFFFFFFFFFFFFFFFFFFFFFFFF AND MUL OR SWAP1 SSTORE POP POP JUMP JUMPDEST PUSH1 0x9 SLOAD DUP2 JUMP JUMPDEST PUSH1 0xB SLOAD DUP2 JUMP JUMPDEST PUSH1 0x0 PUSH2 0xB4F PUSH1 0x2 DUP1 SLOAD DUP1 PUSH1 0x20 MUL PUSH1 0x20 ADD PUSH1 0x40 MLOAD SWAP1 DUP2 ADD PUSH1 0x40 MSTORE DUP1 SWAP3 SWAP2 SWAP1 DUP2 DUP2 MSTORE PUSH1 0x20 ADD DUP3 DUP1 SLOAD DUP1 ISZERO PUSH2 0xB44 JUMPI PUSH1 0x20 MUL DUP3 ADD SWAP2 SWAP1 PUSH1 0x0 MSTORE PUSH1 0x20 PUSH1 0x0 KECCAK256 SWAP1 JUMPDEST DUP2 PUSH1 0x0 SWAP1 SLOAD SWAP1 PUSH2 0x100 EXP SWAP1 DIV PUSH20 0xFFFFFFFFFFFFFFFFFFFFFFFFFFFFFFFFFFFFFFFF AND PUSH20 0xFFFFFFFFFFFFFFFFFFFFFFFFFFFFFFFFFFFFFFFF AND DUP2 MSTORE PUSH1 0x20 ADD SWAP1 PUSH1 0x1 ADD SWAP1 DUP1 DUP4 GT PUSH2 0xAFA JUMPI JUMPDEST POP POP POP POP POP CALLER PUSH2 0xE03 JUMP JUMPDEST SWAP1 POP SWAP1 JUMP JUMPDEST PUSH1 0x0 DUP1 PUSH1 0x7 DUP1 SLOAD DUP1 PUSH1 0x20 MUL PUSH1 0x20 ADD PUSH1 0x40 MLOAD SWAP1 DUP2 ADD PUSH1 0x40 MSTORE DUP1 SWAP3 SWAP2 SWAP1 DUP2 DUP2 MSTORE PUSH1 0x20 ADD DUP3 DUP1 SLOAD DUP1 ISZERO PUSH2 0xBD9 JUMPI PUSH1 0x20 MUL DUP3 ADD SWAP2 SWAP1 PUSH1 0x0 MSTORE PUSH1 0x20 PUSH1 0x0 KECCAK256 SWAP1 JUMPDEST DUP2 PUSH1 0x0 SWAP1 SLOAD SWAP1 PUSH2 0x100 EXP SWAP1 DIV PUSH20 0xFFFFFFFFFFFFFFFFFFFFFFFFFFFFFFFFFFFFFFFF AND PUSH20 0xFFFFFFFFFFFFFFFFFFFFFFFFFFFFFFFFFFFFFFFF AND DUP2 MSTORE PUSH1 0x20 ADD SWAP1 PUSH1 0x1 ADD SWAP1 DUP1 DUP4 GT PUSH2 0xB8F JUMPI JUMPDEST POP POP POP POP POP SWAP1 POP PUSH1 0x0 DUP1 JUMPDEST DUP3 MLOAD DUP2 LT ISZERO PUSH2 0xCBF JUMPI PUSH1 0x0 JUMPDEST PUSH1 0x2 DUP1 SLOAD SWAP1 POP DUP2 LT ISZERO PUSH2 0xCAB JUMPI DUP4 DUP3 DUP2 MLOAD DUP2 LT PUSH2 0xC10 JUMPI PUSH2 0xC0F PUSH2 0x16A8 JUMP JUMPDEST JUMPDEST PUSH1 0x20 MUL PUSH1 0x20 ADD ADD MLOAD PUSH20 0xFFFFFFFFFFFFFFFFFFFFFFFFFFFFFFFFFFFFFFFF AND PUSH1 0x2 DUP3 DUP2 SLOAD DUP2 LT PUSH2 0xC42 JUMPI PUSH2 0xC41 PUSH2 0x16A8 JUMP JUMPDEST JUMPDEST SWAP1 PUSH1 0x0 MSTORE PUSH1 0x20 PUSH1 0x0 KECCAK256 ADD PUSH1 0x0 SWAP1 SLOAD SWAP1 PUSH2 0x100 EXP SWAP1 DIV PUSH20 0xFFFFFFFFFFFFFFFFFFFFFFFFFFFFFFFFFFFFFFFF AND PUSH20 0xFFFFFFFFFFFFFFFFFFFFFFFFFFFFFFFFFFFFFFFF AND EQ ISZERO PUSH2 0xC98 JUMPI DUP3 DUP1 PUSH2 0xC94 SWAP1 PUSH2 0x1620 JUMP JUMPDEST SWAP4 POP POP JUMPDEST DUP1 DUP1 PUSH2 0xCA3 SWAP1 PUSH2 0x15D7 JUMP JUMPDEST SWAP2 POP POP PUSH2 0xBF0 JUMP JUMPDEST POP DUP1 DUP1 PUSH2 0xCB7 SWAP1 PUSH2 0x15D7 JUMP JUMPDEST SWAP2 POP POP PUSH2 0xBE4 JUMP JUMPDEST POP PUSH1 0x3 PUSH1 0x0 SWAP1 SLOAD SWAP1 PUSH2 0x100 EXP SWAP1 DIV PUSH1 0xFF AND PUSH1 0xFF AND DUP2 PUSH1 0xFF AND LT ISZERO SWAP3 POP POP POP SWAP1 JUMP JUMPDEST PUSH1 0x0 PUSH1 0x4 SLOAD SWAP1 POP PUSH1 0x0 PUSH1 0x4 DUP2 SWAP1 SSTORE POP PUSH1 0x5 PUSH1 0x0 SWAP1 SLOAD SWAP1 PUSH2 0x100 EXP SWAP1 DIV PUSH20 0xFFFFFFFFFFFFFFFFFFFFFFFFFFFFFFFFFFFFFFFF AND PUSH20 0xFFFFFFFFFFFFFFFFFFFFFFFFFFFFFFFFFFFFFFFF AND PUSH2 0x8FC DUP3 SWAP1 DUP2 ISZERO MUL SWAP1 PUSH1 0x40 MLOAD PUSH1 0x0 PUSH1 0x40 MLOAD DUP1 DUP4 SUB DUP2 DUP6 DUP9 DUP9 CALL SWAP4 POP POP POP POP ISZERO DUP1 ISZERO PUSH2 0xD57 JUMPI RETURNDATASIZE PUSH1 0x0 DUP1 RETURNDATACOPY RETURNDATASIZE PUSH1 0x0 REVERT JUMPDEST POP DUP1 PUSH1 0x0 SLOAD PUSH2 0xD66 SWAP2 SWAP1 PUSH2 0x1548 JUMP JUMPDEST PUSH1 0x0 DUP2 SWAP1 SSTORE POP PUSH1 0x9 PUSH1 0x0 DUP2 SLOAD DUP1 SWAP3 SWAP2 SWAP1 PUSH2 0xD7F SWAP1 PUSH2 0x15D7 JUMP JUMPDEST SWAP2 SWAP1 POP SSTORE POP PUSH1 0x5 PUSH1 0x0 PUSH2 0x100 EXP DUP2 SLOAD SWAP1 PUSH20 0xFFFFFFFFFFFFFFFFFFFFFFFFFFFFFFFFFFFFFFFF MUL NOT AND SWAP1 SSTORE PUSH1 0x7 PUSH1 0x0 PUSH2 0xDB7 SWAP2 SWAP1 PUSH2 0x101E JUMP JUMPDEST PUSH1 0x6 PUSH1 0x0 PUSH2 0x100 EXP DUP2 SLOAD SWAP1 PUSH20 0xFFFFFFFFFFFFFFFFFFFFFFFFFFFFFFFFFFFFFFFF MUL NOT AND SWAP1 SSTORE PUSH1 0x8 PUSH1 0x0 PUSH2 0xDEA SWAP2 SWAP1 PUSH2 0x101E JUMP JUMPDEST PUSH1 0xB SLOAD PUSH1 0x9 SLOAD GT ISZERO PUSH2 0xE00 JUMPI PUSH2 0xDFF DUP2 PUSH2 0xF92 JUMP JUMPDEST JUMPDEST POP JUMP JUMPDEST PUSH1 0x0 DUP1 PUSH1 0x0 SWAP1 POP PUSH1 0x0 JUMPDEST DUP5 MLOAD DUP2 LT ISZERO PUSH2 0xE80 JUMPI DUP4 PUSH20 0xFFFFFFFFFFFFFFFFFFFFFFFFFFFFFFFFFFFFFFFF AND DUP6 DUP3 DUP2 MLOAD DUP2 LT PUSH2 0xE40 JUMPI PUSH2 0xE3F PUSH2 0x16A8 JUMP JUMPDEST JUMPDEST PUSH1 0x20 MUL PUSH1 0x20 ADD ADD MLOAD PUSH20 0xFFFFFFFFFFFFFFFFFFFFFFFFFFFFFFFFFFFFFFFF AND EQ ISZERO PUSH2 0xE6D JUMPI PUSH1 0x1 SWAP2 POP PUSH2 0xE80 JUMP JUMPDEST DUP1 DUP1 PUSH2 0xE78 SWAP1 PUSH2 0x15D7 JUMP JUMPDEST SWAP2 POP POP PUSH2 0xE0D JUMP JUMPDEST POP DUP1 SWAP2 POP POP SWAP3 SWAP2 POP POP JUMP JUMPDEST PUSH1 0x6 PUSH1 0x0 PUSH2 0x100 EXP DUP2 SLOAD SWAP1 PUSH20 0xFFFFFFFFFFFFFFFFFFFFFFFFFFFFFFFFFFFFFFFF MUL NOT AND SWAP1 SSTORE PUSH1 0x5 PUSH1 0x0 PUSH2 0x100 EXP DUP2 SLOAD SWAP1 PUSH20 0xFFFFFFFFFFFFFFFFFFFFFFFFFFFFFFFFFFFFFFFF MUL NOT AND SWAP1 SSTORE PUSH1 0x0 PUSH1 0x4 DUP2 SWAP1 SSTORE POP PUSH1 0x7 PUSH1 0x0 PUSH2 0xEEB SWAP2 SWAP1 PUSH2 0x101E JUMP JUMPDEST PUSH1 0x8 PUSH1 0x0 PUSH2 0xEF9 SWAP2 SWAP1 PUSH2 0x101E JUMP JUMPDEST JUMP JUMPDEST PUSH1 0x0 PUSH2 0xF8D PUSH1 0x7 DUP1 SLOAD DUP1 PUSH1 0x20 MUL PUSH1 0x20 ADD PUSH1 0x40 MLOAD SWAP1 DUP2 ADD PUSH1 0x40 MSTORE DUP1 SWAP3 SWAP2 SWAP1 DUP2 DUP2 MSTORE PUSH1 0x20 ADD DUP3 DUP1 SLOAD DUP1 ISZERO PUSH2 0xF82 JUMPI PUSH1 0x20 MUL DUP3 ADD SWAP2 SWAP1 PUSH1 0x0 MSTORE PUSH1 0x20 PUSH1 0x0 KECCAK256 SWAP1 JUMPDEST DUP2 PUSH1 0x0 SWAP1 SLOAD SWAP1 PUSH2 0x100 EXP SWAP1 DIV PUSH20 0xFFFFFFFFFFFFFFFFFFFFFFFFFFFFFFFFFFFFFFFF AND PUSH20 0xFFFFFFFFFFFFFFFFFFFFFFFFFFFFFFFFFFFFFFFF AND DUP2 MSTORE PUSH1 0x20 ADD SWAP1 PUSH1 0x1 ADD SWAP1 DUP1 DUP4 GT PUSH2 0xF38 JUMPI JUMPDEST POP POP POP POP POP CALLER PUSH2 0xE03 JUMP JUMPDEST SWAP1 POP SWAP1 JUMP JUMPDEST PUSH1 0x0 PUSH1 0xA SLOAD PUSH2 0x2710 DUP4 PUSH2 0xFA5 SWAP2 SWAP1 PUSH2 0x14BD JUMP JUMPDEST PUSH2 0xFAF SWAP2 SWAP1 PUSH2 0x14EE JUMP JUMPDEST SWAP1 POP PUSH1 0xC PUSH1 0x0 SWAP1 SLOAD SWAP1 PUSH2 0x100 EXP SWAP1 DIV PUSH20 0xFFFFFFFFFFFFFFFFFFFFFFFFFFFFFFFFFFFFFFFF AND PUSH20 0xFFFFFFFFFFFFFFFFFFFFFFFFFFFFFFFFFFFFFFFF AND PUSH2 0x8FC DUP3 SWAP1 DUP2 ISZERO MUL SWAP1 PUSH1 0x40 MLOAD PUSH1 0x0 PUSH1 0x40 MLOAD DUP1 DUP4 SUB DUP2 DUP6 DUP9 DUP9 CALL SWAP4 POP POP POP POP ISZERO DUP1 ISZERO PUSH2 0x1019 JUMPI RETURNDATASIZE PUSH1 0x0 DUP1 RETURNDATACOPY RETURNDATASIZE PUSH1 0x0 REVERT JUMPDEST POP POP POP JUMP JUMPDEST POP DUP1 SLOAD PUSH1 0x0 DUP3 SSTORE SWAP1 PUSH1 0x0 MSTORE PUSH1 0x20 PUSH1 0x0 KECCAK256 SWAP1 DUP2 ADD SWAP1 PUSH2 0x103C SWAP2 SWAP1 PUSH2 0x103F JUMP JUMPDEST POP JUMP JUMPDEST JUMPDEST DUP1 DUP3 GT ISZERO PUSH2 0x1058 JUMPI PUSH1 0x0 DUP2 PUSH1 0x0 SWAP1 SSTORE POP PUSH1 0x1 ADD PUSH2 0x1040 JUMP JUMPDEST POP SWAP1 JUMP JUMPDEST PUSH1 0x0 DUP2 CALLDATALOAD SWAP1 POP PUSH2 0x106B DUP2 PUSH2 0x1A6A JUMP JUMPDEST SWAP3 SWAP2 POP POP JUMP JUMPDEST PUSH1 0x0 DUP2 CALLDATALOAD SWAP1 POP PUSH2 0x1080 DUP2 PUSH2 0x1A81 JUMP JUMPDEST SWAP3 SWAP2 POP POP JUMP JUMPDEST PUSH1 0x0 DUP2 CALLDATALOAD SWAP1 POP PUSH2 0x1095 DUP2 PUSH2 0x1A98 JUMP JUMPDEST SWAP3 SWAP2 POP POP JUMP JUMPDEST PUSH1 0x0 PUSH1 0x20 DUP3 DUP5 SUB SLT ISZERO PUSH2 0x10B1 JUMPI PUSH2 0x10B0 PUSH2 0x16D7 JUMP JUMPDEST JUMPDEST PUSH1 0x0 PUSH2 0x10BF DUP5 DUP3 DUP6 ADD PUSH2 0x105C JUMP JUMPDEST SWAP2 POP POP SWAP3 SWAP2 POP POP JUMP JUMPDEST PUSH1 0x0 DUP1 PUSH1 0x40 DUP4 DUP6 SUB SLT ISZERO PUSH2 0x10DF JUMPI PUSH2 0x10DE PUSH2 0x16D7 JUMP JUMPDEST JUMPDEST PUSH1 0x0 PUSH2 0x10ED DUP6 DUP3 DUP7 ADD PUSH2 0x1086 JUMP JUMPDEST SWAP3 POP POP PUSH1 0x20 PUSH2 0x10FE DUP6 DUP3 DUP7 ADD PUSH2 0x1071 JUMP JUMPDEST SWAP2 POP POP SWAP3 POP SWAP3 SWAP1 POP JUMP JUMPDEST PUSH1 0x0 PUSH2 0x1115 PUSH1 0x2F DUP4 PUSH2 0x1456 JUMP JUMPDEST SWAP2 POP PUSH2 0x1120 DUP3 PUSH2 0x16DC JUMP JUMPDEST PUSH1 0x40 DUP3 ADD SWAP1 POP SWAP2 SWAP1 POP JUMP JUMPDEST PUSH1 0x0 PUSH2 0x1138 PUSH1 0x3A DUP4 PUSH2 0x1456 JUMP JUMPDEST SWAP2 POP PUSH2 0x1143 DUP3 PUSH2 0x172B JUMP JUMPDEST PUSH1 0x40 DUP3 ADD SWAP1 POP SWAP2 SWAP1 POP JUMP JUMPDEST PUSH1 0x0 PUSH2 0x115B PUSH1 0x2E DUP4 PUSH2 0x1456 JUMP JUMPDEST SWAP2 POP PUSH2 0x1166 DUP3 PUSH2 0x177A JUMP JUMPDEST PUSH1 0x40 DUP3 ADD SWAP1 POP SWAP2 SWAP1 POP JUMP JUMPDEST PUSH1 0x0 PUSH2 0x117E PUSH1 0x15 DUP4 PUSH2 0x1456 JUMP JUMPDEST SWAP2 POP PUSH2 0x1189 DUP3 PUSH2 0x17C9 JUMP JUMPDEST PUSH1 0x20 DUP3 ADD SWAP1 POP SWAP2 SWAP1 POP JUMP JUMPDEST PUSH1 0x0 PUSH2 0x11A1 PUSH1 0x3B DUP4 PUSH2 0x1456 JUMP JUMPDEST SWAP2 POP PUSH2 0x11AC DUP3 PUSH2 0x17F2 JUMP JUMPDEST PUSH1 0x40 DUP3 ADD SWAP1 POP SWAP2 SWAP1 POP JUMP JUMPDEST PUSH1 0x0 PUSH2 0x11C4 PUSH1 0x2C DUP4 PUSH2 0x1456 JUMP JUMPDEST SWAP2 POP PUSH2 0x11CF DUP3 PUSH2 0x1841 JUMP JUMPDEST PUSH1 0x40 DUP3 ADD SWAP1 POP SWAP2 SWAP1 POP JUMP JUMPDEST PUSH1 0x0 PUSH2 0x11E7 PUSH1 0x38 DUP4 PUSH2 0x1456 JUMP JUMPDEST SWAP2 POP PUSH2 0x11F2 DUP3 PUSH2 0x1890 JUMP JUMPDEST PUSH1 0x40 DUP3 ADD SWAP1 POP SWAP2 SWAP1 POP JUMP JUMPDEST PUSH1 0x0 PUSH2 0x120A PUSH1 0x58 DUP4 PUSH2 0x1456 JUMP JUMPDEST SWAP2 POP PUSH2 0x1215 DUP3 PUSH2 0x18DF JUMP JUMPDEST PUSH1 0x60 DUP3 ADD SWAP1 POP SWAP2 SWAP1 POP JUMP JUMPDEST PUSH1 0x0 PUSH2 0x122D PUSH1 0x1D DUP4 PUSH2 0x1456 JUMP JUMPDEST SWAP2 POP PUSH2 0x1238 DUP3 PUSH2 0x1954 JUMP JUMPDEST PUSH1 0x20 DUP3 ADD SWAP1 POP SWAP2 SWAP1 POP JUMP JUMPDEST PUSH1 0x0 PUSH2 0x1250 PUSH1 0x26 DUP4 PUSH2 0x1456 JUMP JUMPDEST SWAP2 POP PUSH2 0x125B DUP3 PUSH2 0x197D JUMP JUMPDEST PUSH1 0x40 DUP3 ADD SWAP1 POP SWAP2 SWAP1 POP JUMP JUMPDEST PUSH1 0x0 PUSH2 0x1273 PUSH1 0x2A DUP4 PUSH2 0x1456 JUMP JUMPDEST SWAP2 POP PUSH2 0x127E DUP3 PUSH2 0x19CC JUMP JUMPDEST PUSH1 0x40 DUP3 ADD SWAP1 POP SWAP2 SWAP1 POP JUMP JUMPDEST PUSH1 0x0 PUSH2 0x1296 PUSH1 0x2C DUP4 PUSH2 0x1456 JUMP JUMPDEST SWAP2 POP PUSH2 0x12A1 DUP3 PUSH2 0x1A1B JUMP JUMPDEST PUSH1 0x40 DUP3 ADD SWAP1 POP SWAP2 SWAP1 POP JUMP JUMPDEST PUSH2 0x12B5 DUP2 PUSH2 0x15C0 JUMP JUMPDEST DUP3 MSTORE POP POP JUMP JUMPDEST PUSH1 0x0 PUSH1 0x20 DUP3 ADD SWAP1 POP DUP2 DUP2 SUB PUSH1 0x0 DUP4 ADD MSTORE PUSH2 0x12D4 DUP2 PUSH2 0x1108 JUMP JUMPDEST SWAP1 POP SWAP2 SWAP1 POP JUMP JUMPDEST PUSH1 0x0 PUSH1 0x20 DUP3 ADD SWAP1 POP DUP2 DUP2 SUB PUSH1 0x0 DUP4 ADD MSTORE PUSH2 0x12F4 DUP2 PUSH2 0x112B JUMP JUMPDEST SWAP1 POP SWAP2 SWAP1 POP JUMP JUMPDEST PUSH1 0x0 PUSH1 0x20 DUP3 ADD SWAP1 POP DUP2 DUP2 SUB PUSH1 0x0 DUP4 ADD MSTORE PUSH2 0x1314 DUP2 PUSH2 0x114E JUMP JUMPDEST SWAP1 POP SWAP2 SWAP1 POP JUMP JUMPDEST PUSH1 0x0 PUSH1 0x20 DUP3 ADD SWAP1 POP DUP2 DUP2 SUB PUSH1 0x0 DUP4 ADD MSTORE PUSH2 0x1334 DUP2 PUSH2 0x1171 JUMP JUMPDEST SWAP1 POP SWAP2 SWAP1 POP JUMP JUMPDEST PUSH1 0x0 PUSH1 0x20 DUP3 ADD SWAP1 POP DUP2 DUP2 SUB PUSH1 0x0 DUP4 ADD MSTORE PUSH2 0x1354 DUP2 PUSH2 0x1194 JUMP JUMPDEST SWAP1 POP SWAP2 SWAP1 POP JUMP JUMPDEST PUSH1 0x0 PUSH1 0x20 DUP3 ADD SWAP1 POP DUP2 DUP2 SUB PUSH1 0x0 DUP4 ADD MSTORE PUSH2 0x1374 DUP2 PUSH2 0x11B7 JUMP JUMPDEST SWAP1 POP SWAP2 SWAP1 POP JUMP JUMPDEST PUSH1 0x0 PUSH1 0x20 DUP3 ADD SWAP1 POP DUP2 DUP2 SUB PUSH1 0x0 DUP4 ADD MSTORE PUSH2 0x1394 DUP2 PUSH2 0x11DA JUMP JUMPDEST SWAP1 POP SWAP2 SWAP1 POP JUMP JUMPDEST PUSH1 0x0 PUSH1 0x20 DUP3 ADD SWAP1 POP DUP2 DUP2 SUB PUSH1 0x0 DUP4 ADD MSTORE PUSH2 0x13B4 DUP2 PUSH2 0x11FD JUMP JUMPDEST SWAP1 POP SWAP2 SWAP1 POP JUMP JUMPDEST PUSH1 0x0 PUSH1 0x20 DUP3 ADD SWAP1 POP DUP2 DUP2 SUB PUSH1 0x0 DUP4 ADD MSTORE PUSH2 0x13D4 DUP2 PUSH2 0x1220 JUMP JUMPDEST SWAP1 POP SWAP2 SWAP1 POP JUMP JUMPDEST PUSH1 0x0 PUSH1 0x20 DUP3 ADD SWAP1 POP DUP2 DUP2 SUB PUSH1 0x0 DUP4 ADD MSTORE PUSH2 0x13F4 DUP2 PUSH2 0x1243 JUMP JUMPDEST SWAP1 POP SWAP2 SWAP1 POP JUMP JUMPDEST PUSH1 0x0 PUSH1 0x20 DUP3 ADD SWAP1 POP DUP2 DUP2 SUB PUSH1 0x0 DUP4 ADD MSTORE PUSH2 0x1414 DUP2 PUSH2 0x1266 JUMP JUMPDEST SWAP1 POP SWAP2 SWAP1 POP JUMP JUMPDEST PUSH1 0x0 PUSH1 0x20 DUP3 ADD SWAP1 POP DUP2 DUP2 SUB PUSH1 0x0 DUP4 ADD MSTORE PUSH2 0x1434 DUP2 PUSH2 0x1289 JUMP JUMPDEST SWAP1 POP SWAP2 SWAP1 POP JUMP JUMPDEST PUSH1 0x0 PUSH1 0x20 DUP3 ADD SWAP1 POP PUSH2 0x1450 PUSH1 0x0 DUP4 ADD DUP5 PUSH2 0x12AC JUMP JUMPDEST SWAP3 SWAP2 POP POP JUMP JUMPDEST PUSH1 0x0 DUP3 DUP3 MSTORE PUSH1 0x20 DUP3 ADD SWAP1 POP SWAP3 SWAP2 POP POP JUMP JUMPDEST PUSH1 0x0 PUSH2 0x1472 DUP3 PUSH2 0x15C0 JUMP JUMPDEST SWAP2 POP PUSH2 0x147D DUP4 PUSH2 0x15C0 JUMP JUMPDEST SWAP3 POP DUP3 PUSH32 0xFFFFFFFFFFFFFFFFFFFFFFFFFFFFFFFFFFFFFFFFFFFFFFFFFFFFFFFFFFFFFFFF SUB DUP3 GT ISZERO PUSH2 0x14B2 JUMPI PUSH2 0x14B1 PUSH2 0x164A JUMP JUMPDEST JUMPDEST DUP3 DUP3 ADD SWAP1 POP SWAP3 SWAP2 POP POP JUMP JUMPDEST PUSH1 0x0 PUSH2 0x14C8 DUP3 PUSH2 0x15C0 JUMP JUMPDEST SWAP2 POP PUSH2 0x14D3 DUP4 PUSH2 0x15C0 JUMP JUMPDEST SWAP3 POP DUP3 PUSH2 0x14E3 JUMPI PUSH2 0x14E2 PUSH2 0x1679 JUMP JUMPDEST JUMPDEST DUP3 DUP3 DIV SWAP1 POP SWAP3 SWAP2 POP POP JUMP JUMPDEST PUSH1 0x0 PUSH2 0x14F9 DUP3 PUSH2 0x15C0 JUMP JUMPDEST SWAP2 POP PUSH2 0x1504 DUP4 PUSH2 0x15C0 JUMP JUMPDEST SWAP3 POP DUP2 PUSH32 0xFFFFFFFFFFFFFFFFFFFFFFFFFFFFFFFFFFFFFFFFFFFFFFFFFFFFFFFFFFFFFFFF DIV DUP4 GT DUP3 ISZERO ISZERO AND ISZERO PUSH2 0x153D JUMPI PUSH2 0x153C PUSH2 0x164A JUMP JUMPDEST JUMPDEST DUP3 DUP3 MUL SWAP1 POP SWAP3 SWAP2 POP POP JUMP JUMPDEST PUSH1 0x0 PUSH2 0x1553 DUP3 PUSH2 0x15C0 JUMP JUMPDEST SWAP2 POP PUSH2 0x155E DUP4 PUSH2 0x15C0 JUMP JUMPDEST SWAP3 POP DUP3 DUP3 LT ISZERO PUSH2 0x1571 JUMPI PUSH2 0x1570 PUSH2 0x164A JUMP JUMPDEST JUMPDEST DUP3 DUP3 SUB SWAP1 POP SWAP3 SWAP2 POP POP JUMP JUMPDEST PUSH1 0x0 PUSH2 0x1587 DUP3 PUSH2 0x15A0 JUMP JUMPDEST SWAP1 POP SWAP2 SWAP1 POP JUMP JUMPDEST PUSH1 0x0 PUSH2 0x1599 DUP3 PUSH2 0x15A0 JUMP JUMPDEST SWAP1 POP SWAP2 SWAP1 POP JUMP JUMPDEST PUSH1 0x0 PUSH20 0xFFFFFFFFFFFFFFFFFFFFFFFFFFFFFFFFFFFFFFFF DUP3 AND SWAP1 POP SWAP2 SWAP1 POP JUMP JUMPDEST PUSH1 0x0 DUP2 SWAP1 POP SWAP2 SWAP1 POP JUMP JUMPDEST PUSH1 0x0 PUSH1 0xFF DUP3 AND SWAP1 POP SWAP2 SWAP1 POP JUMP JUMPDEST PUSH1 0x0 PUSH2 0x15E2 DUP3 PUSH2 0x15C0 JUMP JUMPDEST SWAP2 POP PUSH32 0xFFFFFFFFFFFFFFFFFFFFFFFFFFFFFFFFFFFFFFFFFFFFFFFFFFFFFFFFFFFFFFFF DUP3 EQ ISZERO PUSH2 0x1615 JUMPI PUSH2 0x1614 PUSH2 0x164A JUMP JUMPDEST JUMPDEST PUSH1 0x1 DUP3 ADD SWAP1 POP SWAP2 SWAP1 POP JUMP JUMPDEST PUSH1 0x0 PUSH2 0x162B DUP3 PUSH2 0x15CA JUMP JUMPDEST SWAP2 POP PUSH1 0xFF DUP3 EQ ISZERO PUSH2 0x163F JUMPI PUSH2 0x163E PUSH2 0x164A JUMP JUMPDEST JUMPDEST PUSH1 0x1 DUP3 ADD SWAP1 POP SWAP2 SWAP1 POP JUMP JUMPDEST PUSH32 0x4E487B7100000000000000000000000000000000000000000000000000000000 PUSH1 0x0 MSTORE PUSH1 0x11 PUSH1 0x4 MSTORE PUSH1 0x24 PUSH1 0x0 REVERT JUMPDEST PUSH32 0x4E487B7100000000000000000000000000000000000000000000000000000000 PUSH1 0x0 MSTORE PUSH1 0x12 PUSH1 0x4 MSTORE PUSH1 0x24 PUSH1 0x0 REVERT JUMPDEST PUSH32 0x4E487B7100000000000000000000000000000000000000000000000000000000 PUSH1 0x0 MSTORE PUSH1 0x32 PUSH1 0x4 MSTORE PUSH1 0x24 PUSH1 0x0 REVERT JUMPDEST PUSH1 0x0 DUP1 REVERT JUMPDEST PUSH32 0x74686572652069736E277420616E792077697468647277616C73207761697420 PUSH1 0x0 DUP3 ADD MSTORE PUSH32 0x666F722063616E63656C6174696F6E0000000000000000000000000000000000 PUSH1 0x20 DUP3 ADD MSTORE POP JUMP JUMPDEST PUSH32 0x6F6E6C792074686520636F756E746572207061727479206F6620696E69746961 PUSH1 0x0 DUP3 ADD MSTORE PUSH32 0x746F722063616E2063616C6C20746869732066756E6374696F6E000000000000 PUSH1 0x20 DUP3 ADD MSTORE POP JUMP JUMPDEST PUSH32 0x796F752068617665207369676E656420666F722063616E63656C6C6174696F6E PUSH1 0x0 DUP3 ADD MSTORE PUSH32 0x2C20646F6E277420726570656174000000000000000000000000000000000000 PUSH1 0x20 DUP3 ADD MSTORE POP JUMP JUMPDEST PUSH32 0x696E76616C696420746172676574416464726573730000000000000000000000 PUSH1 0x0 DUP3 ADD MSTORE POP JUMP JUMPDEST PUSH32 0x6F6E6C7920706C6174666F726D206163636F756E7420697473656C662063616E PUSH1 0x0 DUP3 ADD MSTORE PUSH32 0x206368616E676520697420746F206F74686572206163636F756E740000000000 PUSH1 0x20 DUP3 ADD MSTORE POP JUMP JUMPDEST PUSH32 0x7468657265206973206E6F20776974686472617720616374696F6E2077616974 PUSH1 0x0 DUP3 ADD MSTORE PUSH32 0x696E6720666F72207369676E0000000000000000000000000000000000000000 PUSH1 0x20 DUP3 ADD MSTORE POP JUMP JUMPDEST PUSH32 0x796F752068617665207369676E65642074686973207769746864726177207072 PUSH1 0x0 DUP3 ADD MSTORE PUSH32 0x6F636573732C20706C7A20646F6E2774207265706561742E0000000000000000 PUSH1 0x20 DUP3 ADD MSTORE POP JUMP JUMPDEST PUSH32 0x544F50494E206D757374206D6F7265207468616E2030207765692C20696E6465 PUSH1 0x0 DUP3 ADD MSTORE PUSH32 0x656420746865206761732066656520646F206E6F742064656372656173652069 PUSH1 0x20 DUP3 ADD MSTORE PUSH32 0x6620796F7520746F70696E2061206C6F772076616C75652E0000000000000000 PUSH1 0x40 DUP3 ADD MSTORE POP JUMP JUMPDEST PUSH32 0x7072652070726F6365737320686173206E6F74206265656E206F766572000000 PUSH1 0x0 DUP3 ADD MSTORE POP JUMP JUMPDEST PUSH32 0x6F6E6C7920636F6C6C61626F7261746F7273206861766520746865207065726D PUSH1 0x0 DUP3 ADD MSTORE PUSH32 0x697373696F6E0000000000000000000000000000000000000000000000000000 PUSH1 0x20 DUP3 ADD MSTORE POP JUMP JUMPDEST PUSH32 0x6F6E6C792074686520696E69746961746F722063616E2063616E63656C207468 PUSH1 0x0 DUP3 ADD MSTORE PUSH32 0x69732070726F6365737300000000000000000000000000000000000000000000 PUSH1 0x20 DUP3 ADD MSTORE POP JUMP JUMPDEST PUSH32 0x77697468647261772062616C616E636520636F756C64206E6F74206D6F726520 PUSH1 0x0 DUP3 ADD MSTORE PUSH32 0x7468616E2062616C616E63650000000000000000000000000000000000000000 PUSH1 0x20 DUP3 ADD MSTORE POP JUMP JUMPDEST PUSH2 0x1A73 DUP2 PUSH2 0x157C JUMP JUMPDEST DUP2 EQ PUSH2 0x1A7E JUMPI PUSH1 0x0 DUP1 REVERT JUMPDEST POP JUMP JUMPDEST PUSH2 0x1A8A DUP2 PUSH2 0x158E JUMP JUMPDEST DUP2 EQ PUSH2 0x1A95 JUMPI PUSH1 0x0 DUP1 REVERT JUMPDEST POP JUMP JUMPDEST PUSH2 0x1AA1 DUP2 PUSH2 0x15C0 JUMP JUMPDEST DUP2 EQ PUSH2 0x1AAC JUMPI PUSH1 0x0 DUP1 REVERT JUMPDEST POP JUMP INVALID LOG2 PUSH5 0x6970667358 0x22 SLT KECCAK256 0x1E PUSH6 0xDD16FB2BCF95 CALLDATASIZE SSTORE TIMESTAMP CODESIZE CALLDATACOPY 0xE2 RETURN MOD 0xEE CALLDATACOPY 0xB6 BALANCE 0xAB TIMESTAMP EXP SHL 0x2F 0xD8 0xEE DUP8 0xDA RETURN 0xC1 0x4B PUSH5 0x736F6C6343 STOP ADDMOD SMOD STOP CALLER "
				},
				"gasEstimates": {
					"creation": {
						"codeDepositCost": "1377000",
						"executionCost": "infinite",
						"totalCost": "infinite"
					},
					"external": {
						"balance()": "2451",
						"cancel_withdraw()": "infinite",
						"cancel_withdraw_by_counterparty()": "infinite",
						"changePlatformAccount(address)": "26936",
						"collaboratorSign()": "infinite",
						"process_withdraw(uint256,address)": "infinite",
						"topin()": "infinite",
						"withdraw_count()": "2495",
						"withdraw_fee_rate()": "2496",
						"withdraw_free_count()": "2517"
					},
					"internal": {
						"address_array_in(address[] memory,address)": "infinite",
						"already_signed()": "infinite",
						"do_cancel_withdraw()": "infinite",
						"do_pay_service_fee(uint256)": "infinite",
						"do_withdraw()": "infinite",
						"is_oneof_collaborators()": "infinite",
						"no_duplicated_collaborators()": "infinite",
						"signedCountEnough()": "infinite"
					}
				},
				"methodIdentifiers": {
					"balance()": "b69ef8a8",
					"cancel_withdraw()": "b517e0b4",
					"cancel_withdraw_by_counterparty()": "1535430b",
					"changePlatformAccount(address)": "bc44e739",
					"collaboratorSign()": "352ce050",
					"process_withdraw(uint256,address)": "003bdf3e",
					"topin()": "68a1376b",
					"withdraw_count()": "ca3ea43f",
					"withdraw_fee_rate()": "3a0a197b",
					"withdraw_free_count()": "cfa4a5f6"
				}
			},
			"storageLayout": {
				"storage": [
					{
						"astId": 5,
						"contract": "contracts/MultisigWallet.sol:MultisigWallet",
						"label": "balance",
						"offset": 0,
						"slot": "0",
						"type": "t_uint256"
					},
					{
						"astId": 8,
						"contract": "contracts/MultisigWallet.sol:MultisigWallet",
						"label": "owner",
						"offset": 0,
						"slot": "1",
						"type": "t_address"
					},
					{
						"astId": 12,
						"contract": "contracts/MultisigWallet.sol:MultisigWallet",
						"label": "collaborators",
						"offset": 0,
						"slot": "2",
						"type": "t_array(t_address)dyn_storage"
					},
					{
						"astId": 15,
						"contract": "contracts/MultisigWallet.sol:MultisigWallet",
						"label": "at_least_sign_count",
						"offset": 0,
						"slot": "3",
						"type": "t_uint8"
					},
					{
						"astId": 18,
						"contract": "contracts/MultisigWallet.sol:MultisigWallet",
						"label": "waitfor_withdraw_wei",
						"offset": 0,
						"slot": "4",
						"type": "t_uint256"
					},
					{
						"astId": 21,
						"contract": "contracts/MultisigWallet.sol:MultisigWallet",
						"label": "waitfor_withdraw_address",
						"offset": 0,
						"slot": "5",
						"type": "t_address_payable"
					},
					{
						"astId": 24,
						"contract": "contracts/MultisigWallet.sol:MultisigWallet",
						"label": "initiator",
						"offset": 0,
						"slot": "6",
						"type": "t_address"
					},
					{
						"astId": 28,
						"contract": "contracts/MultisigWallet.sol:MultisigWallet",
						"label": "current_signed",
						"offset": 0,
						"slot": "7",
						"type": "t_array(t_address)dyn_storage"
					},
					{
						"astId": 32,
						"contract": "contracts/MultisigWallet.sol:MultisigWallet",
						"label": "current_cancel_counterparty_signed",
						"offset": 0,
						"slot": "8",
						"type": "t_array(t_address)dyn_storage"
					},
					{
						"astId": 35,
						"contract": "contracts/MultisigWallet.sol:MultisigWallet",
						"label": "withdraw_count",
						"offset": 0,
						"slot": "9",
						"type": "t_uint256"
					},
					{
						"astId": 38,
						"contract": "contracts/MultisigWallet.sol:MultisigWallet",
						"label": "withdraw_fee_rate",
						"offset": 0,
						"slot": "10",
						"type": "t_uint256"
					},
					{
						"astId": 41,
						"contract": "contracts/MultisigWallet.sol:MultisigWallet",
						"label": "withdraw_free_count",
						"offset": 0,
						"slot": "11",
						"type": "t_uint256"
					},
					{
						"astId": 43,
						"contract": "contracts/MultisigWallet.sol:MultisigWallet",
						"label": "platform_account",
						"offset": 0,
						"slot": "12",
						"type": "t_address_payable"
					}
				],
				"types": {
					"t_address": {
						"encoding": "inplace",
						"label": "address",
						"numberOfBytes": "20"
					},
					"t_address_payable": {
						"encoding": "inplace",
						"label": "address payable",
						"numberOfBytes": "20"
					},
					"t_array(t_address)dyn_storage": {
						"base": "t_address",
						"encoding": "dynamic_array",
						"label": "address[]",
						"numberOfBytes": "32"
					},
					"t_uint256": {
						"encoding": "inplace",
						"label": "uint256",
						"numberOfBytes": "32"
					},
					"t_uint8": {
						"encoding": "inplace",
						"label": "uint8",
						"numberOfBytes": "1"
					}
				}
			},
			"userdoc": {
				"kind": "user",
				"methods": {
					"balance()": {
						"notice": "当前余额，单位是wei"
					},
					"cancel_withdraw()": {
						"notice": "发起方才能直接取消提款"
					},
					"cancel_withdraw_by_counterparty()": {
						"notice": "增加一个另外全方，协作罢免发起方的提款请求 这是在发起方帐户丢失时才需要干的事情，防止合同废掉了，卡死在这里 发起方会先签名一次，如果金额有误且非常重大但刚好帐户丢失，直接让另外一方签署 容易导致大额损失，所以通过取消的操作来进行。"
					},
					"collaboratorSign()": {
						"notice": "协作方签名，只要进来这个函数，就是说明前面的以太坊认证已经通过，收集地址即可。 当最后一个签名方满足多签需求的时候，直接发起转账提款"
					},
					"topin()": {
						"notice": "充值转入，谁都可以转，用于收款"
					},
					"withdraw_count()": {
						"notice": "记录转账多少次，可以设置一些条款，例如前10次免费，之后按xx比例收取手续费。 手续费打入xx帐户。"
					},
					"withdraw_fee_rate()": {
						"notice": "转账费率，单位是万分之一"
					},
					"withdraw_free_count()": {
						"notice": "前N次免费"
					}
				},
				"notice": "多签名钱包简单实现。",
				"version": 1
			}
		}
	}
}