{
	"contracts/MultisigWallet.sol": {
		"MultisigWallet": {
			"abi": [
				{
					"inputs": [
						{
							"internalType": "address[]",
							"name": "collaborators_",
							"type": "address[]"
						},
						{
							"internalType": "uint8",
							"name": "at_least_sign_count_",
							"type": "uint8"
						}
					],
					"stateMutability": "nonpayable",
					"type": "constructor"
				},
				{
					"anonymous": false,
					"inputs": [
						{
							"indexed": true,
							"internalType": "address",
							"name": "initiator",
							"type": "address"
						}
					],
					"name": "CancelByInitiator",
					"type": "event"
				},
				{
					"anonymous": false,
					"inputs": [
						{
							"indexed": true,
							"internalType": "address",
							"name": "target_address",
							"type": "address"
						},
						{
							"indexed": false,
							"internalType": "uint256",
							"name": "amount",
							"type": "uint256"
						}
					],
					"name": "Cancelled",
					"type": "event"
				},
				{
					"anonymous": false,
					"inputs": [
						{
							"indexed": true,
							"internalType": "address",
							"name": "counter_party",
							"type": "address"
						}
					],
					"name": "CancellingByCounterPartiesSign",
					"type": "event"
				},
				{
					"anonymous": false,
					"inputs": [
						{
							"indexed": true,
							"internalType": "address",
							"name": "collaborator",
							"type": "address"
						}
					],
					"name": "CollaboratorSign",
					"type": "event"
				},
				{
					"anonymous": false,
					"inputs": [
						{
							"indexed": true,
							"internalType": "address",
							"name": "sender",
							"type": "address"
						},
						{
							"indexed": true,
							"internalType": "uint256",
							"name": "amount",
							"type": "uint256"
						}
					],
					"name": "Deposit",
					"type": "event"
				},
				{
					"anonymous": false,
					"inputs": [
						{
							"indexed": true,
							"internalType": "address",
							"name": "initiator",
							"type": "address"
						},
						{
							"indexed": true,
							"internalType": "uint256",
							"name": "amount",
							"type": "uint256"
						}
					],
					"name": "ProcessWithdraw",
					"type": "event"
				},
				{
					"anonymous": false,
					"inputs": [
						{
							"indexed": true,
							"internalType": "address",
							"name": "target_address",
							"type": "address"
						},
						{
							"indexed": true,
							"internalType": "uint256",
							"name": "amount",
							"type": "uint256"
						}
					],
					"name": "Withdraw",
					"type": "event"
				},
				{
					"inputs": [],
					"name": "cancel_withdraw",
					"outputs": [],
					"stateMutability": "nonpayable",
					"type": "function"
				},
				{
					"inputs": [],
					"name": "cancel_withdraw_by_counterparty",
					"outputs": [],
					"stateMutability": "nonpayable",
					"type": "function"
				},
				{
					"inputs": [
						{
							"internalType": "address",
							"name": "newAccount",
							"type": "address"
						}
					],
					"name": "changePlatformAccount",
					"outputs": [],
					"stateMutability": "nonpayable",
					"type": "function"
				},
				{
					"inputs": [],
					"name": "collaboratorSign",
					"outputs": [],
					"stateMutability": "nonpayable",
					"type": "function"
				},
				{
					"inputs": [],
					"name": "getBalance",
					"outputs": [
						{
							"internalType": "uint256",
							"name": "",
							"type": "uint256"
						}
					],
					"stateMutability": "view",
					"type": "function"
				},
				{
					"inputs": [
						{
							"internalType": "uint256",
							"name": "weis",
							"type": "uint256"
						},
						{
							"internalType": "address payable",
							"name": "targetAddress",
							"type": "address"
						}
					],
					"name": "process_withdraw",
					"outputs": [],
					"stateMutability": "nonpayable",
					"type": "function"
				},
				{
					"inputs": [],
					"name": "withdraw_count",
					"outputs": [
						{
							"internalType": "uint256",
							"name": "",
							"type": "uint256"
						}
					],
					"stateMutability": "view",
					"type": "function"
				},
				{
					"inputs": [],
					"name": "withdraw_fee_rate",
					"outputs": [
						{
							"internalType": "uint256",
							"name": "",
							"type": "uint256"
						}
					],
					"stateMutability": "view",
					"type": "function"
				},
				{
					"inputs": [],
					"name": "withdraw_free_count",
					"outputs": [
						{
							"internalType": "uint256",
							"name": "",
							"type": "uint256"
						}
					],
					"stateMutability": "view",
					"type": "function"
				},
				{
					"stateMutability": "payable",
					"type": "receive"
				}
			],
			"devdoc": {
				"kind": "dev",
				"methods": {},
				"version": 1
			},
			"evm": {
				"assembly": "    /* \"contracts/MultisigWallet.sol\":108:8402  contract MultisigWallet {... */\n  mstore(0x40, 0x80)\n    /* \"contracts/MultisigWallet.sol\":1836:2581  constructor(address[] memory collaborators_, uint8 at_least_sign_count_) {... */\n  callvalue\n  dup1\n  iszero\n  tag_1\n  jumpi\n  0x00\n  dup1\n  revert\ntag_1:\n  pop\n  mload(0x40)\n  sub(codesize, bytecodeSize)\n  dup1\n  bytecodeSize\n  dup4\n  codecopy\n  dup2\n  dup2\n  add\n  0x40\n  mstore\n  dup2\n  add\n  swap1\n  tag_2\n  swap2\n  swap1\n  tag_3\n  jump\t// in\ntag_2:\n    /* \"contracts/MultisigWallet.sol\":1921:1931  msg.sender */\n  caller\n    /* \"contracts/MultisigWallet.sol\":1913:1918  owner */\n  0x00\n  dup1\n    /* \"contracts/MultisigWallet.sol\":1913:1931  owner = msg.sender */\n  0x0100\n  exp\n  dup2\n  sload\n  dup2\n  0xffffffffffffffffffffffffffffffffffffffff\n  mul\n  not\n  and\n  swap1\n  dup4\n  0xffffffffffffffffffffffffffffffffffffffff\n  and\n  mul\n  or\n  swap1\n  sstore\n  pop\n    /* \"contracts/MultisigWallet.sol\":1967:1968  0 */\n  0x00\n    /* \"contracts/MultisigWallet.sol\":1943:1957  collaborators_ */\n  dup3\n    /* \"contracts/MultisigWallet.sol\":1943:1964  collaborators_.length */\n  mload\n    /* \"contracts/MultisigWallet.sol\":1943:1968  collaborators_.length > 0 */\n  gt\n    /* \"contracts/MultisigWallet.sol\":1935:2009  require(collaborators_.length > 0, \"all collaborators count at least one\") */\n  tag_6\n  jumpi\n  mload(0x40)\n  0x08c379a000000000000000000000000000000000000000000000000000000000\n  dup2\n  mstore\n  0x04\n  add\n  tag_7\n  swap1\n  tag_8\n  jump\t// in\ntag_7:\n  mload(0x40)\n  dup1\n  swap2\n  sub\n  swap1\n  revert\ntag_6:\n    /* \"contracts/MultisigWallet.sol\":2021:2050  no_duplicated_collaborators() */\n  tag_9\n    /* \"contracts/MultisigWallet.sol\":2021:2048  no_duplicated_collaborators */\n  shl(0x20, tag_10)\n    /* \"contracts/MultisigWallet.sol\":2021:2050  no_duplicated_collaborators() */\n  0x20\n  shr\n  jump\t// in\ntag_9:\n    /* \"contracts/MultisigWallet.sol\":2013:2094  require(no_duplicated_collaborators(), \"the collaborators must no be duplicated\") */\n  tag_11\n  jumpi\n  mload(0x40)\n  0x08c379a000000000000000000000000000000000000000000000000000000000\n  dup2\n  mstore\n  0x04\n  add\n  tag_12\n  swap1\n  tag_13\n  jump\t// in\ntag_12:\n  mload(0x40)\n  dup1\n  swap2\n  sub\n  swap1\n  revert\ntag_11:\n    /* \"contracts/MultisigWallet.sol\":2129:2130  0 */\n  0x00\n    /* \"contracts/MultisigWallet.sol\":2106:2126  at_least_sign_count_ */\n  dup2\n    /* \"contracts/MultisigWallet.sol\":2106:2130  at_least_sign_count_ > 0 */\n  0xff\n  and\n  gt\n    /* \"contracts/MultisigWallet.sol\":2106:2179  at_least_sign_count_ > 0 && at_least_sign_count_ <= collaborators_.length */\n  dup1\n  iszero\n  tag_14\n  jumpi\n  pop\n    /* \"contracts/MultisigWallet.sol\":2158:2172  collaborators_ */\n  dup2\n    /* \"contracts/MultisigWallet.sol\":2158:2179  collaborators_.length */\n  mload\n    /* \"contracts/MultisigWallet.sol\":2134:2154  at_least_sign_count_ */\n  dup2\n    /* \"contracts/MultisigWallet.sol\":2134:2179  at_least_sign_count_ <= collaborators_.length */\n  0xff\n  and\n  gt\n  iszero\n    /* \"contracts/MultisigWallet.sol\":2106:2179  at_least_sign_count_ > 0 && at_least_sign_count_ <= collaborators_.length */\ntag_14:\n    /* \"contracts/MultisigWallet.sol\":2098:2264  require(at_least_sign_count_ > 0 && at_least_sign_count_ <= collaborators_.length, \"at least sign count must more than 0 and less than or equals collaborators count\") */\n  tag_15\n  jumpi\n  mload(0x40)\n  0x08c379a000000000000000000000000000000000000000000000000000000000\n  dup2\n  mstore\n  0x04\n  add\n  tag_16\n  swap1\n  tag_17\n  jump\t// in\ntag_16:\n  mload(0x40)\n  dup1\n  swap2\n  sub\n  swap1\n  revert\ntag_15:\n    /* \"contracts/MultisigWallet.sol\":2284:2298  collaborators_ */\n  dup2\n    /* \"contracts/MultisigWallet.sol\":2268:2281  collaborators */\n  0x01\n    /* \"contracts/MultisigWallet.sol\":2268:2298  collaborators = collaborators_ */\n  swap1\n  dup1\n  mload\n  swap1\n  0x20\n  add\n  swap1\n  tag_18\n  swap3\n  swap2\n  swap1\n  tag_19\n  jump\t// in\ntag_18:\n  pop\n    /* \"contracts/MultisigWallet.sol\":2326:2346  at_least_sign_count_ */\n  dup1\n    /* \"contracts/MultisigWallet.sol\":2304:2323  at_least_sign_count */\n  0x02\n  0x00\n    /* \"contracts/MultisigWallet.sol\":2304:2346  at_least_sign_count = at_least_sign_count_ */\n  0x0100\n  exp\n  dup2\n  sload\n  dup2\n  0xff\n  mul\n  not\n  and\n  swap1\n  dup4\n  0xff\n  and\n  mul\n  or\n  swap1\n  sstore\n  pop\n    /* \"contracts/MultisigWallet.sol\":2469:2511  0xdD870fA1b7C4700F2BD7f44238821C26f7392148 */\n  0xdd870fa1b7c4700f2bd7f44238821c26f7392148\n    /* \"contracts/MultisigWallet.sol\":2442:2458  platform_account */\n  0x0b\n  0x00\n    /* \"contracts/MultisigWallet.sol\":2442:2512  platform_account = payable(0xdD870fA1b7C4700F2BD7f44238821C26f7392148) */\n  0x0100\n  exp\n  dup2\n  sload\n  dup2\n  0xffffffffffffffffffffffffffffffffffffffff\n  mul\n  not\n  and\n  swap1\n  dup4\n  0xffffffffffffffffffffffffffffffffffffffff\n  and\n  mul\n  or\n  swap1\n  sstore\n  pop\n    /* \"contracts/MultisigWallet.sol\":2542:2544  20 */\n  0x14\n    /* \"contracts/MultisigWallet.sol\":2522:2539  withdraw_fee_rate */\n  0x09\n    /* \"contracts/MultisigWallet.sol\":2522:2544  withdraw_fee_rate = 20 */\n  dup2\n  swap1\n  sstore\n  pop\n    /* \"contracts/MultisigWallet.sol\":2576:2577  5 */\n  0x05\n    /* \"contracts/MultisigWallet.sol\":2554:2573  withdraw_free_count */\n  0x0a\n    /* \"contracts/MultisigWallet.sol\":2554:2577  withdraw_free_count = 5 */\n  dup2\n  swap1\n  sstore\n  pop\n    /* \"contracts/MultisigWallet.sol\":1836:2581  constructor(address[] memory collaborators_, uint8 at_least_sign_count_) {... */\n  pop\n  pop\n    /* \"contracts/MultisigWallet.sol\":108:8402  contract MultisigWallet {... */\n  jump(tag_20)\n    /* \"contracts/MultisigWallet.sol\":2902:3272  function no_duplicated_collaborators() private view returns (bool) {... */\ntag_10:\n    /* \"contracts/MultisigWallet.sol\":2963:2967  bool */\n  0x00\n    /* \"contracts/MultisigWallet.sol\":2973:2988  bool duplicated */\n  dup1\n    /* \"contracts/MultisigWallet.sol\":2991:2996  false */\n  0x00\n    /* \"contracts/MultisigWallet.sol\":2973:2996  bool duplicated = false */\n  swap1\n  pop\n    /* \"contracts/MultisigWallet.sol\":3004:3010  uint i */\n  0x00\n    /* \"contracts/MultisigWallet.sol\":3000:3247  for(uint i=0; i<collaborators.length; i++) {... */\ntag_22:\n    /* \"contracts/MultisigWallet.sol\":3016:3029  collaborators */\n  0x01\n    /* \"contracts/MultisigWallet.sol\":3016:3036  collaborators.length */\n  dup1\n  sload\n  swap1\n  pop\n    /* \"contracts/MultisigWallet.sol\":3014:3015  i */\n  dup2\n    /* \"contracts/MultisigWallet.sol\":3014:3036  i<collaborators.length */\n  lt\n    /* \"contracts/MultisigWallet.sol\":3000:3247  for(uint i=0; i<collaborators.length; i++) {... */\n  iszero\n  tag_23\n  jumpi\n    /* \"contracts/MultisigWallet.sol\":3079:3080  1 */\n  0x01\n    /* \"contracts/MultisigWallet.sol\":3056:3069  collaborators */\n  dup1\n    /* \"contracts/MultisigWallet.sol\":3056:3076  collaborators.length */\n  dup1\n  sload\n  swap1\n  pop\n    /* \"contracts/MultisigWallet.sol\":3056:3080  collaborators.length - 1 */\n  tag_25\n  swap2\n  swap1\n  tag_26\n  jump\t// in\ntag_25:\n    /* \"contracts/MultisigWallet.sol\":3051:3052  i */\n  dup2\n    /* \"contracts/MultisigWallet.sol\":3051:3080  i == collaborators.length - 1 */\n  eq\n    /* \"contracts/MultisigWallet.sol\":3048:3099  if(i == collaborators.length - 1) {... */\n  iszero\n  tag_27\n  jumpi\n    /* \"contracts/MultisigWallet.sol\":3088:3093  break */\n  jump(tag_23)\n    /* \"contracts/MultisigWallet.sol\":3048:3099  if(i == collaborators.length - 1) {... */\ntag_27:\n    /* \"contracts/MultisigWallet.sol\":3107:3113  uint j */\n  0x00\n    /* \"contracts/MultisigWallet.sol\":3116:3117  1 */\n  0x01\n    /* \"contracts/MultisigWallet.sol\":3114:3115  i */\n  dup3\n    /* \"contracts/MultisigWallet.sol\":3114:3117  i+1 */\n  tag_31\n  swap2\n  swap1\n  tag_32\n  jump\t// in\ntag_31:\n    /* \"contracts/MultisigWallet.sol\":3107:3117  uint j=i+1 */\n  swap1\n  pop\n    /* \"contracts/MultisigWallet.sol\":3103:3243  for(uint j=i+1; j<collaborators.length; j++) {... */\ntag_28:\n    /* \"contracts/MultisigWallet.sol\":3121:3134  collaborators */\n  0x01\n    /* \"contracts/MultisigWallet.sol\":3121:3141  collaborators.length */\n  dup1\n  sload\n  swap1\n  pop\n    /* \"contracts/MultisigWallet.sol\":3119:3120  j */\n  dup2\n    /* \"contracts/MultisigWallet.sol\":3119:3141  j<collaborators.length */\n  lt\n    /* \"contracts/MultisigWallet.sol\":3103:3243  for(uint j=i+1; j<collaborators.length; j++) {... */\n  iszero\n  tag_29\n  jumpi\n    /* \"contracts/MultisigWallet.sol\":3177:3190  collaborators */\n  0x01\n    /* \"contracts/MultisigWallet.sol\":3191:3192  j */\n  dup2\n    /* \"contracts/MultisigWallet.sol\":3177:3193  collaborators[j] */\n  dup2\n  sload\n  dup2\n  lt\n  tag_33\n  jumpi\n  tag_34\n  tag_35\n  jump\t// in\ntag_34:\ntag_33:\n  swap1\n  0x00\n  mstore\n  keccak256(0x00, 0x20)\n  add\n  0x00\n  swap1\n  sload\n  swap1\n  0x0100\n  exp\n  swap1\n  div\n  0xffffffffffffffffffffffffffffffffffffffff\n  and\n    /* \"contracts/MultisigWallet.sol\":3157:3193  collaborators[i] == collaborators[j] */\n  0xffffffffffffffffffffffffffffffffffffffff\n  and\n    /* \"contracts/MultisigWallet.sol\":3157:3170  collaborators */\n  0x01\n    /* \"contracts/MultisigWallet.sol\":3171:3172  i */\n  dup4\n    /* \"contracts/MultisigWallet.sol\":3157:3173  collaborators[i] */\n  dup2\n  sload\n  dup2\n  lt\n  tag_37\n  jumpi\n  tag_38\n  tag_35\n  jump\t// in\ntag_38:\ntag_37:\n  swap1\n  0x00\n  mstore\n  keccak256(0x00, 0x20)\n  add\n  0x00\n  swap1\n  sload\n  swap1\n  0x0100\n  exp\n  swap1\n  div\n  0xffffffffffffffffffffffffffffffffffffffff\n  and\n    /* \"contracts/MultisigWallet.sol\":3157:3193  collaborators[i] == collaborators[j] */\n  0xffffffffffffffffffffffffffffffffffffffff\n  and\n  eq\n    /* \"contracts/MultisigWallet.sol\":3154:3238  if(collaborators[i] == collaborators[j]) {... */\n  iszero\n  tag_40\n  jumpi\n    /* \"contracts/MultisigWallet.sol\":3215:3219  true */\n  0x01\n    /* \"contracts/MultisigWallet.sol\":3202:3219  duplicated = true */\n  swap3\n  pop\n    /* \"contracts/MultisigWallet.sol\":3226:3231  break */\n  jump(tag_29)\n    /* \"contracts/MultisigWallet.sol\":3154:3238  if(collaborators[i] == collaborators[j]) {... */\ntag_40:\n    /* \"contracts/MultisigWallet.sol\":3143:3146  j++ */\n  dup1\n  dup1\n  tag_41\n  swap1\n  tag_42\n  jump\t// in\ntag_41:\n  swap2\n  pop\n  pop\n    /* \"contracts/MultisigWallet.sol\":3103:3243  for(uint j=i+1; j<collaborators.length; j++) {... */\n  jump(tag_28)\ntag_29:\n  pop\n    /* \"contracts/MultisigWallet.sol\":3038:3041  i++ */\n  dup1\n  dup1\n  tag_43\n  swap1\n  tag_42\n  jump\t// in\ntag_43:\n  swap2\n  pop\n  pop\n    /* \"contracts/MultisigWallet.sol\":3000:3247  for(uint i=0; i<collaborators.length; i++) {... */\n  jump(tag_22)\ntag_23:\n  pop\n    /* \"contracts/MultisigWallet.sol\":3258:3268  duplicated */\n  dup1\n    /* \"contracts/MultisigWallet.sol\":3257:3268  !duplicated */\n  iszero\n    /* \"contracts/MultisigWallet.sol\":3250:3268  return !duplicated */\n  swap2\n  pop\n  pop\n    /* \"contracts/MultisigWallet.sol\":2902:3272  function no_duplicated_collaborators() private view returns (bool) {... */\n  swap1\n  jump\t// out\n    /* \"contracts/MultisigWallet.sol\":108:8402  contract MultisigWallet {... */\ntag_19:\n  dup3\n  dup1\n  sload\n  dup3\n  dup3\n  sstore\n  swap1\n  0x00\n  mstore\n  keccak256(0x00, 0x20)\n  swap1\n  dup2\n  add\n  swap3\n  dup3\n  iszero\n  tag_44\n  jumpi\n  swap2\n  0x20\n  mul\n  dup3\n  add\ntag_45:\n  dup3\n  dup2\n  gt\n  iszero\n  tag_46\n  jumpi\n  dup3\n  mload\n  dup3\n  exp(0x0100, 0x00)\n  dup2\n  sload\n  dup2\n  0xffffffffffffffffffffffffffffffffffffffff\n  mul\n  not\n  and\n  swap1\n  dup4\n  0xffffffffffffffffffffffffffffffffffffffff\n  and\n  mul\n  or\n  swap1\n  sstore\n  pop\n  swap2\n  0x20\n  add\n  swap2\n  swap1\n  0x01\n  add\n  swap1\n  jump(tag_45)\ntag_46:\ntag_44:\n  pop\n  swap1\n  pop\n  tag_47\n  swap2\n  swap1\n  tag_48\n  jump\t// in\ntag_47:\n  pop\n  swap1\n  jump\t// out\ntag_48:\ntag_49:\n  dup1\n  dup3\n  gt\n  iszero\n  tag_50\n  jumpi\n  0x00\n  dup2\n  0x00\n  swap1\n  sstore\n  pop\n  0x01\n  add\n  jump(tag_49)\ntag_50:\n  pop\n  swap1\n  jump\t// out\n    /* \"#utility.yul\":24:768   */\ntag_52:\n    /* \"#utility.yul\":131:136   */\n  0x00\n    /* \"#utility.yul\":156:237   */\n  tag_54\n    /* \"#utility.yul\":172:236   */\n  tag_55\n    /* \"#utility.yul\":229:235   */\n  dup5\n    /* \"#utility.yul\":172:236   */\n  tag_56\n  jump\t// in\ntag_55:\n    /* \"#utility.yul\":156:237   */\n  tag_57\n  jump\t// in\ntag_54:\n    /* \"#utility.yul\":147:237   */\n  swap1\n  pop\n    /* \"#utility.yul\":257:262   */\n  dup1\n    /* \"#utility.yul\":286:292   */\n  dup4\n    /* \"#utility.yul\":279:284   */\n  dup3\n    /* \"#utility.yul\":272:293   */\n  mstore\n    /* \"#utility.yul\":320:324   */\n  0x20\n    /* \"#utility.yul\":313:318   */\n  dup3\n    /* \"#utility.yul\":309:325   */\n  add\n    /* \"#utility.yul\":302:325   */\n  swap1\n  pop\n    /* \"#utility.yul\":346:352   */\n  dup3\n    /* \"#utility.yul\":396:399   */\n  dup6\n    /* \"#utility.yul\":388:392   */\n  0x20\n    /* \"#utility.yul\":380:386   */\n  dup7\n    /* \"#utility.yul\":376:393   */\n  mul\n    /* \"#utility.yul\":371:374   */\n  dup3\n    /* \"#utility.yul\":367:394   */\n  add\n    /* \"#utility.yul\":364:400   */\n  gt\n    /* \"#utility.yul\":361:504   */\n  iszero\n  tag_58\n  jumpi\n    /* \"#utility.yul\":415:494   */\n  tag_59\n  tag_60\n  jump\t// in\ntag_59:\n    /* \"#utility.yul\":361:504   */\ntag_58:\n    /* \"#utility.yul\":528:529   */\n  0x00\n    /* \"#utility.yul\":513:762   */\ntag_61:\n    /* \"#utility.yul\":538:544   */\n  dup6\n    /* \"#utility.yul\":535:536   */\n  dup2\n    /* \"#utility.yul\":532:545   */\n  lt\n    /* \"#utility.yul\":513:762   */\n  iszero\n  tag_63\n  jumpi\n    /* \"#utility.yul\":606:609   */\n  dup2\n    /* \"#utility.yul\":635:683   */\n  tag_64\n    /* \"#utility.yul\":679:682   */\n  dup9\n    /* \"#utility.yul\":667:677   */\n  dup3\n    /* \"#utility.yul\":635:683   */\n  tag_65\n  jump\t// in\ntag_64:\n    /* \"#utility.yul\":630:633   */\n  dup5\n    /* \"#utility.yul\":623:684   */\n  mstore\n    /* \"#utility.yul\":713:717   */\n  0x20\n    /* \"#utility.yul\":708:711   */\n  dup5\n    /* \"#utility.yul\":704:718   */\n  add\n    /* \"#utility.yul\":697:718   */\n  swap4\n  pop\n    /* \"#utility.yul\":747:751   */\n  0x20\n    /* \"#utility.yul\":742:745   */\n  dup4\n    /* \"#utility.yul\":738:752   */\n  add\n    /* \"#utility.yul\":731:752   */\n  swap3\n  pop\n    /* \"#utility.yul\":573:762   */\n  pop\n    /* \"#utility.yul\":560:561   */\n  0x01\n    /* \"#utility.yul\":557:558   */\n  dup2\n    /* \"#utility.yul\":553:562   */\n  add\n    /* \"#utility.yul\":548:562   */\n  swap1\n  pop\n    /* \"#utility.yul\":513:762   */\n  jump(tag_61)\ntag_63:\n    /* \"#utility.yul\":517:531   */\n  pop\n    /* \"#utility.yul\":137:768   */\n  pop\n  pop\n    /* \"#utility.yul\":24:768   */\n  swap4\n  swap3\n  pop\n  pop\n  pop\n  jump\t// out\n    /* \"#utility.yul\":774:917   */\ntag_65:\n    /* \"#utility.yul\":831:836   */\n  0x00\n    /* \"#utility.yul\":862:868   */\n  dup2\n    /* \"#utility.yul\":856:869   */\n  mload\n    /* \"#utility.yul\":847:869   */\n  swap1\n  pop\n    /* \"#utility.yul\":878:911   */\n  tag_67\n    /* \"#utility.yul\":905:910   */\n  dup2\n    /* \"#utility.yul\":878:911   */\n  tag_68\n  jump\t// in\ntag_67:\n    /* \"#utility.yul\":774:917   */\n  swap3\n  swap2\n  pop\n  pop\n  jump\t// out\n    /* \"#utility.yul\":940:1325   */\ntag_69:\n    /* \"#utility.yul\":1022:1027   */\n  0x00\n    /* \"#utility.yul\":1071:1074   */\n  dup3\n    /* \"#utility.yul\":1064:1068   */\n  0x1f\n    /* \"#utility.yul\":1056:1062   */\n  dup4\n    /* \"#utility.yul\":1052:1069   */\n  add\n    /* \"#utility.yul\":1048:1075   */\n  slt\n    /* \"#utility.yul\":1038:1160   */\n  tag_71\n  jumpi\n    /* \"#utility.yul\":1079:1158   */\n  tag_72\n  tag_73\n  jump\t// in\ntag_72:\n    /* \"#utility.yul\":1038:1160   */\ntag_71:\n    /* \"#utility.yul\":1189:1195   */\n  dup2\n    /* \"#utility.yul\":1183:1196   */\n  mload\n    /* \"#utility.yul\":1214:1319   */\n  tag_74\n    /* \"#utility.yul\":1315:1318   */\n  dup5\n    /* \"#utility.yul\":1307:1313   */\n  dup3\n    /* \"#utility.yul\":1300:1304   */\n  0x20\n    /* \"#utility.yul\":1292:1298   */\n  dup7\n    /* \"#utility.yul\":1288:1305   */\n  add\n    /* \"#utility.yul\":1214:1319   */\n  tag_52\n  jump\t// in\ntag_74:\n    /* \"#utility.yul\":1205:1319   */\n  swap2\n  pop\n    /* \"#utility.yul\":1028:1325   */\n  pop\n    /* \"#utility.yul\":940:1325   */\n  swap3\n  swap2\n  pop\n  pop\n  jump\t// out\n    /* \"#utility.yul\":1331:1470   */\ntag_75:\n    /* \"#utility.yul\":1386:1391   */\n  0x00\n    /* \"#utility.yul\":1417:1423   */\n  dup2\n    /* \"#utility.yul\":1411:1424   */\n  mload\n    /* \"#utility.yul\":1402:1424   */\n  swap1\n  pop\n    /* \"#utility.yul\":1433:1464   */\n  tag_77\n    /* \"#utility.yul\":1458:1463   */\n  dup2\n    /* \"#utility.yul\":1433:1464   */\n  tag_78\n  jump\t// in\ntag_77:\n    /* \"#utility.yul\":1331:1470   */\n  swap3\n  swap2\n  pop\n  pop\n  jump\t// out\n    /* \"#utility.yul\":1476:2182   */\ntag_3:\n    /* \"#utility.yul\":1578:1584   */\n  0x00\n    /* \"#utility.yul\":1586:1592   */\n  dup1\n    /* \"#utility.yul\":1635:1637   */\n  0x40\n    /* \"#utility.yul\":1623:1632   */\n  dup4\n    /* \"#utility.yul\":1614:1621   */\n  dup6\n    /* \"#utility.yul\":1610:1633   */\n  sub\n    /* \"#utility.yul\":1606:1638   */\n  slt\n    /* \"#utility.yul\":1603:1722   */\n  iszero\n  tag_80\n  jumpi\n    /* \"#utility.yul\":1641:1720   */\n  tag_81\n  tag_82\n  jump\t// in\ntag_81:\n    /* \"#utility.yul\":1603:1722   */\ntag_80:\n    /* \"#utility.yul\":1782:1783   */\n  0x00\n    /* \"#utility.yul\":1771:1780   */\n  dup4\n    /* \"#utility.yul\":1767:1784   */\n  add\n    /* \"#utility.yul\":1761:1785   */\n  mload\n    /* \"#utility.yul\":1812:1830   */\n  0xffffffffffffffff\n    /* \"#utility.yul\":1804:1810   */\n  dup2\n    /* \"#utility.yul\":1801:1831   */\n  gt\n    /* \"#utility.yul\":1798:1915   */\n  iszero\n  tag_83\n  jumpi\n    /* \"#utility.yul\":1834:1913   */\n  tag_84\n  tag_85\n  jump\t// in\ntag_84:\n    /* \"#utility.yul\":1798:1915   */\ntag_83:\n    /* \"#utility.yul\":1939:2028   */\n  tag_86\n    /* \"#utility.yul\":2020:2027   */\n  dup6\n    /* \"#utility.yul\":2011:2017   */\n  dup3\n    /* \"#utility.yul\":2000:2009   */\n  dup7\n    /* \"#utility.yul\":1996:2018   */\n  add\n    /* \"#utility.yul\":1939:2028   */\n  tag_69\n  jump\t// in\ntag_86:\n    /* \"#utility.yul\":1929:2028   */\n  swap3\n  pop\n    /* \"#utility.yul\":1732:2038   */\n  pop\n    /* \"#utility.yul\":2077:2079   */\n  0x20\n    /* \"#utility.yul\":2103:2165   */\n  tag_87\n    /* \"#utility.yul\":2157:2164   */\n  dup6\n    /* \"#utility.yul\":2148:2154   */\n  dup3\n    /* \"#utility.yul\":2137:2146   */\n  dup7\n    /* \"#utility.yul\":2133:2155   */\n  add\n    /* \"#utility.yul\":2103:2165   */\n  tag_75\n  jump\t// in\ntag_87:\n    /* \"#utility.yul\":2093:2165   */\n  swap2\n  pop\n    /* \"#utility.yul\":2048:2175   */\n  pop\n    /* \"#utility.yul\":1476:2182   */\n  swap3\n  pop\n  swap3\n  swap1\n  pop\n  jump\t// out\n    /* \"#utility.yul\":2188:2554   */\ntag_88:\n    /* \"#utility.yul\":2330:2333   */\n  0x00\n    /* \"#utility.yul\":2351:2418   */\n  tag_90\n    /* \"#utility.yul\":2415:2417   */\n  0x24\n    /* \"#utility.yul\":2410:2413   */\n  dup4\n    /* \"#utility.yul\":2351:2418   */\n  tag_91\n  jump\t// in\ntag_90:\n    /* \"#utility.yul\":2344:2418   */\n  swap2\n  pop\n    /* \"#utility.yul\":2427:2520   */\n  tag_92\n    /* \"#utility.yul\":2516:2519   */\n  dup3\n    /* \"#utility.yul\":2427:2520   */\n  tag_93\n  jump\t// in\ntag_92:\n    /* \"#utility.yul\":2545:2547   */\n  0x40\n    /* \"#utility.yul\":2540:2543   */\n  dup3\n    /* \"#utility.yul\":2536:2548   */\n  add\n    /* \"#utility.yul\":2529:2548   */\n  swap1\n  pop\n    /* \"#utility.yul\":2188:2554   */\n  swap2\n  swap1\n  pop\n  jump\t// out\n    /* \"#utility.yul\":2560:2926   */\ntag_94:\n    /* \"#utility.yul\":2702:2705   */\n  0x00\n    /* \"#utility.yul\":2723:2790   */\n  tag_96\n    /* \"#utility.yul\":2787:2789   */\n  0x27\n    /* \"#utility.yul\":2782:2785   */\n  dup4\n    /* \"#utility.yul\":2723:2790   */\n  tag_91\n  jump\t// in\ntag_96:\n    /* \"#utility.yul\":2716:2790   */\n  swap2\n  pop\n    /* \"#utility.yul\":2799:2892   */\n  tag_97\n    /* \"#utility.yul\":2888:2891   */\n  dup3\n    /* \"#utility.yul\":2799:2892   */\n  tag_98\n  jump\t// in\ntag_97:\n    /* \"#utility.yul\":2917:2919   */\n  0x40\n    /* \"#utility.yul\":2912:2915   */\n  dup3\n    /* \"#utility.yul\":2908:2920   */\n  add\n    /* \"#utility.yul\":2901:2920   */\n  swap1\n  pop\n    /* \"#utility.yul\":2560:2926   */\n  swap2\n  swap1\n  pop\n  jump\t// out\n    /* \"#utility.yul\":2932:3298   */\ntag_99:\n    /* \"#utility.yul\":3074:3077   */\n  0x00\n    /* \"#utility.yul\":3095:3162   */\n  tag_101\n    /* \"#utility.yul\":3159:3161   */\n  0x50\n    /* \"#utility.yul\":3154:3157   */\n  dup4\n    /* \"#utility.yul\":3095:3162   */\n  tag_91\n  jump\t// in\ntag_101:\n    /* \"#utility.yul\":3088:3162   */\n  swap2\n  pop\n    /* \"#utility.yul\":3171:3264   */\n  tag_102\n    /* \"#utility.yul\":3260:3263   */\n  dup3\n    /* \"#utility.yul\":3171:3264   */\n  tag_103\n  jump\t// in\ntag_102:\n    /* \"#utility.yul\":3289:3291   */\n  0x60\n    /* \"#utility.yul\":3284:3287   */\n  dup3\n    /* \"#utility.yul\":3280:3292   */\n  add\n    /* \"#utility.yul\":3273:3292   */\n  swap1\n  pop\n    /* \"#utility.yul\":2932:3298   */\n  swap2\n  swap1\n  pop\n  jump\t// out\n    /* \"#utility.yul\":3304:3723   */\ntag_8:\n    /* \"#utility.yul\":3470:3474   */\n  0x00\n    /* \"#utility.yul\":3508:3510   */\n  0x20\n    /* \"#utility.yul\":3497:3506   */\n  dup3\n    /* \"#utility.yul\":3493:3511   */\n  add\n    /* \"#utility.yul\":3485:3511   */\n  swap1\n  pop\n    /* \"#utility.yul\":3557:3566   */\n  dup2\n    /* \"#utility.yul\":3551:3555   */\n  dup2\n    /* \"#utility.yul\":3547:3567   */\n  sub\n    /* \"#utility.yul\":3543:3544   */\n  0x00\n    /* \"#utility.yul\":3532:3541   */\n  dup4\n    /* \"#utility.yul\":3528:3545   */\n  add\n    /* \"#utility.yul\":3521:3568   */\n  mstore\n    /* \"#utility.yul\":3585:3716   */\n  tag_105\n    /* \"#utility.yul\":3711:3715   */\n  dup2\n    /* \"#utility.yul\":3585:3716   */\n  tag_88\n  jump\t// in\ntag_105:\n    /* \"#utility.yul\":3577:3716   */\n  swap1\n  pop\n    /* \"#utility.yul\":3304:3723   */\n  swap2\n  swap1\n  pop\n  jump\t// out\n    /* \"#utility.yul\":3729:4148   */\ntag_13:\n    /* \"#utility.yul\":3895:3899   */\n  0x00\n    /* \"#utility.yul\":3933:3935   */\n  0x20\n    /* \"#utility.yul\":3922:3931   */\n  dup3\n    /* \"#utility.yul\":3918:3936   */\n  add\n    /* \"#utility.yul\":3910:3936   */\n  swap1\n  pop\n    /* \"#utility.yul\":3982:3991   */\n  dup2\n    /* \"#utility.yul\":3976:3980   */\n  dup2\n    /* \"#utility.yul\":3972:3992   */\n  sub\n    /* \"#utility.yul\":3968:3969   */\n  0x00\n    /* \"#utility.yul\":3957:3966   */\n  dup4\n    /* \"#utility.yul\":3953:3970   */\n  add\n    /* \"#utility.yul\":3946:3993   */\n  mstore\n    /* \"#utility.yul\":4010:4141   */\n  tag_107\n    /* \"#utility.yul\":4136:4140   */\n  dup2\n    /* \"#utility.yul\":4010:4141   */\n  tag_94\n  jump\t// in\ntag_107:\n    /* \"#utility.yul\":4002:4141   */\n  swap1\n  pop\n    /* \"#utility.yul\":3729:4148   */\n  swap2\n  swap1\n  pop\n  jump\t// out\n    /* \"#utility.yul\":4154:4573   */\ntag_17:\n    /* \"#utility.yul\":4320:4324   */\n  0x00\n    /* \"#utility.yul\":4358:4360   */\n  0x20\n    /* \"#utility.yul\":4347:4356   */\n  dup3\n    /* \"#utility.yul\":4343:4361   */\n  add\n    /* \"#utility.yul\":4335:4361   */\n  swap1\n  pop\n    /* \"#utility.yul\":4407:4416   */\n  dup2\n    /* \"#utility.yul\":4401:4405   */\n  dup2\n    /* \"#utility.yul\":4397:4417   */\n  sub\n    /* \"#utility.yul\":4393:4394   */\n  0x00\n    /* \"#utility.yul\":4382:4391   */\n  dup4\n    /* \"#utility.yul\":4378:4395   */\n  add\n    /* \"#utility.yul\":4371:4418   */\n  mstore\n    /* \"#utility.yul\":4435:4566   */\n  tag_109\n    /* \"#utility.yul\":4561:4565   */\n  dup2\n    /* \"#utility.yul\":4435:4566   */\n  tag_99\n  jump\t// in\ntag_109:\n    /* \"#utility.yul\":4427:4566   */\n  swap1\n  pop\n    /* \"#utility.yul\":4154:4573   */\n  swap2\n  swap1\n  pop\n  jump\t// out\n    /* \"#utility.yul\":4579:4708   */\ntag_57:\n    /* \"#utility.yul\":4613:4619   */\n  0x00\n    /* \"#utility.yul\":4640:4660   */\n  tag_111\n  tag_112\n  jump\t// in\ntag_111:\n    /* \"#utility.yul\":4630:4660   */\n  swap1\n  pop\n    /* \"#utility.yul\":4669:4702   */\n  tag_113\n    /* \"#utility.yul\":4697:4701   */\n  dup3\n    /* \"#utility.yul\":4689:4695   */\n  dup3\n    /* \"#utility.yul\":4669:4702   */\n  tag_114\n  jump\t// in\ntag_113:\n    /* \"#utility.yul\":4579:4708   */\n  swap2\n  swap1\n  pop\n  jump\t// out\n    /* \"#utility.yul\":4714:4789   */\ntag_112:\n    /* \"#utility.yul\":4747:4753   */\n  0x00\n    /* \"#utility.yul\":4780:4782   */\n  0x40\n    /* \"#utility.yul\":4774:4783   */\n  mload\n    /* \"#utility.yul\":4764:4783   */\n  swap1\n  pop\n    /* \"#utility.yul\":4714:4789   */\n  swap1\n  jump\t// out\n    /* \"#utility.yul\":4795:5106   */\ntag_56:\n    /* \"#utility.yul\":4872:4876   */\n  0x00\n    /* \"#utility.yul\":4962:4980   */\n  0xffffffffffffffff\n    /* \"#utility.yul\":4954:4960   */\n  dup3\n    /* \"#utility.yul\":4951:4981   */\n  gt\n    /* \"#utility.yul\":4948:5004   */\n  iszero\n  tag_117\n  jumpi\n    /* \"#utility.yul\":4984:5002   */\n  tag_118\n  tag_119\n  jump\t// in\ntag_118:\n    /* \"#utility.yul\":4948:5004   */\ntag_117:\n    /* \"#utility.yul\":5034:5038   */\n  0x20\n    /* \"#utility.yul\":5026:5032   */\n  dup3\n    /* \"#utility.yul\":5022:5039   */\n  mul\n    /* \"#utility.yul\":5014:5039   */\n  swap1\n  pop\n    /* \"#utility.yul\":5094:5098   */\n  0x20\n    /* \"#utility.yul\":5088:5092   */\n  dup2\n    /* \"#utility.yul\":5084:5099   */\n  add\n    /* \"#utility.yul\":5076:5099   */\n  swap1\n  pop\n    /* \"#utility.yul\":4795:5106   */\n  swap2\n  swap1\n  pop\n  jump\t// out\n    /* \"#utility.yul\":5112:5281   */\ntag_91:\n    /* \"#utility.yul\":5196:5207   */\n  0x00\n    /* \"#utility.yul\":5230:5236   */\n  dup3\n    /* \"#utility.yul\":5225:5228   */\n  dup3\n    /* \"#utility.yul\":5218:5237   */\n  mstore\n    /* \"#utility.yul\":5270:5274   */\n  0x20\n    /* \"#utility.yul\":5265:5268   */\n  dup3\n    /* \"#utility.yul\":5261:5275   */\n  add\n    /* \"#utility.yul\":5246:5275   */\n  swap1\n  pop\n    /* \"#utility.yul\":5112:5281   */\n  swap3\n  swap2\n  pop\n  pop\n  jump\t// out\n    /* \"#utility.yul\":5287:5592   */\ntag_32:\n    /* \"#utility.yul\":5327:5330   */\n  0x00\n    /* \"#utility.yul\":5346:5366   */\n  tag_122\n    /* \"#utility.yul\":5364:5365   */\n  dup3\n    /* \"#utility.yul\":5346:5366   */\n  tag_123\n  jump\t// in\ntag_122:\n    /* \"#utility.yul\":5341:5366   */\n  swap2\n  pop\n    /* \"#utility.yul\":5380:5400   */\n  tag_124\n    /* \"#utility.yul\":5398:5399   */\n  dup4\n    /* \"#utility.yul\":5380:5400   */\n  tag_123\n  jump\t// in\ntag_124:\n    /* \"#utility.yul\":5375:5400   */\n  swap3\n  pop\n    /* \"#utility.yul\":5534:5535   */\n  dup3\n    /* \"#utility.yul\":5466:5532   */\n  0xffffffffffffffffffffffffffffffffffffffffffffffffffffffffffffffff\n    /* \"#utility.yul\":5462:5536   */\n  sub\n    /* \"#utility.yul\":5459:5460   */\n  dup3\n    /* \"#utility.yul\":5456:5537   */\n  gt\n    /* \"#utility.yul\":5453:5560   */\n  iszero\n  tag_125\n  jumpi\n    /* \"#utility.yul\":5540:5558   */\n  tag_126\n  tag_127\n  jump\t// in\ntag_126:\n    /* \"#utility.yul\":5453:5560   */\ntag_125:\n    /* \"#utility.yul\":5584:5585   */\n  dup3\n    /* \"#utility.yul\":5581:5582   */\n  dup3\n    /* \"#utility.yul\":5577:5586   */\n  add\n    /* \"#utility.yul\":5570:5586   */\n  swap1\n  pop\n    /* \"#utility.yul\":5287:5592   */\n  swap3\n  swap2\n  pop\n  pop\n  jump\t// out\n    /* \"#utility.yul\":5598:5789   */\ntag_26:\n    /* \"#utility.yul\":5638:5642   */\n  0x00\n    /* \"#utility.yul\":5658:5678   */\n  tag_129\n    /* \"#utility.yul\":5676:5677   */\n  dup3\n    /* \"#utility.yul\":5658:5678   */\n  tag_123\n  jump\t// in\ntag_129:\n    /* \"#utility.yul\":5653:5678   */\n  swap2\n  pop\n    /* \"#utility.yul\":5692:5712   */\n  tag_130\n    /* \"#utility.yul\":5710:5711   */\n  dup4\n    /* \"#utility.yul\":5692:5712   */\n  tag_123\n  jump\t// in\ntag_130:\n    /* \"#utility.yul\":5687:5712   */\n  swap3\n  pop\n    /* \"#utility.yul\":5731:5732   */\n  dup3\n    /* \"#utility.yul\":5728:5729   */\n  dup3\n    /* \"#utility.yul\":5725:5733   */\n  lt\n    /* \"#utility.yul\":5722:5756   */\n  iszero\n  tag_131\n  jumpi\n    /* \"#utility.yul\":5736:5754   */\n  tag_132\n  tag_127\n  jump\t// in\ntag_132:\n    /* \"#utility.yul\":5722:5756   */\ntag_131:\n    /* \"#utility.yul\":5781:5782   */\n  dup3\n    /* \"#utility.yul\":5778:5779   */\n  dup3\n    /* \"#utility.yul\":5774:5783   */\n  sub\n    /* \"#utility.yul\":5766:5783   */\n  swap1\n  pop\n    /* \"#utility.yul\":5598:5789   */\n  swap3\n  swap2\n  pop\n  pop\n  jump\t// out\n    /* \"#utility.yul\":5795:5891   */\ntag_133:\n    /* \"#utility.yul\":5832:5839   */\n  0x00\n    /* \"#utility.yul\":5861:5885   */\n  tag_135\n    /* \"#utility.yul\":5879:5884   */\n  dup3\n    /* \"#utility.yul\":5861:5885   */\n  tag_136\n  jump\t// in\ntag_135:\n    /* \"#utility.yul\":5850:5885   */\n  swap1\n  pop\n    /* \"#utility.yul\":5795:5891   */\n  swap2\n  swap1\n  pop\n  jump\t// out\n    /* \"#utility.yul\":5897:6023   */\ntag_136:\n    /* \"#utility.yul\":5934:5941   */\n  0x00\n    /* \"#utility.yul\":5974:6016   */\n  0xffffffffffffffffffffffffffffffffffffffff\n    /* \"#utility.yul\":5967:5972   */\n  dup3\n    /* \"#utility.yul\":5963:6017   */\n  and\n    /* \"#utility.yul\":5952:6017   */\n  swap1\n  pop\n    /* \"#utility.yul\":5897:6023   */\n  swap2\n  swap1\n  pop\n  jump\t// out\n    /* \"#utility.yul\":6029:6106   */\ntag_123:\n    /* \"#utility.yul\":6066:6073   */\n  0x00\n    /* \"#utility.yul\":6095:6100   */\n  dup2\n    /* \"#utility.yul\":6084:6100   */\n  swap1\n  pop\n    /* \"#utility.yul\":6029:6106   */\n  swap2\n  swap1\n  pop\n  jump\t// out\n    /* \"#utility.yul\":6112:6198   */\ntag_139:\n    /* \"#utility.yul\":6147:6154   */\n  0x00\n    /* \"#utility.yul\":6187:6191   */\n  0xff\n    /* \"#utility.yul\":6180:6185   */\n  dup3\n    /* \"#utility.yul\":6176:6192   */\n  and\n    /* \"#utility.yul\":6165:6192   */\n  swap1\n  pop\n    /* \"#utility.yul\":6112:6198   */\n  swap2\n  swap1\n  pop\n  jump\t// out\n    /* \"#utility.yul\":6204:6485   */\ntag_114:\n    /* \"#utility.yul\":6287:6314   */\n  tag_142\n    /* \"#utility.yul\":6309:6313   */\n  dup3\n    /* \"#utility.yul\":6287:6314   */\n  tag_143\n  jump\t// in\ntag_142:\n    /* \"#utility.yul\":6279:6285   */\n  dup2\n    /* \"#utility.yul\":6275:6315   */\n  add\n    /* \"#utility.yul\":6417:6423   */\n  dup2\n    /* \"#utility.yul\":6405:6415   */\n  dup2\n    /* \"#utility.yul\":6402:6424   */\n  lt\n    /* \"#utility.yul\":6381:6399   */\n  0xffffffffffffffff\n    /* \"#utility.yul\":6369:6379   */\n  dup3\n    /* \"#utility.yul\":6366:6400   */\n  gt\n    /* \"#utility.yul\":6363:6425   */\n  or\n    /* \"#utility.yul\":6360:6448   */\n  iszero\n  tag_144\n  jumpi\n    /* \"#utility.yul\":6428:6446   */\n  tag_145\n  tag_119\n  jump\t// in\ntag_145:\n    /* \"#utility.yul\":6360:6448   */\ntag_144:\n    /* \"#utility.yul\":6468:6478   */\n  dup1\n    /* \"#utility.yul\":6464:6466   */\n  0x40\n    /* \"#utility.yul\":6457:6479   */\n  mstore\n    /* \"#utility.yul\":6247:6485   */\n  pop\n    /* \"#utility.yul\":6204:6485   */\n  pop\n  pop\n  jump\t// out\n    /* \"#utility.yul\":6491:6724   */\ntag_42:\n    /* \"#utility.yul\":6530:6533   */\n  0x00\n    /* \"#utility.yul\":6553:6577   */\n  tag_147\n    /* \"#utility.yul\":6571:6576   */\n  dup3\n    /* \"#utility.yul\":6553:6577   */\n  tag_123\n  jump\t// in\ntag_147:\n    /* \"#utility.yul\":6544:6577   */\n  swap2\n  pop\n    /* \"#utility.yul\":6599:6665   */\n  0xffffffffffffffffffffffffffffffffffffffffffffffffffffffffffffffff\n    /* \"#utility.yul\":6592:6597   */\n  dup3\n    /* \"#utility.yul\":6589:6666   */\n  eq\n    /* \"#utility.yul\":6586:6689   */\n  iszero\n  tag_148\n  jumpi\n    /* \"#utility.yul\":6669:6687   */\n  tag_149\n  tag_127\n  jump\t// in\ntag_149:\n    /* \"#utility.yul\":6586:6689   */\ntag_148:\n    /* \"#utility.yul\":6716:6717   */\n  0x01\n    /* \"#utility.yul\":6709:6714   */\n  dup3\n    /* \"#utility.yul\":6705:6718   */\n  add\n    /* \"#utility.yul\":6698:6718   */\n  swap1\n  pop\n    /* \"#utility.yul\":6491:6724   */\n  swap2\n  swap1\n  pop\n  jump\t// out\n    /* \"#utility.yul\":6730:6910   */\ntag_127:\n    /* \"#utility.yul\":6778:6855   */\n  0x4e487b7100000000000000000000000000000000000000000000000000000000\n    /* \"#utility.yul\":6775:6776   */\n  0x00\n    /* \"#utility.yul\":6768:6856   */\n  mstore\n    /* \"#utility.yul\":6875:6879   */\n  0x11\n    /* \"#utility.yul\":6872:6873   */\n  0x04\n    /* \"#utility.yul\":6865:6880   */\n  mstore\n    /* \"#utility.yul\":6899:6903   */\n  0x24\n    /* \"#utility.yul\":6896:6897   */\n  0x00\n    /* \"#utility.yul\":6889:6904   */\n  revert\n    /* \"#utility.yul\":6916:7096   */\ntag_35:\n    /* \"#utility.yul\":6964:7041   */\n  0x4e487b7100000000000000000000000000000000000000000000000000000000\n    /* \"#utility.yul\":6961:6962   */\n  0x00\n    /* \"#utility.yul\":6954:7042   */\n  mstore\n    /* \"#utility.yul\":7061:7065   */\n  0x32\n    /* \"#utility.yul\":7058:7059   */\n  0x04\n    /* \"#utility.yul\":7051:7066   */\n  mstore\n    /* \"#utility.yul\":7085:7089   */\n  0x24\n    /* \"#utility.yul\":7082:7083   */\n  0x00\n    /* \"#utility.yul\":7075:7090   */\n  revert\n    /* \"#utility.yul\":7102:7282   */\ntag_119:\n    /* \"#utility.yul\":7150:7227   */\n  0x4e487b7100000000000000000000000000000000000000000000000000000000\n    /* \"#utility.yul\":7147:7148   */\n  0x00\n    /* \"#utility.yul\":7140:7228   */\n  mstore\n    /* \"#utility.yul\":7247:7251   */\n  0x41\n    /* \"#utility.yul\":7244:7245   */\n  0x04\n    /* \"#utility.yul\":7237:7252   */\n  mstore\n    /* \"#utility.yul\":7271:7275   */\n  0x24\n    /* \"#utility.yul\":7268:7269   */\n  0x00\n    /* \"#utility.yul\":7261:7276   */\n  revert\n    /* \"#utility.yul\":7288:7405   */\ntag_73:\n    /* \"#utility.yul\":7397:7398   */\n  0x00\n    /* \"#utility.yul\":7394:7395   */\n  dup1\n    /* \"#utility.yul\":7387:7399   */\n  revert\n    /* \"#utility.yul\":7411:7528   */\ntag_60:\n    /* \"#utility.yul\":7520:7521   */\n  0x00\n    /* \"#utility.yul\":7517:7518   */\n  dup1\n    /* \"#utility.yul\":7510:7522   */\n  revert\n    /* \"#utility.yul\":7534:7651   */\ntag_85:\n    /* \"#utility.yul\":7643:7644   */\n  0x00\n    /* \"#utility.yul\":7640:7641   */\n  dup1\n    /* \"#utility.yul\":7633:7645   */\n  revert\n    /* \"#utility.yul\":7657:7774   */\ntag_82:\n    /* \"#utility.yul\":7766:7767   */\n  0x00\n    /* \"#utility.yul\":7763:7764   */\n  dup1\n    /* \"#utility.yul\":7756:7768   */\n  revert\n    /* \"#utility.yul\":7780:7882   */\ntag_143:\n    /* \"#utility.yul\":7821:7827   */\n  0x00\n    /* \"#utility.yul\":7872:7874   */\n  0x1f\n    /* \"#utility.yul\":7868:7875   */\n  not\n    /* \"#utility.yul\":7863:7865   */\n  0x1f\n    /* \"#utility.yul\":7856:7861   */\n  dup4\n    /* \"#utility.yul\":7852:7866   */\n  add\n    /* \"#utility.yul\":7848:7876   */\n  and\n    /* \"#utility.yul\":7838:7876   */\n  swap1\n  pop\n    /* \"#utility.yul\":7780:7882   */\n  swap2\n  swap1\n  pop\n  jump\t// out\n    /* \"#utility.yul\":7888:8111   */\ntag_93:\n    /* \"#utility.yul\":8028:8062   */\n  0x616c6c20636f6c6c61626f7261746f727320636f756e74206174206c65617374\n    /* \"#utility.yul\":8024:8025   */\n  0x00\n    /* \"#utility.yul\":8016:8022   */\n  dup3\n    /* \"#utility.yul\":8012:8026   */\n  add\n    /* \"#utility.yul\":8005:8063   */\n  mstore\n    /* \"#utility.yul\":8097:8103   */\n  0x206f6e6500000000000000000000000000000000000000000000000000000000\n    /* \"#utility.yul\":8092:8094   */\n  0x20\n    /* \"#utility.yul\":8084:8090   */\n  dup3\n    /* \"#utility.yul\":8080:8095   */\n  add\n    /* \"#utility.yul\":8073:8104   */\n  mstore\n    /* \"#utility.yul\":7888:8111   */\n  pop\n  jump\t// out\n    /* \"#utility.yul\":8117:8343   */\ntag_98:\n    /* \"#utility.yul\":8257:8291   */\n  0x74686520636f6c6c61626f7261746f7273206d757374206e6f20626520647570\n    /* \"#utility.yul\":8253:8254   */\n  0x00\n    /* \"#utility.yul\":8245:8251   */\n  dup3\n    /* \"#utility.yul\":8241:8255   */\n  add\n    /* \"#utility.yul\":8234:8292   */\n  mstore\n    /* \"#utility.yul\":8326:8335   */\n  0x6c69636174656400000000000000000000000000000000000000000000000000\n    /* \"#utility.yul\":8321:8323   */\n  0x20\n    /* \"#utility.yul\":8313:8319   */\n  dup3\n    /* \"#utility.yul\":8309:8324   */\n  add\n    /* \"#utility.yul\":8302:8336   */\n  mstore\n    /* \"#utility.yul\":8117:8343   */\n  pop\n  jump\t// out\n    /* \"#utility.yul\":8349:8653   */\ntag_103:\n    /* \"#utility.yul\":8489:8523   */\n  0x6174206c65617374207369676e20636f756e74206d757374206d6f7265207468\n    /* \"#utility.yul\":8485:8486   */\n  0x00\n    /* \"#utility.yul\":8477:8483   */\n  dup3\n    /* \"#utility.yul\":8473:8487   */\n  add\n    /* \"#utility.yul\":8466:8524   */\n  mstore\n    /* \"#utility.yul\":8558:8592   */\n  0x616e203020616e64206c657373207468616e206f7220657175616c7320636f6c\n    /* \"#utility.yul\":8553:8555   */\n  0x20\n    /* \"#utility.yul\":8545:8551   */\n  dup3\n    /* \"#utility.yul\":8541:8556   */\n  add\n    /* \"#utility.yul\":8534:8593   */\n  mstore\n    /* \"#utility.yul\":8627:8645   */\n  0x6c61626f7261746f727320636f756e7400000000000000000000000000000000\n    /* \"#utility.yul\":8622:8624   */\n  0x40\n    /* \"#utility.yul\":8614:8620   */\n  dup3\n    /* \"#utility.yul\":8610:8625   */\n  add\n    /* \"#utility.yul\":8603:8646   */\n  mstore\n    /* \"#utility.yul\":8349:8653   */\n  pop\n  jump\t// out\n    /* \"#utility.yul\":8659:8781   */\ntag_68:\n    /* \"#utility.yul\":8732:8756   */\n  tag_162\n    /* \"#utility.yul\":8750:8755   */\n  dup2\n    /* \"#utility.yul\":8732:8756   */\n  tag_133\n  jump\t// in\ntag_162:\n    /* \"#utility.yul\":8725:8730   */\n  dup2\n    /* \"#utility.yul\":8722:8757   */\n  eq\n    /* \"#utility.yul\":8712:8775   */\n  tag_163\n  jumpi\n    /* \"#utility.yul\":8771:8772   */\n  0x00\n    /* \"#utility.yul\":8768:8769   */\n  dup1\n    /* \"#utility.yul\":8761:8773   */\n  revert\n    /* \"#utility.yul\":8712:8775   */\ntag_163:\n    /* \"#utility.yul\":8659:8781   */\n  pop\n  jump\t// out\n    /* \"#utility.yul\":8787:8905   */\ntag_78:\n    /* \"#utility.yul\":8858:8880   */\n  tag_165\n    /* \"#utility.yul\":8874:8879   */\n  dup2\n    /* \"#utility.yul\":8858:8880   */\n  tag_139\n  jump\t// in\ntag_165:\n    /* \"#utility.yul\":8851:8856   */\n  dup2\n    /* \"#utility.yul\":8848:8881   */\n  eq\n    /* \"#utility.yul\":8838:8899   */\n  tag_166\n  jumpi\n    /* \"#utility.yul\":8895:8896   */\n  0x00\n    /* \"#utility.yul\":8892:8893   */\n  dup1\n    /* \"#utility.yul\":8885:8897   */\n  revert\n    /* \"#utility.yul\":8838:8899   */\ntag_166:\n    /* \"#utility.yul\":8787:8905   */\n  pop\n  jump\t// out\n    /* \"contracts/MultisigWallet.sol\":108:8402  contract MultisigWallet {... */\ntag_20:\n  dataSize(sub_0)\n  dup1\n  dataOffset(sub_0)\n  0x00\n  codecopy\n  0x00\n  return\nstop\n\nsub_0: assembly {\n        /* \"contracts/MultisigWallet.sol\":108:8402  contract MultisigWallet {... */\n      mstore(0x40, 0x80)\n      jumpi(tag_1, lt(calldatasize, 0x04))\n      shr(0xe0, calldataload(0x00))\n      dup1\n      0x3a0a197b\n      gt\n      tag_12\n      jumpi\n      dup1\n      0x3a0a197b\n      eq\n      tag_7\n      jumpi\n      dup1\n      0xb517e0b4\n      eq\n      tag_8\n      jumpi\n      dup1\n      0xbc44e739\n      eq\n      tag_9\n      jumpi\n      dup1\n      0xca3ea43f\n      eq\n      tag_10\n      jumpi\n      dup1\n      0xcfa4a5f6\n      eq\n      tag_11\n      jumpi\n      jump(tag_2)\n    tag_12:\n      dup1\n      0x3bdf3e\n      eq\n      tag_3\n      jumpi\n      dup1\n      0x12065fe0\n      eq\n      tag_4\n      jumpi\n      dup1\n      0x1535430b\n      eq\n      tag_5\n      jumpi\n      dup1\n      0x352ce050\n      eq\n      tag_6\n      jumpi\n      jump(tag_2)\n    tag_1:\n      jumpi(tag_2, calldatasize)\n        /* \"contracts/MultisigWallet.sol\":3780:3781  0 */\n      0x00\n        /* \"contracts/MultisigWallet.sol\":3768:3777  msg.value */\n      callvalue\n        /* \"contracts/MultisigWallet.sol\":3768:3781  msg.value > 0 */\n      gt\n        /* \"contracts/MultisigWallet.sol\":3760:3874  require(msg.value > 0, \"store must more than 0 wei, indeed the gas fee do not decrease if you topin a low value.\") */\n      tag_15\n      jumpi\n      mload(0x40)\n      0x08c379a000000000000000000000000000000000000000000000000000000000\n      dup2\n      mstore\n      0x04\n      add\n      tag_16\n      swap1\n      tag_17\n      jump\t// in\n    tag_16:\n      mload(0x40)\n      dup1\n      swap2\n      sub\n      swap1\n      revert\n    tag_15:\n        /* \"contracts/MultisigWallet.sol\":3904:3913  msg.value */\n      callvalue\n        /* \"contracts/MultisigWallet.sol\":3891:3901  msg.sender */\n      caller\n        /* \"contracts/MultisigWallet.sol\":3883:3914  Deposit(msg.sender,  msg.value) */\n      0xffffffffffffffffffffffffffffffffffffffff\n      and\n      0xe1fffcc4923d04b559f4d29a8bfc6cda04eb5b0d3c460751c2402c5c5cc9109c\n      mload(0x40)\n      mload(0x40)\n      dup1\n      swap2\n      sub\n      swap1\n      log3\n        /* \"contracts/MultisigWallet.sol\":108:8402  contract MultisigWallet {... */\n      stop\n    tag_2:\n      0x00\n      dup1\n      revert\n        /* \"contracts/MultisigWallet.sol\":3921:4579  function process_withdraw(uint weis, address payable targetAddress) public onlyCollaborators {... */\n    tag_3:\n      callvalue\n      dup1\n      iszero\n      tag_18\n      jumpi\n      0x00\n      dup1\n      revert\n    tag_18:\n      pop\n      tag_19\n      0x04\n      dup1\n      calldatasize\n      sub\n      dup2\n      add\n      swap1\n      tag_20\n      swap2\n      swap1\n      tag_21\n      jump\t// in\n    tag_20:\n      tag_22\n      jump\t// in\n    tag_19:\n      stop\n        /* \"contracts/MultisigWallet.sol\":2584:2668  function getBalance() public view returns (uint){... */\n    tag_4:\n      callvalue\n      dup1\n      iszero\n      tag_23\n      jumpi\n      0x00\n      dup1\n      revert\n    tag_23:\n      pop\n      tag_24\n      tag_25\n      jump\t// in\n    tag_24:\n      mload(0x40)\n      tag_26\n      swap2\n      swap1\n      tag_27\n      jump\t// in\n    tag_26:\n      mload(0x40)\n      dup1\n      swap2\n      sub\n      swap1\n      return\n        /* \"contracts/MultisigWallet.sol\":4945:5696  function cancel_withdraw_by_counterparty() public onlyCollaborators {... */\n    tag_5:\n      callvalue\n      dup1\n      iszero\n      tag_28\n      jumpi\n      0x00\n      dup1\n      revert\n    tag_28:\n      pop\n      tag_29\n      tag_30\n      jump\t// in\n    tag_29:\n      stop\n        /* \"contracts/MultisigWallet.sol\":6520:6884  function collaboratorSign() public onlyCollaborators {... */\n    tag_6:\n      callvalue\n      dup1\n      iszero\n      tag_31\n      jumpi\n      0x00\n      dup1\n      revert\n    tag_31:\n      pop\n      tag_32\n      tag_33\n      jump\t// in\n    tag_32:\n      stop\n        /* \"contracts/MultisigWallet.sol\":1109:1138  uint public withdraw_fee_rate */\n    tag_7:\n      callvalue\n      dup1\n      iszero\n      tag_34\n      jumpi\n      0x00\n      dup1\n      revert\n    tag_34:\n      pop\n      tag_35\n      tag_36\n      jump\t// in\n    tag_35:\n      mload(0x40)\n      tag_37\n      swap2\n      swap1\n      tag_27\n      jump\t// in\n    tag_37:\n      mload(0x40)\n      dup1\n      swap2\n      sub\n      swap1\n      return\n        /* \"contracts/MultisigWallet.sol\":5738:5937  function cancel_withdraw() public onlyCollaborators {... */\n    tag_8:\n      callvalue\n      dup1\n      iszero\n      tag_38\n      jumpi\n      0x00\n      dup1\n      revert\n    tag_38:\n      pop\n      tag_39\n      tag_40\n      jump\t// in\n    tag_39:\n      stop\n        /* \"contracts/MultisigWallet.sol\":2674:2899  function changePlatformAccount(address newAccount) public {... */\n    tag_9:\n      callvalue\n      dup1\n      iszero\n      tag_41\n      jumpi\n      0x00\n      dup1\n      revert\n    tag_41:\n      pop\n      tag_42\n      0x04\n      dup1\n      calldatasize\n      sub\n      dup2\n      add\n      swap1\n      tag_43\n      swap2\n      swap1\n      tag_44\n      jump\t// in\n    tag_43:\n      tag_45\n      jump\t// in\n    tag_42:\n      stop\n        /* \"contracts/MultisigWallet.sol\":1031:1057  uint public withdraw_count */\n    tag_10:\n      callvalue\n      dup1\n      iszero\n      tag_46\n      jumpi\n      0x00\n      dup1\n      revert\n    tag_46:\n      pop\n      tag_47\n      tag_48\n      jump\t// in\n    tag_47:\n      mload(0x40)\n      tag_49\n      swap2\n      swap1\n      tag_27\n      jump\t// in\n    tag_49:\n      mload(0x40)\n      dup1\n      swap2\n      sub\n      swap1\n      return\n        /* \"contracts/MultisigWallet.sol\":1166:1197  uint public withdraw_free_count */\n    tag_11:\n      callvalue\n      dup1\n      iszero\n      tag_50\n      jumpi\n      0x00\n      dup1\n      revert\n    tag_50:\n      pop\n      tag_51\n      tag_52\n      jump\t// in\n    tag_51:\n      mload(0x40)\n      tag_53\n      swap2\n      swap1\n      tag_27\n      jump\t// in\n    tag_53:\n      mload(0x40)\n      dup1\n      swap2\n      sub\n      swap1\n      return\n        /* \"contracts/MultisigWallet.sol\":3921:4579  function process_withdraw(uint weis, address payable targetAddress) public onlyCollaborators {... */\n    tag_22:\n        /* \"contracts/MultisigWallet.sol\":3597:3621  is_oneof_collaborators() */\n      tag_55\n        /* \"contracts/MultisigWallet.sol\":3597:3619  is_oneof_collaborators */\n      tag_56\n        /* \"contracts/MultisigWallet.sol\":3597:3621  is_oneof_collaborators() */\n      jump\t// in\n    tag_55:\n        /* \"contracts/MultisigWallet.sol\":3589:3664  require(is_oneof_collaborators(), \"only collaborators have the permission\") */\n      tag_57\n      jumpi\n      mload(0x40)\n      0x08c379a000000000000000000000000000000000000000000000000000000000\n      dup2\n      mstore\n      0x04\n      add\n      tag_58\n      swap1\n      tag_59\n      jump\t// in\n    tag_58:\n      mload(0x40)\n      dup1\n      swap2\n      sub\n      swap1\n      revert\n    tag_57:\n        /* \"contracts/MultisigWallet.sol\":4050:4051  0 */\n      0x00\n        /* \"contracts/MultisigWallet.sol\":4026:4046  waitfor_withdraw_wei */\n      sload(0x03)\n        /* \"contracts/MultisigWallet.sol\":4026:4051  waitfor_withdraw_wei == 0 */\n      eq\n        /* \"contracts/MultisigWallet.sol\":4018:4085  require(waitfor_withdraw_wei == 0, \"pre process has not been over\") */\n      tag_61\n      jumpi\n      mload(0x40)\n      0x08c379a000000000000000000000000000000000000000000000000000000000\n      dup2\n      mstore\n      0x04\n      add\n      tag_62\n      swap1\n      tag_63\n      jump\t// in\n    tag_62:\n      mload(0x40)\n      dup1\n      swap2\n      sub\n      swap1\n      revert\n    tag_61:\n        /* \"contracts/MultisigWallet.sol\":4107:4119  getBalance() */\n      tag_64\n        /* \"contracts/MultisigWallet.sol\":4107:4117  getBalance */\n      tag_25\n        /* \"contracts/MultisigWallet.sol\":4107:4119  getBalance() */\n      jump\t// in\n    tag_64:\n        /* \"contracts/MultisigWallet.sol\":4099:4103  weis */\n      dup3\n        /* \"contracts/MultisigWallet.sol\":4099:4119  weis <= getBalance() */\n      gt\n      iszero\n        /* \"contracts/MultisigWallet.sol\":4091:4168  require(weis <= getBalance(), \"withdraw balance could not more than balance\") */\n      tag_65\n      jumpi\n      mload(0x40)\n      0x08c379a000000000000000000000000000000000000000000000000000000000\n      dup2\n      mstore\n      0x04\n      add\n      tag_66\n      swap1\n      tag_67\n      jump\t// in\n    tag_66:\n      mload(0x40)\n      dup1\n      swap2\n      sub\n      swap1\n      revert\n    tag_65:\n        /* \"contracts/MultisigWallet.sol\":4205:4208  0x0 */\n      0x00\n        /* \"contracts/MultisigWallet.sol\":4180:4209  targetAddress != address(0x0) */\n      0xffffffffffffffffffffffffffffffffffffffff\n      and\n        /* \"contracts/MultisigWallet.sol\":4180:4193  targetAddress */\n      dup2\n        /* \"contracts/MultisigWallet.sol\":4180:4209  targetAddress != address(0x0) */\n      0xffffffffffffffffffffffffffffffffffffffff\n      and\n      eq\n      iszero\n        /* \"contracts/MultisigWallet.sol\":4172:4235  require(targetAddress != address(0x0), \"invalid targetAddress\") */\n      tag_68\n      jumpi\n      mload(0x40)\n      0x08c379a000000000000000000000000000000000000000000000000000000000\n      dup2\n      mstore\n      0x04\n      add\n      tag_69\n      swap1\n      tag_70\n      jump\t// in\n    tag_69:\n      mload(0x40)\n      dup1\n      swap2\n      sub\n      swap1\n      revert\n    tag_68:\n        /* \"contracts/MultisigWallet.sol\":4251:4261  msg.sender */\n      caller\n        /* \"contracts/MultisigWallet.sol\":4239:4248  initiator */\n      0x05\n      0x00\n        /* \"contracts/MultisigWallet.sol\":4239:4261  initiator = msg.sender */\n      0x0100\n      exp\n      dup2\n      sload\n      dup2\n      0xffffffffffffffffffffffffffffffffffffffff\n      mul\n      not\n      and\n      swap1\n      dup4\n      0xffffffffffffffffffffffffffffffffffffffff\n      and\n      mul\n      or\n      swap1\n      sstore\n      pop\n        /* \"contracts/MultisigWallet.sol\":4288:4292  weis */\n      dup2\n        /* \"contracts/MultisigWallet.sol\":4265:4285  waitfor_withdraw_wei */\n      0x03\n        /* \"contracts/MultisigWallet.sol\":4265:4292  waitfor_withdraw_wei = weis */\n      dup2\n      swap1\n      sstore\n      pop\n        /* \"contracts/MultisigWallet.sol\":4323:4336  targetAddress */\n      dup1\n        /* \"contracts/MultisigWallet.sol\":4296:4320  waitfor_withdraw_address */\n      0x04\n      0x00\n        /* \"contracts/MultisigWallet.sol\":4296:4336  waitfor_withdraw_address = targetAddress */\n      0x0100\n      exp\n      dup2\n      sload\n      dup2\n      0xffffffffffffffffffffffffffffffffffffffff\n      mul\n      not\n      and\n      swap1\n      dup4\n      0xffffffffffffffffffffffffffffffffffffffff\n      and\n      mul\n      or\n      swap1\n      sstore\n      pop\n        /* \"contracts/MultisigWallet.sol\":4340:4354  current_signed */\n      0x06\n        /* \"contracts/MultisigWallet.sol\":4360:4370  msg.sender */\n      caller\n        /* \"contracts/MultisigWallet.sol\":4340:4371  current_signed.push(msg.sender) */\n      swap1\n      dup1\n      0x01\n      dup2\n      sload\n      add\n      dup1\n      dup3\n      sstore\n      dup1\n      swap2\n      pop\n      pop\n      0x01\n      swap1\n      sub\n      swap1\n      0x00\n      mstore\n      keccak256(0x00, 0x20)\n      add\n      0x00\n      swap1\n      swap2\n      swap1\n      swap2\n      swap1\n      swap2\n      0x0100\n      exp\n      dup2\n      sload\n      dup2\n      0xffffffffffffffffffffffffffffffffffffffff\n      mul\n      not\n      and\n      swap1\n      dup4\n      0xffffffffffffffffffffffffffffffffffffffff\n      and\n      mul\n      or\n      swap1\n      sstore\n      pop\n        /* \"contracts/MultisigWallet.sol\":4407:4411  weis */\n      dup2\n        /* \"contracts/MultisigWallet.sol\":4396:4405  initiator */\n      0x05\n      0x00\n      swap1\n      sload\n      swap1\n      0x0100\n      exp\n      swap1\n      div\n      0xffffffffffffffffffffffffffffffffffffffff\n      and\n        /* \"contracts/MultisigWallet.sol\":4380:4412  ProcessWithdraw(initiator, weis) */\n      0xffffffffffffffffffffffffffffffffffffffff\n      and\n      0x01b5cfde4f816bb2ea1f47ebb11ff737e423a4556e329e913743a9ad524e58e5\n      mload(0x40)\n      mload(0x40)\n      dup1\n      swap2\n      sub\n      swap1\n      log3\n        /* \"contracts/MultisigWallet.sol\":4532:4551  signedCountEnough() */\n      tag_72\n        /* \"contracts/MultisigWallet.sol\":4532:4549  signedCountEnough */\n      tag_73\n        /* \"contracts/MultisigWallet.sol\":4532:4551  signedCountEnough() */\n      jump\t// in\n    tag_72:\n        /* \"contracts/MultisigWallet.sol\":4529:4576  if(signedCountEnough()) {... */\n      iszero\n      tag_74\n      jumpi\n        /* \"contracts/MultisigWallet.sol\":4558:4571  do_withdraw() */\n      tag_75\n        /* \"contracts/MultisigWallet.sol\":4558:4569  do_withdraw */\n      tag_76\n        /* \"contracts/MultisigWallet.sol\":4558:4571  do_withdraw() */\n      jump\t// in\n    tag_75:\n        /* \"contracts/MultisigWallet.sol\":4529:4576  if(signedCountEnough()) {... */\n    tag_74:\n        /* \"contracts/MultisigWallet.sol\":3921:4579  function process_withdraw(uint weis, address payable targetAddress) public onlyCollaborators {... */\n      pop\n      pop\n      jump\t// out\n        /* \"contracts/MultisigWallet.sol\":2584:2668  function getBalance() public view returns (uint){... */\n    tag_25:\n        /* \"contracts/MultisigWallet.sol\":2627:2631  uint */\n      0x00\n        /* \"contracts/MultisigWallet.sol\":2643:2664  address(this).balance */\n      selfbalance\n        /* \"contracts/MultisigWallet.sol\":2636:2664  return address(this).balance */\n      swap1\n      pop\n        /* \"contracts/MultisigWallet.sol\":2584:2668  function getBalance() public view returns (uint){... */\n      swap1\n      jump\t// out\n        /* \"contracts/MultisigWallet.sol\":4945:5696  function cancel_withdraw_by_counterparty() public onlyCollaborators {... */\n    tag_30:\n        /* \"contracts/MultisigWallet.sol\":3597:3621  is_oneof_collaborators() */\n      tag_79\n        /* \"contracts/MultisigWallet.sol\":3597:3619  is_oneof_collaborators */\n      tag_56\n        /* \"contracts/MultisigWallet.sol\":3597:3621  is_oneof_collaborators() */\n      jump\t// in\n    tag_79:\n        /* \"contracts/MultisigWallet.sol\":3589:3664  require(is_oneof_collaborators(), \"only collaborators have the permission\") */\n      tag_80\n      jumpi\n      mload(0x40)\n      0x08c379a000000000000000000000000000000000000000000000000000000000\n      dup2\n      mstore\n      0x04\n      add\n      tag_81\n      swap1\n      tag_59\n      jump\t// in\n    tag_81:\n      mload(0x40)\n      dup1\n      swap2\n      sub\n      swap1\n      revert\n    tag_80:\n        /* \"contracts/MultisigWallet.sol\":5039:5048  initiator */\n      0x05\n      0x00\n      swap1\n      sload\n      swap1\n      0x0100\n      exp\n      swap1\n      div\n      0xffffffffffffffffffffffffffffffffffffffff\n      and\n        /* \"contracts/MultisigWallet.sol\":5025:5048  msg.sender != initiator */\n      0xffffffffffffffffffffffffffffffffffffffff\n      and\n        /* \"contracts/MultisigWallet.sol\":5025:5035  msg.sender */\n      caller\n        /* \"contracts/MultisigWallet.sol\":5025:5048  msg.sender != initiator */\n      0xffffffffffffffffffffffffffffffffffffffff\n      and\n      eq\n      iszero\n        /* \"contracts/MultisigWallet.sol\":5017:5111  require(msg.sender != initiator, \"only the counter party of initiator can call this function\") */\n      tag_83\n      jumpi\n      mload(0x40)\n      0x08c379a000000000000000000000000000000000000000000000000000000000\n      dup2\n      mstore\n      0x04\n      add\n      tag_84\n      swap1\n      tag_85\n      jump\t// in\n    tag_84:\n      mload(0x40)\n      dup1\n      swap2\n      sub\n      swap1\n      revert\n    tag_83:\n        /* \"contracts/MultisigWallet.sol\":5124:5188  address_array_in(current_cancel_counterparty_signed, msg.sender) */\n      tag_86\n        /* \"contracts/MultisigWallet.sol\":5141:5175  current_cancel_counterparty_signed */\n      0x07\n        /* \"contracts/MultisigWallet.sol\":5124:5188  address_array_in(current_cancel_counterparty_signed, msg.sender) */\n      dup1\n      sload\n      dup1\n      0x20\n      mul\n      0x20\n      add\n      mload(0x40)\n      swap1\n      dup2\n      add\n      0x40\n      mstore\n      dup1\n      swap3\n      swap2\n      swap1\n      dup2\n      dup2\n      mstore\n      0x20\n      add\n      dup3\n      dup1\n      sload\n      dup1\n      iszero\n      tag_87\n      jumpi\n      0x20\n      mul\n      dup3\n      add\n      swap2\n      swap1\n      0x00\n      mstore\n      keccak256(0x00, 0x20)\n      swap1\n    tag_88:\n      dup2\n      0x00\n      swap1\n      sload\n      swap1\n      0x0100\n      exp\n      swap1\n      div\n      0xffffffffffffffffffffffffffffffffffffffff\n      and\n      0xffffffffffffffffffffffffffffffffffffffff\n      and\n      dup2\n      mstore\n      0x20\n      add\n      swap1\n      0x01\n      add\n      swap1\n      dup1\n      dup4\n      gt\n      tag_88\n      jumpi\n    tag_87:\n      pop\n      pop\n      pop\n      pop\n      pop\n        /* \"contracts/MultisigWallet.sol\":5177:5187  msg.sender */\n      caller\n        /* \"contracts/MultisigWallet.sol\":5124:5140  address_array_in */\n      tag_89\n        /* \"contracts/MultisigWallet.sol\":5124:5188  address_array_in(current_cancel_counterparty_signed, msg.sender) */\n      jump\t// in\n    tag_86:\n        /* \"contracts/MultisigWallet.sol\":5123:5188  !address_array_in(current_cancel_counterparty_signed, msg.sender) */\n      iszero\n        /* \"contracts/MultisigWallet.sol\":5115:5239  require(!address_array_in(current_cancel_counterparty_signed, msg.sender), \"you have signed for cancellation, don't repeat\") */\n      tag_90\n      jumpi\n      mload(0x40)\n      0x08c379a000000000000000000000000000000000000000000000000000000000\n      dup2\n      mstore\n      0x04\n      add\n      tag_91\n      swap1\n      tag_92\n      jump\t// in\n    tag_91:\n      mload(0x40)\n      dup1\n      swap2\n      sub\n      swap1\n      revert\n    tag_90:\n        /* \"contracts/MultisigWallet.sol\":5274:5275  0 */\n      0x00\n        /* \"contracts/MultisigWallet.sol\":5251:5271  waitfor_withdraw_wei */\n      sload(0x03)\n        /* \"contracts/MultisigWallet.sol\":5251:5275  waitfor_withdraw_wei > 0 */\n      gt\n        /* \"contracts/MultisigWallet.sol\":5243:5327  require(waitfor_withdraw_wei > 0, \"there isn't any withdrwals wait for cancelation\") */\n      tag_93\n      jumpi\n      mload(0x40)\n      0x08c379a000000000000000000000000000000000000000000000000000000000\n      dup2\n      mstore\n      0x04\n      add\n      tag_94\n      swap1\n      tag_95\n      jump\t// in\n    tag_94:\n      mload(0x40)\n      dup1\n      swap2\n      sub\n      swap1\n      revert\n    tag_93:\n        /* \"contracts/MultisigWallet.sol\":5331:5365  current_cancel_counterparty_signed */\n      0x07\n        /* \"contracts/MultisigWallet.sol\":5371:5381  msg.sender */\n      caller\n        /* \"contracts/MultisigWallet.sol\":5331:5382  current_cancel_counterparty_signed.push(msg.sender) */\n      swap1\n      dup1\n      0x01\n      dup2\n      sload\n      add\n      dup1\n      dup3\n      sstore\n      dup1\n      swap2\n      pop\n      pop\n      0x01\n      swap1\n      sub\n      swap1\n      0x00\n      mstore\n      keccak256(0x00, 0x20)\n      add\n      0x00\n      swap1\n      swap2\n      swap1\n      swap2\n      swap1\n      swap2\n      0x0100\n      exp\n      dup2\n      sload\n      dup2\n      0xffffffffffffffffffffffffffffffffffffffff\n      mul\n      not\n      and\n      swap1\n      dup4\n      0xffffffffffffffffffffffffffffffffffffffff\n      and\n      mul\n      or\n      swap1\n      sstore\n      pop\n        /* \"contracts/MultisigWallet.sol\":5386:5402  uint signedCount */\n      0x00\n        /* \"contracts/MultisigWallet.sol\":5414:5420  uint i */\n      dup1\n        /* \"contracts/MultisigWallet.sol\":5410:5563  for(uint i=0; i<current_cancel_counterparty_signed.length; i++) {... */\n    tag_97:\n        /* \"contracts/MultisigWallet.sol\":5426:5460  current_cancel_counterparty_signed */\n      0x07\n        /* \"contracts/MultisigWallet.sol\":5426:5467  current_cancel_counterparty_signed.length */\n      dup1\n      sload\n      swap1\n      pop\n        /* \"contracts/MultisigWallet.sol\":5424:5425  i */\n      dup2\n        /* \"contracts/MultisigWallet.sol\":5424:5467  i<current_cancel_counterparty_signed.length */\n      lt\n        /* \"contracts/MultisigWallet.sol\":5410:5563  for(uint i=0; i<current_cancel_counterparty_signed.length; i++) {... */\n      iszero\n      tag_98\n      jumpi\n        /* \"contracts/MultisigWallet.sol\":5531:5532  0 */\n      0x00\n        /* \"contracts/MultisigWallet.sol\":5482:5533  current_cancel_counterparty_signed[i] != address(0) */\n      0xffffffffffffffffffffffffffffffffffffffff\n      and\n        /* \"contracts/MultisigWallet.sol\":5482:5516  current_cancel_counterparty_signed */\n      0x07\n        /* \"contracts/MultisigWallet.sol\":5517:5518  i */\n      dup3\n        /* \"contracts/MultisigWallet.sol\":5482:5519  current_cancel_counterparty_signed[i] */\n      dup2\n      sload\n      dup2\n      lt\n      tag_100\n      jumpi\n      tag_101\n      tag_102\n      jump\t// in\n    tag_101:\n    tag_100:\n      swap1\n      0x00\n      mstore\n      keccak256(0x00, 0x20)\n      add\n      0x00\n      swap1\n      sload\n      swap1\n      0x0100\n      exp\n      swap1\n      div\n      0xffffffffffffffffffffffffffffffffffffffff\n      and\n        /* \"contracts/MultisigWallet.sol\":5482:5533  current_cancel_counterparty_signed[i] != address(0) */\n      0xffffffffffffffffffffffffffffffffffffffff\n      and\n      eq\n        /* \"contracts/MultisigWallet.sol\":5479:5559  if(current_cancel_counterparty_signed[i] != address(0)){... */\n      tag_104\n      jumpi\n        /* \"contracts/MultisigWallet.sol\":5540:5553  signedCount++ */\n      dup2\n      dup1\n      tag_105\n      swap1\n      tag_106\n      jump\t// in\n    tag_105:\n      swap3\n      pop\n      pop\n        /* \"contracts/MultisigWallet.sol\":5479:5559  if(current_cancel_counterparty_signed[i] != address(0)){... */\n    tag_104:\n        /* \"contracts/MultisigWallet.sol\":5469:5472  i++ */\n      dup1\n      dup1\n      tag_107\n      swap1\n      tag_106\n      jump\t// in\n    tag_107:\n      swap2\n      pop\n      pop\n        /* \"contracts/MultisigWallet.sol\":5410:5563  for(uint i=0; i<current_cancel_counterparty_signed.length; i++) {... */\n      jump(tag_97)\n    tag_98:\n      pop\n        /* \"contracts/MultisigWallet.sol\":5603:5613  msg.sender */\n      caller\n        /* \"contracts/MultisigWallet.sol\":5572:5614  CancellingByCounterPartiesSign(msg.sender) */\n      0xffffffffffffffffffffffffffffffffffffffff\n      and\n      0x33fe377a7c23516384ae9a0a342f124fa3956a85f8438b4d483eb17400228f37\n      mload(0x40)\n      mload(0x40)\n      dup1\n      swap2\n      sub\n      swap1\n      log2\n        /* \"contracts/MultisigWallet.sol\":5660:5661  1 */\n      0x01\n        /* \"contracts/MultisigWallet.sol\":5637:5650  collaborators */\n      dup1\n        /* \"contracts/MultisigWallet.sol\":5637:5657  collaborators.length */\n      dup1\n      sload\n      swap1\n      pop\n        /* \"contracts/MultisigWallet.sol\":5637:5661  collaborators.length - 1 */\n      tag_108\n      swap2\n      swap1\n      tag_109\n      jump\t// in\n    tag_108:\n        /* \"contracts/MultisigWallet.sol\":5622:5633  signedCount */\n      dup2\n        /* \"contracts/MultisigWallet.sol\":5622:5661  signedCount == collaborators.length - 1 */\n      eq\n        /* \"contracts/MultisigWallet.sol\":5619:5693  if(signedCount == collaborators.length - 1) {... */\n      iszero\n      tag_110\n      jumpi\n        /* \"contracts/MultisigWallet.sol\":5668:5688  do_cancel_withdraw() */\n      tag_111\n        /* \"contracts/MultisigWallet.sol\":5668:5686  do_cancel_withdraw */\n      tag_112\n        /* \"contracts/MultisigWallet.sol\":5668:5688  do_cancel_withdraw() */\n      jump\t// in\n    tag_111:\n        /* \"contracts/MultisigWallet.sol\":5619:5693  if(signedCount == collaborators.length - 1) {... */\n    tag_110:\n        /* \"contracts/MultisigWallet.sol\":5013:5696  {... */\n      pop\n        /* \"contracts/MultisigWallet.sol\":4945:5696  function cancel_withdraw_by_counterparty() public onlyCollaborators {... */\n      jump\t// out\n        /* \"contracts/MultisigWallet.sol\":6520:6884  function collaboratorSign() public onlyCollaborators {... */\n    tag_33:\n        /* \"contracts/MultisigWallet.sol\":3597:3621  is_oneof_collaborators() */\n      tag_114\n        /* \"contracts/MultisigWallet.sol\":3597:3619  is_oneof_collaborators */\n      tag_56\n        /* \"contracts/MultisigWallet.sol\":3597:3621  is_oneof_collaborators() */\n      jump\t// in\n    tag_114:\n        /* \"contracts/MultisigWallet.sol\":3589:3664  require(is_oneof_collaborators(), \"only collaborators have the permission\") */\n      tag_115\n      jumpi\n      mload(0x40)\n      0x08c379a000000000000000000000000000000000000000000000000000000000\n      dup2\n      mstore\n      0x04\n      add\n      tag_116\n      swap1\n      tag_59\n      jump\t// in\n    tag_116:\n      mload(0x40)\n      dup1\n      swap2\n      sub\n      swap1\n      revert\n    tag_115:\n        /* \"contracts/MultisigWallet.sol\":6608:6609  0 */\n      0x00\n        /* \"contracts/MultisigWallet.sol\":6585:6605  waitfor_withdraw_wei */\n      sload(0x03)\n        /* \"contracts/MultisigWallet.sol\":6585:6609  waitfor_withdraw_wei > 0 */\n      gt\n        /* \"contracts/MultisigWallet.sol\":6577:6658  require(waitfor_withdraw_wei > 0, \"there is no withdraw action waiting for sign\") */\n      tag_118\n      jumpi\n      mload(0x40)\n      0x08c379a000000000000000000000000000000000000000000000000000000000\n      dup2\n      mstore\n      0x04\n      add\n      tag_119\n      swap1\n      tag_120\n      jump\t// in\n    tag_119:\n      mload(0x40)\n      dup1\n      swap2\n      sub\n      swap1\n      revert\n    tag_118:\n        /* \"contracts/MultisigWallet.sol\":6677:6693  already_signed() */\n      tag_121\n        /* \"contracts/MultisigWallet.sol\":6677:6691  already_signed */\n      tag_122\n        /* \"contracts/MultisigWallet.sol\":6677:6693  already_signed() */\n      jump\t// in\n    tag_121:\n        /* \"contracts/MultisigWallet.sol\":6676:6693  !already_signed() */\n      iszero\n        /* \"contracts/MultisigWallet.sol\":6668:6754  require(!already_signed(), \"you have signed this withdraw process, plz don't repeat.\") */\n      tag_123\n      jumpi\n      mload(0x40)\n      0x08c379a000000000000000000000000000000000000000000000000000000000\n      dup2\n      mstore\n      0x04\n      add\n      tag_124\n      swap1\n      tag_125\n      jump\t// in\n    tag_124:\n      mload(0x40)\n      dup1\n      swap2\n      sub\n      swap1\n      revert\n    tag_123:\n        /* \"contracts/MultisigWallet.sol\":6758:6772  current_signed */\n      0x06\n        /* \"contracts/MultisigWallet.sol\":6778:6788  msg.sender */\n      caller\n        /* \"contracts/MultisigWallet.sol\":6758:6789  current_signed.push(msg.sender) */\n      swap1\n      dup1\n      0x01\n      dup2\n      sload\n      add\n      dup1\n      dup3\n      sstore\n      dup1\n      swap2\n      pop\n      pop\n      0x01\n      swap1\n      sub\n      swap1\n      0x00\n      mstore\n      keccak256(0x00, 0x20)\n      add\n      0x00\n      swap1\n      swap2\n      swap1\n      swap2\n      swap1\n      swap2\n      0x0100\n      exp\n      dup2\n      sload\n      dup2\n      0xffffffffffffffffffffffffffffffffffffffff\n      mul\n      not\n      and\n      swap1\n      dup4\n      0xffffffffffffffffffffffffffffffffffffffff\n      and\n      mul\n      or\n      swap1\n      sstore\n      pop\n        /* \"contracts/MultisigWallet.sol\":6837:6856  signedCountEnough() */\n      tag_127\n        /* \"contracts/MultisigWallet.sol\":6837:6854  signedCountEnough */\n      tag_73\n        /* \"contracts/MultisigWallet.sol\":6837:6856  signedCountEnough() */\n      jump\t// in\n    tag_127:\n        /* \"contracts/MultisigWallet.sol\":6834:6881  if(signedCountEnough()) {... */\n      iszero\n      tag_128\n      jumpi\n        /* \"contracts/MultisigWallet.sol\":6863:6876  do_withdraw() */\n      tag_129\n        /* \"contracts/MultisigWallet.sol\":6863:6874  do_withdraw */\n      tag_76\n        /* \"contracts/MultisigWallet.sol\":6863:6876  do_withdraw() */\n      jump\t// in\n    tag_129:\n        /* \"contracts/MultisigWallet.sol\":6834:6881  if(signedCountEnough()) {... */\n    tag_128:\n        /* \"contracts/MultisigWallet.sol\":6520:6884  function collaboratorSign() public onlyCollaborators {... */\n      jump\t// out\n        /* \"contracts/MultisigWallet.sol\":1109:1138  uint public withdraw_fee_rate */\n    tag_36:\n      sload(0x09)\n      dup2\n      jump\t// out\n        /* \"contracts/MultisigWallet.sol\":5738:5937  function cancel_withdraw() public onlyCollaborators {... */\n    tag_40:\n        /* \"contracts/MultisigWallet.sol\":3597:3621  is_oneof_collaborators() */\n      tag_131\n        /* \"contracts/MultisigWallet.sol\":3597:3619  is_oneof_collaborators */\n      tag_56\n        /* \"contracts/MultisigWallet.sol\":3597:3621  is_oneof_collaborators() */\n      jump\t// in\n    tag_131:\n        /* \"contracts/MultisigWallet.sol\":3589:3664  require(is_oneof_collaborators(), \"only collaborators have the permission\") */\n      tag_132\n      jumpi\n      mload(0x40)\n      0x08c379a000000000000000000000000000000000000000000000000000000000\n      dup2\n      mstore\n      0x04\n      add\n      tag_133\n      swap1\n      tag_59\n      jump\t// in\n    tag_133:\n      mload(0x40)\n      dup1\n      swap2\n      sub\n      swap1\n      revert\n    tag_132:\n        /* \"contracts/MultisigWallet.sol\":5816:5825  initiator */\n      0x05\n      0x00\n      swap1\n      sload\n      swap1\n      0x0100\n      exp\n      swap1\n      div\n      0xffffffffffffffffffffffffffffffffffffffff\n      and\n        /* \"contracts/MultisigWallet.sol\":5802:5825  msg.sender == initiator */\n      0xffffffffffffffffffffffffffffffffffffffff\n      and\n        /* \"contracts/MultisigWallet.sol\":5802:5812  msg.sender */\n      caller\n        /* \"contracts/MultisigWallet.sol\":5802:5825  msg.sender == initiator */\n      0xffffffffffffffffffffffffffffffffffffffff\n      and\n      eq\n        /* \"contracts/MultisigWallet.sol\":5794:5872  require(msg.sender == initiator, \"only the initiator can cancel this process\") */\n      tag_135\n      jumpi\n      mload(0x40)\n      0x08c379a000000000000000000000000000000000000000000000000000000000\n      dup2\n      mstore\n      0x04\n      add\n      tag_136\n      swap1\n      tag_137\n      jump\t// in\n    tag_136:\n      mload(0x40)\n      dup1\n      swap2\n      sub\n      swap1\n      revert\n    tag_135:\n        /* \"contracts/MultisigWallet.sol\":5899:5908  initiator */\n      0x05\n      0x00\n      swap1\n      sload\n      swap1\n      0x0100\n      exp\n      swap1\n      div\n      0xffffffffffffffffffffffffffffffffffffffff\n      and\n        /* \"contracts/MultisigWallet.sol\":5881:5909  CancelByInitiator(initiator) */\n      0xffffffffffffffffffffffffffffffffffffffff\n      and\n      0xa67a2fa60466795987a45316ab86ab19936ce45fa62c95b699807909ec148289\n      mload(0x40)\n      mload(0x40)\n      dup1\n      swap2\n      sub\n      swap1\n      log2\n        /* \"contracts/MultisigWallet.sol\":5913:5933  do_cancel_withdraw() */\n      tag_138\n        /* \"contracts/MultisigWallet.sol\":5913:5931  do_cancel_withdraw */\n      tag_112\n        /* \"contracts/MultisigWallet.sol\":5913:5933  do_cancel_withdraw() */\n      jump\t// in\n    tag_138:\n        /* \"contracts/MultisigWallet.sol\":5738:5937  function cancel_withdraw() public onlyCollaborators {... */\n      jump\t// out\n        /* \"contracts/MultisigWallet.sol\":2674:2899  function changePlatformAccount(address newAccount) public {... */\n    tag_45:\n        /* \"contracts/MultisigWallet.sol\":2764:2780  platform_account */\n      0x0b\n      0x00\n      swap1\n      sload\n      swap1\n      0x0100\n      exp\n      swap1\n      div\n      0xffffffffffffffffffffffffffffffffffffffff\n      and\n        /* \"contracts/MultisigWallet.sol\":2750:2780  msg.sender == platform_account */\n      0xffffffffffffffffffffffffffffffffffffffff\n      and\n        /* \"contracts/MultisigWallet.sol\":2750:2760  msg.sender */\n      caller\n        /* \"contracts/MultisigWallet.sol\":2750:2780  msg.sender == platform_account */\n      0xffffffffffffffffffffffffffffffffffffffff\n      and\n      eq\n        /* \"contracts/MultisigWallet.sol\":2742:2844  require(msg.sender == platform_account, \"only platform account itself can change it to other account\") */\n      tag_140\n      jumpi\n      mload(0x40)\n      0x08c379a000000000000000000000000000000000000000000000000000000000\n      dup2\n      mstore\n      0x04\n      add\n      tag_141\n      swap1\n      tag_142\n      jump\t// in\n    tag_141:\n      mload(0x40)\n      dup1\n      swap2\n      sub\n      swap1\n      revert\n    tag_140:\n        /* \"contracts/MultisigWallet.sol\":2881:2891  newAccount */\n      dup1\n        /* \"contracts/MultisigWallet.sol\":2854:2870  platform_account */\n      0x0b\n      0x00\n        /* \"contracts/MultisigWallet.sol\":2854:2892  platform_account = payable(newAccount) */\n      0x0100\n      exp\n      dup2\n      sload\n      dup2\n      0xffffffffffffffffffffffffffffffffffffffff\n      mul\n      not\n      and\n      swap1\n      dup4\n      0xffffffffffffffffffffffffffffffffffffffff\n      and\n      mul\n      or\n      swap1\n      sstore\n      pop\n        /* \"contracts/MultisigWallet.sol\":2674:2899  function changePlatformAccount(address newAccount) public {... */\n      pop\n      jump\t// out\n        /* \"contracts/MultisigWallet.sol\":1031:1057  uint public withdraw_count */\n    tag_48:\n      sload(0x08)\n      dup2\n      jump\t// out\n        /* \"contracts/MultisigWallet.sol\":1166:1197  uint public withdraw_free_count */\n    tag_52:\n      sload(0x0a)\n      dup2\n      jump\t// out\n        /* \"contracts/MultisigWallet.sol\":3275:3395  function is_oneof_collaborators() private view returns (bool) {... */\n    tag_56:\n        /* \"contracts/MultisigWallet.sol\":3331:3335  bool */\n      0x00\n        /* \"contracts/MultisigWallet.sol\":3348:3391  address_array_in(collaborators, msg.sender) */\n      tag_144\n        /* \"contracts/MultisigWallet.sol\":3365:3378  collaborators */\n      0x01\n        /* \"contracts/MultisigWallet.sol\":3348:3391  address_array_in(collaborators, msg.sender) */\n      dup1\n      sload\n      dup1\n      0x20\n      mul\n      0x20\n      add\n      mload(0x40)\n      swap1\n      dup2\n      add\n      0x40\n      mstore\n      dup1\n      swap3\n      swap2\n      swap1\n      dup2\n      dup2\n      mstore\n      0x20\n      add\n      dup3\n      dup1\n      sload\n      dup1\n      iszero\n      tag_145\n      jumpi\n      0x20\n      mul\n      dup3\n      add\n      swap2\n      swap1\n      0x00\n      mstore\n      keccak256(0x00, 0x20)\n      swap1\n    tag_146:\n      dup2\n      0x00\n      swap1\n      sload\n      swap1\n      0x0100\n      exp\n      swap1\n      div\n      0xffffffffffffffffffffffffffffffffffffffff\n      and\n      0xffffffffffffffffffffffffffffffffffffffff\n      and\n      dup2\n      mstore\n      0x20\n      add\n      swap1\n      0x01\n      add\n      swap1\n      dup1\n      dup4\n      gt\n      tag_146\n      jumpi\n    tag_145:\n      pop\n      pop\n      pop\n      pop\n      pop\n        /* \"contracts/MultisigWallet.sol\":3380:3390  msg.sender */\n      caller\n        /* \"contracts/MultisigWallet.sol\":3348:3364  address_array_in */\n      tag_89\n        /* \"contracts/MultisigWallet.sol\":3348:3391  address_array_in(collaborators, msg.sender) */\n      jump\t// in\n    tag_144:\n        /* \"contracts/MultisigWallet.sol\":3341:3391  return address_array_in(collaborators, msg.sender) */\n      swap1\n      pop\n        /* \"contracts/MultisigWallet.sol\":3275:3395  function is_oneof_collaborators() private view returns (bool) {... */\n      swap1\n      jump\t// out\n        /* \"contracts/MultisigWallet.sol\":8046:8399  function signedCountEnough() private view returns (bool) {... */\n    tag_73:\n        /* \"contracts/MultisigWallet.sol\":8097:8101  bool */\n      0x00\n        /* \"contracts/MultisigWallet.sol\":8107:8130  address[] memory signed */\n      dup1\n        /* \"contracts/MultisigWallet.sol\":8133:8147  current_signed */\n      0x06\n        /* \"contracts/MultisigWallet.sol\":8107:8147  address[] memory signed = current_signed */\n      dup1\n      sload\n      dup1\n      0x20\n      mul\n      0x20\n      add\n      mload(0x40)\n      swap1\n      dup2\n      add\n      0x40\n      mstore\n      dup1\n      swap3\n      swap2\n      swap1\n      dup2\n      dup2\n      mstore\n      0x20\n      add\n      dup3\n      dup1\n      sload\n      dup1\n      iszero\n      tag_148\n      jumpi\n      0x20\n      mul\n      dup3\n      add\n      swap2\n      swap1\n      0x00\n      mstore\n      keccak256(0x00, 0x20)\n      swap1\n    tag_149:\n      dup2\n      0x00\n      swap1\n      sload\n      swap1\n      0x0100\n      exp\n      swap1\n      div\n      0xffffffffffffffffffffffffffffffffffffffff\n      and\n      0xffffffffffffffffffffffffffffffffffffffff\n      and\n      dup2\n      mstore\n      0x20\n      add\n      swap1\n      0x01\n      add\n      swap1\n      dup1\n      dup4\n      gt\n      tag_149\n      jumpi\n    tag_148:\n      pop\n      pop\n      pop\n      pop\n      pop\n      swap1\n      pop\n        /* \"contracts/MultisigWallet.sol\":8151:8173  uint8 signedMatchCount */\n      0x00\n        /* \"contracts/MultisigWallet.sol\":8185:8191  uint i */\n      dup1\n        /* \"contracts/MultisigWallet.sol\":8181:8346  for(uint i=0; i<signed.length; i++) {... */\n    tag_150:\n        /* \"contracts/MultisigWallet.sol\":8197:8203  signed */\n      dup3\n        /* \"contracts/MultisigWallet.sol\":8197:8210  signed.length */\n      mload\n        /* \"contracts/MultisigWallet.sol\":8195:8196  i */\n      dup2\n        /* \"contracts/MultisigWallet.sol\":8195:8210  i<signed.length */\n      lt\n        /* \"contracts/MultisigWallet.sol\":8181:8346  for(uint i=0; i<signed.length; i++) {... */\n      iszero\n      tag_151\n      jumpi\n        /* \"contracts/MultisigWallet.sol\":8226:8232  uint j */\n      0x00\n        /* \"contracts/MultisigWallet.sol\":8222:8342  for(uint j=0; j<collaborators.length; j++) {... */\n    tag_153:\n        /* \"contracts/MultisigWallet.sol\":8238:8251  collaborators */\n      0x01\n        /* \"contracts/MultisigWallet.sol\":8238:8258  collaborators.length */\n      dup1\n      sload\n      swap1\n      pop\n        /* \"contracts/MultisigWallet.sol\":8236:8237  j */\n      dup2\n        /* \"contracts/MultisigWallet.sol\":8236:8258  j<collaborators.length */\n      lt\n        /* \"contracts/MultisigWallet.sol\":8222:8342  for(uint j=0; j<collaborators.length; j++) {... */\n      iszero\n      tag_154\n      jumpi\n        /* \"contracts/MultisigWallet.sol\":8294:8300  signed */\n      dup4\n        /* \"contracts/MultisigWallet.sol\":8301:8302  i */\n      dup3\n        /* \"contracts/MultisigWallet.sol\":8294:8303  signed[i] */\n      dup2\n      mload\n      dup2\n      lt\n      tag_156\n      jumpi\n      tag_157\n      tag_102\n      jump\t// in\n    tag_157:\n    tag_156:\n      0x20\n      mul\n      0x20\n      add\n      add\n      mload\n        /* \"contracts/MultisigWallet.sol\":8274:8303  collaborators[j] == signed[i] */\n      0xffffffffffffffffffffffffffffffffffffffff\n      and\n        /* \"contracts/MultisigWallet.sol\":8274:8287  collaborators */\n      0x01\n        /* \"contracts/MultisigWallet.sol\":8288:8289  j */\n      dup3\n        /* \"contracts/MultisigWallet.sol\":8274:8290  collaborators[j] */\n      dup2\n      sload\n      dup2\n      lt\n      tag_158\n      jumpi\n      tag_159\n      tag_102\n      jump\t// in\n    tag_159:\n    tag_158:\n      swap1\n      0x00\n      mstore\n      keccak256(0x00, 0x20)\n      add\n      0x00\n      swap1\n      sload\n      swap1\n      0x0100\n      exp\n      swap1\n      div\n      0xffffffffffffffffffffffffffffffffffffffff\n      and\n        /* \"contracts/MultisigWallet.sol\":8274:8303  collaborators[j] == signed[i] */\n      0xffffffffffffffffffffffffffffffffffffffff\n      and\n      eq\n        /* \"contracts/MultisigWallet.sol\":8271:8337  if(collaborators[j] == signed[i]) {... */\n      iszero\n      tag_161\n      jumpi\n        /* \"contracts/MultisigWallet.sol\":8312:8330  signedMatchCount++ */\n      dup3\n      dup1\n      tag_162\n      swap1\n      tag_163\n      jump\t// in\n    tag_162:\n      swap4\n      pop\n      pop\n        /* \"contracts/MultisigWallet.sol\":8271:8337  if(collaborators[j] == signed[i]) {... */\n    tag_161:\n        /* \"contracts/MultisigWallet.sol\":8260:8263  j++ */\n      dup1\n      dup1\n      tag_164\n      swap1\n      tag_106\n      jump\t// in\n    tag_164:\n      swap2\n      pop\n      pop\n        /* \"contracts/MultisigWallet.sol\":8222:8342  for(uint j=0; j<collaborators.length; j++) {... */\n      jump(tag_153)\n    tag_154:\n      pop\n        /* \"contracts/MultisigWallet.sol\":8212:8215  i++ */\n      dup1\n      dup1\n      tag_165\n      swap1\n      tag_106\n      jump\t// in\n    tag_165:\n      swap2\n      pop\n      pop\n        /* \"contracts/MultisigWallet.sol\":8181:8346  for(uint i=0; i<signed.length; i++) {... */\n      jump(tag_150)\n    tag_151:\n      pop\n        /* \"contracts/MultisigWallet.sol\":8376:8395  at_least_sign_count */\n      0x02\n      0x00\n      swap1\n      sload\n      swap1\n      0x0100\n      exp\n      swap1\n      div\n      0xff\n      and\n        /* \"contracts/MultisigWallet.sol\":8356:8395  signedMatchCount >= at_least_sign_count */\n      0xff\n      and\n        /* \"contracts/MultisigWallet.sol\":8356:8372  signedMatchCount */\n      dup2\n        /* \"contracts/MultisigWallet.sol\":8356:8395  signedMatchCount >= at_least_sign_count */\n      0xff\n      and\n      lt\n      iszero\n        /* \"contracts/MultisigWallet.sol\":8349:8395  return signedMatchCount >= at_least_sign_count */\n      swap3\n      pop\n      pop\n      pop\n        /* \"contracts/MultisigWallet.sol\":8046:8399  function signedCountEnough() private view returns (bool) {... */\n      swap1\n      jump\t// out\n        /* \"contracts/MultisigWallet.sol\":6890:7377  function do_withdraw() private {... */\n    tag_76:\n        /* \"contracts/MultisigWallet.sol\":6931:6940  uint weis */\n      0x00\n        /* \"contracts/MultisigWallet.sol\":6943:6963  waitfor_withdraw_wei */\n      sload(0x03)\n        /* \"contracts/MultisigWallet.sol\":6931:6963  uint weis = waitfor_withdraw_wei */\n      swap1\n      pop\n        /* \"contracts/MultisigWallet.sol\":6996:6997  0 */\n      0x00\n        /* \"contracts/MultisigWallet.sol\":6973:6993  waitfor_withdraw_wei */\n      0x03\n        /* \"contracts/MultisigWallet.sol\":6973:6997  waitfor_withdraw_wei = 0 */\n      dup2\n      swap1\n      sstore\n      pop\n        /* \"contracts/MultisigWallet.sol\":7007:7031  waitfor_withdraw_address */\n      0x04\n      0x00\n      swap1\n      sload\n      swap1\n      0x0100\n      exp\n      swap1\n      div\n      0xffffffffffffffffffffffffffffffffffffffff\n      and\n        /* \"contracts/MultisigWallet.sol\":7007:7040  waitfor_withdraw_address.transfer */\n      0xffffffffffffffffffffffffffffffffffffffff\n      and\n        /* \"contracts/MultisigWallet.sol\":7007:7046  waitfor_withdraw_address.transfer(weis) */\n      0x08fc\n        /* \"contracts/MultisigWallet.sol\":7041:7045  weis */\n      dup3\n        /* \"contracts/MultisigWallet.sol\":7007:7046  waitfor_withdraw_address.transfer(weis) */\n      swap1\n      dup2\n      iszero\n      mul\n      swap1\n      mload(0x40)\n      0x00\n      mload(0x40)\n      dup1\n      dup4\n      sub\n      dup2\n      dup6\n      dup9\n      dup9\n      call\n      swap4\n      pop\n      pop\n      pop\n      pop\n      iszero\n      dup1\n      iszero\n      tag_168\n      jumpi\n      returndatasize\n      0x00\n      dup1\n      returndatacopy\n      revert(0x00, returndatasize)\n    tag_168:\n      pop\n        /* \"contracts/MultisigWallet.sol\":7056:7070  withdraw_count */\n      0x08\n      0x00\n        /* \"contracts/MultisigWallet.sol\":7056:7072  withdraw_count++ */\n      dup2\n      sload\n      dup1\n      swap3\n      swap2\n      swap1\n      tag_169\n      swap1\n      tag_106\n      jump\t// in\n    tag_169:\n      swap2\n      swap1\n      pop\n      sstore\n      pop\n        /* \"contracts/MultisigWallet.sol\":7089:7113  waitfor_withdraw_address */\n      0x04\n      0x00\n        /* \"contracts/MultisigWallet.sol\":7082:7113  delete waitfor_withdraw_address */\n      0x0100\n      exp\n      dup2\n      sload\n      swap1\n      0xffffffffffffffffffffffffffffffffffffffff\n      mul\n      not\n      and\n      swap1\n      sstore\n        /* \"contracts/MultisigWallet.sol\":7131:7145  current_signed */\n      0x06\n      0x00\n        /* \"contracts/MultisigWallet.sol\":7124:7145  delete current_signed */\n      tag_170\n      swap2\n      swap1\n      tag_171\n      jump\t// in\n    tag_170:\n        /* \"contracts/MultisigWallet.sol\":7162:7171  initiator */\n      0x05\n      0x00\n        /* \"contracts/MultisigWallet.sol\":7155:7171  delete initiator */\n      0x0100\n      exp\n      dup2\n      sload\n      swap1\n      0xffffffffffffffffffffffffffffffffffffffff\n      mul\n      not\n      and\n      swap1\n      sstore\n        /* \"contracts/MultisigWallet.sol\":7188:7222  current_cancel_counterparty_signed */\n      0x07\n      0x00\n        /* \"contracts/MultisigWallet.sol\":7181:7222  delete current_cancel_counterparty_signed */\n      tag_172\n      swap2\n      swap1\n      tag_171\n      jump\t// in\n    tag_172:\n        /* \"contracts/MultisigWallet.sol\":7266:7270  weis */\n      dup1\n        /* \"contracts/MultisigWallet.sol\":7240:7264  waitfor_withdraw_address */\n      0x04\n      0x00\n      swap1\n      sload\n      swap1\n      0x0100\n      exp\n      swap1\n      div\n      0xffffffffffffffffffffffffffffffffffffffff\n      and\n        /* \"contracts/MultisigWallet.sol\":7231:7271  Withdraw(waitfor_withdraw_address, weis) */\n      0xffffffffffffffffffffffffffffffffffffffff\n      and\n      0x884edad9ce6fa2440d8a54cc123490eb96d2768479d49ff9c7366125a9424364\n      mload(0x40)\n      mload(0x40)\n      dup1\n      swap2\n      sub\n      swap1\n      log3\n        /* \"contracts/MultisigWallet.sol\":7301:7320  withdraw_free_count */\n      sload(0x0a)\n        /* \"contracts/MultisigWallet.sol\":7284:7298  withdraw_count */\n      sload(0x08)\n        /* \"contracts/MultisigWallet.sol\":7284:7320  withdraw_count > withdraw_free_count */\n      gt\n        /* \"contracts/MultisigWallet.sol\":7281:7371  if(withdraw_count > withdraw_free_count) {... */\n      iszero\n      tag_173\n      jumpi\n        /* \"contracts/MultisigWallet.sol\":7336:7360  do_pay_service_fee(weis) */\n      tag_174\n        /* \"contracts/MultisigWallet.sol\":7355:7359  weis */\n      dup2\n        /* \"contracts/MultisigWallet.sol\":7336:7354  do_pay_service_fee */\n      tag_175\n        /* \"contracts/MultisigWallet.sol\":7336:7360  do_pay_service_fee(weis) */\n      jump\t// in\n    tag_174:\n        /* \"contracts/MultisigWallet.sol\":7281:7371  if(withdraw_count > withdraw_free_count) {... */\n    tag_173:\n        /* \"contracts/MultisigWallet.sol\":6921:7377  {... */\n      pop\n        /* \"contracts/MultisigWallet.sol\":6890:7377  function do_withdraw() private {... */\n      jump\t// out\n        /* \"contracts/MultisigWallet.sol\":7668:7915  function address_array_in(address[] memory array, address member) private pure returns (bool) {... */\n    tag_89:\n        /* \"contracts/MultisigWallet.sol\":7756:7760  bool */\n      0x00\n        /* \"contracts/MultisigWallet.sol\":7766:7778  bool inArray */\n      dup1\n        /* \"contracts/MultisigWallet.sol\":7781:7786  false */\n      0x00\n        /* \"contracts/MultisigWallet.sol\":7766:7786  bool inArray = false */\n      swap1\n      pop\n        /* \"contracts/MultisigWallet.sol\":7794:7800  uint i */\n      0x00\n        /* \"contracts/MultisigWallet.sol\":7790:7894  for(uint i=0; i<array.length; i++) {... */\n    tag_177:\n        /* \"contracts/MultisigWallet.sol\":7806:7811  array */\n      dup5\n        /* \"contracts/MultisigWallet.sol\":7806:7818  array.length */\n      mload\n        /* \"contracts/MultisigWallet.sol\":7804:7805  i */\n      dup2\n        /* \"contracts/MultisigWallet.sol\":7804:7818  i<array.length */\n      lt\n        /* \"contracts/MultisigWallet.sol\":7790:7894  for(uint i=0; i<array.length; i++) {... */\n      iszero\n      tag_178\n      jumpi\n        /* \"contracts/MultisigWallet.sol\":7845:7851  member */\n      dup4\n        /* \"contracts/MultisigWallet.sol\":7833:7851  array[i] == member */\n      0xffffffffffffffffffffffffffffffffffffffff\n      and\n        /* \"contracts/MultisigWallet.sol\":7833:7838  array */\n      dup6\n        /* \"contracts/MultisigWallet.sol\":7839:7840  i */\n      dup3\n        /* \"contracts/MultisigWallet.sol\":7833:7841  array[i] */\n      dup2\n      mload\n      dup2\n      lt\n      tag_180\n      jumpi\n      tag_181\n      tag_102\n      jump\t// in\n    tag_181:\n    tag_180:\n      0x20\n      mul\n      0x20\n      add\n      add\n      mload\n        /* \"contracts/MultisigWallet.sol\":7833:7851  array[i] == member */\n      0xffffffffffffffffffffffffffffffffffffffff\n      and\n      eq\n        /* \"contracts/MultisigWallet.sol\":7830:7890  if(array[i] == member) {... */\n      iszero\n      tag_182\n      jumpi\n        /* \"contracts/MultisigWallet.sol\":7869:7873  true */\n      0x01\n        /* \"contracts/MultisigWallet.sol\":7859:7873  inArray = true */\n      swap2\n      pop\n        /* \"contracts/MultisigWallet.sol\":7879:7884  break */\n      jump(tag_178)\n        /* \"contracts/MultisigWallet.sol\":7830:7890  if(array[i] == member) {... */\n    tag_182:\n        /* \"contracts/MultisigWallet.sol\":7820:7823  i++ */\n      dup1\n      dup1\n      tag_183\n      swap1\n      tag_106\n      jump\t// in\n    tag_183:\n      swap2\n      pop\n      pop\n        /* \"contracts/MultisigWallet.sol\":7790:7894  for(uint i=0; i<array.length; i++) {... */\n      jump(tag_177)\n    tag_178:\n      pop\n        /* \"contracts/MultisigWallet.sol\":7904:7911  inArray */\n      dup1\n        /* \"contracts/MultisigWallet.sol\":7897:7911  return inArray */\n      swap2\n      pop\n      pop\n        /* \"contracts/MultisigWallet.sol\":7668:7915  function address_array_in(address[] memory array, address member) private pure returns (bool) {... */\n      swap3\n      swap2\n      pop\n      pop\n      jump\t// out\n        /* \"contracts/MultisigWallet.sol\":5983:6312  function do_cancel_withdraw() private {... */\n    tag_112:\n        /* \"contracts/MultisigWallet.sol\":6025:6036  uint amount */\n      0x00\n        /* \"contracts/MultisigWallet.sol\":6039:6059  waitfor_withdraw_wei */\n      sload(0x03)\n        /* \"contracts/MultisigWallet.sol\":6025:6059  uint amount = waitfor_withdraw_wei */\n      swap1\n      pop\n        /* \"contracts/MultisigWallet.sol\":6063:6085  address target_address */\n      0x00\n        /* \"contracts/MultisigWallet.sol\":6088:6112  waitfor_withdraw_address */\n      0x04\n      0x00\n      swap1\n      sload\n      swap1\n      0x0100\n      exp\n      swap1\n      div\n      0xffffffffffffffffffffffffffffffffffffffff\n      and\n        /* \"contracts/MultisigWallet.sol\":6063:6112  address target_address = waitfor_withdraw_address */\n      swap1\n      pop\n        /* \"contracts/MultisigWallet.sol\":6139:6140  0 */\n      0x00\n        /* \"contracts/MultisigWallet.sol\":6116:6136  waitfor_withdraw_wei */\n      0x03\n        /* \"contracts/MultisigWallet.sol\":6116:6140  waitfor_withdraw_wei = 0 */\n      dup2\n      swap1\n      sstore\n      pop\n        /* \"contracts/MultisigWallet.sol\":6151:6160  initiator */\n      0x05\n      0x00\n        /* \"contracts/MultisigWallet.sol\":6144:6160  delete initiator */\n      0x0100\n      exp\n      dup2\n      sload\n      swap1\n      0xffffffffffffffffffffffffffffffffffffffff\n      mul\n      not\n      and\n      swap1\n      sstore\n        /* \"contracts/MultisigWallet.sol\":6171:6195  waitfor_withdraw_address */\n      0x04\n      0x00\n        /* \"contracts/MultisigWallet.sol\":6164:6195  delete waitfor_withdraw_address */\n      0x0100\n      exp\n      dup2\n      sload\n      swap1\n      0xffffffffffffffffffffffffffffffffffffffff\n      mul\n      not\n      and\n      swap1\n      sstore\n        /* \"contracts/MultisigWallet.sol\":6207:6221  current_signed */\n      0x06\n      0x00\n        /* \"contracts/MultisigWallet.sol\":6200:6221  delete current_signed */\n      tag_185\n      swap2\n      swap1\n      tag_171\n      jump\t// in\n    tag_185:\n        /* \"contracts/MultisigWallet.sol\":6232:6266  current_cancel_counterparty_signed */\n      0x07\n      0x00\n        /* \"contracts/MultisigWallet.sol\":6225:6266  delete current_cancel_counterparty_signed */\n      tag_186\n      swap2\n      swap1\n      tag_171\n      jump\t// in\n    tag_186:\n        /* \"contracts/MultisigWallet.sol\":6285:6299  target_address */\n      dup1\n        /* \"contracts/MultisigWallet.sol\":6275:6308  Cancelled(target_address, amount) */\n      0xffffffffffffffffffffffffffffffffffffffff\n      and\n      0x36ea5cd5608625e789af0282eecdb4eae1cb7c1cf6d0ec3f9a84f35be850260b\n        /* \"contracts/MultisigWallet.sol\":6301:6307  amount */\n      dup4\n        /* \"contracts/MultisigWallet.sol\":6275:6308  Cancelled(target_address, amount) */\n      mload(0x40)\n      tag_187\n      swap2\n      swap1\n      tag_27\n      jump\t// in\n    tag_187:\n      mload(0x40)\n      dup1\n      swap2\n      sub\n      swap1\n      log2\n        /* \"contracts/MultisigWallet.sol\":6021:6312  {... */\n      pop\n      pop\n        /* \"contracts/MultisigWallet.sol\":5983:6312  function do_cancel_withdraw() private {... */\n      jump\t// out\n        /* \"contracts/MultisigWallet.sol\":7921:8043  function already_signed() private view returns (bool) {... */\n    tag_122:\n        /* \"contracts/MultisigWallet.sol\":7969:7973  bool */\n      0x00\n        /* \"contracts/MultisigWallet.sol\":7992:8036  address_array_in(current_signed, msg.sender) */\n      tag_189\n        /* \"contracts/MultisigWallet.sol\":8009:8023  current_signed */\n      0x06\n        /* \"contracts/MultisigWallet.sol\":7992:8036  address_array_in(current_signed, msg.sender) */\n      dup1\n      sload\n      dup1\n      0x20\n      mul\n      0x20\n      add\n      mload(0x40)\n      swap1\n      dup2\n      add\n      0x40\n      mstore\n      dup1\n      swap3\n      swap2\n      swap1\n      dup2\n      dup2\n      mstore\n      0x20\n      add\n      dup3\n      dup1\n      sload\n      dup1\n      iszero\n      tag_190\n      jumpi\n      0x20\n      mul\n      dup3\n      add\n      swap2\n      swap1\n      0x00\n      mstore\n      keccak256(0x00, 0x20)\n      swap1\n    tag_191:\n      dup2\n      0x00\n      swap1\n      sload\n      swap1\n      0x0100\n      exp\n      swap1\n      div\n      0xffffffffffffffffffffffffffffffffffffffff\n      and\n      0xffffffffffffffffffffffffffffffffffffffff\n      and\n      dup2\n      mstore\n      0x20\n      add\n      swap1\n      0x01\n      add\n      swap1\n      dup1\n      dup4\n      gt\n      tag_191\n      jumpi\n    tag_190:\n      pop\n      pop\n      pop\n      pop\n      pop\n        /* \"contracts/MultisigWallet.sol\":8025:8035  msg.sender */\n      caller\n        /* \"contracts/MultisigWallet.sol\":7992:8008  address_array_in */\n      tag_89\n        /* \"contracts/MultisigWallet.sol\":7992:8036  address_array_in(current_signed, msg.sender) */\n      jump\t// in\n    tag_189:\n        /* \"contracts/MultisigWallet.sol\":7985:8036  return address_array_in(current_signed, msg.sender) */\n      swap1\n      pop\n        /* \"contracts/MultisigWallet.sol\":7921:8043  function already_signed() private view returns (bool) {... */\n      swap1\n      jump\t// out\n        /* \"contracts/MultisigWallet.sol\":7383:7563  function do_pay_service_fee(uint transferWeis) private {       ... */\n    tag_175:\n        /* \"contracts/MultisigWallet.sol\":7455:7468  uint rate_wei */\n      0x00\n        /* \"contracts/MultisigWallet.sol\":7494:7511  withdraw_fee_rate */\n      sload(0x09)\n        /* \"contracts/MultisigWallet.sol\":7486:7491  10000 */\n      0x2710\n        /* \"contracts/MultisigWallet.sol\":7471:7483  transferWeis */\n      dup4\n        /* \"contracts/MultisigWallet.sol\":7471:7491  transferWeis / 10000 */\n      tag_193\n      swap2\n      swap1\n      tag_194\n      jump\t// in\n    tag_193:\n        /* \"contracts/MultisigWallet.sol\":7471:7511  transferWeis / 10000 * withdraw_fee_rate */\n      tag_195\n      swap2\n      swap1\n      tag_196\n      jump\t// in\n    tag_195:\n        /* \"contracts/MultisigWallet.sol\":7455:7511  uint rate_wei = transferWeis / 10000 * withdraw_fee_rate */\n      swap1\n      pop\n        /* \"contracts/MultisigWallet.sol\":7521:7537  platform_account */\n      0x0b\n      0x00\n      swap1\n      sload\n      swap1\n      0x0100\n      exp\n      swap1\n      div\n      0xffffffffffffffffffffffffffffffffffffffff\n      and\n        /* \"contracts/MultisigWallet.sol\":7521:7546  platform_account.transfer */\n      0xffffffffffffffffffffffffffffffffffffffff\n      and\n        /* \"contracts/MultisigWallet.sol\":7521:7556  platform_account.transfer(rate_wei) */\n      0x08fc\n        /* \"contracts/MultisigWallet.sol\":7547:7555  rate_wei */\n      dup3\n        /* \"contracts/MultisigWallet.sol\":7521:7556  platform_account.transfer(rate_wei) */\n      swap1\n      dup2\n      iszero\n      mul\n      swap1\n      mload(0x40)\n      0x00\n      mload(0x40)\n      dup1\n      dup4\n      sub\n      dup2\n      dup6\n      dup9\n      dup9\n      call\n      swap4\n      pop\n      pop\n      pop\n      pop\n      iszero\n      dup1\n      iszero\n      tag_198\n      jumpi\n      returndatasize\n      0x00\n      dup1\n      returndatacopy\n      revert(0x00, returndatasize)\n    tag_198:\n      pop\n        /* \"contracts/MultisigWallet.sol\":7438:7563  {       ... */\n      pop\n        /* \"contracts/MultisigWallet.sol\":7383:7563  function do_pay_service_fee(uint transferWeis) private {       ... */\n      pop\n      jump\t// out\n    tag_171:\n      pop\n      dup1\n      sload\n      0x00\n      dup3\n      sstore\n      swap1\n      0x00\n      mstore\n      keccak256(0x00, 0x20)\n      swap1\n      dup2\n      add\n      swap1\n      tag_200\n      swap2\n      swap1\n      tag_201\n      jump\t// in\n    tag_200:\n      pop\n      jump\t// out\n    tag_201:\n    tag_202:\n      dup1\n      dup3\n      gt\n      iszero\n      tag_203\n      jumpi\n      0x00\n      dup2\n      0x00\n      swap1\n      sstore\n      pop\n      0x01\n      add\n      jump(tag_202)\n    tag_203:\n      pop\n      swap1\n      jump\t// out\n        /* \"#utility.yul\":7:146   */\n    tag_205:\n        /* \"#utility.yul\":53:58   */\n      0x00\n        /* \"#utility.yul\":91:97   */\n      dup2\n        /* \"#utility.yul\":78:98   */\n      calldataload\n        /* \"#utility.yul\":69:98   */\n      swap1\n      pop\n        /* \"#utility.yul\":107:140   */\n      tag_207\n        /* \"#utility.yul\":134:139   */\n      dup2\n        /* \"#utility.yul\":107:140   */\n      tag_208\n      jump\t// in\n    tag_207:\n        /* \"#utility.yul\":7:146   */\n      swap3\n      swap2\n      pop\n      pop\n      jump\t// out\n        /* \"#utility.yul\":152:307   */\n    tag_209:\n        /* \"#utility.yul\":206:211   */\n      0x00\n        /* \"#utility.yul\":244:250   */\n      dup2\n        /* \"#utility.yul\":231:251   */\n      calldataload\n        /* \"#utility.yul\":222:251   */\n      swap1\n      pop\n        /* \"#utility.yul\":260:301   */\n      tag_211\n        /* \"#utility.yul\":295:300   */\n      dup2\n        /* \"#utility.yul\":260:301   */\n      tag_212\n      jump\t// in\n    tag_211:\n        /* \"#utility.yul\":152:307   */\n      swap3\n      swap2\n      pop\n      pop\n      jump\t// out\n        /* \"#utility.yul\":313:452   */\n    tag_213:\n        /* \"#utility.yul\":359:364   */\n      0x00\n        /* \"#utility.yul\":397:403   */\n      dup2\n        /* \"#utility.yul\":384:404   */\n      calldataload\n        /* \"#utility.yul\":375:404   */\n      swap1\n      pop\n        /* \"#utility.yul\":413:446   */\n      tag_215\n        /* \"#utility.yul\":440:445   */\n      dup2\n        /* \"#utility.yul\":413:446   */\n      tag_216\n      jump\t// in\n    tag_215:\n        /* \"#utility.yul\":313:452   */\n      swap3\n      swap2\n      pop\n      pop\n      jump\t// out\n        /* \"#utility.yul\":458:787   */\n    tag_44:\n        /* \"#utility.yul\":517:523   */\n      0x00\n        /* \"#utility.yul\":566:568   */\n      0x20\n        /* \"#utility.yul\":554:563   */\n      dup3\n        /* \"#utility.yul\":545:552   */\n      dup5\n        /* \"#utility.yul\":541:564   */\n      sub\n        /* \"#utility.yul\":537:569   */\n      slt\n        /* \"#utility.yul\":534:653   */\n      iszero\n      tag_218\n      jumpi\n        /* \"#utility.yul\":572:651   */\n      tag_219\n      tag_220\n      jump\t// in\n    tag_219:\n        /* \"#utility.yul\":534:653   */\n    tag_218:\n        /* \"#utility.yul\":692:693   */\n      0x00\n        /* \"#utility.yul\":717:770   */\n      tag_221\n        /* \"#utility.yul\":762:769   */\n      dup5\n        /* \"#utility.yul\":753:759   */\n      dup3\n        /* \"#utility.yul\":742:751   */\n      dup6\n        /* \"#utility.yul\":738:760   */\n      add\n        /* \"#utility.yul\":717:770   */\n      tag_205\n      jump\t// in\n    tag_221:\n        /* \"#utility.yul\":707:770   */\n      swap2\n      pop\n        /* \"#utility.yul\":663:780   */\n      pop\n        /* \"#utility.yul\":458:787   */\n      swap3\n      swap2\n      pop\n      pop\n      jump\t// out\n        /* \"#utility.yul\":793:1283   */\n    tag_21:\n        /* \"#utility.yul\":869:875   */\n      0x00\n        /* \"#utility.yul\":877:883   */\n      dup1\n        /* \"#utility.yul\":926:928   */\n      0x40\n        /* \"#utility.yul\":914:923   */\n      dup4\n        /* \"#utility.yul\":905:912   */\n      dup6\n        /* \"#utility.yul\":901:924   */\n      sub\n        /* \"#utility.yul\":897:929   */\n      slt\n        /* \"#utility.yul\":894:1013   */\n      iszero\n      tag_223\n      jumpi\n        /* \"#utility.yul\":932:1011   */\n      tag_224\n      tag_220\n      jump\t// in\n    tag_224:\n        /* \"#utility.yul\":894:1013   */\n    tag_223:\n        /* \"#utility.yul\":1052:1053   */\n      0x00\n        /* \"#utility.yul\":1077:1130   */\n      tag_225\n        /* \"#utility.yul\":1122:1129   */\n      dup6\n        /* \"#utility.yul\":1113:1119   */\n      dup3\n        /* \"#utility.yul\":1102:1111   */\n      dup7\n        /* \"#utility.yul\":1098:1120   */\n      add\n        /* \"#utility.yul\":1077:1130   */\n      tag_213\n      jump\t// in\n    tag_225:\n        /* \"#utility.yul\":1067:1130   */\n      swap3\n      pop\n        /* \"#utility.yul\":1023:1140   */\n      pop\n        /* \"#utility.yul\":1179:1181   */\n      0x20\n        /* \"#utility.yul\":1205:1266   */\n      tag_226\n        /* \"#utility.yul\":1258:1265   */\n      dup6\n        /* \"#utility.yul\":1249:1255   */\n      dup3\n        /* \"#utility.yul\":1238:1247   */\n      dup7\n        /* \"#utility.yul\":1234:1256   */\n      add\n        /* \"#utility.yul\":1205:1266   */\n      tag_209\n      jump\t// in\n    tag_226:\n        /* \"#utility.yul\":1195:1266   */\n      swap2\n      pop\n        /* \"#utility.yul\":1150:1276   */\n      pop\n        /* \"#utility.yul\":793:1283   */\n      swap3\n      pop\n      swap3\n      swap1\n      pop\n      jump\t// out\n        /* \"#utility.yul\":1289:1655   */\n    tag_227:\n        /* \"#utility.yul\":1431:1434   */\n      0x00\n        /* \"#utility.yul\":1452:1519   */\n      tag_229\n        /* \"#utility.yul\":1516:1518   */\n      0x58\n        /* \"#utility.yul\":1511:1514   */\n      dup4\n        /* \"#utility.yul\":1452:1519   */\n      tag_230\n      jump\t// in\n    tag_229:\n        /* \"#utility.yul\":1445:1519   */\n      swap2\n      pop\n        /* \"#utility.yul\":1528:1621   */\n      tag_231\n        /* \"#utility.yul\":1617:1620   */\n      dup3\n        /* \"#utility.yul\":1528:1621   */\n      tag_232\n      jump\t// in\n    tag_231:\n        /* \"#utility.yul\":1646:1648   */\n      0x60\n        /* \"#utility.yul\":1641:1644   */\n      dup3\n        /* \"#utility.yul\":1637:1649   */\n      add\n        /* \"#utility.yul\":1630:1649   */\n      swap1\n      pop\n        /* \"#utility.yul\":1289:1655   */\n      swap2\n      swap1\n      pop\n      jump\t// out\n        /* \"#utility.yul\":1661:2027   */\n    tag_233:\n        /* \"#utility.yul\":1803:1806   */\n      0x00\n        /* \"#utility.yul\":1824:1891   */\n      tag_235\n        /* \"#utility.yul\":1888:1890   */\n      0x2f\n        /* \"#utility.yul\":1883:1886   */\n      dup4\n        /* \"#utility.yul\":1824:1891   */\n      tag_230\n      jump\t// in\n    tag_235:\n        /* \"#utility.yul\":1817:1891   */\n      swap2\n      pop\n        /* \"#utility.yul\":1900:1993   */\n      tag_236\n        /* \"#utility.yul\":1989:1992   */\n      dup3\n        /* \"#utility.yul\":1900:1993   */\n      tag_237\n      jump\t// in\n    tag_236:\n        /* \"#utility.yul\":2018:2020   */\n      0x40\n        /* \"#utility.yul\":2013:2016   */\n      dup3\n        /* \"#utility.yul\":2009:2021   */\n      add\n        /* \"#utility.yul\":2002:2021   */\n      swap1\n      pop\n        /* \"#utility.yul\":1661:2027   */\n      swap2\n      swap1\n      pop\n      jump\t// out\n        /* \"#utility.yul\":2033:2399   */\n    tag_238:\n        /* \"#utility.yul\":2175:2178   */\n      0x00\n        /* \"#utility.yul\":2196:2263   */\n      tag_240\n        /* \"#utility.yul\":2260:2262   */\n      0x3a\n        /* \"#utility.yul\":2255:2258   */\n      dup4\n        /* \"#utility.yul\":2196:2263   */\n      tag_230\n      jump\t// in\n    tag_240:\n        /* \"#utility.yul\":2189:2263   */\n      swap2\n      pop\n        /* \"#utility.yul\":2272:2365   */\n      tag_241\n        /* \"#utility.yul\":2361:2364   */\n      dup3\n        /* \"#utility.yul\":2272:2365   */\n      tag_242\n      jump\t// in\n    tag_241:\n        /* \"#utility.yul\":2390:2392   */\n      0x40\n        /* \"#utility.yul\":2385:2388   */\n      dup3\n        /* \"#utility.yul\":2381:2393   */\n      add\n        /* \"#utility.yul\":2374:2393   */\n      swap1\n      pop\n        /* \"#utility.yul\":2033:2399   */\n      swap2\n      swap1\n      pop\n      jump\t// out\n        /* \"#utility.yul\":2405:2771   */\n    tag_243:\n        /* \"#utility.yul\":2547:2550   */\n      0x00\n        /* \"#utility.yul\":2568:2635   */\n      tag_245\n        /* \"#utility.yul\":2632:2634   */\n      0x2e\n        /* \"#utility.yul\":2627:2630   */\n      dup4\n        /* \"#utility.yul\":2568:2635   */\n      tag_230\n      jump\t// in\n    tag_245:\n        /* \"#utility.yul\":2561:2635   */\n      swap2\n      pop\n        /* \"#utility.yul\":2644:2737   */\n      tag_246\n        /* \"#utility.yul\":2733:2736   */\n      dup3\n        /* \"#utility.yul\":2644:2737   */\n      tag_247\n      jump\t// in\n    tag_246:\n        /* \"#utility.yul\":2762:2764   */\n      0x40\n        /* \"#utility.yul\":2757:2760   */\n      dup3\n        /* \"#utility.yul\":2753:2765   */\n      add\n        /* \"#utility.yul\":2746:2765   */\n      swap1\n      pop\n        /* \"#utility.yul\":2405:2771   */\n      swap2\n      swap1\n      pop\n      jump\t// out\n        /* \"#utility.yul\":2777:3143   */\n    tag_248:\n        /* \"#utility.yul\":2919:2922   */\n      0x00\n        /* \"#utility.yul\":2940:3007   */\n      tag_250\n        /* \"#utility.yul\":3004:3006   */\n      0x15\n        /* \"#utility.yul\":2999:3002   */\n      dup4\n        /* \"#utility.yul\":2940:3007   */\n      tag_230\n      jump\t// in\n    tag_250:\n        /* \"#utility.yul\":2933:3007   */\n      swap2\n      pop\n        /* \"#utility.yul\":3016:3109   */\n      tag_251\n        /* \"#utility.yul\":3105:3108   */\n      dup3\n        /* \"#utility.yul\":3016:3109   */\n      tag_252\n      jump\t// in\n    tag_251:\n        /* \"#utility.yul\":3134:3136   */\n      0x20\n        /* \"#utility.yul\":3129:3132   */\n      dup3\n        /* \"#utility.yul\":3125:3137   */\n      add\n        /* \"#utility.yul\":3118:3137   */\n      swap1\n      pop\n        /* \"#utility.yul\":2777:3143   */\n      swap2\n      swap1\n      pop\n      jump\t// out\n        /* \"#utility.yul\":3149:3515   */\n    tag_253:\n        /* \"#utility.yul\":3291:3294   */\n      0x00\n        /* \"#utility.yul\":3312:3379   */\n      tag_255\n        /* \"#utility.yul\":3376:3378   */\n      0x3b\n        /* \"#utility.yul\":3371:3374   */\n      dup4\n        /* \"#utility.yul\":3312:3379   */\n      tag_230\n      jump\t// in\n    tag_255:\n        /* \"#utility.yul\":3305:3379   */\n      swap2\n      pop\n        /* \"#utility.yul\":3388:3481   */\n      tag_256\n        /* \"#utility.yul\":3477:3480   */\n      dup3\n        /* \"#utility.yul\":3388:3481   */\n      tag_257\n      jump\t// in\n    tag_256:\n        /* \"#utility.yul\":3506:3508   */\n      0x40\n        /* \"#utility.yul\":3501:3504   */\n      dup3\n        /* \"#utility.yul\":3497:3509   */\n      add\n        /* \"#utility.yul\":3490:3509   */\n      swap1\n      pop\n        /* \"#utility.yul\":3149:3515   */\n      swap2\n      swap1\n      pop\n      jump\t// out\n        /* \"#utility.yul\":3521:3887   */\n    tag_258:\n        /* \"#utility.yul\":3663:3666   */\n      0x00\n        /* \"#utility.yul\":3684:3751   */\n      tag_260\n        /* \"#utility.yul\":3748:3750   */\n      0x2c\n        /* \"#utility.yul\":3743:3746   */\n      dup4\n        /* \"#utility.yul\":3684:3751   */\n      tag_230\n      jump\t// in\n    tag_260:\n        /* \"#utility.yul\":3677:3751   */\n      swap2\n      pop\n        /* \"#utility.yul\":3760:3853   */\n      tag_261\n        /* \"#utility.yul\":3849:3852   */\n      dup3\n        /* \"#utility.yul\":3760:3853   */\n      tag_262\n      jump\t// in\n    tag_261:\n        /* \"#utility.yul\":3878:3880   */\n      0x40\n        /* \"#utility.yul\":3873:3876   */\n      dup3\n        /* \"#utility.yul\":3869:3881   */\n      add\n        /* \"#utility.yul\":3862:3881   */\n      swap1\n      pop\n        /* \"#utility.yul\":3521:3887   */\n      swap2\n      swap1\n      pop\n      jump\t// out\n        /* \"#utility.yul\":3893:4259   */\n    tag_263:\n        /* \"#utility.yul\":4035:4038   */\n      0x00\n        /* \"#utility.yul\":4056:4123   */\n      tag_265\n        /* \"#utility.yul\":4120:4122   */\n      0x38\n        /* \"#utility.yul\":4115:4118   */\n      dup4\n        /* \"#utility.yul\":4056:4123   */\n      tag_230\n      jump\t// in\n    tag_265:\n        /* \"#utility.yul\":4049:4123   */\n      swap2\n      pop\n        /* \"#utility.yul\":4132:4225   */\n      tag_266\n        /* \"#utility.yul\":4221:4224   */\n      dup3\n        /* \"#utility.yul\":4132:4225   */\n      tag_267\n      jump\t// in\n    tag_266:\n        /* \"#utility.yul\":4250:4252   */\n      0x40\n        /* \"#utility.yul\":4245:4248   */\n      dup3\n        /* \"#utility.yul\":4241:4253   */\n      add\n        /* \"#utility.yul\":4234:4253   */\n      swap1\n      pop\n        /* \"#utility.yul\":3893:4259   */\n      swap2\n      swap1\n      pop\n      jump\t// out\n        /* \"#utility.yul\":4265:4631   */\n    tag_268:\n        /* \"#utility.yul\":4407:4410   */\n      0x00\n        /* \"#utility.yul\":4428:4495   */\n      tag_270\n        /* \"#utility.yul\":4492:4494   */\n      0x1d\n        /* \"#utility.yul\":4487:4490   */\n      dup4\n        /* \"#utility.yul\":4428:4495   */\n      tag_230\n      jump\t// in\n    tag_270:\n        /* \"#utility.yul\":4421:4495   */\n      swap2\n      pop\n        /* \"#utility.yul\":4504:4597   */\n      tag_271\n        /* \"#utility.yul\":4593:4596   */\n      dup3\n        /* \"#utility.yul\":4504:4597   */\n      tag_272\n      jump\t// in\n    tag_271:\n        /* \"#utility.yul\":4622:4624   */\n      0x20\n        /* \"#utility.yul\":4617:4620   */\n      dup3\n        /* \"#utility.yul\":4613:4625   */\n      add\n        /* \"#utility.yul\":4606:4625   */\n      swap1\n      pop\n        /* \"#utility.yul\":4265:4631   */\n      swap2\n      swap1\n      pop\n      jump\t// out\n        /* \"#utility.yul\":4637:5003   */\n    tag_273:\n        /* \"#utility.yul\":4779:4782   */\n      0x00\n        /* \"#utility.yul\":4800:4867   */\n      tag_275\n        /* \"#utility.yul\":4864:4866   */\n      0x26\n        /* \"#utility.yul\":4859:4862   */\n      dup4\n        /* \"#utility.yul\":4800:4867   */\n      tag_230\n      jump\t// in\n    tag_275:\n        /* \"#utility.yul\":4793:4867   */\n      swap2\n      pop\n        /* \"#utility.yul\":4876:4969   */\n      tag_276\n        /* \"#utility.yul\":4965:4968   */\n      dup3\n        /* \"#utility.yul\":4876:4969   */\n      tag_277\n      jump\t// in\n    tag_276:\n        /* \"#utility.yul\":4994:4996   */\n      0x40\n        /* \"#utility.yul\":4989:4992   */\n      dup3\n        /* \"#utility.yul\":4985:4997   */\n      add\n        /* \"#utility.yul\":4978:4997   */\n      swap1\n      pop\n        /* \"#utility.yul\":4637:5003   */\n      swap2\n      swap1\n      pop\n      jump\t// out\n        /* \"#utility.yul\":5009:5375   */\n    tag_278:\n        /* \"#utility.yul\":5151:5154   */\n      0x00\n        /* \"#utility.yul\":5172:5239   */\n      tag_280\n        /* \"#utility.yul\":5236:5238   */\n      0x2a\n        /* \"#utility.yul\":5231:5234   */\n      dup4\n        /* \"#utility.yul\":5172:5239   */\n      tag_230\n      jump\t// in\n    tag_280:\n        /* \"#utility.yul\":5165:5239   */\n      swap2\n      pop\n        /* \"#utility.yul\":5248:5341   */\n      tag_281\n        /* \"#utility.yul\":5337:5340   */\n      dup3\n        /* \"#utility.yul\":5248:5341   */\n      tag_282\n      jump\t// in\n    tag_281:\n        /* \"#utility.yul\":5366:5368   */\n      0x40\n        /* \"#utility.yul\":5361:5364   */\n      dup3\n        /* \"#utility.yul\":5357:5369   */\n      add\n        /* \"#utility.yul\":5350:5369   */\n      swap1\n      pop\n        /* \"#utility.yul\":5009:5375   */\n      swap2\n      swap1\n      pop\n      jump\t// out\n        /* \"#utility.yul\":5381:5747   */\n    tag_283:\n        /* \"#utility.yul\":5523:5526   */\n      0x00\n        /* \"#utility.yul\":5544:5611   */\n      tag_285\n        /* \"#utility.yul\":5608:5610   */\n      0x2c\n        /* \"#utility.yul\":5603:5606   */\n      dup4\n        /* \"#utility.yul\":5544:5611   */\n      tag_230\n      jump\t// in\n    tag_285:\n        /* \"#utility.yul\":5537:5611   */\n      swap2\n      pop\n        /* \"#utility.yul\":5620:5713   */\n      tag_286\n        /* \"#utility.yul\":5709:5712   */\n      dup3\n        /* \"#utility.yul\":5620:5713   */\n      tag_287\n      jump\t// in\n    tag_286:\n        /* \"#utility.yul\":5738:5740   */\n      0x40\n        /* \"#utility.yul\":5733:5736   */\n      dup3\n        /* \"#utility.yul\":5729:5741   */\n      add\n        /* \"#utility.yul\":5722:5741   */\n      swap1\n      pop\n        /* \"#utility.yul\":5381:5747   */\n      swap2\n      swap1\n      pop\n      jump\t// out\n        /* \"#utility.yul\":5753:5871   */\n    tag_288:\n        /* \"#utility.yul\":5840:5864   */\n      tag_290\n        /* \"#utility.yul\":5858:5863   */\n      dup2\n        /* \"#utility.yul\":5840:5864   */\n      tag_291\n      jump\t// in\n    tag_290:\n        /* \"#utility.yul\":5835:5838   */\n      dup3\n        /* \"#utility.yul\":5828:5865   */\n      mstore\n        /* \"#utility.yul\":5753:5871   */\n      pop\n      pop\n      jump\t// out\n        /* \"#utility.yul\":5877:6296   */\n    tag_17:\n        /* \"#utility.yul\":6043:6047   */\n      0x00\n        /* \"#utility.yul\":6081:6083   */\n      0x20\n        /* \"#utility.yul\":6070:6079   */\n      dup3\n        /* \"#utility.yul\":6066:6084   */\n      add\n        /* \"#utility.yul\":6058:6084   */\n      swap1\n      pop\n        /* \"#utility.yul\":6130:6139   */\n      dup2\n        /* \"#utility.yul\":6124:6128   */\n      dup2\n        /* \"#utility.yul\":6120:6140   */\n      sub\n        /* \"#utility.yul\":6116:6117   */\n      0x00\n        /* \"#utility.yul\":6105:6114   */\n      dup4\n        /* \"#utility.yul\":6101:6118   */\n      add\n        /* \"#utility.yul\":6094:6141   */\n      mstore\n        /* \"#utility.yul\":6158:6289   */\n      tag_293\n        /* \"#utility.yul\":6284:6288   */\n      dup2\n        /* \"#utility.yul\":6158:6289   */\n      tag_227\n      jump\t// in\n    tag_293:\n        /* \"#utility.yul\":6150:6289   */\n      swap1\n      pop\n        /* \"#utility.yul\":5877:6296   */\n      swap2\n      swap1\n      pop\n      jump\t// out\n        /* \"#utility.yul\":6302:6721   */\n    tag_95:\n        /* \"#utility.yul\":6468:6472   */\n      0x00\n        /* \"#utility.yul\":6506:6508   */\n      0x20\n        /* \"#utility.yul\":6495:6504   */\n      dup3\n        /* \"#utility.yul\":6491:6509   */\n      add\n        /* \"#utility.yul\":6483:6509   */\n      swap1\n      pop\n        /* \"#utility.yul\":6555:6564   */\n      dup2\n        /* \"#utility.yul\":6549:6553   */\n      dup2\n        /* \"#utility.yul\":6545:6565   */\n      sub\n        /* \"#utility.yul\":6541:6542   */\n      0x00\n        /* \"#utility.yul\":6530:6539   */\n      dup4\n        /* \"#utility.yul\":6526:6543   */\n      add\n        /* \"#utility.yul\":6519:6566   */\n      mstore\n        /* \"#utility.yul\":6583:6714   */\n      tag_295\n        /* \"#utility.yul\":6709:6713   */\n      dup2\n        /* \"#utility.yul\":6583:6714   */\n      tag_233\n      jump\t// in\n    tag_295:\n        /* \"#utility.yul\":6575:6714   */\n      swap1\n      pop\n        /* \"#utility.yul\":6302:6721   */\n      swap2\n      swap1\n      pop\n      jump\t// out\n        /* \"#utility.yul\":6727:7146   */\n    tag_85:\n        /* \"#utility.yul\":6893:6897   */\n      0x00\n        /* \"#utility.yul\":6931:6933   */\n      0x20\n        /* \"#utility.yul\":6920:6929   */\n      dup3\n        /* \"#utility.yul\":6916:6934   */\n      add\n        /* \"#utility.yul\":6908:6934   */\n      swap1\n      pop\n        /* \"#utility.yul\":6980:6989   */\n      dup2\n        /* \"#utility.yul\":6974:6978   */\n      dup2\n        /* \"#utility.yul\":6970:6990   */\n      sub\n        /* \"#utility.yul\":6966:6967   */\n      0x00\n        /* \"#utility.yul\":6955:6964   */\n      dup4\n        /* \"#utility.yul\":6951:6968   */\n      add\n        /* \"#utility.yul\":6944:6991   */\n      mstore\n        /* \"#utility.yul\":7008:7139   */\n      tag_297\n        /* \"#utility.yul\":7134:7138   */\n      dup2\n        /* \"#utility.yul\":7008:7139   */\n      tag_238\n      jump\t// in\n    tag_297:\n        /* \"#utility.yul\":7000:7139   */\n      swap1\n      pop\n        /* \"#utility.yul\":6727:7146   */\n      swap2\n      swap1\n      pop\n      jump\t// out\n        /* \"#utility.yul\":7152:7571   */\n    tag_92:\n        /* \"#utility.yul\":7318:7322   */\n      0x00\n        /* \"#utility.yul\":7356:7358   */\n      0x20\n        /* \"#utility.yul\":7345:7354   */\n      dup3\n        /* \"#utility.yul\":7341:7359   */\n      add\n        /* \"#utility.yul\":7333:7359   */\n      swap1\n      pop\n        /* \"#utility.yul\":7405:7414   */\n      dup2\n        /* \"#utility.yul\":7399:7403   */\n      dup2\n        /* \"#utility.yul\":7395:7415   */\n      sub\n        /* \"#utility.yul\":7391:7392   */\n      0x00\n        /* \"#utility.yul\":7380:7389   */\n      dup4\n        /* \"#utility.yul\":7376:7393   */\n      add\n        /* \"#utility.yul\":7369:7416   */\n      mstore\n        /* \"#utility.yul\":7433:7564   */\n      tag_299\n        /* \"#utility.yul\":7559:7563   */\n      dup2\n        /* \"#utility.yul\":7433:7564   */\n      tag_243\n      jump\t// in\n    tag_299:\n        /* \"#utility.yul\":7425:7564   */\n      swap1\n      pop\n        /* \"#utility.yul\":7152:7571   */\n      swap2\n      swap1\n      pop\n      jump\t// out\n        /* \"#utility.yul\":7577:7996   */\n    tag_70:\n        /* \"#utility.yul\":7743:7747   */\n      0x00\n        /* \"#utility.yul\":7781:7783   */\n      0x20\n        /* \"#utility.yul\":7770:7779   */\n      dup3\n        /* \"#utility.yul\":7766:7784   */\n      add\n        /* \"#utility.yul\":7758:7784   */\n      swap1\n      pop\n        /* \"#utility.yul\":7830:7839   */\n      dup2\n        /* \"#utility.yul\":7824:7828   */\n      dup2\n        /* \"#utility.yul\":7820:7840   */\n      sub\n        /* \"#utility.yul\":7816:7817   */\n      0x00\n        /* \"#utility.yul\":7805:7814   */\n      dup4\n        /* \"#utility.yul\":7801:7818   */\n      add\n        /* \"#utility.yul\":7794:7841   */\n      mstore\n        /* \"#utility.yul\":7858:7989   */\n      tag_301\n        /* \"#utility.yul\":7984:7988   */\n      dup2\n        /* \"#utility.yul\":7858:7989   */\n      tag_248\n      jump\t// in\n    tag_301:\n        /* \"#utility.yul\":7850:7989   */\n      swap1\n      pop\n        /* \"#utility.yul\":7577:7996   */\n      swap2\n      swap1\n      pop\n      jump\t// out\n        /* \"#utility.yul\":8002:8421   */\n    tag_142:\n        /* \"#utility.yul\":8168:8172   */\n      0x00\n        /* \"#utility.yul\":8206:8208   */\n      0x20\n        /* \"#utility.yul\":8195:8204   */\n      dup3\n        /* \"#utility.yul\":8191:8209   */\n      add\n        /* \"#utility.yul\":8183:8209   */\n      swap1\n      pop\n        /* \"#utility.yul\":8255:8264   */\n      dup2\n        /* \"#utility.yul\":8249:8253   */\n      dup2\n        /* \"#utility.yul\":8245:8265   */\n      sub\n        /* \"#utility.yul\":8241:8242   */\n      0x00\n        /* \"#utility.yul\":8230:8239   */\n      dup4\n        /* \"#utility.yul\":8226:8243   */\n      add\n        /* \"#utility.yul\":8219:8266   */\n      mstore\n        /* \"#utility.yul\":8283:8414   */\n      tag_303\n        /* \"#utility.yul\":8409:8413   */\n      dup2\n        /* \"#utility.yul\":8283:8414   */\n      tag_253\n      jump\t// in\n    tag_303:\n        /* \"#utility.yul\":8275:8414   */\n      swap1\n      pop\n        /* \"#utility.yul\":8002:8421   */\n      swap2\n      swap1\n      pop\n      jump\t// out\n        /* \"#utility.yul\":8427:8846   */\n    tag_120:\n        /* \"#utility.yul\":8593:8597   */\n      0x00\n        /* \"#utility.yul\":8631:8633   */\n      0x20\n        /* \"#utility.yul\":8620:8629   */\n      dup3\n        /* \"#utility.yul\":8616:8634   */\n      add\n        /* \"#utility.yul\":8608:8634   */\n      swap1\n      pop\n        /* \"#utility.yul\":8680:8689   */\n      dup2\n        /* \"#utility.yul\":8674:8678   */\n      dup2\n        /* \"#utility.yul\":8670:8690   */\n      sub\n        /* \"#utility.yul\":8666:8667   */\n      0x00\n        /* \"#utility.yul\":8655:8664   */\n      dup4\n        /* \"#utility.yul\":8651:8668   */\n      add\n        /* \"#utility.yul\":8644:8691   */\n      mstore\n        /* \"#utility.yul\":8708:8839   */\n      tag_305\n        /* \"#utility.yul\":8834:8838   */\n      dup2\n        /* \"#utility.yul\":8708:8839   */\n      tag_258\n      jump\t// in\n    tag_305:\n        /* \"#utility.yul\":8700:8839   */\n      swap1\n      pop\n        /* \"#utility.yul\":8427:8846   */\n      swap2\n      swap1\n      pop\n      jump\t// out\n        /* \"#utility.yul\":8852:9271   */\n    tag_125:\n        /* \"#utility.yul\":9018:9022   */\n      0x00\n        /* \"#utility.yul\":9056:9058   */\n      0x20\n        /* \"#utility.yul\":9045:9054   */\n      dup3\n        /* \"#utility.yul\":9041:9059   */\n      add\n        /* \"#utility.yul\":9033:9059   */\n      swap1\n      pop\n        /* \"#utility.yul\":9105:9114   */\n      dup2\n        /* \"#utility.yul\":9099:9103   */\n      dup2\n        /* \"#utility.yul\":9095:9115   */\n      sub\n        /* \"#utility.yul\":9091:9092   */\n      0x00\n        /* \"#utility.yul\":9080:9089   */\n      dup4\n        /* \"#utility.yul\":9076:9093   */\n      add\n        /* \"#utility.yul\":9069:9116   */\n      mstore\n        /* \"#utility.yul\":9133:9264   */\n      tag_307\n        /* \"#utility.yul\":9259:9263   */\n      dup2\n        /* \"#utility.yul\":9133:9264   */\n      tag_263\n      jump\t// in\n    tag_307:\n        /* \"#utility.yul\":9125:9264   */\n      swap1\n      pop\n        /* \"#utility.yul\":8852:9271   */\n      swap2\n      swap1\n      pop\n      jump\t// out\n        /* \"#utility.yul\":9277:9696   */\n    tag_63:\n        /* \"#utility.yul\":9443:9447   */\n      0x00\n        /* \"#utility.yul\":9481:9483   */\n      0x20\n        /* \"#utility.yul\":9470:9479   */\n      dup3\n        /* \"#utility.yul\":9466:9484   */\n      add\n        /* \"#utility.yul\":9458:9484   */\n      swap1\n      pop\n        /* \"#utility.yul\":9530:9539   */\n      dup2\n        /* \"#utility.yul\":9524:9528   */\n      dup2\n        /* \"#utility.yul\":9520:9540   */\n      sub\n        /* \"#utility.yul\":9516:9517   */\n      0x00\n        /* \"#utility.yul\":9505:9514   */\n      dup4\n        /* \"#utility.yul\":9501:9518   */\n      add\n        /* \"#utility.yul\":9494:9541   */\n      mstore\n        /* \"#utility.yul\":9558:9689   */\n      tag_309\n        /* \"#utility.yul\":9684:9688   */\n      dup2\n        /* \"#utility.yul\":9558:9689   */\n      tag_268\n      jump\t// in\n    tag_309:\n        /* \"#utility.yul\":9550:9689   */\n      swap1\n      pop\n        /* \"#utility.yul\":9277:9696   */\n      swap2\n      swap1\n      pop\n      jump\t// out\n        /* \"#utility.yul\":9702:10121   */\n    tag_59:\n        /* \"#utility.yul\":9868:9872   */\n      0x00\n        /* \"#utility.yul\":9906:9908   */\n      0x20\n        /* \"#utility.yul\":9895:9904   */\n      dup3\n        /* \"#utility.yul\":9891:9909   */\n      add\n        /* \"#utility.yul\":9883:9909   */\n      swap1\n      pop\n        /* \"#utility.yul\":9955:9964   */\n      dup2\n        /* \"#utility.yul\":9949:9953   */\n      dup2\n        /* \"#utility.yul\":9945:9965   */\n      sub\n        /* \"#utility.yul\":9941:9942   */\n      0x00\n        /* \"#utility.yul\":9930:9939   */\n      dup4\n        /* \"#utility.yul\":9926:9943   */\n      add\n        /* \"#utility.yul\":9919:9966   */\n      mstore\n        /* \"#utility.yul\":9983:10114   */\n      tag_311\n        /* \"#utility.yul\":10109:10113   */\n      dup2\n        /* \"#utility.yul\":9983:10114   */\n      tag_273\n      jump\t// in\n    tag_311:\n        /* \"#utility.yul\":9975:10114   */\n      swap1\n      pop\n        /* \"#utility.yul\":9702:10121   */\n      swap2\n      swap1\n      pop\n      jump\t// out\n        /* \"#utility.yul\":10127:10546   */\n    tag_137:\n        /* \"#utility.yul\":10293:10297   */\n      0x00\n        /* \"#utility.yul\":10331:10333   */\n      0x20\n        /* \"#utility.yul\":10320:10329   */\n      dup3\n        /* \"#utility.yul\":10316:10334   */\n      add\n        /* \"#utility.yul\":10308:10334   */\n      swap1\n      pop\n        /* \"#utility.yul\":10380:10389   */\n      dup2\n        /* \"#utility.yul\":10374:10378   */\n      dup2\n        /* \"#utility.yul\":10370:10390   */\n      sub\n        /* \"#utility.yul\":10366:10367   */\n      0x00\n        /* \"#utility.yul\":10355:10364   */\n      dup4\n        /* \"#utility.yul\":10351:10368   */\n      add\n        /* \"#utility.yul\":10344:10391   */\n      mstore\n        /* \"#utility.yul\":10408:10539   */\n      tag_313\n        /* \"#utility.yul\":10534:10538   */\n      dup2\n        /* \"#utility.yul\":10408:10539   */\n      tag_278\n      jump\t// in\n    tag_313:\n        /* \"#utility.yul\":10400:10539   */\n      swap1\n      pop\n        /* \"#utility.yul\":10127:10546   */\n      swap2\n      swap1\n      pop\n      jump\t// out\n        /* \"#utility.yul\":10552:10971   */\n    tag_67:\n        /* \"#utility.yul\":10718:10722   */\n      0x00\n        /* \"#utility.yul\":10756:10758   */\n      0x20\n        /* \"#utility.yul\":10745:10754   */\n      dup3\n        /* \"#utility.yul\":10741:10759   */\n      add\n        /* \"#utility.yul\":10733:10759   */\n      swap1\n      pop\n        /* \"#utility.yul\":10805:10814   */\n      dup2\n        /* \"#utility.yul\":10799:10803   */\n      dup2\n        /* \"#utility.yul\":10795:10815   */\n      sub\n        /* \"#utility.yul\":10791:10792   */\n      0x00\n        /* \"#utility.yul\":10780:10789   */\n      dup4\n        /* \"#utility.yul\":10776:10793   */\n      add\n        /* \"#utility.yul\":10769:10816   */\n      mstore\n        /* \"#utility.yul\":10833:10964   */\n      tag_315\n        /* \"#utility.yul\":10959:10963   */\n      dup2\n        /* \"#utility.yul\":10833:10964   */\n      tag_283\n      jump\t// in\n    tag_315:\n        /* \"#utility.yul\":10825:10964   */\n      swap1\n      pop\n        /* \"#utility.yul\":10552:10971   */\n      swap2\n      swap1\n      pop\n      jump\t// out\n        /* \"#utility.yul\":10977:11199   */\n    tag_27:\n        /* \"#utility.yul\":11070:11074   */\n      0x00\n        /* \"#utility.yul\":11108:11110   */\n      0x20\n        /* \"#utility.yul\":11097:11106   */\n      dup3\n        /* \"#utility.yul\":11093:11111   */\n      add\n        /* \"#utility.yul\":11085:11111   */\n      swap1\n      pop\n        /* \"#utility.yul\":11121:11192   */\n      tag_317\n        /* \"#utility.yul\":11189:11190   */\n      0x00\n        /* \"#utility.yul\":11178:11187   */\n      dup4\n        /* \"#utility.yul\":11174:11191   */\n      add\n        /* \"#utility.yul\":11165:11171   */\n      dup5\n        /* \"#utility.yul\":11121:11192   */\n      tag_288\n      jump\t// in\n    tag_317:\n        /* \"#utility.yul\":10977:11199   */\n      swap3\n      swap2\n      pop\n      pop\n      jump\t// out\n        /* \"#utility.yul\":11286:11455   */\n    tag_230:\n        /* \"#utility.yul\":11370:11381   */\n      0x00\n        /* \"#utility.yul\":11404:11410   */\n      dup3\n        /* \"#utility.yul\":11399:11402   */\n      dup3\n        /* \"#utility.yul\":11392:11411   */\n      mstore\n        /* \"#utility.yul\":11444:11448   */\n      0x20\n        /* \"#utility.yul\":11439:11442   */\n      dup3\n        /* \"#utility.yul\":11435:11449   */\n      add\n        /* \"#utility.yul\":11420:11449   */\n      swap1\n      pop\n        /* \"#utility.yul\":11286:11455   */\n      swap3\n      swap2\n      pop\n      pop\n      jump\t// out\n        /* \"#utility.yul\":11461:11646   */\n    tag_194:\n        /* \"#utility.yul\":11501:11502   */\n      0x00\n        /* \"#utility.yul\":11518:11538   */\n      tag_322\n        /* \"#utility.yul\":11536:11537   */\n      dup3\n        /* \"#utility.yul\":11518:11538   */\n      tag_291\n      jump\t// in\n    tag_322:\n        /* \"#utility.yul\":11513:11538   */\n      swap2\n      pop\n        /* \"#utility.yul\":11552:11572   */\n      tag_323\n        /* \"#utility.yul\":11570:11571   */\n      dup4\n        /* \"#utility.yul\":11552:11572   */\n      tag_291\n      jump\t// in\n    tag_323:\n        /* \"#utility.yul\":11547:11572   */\n      swap3\n      pop\n        /* \"#utility.yul\":11591:11592   */\n      dup3\n        /* \"#utility.yul\":11581:11616   */\n      tag_324\n      jumpi\n        /* \"#utility.yul\":11596:11614   */\n      tag_325\n      tag_326\n      jump\t// in\n    tag_325:\n        /* \"#utility.yul\":11581:11616   */\n    tag_324:\n        /* \"#utility.yul\":11638:11639   */\n      dup3\n        /* \"#utility.yul\":11635:11636   */\n      dup3\n        /* \"#utility.yul\":11631:11640   */\n      div\n        /* \"#utility.yul\":11626:11640   */\n      swap1\n      pop\n        /* \"#utility.yul\":11461:11646   */\n      swap3\n      swap2\n      pop\n      pop\n      jump\t// out\n        /* \"#utility.yul\":11652:12000   */\n    tag_196:\n        /* \"#utility.yul\":11692:11699   */\n      0x00\n        /* \"#utility.yul\":11715:11735   */\n      tag_328\n        /* \"#utility.yul\":11733:11734   */\n      dup3\n        /* \"#utility.yul\":11715:11735   */\n      tag_291\n      jump\t// in\n    tag_328:\n        /* \"#utility.yul\":11710:11735   */\n      swap2\n      pop\n        /* \"#utility.yul\":11749:11769   */\n      tag_329\n        /* \"#utility.yul\":11767:11768   */\n      dup4\n        /* \"#utility.yul\":11749:11769   */\n      tag_291\n      jump\t// in\n    tag_329:\n        /* \"#utility.yul\":11744:11769   */\n      swap3\n      pop\n        /* \"#utility.yul\":11937:11938   */\n      dup2\n        /* \"#utility.yul\":11869:11935   */\n      0xffffffffffffffffffffffffffffffffffffffffffffffffffffffffffffffff\n        /* \"#utility.yul\":11865:11939   */\n      div\n        /* \"#utility.yul\":11862:11863   */\n      dup4\n        /* \"#utility.yul\":11859:11940   */\n      gt\n        /* \"#utility.yul\":11854:11855   */\n      dup3\n        /* \"#utility.yul\":11847:11856   */\n      iszero\n        /* \"#utility.yul\":11840:11857   */\n      iszero\n        /* \"#utility.yul\":11836:11941   */\n      and\n        /* \"#utility.yul\":11833:11964   */\n      iszero\n      tag_330\n      jumpi\n        /* \"#utility.yul\":11944:11962   */\n      tag_331\n      tag_332\n      jump\t// in\n    tag_331:\n        /* \"#utility.yul\":11833:11964   */\n    tag_330:\n        /* \"#utility.yul\":11992:11993   */\n      dup3\n        /* \"#utility.yul\":11989:11990   */\n      dup3\n        /* \"#utility.yul\":11985:11994   */\n      mul\n        /* \"#utility.yul\":11974:11994   */\n      swap1\n      pop\n        /* \"#utility.yul\":11652:12000   */\n      swap3\n      swap2\n      pop\n      pop\n      jump\t// out\n        /* \"#utility.yul\":12006:12197   */\n    tag_109:\n        /* \"#utility.yul\":12046:12050   */\n      0x00\n        /* \"#utility.yul\":12066:12086   */\n      tag_334\n        /* \"#utility.yul\":12084:12085   */\n      dup3\n        /* \"#utility.yul\":12066:12086   */\n      tag_291\n      jump\t// in\n    tag_334:\n        /* \"#utility.yul\":12061:12086   */\n      swap2\n      pop\n        /* \"#utility.yul\":12100:12120   */\n      tag_335\n        /* \"#utility.yul\":12118:12119   */\n      dup4\n        /* \"#utility.yul\":12100:12120   */\n      tag_291\n      jump\t// in\n    tag_335:\n        /* \"#utility.yul\":12095:12120   */\n      swap3\n      pop\n        /* \"#utility.yul\":12139:12140   */\n      dup3\n        /* \"#utility.yul\":12136:12137   */\n      dup3\n        /* \"#utility.yul\":12133:12141   */\n      lt\n        /* \"#utility.yul\":12130:12164   */\n      iszero\n      tag_336\n      jumpi\n        /* \"#utility.yul\":12144:12162   */\n      tag_337\n      tag_332\n      jump\t// in\n    tag_337:\n        /* \"#utility.yul\":12130:12164   */\n    tag_336:\n        /* \"#utility.yul\":12189:12190   */\n      dup3\n        /* \"#utility.yul\":12186:12187   */\n      dup3\n        /* \"#utility.yul\":12182:12191   */\n      sub\n        /* \"#utility.yul\":12174:12191   */\n      swap1\n      pop\n        /* \"#utility.yul\":12006:12197   */\n      swap3\n      swap2\n      pop\n      pop\n      jump\t// out\n        /* \"#utility.yul\":12203:12299   */\n    tag_338:\n        /* \"#utility.yul\":12240:12247   */\n      0x00\n        /* \"#utility.yul\":12269:12293   */\n      tag_340\n        /* \"#utility.yul\":12287:12292   */\n      dup3\n        /* \"#utility.yul\":12269:12293   */\n      tag_341\n      jump\t// in\n    tag_340:\n        /* \"#utility.yul\":12258:12293   */\n      swap1\n      pop\n        /* \"#utility.yul\":12203:12299   */\n      swap2\n      swap1\n      pop\n      jump\t// out\n        /* \"#utility.yul\":12305:12409   */\n    tag_342:\n        /* \"#utility.yul\":12350:12357   */\n      0x00\n        /* \"#utility.yul\":12379:12403   */\n      tag_344\n        /* \"#utility.yul\":12397:12402   */\n      dup3\n        /* \"#utility.yul\":12379:12403   */\n      tag_341\n      jump\t// in\n    tag_344:\n        /* \"#utility.yul\":12368:12403   */\n      swap1\n      pop\n        /* \"#utility.yul\":12305:12409   */\n      swap2\n      swap1\n      pop\n      jump\t// out\n        /* \"#utility.yul\":12415:12541   */\n    tag_341:\n        /* \"#utility.yul\":12452:12459   */\n      0x00\n        /* \"#utility.yul\":12492:12534   */\n      0xffffffffffffffffffffffffffffffffffffffff\n        /* \"#utility.yul\":12485:12490   */\n      dup3\n        /* \"#utility.yul\":12481:12535   */\n      and\n        /* \"#utility.yul\":12470:12535   */\n      swap1\n      pop\n        /* \"#utility.yul\":12415:12541   */\n      swap2\n      swap1\n      pop\n      jump\t// out\n        /* \"#utility.yul\":12547:12624   */\n    tag_291:\n        /* \"#utility.yul\":12584:12591   */\n      0x00\n        /* \"#utility.yul\":12613:12618   */\n      dup2\n        /* \"#utility.yul\":12602:12618   */\n      swap1\n      pop\n        /* \"#utility.yul\":12547:12624   */\n      swap2\n      swap1\n      pop\n      jump\t// out\n        /* \"#utility.yul\":12630:12716   */\n    tag_347:\n        /* \"#utility.yul\":12665:12672   */\n      0x00\n        /* \"#utility.yul\":12705:12709   */\n      0xff\n        /* \"#utility.yul\":12698:12703   */\n      dup3\n        /* \"#utility.yul\":12694:12710   */\n      and\n        /* \"#utility.yul\":12683:12710   */\n      swap1\n      pop\n        /* \"#utility.yul\":12630:12716   */\n      swap2\n      swap1\n      pop\n      jump\t// out\n        /* \"#utility.yul\":12722:12955   */\n    tag_106:\n        /* \"#utility.yul\":12761:12764   */\n      0x00\n        /* \"#utility.yul\":12784:12808   */\n      tag_350\n        /* \"#utility.yul\":12802:12807   */\n      dup3\n        /* \"#utility.yul\":12784:12808   */\n      tag_291\n      jump\t// in\n    tag_350:\n        /* \"#utility.yul\":12775:12808   */\n      swap2\n      pop\n        /* \"#utility.yul\":12830:12896   */\n      0xffffffffffffffffffffffffffffffffffffffffffffffffffffffffffffffff\n        /* \"#utility.yul\":12823:12828   */\n      dup3\n        /* \"#utility.yul\":12820:12897   */\n      eq\n        /* \"#utility.yul\":12817:12920   */\n      iszero\n      tag_351\n      jumpi\n        /* \"#utility.yul\":12900:12918   */\n      tag_352\n      tag_332\n      jump\t// in\n    tag_352:\n        /* \"#utility.yul\":12817:12920   */\n    tag_351:\n        /* \"#utility.yul\":12947:12948   */\n      0x01\n        /* \"#utility.yul\":12940:12945   */\n      dup3\n        /* \"#utility.yul\":12936:12949   */\n      add\n        /* \"#utility.yul\":12929:12949   */\n      swap1\n      pop\n        /* \"#utility.yul\":12722:12955   */\n      swap2\n      swap1\n      pop\n      jump\t// out\n        /* \"#utility.yul\":12961:13128   */\n    tag_163:\n        /* \"#utility.yul\":12998:13001   */\n      0x00\n        /* \"#utility.yul\":13021:13043   */\n      tag_354\n        /* \"#utility.yul\":13037:13042   */\n      dup3\n        /* \"#utility.yul\":13021:13043   */\n      tag_347\n      jump\t// in\n    tag_354:\n        /* \"#utility.yul\":13012:13043   */\n      swap2\n      pop\n        /* \"#utility.yul\":13065:13069   */\n      0xff\n        /* \"#utility.yul\":13058:13063   */\n      dup3\n        /* \"#utility.yul\":13055:13070   */\n      eq\n        /* \"#utility.yul\":13052:13093   */\n      iszero\n      tag_355\n      jumpi\n        /* \"#utility.yul\":13073:13091   */\n      tag_356\n      tag_332\n      jump\t// in\n    tag_356:\n        /* \"#utility.yul\":13052:13093   */\n    tag_355:\n        /* \"#utility.yul\":13120:13121   */\n      0x01\n        /* \"#utility.yul\":13113:13118   */\n      dup3\n        /* \"#utility.yul\":13109:13122   */\n      add\n        /* \"#utility.yul\":13102:13122   */\n      swap1\n      pop\n        /* \"#utility.yul\":12961:13128   */\n      swap2\n      swap1\n      pop\n      jump\t// out\n        /* \"#utility.yul\":13134:13314   */\n    tag_332:\n        /* \"#utility.yul\":13182:13259   */\n      0x4e487b7100000000000000000000000000000000000000000000000000000000\n        /* \"#utility.yul\":13179:13180   */\n      0x00\n        /* \"#utility.yul\":13172:13260   */\n      mstore\n        /* \"#utility.yul\":13279:13283   */\n      0x11\n        /* \"#utility.yul\":13276:13277   */\n      0x04\n        /* \"#utility.yul\":13269:13284   */\n      mstore\n        /* \"#utility.yul\":13303:13307   */\n      0x24\n        /* \"#utility.yul\":13300:13301   */\n      0x00\n        /* \"#utility.yul\":13293:13308   */\n      revert\n        /* \"#utility.yul\":13320:13500   */\n    tag_326:\n        /* \"#utility.yul\":13368:13445   */\n      0x4e487b7100000000000000000000000000000000000000000000000000000000\n        /* \"#utility.yul\":13365:13366   */\n      0x00\n        /* \"#utility.yul\":13358:13446   */\n      mstore\n        /* \"#utility.yul\":13465:13469   */\n      0x12\n        /* \"#utility.yul\":13462:13463   */\n      0x04\n        /* \"#utility.yul\":13455:13470   */\n      mstore\n        /* \"#utility.yul\":13489:13493   */\n      0x24\n        /* \"#utility.yul\":13486:13487   */\n      0x00\n        /* \"#utility.yul\":13479:13494   */\n      revert\n        /* \"#utility.yul\":13506:13686   */\n    tag_102:\n        /* \"#utility.yul\":13554:13631   */\n      0x4e487b7100000000000000000000000000000000000000000000000000000000\n        /* \"#utility.yul\":13551:13552   */\n      0x00\n        /* \"#utility.yul\":13544:13632   */\n      mstore\n        /* \"#utility.yul\":13651:13655   */\n      0x32\n        /* \"#utility.yul\":13648:13649   */\n      0x04\n        /* \"#utility.yul\":13641:13656   */\n      mstore\n        /* \"#utility.yul\":13675:13679   */\n      0x24\n        /* \"#utility.yul\":13672:13673   */\n      0x00\n        /* \"#utility.yul\":13665:13680   */\n      revert\n        /* \"#utility.yul\":13815:13932   */\n    tag_220:\n        /* \"#utility.yul\":13924:13925   */\n      0x00\n        /* \"#utility.yul\":13921:13922   */\n      dup1\n        /* \"#utility.yul\":13914:13926   */\n      revert\n        /* \"#utility.yul\":13938:14250   */\n    tag_232:\n        /* \"#utility.yul\":14078:14112   */\n      0x73746f7265206d757374206d6f7265207468616e2030207765692c20696e6465\n        /* \"#utility.yul\":14074:14075   */\n      0x00\n        /* \"#utility.yul\":14066:14072   */\n      dup3\n        /* \"#utility.yul\":14062:14076   */\n      add\n        /* \"#utility.yul\":14055:14113   */\n      mstore\n        /* \"#utility.yul\":14147:14181   */\n      0x656420746865206761732066656520646f206e6f742064656372656173652069\n        /* \"#utility.yul\":14142:14144   */\n      0x20\n        /* \"#utility.yul\":14134:14140   */\n      dup3\n        /* \"#utility.yul\":14130:14145   */\n      add\n        /* \"#utility.yul\":14123:14182   */\n      mstore\n        /* \"#utility.yul\":14216:14242   */\n      0x6620796f7520746f70696e2061206c6f772076616c75652e0000000000000000\n        /* \"#utility.yul\":14211:14213   */\n      0x40\n        /* \"#utility.yul\":14203:14209   */\n      dup3\n        /* \"#utility.yul\":14199:14214   */\n      add\n        /* \"#utility.yul\":14192:14243   */\n      mstore\n        /* \"#utility.yul\":13938:14250   */\n      pop\n      jump\t// out\n        /* \"#utility.yul\":14256:14490   */\n    tag_237:\n        /* \"#utility.yul\":14396:14430   */\n      0x74686572652069736e277420616e792077697468647277616c73207761697420\n        /* \"#utility.yul\":14392:14393   */\n      0x00\n        /* \"#utility.yul\":14384:14390   */\n      dup3\n        /* \"#utility.yul\":14380:14394   */\n      add\n        /* \"#utility.yul\":14373:14431   */\n      mstore\n        /* \"#utility.yul\":14465:14482   */\n      0x666f722063616e63656c6174696f6e0000000000000000000000000000000000\n        /* \"#utility.yul\":14460:14462   */\n      0x20\n        /* \"#utility.yul\":14452:14458   */\n      dup3\n        /* \"#utility.yul\":14448:14463   */\n      add\n        /* \"#utility.yul\":14441:14483   */\n      mstore\n        /* \"#utility.yul\":14256:14490   */\n      pop\n      jump\t// out\n        /* \"#utility.yul\":14496:14741   */\n    tag_242:\n        /* \"#utility.yul\":14636:14670   */\n      0x6f6e6c792074686520636f756e746572207061727479206f6620696e69746961\n        /* \"#utility.yul\":14632:14633   */\n      0x00\n        /* \"#utility.yul\":14624:14630   */\n      dup3\n        /* \"#utility.yul\":14620:14634   */\n      add\n        /* \"#utility.yul\":14613:14671   */\n      mstore\n        /* \"#utility.yul\":14705:14733   */\n      0x746f722063616e2063616c6c20746869732066756e6374696f6e000000000000\n        /* \"#utility.yul\":14700:14702   */\n      0x20\n        /* \"#utility.yul\":14692:14698   */\n      dup3\n        /* \"#utility.yul\":14688:14703   */\n      add\n        /* \"#utility.yul\":14681:14734   */\n      mstore\n        /* \"#utility.yul\":14496:14741   */\n      pop\n      jump\t// out\n        /* \"#utility.yul\":14747:14980   */\n    tag_247:\n        /* \"#utility.yul\":14887:14921   */\n      0x796f752068617665207369676e656420666f722063616e63656c6c6174696f6e\n        /* \"#utility.yul\":14883:14884   */\n      0x00\n        /* \"#utility.yul\":14875:14881   */\n      dup3\n        /* \"#utility.yul\":14871:14885   */\n      add\n        /* \"#utility.yul\":14864:14922   */\n      mstore\n        /* \"#utility.yul\":14956:14972   */\n      0x2c20646f6e277420726570656174000000000000000000000000000000000000\n        /* \"#utility.yul\":14951:14953   */\n      0x20\n        /* \"#utility.yul\":14943:14949   */\n      dup3\n        /* \"#utility.yul\":14939:14954   */\n      add\n        /* \"#utility.yul\":14932:14973   */\n      mstore\n        /* \"#utility.yul\":14747:14980   */\n      pop\n      jump\t// out\n        /* \"#utility.yul\":14986:15157   */\n    tag_252:\n        /* \"#utility.yul\":15126:15149   */\n      0x696e76616c696420746172676574416464726573730000000000000000000000\n        /* \"#utility.yul\":15122:15123   */\n      0x00\n        /* \"#utility.yul\":15114:15120   */\n      dup3\n        /* \"#utility.yul\":15110:15124   */\n      add\n        /* \"#utility.yul\":15103:15150   */\n      mstore\n        /* \"#utility.yul\":14986:15157   */\n      pop\n      jump\t// out\n        /* \"#utility.yul\":15163:15409   */\n    tag_257:\n        /* \"#utility.yul\":15303:15337   */\n      0x6f6e6c7920706c6174666f726d206163636f756e7420697473656c662063616e\n        /* \"#utility.yul\":15299:15300   */\n      0x00\n        /* \"#utility.yul\":15291:15297   */\n      dup3\n        /* \"#utility.yul\":15287:15301   */\n      add\n        /* \"#utility.yul\":15280:15338   */\n      mstore\n        /* \"#utility.yul\":15372:15401   */\n      0x206368616e676520697420746f206f74686572206163636f756e740000000000\n        /* \"#utility.yul\":15367:15369   */\n      0x20\n        /* \"#utility.yul\":15359:15365   */\n      dup3\n        /* \"#utility.yul\":15355:15370   */\n      add\n        /* \"#utility.yul\":15348:15402   */\n      mstore\n        /* \"#utility.yul\":15163:15409   */\n      pop\n      jump\t// out\n        /* \"#utility.yul\":15415:15646   */\n    tag_262:\n        /* \"#utility.yul\":15555:15589   */\n      0x7468657265206973206e6f20776974686472617720616374696f6e2077616974\n        /* \"#utility.yul\":15551:15552   */\n      0x00\n        /* \"#utility.yul\":15543:15549   */\n      dup3\n        /* \"#utility.yul\":15539:15553   */\n      add\n        /* \"#utility.yul\":15532:15590   */\n      mstore\n        /* \"#utility.yul\":15624:15638   */\n      0x696e6720666f72207369676e0000000000000000000000000000000000000000\n        /* \"#utility.yul\":15619:15621   */\n      0x20\n        /* \"#utility.yul\":15611:15617   */\n      dup3\n        /* \"#utility.yul\":15607:15622   */\n      add\n        /* \"#utility.yul\":15600:15639   */\n      mstore\n        /* \"#utility.yul\":15415:15646   */\n      pop\n      jump\t// out\n        /* \"#utility.yul\":15652:15895   */\n    tag_267:\n        /* \"#utility.yul\":15792:15826   */\n      0x796f752068617665207369676e65642074686973207769746864726177207072\n        /* \"#utility.yul\":15788:15789   */\n      0x00\n        /* \"#utility.yul\":15780:15786   */\n      dup3\n        /* \"#utility.yul\":15776:15790   */\n      add\n        /* \"#utility.yul\":15769:15827   */\n      mstore\n        /* \"#utility.yul\":15861:15887   */\n      0x6f636573732c20706c7a20646f6e2774207265706561742e0000000000000000\n        /* \"#utility.yul\":15856:15858   */\n      0x20\n        /* \"#utility.yul\":15848:15854   */\n      dup3\n        /* \"#utility.yul\":15844:15859   */\n      add\n        /* \"#utility.yul\":15837:15888   */\n      mstore\n        /* \"#utility.yul\":15652:15895   */\n      pop\n      jump\t// out\n        /* \"#utility.yul\":15901:16080   */\n    tag_272:\n        /* \"#utility.yul\":16041:16072   */\n      0x7072652070726f6365737320686173206e6f74206265656e206f766572000000\n        /* \"#utility.yul\":16037:16038   */\n      0x00\n        /* \"#utility.yul\":16029:16035   */\n      dup3\n        /* \"#utility.yul\":16025:16039   */\n      add\n        /* \"#utility.yul\":16018:16073   */\n      mstore\n        /* \"#utility.yul\":15901:16080   */\n      pop\n      jump\t// out\n        /* \"#utility.yul\":16086:16311   */\n    tag_277:\n        /* \"#utility.yul\":16226:16260   */\n      0x6f6e6c7920636f6c6c61626f7261746f7273206861766520746865207065726d\n        /* \"#utility.yul\":16222:16223   */\n      0x00\n        /* \"#utility.yul\":16214:16220   */\n      dup3\n        /* \"#utility.yul\":16210:16224   */\n      add\n        /* \"#utility.yul\":16203:16261   */\n      mstore\n        /* \"#utility.yul\":16295:16303   */\n      0x697373696f6e0000000000000000000000000000000000000000000000000000\n        /* \"#utility.yul\":16290:16292   */\n      0x20\n        /* \"#utility.yul\":16282:16288   */\n      dup3\n        /* \"#utility.yul\":16278:16293   */\n      add\n        /* \"#utility.yul\":16271:16304   */\n      mstore\n        /* \"#utility.yul\":16086:16311   */\n      pop\n      jump\t// out\n        /* \"#utility.yul\":16317:16546   */\n    tag_282:\n        /* \"#utility.yul\":16457:16491   */\n      0x6f6e6c792074686520696e69746961746f722063616e2063616e63656c207468\n        /* \"#utility.yul\":16453:16454   */\n      0x00\n        /* \"#utility.yul\":16445:16451   */\n      dup3\n        /* \"#utility.yul\":16441:16455   */\n      add\n        /* \"#utility.yul\":16434:16492   */\n      mstore\n        /* \"#utility.yul\":16526:16538   */\n      0x69732070726f6365737300000000000000000000000000000000000000000000\n        /* \"#utility.yul\":16521:16523   */\n      0x20\n        /* \"#utility.yul\":16513:16519   */\n      dup3\n        /* \"#utility.yul\":16509:16524   */\n      add\n        /* \"#utility.yul\":16502:16539   */\n      mstore\n        /* \"#utility.yul\":16317:16546   */\n      pop\n      jump\t// out\n        /* \"#utility.yul\":16552:16783   */\n    tag_287:\n        /* \"#utility.yul\":16692:16726   */\n      0x77697468647261772062616c616e636520636f756c64206e6f74206d6f726520\n        /* \"#utility.yul\":16688:16689   */\n      0x00\n        /* \"#utility.yul\":16680:16686   */\n      dup3\n        /* \"#utility.yul\":16676:16690   */\n      add\n        /* \"#utility.yul\":16669:16727   */\n      mstore\n        /* \"#utility.yul\":16761:16775   */\n      0x7468616e2062616c616e63650000000000000000000000000000000000000000\n        /* \"#utility.yul\":16756:16758   */\n      0x20\n        /* \"#utility.yul\":16748:16754   */\n      dup3\n        /* \"#utility.yul\":16744:16759   */\n      add\n        /* \"#utility.yul\":16737:16776   */\n      mstore\n        /* \"#utility.yul\":16552:16783   */\n      pop\n      jump\t// out\n        /* \"#utility.yul\":16789:16911   */\n    tag_208:\n        /* \"#utility.yul\":16862:16886   */\n      tag_376\n        /* \"#utility.yul\":16880:16885   */\n      dup2\n        /* \"#utility.yul\":16862:16886   */\n      tag_338\n      jump\t// in\n    tag_376:\n        /* \"#utility.yul\":16855:16860   */\n      dup2\n        /* \"#utility.yul\":16852:16887   */\n      eq\n        /* \"#utility.yul\":16842:16905   */\n      tag_377\n      jumpi\n        /* \"#utility.yul\":16901:16902   */\n      0x00\n        /* \"#utility.yul\":16898:16899   */\n      dup1\n        /* \"#utility.yul\":16891:16903   */\n      revert\n        /* \"#utility.yul\":16842:16905   */\n    tag_377:\n        /* \"#utility.yul\":16789:16911   */\n      pop\n      jump\t// out\n        /* \"#utility.yul\":16917:17055   */\n    tag_212:\n        /* \"#utility.yul\":16998:17030   */\n      tag_379\n        /* \"#utility.yul\":17024:17029   */\n      dup2\n        /* \"#utility.yul\":16998:17030   */\n      tag_342\n      jump\t// in\n    tag_379:\n        /* \"#utility.yul\":16991:16996   */\n      dup2\n        /* \"#utility.yul\":16988:17031   */\n      eq\n        /* \"#utility.yul\":16978:17049   */\n      tag_380\n      jumpi\n        /* \"#utility.yul\":17045:17046   */\n      0x00\n        /* \"#utility.yul\":17042:17043   */\n      dup1\n        /* \"#utility.yul\":17035:17047   */\n      revert\n        /* \"#utility.yul\":16978:17049   */\n    tag_380:\n        /* \"#utility.yul\":16917:17055   */\n      pop\n      jump\t// out\n        /* \"#utility.yul\":17061:17183   */\n    tag_216:\n        /* \"#utility.yul\":17134:17158   */\n      tag_382\n        /* \"#utility.yul\":17152:17157   */\n      dup2\n        /* \"#utility.yul\":17134:17158   */\n      tag_291\n      jump\t// in\n    tag_382:\n        /* \"#utility.yul\":17127:17132   */\n      dup2\n        /* \"#utility.yul\":17124:17159   */\n      eq\n        /* \"#utility.yul\":17114:17177   */\n      tag_383\n      jumpi\n        /* \"#utility.yul\":17173:17174   */\n      0x00\n        /* \"#utility.yul\":17170:17171   */\n      dup1\n        /* \"#utility.yul\":17163:17175   */\n      revert\n        /* \"#utility.yul\":17114:17177   */\n    tag_383:\n        /* \"#utility.yul\":17061:17183   */\n      pop\n      jump\t// out\n\n    auxdata: 0xa26469706673582212200576d423d7181a2cac06a46d7df609e3c3ce52e7d42e28c48249b37a6097f1b564736f6c63430008070033\n}\n",
				"bytecode": {
					"linkReferences": {},
					"object": "60806040523480156200001157600080fd5b5060405162002694380380620026948339818101604052810190620000379190620004e7565b336000806101000a81548173ffffffffffffffffffffffffffffffffffffffff021916908373ffffffffffffffffffffffffffffffffffffffff1602179055506000825111620000be576040517f08c379a0000000000000000000000000000000000000000000000000000000008152600401620000b590620005c2565b60405180910390fd5b620000ce6200020b60201b60201c565b62000110576040517f08c379a00000000000000000000000000000000000000000000000000000000081526004016200010790620005e4565b60405180910390fd5b60008160ff1611801562000128575081518160ff1611155b6200016a576040517f08c379a0000000000000000000000000000000000000000000000000000000008152600401620001619062000606565b60405180910390fd5b8160019080519060200190620001829291906200035d565b5080600260006101000a81548160ff021916908360ff16021790555073dd870fa1b7c4700f2bd7f44238821c26f7392148600b60006101000a81548173ffffffffffffffffffffffffffffffffffffffff021916908373ffffffffffffffffffffffffffffffffffffffff16021790555060146009819055506005600a819055505050620009f1565b6000806000905060005b600180549050811015620003545760018080549050620002369190620006ee565b811415620002445762000354565b600060018262000255919062000691565b90505b6001805490508110156200033d57600181815481106200027d576200027c62000827565b5b9060005260206000200160009054906101000a900473ffffffffffffffffffffffffffffffffffffffff1673ffffffffffffffffffffffffffffffffffffffff1660018381548110620002d557620002d462000827565b5b9060005260206000200160009054906101000a900473ffffffffffffffffffffffffffffffffffffffff1673ffffffffffffffffffffffffffffffffffffffff1614156200032757600192506200033d565b80806200033490620007aa565b91505062000258565b5080806200034b90620007aa565b91505062000215565b50801591505090565b828054828255906000526020600020908101928215620003d9579160200282015b82811115620003d85782518260006101000a81548173ffffffffffffffffffffffffffffffffffffffff021916908373ffffffffffffffffffffffffffffffffffffffff160217905550916020019190600101906200037e565b5b509050620003e89190620003ec565b5090565b5b8082111562000407576000816000905550600101620003ed565b5090565b6000620004226200041c8462000651565b62000628565b905080838252602082019050828560208602820111156200044857620004476200088a565b5b60005b858110156200047c578162000461888262000486565b8452602084019350602083019250506001810190506200044b565b5050509392505050565b6000815190506200049781620009bd565b92915050565b600082601f830112620004b557620004b462000885565b5b8151620004c78482602086016200040b565b91505092915050565b600081519050620004e181620009d7565b92915050565b6000806040838503121562000501576200050062000894565b5b600083015167ffffffffffffffff8111156200052257620005216200088f565b5b62000530858286016200049d565b92505060206200054385828601620004d0565b9150509250929050565b60006200055c60248362000680565b91506200056982620008aa565b604082019050919050565b60006200058360278362000680565b91506200059082620008f9565b604082019050919050565b6000620005aa60508362000680565b9150620005b78262000948565b606082019050919050565b60006020820190508181036000830152620005dd816200054d565b9050919050565b60006020820190508181036000830152620005ff8162000574565b9050919050565b6000602082019050818103600083015262000621816200059b565b9050919050565b60006200063462000647565b905062000642828262000774565b919050565b6000604051905090565b600067ffffffffffffffff8211156200066f576200066e62000856565b5b602082029050602081019050919050565b600082825260208201905092915050565b60006200069e826200075d565b9150620006ab836200075d565b9250827fffffffffffffffffffffffffffffffffffffffffffffffffffffffffffffffff03821115620006e357620006e2620007f8565b5b828201905092915050565b6000620006fb826200075d565b915062000708836200075d565b9250828210156200071e576200071d620007f8565b5b828203905092915050565b600062000736826200073d565b9050919050565b600073ffffffffffffffffffffffffffffffffffffffff82169050919050565b6000819050919050565b600060ff82169050919050565b6200077f8262000899565b810181811067ffffffffffffffff82111715620007a157620007a062000856565b5b80604052505050565b6000620007b7826200075d565b91507fffffffffffffffffffffffffffffffffffffffffffffffffffffffffffffffff821415620007ed57620007ec620007f8565b5b600182019050919050565b7f4e487b7100000000000000000000000000000000000000000000000000000000600052601160045260246000fd5b7f4e487b7100000000000000000000000000000000000000000000000000000000600052603260045260246000fd5b7f4e487b7100000000000000000000000000000000000000000000000000000000600052604160045260246000fd5b600080fd5b600080fd5b600080fd5b600080fd5b6000601f19601f8301169050919050565b7f616c6c20636f6c6c61626f7261746f727320636f756e74206174206c6561737460008201527f206f6e6500000000000000000000000000000000000000000000000000000000602082015250565b7f74686520636f6c6c61626f7261746f7273206d757374206e6f2062652064757060008201527f6c69636174656400000000000000000000000000000000000000000000000000602082015250565b7f6174206c65617374207369676e20636f756e74206d757374206d6f726520746860008201527f616e203020616e64206c657373207468616e206f7220657175616c7320636f6c60208201527f6c61626f7261746f727320636f756e7400000000000000000000000000000000604082015250565b620009c88162000729565b8114620009d457600080fd5b50565b620009e28162000767565b8114620009ee57600080fd5b50565b611c938062000a016000396000f3fe6080604052600436106100895760003560e01c80633a0a197b116100595780633a0a197b1461019e578063b517e0b4146101c9578063bc44e739146101e0578063ca3ea43f14610209578063cfa4a5f61461023457610117565b80623bdf3e1461011c57806312065fe0146101455780631535430b14610170578063352ce0501461018757610117565b3661011757600034116100d1576040517f08c379a00000000000000000000000000000000000000000000000000000000081526004016100c8906114bf565b60405180910390fd5b343373ffffffffffffffffffffffffffffffffffffffff167fe1fffcc4923d04b559f4d29a8bfc6cda04eb5b0d3c460751c2402c5c5cc9109c60405160405180910390a3005b600080fd5b34801561012857600080fd5b50610143600480360381019061013e91906112cc565b61025f565b005b34801561015157600080fd5b5061015a610511565b604051610167919061163f565b60405180910390f35b34801561017c57600080fd5b50610185610519565b005b34801561019357600080fd5b5061019c610876565b005b3480156101aa57600080fd5b506101b36109c5565b6040516101c0919061163f565b60405180910390f35b3480156101d557600080fd5b506101de6109cb565b005b3480156101ec57600080fd5b506102076004803603810190610202919061129f565b610b11565b005b34801561021557600080fd5b5061021e610be5565b60405161022b919061163f565b60405180910390f35b34801561024057600080fd5b50610249610beb565b604051610256919061163f565b60405180910390f35b610267610bf1565b6102a6576040517f08c379a000000000000000000000000000000000000000000000000000000000815260040161029d906115df565b60405180910390fd5b6000600354146102eb576040517f08c379a00000000000000000000000000000000000000000000000000000000081526004016102e2906115bf565b60405180910390fd5b6102f3610511565b821115610335576040517f08c379a000000000000000000000000000000000000000000000000000000000815260040161032c9061161f565b60405180910390fd5b600073ffffffffffffffffffffffffffffffffffffffff168173ffffffffffffffffffffffffffffffffffffffff1614156103a5576040517f08c379a000000000000000000000000000000000000000000000000000000000815260040161039c9061153f565b60405180910390fd5b33600560006101000a81548173ffffffffffffffffffffffffffffffffffffffff021916908373ffffffffffffffffffffffffffffffffffffffff1602179055508160038190555080600460006101000a81548173ffffffffffffffffffffffffffffffffffffffff021916908373ffffffffffffffffffffffffffffffffffffffff1602179055506006339080600181540180825580915050600190039060005260206000200160009091909190916101000a81548173ffffffffffffffffffffffffffffffffffffffff021916908373ffffffffffffffffffffffffffffffffffffffff16021790555081600560009054906101000a900473ffffffffffffffffffffffffffffffffffffffff1673ffffffffffffffffffffffffffffffffffffffff167f01b5cfde4f816bb2ea1f47ebb11ff737e423a4556e329e913743a9ad524e58e560405160405180910390a36104ff610c88565b1561050d5761050c610e14565b5b5050565b600047905090565b610521610bf1565b610560576040517f08c379a0000000000000000000000000000000000000000000000000000000008152600401610557906115df565b60405180910390fd5b600560009054906101000a900473ffffffffffffffffffffffffffffffffffffffff1673ffffffffffffffffffffffffffffffffffffffff163373ffffffffffffffffffffffffffffffffffffffff1614156105f1576040517f08c379a00000000000000000000000000000000000000000000000000000000081526004016105e8906114ff565b60405180910390fd5b610681600780548060200260200160405190810160405280929190818152602001828054801561067657602002820191906000526020600020905b8160009054906101000a900473ffffffffffffffffffffffffffffffffffffffff1673ffffffffffffffffffffffffffffffffffffffff168152602001906001019080831161062c575b505050505033610f89565b156106c1576040517f08c379a00000000000000000000000000000000000000000000000000000000081526004016106b89061151f565b60405180910390fd5b600060035411610706576040517f08c379a00000000000000000000000000000000000000000000000000000000081526004016106fd906114df565b60405180910390fd5b6007339080600181540180825580915050600190039060005260206000200160009091909190916101000a81548173ffffffffffffffffffffffffffffffffffffffff021916908373ffffffffffffffffffffffffffffffffffffffff1602179055506000805b60078054905081101561080e57600073ffffffffffffffffffffffffffffffffffffffff16600782815481106107a6576107a5611856565b5b9060005260206000200160009054906101000a900473ffffffffffffffffffffffffffffffffffffffff1673ffffffffffffffffffffffffffffffffffffffff16146107fb5781806107f790611785565b9250505b808061080690611785565b91505061076d565b503373ffffffffffffffffffffffffffffffffffffffff167f33fe377a7c23516384ae9a0a342f124fa3956a85f8438b4d483eb17400228f3760405160405180910390a26001808054905061086391906116f6565b81141561087357610872611011565b5b50565b61087e610bf1565b6108bd576040517f08c379a00000000000000000000000000000000000000000000000000000000081526004016108b4906115df565b60405180910390fd5b600060035411610902576040517f08c379a00000000000000000000000000000000000000000000000000000000081526004016108f99061157f565b60405180910390fd5b61090a6110ff565b1561094a576040517f08c379a00000000000000000000000000000000000000000000000000000000081526004016109419061159f565b60405180910390fd5b6006339080600181540180825580915050600190039060005260206000200160009091909190916101000a81548173ffffffffffffffffffffffffffffffffffffffff021916908373ffffffffffffffffffffffffffffffffffffffff1602179055506109b5610c88565b156109c3576109c2610e14565b5b565b60095481565b6109d3610bf1565b610a12576040517f08c379a0000000000000000000000000000000000000000000000000000000008152600401610a09906115df565b60405180910390fd5b600560009054906101000a900473ffffffffffffffffffffffffffffffffffffffff1673ffffffffffffffffffffffffffffffffffffffff163373ffffffffffffffffffffffffffffffffffffffff1614610aa2576040517f08c379a0000000000000000000000000000000000000000000000000000000008152600401610a99906115ff565b60405180910390fd5b600560009054906101000a900473ffffffffffffffffffffffffffffffffffffffff1673ffffffffffffffffffffffffffffffffffffffff167fa67a2fa60466795987a45316ab86ab19936ce45fa62c95b699807909ec14828960405160405180910390a2610b0f611011565b565b600b60009054906101000a900473ffffffffffffffffffffffffffffffffffffffff1673ffffffffffffffffffffffffffffffffffffffff163373ffffffffffffffffffffffffffffffffffffffff1614610ba1576040517f08c379a0000000000000000000000000000000000000000000000000000000008152600401610b989061155f565b60405180910390fd5b80600b60006101000a81548173ffffffffffffffffffffffffffffffffffffffff021916908373ffffffffffffffffffffffffffffffffffffffff16021790555050565b60085481565b600a5481565b6000610c836001805480602002602001604051908101604052809291908181526020018280548015610c7857602002820191906000526020600020905b8160009054906101000a900473ffffffffffffffffffffffffffffffffffffffff1673ffffffffffffffffffffffffffffffffffffffff1681526020019060010190808311610c2e575b505050505033610f89565b905090565b6000806006805480602002602001604051908101604052809291908181526020018280548015610d0d57602002820191906000526020600020905b8160009054906101000a900473ffffffffffffffffffffffffffffffffffffffff1673ffffffffffffffffffffffffffffffffffffffff1681526020019060010190808311610cc3575b505050505090506000805b8251811015610df35760005b600180549050811015610ddf57838281518110610d4457610d43611856565b5b602002602001015173ffffffffffffffffffffffffffffffffffffffff1660018281548110610d7657610d75611856565b5b9060005260206000200160009054906101000a900473ffffffffffffffffffffffffffffffffffffffff1673ffffffffffffffffffffffffffffffffffffffff161415610dcc578280610dc8906117ce565b9350505b8080610dd790611785565b915050610d24565b508080610deb90611785565b915050610d18565b50600260009054906101000a900460ff1660ff168160ff1610159250505090565b600060035490506000600381905550600460009054906101000a900473ffffffffffffffffffffffffffffffffffffffff1673ffffffffffffffffffffffffffffffffffffffff166108fc829081150290604051600060405180830381858888f19350505050158015610e8b573d6000803e3d6000fd5b5060086000815480929190610e9f90611785565b9190505550600460006101000a81549073ffffffffffffffffffffffffffffffffffffffff021916905560066000610ed79190611222565b600560006101000a81549073ffffffffffffffffffffffffffffffffffffffff021916905560076000610f0a9190611222565b80600460009054906101000a900473ffffffffffffffffffffffffffffffffffffffff1673ffffffffffffffffffffffffffffffffffffffff167f884edad9ce6fa2440d8a54cc123490eb96d2768479d49ff9c7366125a942436460405160405180910390a3600a546008541115610f8657610f8581611196565b5b50565b6000806000905060005b8451811015611006578373ffffffffffffffffffffffffffffffffffffffff16858281518110610fc657610fc5611856565b5b602002602001015173ffffffffffffffffffffffffffffffffffffffff161415610ff35760019150611006565b8080610ffe90611785565b915050610f93565b508091505092915050565b600060035490506000600460009054906101000a900473ffffffffffffffffffffffffffffffffffffffff1690506000600381905550600560006101000a81549073ffffffffffffffffffffffffffffffffffffffff0219169055600460006101000a81549073ffffffffffffffffffffffffffffffffffffffff02191690556006600061109f9190611222565b600760006110ad9190611222565b8073ffffffffffffffffffffffffffffffffffffffff167f36ea5cd5608625e789af0282eecdb4eae1cb7c1cf6d0ec3f9a84f35be850260b836040516110f3919061163f565b60405180910390a25050565b6000611191600680548060200260200160405190810160405280929190818152602001828054801561118657602002820191906000526020600020905b8160009054906101000a900473ffffffffffffffffffffffffffffffffffffffff1673ffffffffffffffffffffffffffffffffffffffff168152602001906001019080831161113c575b505050505033610f89565b905090565b6000600954612710836111a9919061166b565b6111b3919061169c565b9050600b60009054906101000a900473ffffffffffffffffffffffffffffffffffffffff1673ffffffffffffffffffffffffffffffffffffffff166108fc829081150290604051600060405180830381858888f1935050505015801561121d573d6000803e3d6000fd5b505050565b50805460008255906000526020600020908101906112409190611243565b50565b5b8082111561125c576000816000905550600101611244565b5090565b60008135905061126f81611c18565b92915050565b60008135905061128481611c2f565b92915050565b60008135905061129981611c46565b92915050565b6000602082840312156112b5576112b4611885565b5b60006112c384828501611260565b91505092915050565b600080604083850312156112e3576112e2611885565b5b60006112f18582860161128a565b925050602061130285828601611275565b9150509250929050565b600061131960588361165a565b91506113248261188a565b606082019050919050565b600061133c602f8361165a565b9150611347826118ff565b604082019050919050565b600061135f603a8361165a565b915061136a8261194e565b604082019050919050565b6000611382602e8361165a565b915061138d8261199d565b604082019050919050565b60006113a560158361165a565b91506113b0826119ec565b602082019050919050565b60006113c8603b8361165a565b91506113d382611a15565b604082019050919050565b60006113eb602c8361165a565b91506113f682611a64565b604082019050919050565b600061140e60388361165a565b915061141982611ab3565b604082019050919050565b6000611431601d8361165a565b915061143c82611b02565b602082019050919050565b600061145460268361165a565b915061145f82611b2b565b604082019050919050565b6000611477602a8361165a565b915061148282611b7a565b604082019050919050565b600061149a602c8361165a565b91506114a582611bc9565b604082019050919050565b6114b98161176e565b82525050565b600060208201905081810360008301526114d88161130c565b9050919050565b600060208201905081810360008301526114f88161132f565b9050919050565b6000602082019050818103600083015261151881611352565b9050919050565b6000602082019050818103600083015261153881611375565b9050919050565b6000602082019050818103600083015261155881611398565b9050919050565b60006020820190508181036000830152611578816113bb565b9050919050565b60006020820190508181036000830152611598816113de565b9050919050565b600060208201905081810360008301526115b881611401565b9050919050565b600060208201905081810360008301526115d881611424565b9050919050565b600060208201905081810360008301526115f881611447565b9050919050565b600060208201905081810360008301526116188161146a565b9050919050565b600060208201905081810360008301526116388161148d565b9050919050565b600060208201905061165460008301846114b0565b92915050565b600082825260208201905092915050565b60006116768261176e565b91506116818361176e565b92508261169157611690611827565b5b828204905092915050565b60006116a78261176e565b91506116b28361176e565b9250817fffffffffffffffffffffffffffffffffffffffffffffffffffffffffffffffff04831182151516156116eb576116ea6117f8565b5b828202905092915050565b60006117018261176e565b915061170c8361176e565b92508282101561171f5761171e6117f8565b5b828203905092915050565b60006117358261174e565b9050919050565b60006117478261174e565b9050919050565b600073ffffffffffffffffffffffffffffffffffffffff82169050919050565b6000819050919050565b600060ff82169050919050565b60006117908261176e565b91507fffffffffffffffffffffffffffffffffffffffffffffffffffffffffffffffff8214156117c3576117c26117f8565b5b600182019050919050565b60006117d982611778565b915060ff8214156117ed576117ec6117f8565b5b600182019050919050565b7f4e487b7100000000000000000000000000000000000000000000000000000000600052601160045260246000fd5b7f4e487b7100000000000000000000000000000000000000000000000000000000600052601260045260246000fd5b7f4e487b7100000000000000000000000000000000000000000000000000000000600052603260045260246000fd5b600080fd5b7f73746f7265206d757374206d6f7265207468616e2030207765692c20696e646560008201527f656420746865206761732066656520646f206e6f74206465637265617365206960208201527f6620796f7520746f70696e2061206c6f772076616c75652e0000000000000000604082015250565b7f74686572652069736e277420616e792077697468647277616c7320776169742060008201527f666f722063616e63656c6174696f6e0000000000000000000000000000000000602082015250565b7f6f6e6c792074686520636f756e746572207061727479206f6620696e6974696160008201527f746f722063616e2063616c6c20746869732066756e6374696f6e000000000000602082015250565b7f796f752068617665207369676e656420666f722063616e63656c6c6174696f6e60008201527f2c20646f6e277420726570656174000000000000000000000000000000000000602082015250565b7f696e76616c696420746172676574416464726573730000000000000000000000600082015250565b7f6f6e6c7920706c6174666f726d206163636f756e7420697473656c662063616e60008201527f206368616e676520697420746f206f74686572206163636f756e740000000000602082015250565b7f7468657265206973206e6f20776974686472617720616374696f6e207761697460008201527f696e6720666f72207369676e0000000000000000000000000000000000000000602082015250565b7f796f752068617665207369676e6564207468697320776974686472617720707260008201527f6f636573732c20706c7a20646f6e2774207265706561742e0000000000000000602082015250565b7f7072652070726f6365737320686173206e6f74206265656e206f766572000000600082015250565b7f6f6e6c7920636f6c6c61626f7261746f7273206861766520746865207065726d60008201527f697373696f6e0000000000000000000000000000000000000000000000000000602082015250565b7f6f6e6c792074686520696e69746961746f722063616e2063616e63656c20746860008201527f69732070726f6365737300000000000000000000000000000000000000000000602082015250565b7f77697468647261772062616c616e636520636f756c64206e6f74206d6f72652060008201527f7468616e2062616c616e63650000000000000000000000000000000000000000602082015250565b611c218161172a565b8114611c2c57600080fd5b50565b611c388161173c565b8114611c4357600080fd5b50565b611c4f8161176e565b8114611c5a57600080fd5b5056fea26469706673582212200576d423d7181a2cac06a46d7df609e3c3ce52e7d42e28c48249b37a6097f1b564736f6c63430008070033",
					"opcodes": "PUSH1 0x80 PUSH1 0x40 MSTORE CALLVALUE DUP1 ISZERO PUSH3 0x11 JUMPI PUSH1 0x0 DUP1 REVERT JUMPDEST POP PUSH1 0x40 MLOAD PUSH3 0x2694 CODESIZE SUB DUP1 PUSH3 0x2694 DUP4 CODECOPY DUP2 DUP2 ADD PUSH1 0x40 MSTORE DUP2 ADD SWAP1 PUSH3 0x37 SWAP2 SWAP1 PUSH3 0x4E7 JUMP JUMPDEST CALLER PUSH1 0x0 DUP1 PUSH2 0x100 EXP DUP2 SLOAD DUP2 PUSH20 0xFFFFFFFFFFFFFFFFFFFFFFFFFFFFFFFFFFFFFFFF MUL NOT AND SWAP1 DUP4 PUSH20 0xFFFFFFFFFFFFFFFFFFFFFFFFFFFFFFFFFFFFFFFF AND MUL OR SWAP1 SSTORE POP PUSH1 0x0 DUP3 MLOAD GT PUSH3 0xBE JUMPI PUSH1 0x40 MLOAD PUSH32 0x8C379A000000000000000000000000000000000000000000000000000000000 DUP2 MSTORE PUSH1 0x4 ADD PUSH3 0xB5 SWAP1 PUSH3 0x5C2 JUMP JUMPDEST PUSH1 0x40 MLOAD DUP1 SWAP2 SUB SWAP1 REVERT JUMPDEST PUSH3 0xCE PUSH3 0x20B PUSH1 0x20 SHL PUSH1 0x20 SHR JUMP JUMPDEST PUSH3 0x110 JUMPI PUSH1 0x40 MLOAD PUSH32 0x8C379A000000000000000000000000000000000000000000000000000000000 DUP2 MSTORE PUSH1 0x4 ADD PUSH3 0x107 SWAP1 PUSH3 0x5E4 JUMP JUMPDEST PUSH1 0x40 MLOAD DUP1 SWAP2 SUB SWAP1 REVERT JUMPDEST PUSH1 0x0 DUP2 PUSH1 0xFF AND GT DUP1 ISZERO PUSH3 0x128 JUMPI POP DUP2 MLOAD DUP2 PUSH1 0xFF AND GT ISZERO JUMPDEST PUSH3 0x16A JUMPI PUSH1 0x40 MLOAD PUSH32 0x8C379A000000000000000000000000000000000000000000000000000000000 DUP2 MSTORE PUSH1 0x4 ADD PUSH3 0x161 SWAP1 PUSH3 0x606 JUMP JUMPDEST PUSH1 0x40 MLOAD DUP1 SWAP2 SUB SWAP1 REVERT JUMPDEST DUP2 PUSH1 0x1 SWAP1 DUP1 MLOAD SWAP1 PUSH1 0x20 ADD SWAP1 PUSH3 0x182 SWAP3 SWAP2 SWAP1 PUSH3 0x35D JUMP JUMPDEST POP DUP1 PUSH1 0x2 PUSH1 0x0 PUSH2 0x100 EXP DUP2 SLOAD DUP2 PUSH1 0xFF MUL NOT AND SWAP1 DUP4 PUSH1 0xFF AND MUL OR SWAP1 SSTORE POP PUSH20 0xDD870FA1B7C4700F2BD7F44238821C26F7392148 PUSH1 0xB PUSH1 0x0 PUSH2 0x100 EXP DUP2 SLOAD DUP2 PUSH20 0xFFFFFFFFFFFFFFFFFFFFFFFFFFFFFFFFFFFFFFFF MUL NOT AND SWAP1 DUP4 PUSH20 0xFFFFFFFFFFFFFFFFFFFFFFFFFFFFFFFFFFFFFFFF AND MUL OR SWAP1 SSTORE POP PUSH1 0x14 PUSH1 0x9 DUP2 SWAP1 SSTORE POP PUSH1 0x5 PUSH1 0xA DUP2 SWAP1 SSTORE POP POP POP PUSH3 0x9F1 JUMP JUMPDEST PUSH1 0x0 DUP1 PUSH1 0x0 SWAP1 POP PUSH1 0x0 JUMPDEST PUSH1 0x1 DUP1 SLOAD SWAP1 POP DUP2 LT ISZERO PUSH3 0x354 JUMPI PUSH1 0x1 DUP1 DUP1 SLOAD SWAP1 POP PUSH3 0x236 SWAP2 SWAP1 PUSH3 0x6EE JUMP JUMPDEST DUP2 EQ ISZERO PUSH3 0x244 JUMPI PUSH3 0x354 JUMP JUMPDEST PUSH1 0x0 PUSH1 0x1 DUP3 PUSH3 0x255 SWAP2 SWAP1 PUSH3 0x691 JUMP JUMPDEST SWAP1 POP JUMPDEST PUSH1 0x1 DUP1 SLOAD SWAP1 POP DUP2 LT ISZERO PUSH3 0x33D JUMPI PUSH1 0x1 DUP2 DUP2 SLOAD DUP2 LT PUSH3 0x27D JUMPI PUSH3 0x27C PUSH3 0x827 JUMP JUMPDEST JUMPDEST SWAP1 PUSH1 0x0 MSTORE PUSH1 0x20 PUSH1 0x0 KECCAK256 ADD PUSH1 0x0 SWAP1 SLOAD SWAP1 PUSH2 0x100 EXP SWAP1 DIV PUSH20 0xFFFFFFFFFFFFFFFFFFFFFFFFFFFFFFFFFFFFFFFF AND PUSH20 0xFFFFFFFFFFFFFFFFFFFFFFFFFFFFFFFFFFFFFFFF AND PUSH1 0x1 DUP4 DUP2 SLOAD DUP2 LT PUSH3 0x2D5 JUMPI PUSH3 0x2D4 PUSH3 0x827 JUMP JUMPDEST JUMPDEST SWAP1 PUSH1 0x0 MSTORE PUSH1 0x20 PUSH1 0x0 KECCAK256 ADD PUSH1 0x0 SWAP1 SLOAD SWAP1 PUSH2 0x100 EXP SWAP1 DIV PUSH20 0xFFFFFFFFFFFFFFFFFFFFFFFFFFFFFFFFFFFFFFFF AND PUSH20 0xFFFFFFFFFFFFFFFFFFFFFFFFFFFFFFFFFFFFFFFF AND EQ ISZERO PUSH3 0x327 JUMPI PUSH1 0x1 SWAP3 POP PUSH3 0x33D JUMP JUMPDEST DUP1 DUP1 PUSH3 0x334 SWAP1 PUSH3 0x7AA JUMP JUMPDEST SWAP2 POP POP PUSH3 0x258 JUMP JUMPDEST POP DUP1 DUP1 PUSH3 0x34B SWAP1 PUSH3 0x7AA JUMP JUMPDEST SWAP2 POP POP PUSH3 0x215 JUMP JUMPDEST POP DUP1 ISZERO SWAP2 POP POP SWAP1 JUMP JUMPDEST DUP3 DUP1 SLOAD DUP3 DUP3 SSTORE SWAP1 PUSH1 0x0 MSTORE PUSH1 0x20 PUSH1 0x0 KECCAK256 SWAP1 DUP2 ADD SWAP3 DUP3 ISZERO PUSH3 0x3D9 JUMPI SWAP2 PUSH1 0x20 MUL DUP3 ADD JUMPDEST DUP3 DUP2 GT ISZERO PUSH3 0x3D8 JUMPI DUP3 MLOAD DUP3 PUSH1 0x0 PUSH2 0x100 EXP DUP2 SLOAD DUP2 PUSH20 0xFFFFFFFFFFFFFFFFFFFFFFFFFFFFFFFFFFFFFFFF MUL NOT AND SWAP1 DUP4 PUSH20 0xFFFFFFFFFFFFFFFFFFFFFFFFFFFFFFFFFFFFFFFF AND MUL OR SWAP1 SSTORE POP SWAP2 PUSH1 0x20 ADD SWAP2 SWAP1 PUSH1 0x1 ADD SWAP1 PUSH3 0x37E JUMP JUMPDEST JUMPDEST POP SWAP1 POP PUSH3 0x3E8 SWAP2 SWAP1 PUSH3 0x3EC JUMP JUMPDEST POP SWAP1 JUMP JUMPDEST JUMPDEST DUP1 DUP3 GT ISZERO PUSH3 0x407 JUMPI PUSH1 0x0 DUP2 PUSH1 0x0 SWAP1 SSTORE POP PUSH1 0x1 ADD PUSH3 0x3ED JUMP JUMPDEST POP SWAP1 JUMP JUMPDEST PUSH1 0x0 PUSH3 0x422 PUSH3 0x41C DUP5 PUSH3 0x651 JUMP JUMPDEST PUSH3 0x628 JUMP JUMPDEST SWAP1 POP DUP1 DUP4 DUP3 MSTORE PUSH1 0x20 DUP3 ADD SWAP1 POP DUP3 DUP6 PUSH1 0x20 DUP7 MUL DUP3 ADD GT ISZERO PUSH3 0x448 JUMPI PUSH3 0x447 PUSH3 0x88A JUMP JUMPDEST JUMPDEST PUSH1 0x0 JUMPDEST DUP6 DUP2 LT ISZERO PUSH3 0x47C JUMPI DUP2 PUSH3 0x461 DUP9 DUP3 PUSH3 0x486 JUMP JUMPDEST DUP5 MSTORE PUSH1 0x20 DUP5 ADD SWAP4 POP PUSH1 0x20 DUP4 ADD SWAP3 POP POP PUSH1 0x1 DUP2 ADD SWAP1 POP PUSH3 0x44B JUMP JUMPDEST POP POP POP SWAP4 SWAP3 POP POP POP JUMP JUMPDEST PUSH1 0x0 DUP2 MLOAD SWAP1 POP PUSH3 0x497 DUP2 PUSH3 0x9BD JUMP JUMPDEST SWAP3 SWAP2 POP POP JUMP JUMPDEST PUSH1 0x0 DUP3 PUSH1 0x1F DUP4 ADD SLT PUSH3 0x4B5 JUMPI PUSH3 0x4B4 PUSH3 0x885 JUMP JUMPDEST JUMPDEST DUP2 MLOAD PUSH3 0x4C7 DUP5 DUP3 PUSH1 0x20 DUP7 ADD PUSH3 0x40B JUMP JUMPDEST SWAP2 POP POP SWAP3 SWAP2 POP POP JUMP JUMPDEST PUSH1 0x0 DUP2 MLOAD SWAP1 POP PUSH3 0x4E1 DUP2 PUSH3 0x9D7 JUMP JUMPDEST SWAP3 SWAP2 POP POP JUMP JUMPDEST PUSH1 0x0 DUP1 PUSH1 0x40 DUP4 DUP6 SUB SLT ISZERO PUSH3 0x501 JUMPI PUSH3 0x500 PUSH3 0x894 JUMP JUMPDEST JUMPDEST PUSH1 0x0 DUP4 ADD MLOAD PUSH8 0xFFFFFFFFFFFFFFFF DUP2 GT ISZERO PUSH3 0x522 JUMPI PUSH3 0x521 PUSH3 0x88F JUMP JUMPDEST JUMPDEST PUSH3 0x530 DUP6 DUP3 DUP7 ADD PUSH3 0x49D JUMP JUMPDEST SWAP3 POP POP PUSH1 0x20 PUSH3 0x543 DUP6 DUP3 DUP7 ADD PUSH3 0x4D0 JUMP JUMPDEST SWAP2 POP POP SWAP3 POP SWAP3 SWAP1 POP JUMP JUMPDEST PUSH1 0x0 PUSH3 0x55C PUSH1 0x24 DUP4 PUSH3 0x680 JUMP JUMPDEST SWAP2 POP PUSH3 0x569 DUP3 PUSH3 0x8AA JUMP JUMPDEST PUSH1 0x40 DUP3 ADD SWAP1 POP SWAP2 SWAP1 POP JUMP JUMPDEST PUSH1 0x0 PUSH3 0x583 PUSH1 0x27 DUP4 PUSH3 0x680 JUMP JUMPDEST SWAP2 POP PUSH3 0x590 DUP3 PUSH3 0x8F9 JUMP JUMPDEST PUSH1 0x40 DUP3 ADD SWAP1 POP SWAP2 SWAP1 POP JUMP JUMPDEST PUSH1 0x0 PUSH3 0x5AA PUSH1 0x50 DUP4 PUSH3 0x680 JUMP JUMPDEST SWAP2 POP PUSH3 0x5B7 DUP3 PUSH3 0x948 JUMP JUMPDEST PUSH1 0x60 DUP3 ADD SWAP1 POP SWAP2 SWAP1 POP JUMP JUMPDEST PUSH1 0x0 PUSH1 0x20 DUP3 ADD SWAP1 POP DUP2 DUP2 SUB PUSH1 0x0 DUP4 ADD MSTORE PUSH3 0x5DD DUP2 PUSH3 0x54D JUMP JUMPDEST SWAP1 POP SWAP2 SWAP1 POP JUMP JUMPDEST PUSH1 0x0 PUSH1 0x20 DUP3 ADD SWAP1 POP DUP2 DUP2 SUB PUSH1 0x0 DUP4 ADD MSTORE PUSH3 0x5FF DUP2 PUSH3 0x574 JUMP JUMPDEST SWAP1 POP SWAP2 SWAP1 POP JUMP JUMPDEST PUSH1 0x0 PUSH1 0x20 DUP3 ADD SWAP1 POP DUP2 DUP2 SUB PUSH1 0x0 DUP4 ADD MSTORE PUSH3 0x621 DUP2 PUSH3 0x59B JUMP JUMPDEST SWAP1 POP SWAP2 SWAP1 POP JUMP JUMPDEST PUSH1 0x0 PUSH3 0x634 PUSH3 0x647 JUMP JUMPDEST SWAP1 POP PUSH3 0x642 DUP3 DUP3 PUSH3 0x774 JUMP JUMPDEST SWAP2 SWAP1 POP JUMP JUMPDEST PUSH1 0x0 PUSH1 0x40 MLOAD SWAP1 POP SWAP1 JUMP JUMPDEST PUSH1 0x0 PUSH8 0xFFFFFFFFFFFFFFFF DUP3 GT ISZERO PUSH3 0x66F JUMPI PUSH3 0x66E PUSH3 0x856 JUMP JUMPDEST JUMPDEST PUSH1 0x20 DUP3 MUL SWAP1 POP PUSH1 0x20 DUP2 ADD SWAP1 POP SWAP2 SWAP1 POP JUMP JUMPDEST PUSH1 0x0 DUP3 DUP3 MSTORE PUSH1 0x20 DUP3 ADD SWAP1 POP SWAP3 SWAP2 POP POP JUMP JUMPDEST PUSH1 0x0 PUSH3 0x69E DUP3 PUSH3 0x75D JUMP JUMPDEST SWAP2 POP PUSH3 0x6AB DUP4 PUSH3 0x75D JUMP JUMPDEST SWAP3 POP DUP3 PUSH32 0xFFFFFFFFFFFFFFFFFFFFFFFFFFFFFFFFFFFFFFFFFFFFFFFFFFFFFFFFFFFFFFFF SUB DUP3 GT ISZERO PUSH3 0x6E3 JUMPI PUSH3 0x6E2 PUSH3 0x7F8 JUMP JUMPDEST JUMPDEST DUP3 DUP3 ADD SWAP1 POP SWAP3 SWAP2 POP POP JUMP JUMPDEST PUSH1 0x0 PUSH3 0x6FB DUP3 PUSH3 0x75D JUMP JUMPDEST SWAP2 POP PUSH3 0x708 DUP4 PUSH3 0x75D JUMP JUMPDEST SWAP3 POP DUP3 DUP3 LT ISZERO PUSH3 0x71E JUMPI PUSH3 0x71D PUSH3 0x7F8 JUMP JUMPDEST JUMPDEST DUP3 DUP3 SUB SWAP1 POP SWAP3 SWAP2 POP POP JUMP JUMPDEST PUSH1 0x0 PUSH3 0x736 DUP3 PUSH3 0x73D JUMP JUMPDEST SWAP1 POP SWAP2 SWAP1 POP JUMP JUMPDEST PUSH1 0x0 PUSH20 0xFFFFFFFFFFFFFFFFFFFFFFFFFFFFFFFFFFFFFFFF DUP3 AND SWAP1 POP SWAP2 SWAP1 POP JUMP JUMPDEST PUSH1 0x0 DUP2 SWAP1 POP SWAP2 SWAP1 POP JUMP JUMPDEST PUSH1 0x0 PUSH1 0xFF DUP3 AND SWAP1 POP SWAP2 SWAP1 POP JUMP JUMPDEST PUSH3 0x77F DUP3 PUSH3 0x899 JUMP JUMPDEST DUP2 ADD DUP2 DUP2 LT PUSH8 0xFFFFFFFFFFFFFFFF DUP3 GT OR ISZERO PUSH3 0x7A1 JUMPI PUSH3 0x7A0 PUSH3 0x856 JUMP JUMPDEST JUMPDEST DUP1 PUSH1 0x40 MSTORE POP POP POP JUMP JUMPDEST PUSH1 0x0 PUSH3 0x7B7 DUP3 PUSH3 0x75D JUMP JUMPDEST SWAP2 POP PUSH32 0xFFFFFFFFFFFFFFFFFFFFFFFFFFFFFFFFFFFFFFFFFFFFFFFFFFFFFFFFFFFFFFFF DUP3 EQ ISZERO PUSH3 0x7ED JUMPI PUSH3 0x7EC PUSH3 0x7F8 JUMP JUMPDEST JUMPDEST PUSH1 0x1 DUP3 ADD SWAP1 POP SWAP2 SWAP1 POP JUMP JUMPDEST PUSH32 0x4E487B7100000000000000000000000000000000000000000000000000000000 PUSH1 0x0 MSTORE PUSH1 0x11 PUSH1 0x4 MSTORE PUSH1 0x24 PUSH1 0x0 REVERT JUMPDEST PUSH32 0x4E487B7100000000000000000000000000000000000000000000000000000000 PUSH1 0x0 MSTORE PUSH1 0x32 PUSH1 0x4 MSTORE PUSH1 0x24 PUSH1 0x0 REVERT JUMPDEST PUSH32 0x4E487B7100000000000000000000000000000000000000000000000000000000 PUSH1 0x0 MSTORE PUSH1 0x41 PUSH1 0x4 MSTORE PUSH1 0x24 PUSH1 0x0 REVERT JUMPDEST PUSH1 0x0 DUP1 REVERT JUMPDEST PUSH1 0x0 DUP1 REVERT JUMPDEST PUSH1 0x0 DUP1 REVERT JUMPDEST PUSH1 0x0 DUP1 REVERT JUMPDEST PUSH1 0x0 PUSH1 0x1F NOT PUSH1 0x1F DUP4 ADD AND SWAP1 POP SWAP2 SWAP1 POP JUMP JUMPDEST PUSH32 0x616C6C20636F6C6C61626F7261746F727320636F756E74206174206C65617374 PUSH1 0x0 DUP3 ADD MSTORE PUSH32 0x206F6E6500000000000000000000000000000000000000000000000000000000 PUSH1 0x20 DUP3 ADD MSTORE POP JUMP JUMPDEST PUSH32 0x74686520636F6C6C61626F7261746F7273206D757374206E6F20626520647570 PUSH1 0x0 DUP3 ADD MSTORE PUSH32 0x6C69636174656400000000000000000000000000000000000000000000000000 PUSH1 0x20 DUP3 ADD MSTORE POP JUMP JUMPDEST PUSH32 0x6174206C65617374207369676E20636F756E74206D757374206D6F7265207468 PUSH1 0x0 DUP3 ADD MSTORE PUSH32 0x616E203020616E64206C657373207468616E206F7220657175616C7320636F6C PUSH1 0x20 DUP3 ADD MSTORE PUSH32 0x6C61626F7261746F727320636F756E7400000000000000000000000000000000 PUSH1 0x40 DUP3 ADD MSTORE POP JUMP JUMPDEST PUSH3 0x9C8 DUP2 PUSH3 0x729 JUMP JUMPDEST DUP2 EQ PUSH3 0x9D4 JUMPI PUSH1 0x0 DUP1 REVERT JUMPDEST POP JUMP JUMPDEST PUSH3 0x9E2 DUP2 PUSH3 0x767 JUMP JUMPDEST DUP2 EQ PUSH3 0x9EE JUMPI PUSH1 0x0 DUP1 REVERT JUMPDEST POP JUMP JUMPDEST PUSH2 0x1C93 DUP1 PUSH3 0xA01 PUSH1 0x0 CODECOPY PUSH1 0x0 RETURN INVALID PUSH1 0x80 PUSH1 0x40 MSTORE PUSH1 0x4 CALLDATASIZE LT PUSH2 0x89 JUMPI PUSH1 0x0 CALLDATALOAD PUSH1 0xE0 SHR DUP1 PUSH4 0x3A0A197B GT PUSH2 0x59 JUMPI DUP1 PUSH4 0x3A0A197B EQ PUSH2 0x19E JUMPI DUP1 PUSH4 0xB517E0B4 EQ PUSH2 0x1C9 JUMPI DUP1 PUSH4 0xBC44E739 EQ PUSH2 0x1E0 JUMPI DUP1 PUSH4 0xCA3EA43F EQ PUSH2 0x209 JUMPI DUP1 PUSH4 0xCFA4A5F6 EQ PUSH2 0x234 JUMPI PUSH2 0x117 JUMP JUMPDEST DUP1 PUSH3 0x3BDF3E EQ PUSH2 0x11C JUMPI DUP1 PUSH4 0x12065FE0 EQ PUSH2 0x145 JUMPI DUP1 PUSH4 0x1535430B EQ PUSH2 0x170 JUMPI DUP1 PUSH4 0x352CE050 EQ PUSH2 0x187 JUMPI PUSH2 0x117 JUMP JUMPDEST CALLDATASIZE PUSH2 0x117 JUMPI PUSH1 0x0 CALLVALUE GT PUSH2 0xD1 JUMPI PUSH1 0x40 MLOAD PUSH32 0x8C379A000000000000000000000000000000000000000000000000000000000 DUP2 MSTORE PUSH1 0x4 ADD PUSH2 0xC8 SWAP1 PUSH2 0x14BF JUMP JUMPDEST PUSH1 0x40 MLOAD DUP1 SWAP2 SUB SWAP1 REVERT JUMPDEST CALLVALUE CALLER PUSH20 0xFFFFFFFFFFFFFFFFFFFFFFFFFFFFFFFFFFFFFFFF AND PUSH32 0xE1FFFCC4923D04B559F4D29A8BFC6CDA04EB5B0D3C460751C2402C5C5CC9109C PUSH1 0x40 MLOAD PUSH1 0x40 MLOAD DUP1 SWAP2 SUB SWAP1 LOG3 STOP JUMPDEST PUSH1 0x0 DUP1 REVERT JUMPDEST CALLVALUE DUP1 ISZERO PUSH2 0x128 JUMPI PUSH1 0x0 DUP1 REVERT JUMPDEST POP PUSH2 0x143 PUSH1 0x4 DUP1 CALLDATASIZE SUB DUP2 ADD SWAP1 PUSH2 0x13E SWAP2 SWAP1 PUSH2 0x12CC JUMP JUMPDEST PUSH2 0x25F JUMP JUMPDEST STOP JUMPDEST CALLVALUE DUP1 ISZERO PUSH2 0x151 JUMPI PUSH1 0x0 DUP1 REVERT JUMPDEST POP PUSH2 0x15A PUSH2 0x511 JUMP JUMPDEST PUSH1 0x40 MLOAD PUSH2 0x167 SWAP2 SWAP1 PUSH2 0x163F JUMP JUMPDEST PUSH1 0x40 MLOAD DUP1 SWAP2 SUB SWAP1 RETURN JUMPDEST CALLVALUE DUP1 ISZERO PUSH2 0x17C JUMPI PUSH1 0x0 DUP1 REVERT JUMPDEST POP PUSH2 0x185 PUSH2 0x519 JUMP JUMPDEST STOP JUMPDEST CALLVALUE DUP1 ISZERO PUSH2 0x193 JUMPI PUSH1 0x0 DUP1 REVERT JUMPDEST POP PUSH2 0x19C PUSH2 0x876 JUMP JUMPDEST STOP JUMPDEST CALLVALUE DUP1 ISZERO PUSH2 0x1AA JUMPI PUSH1 0x0 DUP1 REVERT JUMPDEST POP PUSH2 0x1B3 PUSH2 0x9C5 JUMP JUMPDEST PUSH1 0x40 MLOAD PUSH2 0x1C0 SWAP2 SWAP1 PUSH2 0x163F JUMP JUMPDEST PUSH1 0x40 MLOAD DUP1 SWAP2 SUB SWAP1 RETURN JUMPDEST CALLVALUE DUP1 ISZERO PUSH2 0x1D5 JUMPI PUSH1 0x0 DUP1 REVERT JUMPDEST POP PUSH2 0x1DE PUSH2 0x9CB JUMP JUMPDEST STOP JUMPDEST CALLVALUE DUP1 ISZERO PUSH2 0x1EC JUMPI PUSH1 0x0 DUP1 REVERT JUMPDEST POP PUSH2 0x207 PUSH1 0x4 DUP1 CALLDATASIZE SUB DUP2 ADD SWAP1 PUSH2 0x202 SWAP2 SWAP1 PUSH2 0x129F JUMP JUMPDEST PUSH2 0xB11 JUMP JUMPDEST STOP JUMPDEST CALLVALUE DUP1 ISZERO PUSH2 0x215 JUMPI PUSH1 0x0 DUP1 REVERT JUMPDEST POP PUSH2 0x21E PUSH2 0xBE5 JUMP JUMPDEST PUSH1 0x40 MLOAD PUSH2 0x22B SWAP2 SWAP1 PUSH2 0x163F JUMP JUMPDEST PUSH1 0x40 MLOAD DUP1 SWAP2 SUB SWAP1 RETURN JUMPDEST CALLVALUE DUP1 ISZERO PUSH2 0x240 JUMPI PUSH1 0x0 DUP1 REVERT JUMPDEST POP PUSH2 0x249 PUSH2 0xBEB JUMP JUMPDEST PUSH1 0x40 MLOAD PUSH2 0x256 SWAP2 SWAP1 PUSH2 0x163F JUMP JUMPDEST PUSH1 0x40 MLOAD DUP1 SWAP2 SUB SWAP1 RETURN JUMPDEST PUSH2 0x267 PUSH2 0xBF1 JUMP JUMPDEST PUSH2 0x2A6 JUMPI PUSH1 0x40 MLOAD PUSH32 0x8C379A000000000000000000000000000000000000000000000000000000000 DUP2 MSTORE PUSH1 0x4 ADD PUSH2 0x29D SWAP1 PUSH2 0x15DF JUMP JUMPDEST PUSH1 0x40 MLOAD DUP1 SWAP2 SUB SWAP1 REVERT JUMPDEST PUSH1 0x0 PUSH1 0x3 SLOAD EQ PUSH2 0x2EB JUMPI PUSH1 0x40 MLOAD PUSH32 0x8C379A000000000000000000000000000000000000000000000000000000000 DUP2 MSTORE PUSH1 0x4 ADD PUSH2 0x2E2 SWAP1 PUSH2 0x15BF JUMP JUMPDEST PUSH1 0x40 MLOAD DUP1 SWAP2 SUB SWAP1 REVERT JUMPDEST PUSH2 0x2F3 PUSH2 0x511 JUMP JUMPDEST DUP3 GT ISZERO PUSH2 0x335 JUMPI PUSH1 0x40 MLOAD PUSH32 0x8C379A000000000000000000000000000000000000000000000000000000000 DUP2 MSTORE PUSH1 0x4 ADD PUSH2 0x32C SWAP1 PUSH2 0x161F JUMP JUMPDEST PUSH1 0x40 MLOAD DUP1 SWAP2 SUB SWAP1 REVERT JUMPDEST PUSH1 0x0 PUSH20 0xFFFFFFFFFFFFFFFFFFFFFFFFFFFFFFFFFFFFFFFF AND DUP2 PUSH20 0xFFFFFFFFFFFFFFFFFFFFFFFFFFFFFFFFFFFFFFFF AND EQ ISZERO PUSH2 0x3A5 JUMPI PUSH1 0x40 MLOAD PUSH32 0x8C379A000000000000000000000000000000000000000000000000000000000 DUP2 MSTORE PUSH1 0x4 ADD PUSH2 0x39C SWAP1 PUSH2 0x153F JUMP JUMPDEST PUSH1 0x40 MLOAD DUP1 SWAP2 SUB SWAP1 REVERT JUMPDEST CALLER PUSH1 0x5 PUSH1 0x0 PUSH2 0x100 EXP DUP2 SLOAD DUP2 PUSH20 0xFFFFFFFFFFFFFFFFFFFFFFFFFFFFFFFFFFFFFFFF MUL NOT AND SWAP1 DUP4 PUSH20 0xFFFFFFFFFFFFFFFFFFFFFFFFFFFFFFFFFFFFFFFF AND MUL OR SWAP1 SSTORE POP DUP2 PUSH1 0x3 DUP2 SWAP1 SSTORE POP DUP1 PUSH1 0x4 PUSH1 0x0 PUSH2 0x100 EXP DUP2 SLOAD DUP2 PUSH20 0xFFFFFFFFFFFFFFFFFFFFFFFFFFFFFFFFFFFFFFFF MUL NOT AND SWAP1 DUP4 PUSH20 0xFFFFFFFFFFFFFFFFFFFFFFFFFFFFFFFFFFFFFFFF AND MUL OR SWAP1 SSTORE POP PUSH1 0x6 CALLER SWAP1 DUP1 PUSH1 0x1 DUP2 SLOAD ADD DUP1 DUP3 SSTORE DUP1 SWAP2 POP POP PUSH1 0x1 SWAP1 SUB SWAP1 PUSH1 0x0 MSTORE PUSH1 0x20 PUSH1 0x0 KECCAK256 ADD PUSH1 0x0 SWAP1 SWAP2 SWAP1 SWAP2 SWAP1 SWAP2 PUSH2 0x100 EXP DUP2 SLOAD DUP2 PUSH20 0xFFFFFFFFFFFFFFFFFFFFFFFFFFFFFFFFFFFFFFFF MUL NOT AND SWAP1 DUP4 PUSH20 0xFFFFFFFFFFFFFFFFFFFFFFFFFFFFFFFFFFFFFFFF AND MUL OR SWAP1 SSTORE POP DUP2 PUSH1 0x5 PUSH1 0x0 SWAP1 SLOAD SWAP1 PUSH2 0x100 EXP SWAP1 DIV PUSH20 0xFFFFFFFFFFFFFFFFFFFFFFFFFFFFFFFFFFFFFFFF AND PUSH20 0xFFFFFFFFFFFFFFFFFFFFFFFFFFFFFFFFFFFFFFFF AND PUSH32 0x1B5CFDE4F816BB2EA1F47EBB11FF737E423A4556E329E913743A9AD524E58E5 PUSH1 0x40 MLOAD PUSH1 0x40 MLOAD DUP1 SWAP2 SUB SWAP1 LOG3 PUSH2 0x4FF PUSH2 0xC88 JUMP JUMPDEST ISZERO PUSH2 0x50D JUMPI PUSH2 0x50C PUSH2 0xE14 JUMP JUMPDEST JUMPDEST POP POP JUMP JUMPDEST PUSH1 0x0 SELFBALANCE SWAP1 POP SWAP1 JUMP JUMPDEST PUSH2 0x521 PUSH2 0xBF1 JUMP JUMPDEST PUSH2 0x560 JUMPI PUSH1 0x40 MLOAD PUSH32 0x8C379A000000000000000000000000000000000000000000000000000000000 DUP2 MSTORE PUSH1 0x4 ADD PUSH2 0x557 SWAP1 PUSH2 0x15DF JUMP JUMPDEST PUSH1 0x40 MLOAD DUP1 SWAP2 SUB SWAP1 REVERT JUMPDEST PUSH1 0x5 PUSH1 0x0 SWAP1 SLOAD SWAP1 PUSH2 0x100 EXP SWAP1 DIV PUSH20 0xFFFFFFFFFFFFFFFFFFFFFFFFFFFFFFFFFFFFFFFF AND PUSH20 0xFFFFFFFFFFFFFFFFFFFFFFFFFFFFFFFFFFFFFFFF AND CALLER PUSH20 0xFFFFFFFFFFFFFFFFFFFFFFFFFFFFFFFFFFFFFFFF AND EQ ISZERO PUSH2 0x5F1 JUMPI PUSH1 0x40 MLOAD PUSH32 0x8C379A000000000000000000000000000000000000000000000000000000000 DUP2 MSTORE PUSH1 0x4 ADD PUSH2 0x5E8 SWAP1 PUSH2 0x14FF JUMP JUMPDEST PUSH1 0x40 MLOAD DUP1 SWAP2 SUB SWAP1 REVERT JUMPDEST PUSH2 0x681 PUSH1 0x7 DUP1 SLOAD DUP1 PUSH1 0x20 MUL PUSH1 0x20 ADD PUSH1 0x40 MLOAD SWAP1 DUP2 ADD PUSH1 0x40 MSTORE DUP1 SWAP3 SWAP2 SWAP1 DUP2 DUP2 MSTORE PUSH1 0x20 ADD DUP3 DUP1 SLOAD DUP1 ISZERO PUSH2 0x676 JUMPI PUSH1 0x20 MUL DUP3 ADD SWAP2 SWAP1 PUSH1 0x0 MSTORE PUSH1 0x20 PUSH1 0x0 KECCAK256 SWAP1 JUMPDEST DUP2 PUSH1 0x0 SWAP1 SLOAD SWAP1 PUSH2 0x100 EXP SWAP1 DIV PUSH20 0xFFFFFFFFFFFFFFFFFFFFFFFFFFFFFFFFFFFFFFFF AND PUSH20 0xFFFFFFFFFFFFFFFFFFFFFFFFFFFFFFFFFFFFFFFF AND DUP2 MSTORE PUSH1 0x20 ADD SWAP1 PUSH1 0x1 ADD SWAP1 DUP1 DUP4 GT PUSH2 0x62C JUMPI JUMPDEST POP POP POP POP POP CALLER PUSH2 0xF89 JUMP JUMPDEST ISZERO PUSH2 0x6C1 JUMPI PUSH1 0x40 MLOAD PUSH32 0x8C379A000000000000000000000000000000000000000000000000000000000 DUP2 MSTORE PUSH1 0x4 ADD PUSH2 0x6B8 SWAP1 PUSH2 0x151F JUMP JUMPDEST PUSH1 0x40 MLOAD DUP1 SWAP2 SUB SWAP1 REVERT JUMPDEST PUSH1 0x0 PUSH1 0x3 SLOAD GT PUSH2 0x706 JUMPI PUSH1 0x40 MLOAD PUSH32 0x8C379A000000000000000000000000000000000000000000000000000000000 DUP2 MSTORE PUSH1 0x4 ADD PUSH2 0x6FD SWAP1 PUSH2 0x14DF JUMP JUMPDEST PUSH1 0x40 MLOAD DUP1 SWAP2 SUB SWAP1 REVERT JUMPDEST PUSH1 0x7 CALLER SWAP1 DUP1 PUSH1 0x1 DUP2 SLOAD ADD DUP1 DUP3 SSTORE DUP1 SWAP2 POP POP PUSH1 0x1 SWAP1 SUB SWAP1 PUSH1 0x0 MSTORE PUSH1 0x20 PUSH1 0x0 KECCAK256 ADD PUSH1 0x0 SWAP1 SWAP2 SWAP1 SWAP2 SWAP1 SWAP2 PUSH2 0x100 EXP DUP2 SLOAD DUP2 PUSH20 0xFFFFFFFFFFFFFFFFFFFFFFFFFFFFFFFFFFFFFFFF MUL NOT AND SWAP1 DUP4 PUSH20 0xFFFFFFFFFFFFFFFFFFFFFFFFFFFFFFFFFFFFFFFF AND MUL OR SWAP1 SSTORE POP PUSH1 0x0 DUP1 JUMPDEST PUSH1 0x7 DUP1 SLOAD SWAP1 POP DUP2 LT ISZERO PUSH2 0x80E JUMPI PUSH1 0x0 PUSH20 0xFFFFFFFFFFFFFFFFFFFFFFFFFFFFFFFFFFFFFFFF AND PUSH1 0x7 DUP3 DUP2 SLOAD DUP2 LT PUSH2 0x7A6 JUMPI PUSH2 0x7A5 PUSH2 0x1856 JUMP JUMPDEST JUMPDEST SWAP1 PUSH1 0x0 MSTORE PUSH1 0x20 PUSH1 0x0 KECCAK256 ADD PUSH1 0x0 SWAP1 SLOAD SWAP1 PUSH2 0x100 EXP SWAP1 DIV PUSH20 0xFFFFFFFFFFFFFFFFFFFFFFFFFFFFFFFFFFFFFFFF AND PUSH20 0xFFFFFFFFFFFFFFFFFFFFFFFFFFFFFFFFFFFFFFFF AND EQ PUSH2 0x7FB JUMPI DUP2 DUP1 PUSH2 0x7F7 SWAP1 PUSH2 0x1785 JUMP JUMPDEST SWAP3 POP POP JUMPDEST DUP1 DUP1 PUSH2 0x806 SWAP1 PUSH2 0x1785 JUMP JUMPDEST SWAP2 POP POP PUSH2 0x76D JUMP JUMPDEST POP CALLER PUSH20 0xFFFFFFFFFFFFFFFFFFFFFFFFFFFFFFFFFFFFFFFF AND PUSH32 0x33FE377A7C23516384AE9A0A342F124FA3956A85F8438B4D483EB17400228F37 PUSH1 0x40 MLOAD PUSH1 0x40 MLOAD DUP1 SWAP2 SUB SWAP1 LOG2 PUSH1 0x1 DUP1 DUP1 SLOAD SWAP1 POP PUSH2 0x863 SWAP2 SWAP1 PUSH2 0x16F6 JUMP JUMPDEST DUP2 EQ ISZERO PUSH2 0x873 JUMPI PUSH2 0x872 PUSH2 0x1011 JUMP JUMPDEST JUMPDEST POP JUMP JUMPDEST PUSH2 0x87E PUSH2 0xBF1 JUMP JUMPDEST PUSH2 0x8BD JUMPI PUSH1 0x40 MLOAD PUSH32 0x8C379A000000000000000000000000000000000000000000000000000000000 DUP2 MSTORE PUSH1 0x4 ADD PUSH2 0x8B4 SWAP1 PUSH2 0x15DF JUMP JUMPDEST PUSH1 0x40 MLOAD DUP1 SWAP2 SUB SWAP1 REVERT JUMPDEST PUSH1 0x0 PUSH1 0x3 SLOAD GT PUSH2 0x902 JUMPI PUSH1 0x40 MLOAD PUSH32 0x8C379A000000000000000000000000000000000000000000000000000000000 DUP2 MSTORE PUSH1 0x4 ADD PUSH2 0x8F9 SWAP1 PUSH2 0x157F JUMP JUMPDEST PUSH1 0x40 MLOAD DUP1 SWAP2 SUB SWAP1 REVERT JUMPDEST PUSH2 0x90A PUSH2 0x10FF JUMP JUMPDEST ISZERO PUSH2 0x94A JUMPI PUSH1 0x40 MLOAD PUSH32 0x8C379A000000000000000000000000000000000000000000000000000000000 DUP2 MSTORE PUSH1 0x4 ADD PUSH2 0x941 SWAP1 PUSH2 0x159F JUMP JUMPDEST PUSH1 0x40 MLOAD DUP1 SWAP2 SUB SWAP1 REVERT JUMPDEST PUSH1 0x6 CALLER SWAP1 DUP1 PUSH1 0x1 DUP2 SLOAD ADD DUP1 DUP3 SSTORE DUP1 SWAP2 POP POP PUSH1 0x1 SWAP1 SUB SWAP1 PUSH1 0x0 MSTORE PUSH1 0x20 PUSH1 0x0 KECCAK256 ADD PUSH1 0x0 SWAP1 SWAP2 SWAP1 SWAP2 SWAP1 SWAP2 PUSH2 0x100 EXP DUP2 SLOAD DUP2 PUSH20 0xFFFFFFFFFFFFFFFFFFFFFFFFFFFFFFFFFFFFFFFF MUL NOT AND SWAP1 DUP4 PUSH20 0xFFFFFFFFFFFFFFFFFFFFFFFFFFFFFFFFFFFFFFFF AND MUL OR SWAP1 SSTORE POP PUSH2 0x9B5 PUSH2 0xC88 JUMP JUMPDEST ISZERO PUSH2 0x9C3 JUMPI PUSH2 0x9C2 PUSH2 0xE14 JUMP JUMPDEST JUMPDEST JUMP JUMPDEST PUSH1 0x9 SLOAD DUP2 JUMP JUMPDEST PUSH2 0x9D3 PUSH2 0xBF1 JUMP JUMPDEST PUSH2 0xA12 JUMPI PUSH1 0x40 MLOAD PUSH32 0x8C379A000000000000000000000000000000000000000000000000000000000 DUP2 MSTORE PUSH1 0x4 ADD PUSH2 0xA09 SWAP1 PUSH2 0x15DF JUMP JUMPDEST PUSH1 0x40 MLOAD DUP1 SWAP2 SUB SWAP1 REVERT JUMPDEST PUSH1 0x5 PUSH1 0x0 SWAP1 SLOAD SWAP1 PUSH2 0x100 EXP SWAP1 DIV PUSH20 0xFFFFFFFFFFFFFFFFFFFFFFFFFFFFFFFFFFFFFFFF AND PUSH20 0xFFFFFFFFFFFFFFFFFFFFFFFFFFFFFFFFFFFFFFFF AND CALLER PUSH20 0xFFFFFFFFFFFFFFFFFFFFFFFFFFFFFFFFFFFFFFFF AND EQ PUSH2 0xAA2 JUMPI PUSH1 0x40 MLOAD PUSH32 0x8C379A000000000000000000000000000000000000000000000000000000000 DUP2 MSTORE PUSH1 0x4 ADD PUSH2 0xA99 SWAP1 PUSH2 0x15FF JUMP JUMPDEST PUSH1 0x40 MLOAD DUP1 SWAP2 SUB SWAP1 REVERT JUMPDEST PUSH1 0x5 PUSH1 0x0 SWAP1 SLOAD SWAP1 PUSH2 0x100 EXP SWAP1 DIV PUSH20 0xFFFFFFFFFFFFFFFFFFFFFFFFFFFFFFFFFFFFFFFF AND PUSH20 0xFFFFFFFFFFFFFFFFFFFFFFFFFFFFFFFFFFFFFFFF AND PUSH32 0xA67A2FA60466795987A45316AB86AB19936CE45FA62C95B699807909EC148289 PUSH1 0x40 MLOAD PUSH1 0x40 MLOAD DUP1 SWAP2 SUB SWAP1 LOG2 PUSH2 0xB0F PUSH2 0x1011 JUMP JUMPDEST JUMP JUMPDEST PUSH1 0xB PUSH1 0x0 SWAP1 SLOAD SWAP1 PUSH2 0x100 EXP SWAP1 DIV PUSH20 0xFFFFFFFFFFFFFFFFFFFFFFFFFFFFFFFFFFFFFFFF AND PUSH20 0xFFFFFFFFFFFFFFFFFFFFFFFFFFFFFFFFFFFFFFFF AND CALLER PUSH20 0xFFFFFFFFFFFFFFFFFFFFFFFFFFFFFFFFFFFFFFFF AND EQ PUSH2 0xBA1 JUMPI PUSH1 0x40 MLOAD PUSH32 0x8C379A000000000000000000000000000000000000000000000000000000000 DUP2 MSTORE PUSH1 0x4 ADD PUSH2 0xB98 SWAP1 PUSH2 0x155F JUMP JUMPDEST PUSH1 0x40 MLOAD DUP1 SWAP2 SUB SWAP1 REVERT JUMPDEST DUP1 PUSH1 0xB PUSH1 0x0 PUSH2 0x100 EXP DUP2 SLOAD DUP2 PUSH20 0xFFFFFFFFFFFFFFFFFFFFFFFFFFFFFFFFFFFFFFFF MUL NOT AND SWAP1 DUP4 PUSH20 0xFFFFFFFFFFFFFFFFFFFFFFFFFFFFFFFFFFFFFFFF AND MUL OR SWAP1 SSTORE POP POP JUMP JUMPDEST PUSH1 0x8 SLOAD DUP2 JUMP JUMPDEST PUSH1 0xA SLOAD DUP2 JUMP JUMPDEST PUSH1 0x0 PUSH2 0xC83 PUSH1 0x1 DUP1 SLOAD DUP1 PUSH1 0x20 MUL PUSH1 0x20 ADD PUSH1 0x40 MLOAD SWAP1 DUP2 ADD PUSH1 0x40 MSTORE DUP1 SWAP3 SWAP2 SWAP1 DUP2 DUP2 MSTORE PUSH1 0x20 ADD DUP3 DUP1 SLOAD DUP1 ISZERO PUSH2 0xC78 JUMPI PUSH1 0x20 MUL DUP3 ADD SWAP2 SWAP1 PUSH1 0x0 MSTORE PUSH1 0x20 PUSH1 0x0 KECCAK256 SWAP1 JUMPDEST DUP2 PUSH1 0x0 SWAP1 SLOAD SWAP1 PUSH2 0x100 EXP SWAP1 DIV PUSH20 0xFFFFFFFFFFFFFFFFFFFFFFFFFFFFFFFFFFFFFFFF AND PUSH20 0xFFFFFFFFFFFFFFFFFFFFFFFFFFFFFFFFFFFFFFFF AND DUP2 MSTORE PUSH1 0x20 ADD SWAP1 PUSH1 0x1 ADD SWAP1 DUP1 DUP4 GT PUSH2 0xC2E JUMPI JUMPDEST POP POP POP POP POP CALLER PUSH2 0xF89 JUMP JUMPDEST SWAP1 POP SWAP1 JUMP JUMPDEST PUSH1 0x0 DUP1 PUSH1 0x6 DUP1 SLOAD DUP1 PUSH1 0x20 MUL PUSH1 0x20 ADD PUSH1 0x40 MLOAD SWAP1 DUP2 ADD PUSH1 0x40 MSTORE DUP1 SWAP3 SWAP2 SWAP1 DUP2 DUP2 MSTORE PUSH1 0x20 ADD DUP3 DUP1 SLOAD DUP1 ISZERO PUSH2 0xD0D JUMPI PUSH1 0x20 MUL DUP3 ADD SWAP2 SWAP1 PUSH1 0x0 MSTORE PUSH1 0x20 PUSH1 0x0 KECCAK256 SWAP1 JUMPDEST DUP2 PUSH1 0x0 SWAP1 SLOAD SWAP1 PUSH2 0x100 EXP SWAP1 DIV PUSH20 0xFFFFFFFFFFFFFFFFFFFFFFFFFFFFFFFFFFFFFFFF AND PUSH20 0xFFFFFFFFFFFFFFFFFFFFFFFFFFFFFFFFFFFFFFFF AND DUP2 MSTORE PUSH1 0x20 ADD SWAP1 PUSH1 0x1 ADD SWAP1 DUP1 DUP4 GT PUSH2 0xCC3 JUMPI JUMPDEST POP POP POP POP POP SWAP1 POP PUSH1 0x0 DUP1 JUMPDEST DUP3 MLOAD DUP2 LT ISZERO PUSH2 0xDF3 JUMPI PUSH1 0x0 JUMPDEST PUSH1 0x1 DUP1 SLOAD SWAP1 POP DUP2 LT ISZERO PUSH2 0xDDF JUMPI DUP4 DUP3 DUP2 MLOAD DUP2 LT PUSH2 0xD44 JUMPI PUSH2 0xD43 PUSH2 0x1856 JUMP JUMPDEST JUMPDEST PUSH1 0x20 MUL PUSH1 0x20 ADD ADD MLOAD PUSH20 0xFFFFFFFFFFFFFFFFFFFFFFFFFFFFFFFFFFFFFFFF AND PUSH1 0x1 DUP3 DUP2 SLOAD DUP2 LT PUSH2 0xD76 JUMPI PUSH2 0xD75 PUSH2 0x1856 JUMP JUMPDEST JUMPDEST SWAP1 PUSH1 0x0 MSTORE PUSH1 0x20 PUSH1 0x0 KECCAK256 ADD PUSH1 0x0 SWAP1 SLOAD SWAP1 PUSH2 0x100 EXP SWAP1 DIV PUSH20 0xFFFFFFFFFFFFFFFFFFFFFFFFFFFFFFFFFFFFFFFF AND PUSH20 0xFFFFFFFFFFFFFFFFFFFFFFFFFFFFFFFFFFFFFFFF AND EQ ISZERO PUSH2 0xDCC JUMPI DUP3 DUP1 PUSH2 0xDC8 SWAP1 PUSH2 0x17CE JUMP JUMPDEST SWAP4 POP POP JUMPDEST DUP1 DUP1 PUSH2 0xDD7 SWAP1 PUSH2 0x1785 JUMP JUMPDEST SWAP2 POP POP PUSH2 0xD24 JUMP JUMPDEST POP DUP1 DUP1 PUSH2 0xDEB SWAP1 PUSH2 0x1785 JUMP JUMPDEST SWAP2 POP POP PUSH2 0xD18 JUMP JUMPDEST POP PUSH1 0x2 PUSH1 0x0 SWAP1 SLOAD SWAP1 PUSH2 0x100 EXP SWAP1 DIV PUSH1 0xFF AND PUSH1 0xFF AND DUP2 PUSH1 0xFF AND LT ISZERO SWAP3 POP POP POP SWAP1 JUMP JUMPDEST PUSH1 0x0 PUSH1 0x3 SLOAD SWAP1 POP PUSH1 0x0 PUSH1 0x3 DUP2 SWAP1 SSTORE POP PUSH1 0x4 PUSH1 0x0 SWAP1 SLOAD SWAP1 PUSH2 0x100 EXP SWAP1 DIV PUSH20 0xFFFFFFFFFFFFFFFFFFFFFFFFFFFFFFFFFFFFFFFF AND PUSH20 0xFFFFFFFFFFFFFFFFFFFFFFFFFFFFFFFFFFFFFFFF AND PUSH2 0x8FC DUP3 SWAP1 DUP2 ISZERO MUL SWAP1 PUSH1 0x40 MLOAD PUSH1 0x0 PUSH1 0x40 MLOAD DUP1 DUP4 SUB DUP2 DUP6 DUP9 DUP9 CALL SWAP4 POP POP POP POP ISZERO DUP1 ISZERO PUSH2 0xE8B JUMPI RETURNDATASIZE PUSH1 0x0 DUP1 RETURNDATACOPY RETURNDATASIZE PUSH1 0x0 REVERT JUMPDEST POP PUSH1 0x8 PUSH1 0x0 DUP2 SLOAD DUP1 SWAP3 SWAP2 SWAP1 PUSH2 0xE9F SWAP1 PUSH2 0x1785 JUMP JUMPDEST SWAP2 SWAP1 POP SSTORE POP PUSH1 0x4 PUSH1 0x0 PUSH2 0x100 EXP DUP2 SLOAD SWAP1 PUSH20 0xFFFFFFFFFFFFFFFFFFFFFFFFFFFFFFFFFFFFFFFF MUL NOT AND SWAP1 SSTORE PUSH1 0x6 PUSH1 0x0 PUSH2 0xED7 SWAP2 SWAP1 PUSH2 0x1222 JUMP JUMPDEST PUSH1 0x5 PUSH1 0x0 PUSH2 0x100 EXP DUP2 SLOAD SWAP1 PUSH20 0xFFFFFFFFFFFFFFFFFFFFFFFFFFFFFFFFFFFFFFFF MUL NOT AND SWAP1 SSTORE PUSH1 0x7 PUSH1 0x0 PUSH2 0xF0A SWAP2 SWAP1 PUSH2 0x1222 JUMP JUMPDEST DUP1 PUSH1 0x4 PUSH1 0x0 SWAP1 SLOAD SWAP1 PUSH2 0x100 EXP SWAP1 DIV PUSH20 0xFFFFFFFFFFFFFFFFFFFFFFFFFFFFFFFFFFFFFFFF AND PUSH20 0xFFFFFFFFFFFFFFFFFFFFFFFFFFFFFFFFFFFFFFFF AND PUSH32 0x884EDAD9CE6FA2440D8A54CC123490EB96D2768479D49FF9C7366125A9424364 PUSH1 0x40 MLOAD PUSH1 0x40 MLOAD DUP1 SWAP2 SUB SWAP1 LOG3 PUSH1 0xA SLOAD PUSH1 0x8 SLOAD GT ISZERO PUSH2 0xF86 JUMPI PUSH2 0xF85 DUP2 PUSH2 0x1196 JUMP JUMPDEST JUMPDEST POP JUMP JUMPDEST PUSH1 0x0 DUP1 PUSH1 0x0 SWAP1 POP PUSH1 0x0 JUMPDEST DUP5 MLOAD DUP2 LT ISZERO PUSH2 0x1006 JUMPI DUP4 PUSH20 0xFFFFFFFFFFFFFFFFFFFFFFFFFFFFFFFFFFFFFFFF AND DUP6 DUP3 DUP2 MLOAD DUP2 LT PUSH2 0xFC6 JUMPI PUSH2 0xFC5 PUSH2 0x1856 JUMP JUMPDEST JUMPDEST PUSH1 0x20 MUL PUSH1 0x20 ADD ADD MLOAD PUSH20 0xFFFFFFFFFFFFFFFFFFFFFFFFFFFFFFFFFFFFFFFF AND EQ ISZERO PUSH2 0xFF3 JUMPI PUSH1 0x1 SWAP2 POP PUSH2 0x1006 JUMP JUMPDEST DUP1 DUP1 PUSH2 0xFFE SWAP1 PUSH2 0x1785 JUMP JUMPDEST SWAP2 POP POP PUSH2 0xF93 JUMP JUMPDEST POP DUP1 SWAP2 POP POP SWAP3 SWAP2 POP POP JUMP JUMPDEST PUSH1 0x0 PUSH1 0x3 SLOAD SWAP1 POP PUSH1 0x0 PUSH1 0x4 PUSH1 0x0 SWAP1 SLOAD SWAP1 PUSH2 0x100 EXP SWAP1 DIV PUSH20 0xFFFFFFFFFFFFFFFFFFFFFFFFFFFFFFFFFFFFFFFF AND SWAP1 POP PUSH1 0x0 PUSH1 0x3 DUP2 SWAP1 SSTORE POP PUSH1 0x5 PUSH1 0x0 PUSH2 0x100 EXP DUP2 SLOAD SWAP1 PUSH20 0xFFFFFFFFFFFFFFFFFFFFFFFFFFFFFFFFFFFFFFFF MUL NOT AND SWAP1 SSTORE PUSH1 0x4 PUSH1 0x0 PUSH2 0x100 EXP DUP2 SLOAD SWAP1 PUSH20 0xFFFFFFFFFFFFFFFFFFFFFFFFFFFFFFFFFFFFFFFF MUL NOT AND SWAP1 SSTORE PUSH1 0x6 PUSH1 0x0 PUSH2 0x109F SWAP2 SWAP1 PUSH2 0x1222 JUMP JUMPDEST PUSH1 0x7 PUSH1 0x0 PUSH2 0x10AD SWAP2 SWAP1 PUSH2 0x1222 JUMP JUMPDEST DUP1 PUSH20 0xFFFFFFFFFFFFFFFFFFFFFFFFFFFFFFFFFFFFFFFF AND PUSH32 0x36EA5CD5608625E789AF0282EECDB4EAE1CB7C1CF6D0EC3F9A84F35BE850260B DUP4 PUSH1 0x40 MLOAD PUSH2 0x10F3 SWAP2 SWAP1 PUSH2 0x163F JUMP JUMPDEST PUSH1 0x40 MLOAD DUP1 SWAP2 SUB SWAP1 LOG2 POP POP JUMP JUMPDEST PUSH1 0x0 PUSH2 0x1191 PUSH1 0x6 DUP1 SLOAD DUP1 PUSH1 0x20 MUL PUSH1 0x20 ADD PUSH1 0x40 MLOAD SWAP1 DUP2 ADD PUSH1 0x40 MSTORE DUP1 SWAP3 SWAP2 SWAP1 DUP2 DUP2 MSTORE PUSH1 0x20 ADD DUP3 DUP1 SLOAD DUP1 ISZERO PUSH2 0x1186 JUMPI PUSH1 0x20 MUL DUP3 ADD SWAP2 SWAP1 PUSH1 0x0 MSTORE PUSH1 0x20 PUSH1 0x0 KECCAK256 SWAP1 JUMPDEST DUP2 PUSH1 0x0 SWAP1 SLOAD SWAP1 PUSH2 0x100 EXP SWAP1 DIV PUSH20 0xFFFFFFFFFFFFFFFFFFFFFFFFFFFFFFFFFFFFFFFF AND PUSH20 0xFFFFFFFFFFFFFFFFFFFFFFFFFFFFFFFFFFFFFFFF AND DUP2 MSTORE PUSH1 0x20 ADD SWAP1 PUSH1 0x1 ADD SWAP1 DUP1 DUP4 GT PUSH2 0x113C JUMPI JUMPDEST POP POP POP POP POP CALLER PUSH2 0xF89 JUMP JUMPDEST SWAP1 POP SWAP1 JUMP JUMPDEST PUSH1 0x0 PUSH1 0x9 SLOAD PUSH2 0x2710 DUP4 PUSH2 0x11A9 SWAP2 SWAP1 PUSH2 0x166B JUMP JUMPDEST PUSH2 0x11B3 SWAP2 SWAP1 PUSH2 0x169C JUMP JUMPDEST SWAP1 POP PUSH1 0xB PUSH1 0x0 SWAP1 SLOAD SWAP1 PUSH2 0x100 EXP SWAP1 DIV PUSH20 0xFFFFFFFFFFFFFFFFFFFFFFFFFFFFFFFFFFFFFFFF AND PUSH20 0xFFFFFFFFFFFFFFFFFFFFFFFFFFFFFFFFFFFFFFFF AND PUSH2 0x8FC DUP3 SWAP1 DUP2 ISZERO MUL SWAP1 PUSH1 0x40 MLOAD PUSH1 0x0 PUSH1 0x40 MLOAD DUP1 DUP4 SUB DUP2 DUP6 DUP9 DUP9 CALL SWAP4 POP POP POP POP ISZERO DUP1 ISZERO PUSH2 0x121D JUMPI RETURNDATASIZE PUSH1 0x0 DUP1 RETURNDATACOPY RETURNDATASIZE PUSH1 0x0 REVERT JUMPDEST POP POP POP JUMP JUMPDEST POP DUP1 SLOAD PUSH1 0x0 DUP3 SSTORE SWAP1 PUSH1 0x0 MSTORE PUSH1 0x20 PUSH1 0x0 KECCAK256 SWAP1 DUP2 ADD SWAP1 PUSH2 0x1240 SWAP2 SWAP1 PUSH2 0x1243 JUMP JUMPDEST POP JUMP JUMPDEST JUMPDEST DUP1 DUP3 GT ISZERO PUSH2 0x125C JUMPI PUSH1 0x0 DUP2 PUSH1 0x0 SWAP1 SSTORE POP PUSH1 0x1 ADD PUSH2 0x1244 JUMP JUMPDEST POP SWAP1 JUMP JUMPDEST PUSH1 0x0 DUP2 CALLDATALOAD SWAP1 POP PUSH2 0x126F DUP2 PUSH2 0x1C18 JUMP JUMPDEST SWAP3 SWAP2 POP POP JUMP JUMPDEST PUSH1 0x0 DUP2 CALLDATALOAD SWAP1 POP PUSH2 0x1284 DUP2 PUSH2 0x1C2F JUMP JUMPDEST SWAP3 SWAP2 POP POP JUMP JUMPDEST PUSH1 0x0 DUP2 CALLDATALOAD SWAP1 POP PUSH2 0x1299 DUP2 PUSH2 0x1C46 JUMP JUMPDEST SWAP3 SWAP2 POP POP JUMP JUMPDEST PUSH1 0x0 PUSH1 0x20 DUP3 DUP5 SUB SLT ISZERO PUSH2 0x12B5 JUMPI PUSH2 0x12B4 PUSH2 0x1885 JUMP JUMPDEST JUMPDEST PUSH1 0x0 PUSH2 0x12C3 DUP5 DUP3 DUP6 ADD PUSH2 0x1260 JUMP JUMPDEST SWAP2 POP POP SWAP3 SWAP2 POP POP JUMP JUMPDEST PUSH1 0x0 DUP1 PUSH1 0x40 DUP4 DUP6 SUB SLT ISZERO PUSH2 0x12E3 JUMPI PUSH2 0x12E2 PUSH2 0x1885 JUMP JUMPDEST JUMPDEST PUSH1 0x0 PUSH2 0x12F1 DUP6 DUP3 DUP7 ADD PUSH2 0x128A JUMP JUMPDEST SWAP3 POP POP PUSH1 0x20 PUSH2 0x1302 DUP6 DUP3 DUP7 ADD PUSH2 0x1275 JUMP JUMPDEST SWAP2 POP POP SWAP3 POP SWAP3 SWAP1 POP JUMP JUMPDEST PUSH1 0x0 PUSH2 0x1319 PUSH1 0x58 DUP4 PUSH2 0x165A JUMP JUMPDEST SWAP2 POP PUSH2 0x1324 DUP3 PUSH2 0x188A JUMP JUMPDEST PUSH1 0x60 DUP3 ADD SWAP1 POP SWAP2 SWAP1 POP JUMP JUMPDEST PUSH1 0x0 PUSH2 0x133C PUSH1 0x2F DUP4 PUSH2 0x165A JUMP JUMPDEST SWAP2 POP PUSH2 0x1347 DUP3 PUSH2 0x18FF JUMP JUMPDEST PUSH1 0x40 DUP3 ADD SWAP1 POP SWAP2 SWAP1 POP JUMP JUMPDEST PUSH1 0x0 PUSH2 0x135F PUSH1 0x3A DUP4 PUSH2 0x165A JUMP JUMPDEST SWAP2 POP PUSH2 0x136A DUP3 PUSH2 0x194E JUMP JUMPDEST PUSH1 0x40 DUP3 ADD SWAP1 POP SWAP2 SWAP1 POP JUMP JUMPDEST PUSH1 0x0 PUSH2 0x1382 PUSH1 0x2E DUP4 PUSH2 0x165A JUMP JUMPDEST SWAP2 POP PUSH2 0x138D DUP3 PUSH2 0x199D JUMP JUMPDEST PUSH1 0x40 DUP3 ADD SWAP1 POP SWAP2 SWAP1 POP JUMP JUMPDEST PUSH1 0x0 PUSH2 0x13A5 PUSH1 0x15 DUP4 PUSH2 0x165A JUMP JUMPDEST SWAP2 POP PUSH2 0x13B0 DUP3 PUSH2 0x19EC JUMP JUMPDEST PUSH1 0x20 DUP3 ADD SWAP1 POP SWAP2 SWAP1 POP JUMP JUMPDEST PUSH1 0x0 PUSH2 0x13C8 PUSH1 0x3B DUP4 PUSH2 0x165A JUMP JUMPDEST SWAP2 POP PUSH2 0x13D3 DUP3 PUSH2 0x1A15 JUMP JUMPDEST PUSH1 0x40 DUP3 ADD SWAP1 POP SWAP2 SWAP1 POP JUMP JUMPDEST PUSH1 0x0 PUSH2 0x13EB PUSH1 0x2C DUP4 PUSH2 0x165A JUMP JUMPDEST SWAP2 POP PUSH2 0x13F6 DUP3 PUSH2 0x1A64 JUMP JUMPDEST PUSH1 0x40 DUP3 ADD SWAP1 POP SWAP2 SWAP1 POP JUMP JUMPDEST PUSH1 0x0 PUSH2 0x140E PUSH1 0x38 DUP4 PUSH2 0x165A JUMP JUMPDEST SWAP2 POP PUSH2 0x1419 DUP3 PUSH2 0x1AB3 JUMP JUMPDEST PUSH1 0x40 DUP3 ADD SWAP1 POP SWAP2 SWAP1 POP JUMP JUMPDEST PUSH1 0x0 PUSH2 0x1431 PUSH1 0x1D DUP4 PUSH2 0x165A JUMP JUMPDEST SWAP2 POP PUSH2 0x143C DUP3 PUSH2 0x1B02 JUMP JUMPDEST PUSH1 0x20 DUP3 ADD SWAP1 POP SWAP2 SWAP1 POP JUMP JUMPDEST PUSH1 0x0 PUSH2 0x1454 PUSH1 0x26 DUP4 PUSH2 0x165A JUMP JUMPDEST SWAP2 POP PUSH2 0x145F DUP3 PUSH2 0x1B2B JUMP JUMPDEST PUSH1 0x40 DUP3 ADD SWAP1 POP SWAP2 SWAP1 POP JUMP JUMPDEST PUSH1 0x0 PUSH2 0x1477 PUSH1 0x2A DUP4 PUSH2 0x165A JUMP JUMPDEST SWAP2 POP PUSH2 0x1482 DUP3 PUSH2 0x1B7A JUMP JUMPDEST PUSH1 0x40 DUP3 ADD SWAP1 POP SWAP2 SWAP1 POP JUMP JUMPDEST PUSH1 0x0 PUSH2 0x149A PUSH1 0x2C DUP4 PUSH2 0x165A JUMP JUMPDEST SWAP2 POP PUSH2 0x14A5 DUP3 PUSH2 0x1BC9 JUMP JUMPDEST PUSH1 0x40 DUP3 ADD SWAP1 POP SWAP2 SWAP1 POP JUMP JUMPDEST PUSH2 0x14B9 DUP2 PUSH2 0x176E JUMP JUMPDEST DUP3 MSTORE POP POP JUMP JUMPDEST PUSH1 0x0 PUSH1 0x20 DUP3 ADD SWAP1 POP DUP2 DUP2 SUB PUSH1 0x0 DUP4 ADD MSTORE PUSH2 0x14D8 DUP2 PUSH2 0x130C JUMP JUMPDEST SWAP1 POP SWAP2 SWAP1 POP JUMP JUMPDEST PUSH1 0x0 PUSH1 0x20 DUP3 ADD SWAP1 POP DUP2 DUP2 SUB PUSH1 0x0 DUP4 ADD MSTORE PUSH2 0x14F8 DUP2 PUSH2 0x132F JUMP JUMPDEST SWAP1 POP SWAP2 SWAP1 POP JUMP JUMPDEST PUSH1 0x0 PUSH1 0x20 DUP3 ADD SWAP1 POP DUP2 DUP2 SUB PUSH1 0x0 DUP4 ADD MSTORE PUSH2 0x1518 DUP2 PUSH2 0x1352 JUMP JUMPDEST SWAP1 POP SWAP2 SWAP1 POP JUMP JUMPDEST PUSH1 0x0 PUSH1 0x20 DUP3 ADD SWAP1 POP DUP2 DUP2 SUB PUSH1 0x0 DUP4 ADD MSTORE PUSH2 0x1538 DUP2 PUSH2 0x1375 JUMP JUMPDEST SWAP1 POP SWAP2 SWAP1 POP JUMP JUMPDEST PUSH1 0x0 PUSH1 0x20 DUP3 ADD SWAP1 POP DUP2 DUP2 SUB PUSH1 0x0 DUP4 ADD MSTORE PUSH2 0x1558 DUP2 PUSH2 0x1398 JUMP JUMPDEST SWAP1 POP SWAP2 SWAP1 POP JUMP JUMPDEST PUSH1 0x0 PUSH1 0x20 DUP3 ADD SWAP1 POP DUP2 DUP2 SUB PUSH1 0x0 DUP4 ADD MSTORE PUSH2 0x1578 DUP2 PUSH2 0x13BB JUMP JUMPDEST SWAP1 POP SWAP2 SWAP1 POP JUMP JUMPDEST PUSH1 0x0 PUSH1 0x20 DUP3 ADD SWAP1 POP DUP2 DUP2 SUB PUSH1 0x0 DUP4 ADD MSTORE PUSH2 0x1598 DUP2 PUSH2 0x13DE JUMP JUMPDEST SWAP1 POP SWAP2 SWAP1 POP JUMP JUMPDEST PUSH1 0x0 PUSH1 0x20 DUP3 ADD SWAP1 POP DUP2 DUP2 SUB PUSH1 0x0 DUP4 ADD MSTORE PUSH2 0x15B8 DUP2 PUSH2 0x1401 JUMP JUMPDEST SWAP1 POP SWAP2 SWAP1 POP JUMP JUMPDEST PUSH1 0x0 PUSH1 0x20 DUP3 ADD SWAP1 POP DUP2 DUP2 SUB PUSH1 0x0 DUP4 ADD MSTORE PUSH2 0x15D8 DUP2 PUSH2 0x1424 JUMP JUMPDEST SWAP1 POP SWAP2 SWAP1 POP JUMP JUMPDEST PUSH1 0x0 PUSH1 0x20 DUP3 ADD SWAP1 POP DUP2 DUP2 SUB PUSH1 0x0 DUP4 ADD MSTORE PUSH2 0x15F8 DUP2 PUSH2 0x1447 JUMP JUMPDEST SWAP1 POP SWAP2 SWAP1 POP JUMP JUMPDEST PUSH1 0x0 PUSH1 0x20 DUP3 ADD SWAP1 POP DUP2 DUP2 SUB PUSH1 0x0 DUP4 ADD MSTORE PUSH2 0x1618 DUP2 PUSH2 0x146A JUMP JUMPDEST SWAP1 POP SWAP2 SWAP1 POP JUMP JUMPDEST PUSH1 0x0 PUSH1 0x20 DUP3 ADD SWAP1 POP DUP2 DUP2 SUB PUSH1 0x0 DUP4 ADD MSTORE PUSH2 0x1638 DUP2 PUSH2 0x148D JUMP JUMPDEST SWAP1 POP SWAP2 SWAP1 POP JUMP JUMPDEST PUSH1 0x0 PUSH1 0x20 DUP3 ADD SWAP1 POP PUSH2 0x1654 PUSH1 0x0 DUP4 ADD DUP5 PUSH2 0x14B0 JUMP JUMPDEST SWAP3 SWAP2 POP POP JUMP JUMPDEST PUSH1 0x0 DUP3 DUP3 MSTORE PUSH1 0x20 DUP3 ADD SWAP1 POP SWAP3 SWAP2 POP POP JUMP JUMPDEST PUSH1 0x0 PUSH2 0x1676 DUP3 PUSH2 0x176E JUMP JUMPDEST SWAP2 POP PUSH2 0x1681 DUP4 PUSH2 0x176E JUMP JUMPDEST SWAP3 POP DUP3 PUSH2 0x1691 JUMPI PUSH2 0x1690 PUSH2 0x1827 JUMP JUMPDEST JUMPDEST DUP3 DUP3 DIV SWAP1 POP SWAP3 SWAP2 POP POP JUMP JUMPDEST PUSH1 0x0 PUSH2 0x16A7 DUP3 PUSH2 0x176E JUMP JUMPDEST SWAP2 POP PUSH2 0x16B2 DUP4 PUSH2 0x176E JUMP JUMPDEST SWAP3 POP DUP2 PUSH32 0xFFFFFFFFFFFFFFFFFFFFFFFFFFFFFFFFFFFFFFFFFFFFFFFFFFFFFFFFFFFFFFFF DIV DUP4 GT DUP3 ISZERO ISZERO AND ISZERO PUSH2 0x16EB JUMPI PUSH2 0x16EA PUSH2 0x17F8 JUMP JUMPDEST JUMPDEST DUP3 DUP3 MUL SWAP1 POP SWAP3 SWAP2 POP POP JUMP JUMPDEST PUSH1 0x0 PUSH2 0x1701 DUP3 PUSH2 0x176E JUMP JUMPDEST SWAP2 POP PUSH2 0x170C DUP4 PUSH2 0x176E JUMP JUMPDEST SWAP3 POP DUP3 DUP3 LT ISZERO PUSH2 0x171F JUMPI PUSH2 0x171E PUSH2 0x17F8 JUMP JUMPDEST JUMPDEST DUP3 DUP3 SUB SWAP1 POP SWAP3 SWAP2 POP POP JUMP JUMPDEST PUSH1 0x0 PUSH2 0x1735 DUP3 PUSH2 0x174E JUMP JUMPDEST SWAP1 POP SWAP2 SWAP1 POP JUMP JUMPDEST PUSH1 0x0 PUSH2 0x1747 DUP3 PUSH2 0x174E JUMP JUMPDEST SWAP1 POP SWAP2 SWAP1 POP JUMP JUMPDEST PUSH1 0x0 PUSH20 0xFFFFFFFFFFFFFFFFFFFFFFFFFFFFFFFFFFFFFFFF DUP3 AND SWAP1 POP SWAP2 SWAP1 POP JUMP JUMPDEST PUSH1 0x0 DUP2 SWAP1 POP SWAP2 SWAP1 POP JUMP JUMPDEST PUSH1 0x0 PUSH1 0xFF DUP3 AND SWAP1 POP SWAP2 SWAP1 POP JUMP JUMPDEST PUSH1 0x0 PUSH2 0x1790 DUP3 PUSH2 0x176E JUMP JUMPDEST SWAP2 POP PUSH32 0xFFFFFFFFFFFFFFFFFFFFFFFFFFFFFFFFFFFFFFFFFFFFFFFFFFFFFFFFFFFFFFFF DUP3 EQ ISZERO PUSH2 0x17C3 JUMPI PUSH2 0x17C2 PUSH2 0x17F8 JUMP JUMPDEST JUMPDEST PUSH1 0x1 DUP3 ADD SWAP1 POP SWAP2 SWAP1 POP JUMP JUMPDEST PUSH1 0x0 PUSH2 0x17D9 DUP3 PUSH2 0x1778 JUMP JUMPDEST SWAP2 POP PUSH1 0xFF DUP3 EQ ISZERO PUSH2 0x17ED JUMPI PUSH2 0x17EC PUSH2 0x17F8 JUMP JUMPDEST JUMPDEST PUSH1 0x1 DUP3 ADD SWAP1 POP SWAP2 SWAP1 POP JUMP JUMPDEST PUSH32 0x4E487B7100000000000000000000000000000000000000000000000000000000 PUSH1 0x0 MSTORE PUSH1 0x11 PUSH1 0x4 MSTORE PUSH1 0x24 PUSH1 0x0 REVERT JUMPDEST PUSH32 0x4E487B7100000000000000000000000000000000000000000000000000000000 PUSH1 0x0 MSTORE PUSH1 0x12 PUSH1 0x4 MSTORE PUSH1 0x24 PUSH1 0x0 REVERT JUMPDEST PUSH32 0x4E487B7100000000000000000000000000000000000000000000000000000000 PUSH1 0x0 MSTORE PUSH1 0x32 PUSH1 0x4 MSTORE PUSH1 0x24 PUSH1 0x0 REVERT JUMPDEST PUSH1 0x0 DUP1 REVERT JUMPDEST PUSH32 0x73746F7265206D757374206D6F7265207468616E2030207765692C20696E6465 PUSH1 0x0 DUP3 ADD MSTORE PUSH32 0x656420746865206761732066656520646F206E6F742064656372656173652069 PUSH1 0x20 DUP3 ADD MSTORE PUSH32 0x6620796F7520746F70696E2061206C6F772076616C75652E0000000000000000 PUSH1 0x40 DUP3 ADD MSTORE POP JUMP JUMPDEST PUSH32 0x74686572652069736E277420616E792077697468647277616C73207761697420 PUSH1 0x0 DUP3 ADD MSTORE PUSH32 0x666F722063616E63656C6174696F6E0000000000000000000000000000000000 PUSH1 0x20 DUP3 ADD MSTORE POP JUMP JUMPDEST PUSH32 0x6F6E6C792074686520636F756E746572207061727479206F6620696E69746961 PUSH1 0x0 DUP3 ADD MSTORE PUSH32 0x746F722063616E2063616C6C20746869732066756E6374696F6E000000000000 PUSH1 0x20 DUP3 ADD MSTORE POP JUMP JUMPDEST PUSH32 0x796F752068617665207369676E656420666F722063616E63656C6C6174696F6E PUSH1 0x0 DUP3 ADD MSTORE PUSH32 0x2C20646F6E277420726570656174000000000000000000000000000000000000 PUSH1 0x20 DUP3 ADD MSTORE POP JUMP JUMPDEST PUSH32 0x696E76616C696420746172676574416464726573730000000000000000000000 PUSH1 0x0 DUP3 ADD MSTORE POP JUMP JUMPDEST PUSH32 0x6F6E6C7920706C6174666F726D206163636F756E7420697473656C662063616E PUSH1 0x0 DUP3 ADD MSTORE PUSH32 0x206368616E676520697420746F206F74686572206163636F756E740000000000 PUSH1 0x20 DUP3 ADD MSTORE POP JUMP JUMPDEST PUSH32 0x7468657265206973206E6F20776974686472617720616374696F6E2077616974 PUSH1 0x0 DUP3 ADD MSTORE PUSH32 0x696E6720666F72207369676E0000000000000000000000000000000000000000 PUSH1 0x20 DUP3 ADD MSTORE POP JUMP JUMPDEST PUSH32 0x796F752068617665207369676E65642074686973207769746864726177207072 PUSH1 0x0 DUP3 ADD MSTORE PUSH32 0x6F636573732C20706C7A20646F6E2774207265706561742E0000000000000000 PUSH1 0x20 DUP3 ADD MSTORE POP JUMP JUMPDEST PUSH32 0x7072652070726F6365737320686173206E6F74206265656E206F766572000000 PUSH1 0x0 DUP3 ADD MSTORE POP JUMP JUMPDEST PUSH32 0x6F6E6C7920636F6C6C61626F7261746F7273206861766520746865207065726D PUSH1 0x0 DUP3 ADD MSTORE PUSH32 0x697373696F6E0000000000000000000000000000000000000000000000000000 PUSH1 0x20 DUP3 ADD MSTORE POP JUMP JUMPDEST PUSH32 0x6F6E6C792074686520696E69746961746F722063616E2063616E63656C207468 PUSH1 0x0 DUP3 ADD MSTORE PUSH32 0x69732070726F6365737300000000000000000000000000000000000000000000 PUSH1 0x20 DUP3 ADD MSTORE POP JUMP JUMPDEST PUSH32 0x77697468647261772062616C616E636520636F756C64206E6F74206D6F726520 PUSH1 0x0 DUP3 ADD MSTORE PUSH32 0x7468616E2062616C616E63650000000000000000000000000000000000000000 PUSH1 0x20 DUP3 ADD MSTORE POP JUMP JUMPDEST PUSH2 0x1C21 DUP2 PUSH2 0x172A JUMP JUMPDEST DUP2 EQ PUSH2 0x1C2C JUMPI PUSH1 0x0 DUP1 REVERT JUMPDEST POP JUMP JUMPDEST PUSH2 0x1C38 DUP2 PUSH2 0x173C JUMP JUMPDEST DUP2 EQ PUSH2 0x1C43 JUMPI PUSH1 0x0 DUP1 REVERT JUMPDEST POP JUMP JUMPDEST PUSH2 0x1C4F DUP2 PUSH2 0x176E JUMP JUMPDEST DUP2 EQ PUSH2 0x1C5A JUMPI PUSH1 0x0 DUP1 REVERT JUMPDEST POP JUMP INVALID LOG2 PUSH5 0x6970667358 0x22 SLT KECCAK256 SDIV PUSH23 0xD423D7181A2CAC06A46D7DF609E3C3CE52E7D42E28C482 0x49 0xB3 PUSH27 0x6097F1B564736F6C63430008070033000000000000000000000000 "
				},
				"gasEstimates": {
					"creation": {
						"codeDepositCost": "1463000",
						"executionCost": "infinite",
						"totalCost": "infinite"
					},
					"external": {
						"cancel_withdraw()": "infinite",
						"cancel_withdraw_by_counterparty()": "infinite",
						"changePlatformAccount(address)": "26936",
						"collaboratorSign()": "infinite",
						"getBalance()": "362",
						"process_withdraw(uint256,address)": "infinite",
						"withdraw_count()": "2495",
						"withdraw_fee_rate()": "2429",
						"withdraw_free_count()": "2517"
					},
					"internal": {
						"address_array_in(address[] memory,address)": "infinite",
						"already_signed()": "infinite",
						"do_cancel_withdraw()": "infinite",
						"do_pay_service_fee(uint256)": "infinite",
						"do_withdraw()": "infinite",
						"is_oneof_collaborators()": "infinite",
						"no_duplicated_collaborators()": "infinite",
						"signedCountEnough()": "infinite"
					}
				},
				"methodIdentifiers": {
					"cancel_withdraw()": "b517e0b4",
					"cancel_withdraw_by_counterparty()": "1535430b",
					"changePlatformAccount(address)": "bc44e739",
					"collaboratorSign()": "352ce050",
					"getBalance()": "12065fe0",
					"process_withdraw(uint256,address)": "003bdf3e",
					"withdraw_count()": "ca3ea43f",
					"withdraw_fee_rate()": "3a0a197b",
					"withdraw_free_count()": "cfa4a5f6"
				}
			},
			"storageLayout": {
				"storage": [
					{
						"astId": 5,
						"contract": "contracts/MultisigWallet.sol:MultisigWallet",
						"label": "owner",
						"offset": 0,
						"slot": "0",
						"type": "t_address"
					},
					{
						"astId": 9,
						"contract": "contracts/MultisigWallet.sol:MultisigWallet",
						"label": "collaborators",
						"offset": 0,
						"slot": "1",
						"type": "t_array(t_address)dyn_storage"
					},
					{
						"astId": 12,
						"contract": "contracts/MultisigWallet.sol:MultisigWallet",
						"label": "at_least_sign_count",
						"offset": 0,
						"slot": "2",
						"type": "t_uint8"
					},
					{
						"astId": 15,
						"contract": "contracts/MultisigWallet.sol:MultisigWallet",
						"label": "waitfor_withdraw_wei",
						"offset": 0,
						"slot": "3",
						"type": "t_uint256"
					},
					{
						"astId": 18,
						"contract": "contracts/MultisigWallet.sol:MultisigWallet",
						"label": "waitfor_withdraw_address",
						"offset": 0,
						"slot": "4",
						"type": "t_address_payable"
					},
					{
						"astId": 21,
						"contract": "contracts/MultisigWallet.sol:MultisigWallet",
						"label": "initiator",
						"offset": 0,
						"slot": "5",
						"type": "t_address"
					},
					{
						"astId": 25,
						"contract": "contracts/MultisigWallet.sol:MultisigWallet",
						"label": "current_signed",
						"offset": 0,
						"slot": "6",
						"type": "t_array(t_address)dyn_storage"
					},
					{
						"astId": 29,
						"contract": "contracts/MultisigWallet.sol:MultisigWallet",
						"label": "current_cancel_counterparty_signed",
						"offset": 0,
						"slot": "7",
						"type": "t_array(t_address)dyn_storage"
					},
					{
						"astId": 32,
						"contract": "contracts/MultisigWallet.sol:MultisigWallet",
						"label": "withdraw_count",
						"offset": 0,
						"slot": "8",
						"type": "t_uint256"
					},
					{
						"astId": 35,
						"contract": "contracts/MultisigWallet.sol:MultisigWallet",
						"label": "withdraw_fee_rate",
						"offset": 0,
						"slot": "9",
						"type": "t_uint256"
					},
					{
						"astId": 38,
						"contract": "contracts/MultisigWallet.sol:MultisigWallet",
						"label": "withdraw_free_count",
						"offset": 0,
						"slot": "10",
						"type": "t_uint256"
					},
					{
						"astId": 40,
						"contract": "contracts/MultisigWallet.sol:MultisigWallet",
						"label": "platform_account",
						"offset": 0,
						"slot": "11",
						"type": "t_address_payable"
					}
				],
				"types": {
					"t_address": {
						"encoding": "inplace",
						"label": "address",
						"numberOfBytes": "20"
					},
					"t_address_payable": {
						"encoding": "inplace",
						"label": "address payable",
						"numberOfBytes": "20"
					},
					"t_array(t_address)dyn_storage": {
						"base": "t_address",
						"encoding": "dynamic_array",
						"label": "address[]",
						"numberOfBytes": "32"
					},
					"t_uint256": {
						"encoding": "inplace",
						"label": "uint256",
						"numberOfBytes": "32"
					},
					"t_uint8": {
						"encoding": "inplace",
						"label": "uint8",
						"numberOfBytes": "1"
					}
				}
			},
			"userdoc": {
				"events": {
					"Deposit(address,uint256)": {
						"notice": "事件定义"
					}
				},
				"kind": "user",
				"methods": {
					"cancel_withdraw()": {
						"notice": "发起方才能直接取消提款"
					},
					"cancel_withdraw_by_counterparty()": {
						"notice": "增加一个另外全方，协作罢免发起方的提款请求 这是在发起方帐户丢失时才需要干的事情，防止合同废掉了，卡死在这里 发起方会先签名一次，如果金额有误且非常重大但刚好帐户丢失，直接让另外一方签署 容易导致大额损失，所以通过取消的操作来进行。"
					},
					"collaboratorSign()": {
						"notice": "协作方签名，只要进来这个函数，就是说明前面的以太坊认证已经通过，收集地址即可。 当最后一个签名方满足多签需求的时候，直接发起转账提款"
					},
					"withdraw_count()": {
						"notice": "记录转账多少次，可以设置一些条款，例如前10次免费，之后按xx比例收取手续费。 手续费打入xx帐户。"
					},
					"withdraw_fee_rate()": {
						"notice": "转账费率，单位是万分之一"
					},
					"withdraw_free_count()": {
						"notice": "前N次免费"
					}
				},
				"notice": "多签名钱包简单实现。",
				"version": 1
			}
		}
	}
}