{
	"contracts/MultisigWallet.sol": {
		"MultisigWallet": {
			"abi": [
				{
					"inputs": [
						{
							"internalType": "address[]",
							"name": "collaborators_",
							"type": "address[]"
						},
						{
							"internalType": "uint8",
							"name": "at_least_sign_count_",
							"type": "uint8"
						}
					],
					"stateMutability": "nonpayable",
					"type": "constructor"
				},
				{
					"inputs": [],
					"name": "balance",
					"outputs": [
						{
							"internalType": "uint256",
							"name": "",
							"type": "uint256"
						}
					],
					"stateMutability": "view",
					"type": "function"
				},
				{
					"inputs": [],
					"name": "cancel_withdraw",
					"outputs": [],
					"stateMutability": "nonpayable",
					"type": "function"
				},
				{
					"inputs": [],
					"name": "cancel_withdraw_by_counterparty",
					"outputs": [],
					"stateMutability": "nonpayable",
					"type": "function"
				},
				{
					"inputs": [],
					"name": "collaboratorSign",
					"outputs": [],
					"stateMutability": "nonpayable",
					"type": "function"
				},
				{
					"inputs": [
						{
							"internalType": "uint256",
							"name": "weis",
							"type": "uint256"
						},
						{
							"internalType": "address payable",
							"name": "targetAddress",
							"type": "address"
						}
					],
					"name": "process_withdraw",
					"outputs": [],
					"stateMutability": "nonpayable",
					"type": "function"
				},
				{
					"inputs": [],
					"name": "topin",
					"outputs": [],
					"stateMutability": "payable",
					"type": "function"
				},
				{
					"inputs": [],
					"name": "withdraw_count",
					"outputs": [
						{
							"internalType": "uint256",
							"name": "",
							"type": "uint256"
						}
					],
					"stateMutability": "view",
					"type": "function"
				}
			],
			"devdoc": {
				"kind": "dev",
				"methods": {},
				"version": 1
			},
			"evm": {
				"assembly": "    /* \"contracts/MultisigWallet.sol\":108:6284  contract MultisigWallet {... */\n  mstore(0x40, 0x80)\n    /* \"contracts/MultisigWallet.sol\":1115:1630  constructor(address[] memory collaborators_, uint8 at_least_sign_count_) {... */\n  callvalue\n  dup1\n  iszero\n  tag_1\n  jumpi\n  0x00\n  dup1\n  revert\ntag_1:\n  pop\n  mload(0x40)\n  sub(codesize, bytecodeSize)\n  dup1\n  bytecodeSize\n  dup4\n  codecopy\n  dup2\n  dup2\n  add\n  0x40\n  mstore\n  dup2\n  add\n  swap1\n  tag_2\n  swap2\n  swap1\n  tag_3\n  jump\t// in\ntag_2:\n    /* \"contracts/MultisigWallet.sol\":1200:1210  msg.sender */\n  caller\n    /* \"contracts/MultisigWallet.sol\":1192:1197  owner */\n  0x01\n  0x00\n    /* \"contracts/MultisigWallet.sol\":1192:1210  owner = msg.sender */\n  0x0100\n  exp\n  dup2\n  sload\n  dup2\n  0xffffffffffffffffffffffffffffffffffffffff\n  mul\n  not\n  and\n  swap1\n  dup4\n  0xffffffffffffffffffffffffffffffffffffffff\n  and\n  mul\n  or\n  swap1\n  sstore\n  pop\n    /* \"contracts/MultisigWallet.sol\":1246:1247  0 */\n  0x00\n    /* \"contracts/MultisigWallet.sol\":1222:1236  collaborators_ */\n  dup3\n    /* \"contracts/MultisigWallet.sol\":1222:1243  collaborators_.length */\n  mload\n    /* \"contracts/MultisigWallet.sol\":1222:1247  collaborators_.length > 0 */\n  gt\n    /* \"contracts/MultisigWallet.sol\":1214:1288  require(collaborators_.length > 0, \"all collaborators count at least one\") */\n  tag_6\n  jumpi\n  mload(0x40)\n  0x08c379a000000000000000000000000000000000000000000000000000000000\n  dup2\n  mstore\n  0x04\n  add\n  tag_7\n  swap1\n  tag_8\n  jump\t// in\ntag_7:\n  mload(0x40)\n  dup1\n  swap2\n  sub\n  swap1\n  revert\ntag_6:\n    /* \"contracts/MultisigWallet.sol\":1300:1329  no_duplicated_collaborators() */\n  tag_9\n    /* \"contracts/MultisigWallet.sol\":1300:1327  no_duplicated_collaborators */\n  shl(0x20, tag_10)\n    /* \"contracts/MultisigWallet.sol\":1300:1329  no_duplicated_collaborators() */\n  0x20\n  shr\n  jump\t// in\ntag_9:\n    /* \"contracts/MultisigWallet.sol\":1292:1373  require(no_duplicated_collaborators(), \"the collaborators must no be duplicated\") */\n  tag_11\n  jumpi\n  mload(0x40)\n  0x08c379a000000000000000000000000000000000000000000000000000000000\n  dup2\n  mstore\n  0x04\n  add\n  tag_12\n  swap1\n  tag_13\n  jump\t// in\ntag_12:\n  mload(0x40)\n  dup1\n  swap2\n  sub\n  swap1\n  revert\ntag_11:\n    /* \"contracts/MultisigWallet.sol\":1408:1409  0 */\n  0x00\n    /* \"contracts/MultisigWallet.sol\":1385:1405  at_least_sign_count_ */\n  dup2\n    /* \"contracts/MultisigWallet.sol\":1385:1409  at_least_sign_count_ > 0 */\n  0xff\n  and\n  gt\n    /* \"contracts/MultisigWallet.sol\":1385:1458  at_least_sign_count_ > 0 && at_least_sign_count_ <= collaborators_.length */\n  dup1\n  iszero\n  tag_14\n  jumpi\n  pop\n    /* \"contracts/MultisigWallet.sol\":1437:1451  collaborators_ */\n  dup2\n    /* \"contracts/MultisigWallet.sol\":1437:1458  collaborators_.length */\n  mload\n    /* \"contracts/MultisigWallet.sol\":1413:1433  at_least_sign_count_ */\n  dup2\n    /* \"contracts/MultisigWallet.sol\":1413:1458  at_least_sign_count_ <= collaborators_.length */\n  0xff\n  and\n  gt\n  iszero\n    /* \"contracts/MultisigWallet.sol\":1385:1458  at_least_sign_count_ > 0 && at_least_sign_count_ <= collaborators_.length */\ntag_14:\n    /* \"contracts/MultisigWallet.sol\":1377:1543  require(at_least_sign_count_ > 0 && at_least_sign_count_ <= collaborators_.length, \"at least sign count must more than 0 and less than or equals collaborators count\") */\n  tag_15\n  jumpi\n  mload(0x40)\n  0x08c379a000000000000000000000000000000000000000000000000000000000\n  dup2\n  mstore\n  0x04\n  add\n  tag_16\n  swap1\n  tag_17\n  jump\t// in\ntag_16:\n  mload(0x40)\n  dup1\n  swap2\n  sub\n  swap1\n  revert\ntag_15:\n    /* \"contracts/MultisigWallet.sol\":1563:1577  collaborators_ */\n  dup2\n    /* \"contracts/MultisigWallet.sol\":1547:1560  collaborators */\n  0x02\n    /* \"contracts/MultisigWallet.sol\":1547:1577  collaborators = collaborators_ */\n  swap1\n  dup1\n  mload\n  swap1\n  0x20\n  add\n  swap1\n  tag_18\n  swap3\n  swap2\n  swap1\n  tag_19\n  jump\t// in\ntag_18:\n  pop\n    /* \"contracts/MultisigWallet.sol\":1606:1626  at_least_sign_count_ */\n  dup1\n    /* \"contracts/MultisigWallet.sol\":1584:1603  at_least_sign_count */\n  0x03\n  0x00\n    /* \"contracts/MultisigWallet.sol\":1584:1626  at_least_sign_count = at_least_sign_count_ */\n  0x0100\n  exp\n  dup2\n  sload\n  dup2\n  0xff\n  mul\n  not\n  and\n  swap1\n  dup4\n  0xff\n  and\n  mul\n  or\n  swap1\n  sstore\n  pop\n    /* \"contracts/MultisigWallet.sol\":1115:1630  constructor(address[] memory collaborators_, uint8 at_least_sign_count_) {... */\n  pop\n  pop\n    /* \"contracts/MultisigWallet.sol\":108:6284  contract MultisigWallet {... */\n  jump(tag_20)\n    /* \"contracts/MultisigWallet.sol\":1633:2003  function no_duplicated_collaborators() private view returns (bool) {... */\ntag_10:\n    /* \"contracts/MultisigWallet.sol\":1694:1698  bool */\n  0x00\n    /* \"contracts/MultisigWallet.sol\":1704:1719  bool duplicated */\n  dup1\n    /* \"contracts/MultisigWallet.sol\":1722:1727  false */\n  0x00\n    /* \"contracts/MultisigWallet.sol\":1704:1727  bool duplicated = false */\n  swap1\n  pop\n    /* \"contracts/MultisigWallet.sol\":1735:1741  uint i */\n  0x00\n    /* \"contracts/MultisigWallet.sol\":1731:1978  for(uint i=0; i<collaborators.length; i++) {... */\ntag_22:\n    /* \"contracts/MultisigWallet.sol\":1747:1760  collaborators */\n  0x02\n    /* \"contracts/MultisigWallet.sol\":1747:1767  collaborators.length */\n  dup1\n  sload\n  swap1\n  pop\n    /* \"contracts/MultisigWallet.sol\":1745:1746  i */\n  dup2\n    /* \"contracts/MultisigWallet.sol\":1745:1767  i<collaborators.length */\n  lt\n    /* \"contracts/MultisigWallet.sol\":1731:1978  for(uint i=0; i<collaborators.length; i++) {... */\n  iszero\n  tag_23\n  jumpi\n    /* \"contracts/MultisigWallet.sol\":1810:1811  1 */\n  0x01\n    /* \"contracts/MultisigWallet.sol\":1787:1800  collaborators */\n  0x02\n    /* \"contracts/MultisigWallet.sol\":1787:1807  collaborators.length */\n  dup1\n  sload\n  swap1\n  pop\n    /* \"contracts/MultisigWallet.sol\":1787:1811  collaborators.length - 1 */\n  tag_25\n  swap2\n  swap1\n  tag_26\n  jump\t// in\ntag_25:\n    /* \"contracts/MultisigWallet.sol\":1782:1783  i */\n  dup2\n    /* \"contracts/MultisigWallet.sol\":1782:1811  i == collaborators.length - 1 */\n  eq\n    /* \"contracts/MultisigWallet.sol\":1779:1830  if(i == collaborators.length - 1) {... */\n  iszero\n  tag_27\n  jumpi\n    /* \"contracts/MultisigWallet.sol\":1819:1824  break */\n  jump(tag_23)\n    /* \"contracts/MultisigWallet.sol\":1779:1830  if(i == collaborators.length - 1) {... */\ntag_27:\n    /* \"contracts/MultisigWallet.sol\":1838:1844  uint j */\n  0x00\n    /* \"contracts/MultisigWallet.sol\":1847:1848  1 */\n  0x01\n    /* \"contracts/MultisigWallet.sol\":1845:1846  i */\n  dup3\n    /* \"contracts/MultisigWallet.sol\":1845:1848  i+1 */\n  tag_31\n  swap2\n  swap1\n  tag_32\n  jump\t// in\ntag_31:\n    /* \"contracts/MultisigWallet.sol\":1838:1848  uint j=i+1 */\n  swap1\n  pop\n    /* \"contracts/MultisigWallet.sol\":1834:1974  for(uint j=i+1; j<collaborators.length; j++) {... */\ntag_28:\n    /* \"contracts/MultisigWallet.sol\":1852:1865  collaborators */\n  0x02\n    /* \"contracts/MultisigWallet.sol\":1852:1872  collaborators.length */\n  dup1\n  sload\n  swap1\n  pop\n    /* \"contracts/MultisigWallet.sol\":1850:1851  j */\n  dup2\n    /* \"contracts/MultisigWallet.sol\":1850:1872  j<collaborators.length */\n  lt\n    /* \"contracts/MultisigWallet.sol\":1834:1974  for(uint j=i+1; j<collaborators.length; j++) {... */\n  iszero\n  tag_29\n  jumpi\n    /* \"contracts/MultisigWallet.sol\":1908:1921  collaborators */\n  0x02\n    /* \"contracts/MultisigWallet.sol\":1922:1923  j */\n  dup2\n    /* \"contracts/MultisigWallet.sol\":1908:1924  collaborators[j] */\n  dup2\n  sload\n  dup2\n  lt\n  tag_33\n  jumpi\n  tag_34\n  tag_35\n  jump\t// in\ntag_34:\ntag_33:\n  swap1\n  0x00\n  mstore\n  keccak256(0x00, 0x20)\n  add\n  0x00\n  swap1\n  sload\n  swap1\n  0x0100\n  exp\n  swap1\n  div\n  0xffffffffffffffffffffffffffffffffffffffff\n  and\n    /* \"contracts/MultisigWallet.sol\":1888:1924  collaborators[i] == collaborators[j] */\n  0xffffffffffffffffffffffffffffffffffffffff\n  and\n    /* \"contracts/MultisigWallet.sol\":1888:1901  collaborators */\n  0x02\n    /* \"contracts/MultisigWallet.sol\":1902:1903  i */\n  dup4\n    /* \"contracts/MultisigWallet.sol\":1888:1904  collaborators[i] */\n  dup2\n  sload\n  dup2\n  lt\n  tag_37\n  jumpi\n  tag_38\n  tag_35\n  jump\t// in\ntag_38:\ntag_37:\n  swap1\n  0x00\n  mstore\n  keccak256(0x00, 0x20)\n  add\n  0x00\n  swap1\n  sload\n  swap1\n  0x0100\n  exp\n  swap1\n  div\n  0xffffffffffffffffffffffffffffffffffffffff\n  and\n    /* \"contracts/MultisigWallet.sol\":1888:1924  collaborators[i] == collaborators[j] */\n  0xffffffffffffffffffffffffffffffffffffffff\n  and\n  eq\n    /* \"contracts/MultisigWallet.sol\":1885:1969  if(collaborators[i] == collaborators[j]) {... */\n  iszero\n  tag_40\n  jumpi\n    /* \"contracts/MultisigWallet.sol\":1946:1950  true */\n  0x01\n    /* \"contracts/MultisigWallet.sol\":1933:1950  duplicated = true */\n  swap3\n  pop\n    /* \"contracts/MultisigWallet.sol\":1957:1962  break */\n  jump(tag_29)\n    /* \"contracts/MultisigWallet.sol\":1885:1969  if(collaborators[i] == collaborators[j]) {... */\ntag_40:\n    /* \"contracts/MultisigWallet.sol\":1874:1877  j++ */\n  dup1\n  dup1\n  tag_41\n  swap1\n  tag_42\n  jump\t// in\ntag_41:\n  swap2\n  pop\n  pop\n    /* \"contracts/MultisigWallet.sol\":1834:1974  for(uint j=i+1; j<collaborators.length; j++) {... */\n  jump(tag_28)\ntag_29:\n  pop\n    /* \"contracts/MultisigWallet.sol\":1769:1772  i++ */\n  dup1\n  dup1\n  tag_43\n  swap1\n  tag_42\n  jump\t// in\ntag_43:\n  swap2\n  pop\n  pop\n    /* \"contracts/MultisigWallet.sol\":1731:1978  for(uint i=0; i<collaborators.length; i++) {... */\n  jump(tag_22)\ntag_23:\n  pop\n    /* \"contracts/MultisigWallet.sol\":1989:1999  duplicated */\n  dup1\n    /* \"contracts/MultisigWallet.sol\":1988:1999  !duplicated */\n  iszero\n    /* \"contracts/MultisigWallet.sol\":1981:1999  return !duplicated */\n  swap2\n  pop\n  pop\n    /* \"contracts/MultisigWallet.sol\":1633:2003  function no_duplicated_collaborators() private view returns (bool) {... */\n  swap1\n  jump\t// out\n    /* \"contracts/MultisigWallet.sol\":108:6284  contract MultisigWallet {... */\ntag_19:\n  dup3\n  dup1\n  sload\n  dup3\n  dup3\n  sstore\n  swap1\n  0x00\n  mstore\n  keccak256(0x00, 0x20)\n  swap1\n  dup2\n  add\n  swap3\n  dup3\n  iszero\n  tag_44\n  jumpi\n  swap2\n  0x20\n  mul\n  dup3\n  add\ntag_45:\n  dup3\n  dup2\n  gt\n  iszero\n  tag_46\n  jumpi\n  dup3\n  mload\n  dup3\n  exp(0x0100, 0x00)\n  dup2\n  sload\n  dup2\n  0xffffffffffffffffffffffffffffffffffffffff\n  mul\n  not\n  and\n  swap1\n  dup4\n  0xffffffffffffffffffffffffffffffffffffffff\n  and\n  mul\n  or\n  swap1\n  sstore\n  pop\n  swap2\n  0x20\n  add\n  swap2\n  swap1\n  0x01\n  add\n  swap1\n  jump(tag_45)\ntag_46:\ntag_44:\n  pop\n  swap1\n  pop\n  tag_47\n  swap2\n  swap1\n  tag_48\n  jump\t// in\ntag_47:\n  pop\n  swap1\n  jump\t// out\ntag_48:\ntag_49:\n  dup1\n  dup3\n  gt\n  iszero\n  tag_50\n  jumpi\n  0x00\n  dup2\n  0x00\n  swap1\n  sstore\n  pop\n  0x01\n  add\n  jump(tag_49)\ntag_50:\n  pop\n  swap1\n  jump\t// out\n    /* \"#utility.yul\":24:768   */\ntag_52:\n    /* \"#utility.yul\":131:136   */\n  0x00\n    /* \"#utility.yul\":156:237   */\n  tag_54\n    /* \"#utility.yul\":172:236   */\n  tag_55\n    /* \"#utility.yul\":229:235   */\n  dup5\n    /* \"#utility.yul\":172:236   */\n  tag_56\n  jump\t// in\ntag_55:\n    /* \"#utility.yul\":156:237   */\n  tag_57\n  jump\t// in\ntag_54:\n    /* \"#utility.yul\":147:237   */\n  swap1\n  pop\n    /* \"#utility.yul\":257:262   */\n  dup1\n    /* \"#utility.yul\":286:292   */\n  dup4\n    /* \"#utility.yul\":279:284   */\n  dup3\n    /* \"#utility.yul\":272:293   */\n  mstore\n    /* \"#utility.yul\":320:324   */\n  0x20\n    /* \"#utility.yul\":313:318   */\n  dup3\n    /* \"#utility.yul\":309:325   */\n  add\n    /* \"#utility.yul\":302:325   */\n  swap1\n  pop\n    /* \"#utility.yul\":346:352   */\n  dup3\n    /* \"#utility.yul\":396:399   */\n  dup6\n    /* \"#utility.yul\":388:392   */\n  0x20\n    /* \"#utility.yul\":380:386   */\n  dup7\n    /* \"#utility.yul\":376:393   */\n  mul\n    /* \"#utility.yul\":371:374   */\n  dup3\n    /* \"#utility.yul\":367:394   */\n  add\n    /* \"#utility.yul\":364:400   */\n  gt\n    /* \"#utility.yul\":361:504   */\n  iszero\n  tag_58\n  jumpi\n    /* \"#utility.yul\":415:494   */\n  tag_59\n  tag_60\n  jump\t// in\ntag_59:\n    /* \"#utility.yul\":361:504   */\ntag_58:\n    /* \"#utility.yul\":528:529   */\n  0x00\n    /* \"#utility.yul\":513:762   */\ntag_61:\n    /* \"#utility.yul\":538:544   */\n  dup6\n    /* \"#utility.yul\":535:536   */\n  dup2\n    /* \"#utility.yul\":532:545   */\n  lt\n    /* \"#utility.yul\":513:762   */\n  iszero\n  tag_63\n  jumpi\n    /* \"#utility.yul\":606:609   */\n  dup2\n    /* \"#utility.yul\":635:683   */\n  tag_64\n    /* \"#utility.yul\":679:682   */\n  dup9\n    /* \"#utility.yul\":667:677   */\n  dup3\n    /* \"#utility.yul\":635:683   */\n  tag_65\n  jump\t// in\ntag_64:\n    /* \"#utility.yul\":630:633   */\n  dup5\n    /* \"#utility.yul\":623:684   */\n  mstore\n    /* \"#utility.yul\":713:717   */\n  0x20\n    /* \"#utility.yul\":708:711   */\n  dup5\n    /* \"#utility.yul\":704:718   */\n  add\n    /* \"#utility.yul\":697:718   */\n  swap4\n  pop\n    /* \"#utility.yul\":747:751   */\n  0x20\n    /* \"#utility.yul\":742:745   */\n  dup4\n    /* \"#utility.yul\":738:752   */\n  add\n    /* \"#utility.yul\":731:752   */\n  swap3\n  pop\n    /* \"#utility.yul\":573:762   */\n  pop\n    /* \"#utility.yul\":560:561   */\n  0x01\n    /* \"#utility.yul\":557:558   */\n  dup2\n    /* \"#utility.yul\":553:562   */\n  add\n    /* \"#utility.yul\":548:562   */\n  swap1\n  pop\n    /* \"#utility.yul\":513:762   */\n  jump(tag_61)\ntag_63:\n    /* \"#utility.yul\":517:531   */\n  pop\n    /* \"#utility.yul\":137:768   */\n  pop\n  pop\n    /* \"#utility.yul\":24:768   */\n  swap4\n  swap3\n  pop\n  pop\n  pop\n  jump\t// out\n    /* \"#utility.yul\":774:917   */\ntag_65:\n    /* \"#utility.yul\":831:836   */\n  0x00\n    /* \"#utility.yul\":862:868   */\n  dup2\n    /* \"#utility.yul\":856:869   */\n  mload\n    /* \"#utility.yul\":847:869   */\n  swap1\n  pop\n    /* \"#utility.yul\":878:911   */\n  tag_67\n    /* \"#utility.yul\":905:910   */\n  dup2\n    /* \"#utility.yul\":878:911   */\n  tag_68\n  jump\t// in\ntag_67:\n    /* \"#utility.yul\":774:917   */\n  swap3\n  swap2\n  pop\n  pop\n  jump\t// out\n    /* \"#utility.yul\":940:1325   */\ntag_69:\n    /* \"#utility.yul\":1022:1027   */\n  0x00\n    /* \"#utility.yul\":1071:1074   */\n  dup3\n    /* \"#utility.yul\":1064:1068   */\n  0x1f\n    /* \"#utility.yul\":1056:1062   */\n  dup4\n    /* \"#utility.yul\":1052:1069   */\n  add\n    /* \"#utility.yul\":1048:1075   */\n  slt\n    /* \"#utility.yul\":1038:1160   */\n  tag_71\n  jumpi\n    /* \"#utility.yul\":1079:1158   */\n  tag_72\n  tag_73\n  jump\t// in\ntag_72:\n    /* \"#utility.yul\":1038:1160   */\ntag_71:\n    /* \"#utility.yul\":1189:1195   */\n  dup2\n    /* \"#utility.yul\":1183:1196   */\n  mload\n    /* \"#utility.yul\":1214:1319   */\n  tag_74\n    /* \"#utility.yul\":1315:1318   */\n  dup5\n    /* \"#utility.yul\":1307:1313   */\n  dup3\n    /* \"#utility.yul\":1300:1304   */\n  0x20\n    /* \"#utility.yul\":1292:1298   */\n  dup7\n    /* \"#utility.yul\":1288:1305   */\n  add\n    /* \"#utility.yul\":1214:1319   */\n  tag_52\n  jump\t// in\ntag_74:\n    /* \"#utility.yul\":1205:1319   */\n  swap2\n  pop\n    /* \"#utility.yul\":1028:1325   */\n  pop\n    /* \"#utility.yul\":940:1325   */\n  swap3\n  swap2\n  pop\n  pop\n  jump\t// out\n    /* \"#utility.yul\":1331:1470   */\ntag_75:\n    /* \"#utility.yul\":1386:1391   */\n  0x00\n    /* \"#utility.yul\":1417:1423   */\n  dup2\n    /* \"#utility.yul\":1411:1424   */\n  mload\n    /* \"#utility.yul\":1402:1424   */\n  swap1\n  pop\n    /* \"#utility.yul\":1433:1464   */\n  tag_77\n    /* \"#utility.yul\":1458:1463   */\n  dup2\n    /* \"#utility.yul\":1433:1464   */\n  tag_78\n  jump\t// in\ntag_77:\n    /* \"#utility.yul\":1331:1470   */\n  swap3\n  swap2\n  pop\n  pop\n  jump\t// out\n    /* \"#utility.yul\":1476:2182   */\ntag_3:\n    /* \"#utility.yul\":1578:1584   */\n  0x00\n    /* \"#utility.yul\":1586:1592   */\n  dup1\n    /* \"#utility.yul\":1635:1637   */\n  0x40\n    /* \"#utility.yul\":1623:1632   */\n  dup4\n    /* \"#utility.yul\":1614:1621   */\n  dup6\n    /* \"#utility.yul\":1610:1633   */\n  sub\n    /* \"#utility.yul\":1606:1638   */\n  slt\n    /* \"#utility.yul\":1603:1722   */\n  iszero\n  tag_80\n  jumpi\n    /* \"#utility.yul\":1641:1720   */\n  tag_81\n  tag_82\n  jump\t// in\ntag_81:\n    /* \"#utility.yul\":1603:1722   */\ntag_80:\n    /* \"#utility.yul\":1782:1783   */\n  0x00\n    /* \"#utility.yul\":1771:1780   */\n  dup4\n    /* \"#utility.yul\":1767:1784   */\n  add\n    /* \"#utility.yul\":1761:1785   */\n  mload\n    /* \"#utility.yul\":1812:1830   */\n  0xffffffffffffffff\n    /* \"#utility.yul\":1804:1810   */\n  dup2\n    /* \"#utility.yul\":1801:1831   */\n  gt\n    /* \"#utility.yul\":1798:1915   */\n  iszero\n  tag_83\n  jumpi\n    /* \"#utility.yul\":1834:1913   */\n  tag_84\n  tag_85\n  jump\t// in\ntag_84:\n    /* \"#utility.yul\":1798:1915   */\ntag_83:\n    /* \"#utility.yul\":1939:2028   */\n  tag_86\n    /* \"#utility.yul\":2020:2027   */\n  dup6\n    /* \"#utility.yul\":2011:2017   */\n  dup3\n    /* \"#utility.yul\":2000:2009   */\n  dup7\n    /* \"#utility.yul\":1996:2018   */\n  add\n    /* \"#utility.yul\":1939:2028   */\n  tag_69\n  jump\t// in\ntag_86:\n    /* \"#utility.yul\":1929:2028   */\n  swap3\n  pop\n    /* \"#utility.yul\":1732:2038   */\n  pop\n    /* \"#utility.yul\":2077:2079   */\n  0x20\n    /* \"#utility.yul\":2103:2165   */\n  tag_87\n    /* \"#utility.yul\":2157:2164   */\n  dup6\n    /* \"#utility.yul\":2148:2154   */\n  dup3\n    /* \"#utility.yul\":2137:2146   */\n  dup7\n    /* \"#utility.yul\":2133:2155   */\n  add\n    /* \"#utility.yul\":2103:2165   */\n  tag_75\n  jump\t// in\ntag_87:\n    /* \"#utility.yul\":2093:2165   */\n  swap2\n  pop\n    /* \"#utility.yul\":2048:2175   */\n  pop\n    /* \"#utility.yul\":1476:2182   */\n  swap3\n  pop\n  swap3\n  swap1\n  pop\n  jump\t// out\n    /* \"#utility.yul\":2188:2554   */\ntag_88:\n    /* \"#utility.yul\":2330:2333   */\n  0x00\n    /* \"#utility.yul\":2351:2418   */\n  tag_90\n    /* \"#utility.yul\":2415:2417   */\n  0x24\n    /* \"#utility.yul\":2410:2413   */\n  dup4\n    /* \"#utility.yul\":2351:2418   */\n  tag_91\n  jump\t// in\ntag_90:\n    /* \"#utility.yul\":2344:2418   */\n  swap2\n  pop\n    /* \"#utility.yul\":2427:2520   */\n  tag_92\n    /* \"#utility.yul\":2516:2519   */\n  dup3\n    /* \"#utility.yul\":2427:2520   */\n  tag_93\n  jump\t// in\ntag_92:\n    /* \"#utility.yul\":2545:2547   */\n  0x40\n    /* \"#utility.yul\":2540:2543   */\n  dup3\n    /* \"#utility.yul\":2536:2548   */\n  add\n    /* \"#utility.yul\":2529:2548   */\n  swap1\n  pop\n    /* \"#utility.yul\":2188:2554   */\n  swap2\n  swap1\n  pop\n  jump\t// out\n    /* \"#utility.yul\":2560:2926   */\ntag_94:\n    /* \"#utility.yul\":2702:2705   */\n  0x00\n    /* \"#utility.yul\":2723:2790   */\n  tag_96\n    /* \"#utility.yul\":2787:2789   */\n  0x27\n    /* \"#utility.yul\":2782:2785   */\n  dup4\n    /* \"#utility.yul\":2723:2790   */\n  tag_91\n  jump\t// in\ntag_96:\n    /* \"#utility.yul\":2716:2790   */\n  swap2\n  pop\n    /* \"#utility.yul\":2799:2892   */\n  tag_97\n    /* \"#utility.yul\":2888:2891   */\n  dup3\n    /* \"#utility.yul\":2799:2892   */\n  tag_98\n  jump\t// in\ntag_97:\n    /* \"#utility.yul\":2917:2919   */\n  0x40\n    /* \"#utility.yul\":2912:2915   */\n  dup3\n    /* \"#utility.yul\":2908:2920   */\n  add\n    /* \"#utility.yul\":2901:2920   */\n  swap1\n  pop\n    /* \"#utility.yul\":2560:2926   */\n  swap2\n  swap1\n  pop\n  jump\t// out\n    /* \"#utility.yul\":2932:3298   */\ntag_99:\n    /* \"#utility.yul\":3074:3077   */\n  0x00\n    /* \"#utility.yul\":3095:3162   */\n  tag_101\n    /* \"#utility.yul\":3159:3161   */\n  0x50\n    /* \"#utility.yul\":3154:3157   */\n  dup4\n    /* \"#utility.yul\":3095:3162   */\n  tag_91\n  jump\t// in\ntag_101:\n    /* \"#utility.yul\":3088:3162   */\n  swap2\n  pop\n    /* \"#utility.yul\":3171:3264   */\n  tag_102\n    /* \"#utility.yul\":3260:3263   */\n  dup3\n    /* \"#utility.yul\":3171:3264   */\n  tag_103\n  jump\t// in\ntag_102:\n    /* \"#utility.yul\":3289:3291   */\n  0x60\n    /* \"#utility.yul\":3284:3287   */\n  dup3\n    /* \"#utility.yul\":3280:3292   */\n  add\n    /* \"#utility.yul\":3273:3292   */\n  swap1\n  pop\n    /* \"#utility.yul\":2932:3298   */\n  swap2\n  swap1\n  pop\n  jump\t// out\n    /* \"#utility.yul\":3304:3723   */\ntag_8:\n    /* \"#utility.yul\":3470:3474   */\n  0x00\n    /* \"#utility.yul\":3508:3510   */\n  0x20\n    /* \"#utility.yul\":3497:3506   */\n  dup3\n    /* \"#utility.yul\":3493:3511   */\n  add\n    /* \"#utility.yul\":3485:3511   */\n  swap1\n  pop\n    /* \"#utility.yul\":3557:3566   */\n  dup2\n    /* \"#utility.yul\":3551:3555   */\n  dup2\n    /* \"#utility.yul\":3547:3567   */\n  sub\n    /* \"#utility.yul\":3543:3544   */\n  0x00\n    /* \"#utility.yul\":3532:3541   */\n  dup4\n    /* \"#utility.yul\":3528:3545   */\n  add\n    /* \"#utility.yul\":3521:3568   */\n  mstore\n    /* \"#utility.yul\":3585:3716   */\n  tag_105\n    /* \"#utility.yul\":3711:3715   */\n  dup2\n    /* \"#utility.yul\":3585:3716   */\n  tag_88\n  jump\t// in\ntag_105:\n    /* \"#utility.yul\":3577:3716   */\n  swap1\n  pop\n    /* \"#utility.yul\":3304:3723   */\n  swap2\n  swap1\n  pop\n  jump\t// out\n    /* \"#utility.yul\":3729:4148   */\ntag_13:\n    /* \"#utility.yul\":3895:3899   */\n  0x00\n    /* \"#utility.yul\":3933:3935   */\n  0x20\n    /* \"#utility.yul\":3922:3931   */\n  dup3\n    /* \"#utility.yul\":3918:3936   */\n  add\n    /* \"#utility.yul\":3910:3936   */\n  swap1\n  pop\n    /* \"#utility.yul\":3982:3991   */\n  dup2\n    /* \"#utility.yul\":3976:3980   */\n  dup2\n    /* \"#utility.yul\":3972:3992   */\n  sub\n    /* \"#utility.yul\":3968:3969   */\n  0x00\n    /* \"#utility.yul\":3957:3966   */\n  dup4\n    /* \"#utility.yul\":3953:3970   */\n  add\n    /* \"#utility.yul\":3946:3993   */\n  mstore\n    /* \"#utility.yul\":4010:4141   */\n  tag_107\n    /* \"#utility.yul\":4136:4140   */\n  dup2\n    /* \"#utility.yul\":4010:4141   */\n  tag_94\n  jump\t// in\ntag_107:\n    /* \"#utility.yul\":4002:4141   */\n  swap1\n  pop\n    /* \"#utility.yul\":3729:4148   */\n  swap2\n  swap1\n  pop\n  jump\t// out\n    /* \"#utility.yul\":4154:4573   */\ntag_17:\n    /* \"#utility.yul\":4320:4324   */\n  0x00\n    /* \"#utility.yul\":4358:4360   */\n  0x20\n    /* \"#utility.yul\":4347:4356   */\n  dup3\n    /* \"#utility.yul\":4343:4361   */\n  add\n    /* \"#utility.yul\":4335:4361   */\n  swap1\n  pop\n    /* \"#utility.yul\":4407:4416   */\n  dup2\n    /* \"#utility.yul\":4401:4405   */\n  dup2\n    /* \"#utility.yul\":4397:4417   */\n  sub\n    /* \"#utility.yul\":4393:4394   */\n  0x00\n    /* \"#utility.yul\":4382:4391   */\n  dup4\n    /* \"#utility.yul\":4378:4395   */\n  add\n    /* \"#utility.yul\":4371:4418   */\n  mstore\n    /* \"#utility.yul\":4435:4566   */\n  tag_109\n    /* \"#utility.yul\":4561:4565   */\n  dup2\n    /* \"#utility.yul\":4435:4566   */\n  tag_99\n  jump\t// in\ntag_109:\n    /* \"#utility.yul\":4427:4566   */\n  swap1\n  pop\n    /* \"#utility.yul\":4154:4573   */\n  swap2\n  swap1\n  pop\n  jump\t// out\n    /* \"#utility.yul\":4579:4708   */\ntag_57:\n    /* \"#utility.yul\":4613:4619   */\n  0x00\n    /* \"#utility.yul\":4640:4660   */\n  tag_111\n  tag_112\n  jump\t// in\ntag_111:\n    /* \"#utility.yul\":4630:4660   */\n  swap1\n  pop\n    /* \"#utility.yul\":4669:4702   */\n  tag_113\n    /* \"#utility.yul\":4697:4701   */\n  dup3\n    /* \"#utility.yul\":4689:4695   */\n  dup3\n    /* \"#utility.yul\":4669:4702   */\n  tag_114\n  jump\t// in\ntag_113:\n    /* \"#utility.yul\":4579:4708   */\n  swap2\n  swap1\n  pop\n  jump\t// out\n    /* \"#utility.yul\":4714:4789   */\ntag_112:\n    /* \"#utility.yul\":4747:4753   */\n  0x00\n    /* \"#utility.yul\":4780:4782   */\n  0x40\n    /* \"#utility.yul\":4774:4783   */\n  mload\n    /* \"#utility.yul\":4764:4783   */\n  swap1\n  pop\n    /* \"#utility.yul\":4714:4789   */\n  swap1\n  jump\t// out\n    /* \"#utility.yul\":4795:5106   */\ntag_56:\n    /* \"#utility.yul\":4872:4876   */\n  0x00\n    /* \"#utility.yul\":4962:4980   */\n  0xffffffffffffffff\n    /* \"#utility.yul\":4954:4960   */\n  dup3\n    /* \"#utility.yul\":4951:4981   */\n  gt\n    /* \"#utility.yul\":4948:5004   */\n  iszero\n  tag_117\n  jumpi\n    /* \"#utility.yul\":4984:5002   */\n  tag_118\n  tag_119\n  jump\t// in\ntag_118:\n    /* \"#utility.yul\":4948:5004   */\ntag_117:\n    /* \"#utility.yul\":5034:5038   */\n  0x20\n    /* \"#utility.yul\":5026:5032   */\n  dup3\n    /* \"#utility.yul\":5022:5039   */\n  mul\n    /* \"#utility.yul\":5014:5039   */\n  swap1\n  pop\n    /* \"#utility.yul\":5094:5098   */\n  0x20\n    /* \"#utility.yul\":5088:5092   */\n  dup2\n    /* \"#utility.yul\":5084:5099   */\n  add\n    /* \"#utility.yul\":5076:5099   */\n  swap1\n  pop\n    /* \"#utility.yul\":4795:5106   */\n  swap2\n  swap1\n  pop\n  jump\t// out\n    /* \"#utility.yul\":5112:5281   */\ntag_91:\n    /* \"#utility.yul\":5196:5207   */\n  0x00\n    /* \"#utility.yul\":5230:5236   */\n  dup3\n    /* \"#utility.yul\":5225:5228   */\n  dup3\n    /* \"#utility.yul\":5218:5237   */\n  mstore\n    /* \"#utility.yul\":5270:5274   */\n  0x20\n    /* \"#utility.yul\":5265:5268   */\n  dup3\n    /* \"#utility.yul\":5261:5275   */\n  add\n    /* \"#utility.yul\":5246:5275   */\n  swap1\n  pop\n    /* \"#utility.yul\":5112:5281   */\n  swap3\n  swap2\n  pop\n  pop\n  jump\t// out\n    /* \"#utility.yul\":5287:5592   */\ntag_32:\n    /* \"#utility.yul\":5327:5330   */\n  0x00\n    /* \"#utility.yul\":5346:5366   */\n  tag_122\n    /* \"#utility.yul\":5364:5365   */\n  dup3\n    /* \"#utility.yul\":5346:5366   */\n  tag_123\n  jump\t// in\ntag_122:\n    /* \"#utility.yul\":5341:5366   */\n  swap2\n  pop\n    /* \"#utility.yul\":5380:5400   */\n  tag_124\n    /* \"#utility.yul\":5398:5399   */\n  dup4\n    /* \"#utility.yul\":5380:5400   */\n  tag_123\n  jump\t// in\ntag_124:\n    /* \"#utility.yul\":5375:5400   */\n  swap3\n  pop\n    /* \"#utility.yul\":5534:5535   */\n  dup3\n    /* \"#utility.yul\":5466:5532   */\n  0xffffffffffffffffffffffffffffffffffffffffffffffffffffffffffffffff\n    /* \"#utility.yul\":5462:5536   */\n  sub\n    /* \"#utility.yul\":5459:5460   */\n  dup3\n    /* \"#utility.yul\":5456:5537   */\n  gt\n    /* \"#utility.yul\":5453:5560   */\n  iszero\n  tag_125\n  jumpi\n    /* \"#utility.yul\":5540:5558   */\n  tag_126\n  tag_127\n  jump\t// in\ntag_126:\n    /* \"#utility.yul\":5453:5560   */\ntag_125:\n    /* \"#utility.yul\":5584:5585   */\n  dup3\n    /* \"#utility.yul\":5581:5582   */\n  dup3\n    /* \"#utility.yul\":5577:5586   */\n  add\n    /* \"#utility.yul\":5570:5586   */\n  swap1\n  pop\n    /* \"#utility.yul\":5287:5592   */\n  swap3\n  swap2\n  pop\n  pop\n  jump\t// out\n    /* \"#utility.yul\":5598:5789   */\ntag_26:\n    /* \"#utility.yul\":5638:5642   */\n  0x00\n    /* \"#utility.yul\":5658:5678   */\n  tag_129\n    /* \"#utility.yul\":5676:5677   */\n  dup3\n    /* \"#utility.yul\":5658:5678   */\n  tag_123\n  jump\t// in\ntag_129:\n    /* \"#utility.yul\":5653:5678   */\n  swap2\n  pop\n    /* \"#utility.yul\":5692:5712   */\n  tag_130\n    /* \"#utility.yul\":5710:5711   */\n  dup4\n    /* \"#utility.yul\":5692:5712   */\n  tag_123\n  jump\t// in\ntag_130:\n    /* \"#utility.yul\":5687:5712   */\n  swap3\n  pop\n    /* \"#utility.yul\":5731:5732   */\n  dup3\n    /* \"#utility.yul\":5728:5729   */\n  dup3\n    /* \"#utility.yul\":5725:5733   */\n  lt\n    /* \"#utility.yul\":5722:5756   */\n  iszero\n  tag_131\n  jumpi\n    /* \"#utility.yul\":5736:5754   */\n  tag_132\n  tag_127\n  jump\t// in\ntag_132:\n    /* \"#utility.yul\":5722:5756   */\ntag_131:\n    /* \"#utility.yul\":5781:5782   */\n  dup3\n    /* \"#utility.yul\":5778:5779   */\n  dup3\n    /* \"#utility.yul\":5774:5783   */\n  sub\n    /* \"#utility.yul\":5766:5783   */\n  swap1\n  pop\n    /* \"#utility.yul\":5598:5789   */\n  swap3\n  swap2\n  pop\n  pop\n  jump\t// out\n    /* \"#utility.yul\":5795:5891   */\ntag_133:\n    /* \"#utility.yul\":5832:5839   */\n  0x00\n    /* \"#utility.yul\":5861:5885   */\n  tag_135\n    /* \"#utility.yul\":5879:5884   */\n  dup3\n    /* \"#utility.yul\":5861:5885   */\n  tag_136\n  jump\t// in\ntag_135:\n    /* \"#utility.yul\":5850:5885   */\n  swap1\n  pop\n    /* \"#utility.yul\":5795:5891   */\n  swap2\n  swap1\n  pop\n  jump\t// out\n    /* \"#utility.yul\":5897:6023   */\ntag_136:\n    /* \"#utility.yul\":5934:5941   */\n  0x00\n    /* \"#utility.yul\":5974:6016   */\n  0xffffffffffffffffffffffffffffffffffffffff\n    /* \"#utility.yul\":5967:5972   */\n  dup3\n    /* \"#utility.yul\":5963:6017   */\n  and\n    /* \"#utility.yul\":5952:6017   */\n  swap1\n  pop\n    /* \"#utility.yul\":5897:6023   */\n  swap2\n  swap1\n  pop\n  jump\t// out\n    /* \"#utility.yul\":6029:6106   */\ntag_123:\n    /* \"#utility.yul\":6066:6073   */\n  0x00\n    /* \"#utility.yul\":6095:6100   */\n  dup2\n    /* \"#utility.yul\":6084:6100   */\n  swap1\n  pop\n    /* \"#utility.yul\":6029:6106   */\n  swap2\n  swap1\n  pop\n  jump\t// out\n    /* \"#utility.yul\":6112:6198   */\ntag_139:\n    /* \"#utility.yul\":6147:6154   */\n  0x00\n    /* \"#utility.yul\":6187:6191   */\n  0xff\n    /* \"#utility.yul\":6180:6185   */\n  dup3\n    /* \"#utility.yul\":6176:6192   */\n  and\n    /* \"#utility.yul\":6165:6192   */\n  swap1\n  pop\n    /* \"#utility.yul\":6112:6198   */\n  swap2\n  swap1\n  pop\n  jump\t// out\n    /* \"#utility.yul\":6204:6485   */\ntag_114:\n    /* \"#utility.yul\":6287:6314   */\n  tag_142\n    /* \"#utility.yul\":6309:6313   */\n  dup3\n    /* \"#utility.yul\":6287:6314   */\n  tag_143\n  jump\t// in\ntag_142:\n    /* \"#utility.yul\":6279:6285   */\n  dup2\n    /* \"#utility.yul\":6275:6315   */\n  add\n    /* \"#utility.yul\":6417:6423   */\n  dup2\n    /* \"#utility.yul\":6405:6415   */\n  dup2\n    /* \"#utility.yul\":6402:6424   */\n  lt\n    /* \"#utility.yul\":6381:6399   */\n  0xffffffffffffffff\n    /* \"#utility.yul\":6369:6379   */\n  dup3\n    /* \"#utility.yul\":6366:6400   */\n  gt\n    /* \"#utility.yul\":6363:6425   */\n  or\n    /* \"#utility.yul\":6360:6448   */\n  iszero\n  tag_144\n  jumpi\n    /* \"#utility.yul\":6428:6446   */\n  tag_145\n  tag_119\n  jump\t// in\ntag_145:\n    /* \"#utility.yul\":6360:6448   */\ntag_144:\n    /* \"#utility.yul\":6468:6478   */\n  dup1\n    /* \"#utility.yul\":6464:6466   */\n  0x40\n    /* \"#utility.yul\":6457:6479   */\n  mstore\n    /* \"#utility.yul\":6247:6485   */\n  pop\n    /* \"#utility.yul\":6204:6485   */\n  pop\n  pop\n  jump\t// out\n    /* \"#utility.yul\":6491:6724   */\ntag_42:\n    /* \"#utility.yul\":6530:6533   */\n  0x00\n    /* \"#utility.yul\":6553:6577   */\n  tag_147\n    /* \"#utility.yul\":6571:6576   */\n  dup3\n    /* \"#utility.yul\":6553:6577   */\n  tag_123\n  jump\t// in\ntag_147:\n    /* \"#utility.yul\":6544:6577   */\n  swap2\n  pop\n    /* \"#utility.yul\":6599:6665   */\n  0xffffffffffffffffffffffffffffffffffffffffffffffffffffffffffffffff\n    /* \"#utility.yul\":6592:6597   */\n  dup3\n    /* \"#utility.yul\":6589:6666   */\n  eq\n    /* \"#utility.yul\":6586:6689   */\n  iszero\n  tag_148\n  jumpi\n    /* \"#utility.yul\":6669:6687   */\n  tag_149\n  tag_127\n  jump\t// in\ntag_149:\n    /* \"#utility.yul\":6586:6689   */\ntag_148:\n    /* \"#utility.yul\":6716:6717   */\n  0x01\n    /* \"#utility.yul\":6709:6714   */\n  dup3\n    /* \"#utility.yul\":6705:6718   */\n  add\n    /* \"#utility.yul\":6698:6718   */\n  swap1\n  pop\n    /* \"#utility.yul\":6491:6724   */\n  swap2\n  swap1\n  pop\n  jump\t// out\n    /* \"#utility.yul\":6730:6910   */\ntag_127:\n    /* \"#utility.yul\":6778:6855   */\n  0x4e487b7100000000000000000000000000000000000000000000000000000000\n    /* \"#utility.yul\":6775:6776   */\n  0x00\n    /* \"#utility.yul\":6768:6856   */\n  mstore\n    /* \"#utility.yul\":6875:6879   */\n  0x11\n    /* \"#utility.yul\":6872:6873   */\n  0x04\n    /* \"#utility.yul\":6865:6880   */\n  mstore\n    /* \"#utility.yul\":6899:6903   */\n  0x24\n    /* \"#utility.yul\":6896:6897   */\n  0x00\n    /* \"#utility.yul\":6889:6904   */\n  revert\n    /* \"#utility.yul\":6916:7096   */\ntag_35:\n    /* \"#utility.yul\":6964:7041   */\n  0x4e487b7100000000000000000000000000000000000000000000000000000000\n    /* \"#utility.yul\":6961:6962   */\n  0x00\n    /* \"#utility.yul\":6954:7042   */\n  mstore\n    /* \"#utility.yul\":7061:7065   */\n  0x32\n    /* \"#utility.yul\":7058:7059   */\n  0x04\n    /* \"#utility.yul\":7051:7066   */\n  mstore\n    /* \"#utility.yul\":7085:7089   */\n  0x24\n    /* \"#utility.yul\":7082:7083   */\n  0x00\n    /* \"#utility.yul\":7075:7090   */\n  revert\n    /* \"#utility.yul\":7102:7282   */\ntag_119:\n    /* \"#utility.yul\":7150:7227   */\n  0x4e487b7100000000000000000000000000000000000000000000000000000000\n    /* \"#utility.yul\":7147:7148   */\n  0x00\n    /* \"#utility.yul\":7140:7228   */\n  mstore\n    /* \"#utility.yul\":7247:7251   */\n  0x41\n    /* \"#utility.yul\":7244:7245   */\n  0x04\n    /* \"#utility.yul\":7237:7252   */\n  mstore\n    /* \"#utility.yul\":7271:7275   */\n  0x24\n    /* \"#utility.yul\":7268:7269   */\n  0x00\n    /* \"#utility.yul\":7261:7276   */\n  revert\n    /* \"#utility.yul\":7288:7405   */\ntag_73:\n    /* \"#utility.yul\":7397:7398   */\n  0x00\n    /* \"#utility.yul\":7394:7395   */\n  dup1\n    /* \"#utility.yul\":7387:7399   */\n  revert\n    /* \"#utility.yul\":7411:7528   */\ntag_60:\n    /* \"#utility.yul\":7520:7521   */\n  0x00\n    /* \"#utility.yul\":7517:7518   */\n  dup1\n    /* \"#utility.yul\":7510:7522   */\n  revert\n    /* \"#utility.yul\":7534:7651   */\ntag_85:\n    /* \"#utility.yul\":7643:7644   */\n  0x00\n    /* \"#utility.yul\":7640:7641   */\n  dup1\n    /* \"#utility.yul\":7633:7645   */\n  revert\n    /* \"#utility.yul\":7657:7774   */\ntag_82:\n    /* \"#utility.yul\":7766:7767   */\n  0x00\n    /* \"#utility.yul\":7763:7764   */\n  dup1\n    /* \"#utility.yul\":7756:7768   */\n  revert\n    /* \"#utility.yul\":7780:7882   */\ntag_143:\n    /* \"#utility.yul\":7821:7827   */\n  0x00\n    /* \"#utility.yul\":7872:7874   */\n  0x1f\n    /* \"#utility.yul\":7868:7875   */\n  not\n    /* \"#utility.yul\":7863:7865   */\n  0x1f\n    /* \"#utility.yul\":7856:7861   */\n  dup4\n    /* \"#utility.yul\":7852:7866   */\n  add\n    /* \"#utility.yul\":7848:7876   */\n  and\n    /* \"#utility.yul\":7838:7876   */\n  swap1\n  pop\n    /* \"#utility.yul\":7780:7882   */\n  swap2\n  swap1\n  pop\n  jump\t// out\n    /* \"#utility.yul\":7888:8111   */\ntag_93:\n    /* \"#utility.yul\":8028:8062   */\n  0x616c6c20636f6c6c61626f7261746f727320636f756e74206174206c65617374\n    /* \"#utility.yul\":8024:8025   */\n  0x00\n    /* \"#utility.yul\":8016:8022   */\n  dup3\n    /* \"#utility.yul\":8012:8026   */\n  add\n    /* \"#utility.yul\":8005:8063   */\n  mstore\n    /* \"#utility.yul\":8097:8103   */\n  0x206f6e6500000000000000000000000000000000000000000000000000000000\n    /* \"#utility.yul\":8092:8094   */\n  0x20\n    /* \"#utility.yul\":8084:8090   */\n  dup3\n    /* \"#utility.yul\":8080:8095   */\n  add\n    /* \"#utility.yul\":8073:8104   */\n  mstore\n    /* \"#utility.yul\":7888:8111   */\n  pop\n  jump\t// out\n    /* \"#utility.yul\":8117:8343   */\ntag_98:\n    /* \"#utility.yul\":8257:8291   */\n  0x74686520636f6c6c61626f7261746f7273206d757374206e6f20626520647570\n    /* \"#utility.yul\":8253:8254   */\n  0x00\n    /* \"#utility.yul\":8245:8251   */\n  dup3\n    /* \"#utility.yul\":8241:8255   */\n  add\n    /* \"#utility.yul\":8234:8292   */\n  mstore\n    /* \"#utility.yul\":8326:8335   */\n  0x6c69636174656400000000000000000000000000000000000000000000000000\n    /* \"#utility.yul\":8321:8323   */\n  0x20\n    /* \"#utility.yul\":8313:8319   */\n  dup3\n    /* \"#utility.yul\":8309:8324   */\n  add\n    /* \"#utility.yul\":8302:8336   */\n  mstore\n    /* \"#utility.yul\":8117:8343   */\n  pop\n  jump\t// out\n    /* \"#utility.yul\":8349:8653   */\ntag_103:\n    /* \"#utility.yul\":8489:8523   */\n  0x6174206c65617374207369676e20636f756e74206d757374206d6f7265207468\n    /* \"#utility.yul\":8485:8486   */\n  0x00\n    /* \"#utility.yul\":8477:8483   */\n  dup3\n    /* \"#utility.yul\":8473:8487   */\n  add\n    /* \"#utility.yul\":8466:8524   */\n  mstore\n    /* \"#utility.yul\":8558:8592   */\n  0x616e203020616e64206c657373207468616e206f7220657175616c7320636f6c\n    /* \"#utility.yul\":8553:8555   */\n  0x20\n    /* \"#utility.yul\":8545:8551   */\n  dup3\n    /* \"#utility.yul\":8541:8556   */\n  add\n    /* \"#utility.yul\":8534:8593   */\n  mstore\n    /* \"#utility.yul\":8627:8645   */\n  0x6c61626f7261746f727320636f756e7400000000000000000000000000000000\n    /* \"#utility.yul\":8622:8624   */\n  0x40\n    /* \"#utility.yul\":8614:8620   */\n  dup3\n    /* \"#utility.yul\":8610:8625   */\n  add\n    /* \"#utility.yul\":8603:8646   */\n  mstore\n    /* \"#utility.yul\":8349:8653   */\n  pop\n  jump\t// out\n    /* \"#utility.yul\":8659:8781   */\ntag_68:\n    /* \"#utility.yul\":8732:8756   */\n  tag_162\n    /* \"#utility.yul\":8750:8755   */\n  dup2\n    /* \"#utility.yul\":8732:8756   */\n  tag_133\n  jump\t// in\ntag_162:\n    /* \"#utility.yul\":8725:8730   */\n  dup2\n    /* \"#utility.yul\":8722:8757   */\n  eq\n    /* \"#utility.yul\":8712:8775   */\n  tag_163\n  jumpi\n    /* \"#utility.yul\":8771:8772   */\n  0x00\n    /* \"#utility.yul\":8768:8769   */\n  dup1\n    /* \"#utility.yul\":8761:8773   */\n  revert\n    /* \"#utility.yul\":8712:8775   */\ntag_163:\n    /* \"#utility.yul\":8659:8781   */\n  pop\n  jump\t// out\n    /* \"#utility.yul\":8787:8905   */\ntag_78:\n    /* \"#utility.yul\":8858:8880   */\n  tag_165\n    /* \"#utility.yul\":8874:8879   */\n  dup2\n    /* \"#utility.yul\":8858:8880   */\n  tag_139\n  jump\t// in\ntag_165:\n    /* \"#utility.yul\":8851:8856   */\n  dup2\n    /* \"#utility.yul\":8848:8881   */\n  eq\n    /* \"#utility.yul\":8838:8899   */\n  tag_166\n  jumpi\n    /* \"#utility.yul\":8895:8896   */\n  0x00\n    /* \"#utility.yul\":8892:8893   */\n  dup1\n    /* \"#utility.yul\":8885:8897   */\n  revert\n    /* \"#utility.yul\":8838:8899   */\ntag_166:\n    /* \"#utility.yul\":8787:8905   */\n  pop\n  jump\t// out\n    /* \"contracts/MultisigWallet.sol\":108:6284  contract MultisigWallet {... */\ntag_20:\n  dataSize(sub_0)\n  dup1\n  dataOffset(sub_0)\n  0x00\n  codecopy\n  0x00\n  return\nstop\n\nsub_0: assembly {\n        /* \"contracts/MultisigWallet.sol\":108:6284  contract MultisigWallet {... */\n      mstore(0x40, 0x80)\n      jumpi(tag_1, lt(calldatasize, 0x04))\n      shr(0xe0, calldataload(0x00))\n      dup1\n      0x68a1376b\n      gt\n      tag_9\n      jumpi\n      dup1\n      0x68a1376b\n      eq\n      tag_5\n      jumpi\n      dup1\n      0xb517e0b4\n      eq\n      tag_6\n      jumpi\n      dup1\n      0xb69ef8a8\n      eq\n      tag_7\n      jumpi\n      dup1\n      0xca3ea43f\n      eq\n      tag_8\n      jumpi\n      jump(tag_1)\n    tag_9:\n      dup1\n      0x3bdf3e\n      eq\n      tag_2\n      jumpi\n      dup1\n      0x1535430b\n      eq\n      tag_3\n      jumpi\n      dup1\n      0x352ce050\n      eq\n      tag_4\n      jumpi\n    tag_1:\n      0x00\n      dup1\n      revert\n        /* \"contracts/MultisigWallet.sol\":2641:3090  function process_withdraw(uint weis, address payable targetAddress) public onlyCollaborators {... */\n    tag_2:\n      callvalue\n      dup1\n      iszero\n      tag_10\n      jumpi\n      0x00\n      dup1\n      revert\n    tag_10:\n      pop\n      tag_11\n      0x04\n      dup1\n      calldatasize\n      sub\n      dup2\n      add\n      swap1\n      tag_12\n      swap2\n      swap1\n      tag_13\n      jump\t// in\n    tag_12:\n      tag_14\n      jump\t// in\n    tag_11:\n      stop\n        /* \"contracts/MultisigWallet.sol\":3456:4154  function cancel_withdraw_by_counterparty() public onlyCollaborators {... */\n    tag_3:\n      callvalue\n      dup1\n      iszero\n      tag_15\n      jumpi\n      0x00\n      dup1\n      revert\n    tag_15:\n      pop\n      tag_16\n      tag_17\n      jump\t// in\n    tag_16:\n      stop\n        /* \"contracts/MultisigWallet.sol\":4808:5445  function collaboratorSign() public onlyCollaborators {... */\n    tag_4:\n      callvalue\n      dup1\n      iszero\n      tag_18\n      jumpi\n      0x00\n      dup1\n      revert\n    tag_18:\n      pop\n      tag_19\n      tag_20\n      jump\t// in\n    tag_19:\n      stop\n        /* \"contracts/MultisigWallet.sol\":2460:2638  function topin() public payable {... */\n    tag_5:\n      tag_21\n      tag_22\n      jump\t// in\n    tag_21:\n      stop\n        /* \"contracts/MultisigWallet.sol\":4196:4358  function cancel_withdraw() public onlyCollaborators {... */\n    tag_6:\n      callvalue\n      dup1\n      iszero\n      tag_23\n      jumpi\n      0x00\n      dup1\n      revert\n    tag_23:\n      pop\n      tag_24\n      tag_25\n      jump\t// in\n    tag_24:\n      stop\n        /* \"contracts/MultisigWallet.sol\":169:188  uint public balance */\n    tag_7:\n      callvalue\n      dup1\n      iszero\n      tag_26\n      jumpi\n      0x00\n      dup1\n      revert\n    tag_26:\n      pop\n      tag_27\n      tag_28\n      jump\t// in\n    tag_27:\n      mload(0x40)\n      tag_29\n      swap2\n      swap1\n      tag_30\n      jump\t// in\n    tag_29:\n      mload(0x40)\n      dup1\n      swap2\n      sub\n      swap1\n      return\n        /* \"contracts/MultisigWallet.sol\":1085:1111  uint public withdraw_count */\n    tag_8:\n      callvalue\n      dup1\n      iszero\n      tag_31\n      jumpi\n      0x00\n      dup1\n      revert\n    tag_31:\n      pop\n      tag_32\n      tag_33\n      jump\t// in\n    tag_32:\n      mload(0x40)\n      tag_34\n      swap2\n      swap1\n      tag_30\n      jump\t// in\n    tag_34:\n      mload(0x40)\n      dup1\n      swap2\n      sub\n      swap1\n      return\n        /* \"contracts/MultisigWallet.sol\":2641:3090  function process_withdraw(uint weis, address payable targetAddress) public onlyCollaborators {... */\n    tag_14:\n        /* \"contracts/MultisigWallet.sol\":2328:2352  is_oneof_collaborators() */\n      tag_36\n        /* \"contracts/MultisigWallet.sol\":2328:2350  is_oneof_collaborators */\n      tag_37\n        /* \"contracts/MultisigWallet.sol\":2328:2352  is_oneof_collaborators() */\n      jump\t// in\n    tag_36:\n        /* \"contracts/MultisigWallet.sol\":2320:2395  require(is_oneof_collaborators(), \"only collaborators have the permission\") */\n      tag_38\n      jumpi\n      mload(0x40)\n      0x08c379a000000000000000000000000000000000000000000000000000000000\n      dup2\n      mstore\n      0x04\n      add\n      tag_39\n      swap1\n      tag_40\n      jump\t// in\n    tag_39:\n      mload(0x40)\n      dup1\n      swap2\n      sub\n      swap1\n      revert\n    tag_38:\n        /* \"contracts/MultisigWallet.sol\":2770:2771  0 */\n      0x00\n        /* \"contracts/MultisigWallet.sol\":2746:2766  waitfor_withdraw_wei */\n      sload(0x04)\n        /* \"contracts/MultisigWallet.sol\":2746:2771  waitfor_withdraw_wei == 0 */\n      eq\n        /* \"contracts/MultisigWallet.sol\":2738:2805  require(waitfor_withdraw_wei == 0, \"pre process has not been over\") */\n      tag_42\n      jumpi\n      mload(0x40)\n      0x08c379a000000000000000000000000000000000000000000000000000000000\n      dup2\n      mstore\n      0x04\n      add\n      tag_43\n      swap1\n      tag_44\n      jump\t// in\n    tag_43:\n      mload(0x40)\n      dup1\n      swap2\n      sub\n      swap1\n      revert\n    tag_42:\n        /* \"contracts/MultisigWallet.sol\":2827:2834  balance */\n      sload(0x00)\n        /* \"contracts/MultisigWallet.sol\":2819:2823  weis */\n      dup3\n        /* \"contracts/MultisigWallet.sol\":2819:2834  weis <= balance */\n      gt\n      iszero\n        /* \"contracts/MultisigWallet.sol\":2811:2883  require(weis <= balance, \"withdraw balance could not more than balance\") */\n      tag_45\n      jumpi\n      mload(0x40)\n      0x08c379a000000000000000000000000000000000000000000000000000000000\n      dup2\n      mstore\n      0x04\n      add\n      tag_46\n      swap1\n      tag_47\n      jump\t// in\n    tag_46:\n      mload(0x40)\n      dup1\n      swap2\n      sub\n      swap1\n      revert\n    tag_45:\n        /* \"contracts/MultisigWallet.sol\":2920:2923  0x0 */\n      0x00\n        /* \"contracts/MultisigWallet.sol\":2895:2924  targetAddress != address(0x0) */\n      0xffffffffffffffffffffffffffffffffffffffff\n      and\n        /* \"contracts/MultisigWallet.sol\":2895:2908  targetAddress */\n      dup2\n        /* \"contracts/MultisigWallet.sol\":2895:2924  targetAddress != address(0x0) */\n      0xffffffffffffffffffffffffffffffffffffffff\n      and\n      eq\n      iszero\n        /* \"contracts/MultisigWallet.sol\":2887:2950  require(targetAddress != address(0x0), \"invalid targetAddress\") */\n      tag_48\n      jumpi\n      mload(0x40)\n      0x08c379a000000000000000000000000000000000000000000000000000000000\n      dup2\n      mstore\n      0x04\n      add\n      tag_49\n      swap1\n      tag_50\n      jump\t// in\n    tag_49:\n      mload(0x40)\n      dup1\n      swap2\n      sub\n      swap1\n      revert\n    tag_48:\n        /* \"contracts/MultisigWallet.sol\":2966:2976  msg.sender */\n      caller\n        /* \"contracts/MultisigWallet.sol\":2954:2963  initiator */\n      0x06\n      0x00\n        /* \"contracts/MultisigWallet.sol\":2954:2976  initiator = msg.sender */\n      0x0100\n      exp\n      dup2\n      sload\n      dup2\n      0xffffffffffffffffffffffffffffffffffffffff\n      mul\n      not\n      and\n      swap1\n      dup4\n      0xffffffffffffffffffffffffffffffffffffffff\n      and\n      mul\n      or\n      swap1\n      sstore\n      pop\n        /* \"contracts/MultisigWallet.sol\":3003:3007  weis */\n      dup2\n        /* \"contracts/MultisigWallet.sol\":2980:3000  waitfor_withdraw_wei */\n      0x04\n        /* \"contracts/MultisigWallet.sol\":2980:3007  waitfor_withdraw_wei = weis */\n      dup2\n      swap1\n      sstore\n      pop\n        /* \"contracts/MultisigWallet.sol\":3038:3051  targetAddress */\n      dup1\n        /* \"contracts/MultisigWallet.sol\":3011:3035  waitfor_withdraw_address */\n      0x05\n      0x00\n        /* \"contracts/MultisigWallet.sol\":3011:3051  waitfor_withdraw_address = targetAddress */\n      0x0100\n      exp\n      dup2\n      sload\n      dup2\n      0xffffffffffffffffffffffffffffffffffffffff\n      mul\n      not\n      and\n      swap1\n      dup4\n      0xffffffffffffffffffffffffffffffffffffffff\n      and\n      mul\n      or\n      swap1\n      sstore\n      pop\n        /* \"contracts/MultisigWallet.sol\":3055:3069  current_signed */\n      0x07\n        /* \"contracts/MultisigWallet.sol\":3075:3085  msg.sender */\n      caller\n        /* \"contracts/MultisigWallet.sol\":3055:3086  current_signed.push(msg.sender) */\n      swap1\n      dup1\n      0x01\n      dup2\n      sload\n      add\n      dup1\n      dup3\n      sstore\n      dup1\n      swap2\n      pop\n      pop\n      0x01\n      swap1\n      sub\n      swap1\n      0x00\n      mstore\n      keccak256(0x00, 0x20)\n      add\n      0x00\n      swap1\n      swap2\n      swap1\n      swap2\n      swap1\n      swap2\n      0x0100\n      exp\n      dup2\n      sload\n      dup2\n      0xffffffffffffffffffffffffffffffffffffffff\n      mul\n      not\n      and\n      swap1\n      dup4\n      0xffffffffffffffffffffffffffffffffffffffff\n      and\n      mul\n      or\n      swap1\n      sstore\n      pop\n        /* \"contracts/MultisigWallet.sol\":2641:3090  function process_withdraw(uint weis, address payable targetAddress) public onlyCollaborators {... */\n      pop\n      pop\n      jump\t// out\n        /* \"contracts/MultisigWallet.sol\":3456:4154  function cancel_withdraw_by_counterparty() public onlyCollaborators {... */\n    tag_17:\n        /* \"contracts/MultisigWallet.sol\":2328:2352  is_oneof_collaborators() */\n      tag_53\n        /* \"contracts/MultisigWallet.sol\":2328:2350  is_oneof_collaborators */\n      tag_37\n        /* \"contracts/MultisigWallet.sol\":2328:2352  is_oneof_collaborators() */\n      jump\t// in\n    tag_53:\n        /* \"contracts/MultisigWallet.sol\":2320:2395  require(is_oneof_collaborators(), \"only collaborators have the permission\") */\n      tag_54\n      jumpi\n      mload(0x40)\n      0x08c379a000000000000000000000000000000000000000000000000000000000\n      dup2\n      mstore\n      0x04\n      add\n      tag_55\n      swap1\n      tag_40\n      jump\t// in\n    tag_55:\n      mload(0x40)\n      dup1\n      swap2\n      sub\n      swap1\n      revert\n    tag_54:\n        /* \"contracts/MultisigWallet.sol\":3550:3559  initiator */\n      0x06\n      0x00\n      swap1\n      sload\n      swap1\n      0x0100\n      exp\n      swap1\n      div\n      0xffffffffffffffffffffffffffffffffffffffff\n      and\n        /* \"contracts/MultisigWallet.sol\":3536:3559  msg.sender != initiator */\n      0xffffffffffffffffffffffffffffffffffffffff\n      and\n        /* \"contracts/MultisigWallet.sol\":3536:3546  msg.sender */\n      caller\n        /* \"contracts/MultisigWallet.sol\":3536:3559  msg.sender != initiator */\n      0xffffffffffffffffffffffffffffffffffffffff\n      and\n      eq\n      iszero\n        /* \"contracts/MultisigWallet.sol\":3528:3622  require(msg.sender != initiator, \"only the counter party of initiator can call this function\") */\n      tag_57\n      jumpi\n      mload(0x40)\n      0x08c379a000000000000000000000000000000000000000000000000000000000\n      dup2\n      mstore\n      0x04\n      add\n      tag_58\n      swap1\n      tag_59\n      jump\t// in\n    tag_58:\n      mload(0x40)\n      dup1\n      swap2\n      sub\n      swap1\n      revert\n    tag_57:\n        /* \"contracts/MultisigWallet.sol\":3635:3699  address_array_in(current_cancel_counterparty_signed, msg.sender) */\n      tag_60\n        /* \"contracts/MultisigWallet.sol\":3652:3686  current_cancel_counterparty_signed */\n      0x08\n        /* \"contracts/MultisigWallet.sol\":3635:3699  address_array_in(current_cancel_counterparty_signed, msg.sender) */\n      dup1\n      sload\n      dup1\n      0x20\n      mul\n      0x20\n      add\n      mload(0x40)\n      swap1\n      dup2\n      add\n      0x40\n      mstore\n      dup1\n      swap3\n      swap2\n      swap1\n      dup2\n      dup2\n      mstore\n      0x20\n      add\n      dup3\n      dup1\n      sload\n      dup1\n      iszero\n      tag_61\n      jumpi\n      0x20\n      mul\n      dup3\n      add\n      swap2\n      swap1\n      0x00\n      mstore\n      keccak256(0x00, 0x20)\n      swap1\n    tag_62:\n      dup2\n      0x00\n      swap1\n      sload\n      swap1\n      0x0100\n      exp\n      swap1\n      div\n      0xffffffffffffffffffffffffffffffffffffffff\n      and\n      0xffffffffffffffffffffffffffffffffffffffff\n      and\n      dup2\n      mstore\n      0x20\n      add\n      swap1\n      0x01\n      add\n      swap1\n      dup1\n      dup4\n      gt\n      tag_62\n      jumpi\n    tag_61:\n      pop\n      pop\n      pop\n      pop\n      pop\n        /* \"contracts/MultisigWallet.sol\":3688:3698  msg.sender */\n      caller\n        /* \"contracts/MultisigWallet.sol\":3635:3651  address_array_in */\n      tag_63\n        /* \"contracts/MultisigWallet.sol\":3635:3699  address_array_in(current_cancel_counterparty_signed, msg.sender) */\n      jump\t// in\n    tag_60:\n        /* \"contracts/MultisigWallet.sol\":3634:3699  !address_array_in(current_cancel_counterparty_signed, msg.sender) */\n      iszero\n        /* \"contracts/MultisigWallet.sol\":3626:3750  require(!address_array_in(current_cancel_counterparty_signed, msg.sender), \"you have signed for cancellation, don't repeat\") */\n      tag_64\n      jumpi\n      mload(0x40)\n      0x08c379a000000000000000000000000000000000000000000000000000000000\n      dup2\n      mstore\n      0x04\n      add\n      tag_65\n      swap1\n      tag_66\n      jump\t// in\n    tag_65:\n      mload(0x40)\n      dup1\n      swap2\n      sub\n      swap1\n      revert\n    tag_64:\n        /* \"contracts/MultisigWallet.sol\":3785:3786  0 */\n      0x00\n        /* \"contracts/MultisigWallet.sol\":3762:3782  waitfor_withdraw_wei */\n      sload(0x04)\n        /* \"contracts/MultisigWallet.sol\":3762:3786  waitfor_withdraw_wei > 0 */\n      gt\n        /* \"contracts/MultisigWallet.sol\":3754:3838  require(waitfor_withdraw_wei > 0, \"there isn't any withdrwals wait for cancelation\") */\n      tag_67\n      jumpi\n      mload(0x40)\n      0x08c379a000000000000000000000000000000000000000000000000000000000\n      dup2\n      mstore\n      0x04\n      add\n      tag_68\n      swap1\n      tag_69\n      jump\t// in\n    tag_68:\n      mload(0x40)\n      dup1\n      swap2\n      sub\n      swap1\n      revert\n    tag_67:\n        /* \"contracts/MultisigWallet.sol\":3842:3876  current_cancel_counterparty_signed */\n      0x08\n        /* \"contracts/MultisigWallet.sol\":3882:3892  msg.sender */\n      caller\n        /* \"contracts/MultisigWallet.sol\":3842:3893  current_cancel_counterparty_signed.push(msg.sender) */\n      swap1\n      dup1\n      0x01\n      dup2\n      sload\n      add\n      dup1\n      dup3\n      sstore\n      dup1\n      swap2\n      pop\n      pop\n      0x01\n      swap1\n      sub\n      swap1\n      0x00\n      mstore\n      keccak256(0x00, 0x20)\n      add\n      0x00\n      swap1\n      swap2\n      swap1\n      swap2\n      swap1\n      swap2\n      0x0100\n      exp\n      dup2\n      sload\n      dup2\n      0xffffffffffffffffffffffffffffffffffffffff\n      mul\n      not\n      and\n      swap1\n      dup4\n      0xffffffffffffffffffffffffffffffffffffffff\n      and\n      mul\n      or\n      swap1\n      sstore\n      pop\n        /* \"contracts/MultisigWallet.sol\":3897:3913  uint signedCount */\n      0x00\n        /* \"contracts/MultisigWallet.sol\":3925:3931  uint i */\n      dup1\n        /* \"contracts/MultisigWallet.sol\":3921:4074  for(uint i=0; i<current_cancel_counterparty_signed.length; i++) {... */\n    tag_71:\n        /* \"contracts/MultisigWallet.sol\":3937:3971  current_cancel_counterparty_signed */\n      0x08\n        /* \"contracts/MultisigWallet.sol\":3937:3978  current_cancel_counterparty_signed.length */\n      dup1\n      sload\n      swap1\n      pop\n        /* \"contracts/MultisigWallet.sol\":3935:3936  i */\n      dup2\n        /* \"contracts/MultisigWallet.sol\":3935:3978  i<current_cancel_counterparty_signed.length */\n      lt\n        /* \"contracts/MultisigWallet.sol\":3921:4074  for(uint i=0; i<current_cancel_counterparty_signed.length; i++) {... */\n      iszero\n      tag_72\n      jumpi\n        /* \"contracts/MultisigWallet.sol\":4042:4043  0 */\n      0x00\n        /* \"contracts/MultisigWallet.sol\":3993:4044  current_cancel_counterparty_signed[i] != address(0) */\n      0xffffffffffffffffffffffffffffffffffffffff\n      and\n        /* \"contracts/MultisigWallet.sol\":3993:4027  current_cancel_counterparty_signed */\n      0x08\n        /* \"contracts/MultisigWallet.sol\":4028:4029  i */\n      dup3\n        /* \"contracts/MultisigWallet.sol\":3993:4030  current_cancel_counterparty_signed[i] */\n      dup2\n      sload\n      dup2\n      lt\n      tag_74\n      jumpi\n      tag_75\n      tag_76\n      jump\t// in\n    tag_75:\n    tag_74:\n      swap1\n      0x00\n      mstore\n      keccak256(0x00, 0x20)\n      add\n      0x00\n      swap1\n      sload\n      swap1\n      0x0100\n      exp\n      swap1\n      div\n      0xffffffffffffffffffffffffffffffffffffffff\n      and\n        /* \"contracts/MultisigWallet.sol\":3993:4044  current_cancel_counterparty_signed[i] != address(0) */\n      0xffffffffffffffffffffffffffffffffffffffff\n      and\n      eq\n        /* \"contracts/MultisigWallet.sol\":3990:4070  if(current_cancel_counterparty_signed[i] != address(0)){... */\n      tag_78\n      jumpi\n        /* \"contracts/MultisigWallet.sol\":4051:4064  signedCount++ */\n      dup2\n      dup1\n      tag_79\n      swap1\n      tag_80\n      jump\t// in\n    tag_79:\n      swap3\n      pop\n      pop\n        /* \"contracts/MultisigWallet.sol\":3990:4070  if(current_cancel_counterparty_signed[i] != address(0)){... */\n    tag_78:\n        /* \"contracts/MultisigWallet.sol\":3980:3983  i++ */\n      dup1\n      dup1\n      tag_81\n      swap1\n      tag_80\n      jump\t// in\n    tag_81:\n      swap2\n      pop\n      pop\n        /* \"contracts/MultisigWallet.sol\":3921:4074  for(uint i=0; i<current_cancel_counterparty_signed.length; i++) {... */\n      jump(tag_71)\n    tag_72:\n      pop\n        /* \"contracts/MultisigWallet.sol\":4118:4119  1 */\n      0x01\n        /* \"contracts/MultisigWallet.sol\":4095:4108  collaborators */\n      0x02\n        /* \"contracts/MultisigWallet.sol\":4095:4115  collaborators.length */\n      dup1\n      sload\n      swap1\n      pop\n        /* \"contracts/MultisigWallet.sol\":4095:4119  collaborators.length - 1 */\n      tag_82\n      swap2\n      swap1\n      tag_83\n      jump\t// in\n    tag_82:\n        /* \"contracts/MultisigWallet.sol\":4080:4091  signedCount */\n      dup2\n        /* \"contracts/MultisigWallet.sol\":4080:4119  signedCount == collaborators.length - 1 */\n      eq\n        /* \"contracts/MultisigWallet.sol\":4077:4151  if(signedCount == collaborators.length - 1) {... */\n      iszero\n      tag_84\n      jumpi\n        /* \"contracts/MultisigWallet.sol\":4126:4146  do_cancel_withdraw() */\n      tag_85\n        /* \"contracts/MultisigWallet.sol\":4126:4144  do_cancel_withdraw */\n      tag_86\n        /* \"contracts/MultisigWallet.sol\":4126:4146  do_cancel_withdraw() */\n      jump\t// in\n    tag_85:\n        /* \"contracts/MultisigWallet.sol\":4077:4151  if(signedCount == collaborators.length - 1) {... */\n    tag_84:\n        /* \"contracts/MultisigWallet.sol\":3524:4154  {... */\n      pop\n        /* \"contracts/MultisigWallet.sol\":3456:4154  function cancel_withdraw_by_counterparty() public onlyCollaborators {... */\n      jump\t// out\n        /* \"contracts/MultisigWallet.sol\":4808:5445  function collaboratorSign() public onlyCollaborators {... */\n    tag_20:\n        /* \"contracts/MultisigWallet.sol\":2328:2352  is_oneof_collaborators() */\n      tag_88\n        /* \"contracts/MultisigWallet.sol\":2328:2350  is_oneof_collaborators */\n      tag_37\n        /* \"contracts/MultisigWallet.sol\":2328:2352  is_oneof_collaborators() */\n      jump\t// in\n    tag_88:\n        /* \"contracts/MultisigWallet.sol\":2320:2395  require(is_oneof_collaborators(), \"only collaborators have the permission\") */\n      tag_89\n      jumpi\n      mload(0x40)\n      0x08c379a000000000000000000000000000000000000000000000000000000000\n      dup2\n      mstore\n      0x04\n      add\n      tag_90\n      swap1\n      tag_40\n      jump\t// in\n    tag_90:\n      mload(0x40)\n      dup1\n      swap2\n      sub\n      swap1\n      revert\n    tag_89:\n        /* \"contracts/MultisigWallet.sol\":4896:4897  0 */\n      0x00\n        /* \"contracts/MultisigWallet.sol\":4873:4893  waitfor_withdraw_wei */\n      sload(0x04)\n        /* \"contracts/MultisigWallet.sol\":4873:4897  waitfor_withdraw_wei > 0 */\n      gt\n        /* \"contracts/MultisigWallet.sol\":4865:4946  require(waitfor_withdraw_wei > 0, \"there is no withdraw action waiting for sign\") */\n      tag_92\n      jumpi\n      mload(0x40)\n      0x08c379a000000000000000000000000000000000000000000000000000000000\n      dup2\n      mstore\n      0x04\n      add\n      tag_93\n      swap1\n      tag_94\n      jump\t// in\n    tag_93:\n      mload(0x40)\n      dup1\n      swap2\n      sub\n      swap1\n      revert\n    tag_92:\n        /* \"contracts/MultisigWallet.sol\":4965:4981  already_signed() */\n      tag_95\n        /* \"contracts/MultisigWallet.sol\":4965:4979  already_signed */\n      tag_96\n        /* \"contracts/MultisigWallet.sol\":4965:4981  already_signed() */\n      jump\t// in\n    tag_95:\n        /* \"contracts/MultisigWallet.sol\":4964:4981  !already_signed() */\n      iszero\n        /* \"contracts/MultisigWallet.sol\":4956:5042  require(!already_signed(), \"you have signed this withdraw process, plz don't repeat.\") */\n      tag_97\n      jumpi\n      mload(0x40)\n      0x08c379a000000000000000000000000000000000000000000000000000000000\n      dup2\n      mstore\n      0x04\n      add\n      tag_98\n      swap1\n      tag_99\n      jump\t// in\n    tag_98:\n      mload(0x40)\n      dup1\n      swap2\n      sub\n      swap1\n      revert\n    tag_97:\n        /* \"contracts/MultisigWallet.sol\":5046:5060  current_signed */\n      0x07\n        /* \"contracts/MultisigWallet.sol\":5066:5076  msg.sender */\n      caller\n        /* \"contracts/MultisigWallet.sol\":5046:5077  current_signed.push(msg.sender) */\n      swap1\n      dup1\n      0x01\n      dup2\n      sload\n      add\n      dup1\n      dup3\n      sstore\n      dup1\n      swap2\n      pop\n      pop\n      0x01\n      swap1\n      sub\n      swap1\n      0x00\n      mstore\n      keccak256(0x00, 0x20)\n      add\n      0x00\n      swap1\n      swap2\n      swap1\n      swap2\n      swap1\n      swap2\n      0x0100\n      exp\n      dup2\n      sload\n      dup2\n      0xffffffffffffffffffffffffffffffffffffffff\n      mul\n      not\n      and\n      swap1\n      dup4\n      0xffffffffffffffffffffffffffffffffffffffff\n      and\n      mul\n      or\n      swap1\n      sstore\n      pop\n        /* \"contracts/MultisigWallet.sol\":5125:5144  signedCountEnough() */\n      tag_101\n        /* \"contracts/MultisigWallet.sol\":5125:5142  signedCountEnough */\n      tag_102\n        /* \"contracts/MultisigWallet.sol\":5125:5144  signedCountEnough() */\n      jump\t// in\n    tag_101:\n        /* \"contracts/MultisigWallet.sol\":5122:5442  if(signedCountEnough()) {... */\n      iszero\n      tag_103\n      jumpi\n        /* \"contracts/MultisigWallet.sol\":5151:5160  uint weis */\n      0x00\n        /* \"contracts/MultisigWallet.sol\":5163:5183  waitfor_withdraw_wei */\n      sload(0x04)\n        /* \"contracts/MultisigWallet.sol\":5151:5183  uint weis = waitfor_withdraw_wei */\n      swap1\n      pop\n        /* \"contracts/MultisigWallet.sol\":5211:5212  0 */\n      0x00\n        /* \"contracts/MultisigWallet.sol\":5188:5208  waitfor_withdraw_wei */\n      0x04\n        /* \"contracts/MultisigWallet.sol\":5188:5212  waitfor_withdraw_wei = 0 */\n      dup2\n      swap1\n      sstore\n      pop\n        /* \"contracts/MultisigWallet.sol\":5217:5241  waitfor_withdraw_address */\n      0x05\n      0x00\n      swap1\n      sload\n      swap1\n      0x0100\n      exp\n      swap1\n      div\n      0xffffffffffffffffffffffffffffffffffffffff\n      and\n        /* \"contracts/MultisigWallet.sol\":5217:5250  waitfor_withdraw_address.transfer */\n      0xffffffffffffffffffffffffffffffffffffffff\n      and\n        /* \"contracts/MultisigWallet.sol\":5217:5256  waitfor_withdraw_address.transfer(weis) */\n      0x08fc\n        /* \"contracts/MultisigWallet.sol\":5251:5255  weis */\n      dup3\n        /* \"contracts/MultisigWallet.sol\":5217:5256  waitfor_withdraw_address.transfer(weis) */\n      swap1\n      dup2\n      iszero\n      mul\n      swap1\n      mload(0x40)\n      0x00\n      mload(0x40)\n      dup1\n      dup4\n      sub\n      dup2\n      dup6\n      dup9\n      dup9\n      call\n      swap4\n      pop\n      pop\n      pop\n      pop\n      iszero\n      dup1\n      iszero\n      tag_105\n      jumpi\n      returndatasize\n      0x00\n      dup1\n      returndatacopy\n      revert(0x00, returndatasize)\n    tag_105:\n      pop\n        /* \"contracts/MultisigWallet.sol\":5282:5286  weis */\n      dup1\n        /* \"contracts/MultisigWallet.sol\":5272:5279  balance */\n      sload(0x00)\n        /* \"contracts/MultisigWallet.sol\":5272:5286  balance - weis */\n      tag_106\n      swap2\n      swap1\n      tag_83\n      jump\t// in\n    tag_106:\n        /* \"contracts/MultisigWallet.sol\":5261:5268  balance */\n      0x00\n        /* \"contracts/MultisigWallet.sol\":5261:5286  balance =  balance - weis */\n      dup2\n      swap1\n      sstore\n      pop\n        /* \"contracts/MultisigWallet.sol\":5291:5305  withdraw_count */\n      0x09\n      0x00\n        /* \"contracts/MultisigWallet.sol\":5291:5307  withdraw_count++ */\n      dup2\n      sload\n      dup1\n      swap3\n      swap2\n      swap1\n      tag_107\n      swap1\n      tag_80\n      jump\t// in\n    tag_107:\n      swap2\n      swap1\n      pop\n      sstore\n      pop\n        /* \"contracts/MultisigWallet.sol\":5319:5343  waitfor_withdraw_address */\n      0x05\n      0x00\n        /* \"contracts/MultisigWallet.sol\":5312:5343  delete waitfor_withdraw_address */\n      0x0100\n      exp\n      dup2\n      sload\n      swap1\n      0xffffffffffffffffffffffffffffffffffffffff\n      mul\n      not\n      and\n      swap1\n      sstore\n        /* \"contracts/MultisigWallet.sol\":5356:5370  current_signed */\n      0x07\n      0x00\n        /* \"contracts/MultisigWallet.sol\":5349:5370  delete current_signed */\n      tag_108\n      swap2\n      swap1\n      tag_109\n      jump\t// in\n    tag_108:\n        /* \"contracts/MultisigWallet.sol\":5382:5391  initiator */\n      0x06\n      0x00\n        /* \"contracts/MultisigWallet.sol\":5375:5391  delete initiator */\n      0x0100\n      exp\n      dup2\n      sload\n      swap1\n      0xffffffffffffffffffffffffffffffffffffffff\n      mul\n      not\n      and\n      swap1\n      sstore\n        /* \"contracts/MultisigWallet.sol\":5403:5437  current_cancel_counterparty_signed */\n      0x08\n      0x00\n        /* \"contracts/MultisigWallet.sol\":5396:5437  delete current_cancel_counterparty_signed */\n      tag_110\n      swap2\n      swap1\n      tag_109\n      jump\t// in\n    tag_110:\n        /* \"contracts/MultisigWallet.sol\":5146:5442  {... */\n      pop\n        /* \"contracts/MultisigWallet.sol\":5122:5442  if(signedCountEnough()) {... */\n    tag_103:\n        /* \"contracts/MultisigWallet.sol\":4808:5445  function collaboratorSign() public onlyCollaborators {... */\n      jump\t// out\n        /* \"contracts/MultisigWallet.sol\":2460:2638  function topin() public payable {... */\n    tag_22:\n        /* \"contracts/MultisigWallet.sol\":2516:2517  0 */\n      0x00\n        /* \"contracts/MultisigWallet.sol\":2504:2513  msg.value */\n      callvalue\n        /* \"contracts/MultisigWallet.sol\":2504:2517  msg.value > 0 */\n      gt\n        /* \"contracts/MultisigWallet.sol\":2496:2610  require(msg.value > 0, \"TOPIN must more than 0 wei, indeed the gas fee do not decrease if you topin a low value.\") */\n      tag_112\n      jumpi\n      mload(0x40)\n      0x08c379a000000000000000000000000000000000000000000000000000000000\n      dup2\n      mstore\n      0x04\n      add\n      tag_113\n      swap1\n      tag_114\n      jump\t// in\n    tag_113:\n      mload(0x40)\n      dup1\n      swap2\n      sub\n      swap1\n      revert\n    tag_112:\n        /* \"contracts/MultisigWallet.sol\":2625:2634  msg.value */\n      callvalue\n        /* \"contracts/MultisigWallet.sol\":2614:2621  balance */\n      0x00\n      dup1\n        /* \"contracts/MultisigWallet.sol\":2614:2634  balance += msg.value */\n      dup3\n      dup3\n      sload\n      tag_115\n      swap2\n      swap1\n      tag_116\n      jump\t// in\n    tag_115:\n      swap3\n      pop\n      pop\n      dup2\n      swap1\n      sstore\n      pop\n        /* \"contracts/MultisigWallet.sol\":2460:2638  function topin() public payable {... */\n      jump\t// out\n        /* \"contracts/MultisigWallet.sol\":4196:4358  function cancel_withdraw() public onlyCollaborators {... */\n    tag_25:\n        /* \"contracts/MultisigWallet.sol\":2328:2352  is_oneof_collaborators() */\n      tag_118\n        /* \"contracts/MultisigWallet.sol\":2328:2350  is_oneof_collaborators */\n      tag_37\n        /* \"contracts/MultisigWallet.sol\":2328:2352  is_oneof_collaborators() */\n      jump\t// in\n    tag_118:\n        /* \"contracts/MultisigWallet.sol\":2320:2395  require(is_oneof_collaborators(), \"only collaborators have the permission\") */\n      tag_119\n      jumpi\n      mload(0x40)\n      0x08c379a000000000000000000000000000000000000000000000000000000000\n      dup2\n      mstore\n      0x04\n      add\n      tag_120\n      swap1\n      tag_40\n      jump\t// in\n    tag_120:\n      mload(0x40)\n      dup1\n      swap2\n      sub\n      swap1\n      revert\n    tag_119:\n        /* \"contracts/MultisigWallet.sol\":4274:4283  initiator */\n      0x06\n      0x00\n      swap1\n      sload\n      swap1\n      0x0100\n      exp\n      swap1\n      div\n      0xffffffffffffffffffffffffffffffffffffffff\n      and\n        /* \"contracts/MultisigWallet.sol\":4260:4283  msg.sender == initiator */\n      0xffffffffffffffffffffffffffffffffffffffff\n      and\n        /* \"contracts/MultisigWallet.sol\":4260:4270  msg.sender */\n      caller\n        /* \"contracts/MultisigWallet.sol\":4260:4283  msg.sender == initiator */\n      0xffffffffffffffffffffffffffffffffffffffff\n      and\n      eq\n        /* \"contracts/MultisigWallet.sol\":4252:4330  require(msg.sender == initiator, \"only the initiator can cancel this process\") */\n      tag_122\n      jumpi\n      mload(0x40)\n      0x08c379a000000000000000000000000000000000000000000000000000000000\n      dup2\n      mstore\n      0x04\n      add\n      tag_123\n      swap1\n      tag_124\n      jump\t// in\n    tag_123:\n      mload(0x40)\n      dup1\n      swap2\n      sub\n      swap1\n      revert\n    tag_122:\n        /* \"contracts/MultisigWallet.sol\":4334:4354  do_cancel_withdraw() */\n      tag_125\n        /* \"contracts/MultisigWallet.sol\":4334:4352  do_cancel_withdraw */\n      tag_86\n        /* \"contracts/MultisigWallet.sol\":4334:4354  do_cancel_withdraw() */\n      jump\t// in\n    tag_125:\n        /* \"contracts/MultisigWallet.sol\":4196:4358  function cancel_withdraw() public onlyCollaborators {... */\n      jump\t// out\n        /* \"contracts/MultisigWallet.sol\":169:188  uint public balance */\n    tag_28:\n      sload(0x00)\n      dup2\n      jump\t// out\n        /* \"contracts/MultisigWallet.sol\":1085:1111  uint public withdraw_count */\n    tag_33:\n      sload(0x09)\n      dup2\n      jump\t// out\n        /* \"contracts/MultisigWallet.sol\":2006:2126  function is_oneof_collaborators() private view returns (bool) {... */\n    tag_37:\n        /* \"contracts/MultisigWallet.sol\":2062:2066  bool */\n      0x00\n        /* \"contracts/MultisigWallet.sol\":2079:2122  address_array_in(collaborators, msg.sender) */\n      tag_127\n        /* \"contracts/MultisigWallet.sol\":2096:2109  collaborators */\n      0x02\n        /* \"contracts/MultisigWallet.sol\":2079:2122  address_array_in(collaborators, msg.sender) */\n      dup1\n      sload\n      dup1\n      0x20\n      mul\n      0x20\n      add\n      mload(0x40)\n      swap1\n      dup2\n      add\n      0x40\n      mstore\n      dup1\n      swap3\n      swap2\n      swap1\n      dup2\n      dup2\n      mstore\n      0x20\n      add\n      dup3\n      dup1\n      sload\n      dup1\n      iszero\n      tag_128\n      jumpi\n      0x20\n      mul\n      dup3\n      add\n      swap2\n      swap1\n      0x00\n      mstore\n      keccak256(0x00, 0x20)\n      swap1\n    tag_129:\n      dup2\n      0x00\n      swap1\n      sload\n      swap1\n      0x0100\n      exp\n      swap1\n      div\n      0xffffffffffffffffffffffffffffffffffffffff\n      and\n      0xffffffffffffffffffffffffffffffffffffffff\n      and\n      dup2\n      mstore\n      0x20\n      add\n      swap1\n      0x01\n      add\n      swap1\n      dup1\n      dup4\n      gt\n      tag_129\n      jumpi\n    tag_128:\n      pop\n      pop\n      pop\n      pop\n      pop\n        /* \"contracts/MultisigWallet.sol\":2111:2121  msg.sender */\n      caller\n        /* \"contracts/MultisigWallet.sol\":2079:2095  address_array_in */\n      tag_63\n        /* \"contracts/MultisigWallet.sol\":2079:2122  address_array_in(collaborators, msg.sender) */\n      jump\t// in\n    tag_127:\n        /* \"contracts/MultisigWallet.sol\":2072:2122  return address_array_in(collaborators, msg.sender) */\n      swap1\n      pop\n        /* \"contracts/MultisigWallet.sol\":2006:2126  function is_oneof_collaborators() private view returns (bool) {... */\n      swap1\n      jump\t// out\n        /* \"contracts/MultisigWallet.sol\":5550:5797  function address_array_in(address[] memory array, address member) private pure returns (bool) {... */\n    tag_63:\n        /* \"contracts/MultisigWallet.sol\":5638:5642  bool */\n      0x00\n        /* \"contracts/MultisigWallet.sol\":5648:5660  bool inArray */\n      dup1\n        /* \"contracts/MultisigWallet.sol\":5663:5668  false */\n      0x00\n        /* \"contracts/MultisigWallet.sol\":5648:5668  bool inArray = false */\n      swap1\n      pop\n        /* \"contracts/MultisigWallet.sol\":5676:5682  uint i */\n      0x00\n        /* \"contracts/MultisigWallet.sol\":5672:5776  for(uint i=0; i<array.length; i++) {... */\n    tag_131:\n        /* \"contracts/MultisigWallet.sol\":5688:5693  array */\n      dup5\n        /* \"contracts/MultisigWallet.sol\":5688:5700  array.length */\n      mload\n        /* \"contracts/MultisigWallet.sol\":5686:5687  i */\n      dup2\n        /* \"contracts/MultisigWallet.sol\":5686:5700  i<array.length */\n      lt\n        /* \"contracts/MultisigWallet.sol\":5672:5776  for(uint i=0; i<array.length; i++) {... */\n      iszero\n      tag_132\n      jumpi\n        /* \"contracts/MultisigWallet.sol\":5727:5733  member */\n      dup4\n        /* \"contracts/MultisigWallet.sol\":5715:5733  array[i] == member */\n      0xffffffffffffffffffffffffffffffffffffffff\n      and\n        /* \"contracts/MultisigWallet.sol\":5715:5720  array */\n      dup6\n        /* \"contracts/MultisigWallet.sol\":5721:5722  i */\n      dup3\n        /* \"contracts/MultisigWallet.sol\":5715:5723  array[i] */\n      dup2\n      mload\n      dup2\n      lt\n      tag_134\n      jumpi\n      tag_135\n      tag_76\n      jump\t// in\n    tag_135:\n    tag_134:\n      0x20\n      mul\n      0x20\n      add\n      add\n      mload\n        /* \"contracts/MultisigWallet.sol\":5715:5733  array[i] == member */\n      0xffffffffffffffffffffffffffffffffffffffff\n      and\n      eq\n        /* \"contracts/MultisigWallet.sol\":5712:5772  if(array[i] == member) {... */\n      iszero\n      tag_136\n      jumpi\n        /* \"contracts/MultisigWallet.sol\":5751:5755  true */\n      0x01\n        /* \"contracts/MultisigWallet.sol\":5741:5755  inArray = true */\n      swap2\n      pop\n        /* \"contracts/MultisigWallet.sol\":5761:5766  break */\n      jump(tag_132)\n        /* \"contracts/MultisigWallet.sol\":5712:5772  if(array[i] == member) {... */\n    tag_136:\n        /* \"contracts/MultisigWallet.sol\":5702:5705  i++ */\n      dup1\n      dup1\n      tag_137\n      swap1\n      tag_80\n      jump\t// in\n    tag_137:\n      swap2\n      pop\n      pop\n        /* \"contracts/MultisigWallet.sol\":5672:5776  for(uint i=0; i<array.length; i++) {... */\n      jump(tag_131)\n    tag_132:\n      pop\n        /* \"contracts/MultisigWallet.sol\":5786:5793  inArray */\n      dup1\n        /* \"contracts/MultisigWallet.sol\":5779:5793  return inArray */\n      swap2\n      pop\n      pop\n        /* \"contracts/MultisigWallet.sol\":5550:5797  function address_array_in(address[] memory array, address member) private pure returns (bool) {... */\n      swap3\n      swap2\n      pop\n      pop\n      jump\t// out\n        /* \"contracts/MultisigWallet.sol\":4404:4600  function do_cancel_withdraw() private {... */\n    tag_86:\n        /* \"contracts/MultisigWallet.sol\":4453:4462  initiator */\n      0x06\n      0x00\n        /* \"contracts/MultisigWallet.sol\":4446:4462  delete initiator */\n      0x0100\n      exp\n      dup2\n      sload\n      swap1\n      0xffffffffffffffffffffffffffffffffffffffff\n      mul\n      not\n      and\n      swap1\n      sstore\n        /* \"contracts/MultisigWallet.sol\":4473:4497  waitfor_withdraw_address */\n      0x05\n      0x00\n        /* \"contracts/MultisigWallet.sol\":4466:4497  delete waitfor_withdraw_address */\n      0x0100\n      exp\n      dup2\n      sload\n      swap1\n      0xffffffffffffffffffffffffffffffffffffffff\n      mul\n      not\n      and\n      swap1\n      sstore\n        /* \"contracts/MultisigWallet.sol\":4525:4526  0 */\n      0x00\n        /* \"contracts/MultisigWallet.sol\":4502:4522  waitfor_withdraw_wei */\n      0x04\n        /* \"contracts/MultisigWallet.sol\":4502:4526  waitfor_withdraw_wei = 0 */\n      dup2\n      swap1\n      sstore\n      pop\n        /* \"contracts/MultisigWallet.sol\":4537:4551  current_signed */\n      0x07\n      0x00\n        /* \"contracts/MultisigWallet.sol\":4530:4551  delete current_signed */\n      tag_139\n      swap2\n      swap1\n      tag_109\n      jump\t// in\n    tag_139:\n        /* \"contracts/MultisigWallet.sol\":4562:4596  current_cancel_counterparty_signed */\n      0x08\n      0x00\n        /* \"contracts/MultisigWallet.sol\":4555:4596  delete current_cancel_counterparty_signed */\n      tag_140\n      swap2\n      swap1\n      tag_109\n      jump\t// in\n    tag_140:\n        /* \"contracts/MultisigWallet.sol\":4404:4600  function do_cancel_withdraw() private {... */\n      jump\t// out\n        /* \"contracts/MultisigWallet.sol\":5803:5925  function already_signed() private view returns (bool) {... */\n    tag_96:\n        /* \"contracts/MultisigWallet.sol\":5851:5855  bool */\n      0x00\n        /* \"contracts/MultisigWallet.sol\":5874:5918  address_array_in(current_signed, msg.sender) */\n      tag_142\n        /* \"contracts/MultisigWallet.sol\":5891:5905  current_signed */\n      0x07\n        /* \"contracts/MultisigWallet.sol\":5874:5918  address_array_in(current_signed, msg.sender) */\n      dup1\n      sload\n      dup1\n      0x20\n      mul\n      0x20\n      add\n      mload(0x40)\n      swap1\n      dup2\n      add\n      0x40\n      mstore\n      dup1\n      swap3\n      swap2\n      swap1\n      dup2\n      dup2\n      mstore\n      0x20\n      add\n      dup3\n      dup1\n      sload\n      dup1\n      iszero\n      tag_143\n      jumpi\n      0x20\n      mul\n      dup3\n      add\n      swap2\n      swap1\n      0x00\n      mstore\n      keccak256(0x00, 0x20)\n      swap1\n    tag_144:\n      dup2\n      0x00\n      swap1\n      sload\n      swap1\n      0x0100\n      exp\n      swap1\n      div\n      0xffffffffffffffffffffffffffffffffffffffff\n      and\n      0xffffffffffffffffffffffffffffffffffffffff\n      and\n      dup2\n      mstore\n      0x20\n      add\n      swap1\n      0x01\n      add\n      swap1\n      dup1\n      dup4\n      gt\n      tag_144\n      jumpi\n    tag_143:\n      pop\n      pop\n      pop\n      pop\n      pop\n        /* \"contracts/MultisigWallet.sol\":5907:5917  msg.sender */\n      caller\n        /* \"contracts/MultisigWallet.sol\":5874:5890  address_array_in */\n      tag_63\n        /* \"contracts/MultisigWallet.sol\":5874:5918  address_array_in(current_signed, msg.sender) */\n      jump\t// in\n    tag_142:\n        /* \"contracts/MultisigWallet.sol\":5867:5918  return address_array_in(current_signed, msg.sender) */\n      swap1\n      pop\n        /* \"contracts/MultisigWallet.sol\":5803:5925  function already_signed() private view returns (bool) {... */\n      swap1\n      jump\t// out\n        /* \"contracts/MultisigWallet.sol\":5928:6281  function signedCountEnough() private view returns (bool) {... */\n    tag_102:\n        /* \"contracts/MultisigWallet.sol\":5979:5983  bool */\n      0x00\n        /* \"contracts/MultisigWallet.sol\":5989:6012  address[] memory signed */\n      dup1\n        /* \"contracts/MultisigWallet.sol\":6015:6029  current_signed */\n      0x07\n        /* \"contracts/MultisigWallet.sol\":5989:6029  address[] memory signed = current_signed */\n      dup1\n      sload\n      dup1\n      0x20\n      mul\n      0x20\n      add\n      mload(0x40)\n      swap1\n      dup2\n      add\n      0x40\n      mstore\n      dup1\n      swap3\n      swap2\n      swap1\n      dup2\n      dup2\n      mstore\n      0x20\n      add\n      dup3\n      dup1\n      sload\n      dup1\n      iszero\n      tag_146\n      jumpi\n      0x20\n      mul\n      dup3\n      add\n      swap2\n      swap1\n      0x00\n      mstore\n      keccak256(0x00, 0x20)\n      swap1\n    tag_147:\n      dup2\n      0x00\n      swap1\n      sload\n      swap1\n      0x0100\n      exp\n      swap1\n      div\n      0xffffffffffffffffffffffffffffffffffffffff\n      and\n      0xffffffffffffffffffffffffffffffffffffffff\n      and\n      dup2\n      mstore\n      0x20\n      add\n      swap1\n      0x01\n      add\n      swap1\n      dup1\n      dup4\n      gt\n      tag_147\n      jumpi\n    tag_146:\n      pop\n      pop\n      pop\n      pop\n      pop\n      swap1\n      pop\n        /* \"contracts/MultisigWallet.sol\":6033:6055  uint8 signedMatchCount */\n      0x00\n        /* \"contracts/MultisigWallet.sol\":6067:6073  uint i */\n      dup1\n        /* \"contracts/MultisigWallet.sol\":6063:6228  for(uint i=0; i<signed.length; i++) {... */\n    tag_148:\n        /* \"contracts/MultisigWallet.sol\":6079:6085  signed */\n      dup3\n        /* \"contracts/MultisigWallet.sol\":6079:6092  signed.length */\n      mload\n        /* \"contracts/MultisigWallet.sol\":6077:6078  i */\n      dup2\n        /* \"contracts/MultisigWallet.sol\":6077:6092  i<signed.length */\n      lt\n        /* \"contracts/MultisigWallet.sol\":6063:6228  for(uint i=0; i<signed.length; i++) {... */\n      iszero\n      tag_149\n      jumpi\n        /* \"contracts/MultisigWallet.sol\":6108:6114  uint j */\n      0x00\n        /* \"contracts/MultisigWallet.sol\":6104:6224  for(uint j=0; j<collaborators.length; j++) {... */\n    tag_151:\n        /* \"contracts/MultisigWallet.sol\":6120:6133  collaborators */\n      0x02\n        /* \"contracts/MultisigWallet.sol\":6120:6140  collaborators.length */\n      dup1\n      sload\n      swap1\n      pop\n        /* \"contracts/MultisigWallet.sol\":6118:6119  j */\n      dup2\n        /* \"contracts/MultisigWallet.sol\":6118:6140  j<collaborators.length */\n      lt\n        /* \"contracts/MultisigWallet.sol\":6104:6224  for(uint j=0; j<collaborators.length; j++) {... */\n      iszero\n      tag_152\n      jumpi\n        /* \"contracts/MultisigWallet.sol\":6176:6182  signed */\n      dup4\n        /* \"contracts/MultisigWallet.sol\":6183:6184  i */\n      dup3\n        /* \"contracts/MultisigWallet.sol\":6176:6185  signed[i] */\n      dup2\n      mload\n      dup2\n      lt\n      tag_154\n      jumpi\n      tag_155\n      tag_76\n      jump\t// in\n    tag_155:\n    tag_154:\n      0x20\n      mul\n      0x20\n      add\n      add\n      mload\n        /* \"contracts/MultisigWallet.sol\":6156:6185  collaborators[j] == signed[i] */\n      0xffffffffffffffffffffffffffffffffffffffff\n      and\n        /* \"contracts/MultisigWallet.sol\":6156:6169  collaborators */\n      0x02\n        /* \"contracts/MultisigWallet.sol\":6170:6171  j */\n      dup3\n        /* \"contracts/MultisigWallet.sol\":6156:6172  collaborators[j] */\n      dup2\n      sload\n      dup2\n      lt\n      tag_156\n      jumpi\n      tag_157\n      tag_76\n      jump\t// in\n    tag_157:\n    tag_156:\n      swap1\n      0x00\n      mstore\n      keccak256(0x00, 0x20)\n      add\n      0x00\n      swap1\n      sload\n      swap1\n      0x0100\n      exp\n      swap1\n      div\n      0xffffffffffffffffffffffffffffffffffffffff\n      and\n        /* \"contracts/MultisigWallet.sol\":6156:6185  collaborators[j] == signed[i] */\n      0xffffffffffffffffffffffffffffffffffffffff\n      and\n      eq\n        /* \"contracts/MultisigWallet.sol\":6153:6219  if(collaborators[j] == signed[i]) {... */\n      iszero\n      tag_159\n      jumpi\n        /* \"contracts/MultisigWallet.sol\":6194:6212  signedMatchCount++ */\n      dup3\n      dup1\n      tag_160\n      swap1\n      tag_161\n      jump\t// in\n    tag_160:\n      swap4\n      pop\n      pop\n        /* \"contracts/MultisigWallet.sol\":6153:6219  if(collaborators[j] == signed[i]) {... */\n    tag_159:\n        /* \"contracts/MultisigWallet.sol\":6142:6145  j++ */\n      dup1\n      dup1\n      tag_162\n      swap1\n      tag_80\n      jump\t// in\n    tag_162:\n      swap2\n      pop\n      pop\n        /* \"contracts/MultisigWallet.sol\":6104:6224  for(uint j=0; j<collaborators.length; j++) {... */\n      jump(tag_151)\n    tag_152:\n      pop\n        /* \"contracts/MultisigWallet.sol\":6094:6097  i++ */\n      dup1\n      dup1\n      tag_163\n      swap1\n      tag_80\n      jump\t// in\n    tag_163:\n      swap2\n      pop\n      pop\n        /* \"contracts/MultisigWallet.sol\":6063:6228  for(uint i=0; i<signed.length; i++) {... */\n      jump(tag_148)\n    tag_149:\n      pop\n        /* \"contracts/MultisigWallet.sol\":6258:6277  at_least_sign_count */\n      0x03\n      0x00\n      swap1\n      sload\n      swap1\n      0x0100\n      exp\n      swap1\n      div\n      0xff\n      and\n        /* \"contracts/MultisigWallet.sol\":6238:6277  signedMatchCount >= at_least_sign_count */\n      0xff\n      and\n        /* \"contracts/MultisigWallet.sol\":6238:6254  signedMatchCount */\n      dup2\n        /* \"contracts/MultisigWallet.sol\":6238:6277  signedMatchCount >= at_least_sign_count */\n      0xff\n      and\n      lt\n      iszero\n        /* \"contracts/MultisigWallet.sol\":6231:6277  return signedMatchCount >= at_least_sign_count */\n      swap3\n      pop\n      pop\n      pop\n        /* \"contracts/MultisigWallet.sol\":5928:6281  function signedCountEnough() private view returns (bool) {... */\n      swap1\n      jump\t// out\n    tag_109:\n      pop\n      dup1\n      sload\n      0x00\n      dup3\n      sstore\n      swap1\n      0x00\n      mstore\n      keccak256(0x00, 0x20)\n      swap1\n      dup2\n      add\n      swap1\n      tag_165\n      swap2\n      swap1\n      tag_166\n      jump\t// in\n    tag_165:\n      pop\n      jump\t// out\n    tag_166:\n    tag_167:\n      dup1\n      dup3\n      gt\n      iszero\n      tag_168\n      jumpi\n      0x00\n      dup2\n      0x00\n      swap1\n      sstore\n      pop\n      0x01\n      add\n      jump(tag_167)\n    tag_168:\n      pop\n      swap1\n      jump\t// out\n        /* \"#utility.yul\":7:162   */\n    tag_170:\n        /* \"#utility.yul\":61:66   */\n      0x00\n        /* \"#utility.yul\":99:105   */\n      dup2\n        /* \"#utility.yul\":86:106   */\n      calldataload\n        /* \"#utility.yul\":77:106   */\n      swap1\n      pop\n        /* \"#utility.yul\":115:156   */\n      tag_172\n        /* \"#utility.yul\":150:155   */\n      dup2\n        /* \"#utility.yul\":115:156   */\n      tag_173\n      jump\t// in\n    tag_172:\n        /* \"#utility.yul\":7:162   */\n      swap3\n      swap2\n      pop\n      pop\n      jump\t// out\n        /* \"#utility.yul\":168:307   */\n    tag_174:\n        /* \"#utility.yul\":214:219   */\n      0x00\n        /* \"#utility.yul\":252:258   */\n      dup2\n        /* \"#utility.yul\":239:259   */\n      calldataload\n        /* \"#utility.yul\":230:259   */\n      swap1\n      pop\n        /* \"#utility.yul\":268:301   */\n      tag_176\n        /* \"#utility.yul\":295:300   */\n      dup2\n        /* \"#utility.yul\":268:301   */\n      tag_177\n      jump\t// in\n    tag_176:\n        /* \"#utility.yul\":168:307   */\n      swap3\n      swap2\n      pop\n      pop\n      jump\t// out\n        /* \"#utility.yul\":313:803   */\n    tag_13:\n        /* \"#utility.yul\":389:395   */\n      0x00\n        /* \"#utility.yul\":397:403   */\n      dup1\n        /* \"#utility.yul\":446:448   */\n      0x40\n        /* \"#utility.yul\":434:443   */\n      dup4\n        /* \"#utility.yul\":425:432   */\n      dup6\n        /* \"#utility.yul\":421:444   */\n      sub\n        /* \"#utility.yul\":417:449   */\n      slt\n        /* \"#utility.yul\":414:533   */\n      iszero\n      tag_179\n      jumpi\n        /* \"#utility.yul\":452:531   */\n      tag_180\n      tag_181\n      jump\t// in\n    tag_180:\n        /* \"#utility.yul\":414:533   */\n    tag_179:\n        /* \"#utility.yul\":572:573   */\n      0x00\n        /* \"#utility.yul\":597:650   */\n      tag_182\n        /* \"#utility.yul\":642:649   */\n      dup6\n        /* \"#utility.yul\":633:639   */\n      dup3\n        /* \"#utility.yul\":622:631   */\n      dup7\n        /* \"#utility.yul\":618:640   */\n      add\n        /* \"#utility.yul\":597:650   */\n      tag_174\n      jump\t// in\n    tag_182:\n        /* \"#utility.yul\":587:650   */\n      swap3\n      pop\n        /* \"#utility.yul\":543:660   */\n      pop\n        /* \"#utility.yul\":699:701   */\n      0x20\n        /* \"#utility.yul\":725:786   */\n      tag_183\n        /* \"#utility.yul\":778:785   */\n      dup6\n        /* \"#utility.yul\":769:775   */\n      dup3\n        /* \"#utility.yul\":758:767   */\n      dup7\n        /* \"#utility.yul\":754:776   */\n      add\n        /* \"#utility.yul\":725:786   */\n      tag_170\n      jump\t// in\n    tag_183:\n        /* \"#utility.yul\":715:786   */\n      swap2\n      pop\n        /* \"#utility.yul\":670:796   */\n      pop\n        /* \"#utility.yul\":313:803   */\n      swap3\n      pop\n      swap3\n      swap1\n      pop\n      jump\t// out\n        /* \"#utility.yul\":809:1175   */\n    tag_184:\n        /* \"#utility.yul\":951:954   */\n      0x00\n        /* \"#utility.yul\":972:1039   */\n      tag_186\n        /* \"#utility.yul\":1036:1038   */\n      0x2f\n        /* \"#utility.yul\":1031:1034   */\n      dup4\n        /* \"#utility.yul\":972:1039   */\n      tag_187\n      jump\t// in\n    tag_186:\n        /* \"#utility.yul\":965:1039   */\n      swap2\n      pop\n        /* \"#utility.yul\":1048:1141   */\n      tag_188\n        /* \"#utility.yul\":1137:1140   */\n      dup3\n        /* \"#utility.yul\":1048:1141   */\n      tag_189\n      jump\t// in\n    tag_188:\n        /* \"#utility.yul\":1166:1168   */\n      0x40\n        /* \"#utility.yul\":1161:1164   */\n      dup3\n        /* \"#utility.yul\":1157:1169   */\n      add\n        /* \"#utility.yul\":1150:1169   */\n      swap1\n      pop\n        /* \"#utility.yul\":809:1175   */\n      swap2\n      swap1\n      pop\n      jump\t// out\n        /* \"#utility.yul\":1181:1547   */\n    tag_190:\n        /* \"#utility.yul\":1323:1326   */\n      0x00\n        /* \"#utility.yul\":1344:1411   */\n      tag_192\n        /* \"#utility.yul\":1408:1410   */\n      0x3a\n        /* \"#utility.yul\":1403:1406   */\n      dup4\n        /* \"#utility.yul\":1344:1411   */\n      tag_187\n      jump\t// in\n    tag_192:\n        /* \"#utility.yul\":1337:1411   */\n      swap2\n      pop\n        /* \"#utility.yul\":1420:1513   */\n      tag_193\n        /* \"#utility.yul\":1509:1512   */\n      dup3\n        /* \"#utility.yul\":1420:1513   */\n      tag_194\n      jump\t// in\n    tag_193:\n        /* \"#utility.yul\":1538:1540   */\n      0x40\n        /* \"#utility.yul\":1533:1536   */\n      dup3\n        /* \"#utility.yul\":1529:1541   */\n      add\n        /* \"#utility.yul\":1522:1541   */\n      swap1\n      pop\n        /* \"#utility.yul\":1181:1547   */\n      swap2\n      swap1\n      pop\n      jump\t// out\n        /* \"#utility.yul\":1553:1919   */\n    tag_195:\n        /* \"#utility.yul\":1695:1698   */\n      0x00\n        /* \"#utility.yul\":1716:1783   */\n      tag_197\n        /* \"#utility.yul\":1780:1782   */\n      0x2e\n        /* \"#utility.yul\":1775:1778   */\n      dup4\n        /* \"#utility.yul\":1716:1783   */\n      tag_187\n      jump\t// in\n    tag_197:\n        /* \"#utility.yul\":1709:1783   */\n      swap2\n      pop\n        /* \"#utility.yul\":1792:1885   */\n      tag_198\n        /* \"#utility.yul\":1881:1884   */\n      dup3\n        /* \"#utility.yul\":1792:1885   */\n      tag_199\n      jump\t// in\n    tag_198:\n        /* \"#utility.yul\":1910:1912   */\n      0x40\n        /* \"#utility.yul\":1905:1908   */\n      dup3\n        /* \"#utility.yul\":1901:1913   */\n      add\n        /* \"#utility.yul\":1894:1913   */\n      swap1\n      pop\n        /* \"#utility.yul\":1553:1919   */\n      swap2\n      swap1\n      pop\n      jump\t// out\n        /* \"#utility.yul\":1925:2291   */\n    tag_200:\n        /* \"#utility.yul\":2067:2070   */\n      0x00\n        /* \"#utility.yul\":2088:2155   */\n      tag_202\n        /* \"#utility.yul\":2152:2154   */\n      0x15\n        /* \"#utility.yul\":2147:2150   */\n      dup4\n        /* \"#utility.yul\":2088:2155   */\n      tag_187\n      jump\t// in\n    tag_202:\n        /* \"#utility.yul\":2081:2155   */\n      swap2\n      pop\n        /* \"#utility.yul\":2164:2257   */\n      tag_203\n        /* \"#utility.yul\":2253:2256   */\n      dup3\n        /* \"#utility.yul\":2164:2257   */\n      tag_204\n      jump\t// in\n    tag_203:\n        /* \"#utility.yul\":2282:2284   */\n      0x20\n        /* \"#utility.yul\":2277:2280   */\n      dup3\n        /* \"#utility.yul\":2273:2285   */\n      add\n        /* \"#utility.yul\":2266:2285   */\n      swap1\n      pop\n        /* \"#utility.yul\":1925:2291   */\n      swap2\n      swap1\n      pop\n      jump\t// out\n        /* \"#utility.yul\":2297:2663   */\n    tag_205:\n        /* \"#utility.yul\":2439:2442   */\n      0x00\n        /* \"#utility.yul\":2460:2527   */\n      tag_207\n        /* \"#utility.yul\":2524:2526   */\n      0x2c\n        /* \"#utility.yul\":2519:2522   */\n      dup4\n        /* \"#utility.yul\":2460:2527   */\n      tag_187\n      jump\t// in\n    tag_207:\n        /* \"#utility.yul\":2453:2527   */\n      swap2\n      pop\n        /* \"#utility.yul\":2536:2629   */\n      tag_208\n        /* \"#utility.yul\":2625:2628   */\n      dup3\n        /* \"#utility.yul\":2536:2629   */\n      tag_209\n      jump\t// in\n    tag_208:\n        /* \"#utility.yul\":2654:2656   */\n      0x40\n        /* \"#utility.yul\":2649:2652   */\n      dup3\n        /* \"#utility.yul\":2645:2657   */\n      add\n        /* \"#utility.yul\":2638:2657   */\n      swap1\n      pop\n        /* \"#utility.yul\":2297:2663   */\n      swap2\n      swap1\n      pop\n      jump\t// out\n        /* \"#utility.yul\":2669:3035   */\n    tag_210:\n        /* \"#utility.yul\":2811:2814   */\n      0x00\n        /* \"#utility.yul\":2832:2899   */\n      tag_212\n        /* \"#utility.yul\":2896:2898   */\n      0x38\n        /* \"#utility.yul\":2891:2894   */\n      dup4\n        /* \"#utility.yul\":2832:2899   */\n      tag_187\n      jump\t// in\n    tag_212:\n        /* \"#utility.yul\":2825:2899   */\n      swap2\n      pop\n        /* \"#utility.yul\":2908:3001   */\n      tag_213\n        /* \"#utility.yul\":2997:3000   */\n      dup3\n        /* \"#utility.yul\":2908:3001   */\n      tag_214\n      jump\t// in\n    tag_213:\n        /* \"#utility.yul\":3026:3028   */\n      0x40\n        /* \"#utility.yul\":3021:3024   */\n      dup3\n        /* \"#utility.yul\":3017:3029   */\n      add\n        /* \"#utility.yul\":3010:3029   */\n      swap1\n      pop\n        /* \"#utility.yul\":2669:3035   */\n      swap2\n      swap1\n      pop\n      jump\t// out\n        /* \"#utility.yul\":3041:3407   */\n    tag_215:\n        /* \"#utility.yul\":3183:3186   */\n      0x00\n        /* \"#utility.yul\":3204:3271   */\n      tag_217\n        /* \"#utility.yul\":3268:3270   */\n      0x58\n        /* \"#utility.yul\":3263:3266   */\n      dup4\n        /* \"#utility.yul\":3204:3271   */\n      tag_187\n      jump\t// in\n    tag_217:\n        /* \"#utility.yul\":3197:3271   */\n      swap2\n      pop\n        /* \"#utility.yul\":3280:3373   */\n      tag_218\n        /* \"#utility.yul\":3369:3372   */\n      dup3\n        /* \"#utility.yul\":3280:3373   */\n      tag_219\n      jump\t// in\n    tag_218:\n        /* \"#utility.yul\":3398:3400   */\n      0x60\n        /* \"#utility.yul\":3393:3396   */\n      dup3\n        /* \"#utility.yul\":3389:3401   */\n      add\n        /* \"#utility.yul\":3382:3401   */\n      swap1\n      pop\n        /* \"#utility.yul\":3041:3407   */\n      swap2\n      swap1\n      pop\n      jump\t// out\n        /* \"#utility.yul\":3413:3779   */\n    tag_220:\n        /* \"#utility.yul\":3555:3558   */\n      0x00\n        /* \"#utility.yul\":3576:3643   */\n      tag_222\n        /* \"#utility.yul\":3640:3642   */\n      0x1d\n        /* \"#utility.yul\":3635:3638   */\n      dup4\n        /* \"#utility.yul\":3576:3643   */\n      tag_187\n      jump\t// in\n    tag_222:\n        /* \"#utility.yul\":3569:3643   */\n      swap2\n      pop\n        /* \"#utility.yul\":3652:3745   */\n      tag_223\n        /* \"#utility.yul\":3741:3744   */\n      dup3\n        /* \"#utility.yul\":3652:3745   */\n      tag_224\n      jump\t// in\n    tag_223:\n        /* \"#utility.yul\":3770:3772   */\n      0x20\n        /* \"#utility.yul\":3765:3768   */\n      dup3\n        /* \"#utility.yul\":3761:3773   */\n      add\n        /* \"#utility.yul\":3754:3773   */\n      swap1\n      pop\n        /* \"#utility.yul\":3413:3779   */\n      swap2\n      swap1\n      pop\n      jump\t// out\n        /* \"#utility.yul\":3785:4151   */\n    tag_225:\n        /* \"#utility.yul\":3927:3930   */\n      0x00\n        /* \"#utility.yul\":3948:4015   */\n      tag_227\n        /* \"#utility.yul\":4012:4014   */\n      0x26\n        /* \"#utility.yul\":4007:4010   */\n      dup4\n        /* \"#utility.yul\":3948:4015   */\n      tag_187\n      jump\t// in\n    tag_227:\n        /* \"#utility.yul\":3941:4015   */\n      swap2\n      pop\n        /* \"#utility.yul\":4024:4117   */\n      tag_228\n        /* \"#utility.yul\":4113:4116   */\n      dup3\n        /* \"#utility.yul\":4024:4117   */\n      tag_229\n      jump\t// in\n    tag_228:\n        /* \"#utility.yul\":4142:4144   */\n      0x40\n        /* \"#utility.yul\":4137:4140   */\n      dup3\n        /* \"#utility.yul\":4133:4145   */\n      add\n        /* \"#utility.yul\":4126:4145   */\n      swap1\n      pop\n        /* \"#utility.yul\":3785:4151   */\n      swap2\n      swap1\n      pop\n      jump\t// out\n        /* \"#utility.yul\":4157:4523   */\n    tag_230:\n        /* \"#utility.yul\":4299:4302   */\n      0x00\n        /* \"#utility.yul\":4320:4387   */\n      tag_232\n        /* \"#utility.yul\":4384:4386   */\n      0x2a\n        /* \"#utility.yul\":4379:4382   */\n      dup4\n        /* \"#utility.yul\":4320:4387   */\n      tag_187\n      jump\t// in\n    tag_232:\n        /* \"#utility.yul\":4313:4387   */\n      swap2\n      pop\n        /* \"#utility.yul\":4396:4489   */\n      tag_233\n        /* \"#utility.yul\":4485:4488   */\n      dup3\n        /* \"#utility.yul\":4396:4489   */\n      tag_234\n      jump\t// in\n    tag_233:\n        /* \"#utility.yul\":4514:4516   */\n      0x40\n        /* \"#utility.yul\":4509:4512   */\n      dup3\n        /* \"#utility.yul\":4505:4517   */\n      add\n        /* \"#utility.yul\":4498:4517   */\n      swap1\n      pop\n        /* \"#utility.yul\":4157:4523   */\n      swap2\n      swap1\n      pop\n      jump\t// out\n        /* \"#utility.yul\":4529:4895   */\n    tag_235:\n        /* \"#utility.yul\":4671:4674   */\n      0x00\n        /* \"#utility.yul\":4692:4759   */\n      tag_237\n        /* \"#utility.yul\":4756:4758   */\n      0x2c\n        /* \"#utility.yul\":4751:4754   */\n      dup4\n        /* \"#utility.yul\":4692:4759   */\n      tag_187\n      jump\t// in\n    tag_237:\n        /* \"#utility.yul\":4685:4759   */\n      swap2\n      pop\n        /* \"#utility.yul\":4768:4861   */\n      tag_238\n        /* \"#utility.yul\":4857:4860   */\n      dup3\n        /* \"#utility.yul\":4768:4861   */\n      tag_239\n      jump\t// in\n    tag_238:\n        /* \"#utility.yul\":4886:4888   */\n      0x40\n        /* \"#utility.yul\":4881:4884   */\n      dup3\n        /* \"#utility.yul\":4877:4889   */\n      add\n        /* \"#utility.yul\":4870:4889   */\n      swap1\n      pop\n        /* \"#utility.yul\":4529:4895   */\n      swap2\n      swap1\n      pop\n      jump\t// out\n        /* \"#utility.yul\":4901:5019   */\n    tag_240:\n        /* \"#utility.yul\":4988:5012   */\n      tag_242\n        /* \"#utility.yul\":5006:5011   */\n      dup2\n        /* \"#utility.yul\":4988:5012   */\n      tag_243\n      jump\t// in\n    tag_242:\n        /* \"#utility.yul\":4983:4986   */\n      dup3\n        /* \"#utility.yul\":4976:5013   */\n      mstore\n        /* \"#utility.yul\":4901:5019   */\n      pop\n      pop\n      jump\t// out\n        /* \"#utility.yul\":5025:5444   */\n    tag_69:\n        /* \"#utility.yul\":5191:5195   */\n      0x00\n        /* \"#utility.yul\":5229:5231   */\n      0x20\n        /* \"#utility.yul\":5218:5227   */\n      dup3\n        /* \"#utility.yul\":5214:5232   */\n      add\n        /* \"#utility.yul\":5206:5232   */\n      swap1\n      pop\n        /* \"#utility.yul\":5278:5287   */\n      dup2\n        /* \"#utility.yul\":5272:5276   */\n      dup2\n        /* \"#utility.yul\":5268:5288   */\n      sub\n        /* \"#utility.yul\":5264:5265   */\n      0x00\n        /* \"#utility.yul\":5253:5262   */\n      dup4\n        /* \"#utility.yul\":5249:5266   */\n      add\n        /* \"#utility.yul\":5242:5289   */\n      mstore\n        /* \"#utility.yul\":5306:5437   */\n      tag_245\n        /* \"#utility.yul\":5432:5436   */\n      dup2\n        /* \"#utility.yul\":5306:5437   */\n      tag_184\n      jump\t// in\n    tag_245:\n        /* \"#utility.yul\":5298:5437   */\n      swap1\n      pop\n        /* \"#utility.yul\":5025:5444   */\n      swap2\n      swap1\n      pop\n      jump\t// out\n        /* \"#utility.yul\":5450:5869   */\n    tag_59:\n        /* \"#utility.yul\":5616:5620   */\n      0x00\n        /* \"#utility.yul\":5654:5656   */\n      0x20\n        /* \"#utility.yul\":5643:5652   */\n      dup3\n        /* \"#utility.yul\":5639:5657   */\n      add\n        /* \"#utility.yul\":5631:5657   */\n      swap1\n      pop\n        /* \"#utility.yul\":5703:5712   */\n      dup2\n        /* \"#utility.yul\":5697:5701   */\n      dup2\n        /* \"#utility.yul\":5693:5713   */\n      sub\n        /* \"#utility.yul\":5689:5690   */\n      0x00\n        /* \"#utility.yul\":5678:5687   */\n      dup4\n        /* \"#utility.yul\":5674:5691   */\n      add\n        /* \"#utility.yul\":5667:5714   */\n      mstore\n        /* \"#utility.yul\":5731:5862   */\n      tag_247\n        /* \"#utility.yul\":5857:5861   */\n      dup2\n        /* \"#utility.yul\":5731:5862   */\n      tag_190\n      jump\t// in\n    tag_247:\n        /* \"#utility.yul\":5723:5862   */\n      swap1\n      pop\n        /* \"#utility.yul\":5450:5869   */\n      swap2\n      swap1\n      pop\n      jump\t// out\n        /* \"#utility.yul\":5875:6294   */\n    tag_66:\n        /* \"#utility.yul\":6041:6045   */\n      0x00\n        /* \"#utility.yul\":6079:6081   */\n      0x20\n        /* \"#utility.yul\":6068:6077   */\n      dup3\n        /* \"#utility.yul\":6064:6082   */\n      add\n        /* \"#utility.yul\":6056:6082   */\n      swap1\n      pop\n        /* \"#utility.yul\":6128:6137   */\n      dup2\n        /* \"#utility.yul\":6122:6126   */\n      dup2\n        /* \"#utility.yul\":6118:6138   */\n      sub\n        /* \"#utility.yul\":6114:6115   */\n      0x00\n        /* \"#utility.yul\":6103:6112   */\n      dup4\n        /* \"#utility.yul\":6099:6116   */\n      add\n        /* \"#utility.yul\":6092:6139   */\n      mstore\n        /* \"#utility.yul\":6156:6287   */\n      tag_249\n        /* \"#utility.yul\":6282:6286   */\n      dup2\n        /* \"#utility.yul\":6156:6287   */\n      tag_195\n      jump\t// in\n    tag_249:\n        /* \"#utility.yul\":6148:6287   */\n      swap1\n      pop\n        /* \"#utility.yul\":5875:6294   */\n      swap2\n      swap1\n      pop\n      jump\t// out\n        /* \"#utility.yul\":6300:6719   */\n    tag_50:\n        /* \"#utility.yul\":6466:6470   */\n      0x00\n        /* \"#utility.yul\":6504:6506   */\n      0x20\n        /* \"#utility.yul\":6493:6502   */\n      dup3\n        /* \"#utility.yul\":6489:6507   */\n      add\n        /* \"#utility.yul\":6481:6507   */\n      swap1\n      pop\n        /* \"#utility.yul\":6553:6562   */\n      dup2\n        /* \"#utility.yul\":6547:6551   */\n      dup2\n        /* \"#utility.yul\":6543:6563   */\n      sub\n        /* \"#utility.yul\":6539:6540   */\n      0x00\n        /* \"#utility.yul\":6528:6537   */\n      dup4\n        /* \"#utility.yul\":6524:6541   */\n      add\n        /* \"#utility.yul\":6517:6564   */\n      mstore\n        /* \"#utility.yul\":6581:6712   */\n      tag_251\n        /* \"#utility.yul\":6707:6711   */\n      dup2\n        /* \"#utility.yul\":6581:6712   */\n      tag_200\n      jump\t// in\n    tag_251:\n        /* \"#utility.yul\":6573:6712   */\n      swap1\n      pop\n        /* \"#utility.yul\":6300:6719   */\n      swap2\n      swap1\n      pop\n      jump\t// out\n        /* \"#utility.yul\":6725:7144   */\n    tag_94:\n        /* \"#utility.yul\":6891:6895   */\n      0x00\n        /* \"#utility.yul\":6929:6931   */\n      0x20\n        /* \"#utility.yul\":6918:6927   */\n      dup3\n        /* \"#utility.yul\":6914:6932   */\n      add\n        /* \"#utility.yul\":6906:6932   */\n      swap1\n      pop\n        /* \"#utility.yul\":6978:6987   */\n      dup2\n        /* \"#utility.yul\":6972:6976   */\n      dup2\n        /* \"#utility.yul\":6968:6988   */\n      sub\n        /* \"#utility.yul\":6964:6965   */\n      0x00\n        /* \"#utility.yul\":6953:6962   */\n      dup4\n        /* \"#utility.yul\":6949:6966   */\n      add\n        /* \"#utility.yul\":6942:6989   */\n      mstore\n        /* \"#utility.yul\":7006:7137   */\n      tag_253\n        /* \"#utility.yul\":7132:7136   */\n      dup2\n        /* \"#utility.yul\":7006:7137   */\n      tag_205\n      jump\t// in\n    tag_253:\n        /* \"#utility.yul\":6998:7137   */\n      swap1\n      pop\n        /* \"#utility.yul\":6725:7144   */\n      swap2\n      swap1\n      pop\n      jump\t// out\n        /* \"#utility.yul\":7150:7569   */\n    tag_99:\n        /* \"#utility.yul\":7316:7320   */\n      0x00\n        /* \"#utility.yul\":7354:7356   */\n      0x20\n        /* \"#utility.yul\":7343:7352   */\n      dup3\n        /* \"#utility.yul\":7339:7357   */\n      add\n        /* \"#utility.yul\":7331:7357   */\n      swap1\n      pop\n        /* \"#utility.yul\":7403:7412   */\n      dup2\n        /* \"#utility.yul\":7397:7401   */\n      dup2\n        /* \"#utility.yul\":7393:7413   */\n      sub\n        /* \"#utility.yul\":7389:7390   */\n      0x00\n        /* \"#utility.yul\":7378:7387   */\n      dup4\n        /* \"#utility.yul\":7374:7391   */\n      add\n        /* \"#utility.yul\":7367:7414   */\n      mstore\n        /* \"#utility.yul\":7431:7562   */\n      tag_255\n        /* \"#utility.yul\":7557:7561   */\n      dup2\n        /* \"#utility.yul\":7431:7562   */\n      tag_210\n      jump\t// in\n    tag_255:\n        /* \"#utility.yul\":7423:7562   */\n      swap1\n      pop\n        /* \"#utility.yul\":7150:7569   */\n      swap2\n      swap1\n      pop\n      jump\t// out\n        /* \"#utility.yul\":7575:7994   */\n    tag_114:\n        /* \"#utility.yul\":7741:7745   */\n      0x00\n        /* \"#utility.yul\":7779:7781   */\n      0x20\n        /* \"#utility.yul\":7768:7777   */\n      dup3\n        /* \"#utility.yul\":7764:7782   */\n      add\n        /* \"#utility.yul\":7756:7782   */\n      swap1\n      pop\n        /* \"#utility.yul\":7828:7837   */\n      dup2\n        /* \"#utility.yul\":7822:7826   */\n      dup2\n        /* \"#utility.yul\":7818:7838   */\n      sub\n        /* \"#utility.yul\":7814:7815   */\n      0x00\n        /* \"#utility.yul\":7803:7812   */\n      dup4\n        /* \"#utility.yul\":7799:7816   */\n      add\n        /* \"#utility.yul\":7792:7839   */\n      mstore\n        /* \"#utility.yul\":7856:7987   */\n      tag_257\n        /* \"#utility.yul\":7982:7986   */\n      dup2\n        /* \"#utility.yul\":7856:7987   */\n      tag_215\n      jump\t// in\n    tag_257:\n        /* \"#utility.yul\":7848:7987   */\n      swap1\n      pop\n        /* \"#utility.yul\":7575:7994   */\n      swap2\n      swap1\n      pop\n      jump\t// out\n        /* \"#utility.yul\":8000:8419   */\n    tag_44:\n        /* \"#utility.yul\":8166:8170   */\n      0x00\n        /* \"#utility.yul\":8204:8206   */\n      0x20\n        /* \"#utility.yul\":8193:8202   */\n      dup3\n        /* \"#utility.yul\":8189:8207   */\n      add\n        /* \"#utility.yul\":8181:8207   */\n      swap1\n      pop\n        /* \"#utility.yul\":8253:8262   */\n      dup2\n        /* \"#utility.yul\":8247:8251   */\n      dup2\n        /* \"#utility.yul\":8243:8263   */\n      sub\n        /* \"#utility.yul\":8239:8240   */\n      0x00\n        /* \"#utility.yul\":8228:8237   */\n      dup4\n        /* \"#utility.yul\":8224:8241   */\n      add\n        /* \"#utility.yul\":8217:8264   */\n      mstore\n        /* \"#utility.yul\":8281:8412   */\n      tag_259\n        /* \"#utility.yul\":8407:8411   */\n      dup2\n        /* \"#utility.yul\":8281:8412   */\n      tag_220\n      jump\t// in\n    tag_259:\n        /* \"#utility.yul\":8273:8412   */\n      swap1\n      pop\n        /* \"#utility.yul\":8000:8419   */\n      swap2\n      swap1\n      pop\n      jump\t// out\n        /* \"#utility.yul\":8425:8844   */\n    tag_40:\n        /* \"#utility.yul\":8591:8595   */\n      0x00\n        /* \"#utility.yul\":8629:8631   */\n      0x20\n        /* \"#utility.yul\":8618:8627   */\n      dup3\n        /* \"#utility.yul\":8614:8632   */\n      add\n        /* \"#utility.yul\":8606:8632   */\n      swap1\n      pop\n        /* \"#utility.yul\":8678:8687   */\n      dup2\n        /* \"#utility.yul\":8672:8676   */\n      dup2\n        /* \"#utility.yul\":8668:8688   */\n      sub\n        /* \"#utility.yul\":8664:8665   */\n      0x00\n        /* \"#utility.yul\":8653:8662   */\n      dup4\n        /* \"#utility.yul\":8649:8666   */\n      add\n        /* \"#utility.yul\":8642:8689   */\n      mstore\n        /* \"#utility.yul\":8706:8837   */\n      tag_261\n        /* \"#utility.yul\":8832:8836   */\n      dup2\n        /* \"#utility.yul\":8706:8837   */\n      tag_225\n      jump\t// in\n    tag_261:\n        /* \"#utility.yul\":8698:8837   */\n      swap1\n      pop\n        /* \"#utility.yul\":8425:8844   */\n      swap2\n      swap1\n      pop\n      jump\t// out\n        /* \"#utility.yul\":8850:9269   */\n    tag_124:\n        /* \"#utility.yul\":9016:9020   */\n      0x00\n        /* \"#utility.yul\":9054:9056   */\n      0x20\n        /* \"#utility.yul\":9043:9052   */\n      dup3\n        /* \"#utility.yul\":9039:9057   */\n      add\n        /* \"#utility.yul\":9031:9057   */\n      swap1\n      pop\n        /* \"#utility.yul\":9103:9112   */\n      dup2\n        /* \"#utility.yul\":9097:9101   */\n      dup2\n        /* \"#utility.yul\":9093:9113   */\n      sub\n        /* \"#utility.yul\":9089:9090   */\n      0x00\n        /* \"#utility.yul\":9078:9087   */\n      dup4\n        /* \"#utility.yul\":9074:9091   */\n      add\n        /* \"#utility.yul\":9067:9114   */\n      mstore\n        /* \"#utility.yul\":9131:9262   */\n      tag_263\n        /* \"#utility.yul\":9257:9261   */\n      dup2\n        /* \"#utility.yul\":9131:9262   */\n      tag_230\n      jump\t// in\n    tag_263:\n        /* \"#utility.yul\":9123:9262   */\n      swap1\n      pop\n        /* \"#utility.yul\":8850:9269   */\n      swap2\n      swap1\n      pop\n      jump\t// out\n        /* \"#utility.yul\":9275:9694   */\n    tag_47:\n        /* \"#utility.yul\":9441:9445   */\n      0x00\n        /* \"#utility.yul\":9479:9481   */\n      0x20\n        /* \"#utility.yul\":9468:9477   */\n      dup3\n        /* \"#utility.yul\":9464:9482   */\n      add\n        /* \"#utility.yul\":9456:9482   */\n      swap1\n      pop\n        /* \"#utility.yul\":9528:9537   */\n      dup2\n        /* \"#utility.yul\":9522:9526   */\n      dup2\n        /* \"#utility.yul\":9518:9538   */\n      sub\n        /* \"#utility.yul\":9514:9515   */\n      0x00\n        /* \"#utility.yul\":9503:9512   */\n      dup4\n        /* \"#utility.yul\":9499:9516   */\n      add\n        /* \"#utility.yul\":9492:9539   */\n      mstore\n        /* \"#utility.yul\":9556:9687   */\n      tag_265\n        /* \"#utility.yul\":9682:9686   */\n      dup2\n        /* \"#utility.yul\":9556:9687   */\n      tag_235\n      jump\t// in\n    tag_265:\n        /* \"#utility.yul\":9548:9687   */\n      swap1\n      pop\n        /* \"#utility.yul\":9275:9694   */\n      swap2\n      swap1\n      pop\n      jump\t// out\n        /* \"#utility.yul\":9700:9922   */\n    tag_30:\n        /* \"#utility.yul\":9793:9797   */\n      0x00\n        /* \"#utility.yul\":9831:9833   */\n      0x20\n        /* \"#utility.yul\":9820:9829   */\n      dup3\n        /* \"#utility.yul\":9816:9834   */\n      add\n        /* \"#utility.yul\":9808:9834   */\n      swap1\n      pop\n        /* \"#utility.yul\":9844:9915   */\n      tag_267\n        /* \"#utility.yul\":9912:9913   */\n      0x00\n        /* \"#utility.yul\":9901:9910   */\n      dup4\n        /* \"#utility.yul\":9897:9914   */\n      add\n        /* \"#utility.yul\":9888:9894   */\n      dup5\n        /* \"#utility.yul\":9844:9915   */\n      tag_240\n      jump\t// in\n    tag_267:\n        /* \"#utility.yul\":9700:9922   */\n      swap3\n      swap2\n      pop\n      pop\n      jump\t// out\n        /* \"#utility.yul\":10009:10178   */\n    tag_187:\n        /* \"#utility.yul\":10093:10104   */\n      0x00\n        /* \"#utility.yul\":10127:10133   */\n      dup3\n        /* \"#utility.yul\":10122:10125   */\n      dup3\n        /* \"#utility.yul\":10115:10134   */\n      mstore\n        /* \"#utility.yul\":10167:10171   */\n      0x20\n        /* \"#utility.yul\":10162:10165   */\n      dup3\n        /* \"#utility.yul\":10158:10172   */\n      add\n        /* \"#utility.yul\":10143:10172   */\n      swap1\n      pop\n        /* \"#utility.yul\":10009:10178   */\n      swap3\n      swap2\n      pop\n      pop\n      jump\t// out\n        /* \"#utility.yul\":10184:10489   */\n    tag_116:\n        /* \"#utility.yul\":10224:10227   */\n      0x00\n        /* \"#utility.yul\":10243:10263   */\n      tag_272\n        /* \"#utility.yul\":10261:10262   */\n      dup3\n        /* \"#utility.yul\":10243:10263   */\n      tag_243\n      jump\t// in\n    tag_272:\n        /* \"#utility.yul\":10238:10263   */\n      swap2\n      pop\n        /* \"#utility.yul\":10277:10297   */\n      tag_273\n        /* \"#utility.yul\":10295:10296   */\n      dup4\n        /* \"#utility.yul\":10277:10297   */\n      tag_243\n      jump\t// in\n    tag_273:\n        /* \"#utility.yul\":10272:10297   */\n      swap3\n      pop\n        /* \"#utility.yul\":10431:10432   */\n      dup3\n        /* \"#utility.yul\":10363:10429   */\n      0xffffffffffffffffffffffffffffffffffffffffffffffffffffffffffffffff\n        /* \"#utility.yul\":10359:10433   */\n      sub\n        /* \"#utility.yul\":10356:10357   */\n      dup3\n        /* \"#utility.yul\":10353:10434   */\n      gt\n        /* \"#utility.yul\":10350:10457   */\n      iszero\n      tag_274\n      jumpi\n        /* \"#utility.yul\":10437:10455   */\n      tag_275\n      tag_276\n      jump\t// in\n    tag_275:\n        /* \"#utility.yul\":10350:10457   */\n    tag_274:\n        /* \"#utility.yul\":10481:10482   */\n      dup3\n        /* \"#utility.yul\":10478:10479   */\n      dup3\n        /* \"#utility.yul\":10474:10483   */\n      add\n        /* \"#utility.yul\":10467:10483   */\n      swap1\n      pop\n        /* \"#utility.yul\":10184:10489   */\n      swap3\n      swap2\n      pop\n      pop\n      jump\t// out\n        /* \"#utility.yul\":10495:10686   */\n    tag_83:\n        /* \"#utility.yul\":10535:10539   */\n      0x00\n        /* \"#utility.yul\":10555:10575   */\n      tag_278\n        /* \"#utility.yul\":10573:10574   */\n      dup3\n        /* \"#utility.yul\":10555:10575   */\n      tag_243\n      jump\t// in\n    tag_278:\n        /* \"#utility.yul\":10550:10575   */\n      swap2\n      pop\n        /* \"#utility.yul\":10589:10609   */\n      tag_279\n        /* \"#utility.yul\":10607:10608   */\n      dup4\n        /* \"#utility.yul\":10589:10609   */\n      tag_243\n      jump\t// in\n    tag_279:\n        /* \"#utility.yul\":10584:10609   */\n      swap3\n      pop\n        /* \"#utility.yul\":10628:10629   */\n      dup3\n        /* \"#utility.yul\":10625:10626   */\n      dup3\n        /* \"#utility.yul\":10622:10630   */\n      lt\n        /* \"#utility.yul\":10619:10653   */\n      iszero\n      tag_280\n      jumpi\n        /* \"#utility.yul\":10633:10651   */\n      tag_281\n      tag_276\n      jump\t// in\n    tag_281:\n        /* \"#utility.yul\":10619:10653   */\n    tag_280:\n        /* \"#utility.yul\":10678:10679   */\n      dup3\n        /* \"#utility.yul\":10675:10676   */\n      dup3\n        /* \"#utility.yul\":10671:10680   */\n      sub\n        /* \"#utility.yul\":10663:10680   */\n      swap1\n      pop\n        /* \"#utility.yul\":10495:10686   */\n      swap3\n      swap2\n      pop\n      pop\n      jump\t// out\n        /* \"#utility.yul\":10692:10796   */\n    tag_282:\n        /* \"#utility.yul\":10737:10744   */\n      0x00\n        /* \"#utility.yul\":10766:10790   */\n      tag_284\n        /* \"#utility.yul\":10784:10789   */\n      dup3\n        /* \"#utility.yul\":10766:10790   */\n      tag_285\n      jump\t// in\n    tag_284:\n        /* \"#utility.yul\":10755:10790   */\n      swap1\n      pop\n        /* \"#utility.yul\":10692:10796   */\n      swap2\n      swap1\n      pop\n      jump\t// out\n        /* \"#utility.yul\":10802:10928   */\n    tag_285:\n        /* \"#utility.yul\":10839:10846   */\n      0x00\n        /* \"#utility.yul\":10879:10921   */\n      0xffffffffffffffffffffffffffffffffffffffff\n        /* \"#utility.yul\":10872:10877   */\n      dup3\n        /* \"#utility.yul\":10868:10922   */\n      and\n        /* \"#utility.yul\":10857:10922   */\n      swap1\n      pop\n        /* \"#utility.yul\":10802:10928   */\n      swap2\n      swap1\n      pop\n      jump\t// out\n        /* \"#utility.yul\":10934:11011   */\n    tag_243:\n        /* \"#utility.yul\":10971:10978   */\n      0x00\n        /* \"#utility.yul\":11000:11005   */\n      dup2\n        /* \"#utility.yul\":10989:11005   */\n      swap1\n      pop\n        /* \"#utility.yul\":10934:11011   */\n      swap2\n      swap1\n      pop\n      jump\t// out\n        /* \"#utility.yul\":11017:11103   */\n    tag_288:\n        /* \"#utility.yul\":11052:11059   */\n      0x00\n        /* \"#utility.yul\":11092:11096   */\n      0xff\n        /* \"#utility.yul\":11085:11090   */\n      dup3\n        /* \"#utility.yul\":11081:11097   */\n      and\n        /* \"#utility.yul\":11070:11097   */\n      swap1\n      pop\n        /* \"#utility.yul\":11017:11103   */\n      swap2\n      swap1\n      pop\n      jump\t// out\n        /* \"#utility.yul\":11109:11342   */\n    tag_80:\n        /* \"#utility.yul\":11148:11151   */\n      0x00\n        /* \"#utility.yul\":11171:11195   */\n      tag_291\n        /* \"#utility.yul\":11189:11194   */\n      dup3\n        /* \"#utility.yul\":11171:11195   */\n      tag_243\n      jump\t// in\n    tag_291:\n        /* \"#utility.yul\":11162:11195   */\n      swap2\n      pop\n        /* \"#utility.yul\":11217:11283   */\n      0xffffffffffffffffffffffffffffffffffffffffffffffffffffffffffffffff\n        /* \"#utility.yul\":11210:11215   */\n      dup3\n        /* \"#utility.yul\":11207:11284   */\n      eq\n        /* \"#utility.yul\":11204:11307   */\n      iszero\n      tag_292\n      jumpi\n        /* \"#utility.yul\":11287:11305   */\n      tag_293\n      tag_276\n      jump\t// in\n    tag_293:\n        /* \"#utility.yul\":11204:11307   */\n    tag_292:\n        /* \"#utility.yul\":11334:11335   */\n      0x01\n        /* \"#utility.yul\":11327:11332   */\n      dup3\n        /* \"#utility.yul\":11323:11336   */\n      add\n        /* \"#utility.yul\":11316:11336   */\n      swap1\n      pop\n        /* \"#utility.yul\":11109:11342   */\n      swap2\n      swap1\n      pop\n      jump\t// out\n        /* \"#utility.yul\":11348:11515   */\n    tag_161:\n        /* \"#utility.yul\":11385:11388   */\n      0x00\n        /* \"#utility.yul\":11408:11430   */\n      tag_295\n        /* \"#utility.yul\":11424:11429   */\n      dup3\n        /* \"#utility.yul\":11408:11430   */\n      tag_288\n      jump\t// in\n    tag_295:\n        /* \"#utility.yul\":11399:11430   */\n      swap2\n      pop\n        /* \"#utility.yul\":11452:11456   */\n      0xff\n        /* \"#utility.yul\":11445:11450   */\n      dup3\n        /* \"#utility.yul\":11442:11457   */\n      eq\n        /* \"#utility.yul\":11439:11480   */\n      iszero\n      tag_296\n      jumpi\n        /* \"#utility.yul\":11460:11478   */\n      tag_297\n      tag_276\n      jump\t// in\n    tag_297:\n        /* \"#utility.yul\":11439:11480   */\n    tag_296:\n        /* \"#utility.yul\":11507:11508   */\n      0x01\n        /* \"#utility.yul\":11500:11505   */\n      dup3\n        /* \"#utility.yul\":11496:11509   */\n      add\n        /* \"#utility.yul\":11489:11509   */\n      swap1\n      pop\n        /* \"#utility.yul\":11348:11515   */\n      swap2\n      swap1\n      pop\n      jump\t// out\n        /* \"#utility.yul\":11521:11701   */\n    tag_276:\n        /* \"#utility.yul\":11569:11646   */\n      0x4e487b7100000000000000000000000000000000000000000000000000000000\n        /* \"#utility.yul\":11566:11567   */\n      0x00\n        /* \"#utility.yul\":11559:11647   */\n      mstore\n        /* \"#utility.yul\":11666:11670   */\n      0x11\n        /* \"#utility.yul\":11663:11664   */\n      0x04\n        /* \"#utility.yul\":11656:11671   */\n      mstore\n        /* \"#utility.yul\":11690:11694   */\n      0x24\n        /* \"#utility.yul\":11687:11688   */\n      0x00\n        /* \"#utility.yul\":11680:11695   */\n      revert\n        /* \"#utility.yul\":11707:11887   */\n    tag_76:\n        /* \"#utility.yul\":11755:11832   */\n      0x4e487b7100000000000000000000000000000000000000000000000000000000\n        /* \"#utility.yul\":11752:11753   */\n      0x00\n        /* \"#utility.yul\":11745:11833   */\n      mstore\n        /* \"#utility.yul\":11852:11856   */\n      0x32\n        /* \"#utility.yul\":11849:11850   */\n      0x04\n        /* \"#utility.yul\":11842:11857   */\n      mstore\n        /* \"#utility.yul\":11876:11880   */\n      0x24\n        /* \"#utility.yul\":11873:11874   */\n      0x00\n        /* \"#utility.yul\":11866:11881   */\n      revert\n        /* \"#utility.yul\":12016:12133   */\n    tag_181:\n        /* \"#utility.yul\":12125:12126   */\n      0x00\n        /* \"#utility.yul\":12122:12123   */\n      dup1\n        /* \"#utility.yul\":12115:12127   */\n      revert\n        /* \"#utility.yul\":12139:12373   */\n    tag_189:\n        /* \"#utility.yul\":12279:12313   */\n      0x74686572652069736e277420616e792077697468647277616c73207761697420\n        /* \"#utility.yul\":12275:12276   */\n      0x00\n        /* \"#utility.yul\":12267:12273   */\n      dup3\n        /* \"#utility.yul\":12263:12277   */\n      add\n        /* \"#utility.yul\":12256:12314   */\n      mstore\n        /* \"#utility.yul\":12348:12365   */\n      0x666f722063616e63656c6174696f6e0000000000000000000000000000000000\n        /* \"#utility.yul\":12343:12345   */\n      0x20\n        /* \"#utility.yul\":12335:12341   */\n      dup3\n        /* \"#utility.yul\":12331:12346   */\n      add\n        /* \"#utility.yul\":12324:12366   */\n      mstore\n        /* \"#utility.yul\":12139:12373   */\n      pop\n      jump\t// out\n        /* \"#utility.yul\":12379:12624   */\n    tag_194:\n        /* \"#utility.yul\":12519:12553   */\n      0x6f6e6c792074686520636f756e746572207061727479206f6620696e69746961\n        /* \"#utility.yul\":12515:12516   */\n      0x00\n        /* \"#utility.yul\":12507:12513   */\n      dup3\n        /* \"#utility.yul\":12503:12517   */\n      add\n        /* \"#utility.yul\":12496:12554   */\n      mstore\n        /* \"#utility.yul\":12588:12616   */\n      0x746f722063616e2063616c6c20746869732066756e6374696f6e000000000000\n        /* \"#utility.yul\":12583:12585   */\n      0x20\n        /* \"#utility.yul\":12575:12581   */\n      dup3\n        /* \"#utility.yul\":12571:12586   */\n      add\n        /* \"#utility.yul\":12564:12617   */\n      mstore\n        /* \"#utility.yul\":12379:12624   */\n      pop\n      jump\t// out\n        /* \"#utility.yul\":12630:12863   */\n    tag_199:\n        /* \"#utility.yul\":12770:12804   */\n      0x796f752068617665207369676e656420666f722063616e63656c6c6174696f6e\n        /* \"#utility.yul\":12766:12767   */\n      0x00\n        /* \"#utility.yul\":12758:12764   */\n      dup3\n        /* \"#utility.yul\":12754:12768   */\n      add\n        /* \"#utility.yul\":12747:12805   */\n      mstore\n        /* \"#utility.yul\":12839:12855   */\n      0x2c20646f6e277420726570656174000000000000000000000000000000000000\n        /* \"#utility.yul\":12834:12836   */\n      0x20\n        /* \"#utility.yul\":12826:12832   */\n      dup3\n        /* \"#utility.yul\":12822:12837   */\n      add\n        /* \"#utility.yul\":12815:12856   */\n      mstore\n        /* \"#utility.yul\":12630:12863   */\n      pop\n      jump\t// out\n        /* \"#utility.yul\":12869:13040   */\n    tag_204:\n        /* \"#utility.yul\":13009:13032   */\n      0x696e76616c696420746172676574416464726573730000000000000000000000\n        /* \"#utility.yul\":13005:13006   */\n      0x00\n        /* \"#utility.yul\":12997:13003   */\n      dup3\n        /* \"#utility.yul\":12993:13007   */\n      add\n        /* \"#utility.yul\":12986:13033   */\n      mstore\n        /* \"#utility.yul\":12869:13040   */\n      pop\n      jump\t// out\n        /* \"#utility.yul\":13046:13277   */\n    tag_209:\n        /* \"#utility.yul\":13186:13220   */\n      0x7468657265206973206e6f20776974686472617720616374696f6e2077616974\n        /* \"#utility.yul\":13182:13183   */\n      0x00\n        /* \"#utility.yul\":13174:13180   */\n      dup3\n        /* \"#utility.yul\":13170:13184   */\n      add\n        /* \"#utility.yul\":13163:13221   */\n      mstore\n        /* \"#utility.yul\":13255:13269   */\n      0x696e6720666f72207369676e0000000000000000000000000000000000000000\n        /* \"#utility.yul\":13250:13252   */\n      0x20\n        /* \"#utility.yul\":13242:13248   */\n      dup3\n        /* \"#utility.yul\":13238:13253   */\n      add\n        /* \"#utility.yul\":13231:13270   */\n      mstore\n        /* \"#utility.yul\":13046:13277   */\n      pop\n      jump\t// out\n        /* \"#utility.yul\":13283:13526   */\n    tag_214:\n        /* \"#utility.yul\":13423:13457   */\n      0x796f752068617665207369676e65642074686973207769746864726177207072\n        /* \"#utility.yul\":13419:13420   */\n      0x00\n        /* \"#utility.yul\":13411:13417   */\n      dup3\n        /* \"#utility.yul\":13407:13421   */\n      add\n        /* \"#utility.yul\":13400:13458   */\n      mstore\n        /* \"#utility.yul\":13492:13518   */\n      0x6f636573732c20706c7a20646f6e2774207265706561742e0000000000000000\n        /* \"#utility.yul\":13487:13489   */\n      0x20\n        /* \"#utility.yul\":13479:13485   */\n      dup3\n        /* \"#utility.yul\":13475:13490   */\n      add\n        /* \"#utility.yul\":13468:13519   */\n      mstore\n        /* \"#utility.yul\":13283:13526   */\n      pop\n      jump\t// out\n        /* \"#utility.yul\":13532:13844   */\n    tag_219:\n        /* \"#utility.yul\":13672:13706   */\n      0x544f50494e206d757374206d6f7265207468616e2030207765692c20696e6465\n        /* \"#utility.yul\":13668:13669   */\n      0x00\n        /* \"#utility.yul\":13660:13666   */\n      dup3\n        /* \"#utility.yul\":13656:13670   */\n      add\n        /* \"#utility.yul\":13649:13707   */\n      mstore\n        /* \"#utility.yul\":13741:13775   */\n      0x656420746865206761732066656520646f206e6f742064656372656173652069\n        /* \"#utility.yul\":13736:13738   */\n      0x20\n        /* \"#utility.yul\":13728:13734   */\n      dup3\n        /* \"#utility.yul\":13724:13739   */\n      add\n        /* \"#utility.yul\":13717:13776   */\n      mstore\n        /* \"#utility.yul\":13810:13836   */\n      0x6620796f7520746f70696e2061206c6f772076616c75652e0000000000000000\n        /* \"#utility.yul\":13805:13807   */\n      0x40\n        /* \"#utility.yul\":13797:13803   */\n      dup3\n        /* \"#utility.yul\":13793:13808   */\n      add\n        /* \"#utility.yul\":13786:13837   */\n      mstore\n        /* \"#utility.yul\":13532:13844   */\n      pop\n      jump\t// out\n        /* \"#utility.yul\":13850:14029   */\n    tag_224:\n        /* \"#utility.yul\":13990:14021   */\n      0x7072652070726f6365737320686173206e6f74206265656e206f766572000000\n        /* \"#utility.yul\":13986:13987   */\n      0x00\n        /* \"#utility.yul\":13978:13984   */\n      dup3\n        /* \"#utility.yul\":13974:13988   */\n      add\n        /* \"#utility.yul\":13967:14022   */\n      mstore\n        /* \"#utility.yul\":13850:14029   */\n      pop\n      jump\t// out\n        /* \"#utility.yul\":14035:14260   */\n    tag_229:\n        /* \"#utility.yul\":14175:14209   */\n      0x6f6e6c7920636f6c6c61626f7261746f7273206861766520746865207065726d\n        /* \"#utility.yul\":14171:14172   */\n      0x00\n        /* \"#utility.yul\":14163:14169   */\n      dup3\n        /* \"#utility.yul\":14159:14173   */\n      add\n        /* \"#utility.yul\":14152:14210   */\n      mstore\n        /* \"#utility.yul\":14244:14252   */\n      0x697373696f6e0000000000000000000000000000000000000000000000000000\n        /* \"#utility.yul\":14239:14241   */\n      0x20\n        /* \"#utility.yul\":14231:14237   */\n      dup3\n        /* \"#utility.yul\":14227:14242   */\n      add\n        /* \"#utility.yul\":14220:14253   */\n      mstore\n        /* \"#utility.yul\":14035:14260   */\n      pop\n      jump\t// out\n        /* \"#utility.yul\":14266:14495   */\n    tag_234:\n        /* \"#utility.yul\":14406:14440   */\n      0x6f6e6c792074686520696e69746961746f722063616e2063616e63656c207468\n        /* \"#utility.yul\":14402:14403   */\n      0x00\n        /* \"#utility.yul\":14394:14400   */\n      dup3\n        /* \"#utility.yul\":14390:14404   */\n      add\n        /* \"#utility.yul\":14383:14441   */\n      mstore\n        /* \"#utility.yul\":14475:14487   */\n      0x69732070726f6365737300000000000000000000000000000000000000000000\n        /* \"#utility.yul\":14470:14472   */\n      0x20\n        /* \"#utility.yul\":14462:14468   */\n      dup3\n        /* \"#utility.yul\":14458:14473   */\n      add\n        /* \"#utility.yul\":14451:14488   */\n      mstore\n        /* \"#utility.yul\":14266:14495   */\n      pop\n      jump\t// out\n        /* \"#utility.yul\":14501:14732   */\n    tag_239:\n        /* \"#utility.yul\":14641:14675   */\n      0x77697468647261772062616c616e636520636f756c64206e6f74206d6f726520\n        /* \"#utility.yul\":14637:14638   */\n      0x00\n        /* \"#utility.yul\":14629:14635   */\n      dup3\n        /* \"#utility.yul\":14625:14639   */\n      add\n        /* \"#utility.yul\":14618:14676   */\n      mstore\n        /* \"#utility.yul\":14710:14724   */\n      0x7468616e2062616c616e63650000000000000000000000000000000000000000\n        /* \"#utility.yul\":14705:14707   */\n      0x20\n        /* \"#utility.yul\":14697:14703   */\n      dup3\n        /* \"#utility.yul\":14693:14708   */\n      add\n        /* \"#utility.yul\":14686:14725   */\n      mstore\n        /* \"#utility.yul\":14501:14732   */\n      pop\n      jump\t// out\n        /* \"#utility.yul\":14738:14876   */\n    tag_173:\n        /* \"#utility.yul\":14819:14851   */\n      tag_315\n        /* \"#utility.yul\":14845:14850   */\n      dup2\n        /* \"#utility.yul\":14819:14851   */\n      tag_282\n      jump\t// in\n    tag_315:\n        /* \"#utility.yul\":14812:14817   */\n      dup2\n        /* \"#utility.yul\":14809:14852   */\n      eq\n        /* \"#utility.yul\":14799:14870   */\n      tag_316\n      jumpi\n        /* \"#utility.yul\":14866:14867   */\n      0x00\n        /* \"#utility.yul\":14863:14864   */\n      dup1\n        /* \"#utility.yul\":14856:14868   */\n      revert\n        /* \"#utility.yul\":14799:14870   */\n    tag_316:\n        /* \"#utility.yul\":14738:14876   */\n      pop\n      jump\t// out\n        /* \"#utility.yul\":14882:15004   */\n    tag_177:\n        /* \"#utility.yul\":14955:14979   */\n      tag_318\n        /* \"#utility.yul\":14973:14978   */\n      dup2\n        /* \"#utility.yul\":14955:14979   */\n      tag_243\n      jump\t// in\n    tag_318:\n        /* \"#utility.yul\":14948:14953   */\n      dup2\n        /* \"#utility.yul\":14945:14980   */\n      eq\n        /* \"#utility.yul\":14935:14998   */\n      tag_319\n      jumpi\n        /* \"#utility.yul\":14994:14995   */\n      0x00\n        /* \"#utility.yul\":14991:14992   */\n      dup1\n        /* \"#utility.yul\":14984:14996   */\n      revert\n        /* \"#utility.yul\":14935:14998   */\n    tag_319:\n        /* \"#utility.yul\":14882:15004   */\n      pop\n      jump\t// out\n\n    auxdata: 0xa26469706673582212204f88c10089e597157e1ff33fb3bd3d6fa82be610e2c109cee9405007810446a364736f6c63430008070033\n}\n",
				"bytecode": {
					"linkReferences": {},
					"object": "60806040523480156200001157600080fd5b506040516200208a3803806200208a833981810160405281019062000037919062000484565b33600160006101000a81548173ffffffffffffffffffffffffffffffffffffffff021916908373ffffffffffffffffffffffffffffffffffffffff1602179055506000825111620000bf576040517f08c379a0000000000000000000000000000000000000000000000000000000008152600401620000b6906200055f565b60405180910390fd5b620000cf620001a760201b60201c565b62000111576040517f08c379a0000000000000000000000000000000000000000000000000000000008152600401620001089062000581565b60405180910390fd5b60008160ff1611801562000129575081518160ff1611155b6200016b576040517f08c379a00000000000000000000000000000000000000000000000000000000081526004016200016290620005a3565b60405180910390fd5b816002908051906020019062000183929190620002fa565b5080600360006101000a81548160ff021916908360ff16021790555050506200098e565b6000806000905060005b600280549050811015620002f1576001600280549050620001d391906200068b565b811415620001e157620002f1565b6000600182620001f291906200062e565b90505b600280549050811015620002da57600281815481106200021a5762000219620007c4565b5b9060005260206000200160009054906101000a900473ffffffffffffffffffffffffffffffffffffffff1673ffffffffffffffffffffffffffffffffffffffff1660028381548110620002725762000271620007c4565b5b9060005260206000200160009054906101000a900473ffffffffffffffffffffffffffffffffffffffff1673ffffffffffffffffffffffffffffffffffffffff161415620002c45760019250620002da565b8080620002d19062000747565b915050620001f5565b508080620002e89062000747565b915050620001b1565b50801591505090565b82805482825590600052602060002090810192821562000376579160200282015b82811115620003755782518260006101000a81548173ffffffffffffffffffffffffffffffffffffffff021916908373ffffffffffffffffffffffffffffffffffffffff160217905550916020019190600101906200031b565b5b50905062000385919062000389565b5090565b5b80821115620003a45760008160009055506001016200038a565b5090565b6000620003bf620003b984620005ee565b620005c5565b90508083825260208201905082856020860282011115620003e557620003e462000827565b5b60005b85811015620004195781620003fe888262000423565b845260208401935060208301925050600181019050620003e8565b5050509392505050565b60008151905062000434816200095a565b92915050565b600082601f83011262000452576200045162000822565b5b815162000464848260208601620003a8565b91505092915050565b6000815190506200047e8162000974565b92915050565b600080604083850312156200049e576200049d62000831565b5b600083015167ffffffffffffffff811115620004bf57620004be6200082c565b5b620004cd858286016200043a565b9250506020620004e0858286016200046d565b9150509250929050565b6000620004f96024836200061d565b9150620005068262000847565b604082019050919050565b6000620005206027836200061d565b91506200052d8262000896565b604082019050919050565b6000620005476050836200061d565b91506200055482620008e5565b606082019050919050565b600060208201905081810360008301526200057a81620004ea565b9050919050565b600060208201905081810360008301526200059c8162000511565b9050919050565b60006020820190508181036000830152620005be8162000538565b9050919050565b6000620005d1620005e4565b9050620005df828262000711565b919050565b6000604051905090565b600067ffffffffffffffff8211156200060c576200060b620007f3565b5b602082029050602081019050919050565b600082825260208201905092915050565b60006200063b82620006fa565b91506200064883620006fa565b9250827fffffffffffffffffffffffffffffffffffffffffffffffffffffffffffffffff0382111562000680576200067f62000795565b5b828201905092915050565b60006200069882620006fa565b9150620006a583620006fa565b925082821015620006bb57620006ba62000795565b5b828203905092915050565b6000620006d382620006da565b9050919050565b600073ffffffffffffffffffffffffffffffffffffffff82169050919050565b6000819050919050565b600060ff82169050919050565b6200071c8262000836565b810181811067ffffffffffffffff821117156200073e576200073d620007f3565b5b80604052505050565b60006200075482620006fa565b91507fffffffffffffffffffffffffffffffffffffffffffffffffffffffffffffffff8214156200078a576200078962000795565b5b600182019050919050565b7f4e487b7100000000000000000000000000000000000000000000000000000000600052601160045260246000fd5b7f4e487b7100000000000000000000000000000000000000000000000000000000600052603260045260246000fd5b7f4e487b7100000000000000000000000000000000000000000000000000000000600052604160045260246000fd5b600080fd5b600080fd5b600080fd5b600080fd5b6000601f19601f8301169050919050565b7f616c6c20636f6c6c61626f7261746f727320636f756e74206174206c6561737460008201527f206f6e6500000000000000000000000000000000000000000000000000000000602082015250565b7f74686520636f6c6c61626f7261746f7273206d757374206e6f2062652064757060008201527f6c69636174656400000000000000000000000000000000000000000000000000602082015250565b7f6174206c65617374207369676e20636f756e74206d757374206d6f726520746860008201527f616e203020616e64206c657373207468616e206f7220657175616c7320636f6c60208201527f6c61626f7261746f727320636f756e7400000000000000000000000000000000604082015250565b6200096581620006c6565b81146200097157600080fd5b50565b6200097f8162000704565b81146200098b57600080fd5b50565b6116ec806200099e6000396000f3fe60806040526004361061006f5760003560e01c806368a1376b1161004e57806368a1376b146100cb578063b517e0b4146100d5578063b69ef8a8146100ec578063ca3ea43f146101175761006f565b80623bdf3e146100745780631535430b1461009d578063352ce050146100b4575b600080fd5b34801561008057600080fd5b5061009b60048036038101906100969190610e44565b610142565b005b3480156100a957600080fd5b506100b2610373565b005b3480156100c057600080fd5b506100c961068e565b005b6100d36108e0565b005b3480156100e157600080fd5b506100ea61093d565b005b3480156100f857600080fd5b50610101610a1e565b60405161010e9190611174565b60405180910390f35b34801561012357600080fd5b5061012c610a24565b6040516101399190611174565b60405180910390f35b61014a610a2a565b610189576040517f08c379a000000000000000000000000000000000000000000000000000000000815260040161018090611114565b60405180910390fd5b6000600454146101ce576040517f08c379a00000000000000000000000000000000000000000000000000000000081526004016101c5906110f4565b60405180910390fd5b600054821115610213576040517f08c379a000000000000000000000000000000000000000000000000000000000815260040161020a90611154565b60405180910390fd5b600073ffffffffffffffffffffffffffffffffffffffff168173ffffffffffffffffffffffffffffffffffffffff161415610283576040517f08c379a000000000000000000000000000000000000000000000000000000000815260040161027a90611074565b60405180910390fd5b33600660006101000a81548173ffffffffffffffffffffffffffffffffffffffff021916908373ffffffffffffffffffffffffffffffffffffffff1602179055508160048190555080600560006101000a81548173ffffffffffffffffffffffffffffffffffffffff021916908373ffffffffffffffffffffffffffffffffffffffff1602179055506007339080600181540180825580915050600190039060005260206000200160009091909190916101000a81548173ffffffffffffffffffffffffffffffffffffffff021916908373ffffffffffffffffffffffffffffffffffffffff1602179055505050565b61037b610a2a565b6103ba576040517f08c379a00000000000000000000000000000000000000000000000000000000081526004016103b190611114565b60405180910390fd5b600660009054906101000a900473ffffffffffffffffffffffffffffffffffffffff1673ffffffffffffffffffffffffffffffffffffffff163373ffffffffffffffffffffffffffffffffffffffff16141561044b576040517f08c379a000000000000000000000000000000000000000000000000000000000815260040161044290611034565b60405180910390fd5b6104db60088054806020026020016040519081016040528092919081815260200182805480156104d057602002820191906000526020600020905b8160009054906101000a900473ffffffffffffffffffffffffffffffffffffffff1673ffffffffffffffffffffffffffffffffffffffff1681526020019060010190808311610486575b505050505033610ac1565b1561051b576040517f08c379a000000000000000000000000000000000000000000000000000000000815260040161051290611054565b60405180910390fd5b600060045411610560576040517f08c379a000000000000000000000000000000000000000000000000000000000815260040161055790611014565b60405180910390fd5b6008339080600181540180825580915050600190039060005260206000200160009091909190916101000a81548173ffffffffffffffffffffffffffffffffffffffff021916908373ffffffffffffffffffffffffffffffffffffffff1602179055506000805b60088054905081101561066857600073ffffffffffffffffffffffffffffffffffffffff1660088281548110610600576105ff611315565b5b9060005260206000200160009054906101000a900473ffffffffffffffffffffffffffffffffffffffff1673ffffffffffffffffffffffffffffffffffffffff161461065557818061065190611273565b9250505b808061066090611273565b9150506105c7565b50600160028054905061067b91906111f6565b81141561068b5761068a610b49565b5b50565b610696610a2a565b6106d5576040517f08c379a00000000000000000000000000000000000000000000000000000000081526004016106cc90611114565b60405180910390fd5b60006004541161071a576040517f08c379a000000000000000000000000000000000000000000000000000000000815260040161071190611094565b60405180910390fd5b610722610bb9565b15610762576040517f08c379a0000000000000000000000000000000000000000000000000000000008152600401610759906110b4565b60405180910390fd5b6007339080600181540180825580915050600190039060005260206000200160009091909190916101000a81548173ffffffffffffffffffffffffffffffffffffffff021916908373ffffffffffffffffffffffffffffffffffffffff1602179055506107cd610c50565b156108de57600060045490506000600481905550600560009054906101000a900473ffffffffffffffffffffffffffffffffffffffff1673ffffffffffffffffffffffffffffffffffffffff166108fc829081150290604051600060405180830381858888f19350505050158015610849573d6000803e3d6000fd5b508060005461085891906111f6565b6000819055506009600081548092919061087190611273565b9190505550600560006101000a81549073ffffffffffffffffffffffffffffffffffffffff0219169055600760006108a99190610ddc565b600660006101000a81549073ffffffffffffffffffffffffffffffffffffffff0219169055600860006108dc9190610ddc565b505b565b60003411610923576040517f08c379a000000000000000000000000000000000000000000000000000000000815260040161091a906110d4565b60405180910390fd5b3460008082825461093491906111a0565b92505081905550565b610945610a2a565b610984576040517f08c379a000000000000000000000000000000000000000000000000000000000815260040161097b90611114565b60405180910390fd5b600660009054906101000a900473ffffffffffffffffffffffffffffffffffffffff1673ffffffffffffffffffffffffffffffffffffffff163373ffffffffffffffffffffffffffffffffffffffff1614610a14576040517f08c379a0000000000000000000000000000000000000000000000000000000008152600401610a0b90611134565b60405180910390fd5b610a1c610b49565b565b60005481565b60095481565b6000610abc6002805480602002602001604051908101604052809291908181526020018280548015610ab157602002820191906000526020600020905b8160009054906101000a900473ffffffffffffffffffffffffffffffffffffffff1673ffffffffffffffffffffffffffffffffffffffff1681526020019060010190808311610a67575b505050505033610ac1565b905090565b6000806000905060005b8451811015610b3e578373ffffffffffffffffffffffffffffffffffffffff16858281518110610afe57610afd611315565b5b602002602001015173ffffffffffffffffffffffffffffffffffffffff161415610b2b5760019150610b3e565b8080610b3690611273565b915050610acb565b508091505092915050565b600660006101000a81549073ffffffffffffffffffffffffffffffffffffffff0219169055600560006101000a81549073ffffffffffffffffffffffffffffffffffffffff0219169055600060048190555060076000610ba99190610ddc565b60086000610bb79190610ddc565b565b6000610c4b6007805480602002602001604051908101604052809291908181526020018280548015610c4057602002820191906000526020600020905b8160009054906101000a900473ffffffffffffffffffffffffffffffffffffffff1673ffffffffffffffffffffffffffffffffffffffff1681526020019060010190808311610bf6575b505050505033610ac1565b905090565b6000806007805480602002602001604051908101604052809291908181526020018280548015610cd557602002820191906000526020600020905b8160009054906101000a900473ffffffffffffffffffffffffffffffffffffffff1673ffffffffffffffffffffffffffffffffffffffff1681526020019060010190808311610c8b575b505050505090506000805b8251811015610dbb5760005b600280549050811015610da757838281518110610d0c57610d0b611315565b5b602002602001015173ffffffffffffffffffffffffffffffffffffffff1660028281548110610d3e57610d3d611315565b5b9060005260206000200160009054906101000a900473ffffffffffffffffffffffffffffffffffffffff1673ffffffffffffffffffffffffffffffffffffffff161415610d94578280610d90906112bc565b9350505b8080610d9f90611273565b915050610cec565b508080610db390611273565b915050610ce0565b50600360009054906101000a900460ff1660ff168160ff1610159250505090565b5080546000825590600052602060002090810190610dfa9190610dfd565b50565b5b80821115610e16576000816000905550600101610dfe565b5090565b600081359050610e2981611688565b92915050565b600081359050610e3e8161169f565b92915050565b60008060408385031215610e5b57610e5a611344565b5b6000610e6985828601610e2f565b9250506020610e7a85828601610e1a565b9150509250929050565b6000610e91602f8361118f565b9150610e9c82611349565b604082019050919050565b6000610eb4603a8361118f565b9150610ebf82611398565b604082019050919050565b6000610ed7602e8361118f565b9150610ee2826113e7565b604082019050919050565b6000610efa60158361118f565b9150610f0582611436565b602082019050919050565b6000610f1d602c8361118f565b9150610f288261145f565b604082019050919050565b6000610f4060388361118f565b9150610f4b826114ae565b604082019050919050565b6000610f6360588361118f565b9150610f6e826114fd565b606082019050919050565b6000610f86601d8361118f565b9150610f9182611572565b602082019050919050565b6000610fa960268361118f565b9150610fb48261159b565b604082019050919050565b6000610fcc602a8361118f565b9150610fd7826115ea565b604082019050919050565b6000610fef602c8361118f565b9150610ffa82611639565b604082019050919050565b61100e8161125c565b82525050565b6000602082019050818103600083015261102d81610e84565b9050919050565b6000602082019050818103600083015261104d81610ea7565b9050919050565b6000602082019050818103600083015261106d81610eca565b9050919050565b6000602082019050818103600083015261108d81610eed565b9050919050565b600060208201905081810360008301526110ad81610f10565b9050919050565b600060208201905081810360008301526110cd81610f33565b9050919050565b600060208201905081810360008301526110ed81610f56565b9050919050565b6000602082019050818103600083015261110d81610f79565b9050919050565b6000602082019050818103600083015261112d81610f9c565b9050919050565b6000602082019050818103600083015261114d81610fbf565b9050919050565b6000602082019050818103600083015261116d81610fe2565b9050919050565b60006020820190506111896000830184611005565b92915050565b600082825260208201905092915050565b60006111ab8261125c565b91506111b68361125c565b9250827fffffffffffffffffffffffffffffffffffffffffffffffffffffffffffffffff038211156111eb576111ea6112e6565b5b828201905092915050565b60006112018261125c565b915061120c8361125c565b92508282101561121f5761121e6112e6565b5b828203905092915050565b60006112358261123c565b9050919050565b600073ffffffffffffffffffffffffffffffffffffffff82169050919050565b6000819050919050565b600060ff82169050919050565b600061127e8261125c565b91507fffffffffffffffffffffffffffffffffffffffffffffffffffffffffffffffff8214156112b1576112b06112e6565b5b600182019050919050565b60006112c782611266565b915060ff8214156112db576112da6112e6565b5b600182019050919050565b7f4e487b7100000000000000000000000000000000000000000000000000000000600052601160045260246000fd5b7f4e487b7100000000000000000000000000000000000000000000000000000000600052603260045260246000fd5b600080fd5b7f74686572652069736e277420616e792077697468647277616c7320776169742060008201527f666f722063616e63656c6174696f6e0000000000000000000000000000000000602082015250565b7f6f6e6c792074686520636f756e746572207061727479206f6620696e6974696160008201527f746f722063616e2063616c6c20746869732066756e6374696f6e000000000000602082015250565b7f796f752068617665207369676e656420666f722063616e63656c6c6174696f6e60008201527f2c20646f6e277420726570656174000000000000000000000000000000000000602082015250565b7f696e76616c696420746172676574416464726573730000000000000000000000600082015250565b7f7468657265206973206e6f20776974686472617720616374696f6e207761697460008201527f696e6720666f72207369676e0000000000000000000000000000000000000000602082015250565b7f796f752068617665207369676e6564207468697320776974686472617720707260008201527f6f636573732c20706c7a20646f6e2774207265706561742e0000000000000000602082015250565b7f544f50494e206d757374206d6f7265207468616e2030207765692c20696e646560008201527f656420746865206761732066656520646f206e6f74206465637265617365206960208201527f6620796f7520746f70696e2061206c6f772076616c75652e0000000000000000604082015250565b7f7072652070726f6365737320686173206e6f74206265656e206f766572000000600082015250565b7f6f6e6c7920636f6c6c61626f7261746f7273206861766520746865207065726d60008201527f697373696f6e0000000000000000000000000000000000000000000000000000602082015250565b7f6f6e6c792074686520696e69746961746f722063616e2063616e63656c20746860008201527f69732070726f6365737300000000000000000000000000000000000000000000602082015250565b7f77697468647261772062616c616e636520636f756c64206e6f74206d6f72652060008201527f7468616e2062616c616e63650000000000000000000000000000000000000000602082015250565b6116918161122a565b811461169c57600080fd5b50565b6116a88161125c565b81146116b357600080fd5b5056fea26469706673582212204f88c10089e597157e1ff33fb3bd3d6fa82be610e2c109cee9405007810446a364736f6c63430008070033",
					"opcodes": "PUSH1 0x80 PUSH1 0x40 MSTORE CALLVALUE DUP1 ISZERO PUSH3 0x11 JUMPI PUSH1 0x0 DUP1 REVERT JUMPDEST POP PUSH1 0x40 MLOAD PUSH3 0x208A CODESIZE SUB DUP1 PUSH3 0x208A DUP4 CODECOPY DUP2 DUP2 ADD PUSH1 0x40 MSTORE DUP2 ADD SWAP1 PUSH3 0x37 SWAP2 SWAP1 PUSH3 0x484 JUMP JUMPDEST CALLER PUSH1 0x1 PUSH1 0x0 PUSH2 0x100 EXP DUP2 SLOAD DUP2 PUSH20 0xFFFFFFFFFFFFFFFFFFFFFFFFFFFFFFFFFFFFFFFF MUL NOT AND SWAP1 DUP4 PUSH20 0xFFFFFFFFFFFFFFFFFFFFFFFFFFFFFFFFFFFFFFFF AND MUL OR SWAP1 SSTORE POP PUSH1 0x0 DUP3 MLOAD GT PUSH3 0xBF JUMPI PUSH1 0x40 MLOAD PUSH32 0x8C379A000000000000000000000000000000000000000000000000000000000 DUP2 MSTORE PUSH1 0x4 ADD PUSH3 0xB6 SWAP1 PUSH3 0x55F JUMP JUMPDEST PUSH1 0x40 MLOAD DUP1 SWAP2 SUB SWAP1 REVERT JUMPDEST PUSH3 0xCF PUSH3 0x1A7 PUSH1 0x20 SHL PUSH1 0x20 SHR JUMP JUMPDEST PUSH3 0x111 JUMPI PUSH1 0x40 MLOAD PUSH32 0x8C379A000000000000000000000000000000000000000000000000000000000 DUP2 MSTORE PUSH1 0x4 ADD PUSH3 0x108 SWAP1 PUSH3 0x581 JUMP JUMPDEST PUSH1 0x40 MLOAD DUP1 SWAP2 SUB SWAP1 REVERT JUMPDEST PUSH1 0x0 DUP2 PUSH1 0xFF AND GT DUP1 ISZERO PUSH3 0x129 JUMPI POP DUP2 MLOAD DUP2 PUSH1 0xFF AND GT ISZERO JUMPDEST PUSH3 0x16B JUMPI PUSH1 0x40 MLOAD PUSH32 0x8C379A000000000000000000000000000000000000000000000000000000000 DUP2 MSTORE PUSH1 0x4 ADD PUSH3 0x162 SWAP1 PUSH3 0x5A3 JUMP JUMPDEST PUSH1 0x40 MLOAD DUP1 SWAP2 SUB SWAP1 REVERT JUMPDEST DUP2 PUSH1 0x2 SWAP1 DUP1 MLOAD SWAP1 PUSH1 0x20 ADD SWAP1 PUSH3 0x183 SWAP3 SWAP2 SWAP1 PUSH3 0x2FA JUMP JUMPDEST POP DUP1 PUSH1 0x3 PUSH1 0x0 PUSH2 0x100 EXP DUP2 SLOAD DUP2 PUSH1 0xFF MUL NOT AND SWAP1 DUP4 PUSH1 0xFF AND MUL OR SWAP1 SSTORE POP POP POP PUSH3 0x98E JUMP JUMPDEST PUSH1 0x0 DUP1 PUSH1 0x0 SWAP1 POP PUSH1 0x0 JUMPDEST PUSH1 0x2 DUP1 SLOAD SWAP1 POP DUP2 LT ISZERO PUSH3 0x2F1 JUMPI PUSH1 0x1 PUSH1 0x2 DUP1 SLOAD SWAP1 POP PUSH3 0x1D3 SWAP2 SWAP1 PUSH3 0x68B JUMP JUMPDEST DUP2 EQ ISZERO PUSH3 0x1E1 JUMPI PUSH3 0x2F1 JUMP JUMPDEST PUSH1 0x0 PUSH1 0x1 DUP3 PUSH3 0x1F2 SWAP2 SWAP1 PUSH3 0x62E JUMP JUMPDEST SWAP1 POP JUMPDEST PUSH1 0x2 DUP1 SLOAD SWAP1 POP DUP2 LT ISZERO PUSH3 0x2DA JUMPI PUSH1 0x2 DUP2 DUP2 SLOAD DUP2 LT PUSH3 0x21A JUMPI PUSH3 0x219 PUSH3 0x7C4 JUMP JUMPDEST JUMPDEST SWAP1 PUSH1 0x0 MSTORE PUSH1 0x20 PUSH1 0x0 KECCAK256 ADD PUSH1 0x0 SWAP1 SLOAD SWAP1 PUSH2 0x100 EXP SWAP1 DIV PUSH20 0xFFFFFFFFFFFFFFFFFFFFFFFFFFFFFFFFFFFFFFFF AND PUSH20 0xFFFFFFFFFFFFFFFFFFFFFFFFFFFFFFFFFFFFFFFF AND PUSH1 0x2 DUP4 DUP2 SLOAD DUP2 LT PUSH3 0x272 JUMPI PUSH3 0x271 PUSH3 0x7C4 JUMP JUMPDEST JUMPDEST SWAP1 PUSH1 0x0 MSTORE PUSH1 0x20 PUSH1 0x0 KECCAK256 ADD PUSH1 0x0 SWAP1 SLOAD SWAP1 PUSH2 0x100 EXP SWAP1 DIV PUSH20 0xFFFFFFFFFFFFFFFFFFFFFFFFFFFFFFFFFFFFFFFF AND PUSH20 0xFFFFFFFFFFFFFFFFFFFFFFFFFFFFFFFFFFFFFFFF AND EQ ISZERO PUSH3 0x2C4 JUMPI PUSH1 0x1 SWAP3 POP PUSH3 0x2DA JUMP JUMPDEST DUP1 DUP1 PUSH3 0x2D1 SWAP1 PUSH3 0x747 JUMP JUMPDEST SWAP2 POP POP PUSH3 0x1F5 JUMP JUMPDEST POP DUP1 DUP1 PUSH3 0x2E8 SWAP1 PUSH3 0x747 JUMP JUMPDEST SWAP2 POP POP PUSH3 0x1B1 JUMP JUMPDEST POP DUP1 ISZERO SWAP2 POP POP SWAP1 JUMP JUMPDEST DUP3 DUP1 SLOAD DUP3 DUP3 SSTORE SWAP1 PUSH1 0x0 MSTORE PUSH1 0x20 PUSH1 0x0 KECCAK256 SWAP1 DUP2 ADD SWAP3 DUP3 ISZERO PUSH3 0x376 JUMPI SWAP2 PUSH1 0x20 MUL DUP3 ADD JUMPDEST DUP3 DUP2 GT ISZERO PUSH3 0x375 JUMPI DUP3 MLOAD DUP3 PUSH1 0x0 PUSH2 0x100 EXP DUP2 SLOAD DUP2 PUSH20 0xFFFFFFFFFFFFFFFFFFFFFFFFFFFFFFFFFFFFFFFF MUL NOT AND SWAP1 DUP4 PUSH20 0xFFFFFFFFFFFFFFFFFFFFFFFFFFFFFFFFFFFFFFFF AND MUL OR SWAP1 SSTORE POP SWAP2 PUSH1 0x20 ADD SWAP2 SWAP1 PUSH1 0x1 ADD SWAP1 PUSH3 0x31B JUMP JUMPDEST JUMPDEST POP SWAP1 POP PUSH3 0x385 SWAP2 SWAP1 PUSH3 0x389 JUMP JUMPDEST POP SWAP1 JUMP JUMPDEST JUMPDEST DUP1 DUP3 GT ISZERO PUSH3 0x3A4 JUMPI PUSH1 0x0 DUP2 PUSH1 0x0 SWAP1 SSTORE POP PUSH1 0x1 ADD PUSH3 0x38A JUMP JUMPDEST POP SWAP1 JUMP JUMPDEST PUSH1 0x0 PUSH3 0x3BF PUSH3 0x3B9 DUP5 PUSH3 0x5EE JUMP JUMPDEST PUSH3 0x5C5 JUMP JUMPDEST SWAP1 POP DUP1 DUP4 DUP3 MSTORE PUSH1 0x20 DUP3 ADD SWAP1 POP DUP3 DUP6 PUSH1 0x20 DUP7 MUL DUP3 ADD GT ISZERO PUSH3 0x3E5 JUMPI PUSH3 0x3E4 PUSH3 0x827 JUMP JUMPDEST JUMPDEST PUSH1 0x0 JUMPDEST DUP6 DUP2 LT ISZERO PUSH3 0x419 JUMPI DUP2 PUSH3 0x3FE DUP9 DUP3 PUSH3 0x423 JUMP JUMPDEST DUP5 MSTORE PUSH1 0x20 DUP5 ADD SWAP4 POP PUSH1 0x20 DUP4 ADD SWAP3 POP POP PUSH1 0x1 DUP2 ADD SWAP1 POP PUSH3 0x3E8 JUMP JUMPDEST POP POP POP SWAP4 SWAP3 POP POP POP JUMP JUMPDEST PUSH1 0x0 DUP2 MLOAD SWAP1 POP PUSH3 0x434 DUP2 PUSH3 0x95A JUMP JUMPDEST SWAP3 SWAP2 POP POP JUMP JUMPDEST PUSH1 0x0 DUP3 PUSH1 0x1F DUP4 ADD SLT PUSH3 0x452 JUMPI PUSH3 0x451 PUSH3 0x822 JUMP JUMPDEST JUMPDEST DUP2 MLOAD PUSH3 0x464 DUP5 DUP3 PUSH1 0x20 DUP7 ADD PUSH3 0x3A8 JUMP JUMPDEST SWAP2 POP POP SWAP3 SWAP2 POP POP JUMP JUMPDEST PUSH1 0x0 DUP2 MLOAD SWAP1 POP PUSH3 0x47E DUP2 PUSH3 0x974 JUMP JUMPDEST SWAP3 SWAP2 POP POP JUMP JUMPDEST PUSH1 0x0 DUP1 PUSH1 0x40 DUP4 DUP6 SUB SLT ISZERO PUSH3 0x49E JUMPI PUSH3 0x49D PUSH3 0x831 JUMP JUMPDEST JUMPDEST PUSH1 0x0 DUP4 ADD MLOAD PUSH8 0xFFFFFFFFFFFFFFFF DUP2 GT ISZERO PUSH3 0x4BF JUMPI PUSH3 0x4BE PUSH3 0x82C JUMP JUMPDEST JUMPDEST PUSH3 0x4CD DUP6 DUP3 DUP7 ADD PUSH3 0x43A JUMP JUMPDEST SWAP3 POP POP PUSH1 0x20 PUSH3 0x4E0 DUP6 DUP3 DUP7 ADD PUSH3 0x46D JUMP JUMPDEST SWAP2 POP POP SWAP3 POP SWAP3 SWAP1 POP JUMP JUMPDEST PUSH1 0x0 PUSH3 0x4F9 PUSH1 0x24 DUP4 PUSH3 0x61D JUMP JUMPDEST SWAP2 POP PUSH3 0x506 DUP3 PUSH3 0x847 JUMP JUMPDEST PUSH1 0x40 DUP3 ADD SWAP1 POP SWAP2 SWAP1 POP JUMP JUMPDEST PUSH1 0x0 PUSH3 0x520 PUSH1 0x27 DUP4 PUSH3 0x61D JUMP JUMPDEST SWAP2 POP PUSH3 0x52D DUP3 PUSH3 0x896 JUMP JUMPDEST PUSH1 0x40 DUP3 ADD SWAP1 POP SWAP2 SWAP1 POP JUMP JUMPDEST PUSH1 0x0 PUSH3 0x547 PUSH1 0x50 DUP4 PUSH3 0x61D JUMP JUMPDEST SWAP2 POP PUSH3 0x554 DUP3 PUSH3 0x8E5 JUMP JUMPDEST PUSH1 0x60 DUP3 ADD SWAP1 POP SWAP2 SWAP1 POP JUMP JUMPDEST PUSH1 0x0 PUSH1 0x20 DUP3 ADD SWAP1 POP DUP2 DUP2 SUB PUSH1 0x0 DUP4 ADD MSTORE PUSH3 0x57A DUP2 PUSH3 0x4EA JUMP JUMPDEST SWAP1 POP SWAP2 SWAP1 POP JUMP JUMPDEST PUSH1 0x0 PUSH1 0x20 DUP3 ADD SWAP1 POP DUP2 DUP2 SUB PUSH1 0x0 DUP4 ADD MSTORE PUSH3 0x59C DUP2 PUSH3 0x511 JUMP JUMPDEST SWAP1 POP SWAP2 SWAP1 POP JUMP JUMPDEST PUSH1 0x0 PUSH1 0x20 DUP3 ADD SWAP1 POP DUP2 DUP2 SUB PUSH1 0x0 DUP4 ADD MSTORE PUSH3 0x5BE DUP2 PUSH3 0x538 JUMP JUMPDEST SWAP1 POP SWAP2 SWAP1 POP JUMP JUMPDEST PUSH1 0x0 PUSH3 0x5D1 PUSH3 0x5E4 JUMP JUMPDEST SWAP1 POP PUSH3 0x5DF DUP3 DUP3 PUSH3 0x711 JUMP JUMPDEST SWAP2 SWAP1 POP JUMP JUMPDEST PUSH1 0x0 PUSH1 0x40 MLOAD SWAP1 POP SWAP1 JUMP JUMPDEST PUSH1 0x0 PUSH8 0xFFFFFFFFFFFFFFFF DUP3 GT ISZERO PUSH3 0x60C JUMPI PUSH3 0x60B PUSH3 0x7F3 JUMP JUMPDEST JUMPDEST PUSH1 0x20 DUP3 MUL SWAP1 POP PUSH1 0x20 DUP2 ADD SWAP1 POP SWAP2 SWAP1 POP JUMP JUMPDEST PUSH1 0x0 DUP3 DUP3 MSTORE PUSH1 0x20 DUP3 ADD SWAP1 POP SWAP3 SWAP2 POP POP JUMP JUMPDEST PUSH1 0x0 PUSH3 0x63B DUP3 PUSH3 0x6FA JUMP JUMPDEST SWAP2 POP PUSH3 0x648 DUP4 PUSH3 0x6FA JUMP JUMPDEST SWAP3 POP DUP3 PUSH32 0xFFFFFFFFFFFFFFFFFFFFFFFFFFFFFFFFFFFFFFFFFFFFFFFFFFFFFFFFFFFFFFFF SUB DUP3 GT ISZERO PUSH3 0x680 JUMPI PUSH3 0x67F PUSH3 0x795 JUMP JUMPDEST JUMPDEST DUP3 DUP3 ADD SWAP1 POP SWAP3 SWAP2 POP POP JUMP JUMPDEST PUSH1 0x0 PUSH3 0x698 DUP3 PUSH3 0x6FA JUMP JUMPDEST SWAP2 POP PUSH3 0x6A5 DUP4 PUSH3 0x6FA JUMP JUMPDEST SWAP3 POP DUP3 DUP3 LT ISZERO PUSH3 0x6BB JUMPI PUSH3 0x6BA PUSH3 0x795 JUMP JUMPDEST JUMPDEST DUP3 DUP3 SUB SWAP1 POP SWAP3 SWAP2 POP POP JUMP JUMPDEST PUSH1 0x0 PUSH3 0x6D3 DUP3 PUSH3 0x6DA JUMP JUMPDEST SWAP1 POP SWAP2 SWAP1 POP JUMP JUMPDEST PUSH1 0x0 PUSH20 0xFFFFFFFFFFFFFFFFFFFFFFFFFFFFFFFFFFFFFFFF DUP3 AND SWAP1 POP SWAP2 SWAP1 POP JUMP JUMPDEST PUSH1 0x0 DUP2 SWAP1 POP SWAP2 SWAP1 POP JUMP JUMPDEST PUSH1 0x0 PUSH1 0xFF DUP3 AND SWAP1 POP SWAP2 SWAP1 POP JUMP JUMPDEST PUSH3 0x71C DUP3 PUSH3 0x836 JUMP JUMPDEST DUP2 ADD DUP2 DUP2 LT PUSH8 0xFFFFFFFFFFFFFFFF DUP3 GT OR ISZERO PUSH3 0x73E JUMPI PUSH3 0x73D PUSH3 0x7F3 JUMP JUMPDEST JUMPDEST DUP1 PUSH1 0x40 MSTORE POP POP POP JUMP JUMPDEST PUSH1 0x0 PUSH3 0x754 DUP3 PUSH3 0x6FA JUMP JUMPDEST SWAP2 POP PUSH32 0xFFFFFFFFFFFFFFFFFFFFFFFFFFFFFFFFFFFFFFFFFFFFFFFFFFFFFFFFFFFFFFFF DUP3 EQ ISZERO PUSH3 0x78A JUMPI PUSH3 0x789 PUSH3 0x795 JUMP JUMPDEST JUMPDEST PUSH1 0x1 DUP3 ADD SWAP1 POP SWAP2 SWAP1 POP JUMP JUMPDEST PUSH32 0x4E487B7100000000000000000000000000000000000000000000000000000000 PUSH1 0x0 MSTORE PUSH1 0x11 PUSH1 0x4 MSTORE PUSH1 0x24 PUSH1 0x0 REVERT JUMPDEST PUSH32 0x4E487B7100000000000000000000000000000000000000000000000000000000 PUSH1 0x0 MSTORE PUSH1 0x32 PUSH1 0x4 MSTORE PUSH1 0x24 PUSH1 0x0 REVERT JUMPDEST PUSH32 0x4E487B7100000000000000000000000000000000000000000000000000000000 PUSH1 0x0 MSTORE PUSH1 0x41 PUSH1 0x4 MSTORE PUSH1 0x24 PUSH1 0x0 REVERT JUMPDEST PUSH1 0x0 DUP1 REVERT JUMPDEST PUSH1 0x0 DUP1 REVERT JUMPDEST PUSH1 0x0 DUP1 REVERT JUMPDEST PUSH1 0x0 DUP1 REVERT JUMPDEST PUSH1 0x0 PUSH1 0x1F NOT PUSH1 0x1F DUP4 ADD AND SWAP1 POP SWAP2 SWAP1 POP JUMP JUMPDEST PUSH32 0x616C6C20636F6C6C61626F7261746F727320636F756E74206174206C65617374 PUSH1 0x0 DUP3 ADD MSTORE PUSH32 0x206F6E6500000000000000000000000000000000000000000000000000000000 PUSH1 0x20 DUP3 ADD MSTORE POP JUMP JUMPDEST PUSH32 0x74686520636F6C6C61626F7261746F7273206D757374206E6F20626520647570 PUSH1 0x0 DUP3 ADD MSTORE PUSH32 0x6C69636174656400000000000000000000000000000000000000000000000000 PUSH1 0x20 DUP3 ADD MSTORE POP JUMP JUMPDEST PUSH32 0x6174206C65617374207369676E20636F756E74206D757374206D6F7265207468 PUSH1 0x0 DUP3 ADD MSTORE PUSH32 0x616E203020616E64206C657373207468616E206F7220657175616C7320636F6C PUSH1 0x20 DUP3 ADD MSTORE PUSH32 0x6C61626F7261746F727320636F756E7400000000000000000000000000000000 PUSH1 0x40 DUP3 ADD MSTORE POP JUMP JUMPDEST PUSH3 0x965 DUP2 PUSH3 0x6C6 JUMP JUMPDEST DUP2 EQ PUSH3 0x971 JUMPI PUSH1 0x0 DUP1 REVERT JUMPDEST POP JUMP JUMPDEST PUSH3 0x97F DUP2 PUSH3 0x704 JUMP JUMPDEST DUP2 EQ PUSH3 0x98B JUMPI PUSH1 0x0 DUP1 REVERT JUMPDEST POP JUMP JUMPDEST PUSH2 0x16EC DUP1 PUSH3 0x99E PUSH1 0x0 CODECOPY PUSH1 0x0 RETURN INVALID PUSH1 0x80 PUSH1 0x40 MSTORE PUSH1 0x4 CALLDATASIZE LT PUSH2 0x6F JUMPI PUSH1 0x0 CALLDATALOAD PUSH1 0xE0 SHR DUP1 PUSH4 0x68A1376B GT PUSH2 0x4E JUMPI DUP1 PUSH4 0x68A1376B EQ PUSH2 0xCB JUMPI DUP1 PUSH4 0xB517E0B4 EQ PUSH2 0xD5 JUMPI DUP1 PUSH4 0xB69EF8A8 EQ PUSH2 0xEC JUMPI DUP1 PUSH4 0xCA3EA43F EQ PUSH2 0x117 JUMPI PUSH2 0x6F JUMP JUMPDEST DUP1 PUSH3 0x3BDF3E EQ PUSH2 0x74 JUMPI DUP1 PUSH4 0x1535430B EQ PUSH2 0x9D JUMPI DUP1 PUSH4 0x352CE050 EQ PUSH2 0xB4 JUMPI JUMPDEST PUSH1 0x0 DUP1 REVERT JUMPDEST CALLVALUE DUP1 ISZERO PUSH2 0x80 JUMPI PUSH1 0x0 DUP1 REVERT JUMPDEST POP PUSH2 0x9B PUSH1 0x4 DUP1 CALLDATASIZE SUB DUP2 ADD SWAP1 PUSH2 0x96 SWAP2 SWAP1 PUSH2 0xE44 JUMP JUMPDEST PUSH2 0x142 JUMP JUMPDEST STOP JUMPDEST CALLVALUE DUP1 ISZERO PUSH2 0xA9 JUMPI PUSH1 0x0 DUP1 REVERT JUMPDEST POP PUSH2 0xB2 PUSH2 0x373 JUMP JUMPDEST STOP JUMPDEST CALLVALUE DUP1 ISZERO PUSH2 0xC0 JUMPI PUSH1 0x0 DUP1 REVERT JUMPDEST POP PUSH2 0xC9 PUSH2 0x68E JUMP JUMPDEST STOP JUMPDEST PUSH2 0xD3 PUSH2 0x8E0 JUMP JUMPDEST STOP JUMPDEST CALLVALUE DUP1 ISZERO PUSH2 0xE1 JUMPI PUSH1 0x0 DUP1 REVERT JUMPDEST POP PUSH2 0xEA PUSH2 0x93D JUMP JUMPDEST STOP JUMPDEST CALLVALUE DUP1 ISZERO PUSH2 0xF8 JUMPI PUSH1 0x0 DUP1 REVERT JUMPDEST POP PUSH2 0x101 PUSH2 0xA1E JUMP JUMPDEST PUSH1 0x40 MLOAD PUSH2 0x10E SWAP2 SWAP1 PUSH2 0x1174 JUMP JUMPDEST PUSH1 0x40 MLOAD DUP1 SWAP2 SUB SWAP1 RETURN JUMPDEST CALLVALUE DUP1 ISZERO PUSH2 0x123 JUMPI PUSH1 0x0 DUP1 REVERT JUMPDEST POP PUSH2 0x12C PUSH2 0xA24 JUMP JUMPDEST PUSH1 0x40 MLOAD PUSH2 0x139 SWAP2 SWAP1 PUSH2 0x1174 JUMP JUMPDEST PUSH1 0x40 MLOAD DUP1 SWAP2 SUB SWAP1 RETURN JUMPDEST PUSH2 0x14A PUSH2 0xA2A JUMP JUMPDEST PUSH2 0x189 JUMPI PUSH1 0x40 MLOAD PUSH32 0x8C379A000000000000000000000000000000000000000000000000000000000 DUP2 MSTORE PUSH1 0x4 ADD PUSH2 0x180 SWAP1 PUSH2 0x1114 JUMP JUMPDEST PUSH1 0x40 MLOAD DUP1 SWAP2 SUB SWAP1 REVERT JUMPDEST PUSH1 0x0 PUSH1 0x4 SLOAD EQ PUSH2 0x1CE JUMPI PUSH1 0x40 MLOAD PUSH32 0x8C379A000000000000000000000000000000000000000000000000000000000 DUP2 MSTORE PUSH1 0x4 ADD PUSH2 0x1C5 SWAP1 PUSH2 0x10F4 JUMP JUMPDEST PUSH1 0x40 MLOAD DUP1 SWAP2 SUB SWAP1 REVERT JUMPDEST PUSH1 0x0 SLOAD DUP3 GT ISZERO PUSH2 0x213 JUMPI PUSH1 0x40 MLOAD PUSH32 0x8C379A000000000000000000000000000000000000000000000000000000000 DUP2 MSTORE PUSH1 0x4 ADD PUSH2 0x20A SWAP1 PUSH2 0x1154 JUMP JUMPDEST PUSH1 0x40 MLOAD DUP1 SWAP2 SUB SWAP1 REVERT JUMPDEST PUSH1 0x0 PUSH20 0xFFFFFFFFFFFFFFFFFFFFFFFFFFFFFFFFFFFFFFFF AND DUP2 PUSH20 0xFFFFFFFFFFFFFFFFFFFFFFFFFFFFFFFFFFFFFFFF AND EQ ISZERO PUSH2 0x283 JUMPI PUSH1 0x40 MLOAD PUSH32 0x8C379A000000000000000000000000000000000000000000000000000000000 DUP2 MSTORE PUSH1 0x4 ADD PUSH2 0x27A SWAP1 PUSH2 0x1074 JUMP JUMPDEST PUSH1 0x40 MLOAD DUP1 SWAP2 SUB SWAP1 REVERT JUMPDEST CALLER PUSH1 0x6 PUSH1 0x0 PUSH2 0x100 EXP DUP2 SLOAD DUP2 PUSH20 0xFFFFFFFFFFFFFFFFFFFFFFFFFFFFFFFFFFFFFFFF MUL NOT AND SWAP1 DUP4 PUSH20 0xFFFFFFFFFFFFFFFFFFFFFFFFFFFFFFFFFFFFFFFF AND MUL OR SWAP1 SSTORE POP DUP2 PUSH1 0x4 DUP2 SWAP1 SSTORE POP DUP1 PUSH1 0x5 PUSH1 0x0 PUSH2 0x100 EXP DUP2 SLOAD DUP2 PUSH20 0xFFFFFFFFFFFFFFFFFFFFFFFFFFFFFFFFFFFFFFFF MUL NOT AND SWAP1 DUP4 PUSH20 0xFFFFFFFFFFFFFFFFFFFFFFFFFFFFFFFFFFFFFFFF AND MUL OR SWAP1 SSTORE POP PUSH1 0x7 CALLER SWAP1 DUP1 PUSH1 0x1 DUP2 SLOAD ADD DUP1 DUP3 SSTORE DUP1 SWAP2 POP POP PUSH1 0x1 SWAP1 SUB SWAP1 PUSH1 0x0 MSTORE PUSH1 0x20 PUSH1 0x0 KECCAK256 ADD PUSH1 0x0 SWAP1 SWAP2 SWAP1 SWAP2 SWAP1 SWAP2 PUSH2 0x100 EXP DUP2 SLOAD DUP2 PUSH20 0xFFFFFFFFFFFFFFFFFFFFFFFFFFFFFFFFFFFFFFFF MUL NOT AND SWAP1 DUP4 PUSH20 0xFFFFFFFFFFFFFFFFFFFFFFFFFFFFFFFFFFFFFFFF AND MUL OR SWAP1 SSTORE POP POP POP JUMP JUMPDEST PUSH2 0x37B PUSH2 0xA2A JUMP JUMPDEST PUSH2 0x3BA JUMPI PUSH1 0x40 MLOAD PUSH32 0x8C379A000000000000000000000000000000000000000000000000000000000 DUP2 MSTORE PUSH1 0x4 ADD PUSH2 0x3B1 SWAP1 PUSH2 0x1114 JUMP JUMPDEST PUSH1 0x40 MLOAD DUP1 SWAP2 SUB SWAP1 REVERT JUMPDEST PUSH1 0x6 PUSH1 0x0 SWAP1 SLOAD SWAP1 PUSH2 0x100 EXP SWAP1 DIV PUSH20 0xFFFFFFFFFFFFFFFFFFFFFFFFFFFFFFFFFFFFFFFF AND PUSH20 0xFFFFFFFFFFFFFFFFFFFFFFFFFFFFFFFFFFFFFFFF AND CALLER PUSH20 0xFFFFFFFFFFFFFFFFFFFFFFFFFFFFFFFFFFFFFFFF AND EQ ISZERO PUSH2 0x44B JUMPI PUSH1 0x40 MLOAD PUSH32 0x8C379A000000000000000000000000000000000000000000000000000000000 DUP2 MSTORE PUSH1 0x4 ADD PUSH2 0x442 SWAP1 PUSH2 0x1034 JUMP JUMPDEST PUSH1 0x40 MLOAD DUP1 SWAP2 SUB SWAP1 REVERT JUMPDEST PUSH2 0x4DB PUSH1 0x8 DUP1 SLOAD DUP1 PUSH1 0x20 MUL PUSH1 0x20 ADD PUSH1 0x40 MLOAD SWAP1 DUP2 ADD PUSH1 0x40 MSTORE DUP1 SWAP3 SWAP2 SWAP1 DUP2 DUP2 MSTORE PUSH1 0x20 ADD DUP3 DUP1 SLOAD DUP1 ISZERO PUSH2 0x4D0 JUMPI PUSH1 0x20 MUL DUP3 ADD SWAP2 SWAP1 PUSH1 0x0 MSTORE PUSH1 0x20 PUSH1 0x0 KECCAK256 SWAP1 JUMPDEST DUP2 PUSH1 0x0 SWAP1 SLOAD SWAP1 PUSH2 0x100 EXP SWAP1 DIV PUSH20 0xFFFFFFFFFFFFFFFFFFFFFFFFFFFFFFFFFFFFFFFF AND PUSH20 0xFFFFFFFFFFFFFFFFFFFFFFFFFFFFFFFFFFFFFFFF AND DUP2 MSTORE PUSH1 0x20 ADD SWAP1 PUSH1 0x1 ADD SWAP1 DUP1 DUP4 GT PUSH2 0x486 JUMPI JUMPDEST POP POP POP POP POP CALLER PUSH2 0xAC1 JUMP JUMPDEST ISZERO PUSH2 0x51B JUMPI PUSH1 0x40 MLOAD PUSH32 0x8C379A000000000000000000000000000000000000000000000000000000000 DUP2 MSTORE PUSH1 0x4 ADD PUSH2 0x512 SWAP1 PUSH2 0x1054 JUMP JUMPDEST PUSH1 0x40 MLOAD DUP1 SWAP2 SUB SWAP1 REVERT JUMPDEST PUSH1 0x0 PUSH1 0x4 SLOAD GT PUSH2 0x560 JUMPI PUSH1 0x40 MLOAD PUSH32 0x8C379A000000000000000000000000000000000000000000000000000000000 DUP2 MSTORE PUSH1 0x4 ADD PUSH2 0x557 SWAP1 PUSH2 0x1014 JUMP JUMPDEST PUSH1 0x40 MLOAD DUP1 SWAP2 SUB SWAP1 REVERT JUMPDEST PUSH1 0x8 CALLER SWAP1 DUP1 PUSH1 0x1 DUP2 SLOAD ADD DUP1 DUP3 SSTORE DUP1 SWAP2 POP POP PUSH1 0x1 SWAP1 SUB SWAP1 PUSH1 0x0 MSTORE PUSH1 0x20 PUSH1 0x0 KECCAK256 ADD PUSH1 0x0 SWAP1 SWAP2 SWAP1 SWAP2 SWAP1 SWAP2 PUSH2 0x100 EXP DUP2 SLOAD DUP2 PUSH20 0xFFFFFFFFFFFFFFFFFFFFFFFFFFFFFFFFFFFFFFFF MUL NOT AND SWAP1 DUP4 PUSH20 0xFFFFFFFFFFFFFFFFFFFFFFFFFFFFFFFFFFFFFFFF AND MUL OR SWAP1 SSTORE POP PUSH1 0x0 DUP1 JUMPDEST PUSH1 0x8 DUP1 SLOAD SWAP1 POP DUP2 LT ISZERO PUSH2 0x668 JUMPI PUSH1 0x0 PUSH20 0xFFFFFFFFFFFFFFFFFFFFFFFFFFFFFFFFFFFFFFFF AND PUSH1 0x8 DUP3 DUP2 SLOAD DUP2 LT PUSH2 0x600 JUMPI PUSH2 0x5FF PUSH2 0x1315 JUMP JUMPDEST JUMPDEST SWAP1 PUSH1 0x0 MSTORE PUSH1 0x20 PUSH1 0x0 KECCAK256 ADD PUSH1 0x0 SWAP1 SLOAD SWAP1 PUSH2 0x100 EXP SWAP1 DIV PUSH20 0xFFFFFFFFFFFFFFFFFFFFFFFFFFFFFFFFFFFFFFFF AND PUSH20 0xFFFFFFFFFFFFFFFFFFFFFFFFFFFFFFFFFFFFFFFF AND EQ PUSH2 0x655 JUMPI DUP2 DUP1 PUSH2 0x651 SWAP1 PUSH2 0x1273 JUMP JUMPDEST SWAP3 POP POP JUMPDEST DUP1 DUP1 PUSH2 0x660 SWAP1 PUSH2 0x1273 JUMP JUMPDEST SWAP2 POP POP PUSH2 0x5C7 JUMP JUMPDEST POP PUSH1 0x1 PUSH1 0x2 DUP1 SLOAD SWAP1 POP PUSH2 0x67B SWAP2 SWAP1 PUSH2 0x11F6 JUMP JUMPDEST DUP2 EQ ISZERO PUSH2 0x68B JUMPI PUSH2 0x68A PUSH2 0xB49 JUMP JUMPDEST JUMPDEST POP JUMP JUMPDEST PUSH2 0x696 PUSH2 0xA2A JUMP JUMPDEST PUSH2 0x6D5 JUMPI PUSH1 0x40 MLOAD PUSH32 0x8C379A000000000000000000000000000000000000000000000000000000000 DUP2 MSTORE PUSH1 0x4 ADD PUSH2 0x6CC SWAP1 PUSH2 0x1114 JUMP JUMPDEST PUSH1 0x40 MLOAD DUP1 SWAP2 SUB SWAP1 REVERT JUMPDEST PUSH1 0x0 PUSH1 0x4 SLOAD GT PUSH2 0x71A JUMPI PUSH1 0x40 MLOAD PUSH32 0x8C379A000000000000000000000000000000000000000000000000000000000 DUP2 MSTORE PUSH1 0x4 ADD PUSH2 0x711 SWAP1 PUSH2 0x1094 JUMP JUMPDEST PUSH1 0x40 MLOAD DUP1 SWAP2 SUB SWAP1 REVERT JUMPDEST PUSH2 0x722 PUSH2 0xBB9 JUMP JUMPDEST ISZERO PUSH2 0x762 JUMPI PUSH1 0x40 MLOAD PUSH32 0x8C379A000000000000000000000000000000000000000000000000000000000 DUP2 MSTORE PUSH1 0x4 ADD PUSH2 0x759 SWAP1 PUSH2 0x10B4 JUMP JUMPDEST PUSH1 0x40 MLOAD DUP1 SWAP2 SUB SWAP1 REVERT JUMPDEST PUSH1 0x7 CALLER SWAP1 DUP1 PUSH1 0x1 DUP2 SLOAD ADD DUP1 DUP3 SSTORE DUP1 SWAP2 POP POP PUSH1 0x1 SWAP1 SUB SWAP1 PUSH1 0x0 MSTORE PUSH1 0x20 PUSH1 0x0 KECCAK256 ADD PUSH1 0x0 SWAP1 SWAP2 SWAP1 SWAP2 SWAP1 SWAP2 PUSH2 0x100 EXP DUP2 SLOAD DUP2 PUSH20 0xFFFFFFFFFFFFFFFFFFFFFFFFFFFFFFFFFFFFFFFF MUL NOT AND SWAP1 DUP4 PUSH20 0xFFFFFFFFFFFFFFFFFFFFFFFFFFFFFFFFFFFFFFFF AND MUL OR SWAP1 SSTORE POP PUSH2 0x7CD PUSH2 0xC50 JUMP JUMPDEST ISZERO PUSH2 0x8DE JUMPI PUSH1 0x0 PUSH1 0x4 SLOAD SWAP1 POP PUSH1 0x0 PUSH1 0x4 DUP2 SWAP1 SSTORE POP PUSH1 0x5 PUSH1 0x0 SWAP1 SLOAD SWAP1 PUSH2 0x100 EXP SWAP1 DIV PUSH20 0xFFFFFFFFFFFFFFFFFFFFFFFFFFFFFFFFFFFFFFFF AND PUSH20 0xFFFFFFFFFFFFFFFFFFFFFFFFFFFFFFFFFFFFFFFF AND PUSH2 0x8FC DUP3 SWAP1 DUP2 ISZERO MUL SWAP1 PUSH1 0x40 MLOAD PUSH1 0x0 PUSH1 0x40 MLOAD DUP1 DUP4 SUB DUP2 DUP6 DUP9 DUP9 CALL SWAP4 POP POP POP POP ISZERO DUP1 ISZERO PUSH2 0x849 JUMPI RETURNDATASIZE PUSH1 0x0 DUP1 RETURNDATACOPY RETURNDATASIZE PUSH1 0x0 REVERT JUMPDEST POP DUP1 PUSH1 0x0 SLOAD PUSH2 0x858 SWAP2 SWAP1 PUSH2 0x11F6 JUMP JUMPDEST PUSH1 0x0 DUP2 SWAP1 SSTORE POP PUSH1 0x9 PUSH1 0x0 DUP2 SLOAD DUP1 SWAP3 SWAP2 SWAP1 PUSH2 0x871 SWAP1 PUSH2 0x1273 JUMP JUMPDEST SWAP2 SWAP1 POP SSTORE POP PUSH1 0x5 PUSH1 0x0 PUSH2 0x100 EXP DUP2 SLOAD SWAP1 PUSH20 0xFFFFFFFFFFFFFFFFFFFFFFFFFFFFFFFFFFFFFFFF MUL NOT AND SWAP1 SSTORE PUSH1 0x7 PUSH1 0x0 PUSH2 0x8A9 SWAP2 SWAP1 PUSH2 0xDDC JUMP JUMPDEST PUSH1 0x6 PUSH1 0x0 PUSH2 0x100 EXP DUP2 SLOAD SWAP1 PUSH20 0xFFFFFFFFFFFFFFFFFFFFFFFFFFFFFFFFFFFFFFFF MUL NOT AND SWAP1 SSTORE PUSH1 0x8 PUSH1 0x0 PUSH2 0x8DC SWAP2 SWAP1 PUSH2 0xDDC JUMP JUMPDEST POP JUMPDEST JUMP JUMPDEST PUSH1 0x0 CALLVALUE GT PUSH2 0x923 JUMPI PUSH1 0x40 MLOAD PUSH32 0x8C379A000000000000000000000000000000000000000000000000000000000 DUP2 MSTORE PUSH1 0x4 ADD PUSH2 0x91A SWAP1 PUSH2 0x10D4 JUMP JUMPDEST PUSH1 0x40 MLOAD DUP1 SWAP2 SUB SWAP1 REVERT JUMPDEST CALLVALUE PUSH1 0x0 DUP1 DUP3 DUP3 SLOAD PUSH2 0x934 SWAP2 SWAP1 PUSH2 0x11A0 JUMP JUMPDEST SWAP3 POP POP DUP2 SWAP1 SSTORE POP JUMP JUMPDEST PUSH2 0x945 PUSH2 0xA2A JUMP JUMPDEST PUSH2 0x984 JUMPI PUSH1 0x40 MLOAD PUSH32 0x8C379A000000000000000000000000000000000000000000000000000000000 DUP2 MSTORE PUSH1 0x4 ADD PUSH2 0x97B SWAP1 PUSH2 0x1114 JUMP JUMPDEST PUSH1 0x40 MLOAD DUP1 SWAP2 SUB SWAP1 REVERT JUMPDEST PUSH1 0x6 PUSH1 0x0 SWAP1 SLOAD SWAP1 PUSH2 0x100 EXP SWAP1 DIV PUSH20 0xFFFFFFFFFFFFFFFFFFFFFFFFFFFFFFFFFFFFFFFF AND PUSH20 0xFFFFFFFFFFFFFFFFFFFFFFFFFFFFFFFFFFFFFFFF AND CALLER PUSH20 0xFFFFFFFFFFFFFFFFFFFFFFFFFFFFFFFFFFFFFFFF AND EQ PUSH2 0xA14 JUMPI PUSH1 0x40 MLOAD PUSH32 0x8C379A000000000000000000000000000000000000000000000000000000000 DUP2 MSTORE PUSH1 0x4 ADD PUSH2 0xA0B SWAP1 PUSH2 0x1134 JUMP JUMPDEST PUSH1 0x40 MLOAD DUP1 SWAP2 SUB SWAP1 REVERT JUMPDEST PUSH2 0xA1C PUSH2 0xB49 JUMP JUMPDEST JUMP JUMPDEST PUSH1 0x0 SLOAD DUP2 JUMP JUMPDEST PUSH1 0x9 SLOAD DUP2 JUMP JUMPDEST PUSH1 0x0 PUSH2 0xABC PUSH1 0x2 DUP1 SLOAD DUP1 PUSH1 0x20 MUL PUSH1 0x20 ADD PUSH1 0x40 MLOAD SWAP1 DUP2 ADD PUSH1 0x40 MSTORE DUP1 SWAP3 SWAP2 SWAP1 DUP2 DUP2 MSTORE PUSH1 0x20 ADD DUP3 DUP1 SLOAD DUP1 ISZERO PUSH2 0xAB1 JUMPI PUSH1 0x20 MUL DUP3 ADD SWAP2 SWAP1 PUSH1 0x0 MSTORE PUSH1 0x20 PUSH1 0x0 KECCAK256 SWAP1 JUMPDEST DUP2 PUSH1 0x0 SWAP1 SLOAD SWAP1 PUSH2 0x100 EXP SWAP1 DIV PUSH20 0xFFFFFFFFFFFFFFFFFFFFFFFFFFFFFFFFFFFFFFFF AND PUSH20 0xFFFFFFFFFFFFFFFFFFFFFFFFFFFFFFFFFFFFFFFF AND DUP2 MSTORE PUSH1 0x20 ADD SWAP1 PUSH1 0x1 ADD SWAP1 DUP1 DUP4 GT PUSH2 0xA67 JUMPI JUMPDEST POP POP POP POP POP CALLER PUSH2 0xAC1 JUMP JUMPDEST SWAP1 POP SWAP1 JUMP JUMPDEST PUSH1 0x0 DUP1 PUSH1 0x0 SWAP1 POP PUSH1 0x0 JUMPDEST DUP5 MLOAD DUP2 LT ISZERO PUSH2 0xB3E JUMPI DUP4 PUSH20 0xFFFFFFFFFFFFFFFFFFFFFFFFFFFFFFFFFFFFFFFF AND DUP6 DUP3 DUP2 MLOAD DUP2 LT PUSH2 0xAFE JUMPI PUSH2 0xAFD PUSH2 0x1315 JUMP JUMPDEST JUMPDEST PUSH1 0x20 MUL PUSH1 0x20 ADD ADD MLOAD PUSH20 0xFFFFFFFFFFFFFFFFFFFFFFFFFFFFFFFFFFFFFFFF AND EQ ISZERO PUSH2 0xB2B JUMPI PUSH1 0x1 SWAP2 POP PUSH2 0xB3E JUMP JUMPDEST DUP1 DUP1 PUSH2 0xB36 SWAP1 PUSH2 0x1273 JUMP JUMPDEST SWAP2 POP POP PUSH2 0xACB JUMP JUMPDEST POP DUP1 SWAP2 POP POP SWAP3 SWAP2 POP POP JUMP JUMPDEST PUSH1 0x6 PUSH1 0x0 PUSH2 0x100 EXP DUP2 SLOAD SWAP1 PUSH20 0xFFFFFFFFFFFFFFFFFFFFFFFFFFFFFFFFFFFFFFFF MUL NOT AND SWAP1 SSTORE PUSH1 0x5 PUSH1 0x0 PUSH2 0x100 EXP DUP2 SLOAD SWAP1 PUSH20 0xFFFFFFFFFFFFFFFFFFFFFFFFFFFFFFFFFFFFFFFF MUL NOT AND SWAP1 SSTORE PUSH1 0x0 PUSH1 0x4 DUP2 SWAP1 SSTORE POP PUSH1 0x7 PUSH1 0x0 PUSH2 0xBA9 SWAP2 SWAP1 PUSH2 0xDDC JUMP JUMPDEST PUSH1 0x8 PUSH1 0x0 PUSH2 0xBB7 SWAP2 SWAP1 PUSH2 0xDDC JUMP JUMPDEST JUMP JUMPDEST PUSH1 0x0 PUSH2 0xC4B PUSH1 0x7 DUP1 SLOAD DUP1 PUSH1 0x20 MUL PUSH1 0x20 ADD PUSH1 0x40 MLOAD SWAP1 DUP2 ADD PUSH1 0x40 MSTORE DUP1 SWAP3 SWAP2 SWAP1 DUP2 DUP2 MSTORE PUSH1 0x20 ADD DUP3 DUP1 SLOAD DUP1 ISZERO PUSH2 0xC40 JUMPI PUSH1 0x20 MUL DUP3 ADD SWAP2 SWAP1 PUSH1 0x0 MSTORE PUSH1 0x20 PUSH1 0x0 KECCAK256 SWAP1 JUMPDEST DUP2 PUSH1 0x0 SWAP1 SLOAD SWAP1 PUSH2 0x100 EXP SWAP1 DIV PUSH20 0xFFFFFFFFFFFFFFFFFFFFFFFFFFFFFFFFFFFFFFFF AND PUSH20 0xFFFFFFFFFFFFFFFFFFFFFFFFFFFFFFFFFFFFFFFF AND DUP2 MSTORE PUSH1 0x20 ADD SWAP1 PUSH1 0x1 ADD SWAP1 DUP1 DUP4 GT PUSH2 0xBF6 JUMPI JUMPDEST POP POP POP POP POP CALLER PUSH2 0xAC1 JUMP JUMPDEST SWAP1 POP SWAP1 JUMP JUMPDEST PUSH1 0x0 DUP1 PUSH1 0x7 DUP1 SLOAD DUP1 PUSH1 0x20 MUL PUSH1 0x20 ADD PUSH1 0x40 MLOAD SWAP1 DUP2 ADD PUSH1 0x40 MSTORE DUP1 SWAP3 SWAP2 SWAP1 DUP2 DUP2 MSTORE PUSH1 0x20 ADD DUP3 DUP1 SLOAD DUP1 ISZERO PUSH2 0xCD5 JUMPI PUSH1 0x20 MUL DUP3 ADD SWAP2 SWAP1 PUSH1 0x0 MSTORE PUSH1 0x20 PUSH1 0x0 KECCAK256 SWAP1 JUMPDEST DUP2 PUSH1 0x0 SWAP1 SLOAD SWAP1 PUSH2 0x100 EXP SWAP1 DIV PUSH20 0xFFFFFFFFFFFFFFFFFFFFFFFFFFFFFFFFFFFFFFFF AND PUSH20 0xFFFFFFFFFFFFFFFFFFFFFFFFFFFFFFFFFFFFFFFF AND DUP2 MSTORE PUSH1 0x20 ADD SWAP1 PUSH1 0x1 ADD SWAP1 DUP1 DUP4 GT PUSH2 0xC8B JUMPI JUMPDEST POP POP POP POP POP SWAP1 POP PUSH1 0x0 DUP1 JUMPDEST DUP3 MLOAD DUP2 LT ISZERO PUSH2 0xDBB JUMPI PUSH1 0x0 JUMPDEST PUSH1 0x2 DUP1 SLOAD SWAP1 POP DUP2 LT ISZERO PUSH2 0xDA7 JUMPI DUP4 DUP3 DUP2 MLOAD DUP2 LT PUSH2 0xD0C JUMPI PUSH2 0xD0B PUSH2 0x1315 JUMP JUMPDEST JUMPDEST PUSH1 0x20 MUL PUSH1 0x20 ADD ADD MLOAD PUSH20 0xFFFFFFFFFFFFFFFFFFFFFFFFFFFFFFFFFFFFFFFF AND PUSH1 0x2 DUP3 DUP2 SLOAD DUP2 LT PUSH2 0xD3E JUMPI PUSH2 0xD3D PUSH2 0x1315 JUMP JUMPDEST JUMPDEST SWAP1 PUSH1 0x0 MSTORE PUSH1 0x20 PUSH1 0x0 KECCAK256 ADD PUSH1 0x0 SWAP1 SLOAD SWAP1 PUSH2 0x100 EXP SWAP1 DIV PUSH20 0xFFFFFFFFFFFFFFFFFFFFFFFFFFFFFFFFFFFFFFFF AND PUSH20 0xFFFFFFFFFFFFFFFFFFFFFFFFFFFFFFFFFFFFFFFF AND EQ ISZERO PUSH2 0xD94 JUMPI DUP3 DUP1 PUSH2 0xD90 SWAP1 PUSH2 0x12BC JUMP JUMPDEST SWAP4 POP POP JUMPDEST DUP1 DUP1 PUSH2 0xD9F SWAP1 PUSH2 0x1273 JUMP JUMPDEST SWAP2 POP POP PUSH2 0xCEC JUMP JUMPDEST POP DUP1 DUP1 PUSH2 0xDB3 SWAP1 PUSH2 0x1273 JUMP JUMPDEST SWAP2 POP POP PUSH2 0xCE0 JUMP JUMPDEST POP PUSH1 0x3 PUSH1 0x0 SWAP1 SLOAD SWAP1 PUSH2 0x100 EXP SWAP1 DIV PUSH1 0xFF AND PUSH1 0xFF AND DUP2 PUSH1 0xFF AND LT ISZERO SWAP3 POP POP POP SWAP1 JUMP JUMPDEST POP DUP1 SLOAD PUSH1 0x0 DUP3 SSTORE SWAP1 PUSH1 0x0 MSTORE PUSH1 0x20 PUSH1 0x0 KECCAK256 SWAP1 DUP2 ADD SWAP1 PUSH2 0xDFA SWAP2 SWAP1 PUSH2 0xDFD JUMP JUMPDEST POP JUMP JUMPDEST JUMPDEST DUP1 DUP3 GT ISZERO PUSH2 0xE16 JUMPI PUSH1 0x0 DUP2 PUSH1 0x0 SWAP1 SSTORE POP PUSH1 0x1 ADD PUSH2 0xDFE JUMP JUMPDEST POP SWAP1 JUMP JUMPDEST PUSH1 0x0 DUP2 CALLDATALOAD SWAP1 POP PUSH2 0xE29 DUP2 PUSH2 0x1688 JUMP JUMPDEST SWAP3 SWAP2 POP POP JUMP JUMPDEST PUSH1 0x0 DUP2 CALLDATALOAD SWAP1 POP PUSH2 0xE3E DUP2 PUSH2 0x169F JUMP JUMPDEST SWAP3 SWAP2 POP POP JUMP JUMPDEST PUSH1 0x0 DUP1 PUSH1 0x40 DUP4 DUP6 SUB SLT ISZERO PUSH2 0xE5B JUMPI PUSH2 0xE5A PUSH2 0x1344 JUMP JUMPDEST JUMPDEST PUSH1 0x0 PUSH2 0xE69 DUP6 DUP3 DUP7 ADD PUSH2 0xE2F JUMP JUMPDEST SWAP3 POP POP PUSH1 0x20 PUSH2 0xE7A DUP6 DUP3 DUP7 ADD PUSH2 0xE1A JUMP JUMPDEST SWAP2 POP POP SWAP3 POP SWAP3 SWAP1 POP JUMP JUMPDEST PUSH1 0x0 PUSH2 0xE91 PUSH1 0x2F DUP4 PUSH2 0x118F JUMP JUMPDEST SWAP2 POP PUSH2 0xE9C DUP3 PUSH2 0x1349 JUMP JUMPDEST PUSH1 0x40 DUP3 ADD SWAP1 POP SWAP2 SWAP1 POP JUMP JUMPDEST PUSH1 0x0 PUSH2 0xEB4 PUSH1 0x3A DUP4 PUSH2 0x118F JUMP JUMPDEST SWAP2 POP PUSH2 0xEBF DUP3 PUSH2 0x1398 JUMP JUMPDEST PUSH1 0x40 DUP3 ADD SWAP1 POP SWAP2 SWAP1 POP JUMP JUMPDEST PUSH1 0x0 PUSH2 0xED7 PUSH1 0x2E DUP4 PUSH2 0x118F JUMP JUMPDEST SWAP2 POP PUSH2 0xEE2 DUP3 PUSH2 0x13E7 JUMP JUMPDEST PUSH1 0x40 DUP3 ADD SWAP1 POP SWAP2 SWAP1 POP JUMP JUMPDEST PUSH1 0x0 PUSH2 0xEFA PUSH1 0x15 DUP4 PUSH2 0x118F JUMP JUMPDEST SWAP2 POP PUSH2 0xF05 DUP3 PUSH2 0x1436 JUMP JUMPDEST PUSH1 0x20 DUP3 ADD SWAP1 POP SWAP2 SWAP1 POP JUMP JUMPDEST PUSH1 0x0 PUSH2 0xF1D PUSH1 0x2C DUP4 PUSH2 0x118F JUMP JUMPDEST SWAP2 POP PUSH2 0xF28 DUP3 PUSH2 0x145F JUMP JUMPDEST PUSH1 0x40 DUP3 ADD SWAP1 POP SWAP2 SWAP1 POP JUMP JUMPDEST PUSH1 0x0 PUSH2 0xF40 PUSH1 0x38 DUP4 PUSH2 0x118F JUMP JUMPDEST SWAP2 POP PUSH2 0xF4B DUP3 PUSH2 0x14AE JUMP JUMPDEST PUSH1 0x40 DUP3 ADD SWAP1 POP SWAP2 SWAP1 POP JUMP JUMPDEST PUSH1 0x0 PUSH2 0xF63 PUSH1 0x58 DUP4 PUSH2 0x118F JUMP JUMPDEST SWAP2 POP PUSH2 0xF6E DUP3 PUSH2 0x14FD JUMP JUMPDEST PUSH1 0x60 DUP3 ADD SWAP1 POP SWAP2 SWAP1 POP JUMP JUMPDEST PUSH1 0x0 PUSH2 0xF86 PUSH1 0x1D DUP4 PUSH2 0x118F JUMP JUMPDEST SWAP2 POP PUSH2 0xF91 DUP3 PUSH2 0x1572 JUMP JUMPDEST PUSH1 0x20 DUP3 ADD SWAP1 POP SWAP2 SWAP1 POP JUMP JUMPDEST PUSH1 0x0 PUSH2 0xFA9 PUSH1 0x26 DUP4 PUSH2 0x118F JUMP JUMPDEST SWAP2 POP PUSH2 0xFB4 DUP3 PUSH2 0x159B JUMP JUMPDEST PUSH1 0x40 DUP3 ADD SWAP1 POP SWAP2 SWAP1 POP JUMP JUMPDEST PUSH1 0x0 PUSH2 0xFCC PUSH1 0x2A DUP4 PUSH2 0x118F JUMP JUMPDEST SWAP2 POP PUSH2 0xFD7 DUP3 PUSH2 0x15EA JUMP JUMPDEST PUSH1 0x40 DUP3 ADD SWAP1 POP SWAP2 SWAP1 POP JUMP JUMPDEST PUSH1 0x0 PUSH2 0xFEF PUSH1 0x2C DUP4 PUSH2 0x118F JUMP JUMPDEST SWAP2 POP PUSH2 0xFFA DUP3 PUSH2 0x1639 JUMP JUMPDEST PUSH1 0x40 DUP3 ADD SWAP1 POP SWAP2 SWAP1 POP JUMP JUMPDEST PUSH2 0x100E DUP2 PUSH2 0x125C JUMP JUMPDEST DUP3 MSTORE POP POP JUMP JUMPDEST PUSH1 0x0 PUSH1 0x20 DUP3 ADD SWAP1 POP DUP2 DUP2 SUB PUSH1 0x0 DUP4 ADD MSTORE PUSH2 0x102D DUP2 PUSH2 0xE84 JUMP JUMPDEST SWAP1 POP SWAP2 SWAP1 POP JUMP JUMPDEST PUSH1 0x0 PUSH1 0x20 DUP3 ADD SWAP1 POP DUP2 DUP2 SUB PUSH1 0x0 DUP4 ADD MSTORE PUSH2 0x104D DUP2 PUSH2 0xEA7 JUMP JUMPDEST SWAP1 POP SWAP2 SWAP1 POP JUMP JUMPDEST PUSH1 0x0 PUSH1 0x20 DUP3 ADD SWAP1 POP DUP2 DUP2 SUB PUSH1 0x0 DUP4 ADD MSTORE PUSH2 0x106D DUP2 PUSH2 0xECA JUMP JUMPDEST SWAP1 POP SWAP2 SWAP1 POP JUMP JUMPDEST PUSH1 0x0 PUSH1 0x20 DUP3 ADD SWAP1 POP DUP2 DUP2 SUB PUSH1 0x0 DUP4 ADD MSTORE PUSH2 0x108D DUP2 PUSH2 0xEED JUMP JUMPDEST SWAP1 POP SWAP2 SWAP1 POP JUMP JUMPDEST PUSH1 0x0 PUSH1 0x20 DUP3 ADD SWAP1 POP DUP2 DUP2 SUB PUSH1 0x0 DUP4 ADD MSTORE PUSH2 0x10AD DUP2 PUSH2 0xF10 JUMP JUMPDEST SWAP1 POP SWAP2 SWAP1 POP JUMP JUMPDEST PUSH1 0x0 PUSH1 0x20 DUP3 ADD SWAP1 POP DUP2 DUP2 SUB PUSH1 0x0 DUP4 ADD MSTORE PUSH2 0x10CD DUP2 PUSH2 0xF33 JUMP JUMPDEST SWAP1 POP SWAP2 SWAP1 POP JUMP JUMPDEST PUSH1 0x0 PUSH1 0x20 DUP3 ADD SWAP1 POP DUP2 DUP2 SUB PUSH1 0x0 DUP4 ADD MSTORE PUSH2 0x10ED DUP2 PUSH2 0xF56 JUMP JUMPDEST SWAP1 POP SWAP2 SWAP1 POP JUMP JUMPDEST PUSH1 0x0 PUSH1 0x20 DUP3 ADD SWAP1 POP DUP2 DUP2 SUB PUSH1 0x0 DUP4 ADD MSTORE PUSH2 0x110D DUP2 PUSH2 0xF79 JUMP JUMPDEST SWAP1 POP SWAP2 SWAP1 POP JUMP JUMPDEST PUSH1 0x0 PUSH1 0x20 DUP3 ADD SWAP1 POP DUP2 DUP2 SUB PUSH1 0x0 DUP4 ADD MSTORE PUSH2 0x112D DUP2 PUSH2 0xF9C JUMP JUMPDEST SWAP1 POP SWAP2 SWAP1 POP JUMP JUMPDEST PUSH1 0x0 PUSH1 0x20 DUP3 ADD SWAP1 POP DUP2 DUP2 SUB PUSH1 0x0 DUP4 ADD MSTORE PUSH2 0x114D DUP2 PUSH2 0xFBF JUMP JUMPDEST SWAP1 POP SWAP2 SWAP1 POP JUMP JUMPDEST PUSH1 0x0 PUSH1 0x20 DUP3 ADD SWAP1 POP DUP2 DUP2 SUB PUSH1 0x0 DUP4 ADD MSTORE PUSH2 0x116D DUP2 PUSH2 0xFE2 JUMP JUMPDEST SWAP1 POP SWAP2 SWAP1 POP JUMP JUMPDEST PUSH1 0x0 PUSH1 0x20 DUP3 ADD SWAP1 POP PUSH2 0x1189 PUSH1 0x0 DUP4 ADD DUP5 PUSH2 0x1005 JUMP JUMPDEST SWAP3 SWAP2 POP POP JUMP JUMPDEST PUSH1 0x0 DUP3 DUP3 MSTORE PUSH1 0x20 DUP3 ADD SWAP1 POP SWAP3 SWAP2 POP POP JUMP JUMPDEST PUSH1 0x0 PUSH2 0x11AB DUP3 PUSH2 0x125C JUMP JUMPDEST SWAP2 POP PUSH2 0x11B6 DUP4 PUSH2 0x125C JUMP JUMPDEST SWAP3 POP DUP3 PUSH32 0xFFFFFFFFFFFFFFFFFFFFFFFFFFFFFFFFFFFFFFFFFFFFFFFFFFFFFFFFFFFFFFFF SUB DUP3 GT ISZERO PUSH2 0x11EB JUMPI PUSH2 0x11EA PUSH2 0x12E6 JUMP JUMPDEST JUMPDEST DUP3 DUP3 ADD SWAP1 POP SWAP3 SWAP2 POP POP JUMP JUMPDEST PUSH1 0x0 PUSH2 0x1201 DUP3 PUSH2 0x125C JUMP JUMPDEST SWAP2 POP PUSH2 0x120C DUP4 PUSH2 0x125C JUMP JUMPDEST SWAP3 POP DUP3 DUP3 LT ISZERO PUSH2 0x121F JUMPI PUSH2 0x121E PUSH2 0x12E6 JUMP JUMPDEST JUMPDEST DUP3 DUP3 SUB SWAP1 POP SWAP3 SWAP2 POP POP JUMP JUMPDEST PUSH1 0x0 PUSH2 0x1235 DUP3 PUSH2 0x123C JUMP JUMPDEST SWAP1 POP SWAP2 SWAP1 POP JUMP JUMPDEST PUSH1 0x0 PUSH20 0xFFFFFFFFFFFFFFFFFFFFFFFFFFFFFFFFFFFFFFFF DUP3 AND SWAP1 POP SWAP2 SWAP1 POP JUMP JUMPDEST PUSH1 0x0 DUP2 SWAP1 POP SWAP2 SWAP1 POP JUMP JUMPDEST PUSH1 0x0 PUSH1 0xFF DUP3 AND SWAP1 POP SWAP2 SWAP1 POP JUMP JUMPDEST PUSH1 0x0 PUSH2 0x127E DUP3 PUSH2 0x125C JUMP JUMPDEST SWAP2 POP PUSH32 0xFFFFFFFFFFFFFFFFFFFFFFFFFFFFFFFFFFFFFFFFFFFFFFFFFFFFFFFFFFFFFFFF DUP3 EQ ISZERO PUSH2 0x12B1 JUMPI PUSH2 0x12B0 PUSH2 0x12E6 JUMP JUMPDEST JUMPDEST PUSH1 0x1 DUP3 ADD SWAP1 POP SWAP2 SWAP1 POP JUMP JUMPDEST PUSH1 0x0 PUSH2 0x12C7 DUP3 PUSH2 0x1266 JUMP JUMPDEST SWAP2 POP PUSH1 0xFF DUP3 EQ ISZERO PUSH2 0x12DB JUMPI PUSH2 0x12DA PUSH2 0x12E6 JUMP JUMPDEST JUMPDEST PUSH1 0x1 DUP3 ADD SWAP1 POP SWAP2 SWAP1 POP JUMP JUMPDEST PUSH32 0x4E487B7100000000000000000000000000000000000000000000000000000000 PUSH1 0x0 MSTORE PUSH1 0x11 PUSH1 0x4 MSTORE PUSH1 0x24 PUSH1 0x0 REVERT JUMPDEST PUSH32 0x4E487B7100000000000000000000000000000000000000000000000000000000 PUSH1 0x0 MSTORE PUSH1 0x32 PUSH1 0x4 MSTORE PUSH1 0x24 PUSH1 0x0 REVERT JUMPDEST PUSH1 0x0 DUP1 REVERT JUMPDEST PUSH32 0x74686572652069736E277420616E792077697468647277616C73207761697420 PUSH1 0x0 DUP3 ADD MSTORE PUSH32 0x666F722063616E63656C6174696F6E0000000000000000000000000000000000 PUSH1 0x20 DUP3 ADD MSTORE POP JUMP JUMPDEST PUSH32 0x6F6E6C792074686520636F756E746572207061727479206F6620696E69746961 PUSH1 0x0 DUP3 ADD MSTORE PUSH32 0x746F722063616E2063616C6C20746869732066756E6374696F6E000000000000 PUSH1 0x20 DUP3 ADD MSTORE POP JUMP JUMPDEST PUSH32 0x796F752068617665207369676E656420666F722063616E63656C6C6174696F6E PUSH1 0x0 DUP3 ADD MSTORE PUSH32 0x2C20646F6E277420726570656174000000000000000000000000000000000000 PUSH1 0x20 DUP3 ADD MSTORE POP JUMP JUMPDEST PUSH32 0x696E76616C696420746172676574416464726573730000000000000000000000 PUSH1 0x0 DUP3 ADD MSTORE POP JUMP JUMPDEST PUSH32 0x7468657265206973206E6F20776974686472617720616374696F6E2077616974 PUSH1 0x0 DUP3 ADD MSTORE PUSH32 0x696E6720666F72207369676E0000000000000000000000000000000000000000 PUSH1 0x20 DUP3 ADD MSTORE POP JUMP JUMPDEST PUSH32 0x796F752068617665207369676E65642074686973207769746864726177207072 PUSH1 0x0 DUP3 ADD MSTORE PUSH32 0x6F636573732C20706C7A20646F6E2774207265706561742E0000000000000000 PUSH1 0x20 DUP3 ADD MSTORE POP JUMP JUMPDEST PUSH32 0x544F50494E206D757374206D6F7265207468616E2030207765692C20696E6465 PUSH1 0x0 DUP3 ADD MSTORE PUSH32 0x656420746865206761732066656520646F206E6F742064656372656173652069 PUSH1 0x20 DUP3 ADD MSTORE PUSH32 0x6620796F7520746F70696E2061206C6F772076616C75652E0000000000000000 PUSH1 0x40 DUP3 ADD MSTORE POP JUMP JUMPDEST PUSH32 0x7072652070726F6365737320686173206E6F74206265656E206F766572000000 PUSH1 0x0 DUP3 ADD MSTORE POP JUMP JUMPDEST PUSH32 0x6F6E6C7920636F6C6C61626F7261746F7273206861766520746865207065726D PUSH1 0x0 DUP3 ADD MSTORE PUSH32 0x697373696F6E0000000000000000000000000000000000000000000000000000 PUSH1 0x20 DUP3 ADD MSTORE POP JUMP JUMPDEST PUSH32 0x6F6E6C792074686520696E69746961746F722063616E2063616E63656C207468 PUSH1 0x0 DUP3 ADD MSTORE PUSH32 0x69732070726F6365737300000000000000000000000000000000000000000000 PUSH1 0x20 DUP3 ADD MSTORE POP JUMP JUMPDEST PUSH32 0x77697468647261772062616C616E636520636F756C64206E6F74206D6F726520 PUSH1 0x0 DUP3 ADD MSTORE PUSH32 0x7468616E2062616C616E63650000000000000000000000000000000000000000 PUSH1 0x20 DUP3 ADD MSTORE POP JUMP JUMPDEST PUSH2 0x1691 DUP2 PUSH2 0x122A JUMP JUMPDEST DUP2 EQ PUSH2 0x169C JUMPI PUSH1 0x0 DUP1 REVERT JUMPDEST POP JUMP JUMPDEST PUSH2 0x16A8 DUP2 PUSH2 0x125C JUMP JUMPDEST DUP2 EQ PUSH2 0x16B3 JUMPI PUSH1 0x0 DUP1 REVERT JUMPDEST POP JUMP INVALID LOG2 PUSH5 0x6970667358 0x22 SLT KECCAK256 0x4F DUP9 0xC1 STOP DUP10 0xE5 SWAP8 ISZERO PUSH31 0x1FF33FB3BD3D6FA82BE610E2C109CEE9405007810446A364736F6C63430008 SMOD STOP CALLER "
				},
				"gasEstimates": {
					"creation": {
						"codeDepositCost": "1173600",
						"executionCost": "infinite",
						"totalCost": "infinite"
					},
					"external": {
						"balance()": "2473",
						"cancel_withdraw()": "infinite",
						"cancel_withdraw_by_counterparty()": "infinite",
						"collaboratorSign()": "infinite",
						"process_withdraw(uint256,address)": "infinite",
						"topin()": "infinite",
						"withdraw_count()": "2495"
					},
					"internal": {
						"address_array_in(address[] memory,address)": "infinite",
						"already_signed()": "infinite",
						"do_cancel_withdraw()": "infinite",
						"is_oneof_collaborators()": "infinite",
						"no_duplicated_collaborators()": "infinite",
						"signedCountEnough()": "infinite"
					}
				},
				"methodIdentifiers": {
					"balance()": "b69ef8a8",
					"cancel_withdraw()": "b517e0b4",
					"cancel_withdraw_by_counterparty()": "1535430b",
					"collaboratorSign()": "352ce050",
					"process_withdraw(uint256,address)": "003bdf3e",
					"topin()": "68a1376b",
					"withdraw_count()": "ca3ea43f"
				}
			},
			"storageLayout": {
				"storage": [
					{
						"astId": 5,
						"contract": "contracts/MultisigWallet.sol:MultisigWallet",
						"label": "balance",
						"offset": 0,
						"slot": "0",
						"type": "t_uint256"
					},
					{
						"astId": 8,
						"contract": "contracts/MultisigWallet.sol:MultisigWallet",
						"label": "owner",
						"offset": 0,
						"slot": "1",
						"type": "t_address"
					},
					{
						"astId": 12,
						"contract": "contracts/MultisigWallet.sol:MultisigWallet",
						"label": "collaborators",
						"offset": 0,
						"slot": "2",
						"type": "t_array(t_address)dyn_storage"
					},
					{
						"astId": 15,
						"contract": "contracts/MultisigWallet.sol:MultisigWallet",
						"label": "at_least_sign_count",
						"offset": 0,
						"slot": "3",
						"type": "t_uint8"
					},
					{
						"astId": 18,
						"contract": "contracts/MultisigWallet.sol:MultisigWallet",
						"label": "waitfor_withdraw_wei",
						"offset": 0,
						"slot": "4",
						"type": "t_uint256"
					},
					{
						"astId": 21,
						"contract": "contracts/MultisigWallet.sol:MultisigWallet",
						"label": "waitfor_withdraw_address",
						"offset": 0,
						"slot": "5",
						"type": "t_address_payable"
					},
					{
						"astId": 24,
						"contract": "contracts/MultisigWallet.sol:MultisigWallet",
						"label": "initiator",
						"offset": 0,
						"slot": "6",
						"type": "t_address"
					},
					{
						"astId": 28,
						"contract": "contracts/MultisigWallet.sol:MultisigWallet",
						"label": "current_signed",
						"offset": 0,
						"slot": "7",
						"type": "t_array(t_address)dyn_storage"
					},
					{
						"astId": 32,
						"contract": "contracts/MultisigWallet.sol:MultisigWallet",
						"label": "current_cancel_counterparty_signed",
						"offset": 0,
						"slot": "8",
						"type": "t_array(t_address)dyn_storage"
					},
					{
						"astId": 35,
						"contract": "contracts/MultisigWallet.sol:MultisigWallet",
						"label": "withdraw_count",
						"offset": 0,
						"slot": "9",
						"type": "t_uint256"
					}
				],
				"types": {
					"t_address": {
						"encoding": "inplace",
						"label": "address",
						"numberOfBytes": "20"
					},
					"t_address_payable": {
						"encoding": "inplace",
						"label": "address payable",
						"numberOfBytes": "20"
					},
					"t_array(t_address)dyn_storage": {
						"base": "t_address",
						"encoding": "dynamic_array",
						"label": "address[]",
						"numberOfBytes": "32"
					},
					"t_uint256": {
						"encoding": "inplace",
						"label": "uint256",
						"numberOfBytes": "32"
					},
					"t_uint8": {
						"encoding": "inplace",
						"label": "uint8",
						"numberOfBytes": "1"
					}
				}
			},
			"userdoc": {
				"kind": "user",
				"methods": {
					"balance()": {
						"notice": "当前余额，单位是wei"
					},
					"cancel_withdraw()": {
						"notice": "发起方才能直接取消提款"
					},
					"cancel_withdraw_by_counterparty()": {
						"notice": "增加一个另外全方，协作罢免发起方的提款请求 这是在发起方帐户丢失时才需要干的事情，防止合同废掉了，卡死在这里 发起方会先签名一次，如果金额有误且非常重大但刚好帐户丢失，直接让另外一方签署 容易导致大额损失，所以通过取消的操作来进行。"
					},
					"collaboratorSign()": {
						"notice": "协作方签名，只要进来这个函数，就是说明前面的以太坊认证已经通过，收集地址即可。 当最后一个签名方满足多签需求的时候，直接发起转账提款"
					},
					"topin()": {
						"notice": "充值转入，谁都可以转，用于收款"
					},
					"withdraw_count()": {
						"notice": "记录转账多少次，可以设置一些条款，例如前10次免费，之后按xx比例收取手续费。 手续费打入xx帐户。"
					}
				},
				"notice": "多签名钱包简单实现。",
				"version": 1
			}
		}
	}
}