{
	"contracts/MultisigWallet.sol": {
		"MultisigWallet": {
			"abi": [
				{
					"inputs": [
						{
							"internalType": "address[]",
							"name": "collaborators_",
							"type": "address[]"
						},
						{
							"internalType": "uint8",
							"name": "at_least_sign_count_",
							"type": "uint8"
						}
					],
					"stateMutability": "nonpayable",
					"type": "constructor"
				},
				{
					"anonymous": false,
					"inputs": [
						{
							"indexed": true,
							"internalType": "address",
							"name": "initiator",
							"type": "address"
						}
					],
					"name": "CancelByInitiator",
					"type": "event"
				},
				{
					"anonymous": false,
					"inputs": [
						{
							"indexed": true,
							"internalType": "address[]",
							"name": "counter_parties",
							"type": "address[]"
						}
					],
					"name": "CanceledByCounterParties",
					"type": "event"
				},
				{
					"anonymous": false,
					"inputs": [
						{
							"indexed": true,
							"internalType": "address",
							"name": "counter_party",
							"type": "address"
						}
					],
					"name": "CancellingByCounterPartiesSign",
					"type": "event"
				},
				{
					"anonymous": false,
					"inputs": [
						{
							"indexed": true,
							"internalType": "address",
							"name": "collaborator",
							"type": "address"
						}
					],
					"name": "CollaboratorSign",
					"type": "event"
				},
				{
					"anonymous": false,
					"inputs": [
						{
							"indexed": true,
							"internalType": "address",
							"name": "deployer",
							"type": "address"
						},
						{
							"indexed": false,
							"internalType": "address[]",
							"name": "collaborators",
							"type": "address[]"
						},
						{
							"indexed": false,
							"internalType": "uint8",
							"name": "at_least_sign_count",
							"type": "uint8"
						}
					],
					"name": "ContractSetup",
					"type": "event"
				},
				{
					"anonymous": false,
					"inputs": [
						{
							"indexed": true,
							"internalType": "address",
							"name": "sender",
							"type": "address"
						},
						{
							"indexed": true,
							"internalType": "uint256",
							"name": "amount",
							"type": "uint256"
						}
					],
					"name": "Deposit",
					"type": "event"
				},
				{
					"anonymous": false,
					"inputs": [
						{
							"indexed": true,
							"internalType": "address",
							"name": "initiator",
							"type": "address"
						},
						{
							"indexed": true,
							"internalType": "uint256",
							"name": "amount",
							"type": "uint256"
						}
					],
					"name": "ProcessWithdraw",
					"type": "event"
				},
				{
					"inputs": [],
					"name": "balance",
					"outputs": [
						{
							"internalType": "uint256",
							"name": "",
							"type": "uint256"
						}
					],
					"stateMutability": "view",
					"type": "function"
				},
				{
					"inputs": [],
					"name": "cancel_withdraw",
					"outputs": [],
					"stateMutability": "nonpayable",
					"type": "function"
				},
				{
					"inputs": [],
					"name": "cancel_withdraw_by_counterparty",
					"outputs": [],
					"stateMutability": "nonpayable",
					"type": "function"
				},
				{
					"inputs": [
						{
							"internalType": "address",
							"name": "newAccount",
							"type": "address"
						}
					],
					"name": "changePlatformAccount",
					"outputs": [],
					"stateMutability": "nonpayable",
					"type": "function"
				},
				{
					"inputs": [],
					"name": "collaboratorSign",
					"outputs": [],
					"stateMutability": "nonpayable",
					"type": "function"
				},
				{
					"inputs": [
						{
							"internalType": "uint256",
							"name": "weis",
							"type": "uint256"
						},
						{
							"internalType": "address payable",
							"name": "targetAddress",
							"type": "address"
						}
					],
					"name": "process_withdraw",
					"outputs": [],
					"stateMutability": "nonpayable",
					"type": "function"
				},
				{
					"inputs": [],
					"name": "withdraw_count",
					"outputs": [
						{
							"internalType": "uint256",
							"name": "",
							"type": "uint256"
						}
					],
					"stateMutability": "view",
					"type": "function"
				},
				{
					"inputs": [],
					"name": "withdraw_fee_rate",
					"outputs": [
						{
							"internalType": "uint256",
							"name": "",
							"type": "uint256"
						}
					],
					"stateMutability": "view",
					"type": "function"
				},
				{
					"inputs": [],
					"name": "withdraw_free_count",
					"outputs": [
						{
							"internalType": "uint256",
							"name": "",
							"type": "uint256"
						}
					],
					"stateMutability": "view",
					"type": "function"
				},
				{
					"stateMutability": "payable",
					"type": "receive"
				}
			],
			"devdoc": {
				"kind": "dev",
				"methods": {},
				"version": 1
			},
			"evm": {
				"assembly": "    /* \"contracts/MultisigWallet.sol\":108:8175  contract MultisigWallet {... */\n  mstore(0x40, 0x80)\n    /* \"contracts/MultisigWallet.sol\":1930:2740  constructor(address[] memory collaborators_, uint8 at_least_sign_count_) {... */\n  callvalue\n  dup1\n  iszero\n  tag_1\n  jumpi\n  0x00\n  dup1\n  revert\ntag_1:\n  pop\n  mload(0x40)\n  sub(codesize, bytecodeSize)\n  dup1\n  bytecodeSize\n  dup4\n  codecopy\n  dup2\n  dup2\n  add\n  0x40\n  mstore\n  dup2\n  add\n  swap1\n  tag_2\n  swap2\n  swap1\n  tag_3\n  jump\t// in\ntag_2:\n    /* \"contracts/MultisigWallet.sol\":2015:2025  msg.sender */\n  caller\n    /* \"contracts/MultisigWallet.sol\":2007:2012  owner */\n  0x01\n  0x00\n    /* \"contracts/MultisigWallet.sol\":2007:2025  owner = msg.sender */\n  0x0100\n  exp\n  dup2\n  sload\n  dup2\n  0xffffffffffffffffffffffffffffffffffffffff\n  mul\n  not\n  and\n  swap1\n  dup4\n  0xffffffffffffffffffffffffffffffffffffffff\n  and\n  mul\n  or\n  swap1\n  sstore\n  pop\n    /* \"contracts/MultisigWallet.sol\":2061:2062  0 */\n  0x00\n    /* \"contracts/MultisigWallet.sol\":2037:2051  collaborators_ */\n  dup3\n    /* \"contracts/MultisigWallet.sol\":2037:2058  collaborators_.length */\n  mload\n    /* \"contracts/MultisigWallet.sol\":2037:2062  collaborators_.length > 0 */\n  gt\n    /* \"contracts/MultisigWallet.sol\":2029:2103  require(collaborators_.length > 0, \"all collaborators count at least one\") */\n  tag_6\n  jumpi\n  mload(0x40)\n  0x08c379a000000000000000000000000000000000000000000000000000000000\n  dup2\n  mstore\n  0x04\n  add\n  tag_7\n  swap1\n  tag_8\n  jump\t// in\ntag_7:\n  mload(0x40)\n  dup1\n  swap2\n  sub\n  swap1\n  revert\ntag_6:\n    /* \"contracts/MultisigWallet.sol\":2115:2144  no_duplicated_collaborators() */\n  tag_9\n    /* \"contracts/MultisigWallet.sol\":2115:2142  no_duplicated_collaborators */\n  shl(0x20, tag_10)\n    /* \"contracts/MultisigWallet.sol\":2115:2144  no_duplicated_collaborators() */\n  0x20\n  shr\n  jump\t// in\ntag_9:\n    /* \"contracts/MultisigWallet.sol\":2107:2188  require(no_duplicated_collaborators(), \"the collaborators must no be duplicated\") */\n  tag_11\n  jumpi\n  mload(0x40)\n  0x08c379a000000000000000000000000000000000000000000000000000000000\n  dup2\n  mstore\n  0x04\n  add\n  tag_12\n  swap1\n  tag_13\n  jump\t// in\ntag_12:\n  mload(0x40)\n  dup1\n  swap2\n  sub\n  swap1\n  revert\ntag_11:\n    /* \"contracts/MultisigWallet.sol\":2223:2224  0 */\n  0x00\n    /* \"contracts/MultisigWallet.sol\":2200:2220  at_least_sign_count_ */\n  dup2\n    /* \"contracts/MultisigWallet.sol\":2200:2224  at_least_sign_count_ > 0 */\n  0xff\n  and\n  gt\n    /* \"contracts/MultisigWallet.sol\":2200:2273  at_least_sign_count_ > 0 && at_least_sign_count_ <= collaborators_.length */\n  dup1\n  iszero\n  tag_14\n  jumpi\n  pop\n    /* \"contracts/MultisigWallet.sol\":2252:2266  collaborators_ */\n  dup2\n    /* \"contracts/MultisigWallet.sol\":2252:2273  collaborators_.length */\n  mload\n    /* \"contracts/MultisigWallet.sol\":2228:2248  at_least_sign_count_ */\n  dup2\n    /* \"contracts/MultisigWallet.sol\":2228:2273  at_least_sign_count_ <= collaborators_.length */\n  0xff\n  and\n  gt\n  iszero\n    /* \"contracts/MultisigWallet.sol\":2200:2273  at_least_sign_count_ > 0 && at_least_sign_count_ <= collaborators_.length */\ntag_14:\n    /* \"contracts/MultisigWallet.sol\":2192:2358  require(at_least_sign_count_ > 0 && at_least_sign_count_ <= collaborators_.length, \"at least sign count must more than 0 and less than or equals collaborators count\") */\n  tag_15\n  jumpi\n  mload(0x40)\n  0x08c379a000000000000000000000000000000000000000000000000000000000\n  dup2\n  mstore\n  0x04\n  add\n  tag_16\n  swap1\n  tag_17\n  jump\t// in\ntag_16:\n  mload(0x40)\n  dup1\n  swap2\n  sub\n  swap1\n  revert\ntag_15:\n    /* \"contracts/MultisigWallet.sol\":2378:2392  collaborators_ */\n  dup2\n    /* \"contracts/MultisigWallet.sol\":2362:2375  collaborators */\n  0x02\n    /* \"contracts/MultisigWallet.sol\":2362:2392  collaborators = collaborators_ */\n  swap1\n  dup1\n  mload\n  swap1\n  0x20\n  add\n  swap1\n  tag_18\n  swap3\n  swap2\n  swap1\n  tag_19\n  jump\t// in\ntag_18:\n  pop\n    /* \"contracts/MultisigWallet.sol\":2420:2440  at_least_sign_count_ */\n  dup1\n    /* \"contracts/MultisigWallet.sol\":2398:2417  at_least_sign_count */\n  0x03\n  0x00\n    /* \"contracts/MultisigWallet.sol\":2398:2440  at_least_sign_count = at_least_sign_count_ */\n  0x0100\n  exp\n  dup2\n  sload\n  dup2\n  0xff\n  mul\n  not\n  and\n  swap1\n  dup4\n  0xff\n  and\n  mul\n  or\n  swap1\n  sstore\n  pop\n    /* \"contracts/MultisigWallet.sol\":2563:2605  0xdD870fA1b7C4700F2BD7f44238821C26f7392148 */\n  0xdd870fa1b7c4700f2bd7f44238821c26f7392148\n    /* \"contracts/MultisigWallet.sol\":2536:2552  platform_account */\n  0x0c\n  0x00\n    /* \"contracts/MultisigWallet.sol\":2536:2606  platform_account = payable(0xdD870fA1b7C4700F2BD7f44238821C26f7392148) */\n  0x0100\n  exp\n  dup2\n  sload\n  dup2\n  0xffffffffffffffffffffffffffffffffffffffff\n  mul\n  not\n  and\n  swap1\n  dup4\n  0xffffffffffffffffffffffffffffffffffffffff\n  and\n  mul\n  or\n  swap1\n  sstore\n  pop\n    /* \"contracts/MultisigWallet.sol\":2636:2638  20 */\n  0x14\n    /* \"contracts/MultisigWallet.sol\":2616:2633  withdraw_fee_rate */\n  0x0a\n    /* \"contracts/MultisigWallet.sol\":2616:2638  withdraw_fee_rate = 20 */\n  dup2\n  swap1\n  sstore\n  pop\n    /* \"contracts/MultisigWallet.sol\":2670:2671  5 */\n  0x05\n    /* \"contracts/MultisigWallet.sol\":2648:2667  withdraw_free_count */\n  0x0b\n    /* \"contracts/MultisigWallet.sol\":2648:2671  withdraw_free_count = 5 */\n  dup2\n  swap1\n  sstore\n  pop\n    /* \"contracts/MultisigWallet.sol\":2694:2699  owner */\n  0x01\n  0x00\n  swap1\n  sload\n  swap1\n  0x0100\n  exp\n  swap1\n  div\n  0xffffffffffffffffffffffffffffffffffffffff\n  and\n    /* \"contracts/MultisigWallet.sol\":2680:2736  ContractSetup(owner, collaborators, at_least_sign_count) */\n  0xffffffffffffffffffffffffffffffffffffffff\n  and\n  0x89e2b4055c1d8caf36018e020d7898aeb3b3d3611c9a02083f0fd59779f6e311\n    /* \"contracts/MultisigWallet.sol\":2701:2714  collaborators */\n  0x02\n    /* \"contracts/MultisigWallet.sol\":2716:2735  at_least_sign_count */\n  0x03\n  0x00\n  swap1\n  sload\n  swap1\n  0x0100\n  exp\n  swap1\n  div\n  0xff\n  and\n    /* \"contracts/MultisigWallet.sol\":2680:2736  ContractSetup(owner, collaborators, at_least_sign_count) */\n  mload(0x40)\n  tag_20\n  swap3\n  swap2\n  swap1\n  tag_21\n  jump\t// in\ntag_20:\n  mload(0x40)\n  dup1\n  swap2\n  sub\n  swap1\n  log2\n    /* \"contracts/MultisigWallet.sol\":1930:2740  constructor(address[] memory collaborators_, uint8 at_least_sign_count_) {... */\n  pop\n  pop\n    /* \"contracts/MultisigWallet.sol\":108:8175  contract MultisigWallet {... */\n  jump(tag_22)\n    /* \"contracts/MultisigWallet.sol\":2974:3344  function no_duplicated_collaborators() private view returns (bool) {... */\ntag_10:\n    /* \"contracts/MultisigWallet.sol\":3035:3039  bool */\n  0x00\n    /* \"contracts/MultisigWallet.sol\":3045:3060  bool duplicated */\n  dup1\n    /* \"contracts/MultisigWallet.sol\":3063:3068  false */\n  0x00\n    /* \"contracts/MultisigWallet.sol\":3045:3068  bool duplicated = false */\n  swap1\n  pop\n    /* \"contracts/MultisigWallet.sol\":3076:3082  uint i */\n  0x00\n    /* \"contracts/MultisigWallet.sol\":3072:3319  for(uint i=0; i<collaborators.length; i++) {... */\ntag_24:\n    /* \"contracts/MultisigWallet.sol\":3088:3101  collaborators */\n  0x02\n    /* \"contracts/MultisigWallet.sol\":3088:3108  collaborators.length */\n  dup1\n  sload\n  swap1\n  pop\n    /* \"contracts/MultisigWallet.sol\":3086:3087  i */\n  dup2\n    /* \"contracts/MultisigWallet.sol\":3086:3108  i<collaborators.length */\n  lt\n    /* \"contracts/MultisigWallet.sol\":3072:3319  for(uint i=0; i<collaborators.length; i++) {... */\n  iszero\n  tag_25\n  jumpi\n    /* \"contracts/MultisigWallet.sol\":3151:3152  1 */\n  0x01\n    /* \"contracts/MultisigWallet.sol\":3128:3141  collaborators */\n  0x02\n    /* \"contracts/MultisigWallet.sol\":3128:3148  collaborators.length */\n  dup1\n  sload\n  swap1\n  pop\n    /* \"contracts/MultisigWallet.sol\":3128:3152  collaborators.length - 1 */\n  tag_27\n  swap2\n  swap1\n  tag_28\n  jump\t// in\ntag_27:\n    /* \"contracts/MultisigWallet.sol\":3123:3124  i */\n  dup2\n    /* \"contracts/MultisigWallet.sol\":3123:3152  i == collaborators.length - 1 */\n  eq\n    /* \"contracts/MultisigWallet.sol\":3120:3171  if(i == collaborators.length - 1) {... */\n  iszero\n  tag_29\n  jumpi\n    /* \"contracts/MultisigWallet.sol\":3160:3165  break */\n  jump(tag_25)\n    /* \"contracts/MultisigWallet.sol\":3120:3171  if(i == collaborators.length - 1) {... */\ntag_29:\n    /* \"contracts/MultisigWallet.sol\":3179:3185  uint j */\n  0x00\n    /* \"contracts/MultisigWallet.sol\":3188:3189  1 */\n  0x01\n    /* \"contracts/MultisigWallet.sol\":3186:3187  i */\n  dup3\n    /* \"contracts/MultisigWallet.sol\":3186:3189  i+1 */\n  tag_33\n  swap2\n  swap1\n  tag_34\n  jump\t// in\ntag_33:\n    /* \"contracts/MultisigWallet.sol\":3179:3189  uint j=i+1 */\n  swap1\n  pop\n    /* \"contracts/MultisigWallet.sol\":3175:3315  for(uint j=i+1; j<collaborators.length; j++) {... */\ntag_30:\n    /* \"contracts/MultisigWallet.sol\":3193:3206  collaborators */\n  0x02\n    /* \"contracts/MultisigWallet.sol\":3193:3213  collaborators.length */\n  dup1\n  sload\n  swap1\n  pop\n    /* \"contracts/MultisigWallet.sol\":3191:3192  j */\n  dup2\n    /* \"contracts/MultisigWallet.sol\":3191:3213  j<collaborators.length */\n  lt\n    /* \"contracts/MultisigWallet.sol\":3175:3315  for(uint j=i+1; j<collaborators.length; j++) {... */\n  iszero\n  tag_31\n  jumpi\n    /* \"contracts/MultisigWallet.sol\":3249:3262  collaborators */\n  0x02\n    /* \"contracts/MultisigWallet.sol\":3263:3264  j */\n  dup2\n    /* \"contracts/MultisigWallet.sol\":3249:3265  collaborators[j] */\n  dup2\n  sload\n  dup2\n  lt\n  tag_35\n  jumpi\n  tag_36\n  tag_37\n  jump\t// in\ntag_36:\ntag_35:\n  swap1\n  0x00\n  mstore\n  keccak256(0x00, 0x20)\n  add\n  0x00\n  swap1\n  sload\n  swap1\n  0x0100\n  exp\n  swap1\n  div\n  0xffffffffffffffffffffffffffffffffffffffff\n  and\n    /* \"contracts/MultisigWallet.sol\":3229:3265  collaborators[i] == collaborators[j] */\n  0xffffffffffffffffffffffffffffffffffffffff\n  and\n    /* \"contracts/MultisigWallet.sol\":3229:3242  collaborators */\n  0x02\n    /* \"contracts/MultisigWallet.sol\":3243:3244  i */\n  dup4\n    /* \"contracts/MultisigWallet.sol\":3229:3245  collaborators[i] */\n  dup2\n  sload\n  dup2\n  lt\n  tag_39\n  jumpi\n  tag_40\n  tag_37\n  jump\t// in\ntag_40:\ntag_39:\n  swap1\n  0x00\n  mstore\n  keccak256(0x00, 0x20)\n  add\n  0x00\n  swap1\n  sload\n  swap1\n  0x0100\n  exp\n  swap1\n  div\n  0xffffffffffffffffffffffffffffffffffffffff\n  and\n    /* \"contracts/MultisigWallet.sol\":3229:3265  collaborators[i] == collaborators[j] */\n  0xffffffffffffffffffffffffffffffffffffffff\n  and\n  eq\n    /* \"contracts/MultisigWallet.sol\":3226:3310  if(collaborators[i] == collaborators[j]) {... */\n  iszero\n  tag_42\n  jumpi\n    /* \"contracts/MultisigWallet.sol\":3287:3291  true */\n  0x01\n    /* \"contracts/MultisigWallet.sol\":3274:3291  duplicated = true */\n  swap3\n  pop\n    /* \"contracts/MultisigWallet.sol\":3298:3303  break */\n  jump(tag_31)\n    /* \"contracts/MultisigWallet.sol\":3226:3310  if(collaborators[i] == collaborators[j]) {... */\ntag_42:\n    /* \"contracts/MultisigWallet.sol\":3215:3218  j++ */\n  dup1\n  dup1\n  tag_43\n  swap1\n  tag_44\n  jump\t// in\ntag_43:\n  swap2\n  pop\n  pop\n    /* \"contracts/MultisigWallet.sol\":3175:3315  for(uint j=i+1; j<collaborators.length; j++) {... */\n  jump(tag_30)\ntag_31:\n  pop\n    /* \"contracts/MultisigWallet.sol\":3110:3113  i++ */\n  dup1\n  dup1\n  tag_45\n  swap1\n  tag_44\n  jump\t// in\ntag_45:\n  swap2\n  pop\n  pop\n    /* \"contracts/MultisigWallet.sol\":3072:3319  for(uint i=0; i<collaborators.length; i++) {... */\n  jump(tag_24)\ntag_25:\n  pop\n    /* \"contracts/MultisigWallet.sol\":3330:3340  duplicated */\n  dup1\n    /* \"contracts/MultisigWallet.sol\":3329:3340  !duplicated */\n  iszero\n    /* \"contracts/MultisigWallet.sol\":3322:3340  return !duplicated */\n  swap2\n  pop\n  pop\n    /* \"contracts/MultisigWallet.sol\":2974:3344  function no_duplicated_collaborators() private view returns (bool) {... */\n  swap1\n  jump\t// out\n    /* \"contracts/MultisigWallet.sol\":108:8175  contract MultisigWallet {... */\ntag_19:\n  dup3\n  dup1\n  sload\n  dup3\n  dup3\n  sstore\n  swap1\n  0x00\n  mstore\n  keccak256(0x00, 0x20)\n  swap1\n  dup2\n  add\n  swap3\n  dup3\n  iszero\n  tag_46\n  jumpi\n  swap2\n  0x20\n  mul\n  dup3\n  add\ntag_47:\n  dup3\n  dup2\n  gt\n  iszero\n  tag_48\n  jumpi\n  dup3\n  mload\n  dup3\n  exp(0x0100, 0x00)\n  dup2\n  sload\n  dup2\n  0xffffffffffffffffffffffffffffffffffffffff\n  mul\n  not\n  and\n  swap1\n  dup4\n  0xffffffffffffffffffffffffffffffffffffffff\n  and\n  mul\n  or\n  swap1\n  sstore\n  pop\n  swap2\n  0x20\n  add\n  swap2\n  swap1\n  0x01\n  add\n  swap1\n  jump(tag_47)\ntag_48:\ntag_46:\n  pop\n  swap1\n  pop\n  tag_49\n  swap2\n  swap1\n  tag_50\n  jump\t// in\ntag_49:\n  pop\n  swap1\n  jump\t// out\ntag_50:\ntag_51:\n  dup1\n  dup3\n  gt\n  iszero\n  tag_52\n  jumpi\n  0x00\n  dup2\n  0x00\n  swap1\n  sstore\n  pop\n  0x01\n  add\n  jump(tag_51)\ntag_52:\n  pop\n  swap1\n  jump\t// out\n    /* \"#utility.yul\":24:768   */\ntag_54:\n    /* \"#utility.yul\":131:136   */\n  0x00\n    /* \"#utility.yul\":156:237   */\n  tag_56\n    /* \"#utility.yul\":172:236   */\n  tag_57\n    /* \"#utility.yul\":229:235   */\n  dup5\n    /* \"#utility.yul\":172:236   */\n  tag_58\n  jump\t// in\ntag_57:\n    /* \"#utility.yul\":156:237   */\n  tag_59\n  jump\t// in\ntag_56:\n    /* \"#utility.yul\":147:237   */\n  swap1\n  pop\n    /* \"#utility.yul\":257:262   */\n  dup1\n    /* \"#utility.yul\":286:292   */\n  dup4\n    /* \"#utility.yul\":279:284   */\n  dup3\n    /* \"#utility.yul\":272:293   */\n  mstore\n    /* \"#utility.yul\":320:324   */\n  0x20\n    /* \"#utility.yul\":313:318   */\n  dup3\n    /* \"#utility.yul\":309:325   */\n  add\n    /* \"#utility.yul\":302:325   */\n  swap1\n  pop\n    /* \"#utility.yul\":346:352   */\n  dup3\n    /* \"#utility.yul\":396:399   */\n  dup6\n    /* \"#utility.yul\":388:392   */\n  0x20\n    /* \"#utility.yul\":380:386   */\n  dup7\n    /* \"#utility.yul\":376:393   */\n  mul\n    /* \"#utility.yul\":371:374   */\n  dup3\n    /* \"#utility.yul\":367:394   */\n  add\n    /* \"#utility.yul\":364:400   */\n  gt\n    /* \"#utility.yul\":361:504   */\n  iszero\n  tag_60\n  jumpi\n    /* \"#utility.yul\":415:494   */\n  tag_61\n  tag_62\n  jump\t// in\ntag_61:\n    /* \"#utility.yul\":361:504   */\ntag_60:\n    /* \"#utility.yul\":528:529   */\n  0x00\n    /* \"#utility.yul\":513:762   */\ntag_63:\n    /* \"#utility.yul\":538:544   */\n  dup6\n    /* \"#utility.yul\":535:536   */\n  dup2\n    /* \"#utility.yul\":532:545   */\n  lt\n    /* \"#utility.yul\":513:762   */\n  iszero\n  tag_65\n  jumpi\n    /* \"#utility.yul\":606:609   */\n  dup2\n    /* \"#utility.yul\":635:683   */\n  tag_66\n    /* \"#utility.yul\":679:682   */\n  dup9\n    /* \"#utility.yul\":667:677   */\n  dup3\n    /* \"#utility.yul\":635:683   */\n  tag_67\n  jump\t// in\ntag_66:\n    /* \"#utility.yul\":630:633   */\n  dup5\n    /* \"#utility.yul\":623:684   */\n  mstore\n    /* \"#utility.yul\":713:717   */\n  0x20\n    /* \"#utility.yul\":708:711   */\n  dup5\n    /* \"#utility.yul\":704:718   */\n  add\n    /* \"#utility.yul\":697:718   */\n  swap4\n  pop\n    /* \"#utility.yul\":747:751   */\n  0x20\n    /* \"#utility.yul\":742:745   */\n  dup4\n    /* \"#utility.yul\":738:752   */\n  add\n    /* \"#utility.yul\":731:752   */\n  swap3\n  pop\n    /* \"#utility.yul\":573:762   */\n  pop\n    /* \"#utility.yul\":560:561   */\n  0x01\n    /* \"#utility.yul\":557:558   */\n  dup2\n    /* \"#utility.yul\":553:562   */\n  add\n    /* \"#utility.yul\":548:562   */\n  swap1\n  pop\n    /* \"#utility.yul\":513:762   */\n  jump(tag_63)\ntag_65:\n    /* \"#utility.yul\":517:531   */\n  pop\n    /* \"#utility.yul\":137:768   */\n  pop\n  pop\n    /* \"#utility.yul\":24:768   */\n  swap4\n  swap3\n  pop\n  pop\n  pop\n  jump\t// out\n    /* \"#utility.yul\":774:917   */\ntag_67:\n    /* \"#utility.yul\":831:836   */\n  0x00\n    /* \"#utility.yul\":862:868   */\n  dup2\n    /* \"#utility.yul\":856:869   */\n  mload\n    /* \"#utility.yul\":847:869   */\n  swap1\n  pop\n    /* \"#utility.yul\":878:911   */\n  tag_69\n    /* \"#utility.yul\":905:910   */\n  dup2\n    /* \"#utility.yul\":878:911   */\n  tag_70\n  jump\t// in\ntag_69:\n    /* \"#utility.yul\":774:917   */\n  swap3\n  swap2\n  pop\n  pop\n  jump\t// out\n    /* \"#utility.yul\":940:1325   */\ntag_71:\n    /* \"#utility.yul\":1022:1027   */\n  0x00\n    /* \"#utility.yul\":1071:1074   */\n  dup3\n    /* \"#utility.yul\":1064:1068   */\n  0x1f\n    /* \"#utility.yul\":1056:1062   */\n  dup4\n    /* \"#utility.yul\":1052:1069   */\n  add\n    /* \"#utility.yul\":1048:1075   */\n  slt\n    /* \"#utility.yul\":1038:1160   */\n  tag_73\n  jumpi\n    /* \"#utility.yul\":1079:1158   */\n  tag_74\n  tag_75\n  jump\t// in\ntag_74:\n    /* \"#utility.yul\":1038:1160   */\ntag_73:\n    /* \"#utility.yul\":1189:1195   */\n  dup2\n    /* \"#utility.yul\":1183:1196   */\n  mload\n    /* \"#utility.yul\":1214:1319   */\n  tag_76\n    /* \"#utility.yul\":1315:1318   */\n  dup5\n    /* \"#utility.yul\":1307:1313   */\n  dup3\n    /* \"#utility.yul\":1300:1304   */\n  0x20\n    /* \"#utility.yul\":1292:1298   */\n  dup7\n    /* \"#utility.yul\":1288:1305   */\n  add\n    /* \"#utility.yul\":1214:1319   */\n  tag_54\n  jump\t// in\ntag_76:\n    /* \"#utility.yul\":1205:1319   */\n  swap2\n  pop\n    /* \"#utility.yul\":1028:1325   */\n  pop\n    /* \"#utility.yul\":940:1325   */\n  swap3\n  swap2\n  pop\n  pop\n  jump\t// out\n    /* \"#utility.yul\":1331:1470   */\ntag_77:\n    /* \"#utility.yul\":1386:1391   */\n  0x00\n    /* \"#utility.yul\":1417:1423   */\n  dup2\n    /* \"#utility.yul\":1411:1424   */\n  mload\n    /* \"#utility.yul\":1402:1424   */\n  swap1\n  pop\n    /* \"#utility.yul\":1433:1464   */\n  tag_79\n    /* \"#utility.yul\":1458:1463   */\n  dup2\n    /* \"#utility.yul\":1433:1464   */\n  tag_80\n  jump\t// in\ntag_79:\n    /* \"#utility.yul\":1331:1470   */\n  swap3\n  swap2\n  pop\n  pop\n  jump\t// out\n    /* \"#utility.yul\":1476:2182   */\ntag_3:\n    /* \"#utility.yul\":1578:1584   */\n  0x00\n    /* \"#utility.yul\":1586:1592   */\n  dup1\n    /* \"#utility.yul\":1635:1637   */\n  0x40\n    /* \"#utility.yul\":1623:1632   */\n  dup4\n    /* \"#utility.yul\":1614:1621   */\n  dup6\n    /* \"#utility.yul\":1610:1633   */\n  sub\n    /* \"#utility.yul\":1606:1638   */\n  slt\n    /* \"#utility.yul\":1603:1722   */\n  iszero\n  tag_82\n  jumpi\n    /* \"#utility.yul\":1641:1720   */\n  tag_83\n  tag_84\n  jump\t// in\ntag_83:\n    /* \"#utility.yul\":1603:1722   */\ntag_82:\n    /* \"#utility.yul\":1782:1783   */\n  0x00\n    /* \"#utility.yul\":1771:1780   */\n  dup4\n    /* \"#utility.yul\":1767:1784   */\n  add\n    /* \"#utility.yul\":1761:1785   */\n  mload\n    /* \"#utility.yul\":1812:1830   */\n  0xffffffffffffffff\n    /* \"#utility.yul\":1804:1810   */\n  dup2\n    /* \"#utility.yul\":1801:1831   */\n  gt\n    /* \"#utility.yul\":1798:1915   */\n  iszero\n  tag_85\n  jumpi\n    /* \"#utility.yul\":1834:1913   */\n  tag_86\n  tag_87\n  jump\t// in\ntag_86:\n    /* \"#utility.yul\":1798:1915   */\ntag_85:\n    /* \"#utility.yul\":1939:2028   */\n  tag_88\n    /* \"#utility.yul\":2020:2027   */\n  dup6\n    /* \"#utility.yul\":2011:2017   */\n  dup3\n    /* \"#utility.yul\":2000:2009   */\n  dup7\n    /* \"#utility.yul\":1996:2018   */\n  add\n    /* \"#utility.yul\":1939:2028   */\n  tag_71\n  jump\t// in\ntag_88:\n    /* \"#utility.yul\":1929:2028   */\n  swap3\n  pop\n    /* \"#utility.yul\":1732:2038   */\n  pop\n    /* \"#utility.yul\":2077:2079   */\n  0x20\n    /* \"#utility.yul\":2103:2165   */\n  tag_89\n    /* \"#utility.yul\":2157:2164   */\n  dup6\n    /* \"#utility.yul\":2148:2154   */\n  dup3\n    /* \"#utility.yul\":2137:2146   */\n  dup7\n    /* \"#utility.yul\":2133:2155   */\n  add\n    /* \"#utility.yul\":2103:2165   */\n  tag_77\n  jump\t// in\ntag_89:\n    /* \"#utility.yul\":2093:2165   */\n  swap2\n  pop\n    /* \"#utility.yul\":2048:2175   */\n  pop\n    /* \"#utility.yul\":1476:2182   */\n  swap3\n  pop\n  swap3\n  swap1\n  pop\n  jump\t// out\n    /* \"#utility.yul\":2188:2367   */\ntag_90:\n    /* \"#utility.yul\":2257:2267   */\n  0x00\n    /* \"#utility.yul\":2278:2324   */\n  tag_92\n    /* \"#utility.yul\":2320:2323   */\n  dup4\n    /* \"#utility.yul\":2312:2318   */\n  dup4\n    /* \"#utility.yul\":2278:2324   */\n  tag_93\n  jump\t// in\ntag_92:\n    /* \"#utility.yul\":2356:2360   */\n  0x20\n    /* \"#utility.yul\":2351:2354   */\n  dup4\n    /* \"#utility.yul\":2347:2361   */\n  add\n    /* \"#utility.yul\":2333:2361   */\n  swap1\n  pop\n    /* \"#utility.yul\":2188:2367   */\n  swap3\n  swap2\n  pop\n  pop\n  jump\t// out\n    /* \"#utility.yul\":2373:2481   */\ntag_93:\n    /* \"#utility.yul\":2450:2474   */\n  tag_95\n    /* \"#utility.yul\":2468:2473   */\n  dup2\n    /* \"#utility.yul\":2450:2474   */\n  tag_96\n  jump\t// in\ntag_95:\n    /* \"#utility.yul\":2445:2448   */\n  dup3\n    /* \"#utility.yul\":2438:2475   */\n  mstore\n    /* \"#utility.yul\":2373:2481   */\n  pop\n  pop\n  jump\t// out\n    /* \"#utility.yul\":2517:3268   */\ntag_97:\n    /* \"#utility.yul\":2633:2636   */\n  0x00\n    /* \"#utility.yul\":2662:2713   */\n  tag_99\n    /* \"#utility.yul\":2707:2712   */\n  dup3\n    /* \"#utility.yul\":2662:2713   */\n  tag_100\n  jump\t// in\ntag_99:\n    /* \"#utility.yul\":2729:2815   */\n  tag_101\n    /* \"#utility.yul\":2808:2814   */\n  dup2\n    /* \"#utility.yul\":2803:2806   */\n  dup6\n    /* \"#utility.yul\":2729:2815   */\n  tag_102\n  jump\t// in\ntag_101:\n    /* \"#utility.yul\":2722:2815   */\n  swap4\n  pop\n    /* \"#utility.yul\":2839:2892   */\n  tag_103\n    /* \"#utility.yul\":2886:2891   */\n  dup4\n    /* \"#utility.yul\":2839:2892   */\n  tag_104\n  jump\t// in\ntag_103:\n    /* \"#utility.yul\":2915:2922   */\n  dup1\n    /* \"#utility.yul\":2946:2947   */\n  0x00\n    /* \"#utility.yul\":2931:3243   */\ntag_105:\n    /* \"#utility.yul\":2956:2962   */\n  dup4\n    /* \"#utility.yul\":2953:2954   */\n  dup2\n    /* \"#utility.yul\":2950:2963   */\n  lt\n    /* \"#utility.yul\":2931:3243   */\n  iszero\n  tag_107\n  jumpi\n    /* \"#utility.yul\":3026:3070   */\n  tag_108\n    /* \"#utility.yul\":3063:3069   */\n  dup3\n    /* \"#utility.yul\":3026:3070   */\n  tag_109\n  jump\t// in\ntag_108:\n    /* \"#utility.yul\":3090:3153   */\n  tag_110\n    /* \"#utility.yul\":3149:3152   */\n  dup9\n    /* \"#utility.yul\":3134:3147   */\n  dup3\n    /* \"#utility.yul\":3090:3153   */\n  tag_90\n  jump\t// in\ntag_110:\n    /* \"#utility.yul\":3083:3153   */\n  swap8\n  pop\n    /* \"#utility.yul\":3176:3233   */\n  tag_111\n    /* \"#utility.yul\":3226:3232   */\n  dup4\n    /* \"#utility.yul\":3176:3233   */\n  tag_112\n  jump\t// in\ntag_111:\n    /* \"#utility.yul\":3166:3233   */\n  swap3\n  pop\n    /* \"#utility.yul\":2991:3243   */\n  pop\n    /* \"#utility.yul\":2978:2979   */\n  0x01\n    /* \"#utility.yul\":2975:2976   */\n  dup2\n    /* \"#utility.yul\":2971:2980   */\n  add\n    /* \"#utility.yul\":2966:2980   */\n  swap1\n  pop\n    /* \"#utility.yul\":2931:3243   */\n  jump(tag_105)\ntag_107:\n    /* \"#utility.yul\":2935:2949   */\n  pop\n    /* \"#utility.yul\":3259:3262   */\n  dup6\n    /* \"#utility.yul\":3252:3262   */\n  swap4\n  pop\n    /* \"#utility.yul\":2638:3268   */\n  pop\n  pop\n  pop\n    /* \"#utility.yul\":2517:3268   */\n  swap3\n  swap2\n  pop\n  pop\n  jump\t// out\n    /* \"#utility.yul\":3274:3640   */\ntag_113:\n    /* \"#utility.yul\":3416:3419   */\n  0x00\n    /* \"#utility.yul\":3437:3504   */\n  tag_115\n    /* \"#utility.yul\":3501:3503   */\n  0x24\n    /* \"#utility.yul\":3496:3499   */\n  dup4\n    /* \"#utility.yul\":3437:3504   */\n  tag_116\n  jump\t// in\ntag_115:\n    /* \"#utility.yul\":3430:3504   */\n  swap2\n  pop\n    /* \"#utility.yul\":3513:3606   */\n  tag_117\n    /* \"#utility.yul\":3602:3605   */\n  dup3\n    /* \"#utility.yul\":3513:3606   */\n  tag_118\n  jump\t// in\ntag_117:\n    /* \"#utility.yul\":3631:3633   */\n  0x40\n    /* \"#utility.yul\":3626:3629   */\n  dup3\n    /* \"#utility.yul\":3622:3634   */\n  add\n    /* \"#utility.yul\":3615:3634   */\n  swap1\n  pop\n    /* \"#utility.yul\":3274:3640   */\n  swap2\n  swap1\n  pop\n  jump\t// out\n    /* \"#utility.yul\":3646:4012   */\ntag_119:\n    /* \"#utility.yul\":3788:3791   */\n  0x00\n    /* \"#utility.yul\":3809:3876   */\n  tag_121\n    /* \"#utility.yul\":3873:3875   */\n  0x27\n    /* \"#utility.yul\":3868:3871   */\n  dup4\n    /* \"#utility.yul\":3809:3876   */\n  tag_116\n  jump\t// in\ntag_121:\n    /* \"#utility.yul\":3802:3876   */\n  swap2\n  pop\n    /* \"#utility.yul\":3885:3978   */\n  tag_122\n    /* \"#utility.yul\":3974:3977   */\n  dup3\n    /* \"#utility.yul\":3885:3978   */\n  tag_123\n  jump\t// in\ntag_122:\n    /* \"#utility.yul\":4003:4005   */\n  0x40\n    /* \"#utility.yul\":3998:4001   */\n  dup3\n    /* \"#utility.yul\":3994:4006   */\n  add\n    /* \"#utility.yul\":3987:4006   */\n  swap1\n  pop\n    /* \"#utility.yul\":3646:4012   */\n  swap2\n  swap1\n  pop\n  jump\t// out\n    /* \"#utility.yul\":4018:4384   */\ntag_124:\n    /* \"#utility.yul\":4160:4163   */\n  0x00\n    /* \"#utility.yul\":4181:4248   */\n  tag_126\n    /* \"#utility.yul\":4245:4247   */\n  0x50\n    /* \"#utility.yul\":4240:4243   */\n  dup4\n    /* \"#utility.yul\":4181:4248   */\n  tag_116\n  jump\t// in\ntag_126:\n    /* \"#utility.yul\":4174:4248   */\n  swap2\n  pop\n    /* \"#utility.yul\":4257:4350   */\n  tag_127\n    /* \"#utility.yul\":4346:4349   */\n  dup3\n    /* \"#utility.yul\":4257:4350   */\n  tag_128\n  jump\t// in\ntag_127:\n    /* \"#utility.yul\":4375:4377   */\n  0x60\n    /* \"#utility.yul\":4370:4373   */\n  dup3\n    /* \"#utility.yul\":4366:4378   */\n  add\n    /* \"#utility.yul\":4359:4378   */\n  swap1\n  pop\n    /* \"#utility.yul\":4018:4384   */\n  swap2\n  swap1\n  pop\n  jump\t// out\n    /* \"#utility.yul\":4390:4502   */\ntag_129:\n    /* \"#utility.yul\":4473:4495   */\n  tag_131\n    /* \"#utility.yul\":4489:4494   */\n  dup2\n    /* \"#utility.yul\":4473:4495   */\n  tag_132\n  jump\t// in\ntag_131:\n    /* \"#utility.yul\":4468:4471   */\n  dup3\n    /* \"#utility.yul\":4461:4496   */\n  mstore\n    /* \"#utility.yul\":4390:4502   */\n  pop\n  pop\n  jump\t// out\n    /* \"#utility.yul\":4508:4977   */\ntag_21:\n    /* \"#utility.yul\":4672:4676   */\n  0x00\n    /* \"#utility.yul\":4710:4712   */\n  0x40\n    /* \"#utility.yul\":4699:4708   */\n  dup3\n    /* \"#utility.yul\":4695:4713   */\n  add\n    /* \"#utility.yul\":4687:4713   */\n  swap1\n  pop\n    /* \"#utility.yul\":4759:4768   */\n  dup2\n    /* \"#utility.yul\":4753:4757   */\n  dup2\n    /* \"#utility.yul\":4749:4769   */\n  sub\n    /* \"#utility.yul\":4745:4746   */\n  0x00\n    /* \"#utility.yul\":4734:4743   */\n  dup4\n    /* \"#utility.yul\":4730:4747   */\n  add\n    /* \"#utility.yul\":4723:4770   */\n  mstore\n    /* \"#utility.yul\":4787:4892   */\n  tag_134\n    /* \"#utility.yul\":4887:4891   */\n  dup2\n    /* \"#utility.yul\":4878:4884   */\n  dup6\n    /* \"#utility.yul\":4787:4892   */\n  tag_97\n  jump\t// in\ntag_134:\n    /* \"#utility.yul\":4779:4892   */\n  swap1\n  pop\n    /* \"#utility.yul\":4902:4970   */\n  tag_135\n    /* \"#utility.yul\":4966:4968   */\n  0x20\n    /* \"#utility.yul\":4955:4964   */\n  dup4\n    /* \"#utility.yul\":4951:4969   */\n  add\n    /* \"#utility.yul\":4942:4948   */\n  dup5\n    /* \"#utility.yul\":4902:4970   */\n  tag_129\n  jump\t// in\ntag_135:\n    /* \"#utility.yul\":4508:4977   */\n  swap4\n  swap3\n  pop\n  pop\n  pop\n  jump\t// out\n    /* \"#utility.yul\":4983:5402   */\ntag_8:\n    /* \"#utility.yul\":5149:5153   */\n  0x00\n    /* \"#utility.yul\":5187:5189   */\n  0x20\n    /* \"#utility.yul\":5176:5185   */\n  dup3\n    /* \"#utility.yul\":5172:5190   */\n  add\n    /* \"#utility.yul\":5164:5190   */\n  swap1\n  pop\n    /* \"#utility.yul\":5236:5245   */\n  dup2\n    /* \"#utility.yul\":5230:5234   */\n  dup2\n    /* \"#utility.yul\":5226:5246   */\n  sub\n    /* \"#utility.yul\":5222:5223   */\n  0x00\n    /* \"#utility.yul\":5211:5220   */\n  dup4\n    /* \"#utility.yul\":5207:5224   */\n  add\n    /* \"#utility.yul\":5200:5247   */\n  mstore\n    /* \"#utility.yul\":5264:5395   */\n  tag_137\n    /* \"#utility.yul\":5390:5394   */\n  dup2\n    /* \"#utility.yul\":5264:5395   */\n  tag_113\n  jump\t// in\ntag_137:\n    /* \"#utility.yul\":5256:5395   */\n  swap1\n  pop\n    /* \"#utility.yul\":4983:5402   */\n  swap2\n  swap1\n  pop\n  jump\t// out\n    /* \"#utility.yul\":5408:5827   */\ntag_13:\n    /* \"#utility.yul\":5574:5578   */\n  0x00\n    /* \"#utility.yul\":5612:5614   */\n  0x20\n    /* \"#utility.yul\":5601:5610   */\n  dup3\n    /* \"#utility.yul\":5597:5615   */\n  add\n    /* \"#utility.yul\":5589:5615   */\n  swap1\n  pop\n    /* \"#utility.yul\":5661:5670   */\n  dup2\n    /* \"#utility.yul\":5655:5659   */\n  dup2\n    /* \"#utility.yul\":5651:5671   */\n  sub\n    /* \"#utility.yul\":5647:5648   */\n  0x00\n    /* \"#utility.yul\":5636:5645   */\n  dup4\n    /* \"#utility.yul\":5632:5649   */\n  add\n    /* \"#utility.yul\":5625:5672   */\n  mstore\n    /* \"#utility.yul\":5689:5820   */\n  tag_139\n    /* \"#utility.yul\":5815:5819   */\n  dup2\n    /* \"#utility.yul\":5689:5820   */\n  tag_119\n  jump\t// in\ntag_139:\n    /* \"#utility.yul\":5681:5820   */\n  swap1\n  pop\n    /* \"#utility.yul\":5408:5827   */\n  swap2\n  swap1\n  pop\n  jump\t// out\n    /* \"#utility.yul\":5833:6252   */\ntag_17:\n    /* \"#utility.yul\":5999:6003   */\n  0x00\n    /* \"#utility.yul\":6037:6039   */\n  0x20\n    /* \"#utility.yul\":6026:6035   */\n  dup3\n    /* \"#utility.yul\":6022:6040   */\n  add\n    /* \"#utility.yul\":6014:6040   */\n  swap1\n  pop\n    /* \"#utility.yul\":6086:6095   */\n  dup2\n    /* \"#utility.yul\":6080:6084   */\n  dup2\n    /* \"#utility.yul\":6076:6096   */\n  sub\n    /* \"#utility.yul\":6072:6073   */\n  0x00\n    /* \"#utility.yul\":6061:6070   */\n  dup4\n    /* \"#utility.yul\":6057:6074   */\n  add\n    /* \"#utility.yul\":6050:6097   */\n  mstore\n    /* \"#utility.yul\":6114:6245   */\n  tag_141\n    /* \"#utility.yul\":6240:6244   */\n  dup2\n    /* \"#utility.yul\":6114:6245   */\n  tag_124\n  jump\t// in\ntag_141:\n    /* \"#utility.yul\":6106:6245   */\n  swap1\n  pop\n    /* \"#utility.yul\":5833:6252   */\n  swap2\n  swap1\n  pop\n  jump\t// out\n    /* \"#utility.yul\":6258:6387   */\ntag_59:\n    /* \"#utility.yul\":6292:6298   */\n  0x00\n    /* \"#utility.yul\":6319:6339   */\n  tag_143\n  tag_144\n  jump\t// in\ntag_143:\n    /* \"#utility.yul\":6309:6339   */\n  swap1\n  pop\n    /* \"#utility.yul\":6348:6381   */\n  tag_145\n    /* \"#utility.yul\":6376:6380   */\n  dup3\n    /* \"#utility.yul\":6368:6374   */\n  dup3\n    /* \"#utility.yul\":6348:6381   */\n  tag_146\n  jump\t// in\ntag_145:\n    /* \"#utility.yul\":6258:6387   */\n  swap2\n  swap1\n  pop\n  jump\t// out\n    /* \"#utility.yul\":6393:6468   */\ntag_144:\n    /* \"#utility.yul\":6426:6432   */\n  0x00\n    /* \"#utility.yul\":6459:6461   */\n  0x40\n    /* \"#utility.yul\":6453:6462   */\n  mload\n    /* \"#utility.yul\":6443:6462   */\n  swap1\n  pop\n    /* \"#utility.yul\":6393:6468   */\n  swap1\n  jump\t// out\n    /* \"#utility.yul\":6474:6785   */\ntag_58:\n    /* \"#utility.yul\":6551:6555   */\n  0x00\n    /* \"#utility.yul\":6641:6659   */\n  0xffffffffffffffff\n    /* \"#utility.yul\":6633:6639   */\n  dup3\n    /* \"#utility.yul\":6630:6660   */\n  gt\n    /* \"#utility.yul\":6627:6683   */\n  iszero\n  tag_149\n  jumpi\n    /* \"#utility.yul\":6663:6681   */\n  tag_150\n  tag_151\n  jump\t// in\ntag_150:\n    /* \"#utility.yul\":6627:6683   */\ntag_149:\n    /* \"#utility.yul\":6713:6717   */\n  0x20\n    /* \"#utility.yul\":6705:6711   */\n  dup3\n    /* \"#utility.yul\":6701:6718   */\n  mul\n    /* \"#utility.yul\":6693:6718   */\n  swap1\n  pop\n    /* \"#utility.yul\":6773:6777   */\n  0x20\n    /* \"#utility.yul\":6767:6771   */\n  dup2\n    /* \"#utility.yul\":6763:6778   */\n  add\n    /* \"#utility.yul\":6755:6778   */\n  swap1\n  pop\n    /* \"#utility.yul\":6474:6785   */\n  swap2\n  swap1\n  pop\n  jump\t// out\n    /* \"#utility.yul\":6791:6947   */\ntag_104:\n    /* \"#utility.yul\":6855:6859   */\n  0x00\n    /* \"#utility.yul\":6878:6881   */\n  dup2\n    /* \"#utility.yul\":6870:6881   */\n  swap1\n  pop\n    /* \"#utility.yul\":6901:6904   */\n  dup2\n    /* \"#utility.yul\":6898:6899   */\n  0x00\n    /* \"#utility.yul\":6891:6905   */\n  mstore\n    /* \"#utility.yul\":6935:6939   */\n  0x20\n    /* \"#utility.yul\":6932:6933   */\n  0x00\n    /* \"#utility.yul\":6922:6940   */\n  keccak256\n    /* \"#utility.yul\":6914:6940   */\n  swap1\n  pop\n    /* \"#utility.yul\":6791:6947   */\n  swap2\n  swap1\n  pop\n  jump\t// out\n    /* \"#utility.yul\":6953:7064   */\ntag_100:\n    /* \"#utility.yul\":7017:7023   */\n  0x00\n    /* \"#utility.yul\":7051:7056   */\n  dup2\n    /* \"#utility.yul\":7045:7057   */\n  sload\n    /* \"#utility.yul\":7035:7057   */\n  swap1\n  pop\n    /* \"#utility.yul\":6953:7064   */\n  swap2\n  swap1\n  pop\n  jump\t// out\n    /* \"#utility.yul\":7070:7180   */\ntag_112:\n    /* \"#utility.yul\":7137:7141   */\n  0x00\n    /* \"#utility.yul\":7169:7173   */\n  0x01\n    /* \"#utility.yul\":7164:7167   */\n  dup3\n    /* \"#utility.yul\":7160:7174   */\n  add\n    /* \"#utility.yul\":7152:7174   */\n  swap1\n  pop\n    /* \"#utility.yul\":7070:7180   */\n  swap2\n  swap1\n  pop\n  jump\t// out\n    /* \"#utility.yul\":7186:7370   */\ntag_102:\n    /* \"#utility.yul\":7285:7296   */\n  0x00\n    /* \"#utility.yul\":7319:7325   */\n  dup3\n    /* \"#utility.yul\":7314:7317   */\n  dup3\n    /* \"#utility.yul\":7307:7326   */\n  mstore\n    /* \"#utility.yul\":7359:7363   */\n  0x20\n    /* \"#utility.yul\":7354:7357   */\n  dup3\n    /* \"#utility.yul\":7350:7364   */\n  add\n    /* \"#utility.yul\":7335:7364   */\n  swap1\n  pop\n    /* \"#utility.yul\":7186:7370   */\n  swap3\n  swap2\n  pop\n  pop\n  jump\t// out\n    /* \"#utility.yul\":7376:7545   */\ntag_116:\n    /* \"#utility.yul\":7460:7471   */\n  0x00\n    /* \"#utility.yul\":7494:7500   */\n  dup3\n    /* \"#utility.yul\":7489:7492   */\n  dup3\n    /* \"#utility.yul\":7482:7501   */\n  mstore\n    /* \"#utility.yul\":7534:7538   */\n  0x20\n    /* \"#utility.yul\":7529:7532   */\n  dup3\n    /* \"#utility.yul\":7525:7539   */\n  add\n    /* \"#utility.yul\":7510:7539   */\n  swap1\n  pop\n    /* \"#utility.yul\":7376:7545   */\n  swap3\n  swap2\n  pop\n  pop\n  jump\t// out\n    /* \"#utility.yul\":7551:7856   */\ntag_34:\n    /* \"#utility.yul\":7591:7594   */\n  0x00\n    /* \"#utility.yul\":7610:7630   */\n  tag_158\n    /* \"#utility.yul\":7628:7629   */\n  dup3\n    /* \"#utility.yul\":7610:7630   */\n  tag_159\n  jump\t// in\ntag_158:\n    /* \"#utility.yul\":7605:7630   */\n  swap2\n  pop\n    /* \"#utility.yul\":7644:7664   */\n  tag_160\n    /* \"#utility.yul\":7662:7663   */\n  dup4\n    /* \"#utility.yul\":7644:7664   */\n  tag_159\n  jump\t// in\ntag_160:\n    /* \"#utility.yul\":7639:7664   */\n  swap3\n  pop\n    /* \"#utility.yul\":7798:7799   */\n  dup3\n    /* \"#utility.yul\":7730:7796   */\n  0xffffffffffffffffffffffffffffffffffffffffffffffffffffffffffffffff\n    /* \"#utility.yul\":7726:7800   */\n  sub\n    /* \"#utility.yul\":7723:7724   */\n  dup3\n    /* \"#utility.yul\":7720:7801   */\n  gt\n    /* \"#utility.yul\":7717:7824   */\n  iszero\n  tag_161\n  jumpi\n    /* \"#utility.yul\":7804:7822   */\n  tag_162\n  tag_163\n  jump\t// in\ntag_162:\n    /* \"#utility.yul\":7717:7824   */\ntag_161:\n    /* \"#utility.yul\":7848:7849   */\n  dup3\n    /* \"#utility.yul\":7845:7846   */\n  dup3\n    /* \"#utility.yul\":7841:7850   */\n  add\n    /* \"#utility.yul\":7834:7850   */\n  swap1\n  pop\n    /* \"#utility.yul\":7551:7856   */\n  swap3\n  swap2\n  pop\n  pop\n  jump\t// out\n    /* \"#utility.yul\":7862:8053   */\ntag_28:\n    /* \"#utility.yul\":7902:7906   */\n  0x00\n    /* \"#utility.yul\":7922:7942   */\n  tag_165\n    /* \"#utility.yul\":7940:7941   */\n  dup3\n    /* \"#utility.yul\":7922:7942   */\n  tag_159\n  jump\t// in\ntag_165:\n    /* \"#utility.yul\":7917:7942   */\n  swap2\n  pop\n    /* \"#utility.yul\":7956:7976   */\n  tag_166\n    /* \"#utility.yul\":7974:7975   */\n  dup4\n    /* \"#utility.yul\":7956:7976   */\n  tag_159\n  jump\t// in\ntag_166:\n    /* \"#utility.yul\":7951:7976   */\n  swap3\n  pop\n    /* \"#utility.yul\":7995:7996   */\n  dup3\n    /* \"#utility.yul\":7992:7993   */\n  dup3\n    /* \"#utility.yul\":7989:7997   */\n  lt\n    /* \"#utility.yul\":7986:8020   */\n  iszero\n  tag_167\n  jumpi\n    /* \"#utility.yul\":8000:8018   */\n  tag_168\n  tag_163\n  jump\t// in\ntag_168:\n    /* \"#utility.yul\":7986:8020   */\ntag_167:\n    /* \"#utility.yul\":8045:8046   */\n  dup3\n    /* \"#utility.yul\":8042:8043   */\n  dup3\n    /* \"#utility.yul\":8038:8047   */\n  sub\n    /* \"#utility.yul\":8030:8047   */\n  swap1\n  pop\n    /* \"#utility.yul\":7862:8053   */\n  swap3\n  swap2\n  pop\n  pop\n  jump\t// out\n    /* \"#utility.yul\":8059:8198   */\ntag_169:\n    /* \"#utility.yul\":8109:8116   */\n  0x00\n    /* \"#utility.yul\":8149:8191   */\n  0xffffffffffffffffffffffffffffffffffffffff\n    /* \"#utility.yul\":8142:8147   */\n  dup3\n    /* \"#utility.yul\":8138:8192   */\n  and\n    /* \"#utility.yul\":8127:8192   */\n  swap1\n  pop\n    /* \"#utility.yul\":8059:8198   */\n  swap2\n  swap1\n  pop\n  jump\t// out\n    /* \"#utility.yul\":8204:8300   */\ntag_96:\n    /* \"#utility.yul\":8241:8248   */\n  0x00\n    /* \"#utility.yul\":8270:8294   */\n  tag_172\n    /* \"#utility.yul\":8288:8293   */\n  dup3\n    /* \"#utility.yul\":8270:8294   */\n  tag_173\n  jump\t// in\ntag_172:\n    /* \"#utility.yul\":8259:8294   */\n  swap1\n  pop\n    /* \"#utility.yul\":8204:8300   */\n  swap2\n  swap1\n  pop\n  jump\t// out\n    /* \"#utility.yul\":8306:8432   */\ntag_173:\n    /* \"#utility.yul\":8343:8350   */\n  0x00\n    /* \"#utility.yul\":8383:8425   */\n  0xffffffffffffffffffffffffffffffffffffffff\n    /* \"#utility.yul\":8376:8381   */\n  dup3\n    /* \"#utility.yul\":8372:8426   */\n  and\n    /* \"#utility.yul\":8361:8426   */\n  swap1\n  pop\n    /* \"#utility.yul\":8306:8432   */\n  swap2\n  swap1\n  pop\n  jump\t// out\n    /* \"#utility.yul\":8438:8515   */\ntag_159:\n    /* \"#utility.yul\":8475:8482   */\n  0x00\n    /* \"#utility.yul\":8504:8509   */\n  dup2\n    /* \"#utility.yul\":8493:8509   */\n  swap1\n  pop\n    /* \"#utility.yul\":8438:8515   */\n  swap2\n  swap1\n  pop\n  jump\t// out\n    /* \"#utility.yul\":8521:8607   */\ntag_132:\n    /* \"#utility.yul\":8556:8563   */\n  0x00\n    /* \"#utility.yul\":8596:8600   */\n  0xff\n    /* \"#utility.yul\":8589:8594   */\n  dup3\n    /* \"#utility.yul\":8585:8601   */\n  and\n    /* \"#utility.yul\":8574:8601   */\n  swap1\n  pop\n    /* \"#utility.yul\":8521:8607   */\n  swap2\n  swap1\n  pop\n  jump\t// out\n    /* \"#utility.yul\":8613:8779   */\ntag_177:\n    /* \"#utility.yul\":8682:8687   */\n  0x00\n    /* \"#utility.yul\":8707:8773   */\n  tag_179\n    /* \"#utility.yul\":8738:8772   */\n  tag_180\n    /* \"#utility.yul\":8761:8771   */\n  dup4\n    /* \"#utility.yul\":8738:8772   */\n  tag_181\n  jump\t// in\ntag_180:\n    /* \"#utility.yul\":8707:8773   */\n  tag_169\n  jump\t// in\ntag_179:\n    /* \"#utility.yul\":8698:8773   */\n  swap1\n  pop\n    /* \"#utility.yul\":8613:8779   */\n  swap2\n  swap1\n  pop\n  jump\t// out\n    /* \"#utility.yul\":8785:9066   */\ntag_146:\n    /* \"#utility.yul\":8868:8895   */\n  tag_183\n    /* \"#utility.yul\":8890:8894   */\n  dup3\n    /* \"#utility.yul\":8868:8895   */\n  tag_184\n  jump\t// in\ntag_183:\n    /* \"#utility.yul\":8860:8866   */\n  dup2\n    /* \"#utility.yul\":8856:8896   */\n  add\n    /* \"#utility.yul\":8998:9004   */\n  dup2\n    /* \"#utility.yul\":8986:8996   */\n  dup2\n    /* \"#utility.yul\":8983:9005   */\n  lt\n    /* \"#utility.yul\":8962:8980   */\n  0xffffffffffffffff\n    /* \"#utility.yul\":8950:8960   */\n  dup3\n    /* \"#utility.yul\":8947:8981   */\n  gt\n    /* \"#utility.yul\":8944:9006   */\n  or\n    /* \"#utility.yul\":8941:9029   */\n  iszero\n  tag_185\n  jumpi\n    /* \"#utility.yul\":9009:9027   */\n  tag_186\n  tag_151\n  jump\t// in\ntag_186:\n    /* \"#utility.yul\":8941:9029   */\ntag_185:\n    /* \"#utility.yul\":9049:9059   */\n  dup1\n    /* \"#utility.yul\":9045:9047   */\n  0x40\n    /* \"#utility.yul\":9038:9060   */\n  mstore\n    /* \"#utility.yul\":8828:9066   */\n  pop\n    /* \"#utility.yul\":8785:9066   */\n  pop\n  pop\n  jump\t// out\n    /* \"#utility.yul\":9072:9305   */\ntag_44:\n    /* \"#utility.yul\":9111:9114   */\n  0x00\n    /* \"#utility.yul\":9134:9158   */\n  tag_188\n    /* \"#utility.yul\":9152:9157   */\n  dup3\n    /* \"#utility.yul\":9134:9158   */\n  tag_159\n  jump\t// in\ntag_188:\n    /* \"#utility.yul\":9125:9158   */\n  swap2\n  pop\n    /* \"#utility.yul\":9180:9246   */\n  0xffffffffffffffffffffffffffffffffffffffffffffffffffffffffffffffff\n    /* \"#utility.yul\":9173:9178   */\n  dup3\n    /* \"#utility.yul\":9170:9247   */\n  eq\n    /* \"#utility.yul\":9167:9270   */\n  iszero\n  tag_189\n  jumpi\n    /* \"#utility.yul\":9250:9268   */\n  tag_190\n  tag_163\n  jump\t// in\ntag_190:\n    /* \"#utility.yul\":9167:9270   */\ntag_189:\n    /* \"#utility.yul\":9297:9298   */\n  0x01\n    /* \"#utility.yul\":9290:9295   */\n  dup3\n    /* \"#utility.yul\":9286:9299   */\n  add\n    /* \"#utility.yul\":9279:9299   */\n  swap1\n  pop\n    /* \"#utility.yul\":9072:9305   */\n  swap2\n  swap1\n  pop\n  jump\t// out\n    /* \"#utility.yul\":9311:9491   */\ntag_163:\n    /* \"#utility.yul\":9359:9436   */\n  0x4e487b7100000000000000000000000000000000000000000000000000000000\n    /* \"#utility.yul\":9356:9357   */\n  0x00\n    /* \"#utility.yul\":9349:9437   */\n  mstore\n    /* \"#utility.yul\":9456:9460   */\n  0x11\n    /* \"#utility.yul\":9453:9454   */\n  0x04\n    /* \"#utility.yul\":9446:9461   */\n  mstore\n    /* \"#utility.yul\":9480:9484   */\n  0x24\n    /* \"#utility.yul\":9477:9478   */\n  0x00\n    /* \"#utility.yul\":9470:9485   */\n  revert\n    /* \"#utility.yul\":9497:9677   */\ntag_37:\n    /* \"#utility.yul\":9545:9622   */\n  0x4e487b7100000000000000000000000000000000000000000000000000000000\n    /* \"#utility.yul\":9542:9543   */\n  0x00\n    /* \"#utility.yul\":9535:9623   */\n  mstore\n    /* \"#utility.yul\":9642:9646   */\n  0x32\n    /* \"#utility.yul\":9639:9640   */\n  0x04\n    /* \"#utility.yul\":9632:9647   */\n  mstore\n    /* \"#utility.yul\":9666:9670   */\n  0x24\n    /* \"#utility.yul\":9663:9664   */\n  0x00\n    /* \"#utility.yul\":9656:9671   */\n  revert\n    /* \"#utility.yul\":9683:9863   */\ntag_151:\n    /* \"#utility.yul\":9731:9808   */\n  0x4e487b7100000000000000000000000000000000000000000000000000000000\n    /* \"#utility.yul\":9728:9729   */\n  0x00\n    /* \"#utility.yul\":9721:9809   */\n  mstore\n    /* \"#utility.yul\":9828:9832   */\n  0x41\n    /* \"#utility.yul\":9825:9826   */\n  0x04\n    /* \"#utility.yul\":9818:9833   */\n  mstore\n    /* \"#utility.yul\":9852:9856   */\n  0x24\n    /* \"#utility.yul\":9849:9850   */\n  0x00\n    /* \"#utility.yul\":9842:9857   */\n  revert\n    /* \"#utility.yul\":9869:10013   */\ntag_109:\n    /* \"#utility.yul\":9924:9929   */\n  0x00\n    /* \"#utility.yul\":9949:10006   */\n  tag_195\n    /* \"#utility.yul\":10000:10004   */\n  dup3\n    /* \"#utility.yul\":9994:10005   */\n  sload\n    /* \"#utility.yul\":9949:10006   */\n  tag_177\n  jump\t// in\ntag_195:\n    /* \"#utility.yul\":9940:10006   */\n  swap1\n  pop\n    /* \"#utility.yul\":9869:10013   */\n  swap2\n  swap1\n  pop\n  jump\t// out\n    /* \"#utility.yul\":10019:10136   */\ntag_75:\n    /* \"#utility.yul\":10128:10129   */\n  0x00\n    /* \"#utility.yul\":10125:10126   */\n  dup1\n    /* \"#utility.yul\":10118:10130   */\n  revert\n    /* \"#utility.yul\":10142:10259   */\ntag_62:\n    /* \"#utility.yul\":10251:10252   */\n  0x00\n    /* \"#utility.yul\":10248:10249   */\n  dup1\n    /* \"#utility.yul\":10241:10253   */\n  revert\n    /* \"#utility.yul\":10265:10382   */\ntag_87:\n    /* \"#utility.yul\":10374:10375   */\n  0x00\n    /* \"#utility.yul\":10371:10372   */\n  dup1\n    /* \"#utility.yul\":10364:10376   */\n  revert\n    /* \"#utility.yul\":10388:10505   */\ntag_84:\n    /* \"#utility.yul\":10497:10498   */\n  0x00\n    /* \"#utility.yul\":10494:10495   */\n  dup1\n    /* \"#utility.yul\":10487:10499   */\n  revert\n    /* \"#utility.yul\":10511:10613   */\ntag_184:\n    /* \"#utility.yul\":10552:10558   */\n  0x00\n    /* \"#utility.yul\":10603:10605   */\n  0x1f\n    /* \"#utility.yul\":10599:10606   */\n  not\n    /* \"#utility.yul\":10594:10596   */\n  0x1f\n    /* \"#utility.yul\":10587:10592   */\n  dup4\n    /* \"#utility.yul\":10583:10597   */\n  add\n    /* \"#utility.yul\":10579:10607   */\n  and\n    /* \"#utility.yul\":10569:10607   */\n  swap1\n  pop\n    /* \"#utility.yul\":10511:10613   */\n  swap2\n  swap1\n  pop\n  jump\t// out\n    /* \"#utility.yul\":10619:10721   */\ntag_181:\n    /* \"#utility.yul\":10661:10669   */\n  0x00\n    /* \"#utility.yul\":10708:10713   */\n  dup2\n    /* \"#utility.yul\":10705:10706   */\n  0x00\n    /* \"#utility.yul\":10701:10714   */\n  shr\n    /* \"#utility.yul\":10680:10714   */\n  swap1\n  pop\n    /* \"#utility.yul\":10619:10721   */\n  swap2\n  swap1\n  pop\n  jump\t// out\n    /* \"#utility.yul\":10727:10950   */\ntag_118:\n    /* \"#utility.yul\":10867:10901   */\n  0x616c6c20636f6c6c61626f7261746f727320636f756e74206174206c65617374\n    /* \"#utility.yul\":10863:10864   */\n  0x00\n    /* \"#utility.yul\":10855:10861   */\n  dup3\n    /* \"#utility.yul\":10851:10865   */\n  add\n    /* \"#utility.yul\":10844:10902   */\n  mstore\n    /* \"#utility.yul\":10936:10942   */\n  0x206f6e6500000000000000000000000000000000000000000000000000000000\n    /* \"#utility.yul\":10931:10933   */\n  0x20\n    /* \"#utility.yul\":10923:10929   */\n  dup3\n    /* \"#utility.yul\":10919:10934   */\n  add\n    /* \"#utility.yul\":10912:10943   */\n  mstore\n    /* \"#utility.yul\":10727:10950   */\n  pop\n  jump\t// out\n    /* \"#utility.yul\":10956:11182   */\ntag_123:\n    /* \"#utility.yul\":11096:11130   */\n  0x74686520636f6c6c61626f7261746f7273206d757374206e6f20626520647570\n    /* \"#utility.yul\":11092:11093   */\n  0x00\n    /* \"#utility.yul\":11084:11090   */\n  dup3\n    /* \"#utility.yul\":11080:11094   */\n  add\n    /* \"#utility.yul\":11073:11131   */\n  mstore\n    /* \"#utility.yul\":11165:11174   */\n  0x6c69636174656400000000000000000000000000000000000000000000000000\n    /* \"#utility.yul\":11160:11162   */\n  0x20\n    /* \"#utility.yul\":11152:11158   */\n  dup3\n    /* \"#utility.yul\":11148:11163   */\n  add\n    /* \"#utility.yul\":11141:11175   */\n  mstore\n    /* \"#utility.yul\":10956:11182   */\n  pop\n  jump\t// out\n    /* \"#utility.yul\":11188:11492   */\ntag_128:\n    /* \"#utility.yul\":11328:11362   */\n  0x6174206c65617374207369676e20636f756e74206d757374206d6f7265207468\n    /* \"#utility.yul\":11324:11325   */\n  0x00\n    /* \"#utility.yul\":11316:11322   */\n  dup3\n    /* \"#utility.yul\":11312:11326   */\n  add\n    /* \"#utility.yul\":11305:11363   */\n  mstore\n    /* \"#utility.yul\":11397:11431   */\n  0x616e203020616e64206c657373207468616e206f7220657175616c7320636f6c\n    /* \"#utility.yul\":11392:11394   */\n  0x20\n    /* \"#utility.yul\":11384:11390   */\n  dup3\n    /* \"#utility.yul\":11380:11395   */\n  add\n    /* \"#utility.yul\":11373:11432   */\n  mstore\n    /* \"#utility.yul\":11466:11484   */\n  0x6c61626f7261746f727320636f756e7400000000000000000000000000000000\n    /* \"#utility.yul\":11461:11463   */\n  0x40\n    /* \"#utility.yul\":11453:11459   */\n  dup3\n    /* \"#utility.yul\":11449:11464   */\n  add\n    /* \"#utility.yul\":11442:11485   */\n  mstore\n    /* \"#utility.yul\":11188:11492   */\n  pop\n  jump\t// out\n    /* \"#utility.yul\":11498:11620   */\ntag_70:\n    /* \"#utility.yul\":11571:11595   */\n  tag_206\n    /* \"#utility.yul\":11589:11594   */\n  dup2\n    /* \"#utility.yul\":11571:11595   */\n  tag_96\n  jump\t// in\ntag_206:\n    /* \"#utility.yul\":11564:11569   */\n  dup2\n    /* \"#utility.yul\":11561:11596   */\n  eq\n    /* \"#utility.yul\":11551:11614   */\n  tag_207\n  jumpi\n    /* \"#utility.yul\":11610:11611   */\n  0x00\n    /* \"#utility.yul\":11607:11608   */\n  dup1\n    /* \"#utility.yul\":11600:11612   */\n  revert\n    /* \"#utility.yul\":11551:11614   */\ntag_207:\n    /* \"#utility.yul\":11498:11620   */\n  pop\n  jump\t// out\n    /* \"#utility.yul\":11626:11744   */\ntag_80:\n    /* \"#utility.yul\":11697:11719   */\n  tag_209\n    /* \"#utility.yul\":11713:11718   */\n  dup2\n    /* \"#utility.yul\":11697:11719   */\n  tag_132\n  jump\t// in\ntag_209:\n    /* \"#utility.yul\":11690:11695   */\n  dup2\n    /* \"#utility.yul\":11687:11720   */\n  eq\n    /* \"#utility.yul\":11677:11738   */\n  tag_210\n  jumpi\n    /* \"#utility.yul\":11734:11735   */\n  0x00\n    /* \"#utility.yul\":11731:11732   */\n  dup1\n    /* \"#utility.yul\":11724:11736   */\n  revert\n    /* \"#utility.yul\":11677:11738   */\ntag_210:\n    /* \"#utility.yul\":11626:11744   */\n  pop\n  jump\t// out\n    /* \"contracts/MultisigWallet.sol\":108:8175  contract MultisigWallet {... */\ntag_22:\n  dataSize(sub_0)\n  dup1\n  dataOffset(sub_0)\n  0x00\n  codecopy\n  0x00\n  return\nstop\n\nsub_0: assembly {\n        /* \"contracts/MultisigWallet.sol\":108:8175  contract MultisigWallet {... */\n      mstore(0x40, 0x80)\n      jumpi(tag_1, lt(calldatasize, 0x04))\n      shr(0xe0, calldataload(0x00))\n      dup1\n      0xb517e0b4\n      gt\n      tag_12\n      jumpi\n      dup1\n      0xb517e0b4\n      eq\n      tag_7\n      jumpi\n      dup1\n      0xb69ef8a8\n      eq\n      tag_8\n      jumpi\n      dup1\n      0xbc44e739\n      eq\n      tag_9\n      jumpi\n      dup1\n      0xca3ea43f\n      eq\n      tag_10\n      jumpi\n      dup1\n      0xcfa4a5f6\n      eq\n      tag_11\n      jumpi\n      jump(tag_2)\n    tag_12:\n      dup1\n      0x3bdf3e\n      eq\n      tag_3\n      jumpi\n      dup1\n      0x1535430b\n      eq\n      tag_4\n      jumpi\n      dup1\n      0x352ce050\n      eq\n      tag_5\n      jumpi\n      dup1\n      0x3a0a197b\n      eq\n      tag_6\n      jumpi\n      jump(tag_2)\n    tag_1:\n      jumpi(tag_2, calldatasize)\n        /* \"contracts/MultisigWallet.sol\":3852:3853  0 */\n      0x00\n        /* \"contracts/MultisigWallet.sol\":3840:3849  msg.value */\n      callvalue\n        /* \"contracts/MultisigWallet.sol\":3840:3853  msg.value > 0 */\n      gt\n        /* \"contracts/MultisigWallet.sol\":3832:3946  require(msg.value > 0, \"store must more than 0 wei, indeed the gas fee do not decrease if you topin a low value.\") */\n      tag_15\n      jumpi\n      mload(0x40)\n      0x08c379a000000000000000000000000000000000000000000000000000000000\n      dup2\n      mstore\n      0x04\n      add\n      tag_16\n      swap1\n      tag_17\n      jump\t// in\n    tag_16:\n      mload(0x40)\n      dup1\n      swap2\n      sub\n      swap1\n      revert\n    tag_15:\n        /* \"contracts/MultisigWallet.sol\":3961:3970  msg.value */\n      callvalue\n        /* \"contracts/MultisigWallet.sol\":3950:3957  balance */\n      0x00\n      dup1\n        /* \"contracts/MultisigWallet.sol\":3950:3970  balance += msg.value */\n      dup3\n      dup3\n      sload\n      tag_18\n      swap2\n      swap1\n      tag_19\n      jump\t// in\n    tag_18:\n      swap3\n      pop\n      pop\n      dup2\n      swap1\n      sstore\n      pop\n        /* \"contracts/MultisigWallet.sol\":108:8175  contract MultisigWallet {... */\n      stop\n    tag_2:\n      0x00\n      dup1\n      revert\n        /* \"contracts/MultisigWallet.sol\":3977:4589  function process_withdraw(uint weis, address payable targetAddress) public onlyCollaborators {... */\n    tag_3:\n      callvalue\n      dup1\n      iszero\n      tag_20\n      jumpi\n      0x00\n      dup1\n      revert\n    tag_20:\n      pop\n      tag_21\n      0x04\n      dup1\n      calldatasize\n      sub\n      dup2\n      add\n      swap1\n      tag_22\n      swap2\n      swap1\n      tag_23\n      jump\t// in\n    tag_22:\n      tag_24\n      jump\t// in\n    tag_21:\n      stop\n        /* \"contracts/MultisigWallet.sol\":4955:5653  function cancel_withdraw_by_counterparty() public onlyCollaborators {... */\n    tag_4:\n      callvalue\n      dup1\n      iszero\n      tag_25\n      jumpi\n      0x00\n      dup1\n      revert\n    tag_25:\n      pop\n      tag_26\n      tag_27\n      jump\t// in\n    tag_26:\n      stop\n        /* \"contracts/MultisigWallet.sol\":6307:6671  function collaboratorSign() public onlyCollaborators {... */\n    tag_5:\n      callvalue\n      dup1\n      iszero\n      tag_28\n      jumpi\n      0x00\n      dup1\n      revert\n    tag_28:\n      pop\n      tag_29\n      tag_30\n      jump\t// in\n    tag_29:\n      stop\n        /* \"contracts/MultisigWallet.sol\":1163:1192  uint public withdraw_fee_rate */\n    tag_6:\n      callvalue\n      dup1\n      iszero\n      tag_31\n      jumpi\n      0x00\n      dup1\n      revert\n    tag_31:\n      pop\n      tag_32\n      tag_33\n      jump\t// in\n    tag_32:\n      mload(0x40)\n      tag_34\n      swap2\n      swap1\n      tag_35\n      jump\t// in\n    tag_34:\n      mload(0x40)\n      dup1\n      swap2\n      sub\n      swap1\n      return\n        /* \"contracts/MultisigWallet.sol\":5695:5857  function cancel_withdraw() public onlyCollaborators {... */\n    tag_7:\n      callvalue\n      dup1\n      iszero\n      tag_36\n      jumpi\n      0x00\n      dup1\n      revert\n    tag_36:\n      pop\n      tag_37\n      tag_38\n      jump\t// in\n    tag_37:\n      stop\n        /* \"contracts/MultisigWallet.sol\":169:188  uint public balance */\n    tag_8:\n      callvalue\n      dup1\n      iszero\n      tag_39\n      jumpi\n      0x00\n      dup1\n      revert\n    tag_39:\n      pop\n      tag_40\n      tag_41\n      jump\t// in\n    tag_40:\n      mload(0x40)\n      tag_42\n      swap2\n      swap1\n      tag_35\n      jump\t// in\n    tag_42:\n      mload(0x40)\n      dup1\n      swap2\n      sub\n      swap1\n      return\n        /* \"contracts/MultisigWallet.sol\":2746:2971  function changePlatformAccount(address newAccount) public {... */\n    tag_9:\n      callvalue\n      dup1\n      iszero\n      tag_43\n      jumpi\n      0x00\n      dup1\n      revert\n    tag_43:\n      pop\n      tag_44\n      0x04\n      dup1\n      calldatasize\n      sub\n      dup2\n      add\n      swap1\n      tag_45\n      swap2\n      swap1\n      tag_46\n      jump\t// in\n    tag_45:\n      tag_47\n      jump\t// in\n    tag_44:\n      stop\n        /* \"contracts/MultisigWallet.sol\":1085:1111  uint public withdraw_count */\n    tag_10:\n      callvalue\n      dup1\n      iszero\n      tag_48\n      jumpi\n      0x00\n      dup1\n      revert\n    tag_48:\n      pop\n      tag_49\n      tag_50\n      jump\t// in\n    tag_49:\n      mload(0x40)\n      tag_51\n      swap2\n      swap1\n      tag_35\n      jump\t// in\n    tag_51:\n      mload(0x40)\n      dup1\n      swap2\n      sub\n      swap1\n      return\n        /* \"contracts/MultisigWallet.sol\":1220:1251  uint public withdraw_free_count */\n    tag_11:\n      callvalue\n      dup1\n      iszero\n      tag_52\n      jumpi\n      0x00\n      dup1\n      revert\n    tag_52:\n      pop\n      tag_53\n      tag_54\n      jump\t// in\n    tag_53:\n      mload(0x40)\n      tag_55\n      swap2\n      swap1\n      tag_35\n      jump\t// in\n    tag_55:\n      mload(0x40)\n      dup1\n      swap2\n      sub\n      swap1\n      return\n        /* \"contracts/MultisigWallet.sol\":3977:4589  function process_withdraw(uint weis, address payable targetAddress) public onlyCollaborators {... */\n    tag_24:\n        /* \"contracts/MultisigWallet.sol\":3669:3693  is_oneof_collaborators() */\n      tag_57\n        /* \"contracts/MultisigWallet.sol\":3669:3691  is_oneof_collaborators */\n      tag_58\n        /* \"contracts/MultisigWallet.sol\":3669:3693  is_oneof_collaborators() */\n      jump\t// in\n    tag_57:\n        /* \"contracts/MultisigWallet.sol\":3661:3736  require(is_oneof_collaborators(), \"only collaborators have the permission\") */\n      tag_59\n      jumpi\n      mload(0x40)\n      0x08c379a000000000000000000000000000000000000000000000000000000000\n      dup2\n      mstore\n      0x04\n      add\n      tag_60\n      swap1\n      tag_61\n      jump\t// in\n    tag_60:\n      mload(0x40)\n      dup1\n      swap2\n      sub\n      swap1\n      revert\n    tag_59:\n        /* \"contracts/MultisigWallet.sol\":4106:4107  0 */\n      0x00\n        /* \"contracts/MultisigWallet.sol\":4082:4102  waitfor_withdraw_wei */\n      sload(0x04)\n        /* \"contracts/MultisigWallet.sol\":4082:4107  waitfor_withdraw_wei == 0 */\n      eq\n        /* \"contracts/MultisigWallet.sol\":4074:4141  require(waitfor_withdraw_wei == 0, \"pre process has not been over\") */\n      tag_63\n      jumpi\n      mload(0x40)\n      0x08c379a000000000000000000000000000000000000000000000000000000000\n      dup2\n      mstore\n      0x04\n      add\n      tag_64\n      swap1\n      tag_65\n      jump\t// in\n    tag_64:\n      mload(0x40)\n      dup1\n      swap2\n      sub\n      swap1\n      revert\n    tag_63:\n        /* \"contracts/MultisigWallet.sol\":4163:4170  balance */\n      sload(0x00)\n        /* \"contracts/MultisigWallet.sol\":4155:4159  weis */\n      dup3\n        /* \"contracts/MultisigWallet.sol\":4155:4170  weis <= balance */\n      gt\n      iszero\n        /* \"contracts/MultisigWallet.sol\":4147:4219  require(weis <= balance, \"withdraw balance could not more than balance\") */\n      tag_66\n      jumpi\n      mload(0x40)\n      0x08c379a000000000000000000000000000000000000000000000000000000000\n      dup2\n      mstore\n      0x04\n      add\n      tag_67\n      swap1\n      tag_68\n      jump\t// in\n    tag_67:\n      mload(0x40)\n      dup1\n      swap2\n      sub\n      swap1\n      revert\n    tag_66:\n        /* \"contracts/MultisigWallet.sol\":4256:4259  0x0 */\n      0x00\n        /* \"contracts/MultisigWallet.sol\":4231:4260  targetAddress != address(0x0) */\n      0xffffffffffffffffffffffffffffffffffffffff\n      and\n        /* \"contracts/MultisigWallet.sol\":4231:4244  targetAddress */\n      dup2\n        /* \"contracts/MultisigWallet.sol\":4231:4260  targetAddress != address(0x0) */\n      0xffffffffffffffffffffffffffffffffffffffff\n      and\n      eq\n      iszero\n        /* \"contracts/MultisigWallet.sol\":4223:4286  require(targetAddress != address(0x0), \"invalid targetAddress\") */\n      tag_69\n      jumpi\n      mload(0x40)\n      0x08c379a000000000000000000000000000000000000000000000000000000000\n      dup2\n      mstore\n      0x04\n      add\n      tag_70\n      swap1\n      tag_71\n      jump\t// in\n    tag_70:\n      mload(0x40)\n      dup1\n      swap2\n      sub\n      swap1\n      revert\n    tag_69:\n        /* \"contracts/MultisigWallet.sol\":4302:4312  msg.sender */\n      caller\n        /* \"contracts/MultisigWallet.sol\":4290:4299  initiator */\n      0x06\n      0x00\n        /* \"contracts/MultisigWallet.sol\":4290:4312  initiator = msg.sender */\n      0x0100\n      exp\n      dup2\n      sload\n      dup2\n      0xffffffffffffffffffffffffffffffffffffffff\n      mul\n      not\n      and\n      swap1\n      dup4\n      0xffffffffffffffffffffffffffffffffffffffff\n      and\n      mul\n      or\n      swap1\n      sstore\n      pop\n        /* \"contracts/MultisigWallet.sol\":4339:4343  weis */\n      dup2\n        /* \"contracts/MultisigWallet.sol\":4316:4336  waitfor_withdraw_wei */\n      0x04\n        /* \"contracts/MultisigWallet.sol\":4316:4343  waitfor_withdraw_wei = weis */\n      dup2\n      swap1\n      sstore\n      pop\n        /* \"contracts/MultisigWallet.sol\":4374:4387  targetAddress */\n      dup1\n        /* \"contracts/MultisigWallet.sol\":4347:4371  waitfor_withdraw_address */\n      0x05\n      0x00\n        /* \"contracts/MultisigWallet.sol\":4347:4387  waitfor_withdraw_address = targetAddress */\n      0x0100\n      exp\n      dup2\n      sload\n      dup2\n      0xffffffffffffffffffffffffffffffffffffffff\n      mul\n      not\n      and\n      swap1\n      dup4\n      0xffffffffffffffffffffffffffffffffffffffff\n      and\n      mul\n      or\n      swap1\n      sstore\n      pop\n        /* \"contracts/MultisigWallet.sol\":4391:4405  current_signed */\n      0x07\n        /* \"contracts/MultisigWallet.sol\":4411:4421  msg.sender */\n      caller\n        /* \"contracts/MultisigWallet.sol\":4391:4422  current_signed.push(msg.sender) */\n      swap1\n      dup1\n      0x01\n      dup2\n      sload\n      add\n      dup1\n      dup3\n      sstore\n      dup1\n      swap2\n      pop\n      pop\n      0x01\n      swap1\n      sub\n      swap1\n      0x00\n      mstore\n      keccak256(0x00, 0x20)\n      add\n      0x00\n      swap1\n      swap2\n      swap1\n      swap2\n      swap1\n      swap2\n      0x0100\n      exp\n      dup2\n      sload\n      dup2\n      0xffffffffffffffffffffffffffffffffffffffff\n      mul\n      not\n      and\n      swap1\n      dup4\n      0xffffffffffffffffffffffffffffffffffffffff\n      and\n      mul\n      or\n      swap1\n      sstore\n      pop\n        /* \"contracts/MultisigWallet.sol\":4542:4561  signedCountEnough() */\n      tag_73\n        /* \"contracts/MultisigWallet.sol\":4542:4559  signedCountEnough */\n      tag_74\n        /* \"contracts/MultisigWallet.sol\":4542:4561  signedCountEnough() */\n      jump\t// in\n    tag_73:\n        /* \"contracts/MultisigWallet.sol\":4539:4586  if(signedCountEnough()) {... */\n      iszero\n      tag_75\n      jumpi\n        /* \"contracts/MultisigWallet.sol\":4568:4581  do_withdraw() */\n      tag_76\n        /* \"contracts/MultisigWallet.sol\":4568:4579  do_withdraw */\n      tag_77\n        /* \"contracts/MultisigWallet.sol\":4568:4581  do_withdraw() */\n      jump\t// in\n    tag_76:\n        /* \"contracts/MultisigWallet.sol\":4539:4586  if(signedCountEnough()) {... */\n    tag_75:\n        /* \"contracts/MultisigWallet.sol\":3977:4589  function process_withdraw(uint weis, address payable targetAddress) public onlyCollaborators {... */\n      pop\n      pop\n      jump\t// out\n        /* \"contracts/MultisigWallet.sol\":4955:5653  function cancel_withdraw_by_counterparty() public onlyCollaborators {... */\n    tag_27:\n        /* \"contracts/MultisigWallet.sol\":3669:3693  is_oneof_collaborators() */\n      tag_79\n        /* \"contracts/MultisigWallet.sol\":3669:3691  is_oneof_collaborators */\n      tag_58\n        /* \"contracts/MultisigWallet.sol\":3669:3693  is_oneof_collaborators() */\n      jump\t// in\n    tag_79:\n        /* \"contracts/MultisigWallet.sol\":3661:3736  require(is_oneof_collaborators(), \"only collaborators have the permission\") */\n      tag_80\n      jumpi\n      mload(0x40)\n      0x08c379a000000000000000000000000000000000000000000000000000000000\n      dup2\n      mstore\n      0x04\n      add\n      tag_81\n      swap1\n      tag_61\n      jump\t// in\n    tag_81:\n      mload(0x40)\n      dup1\n      swap2\n      sub\n      swap1\n      revert\n    tag_80:\n        /* \"contracts/MultisigWallet.sol\":5049:5058  initiator */\n      0x06\n      0x00\n      swap1\n      sload\n      swap1\n      0x0100\n      exp\n      swap1\n      div\n      0xffffffffffffffffffffffffffffffffffffffff\n      and\n        /* \"contracts/MultisigWallet.sol\":5035:5058  msg.sender != initiator */\n      0xffffffffffffffffffffffffffffffffffffffff\n      and\n        /* \"contracts/MultisigWallet.sol\":5035:5045  msg.sender */\n      caller\n        /* \"contracts/MultisigWallet.sol\":5035:5058  msg.sender != initiator */\n      0xffffffffffffffffffffffffffffffffffffffff\n      and\n      eq\n      iszero\n        /* \"contracts/MultisigWallet.sol\":5027:5121  require(msg.sender != initiator, \"only the counter party of initiator can call this function\") */\n      tag_83\n      jumpi\n      mload(0x40)\n      0x08c379a000000000000000000000000000000000000000000000000000000000\n      dup2\n      mstore\n      0x04\n      add\n      tag_84\n      swap1\n      tag_85\n      jump\t// in\n    tag_84:\n      mload(0x40)\n      dup1\n      swap2\n      sub\n      swap1\n      revert\n    tag_83:\n        /* \"contracts/MultisigWallet.sol\":5134:5198  address_array_in(current_cancel_counterparty_signed, msg.sender) */\n      tag_86\n        /* \"contracts/MultisigWallet.sol\":5151:5185  current_cancel_counterparty_signed */\n      0x08\n        /* \"contracts/MultisigWallet.sol\":5134:5198  address_array_in(current_cancel_counterparty_signed, msg.sender) */\n      dup1\n      sload\n      dup1\n      0x20\n      mul\n      0x20\n      add\n      mload(0x40)\n      swap1\n      dup2\n      add\n      0x40\n      mstore\n      dup1\n      swap3\n      swap2\n      swap1\n      dup2\n      dup2\n      mstore\n      0x20\n      add\n      dup3\n      dup1\n      sload\n      dup1\n      iszero\n      tag_87\n      jumpi\n      0x20\n      mul\n      dup3\n      add\n      swap2\n      swap1\n      0x00\n      mstore\n      keccak256(0x00, 0x20)\n      swap1\n    tag_88:\n      dup2\n      0x00\n      swap1\n      sload\n      swap1\n      0x0100\n      exp\n      swap1\n      div\n      0xffffffffffffffffffffffffffffffffffffffff\n      and\n      0xffffffffffffffffffffffffffffffffffffffff\n      and\n      dup2\n      mstore\n      0x20\n      add\n      swap1\n      0x01\n      add\n      swap1\n      dup1\n      dup4\n      gt\n      tag_88\n      jumpi\n    tag_87:\n      pop\n      pop\n      pop\n      pop\n      pop\n        /* \"contracts/MultisigWallet.sol\":5187:5197  msg.sender */\n      caller\n        /* \"contracts/MultisigWallet.sol\":5134:5150  address_array_in */\n      tag_89\n        /* \"contracts/MultisigWallet.sol\":5134:5198  address_array_in(current_cancel_counterparty_signed, msg.sender) */\n      jump\t// in\n    tag_86:\n        /* \"contracts/MultisigWallet.sol\":5133:5198  !address_array_in(current_cancel_counterparty_signed, msg.sender) */\n      iszero\n        /* \"contracts/MultisigWallet.sol\":5125:5249  require(!address_array_in(current_cancel_counterparty_signed, msg.sender), \"you have signed for cancellation, don't repeat\") */\n      tag_90\n      jumpi\n      mload(0x40)\n      0x08c379a000000000000000000000000000000000000000000000000000000000\n      dup2\n      mstore\n      0x04\n      add\n      tag_91\n      swap1\n      tag_92\n      jump\t// in\n    tag_91:\n      mload(0x40)\n      dup1\n      swap2\n      sub\n      swap1\n      revert\n    tag_90:\n        /* \"contracts/MultisigWallet.sol\":5284:5285  0 */\n      0x00\n        /* \"contracts/MultisigWallet.sol\":5261:5281  waitfor_withdraw_wei */\n      sload(0x04)\n        /* \"contracts/MultisigWallet.sol\":5261:5285  waitfor_withdraw_wei > 0 */\n      gt\n        /* \"contracts/MultisigWallet.sol\":5253:5337  require(waitfor_withdraw_wei > 0, \"there isn't any withdrwals wait for cancelation\") */\n      tag_93\n      jumpi\n      mload(0x40)\n      0x08c379a000000000000000000000000000000000000000000000000000000000\n      dup2\n      mstore\n      0x04\n      add\n      tag_94\n      swap1\n      tag_95\n      jump\t// in\n    tag_94:\n      mload(0x40)\n      dup1\n      swap2\n      sub\n      swap1\n      revert\n    tag_93:\n        /* \"contracts/MultisigWallet.sol\":5341:5375  current_cancel_counterparty_signed */\n      0x08\n        /* \"contracts/MultisigWallet.sol\":5381:5391  msg.sender */\n      caller\n        /* \"contracts/MultisigWallet.sol\":5341:5392  current_cancel_counterparty_signed.push(msg.sender) */\n      swap1\n      dup1\n      0x01\n      dup2\n      sload\n      add\n      dup1\n      dup3\n      sstore\n      dup1\n      swap2\n      pop\n      pop\n      0x01\n      swap1\n      sub\n      swap1\n      0x00\n      mstore\n      keccak256(0x00, 0x20)\n      add\n      0x00\n      swap1\n      swap2\n      swap1\n      swap2\n      swap1\n      swap2\n      0x0100\n      exp\n      dup2\n      sload\n      dup2\n      0xffffffffffffffffffffffffffffffffffffffff\n      mul\n      not\n      and\n      swap1\n      dup4\n      0xffffffffffffffffffffffffffffffffffffffff\n      and\n      mul\n      or\n      swap1\n      sstore\n      pop\n        /* \"contracts/MultisigWallet.sol\":5396:5412  uint signedCount */\n      0x00\n        /* \"contracts/MultisigWallet.sol\":5424:5430  uint i */\n      dup1\n        /* \"contracts/MultisigWallet.sol\":5420:5573  for(uint i=0; i<current_cancel_counterparty_signed.length; i++) {... */\n    tag_97:\n        /* \"contracts/MultisigWallet.sol\":5436:5470  current_cancel_counterparty_signed */\n      0x08\n        /* \"contracts/MultisigWallet.sol\":5436:5477  current_cancel_counterparty_signed.length */\n      dup1\n      sload\n      swap1\n      pop\n        /* \"contracts/MultisigWallet.sol\":5434:5435  i */\n      dup2\n        /* \"contracts/MultisigWallet.sol\":5434:5477  i<current_cancel_counterparty_signed.length */\n      lt\n        /* \"contracts/MultisigWallet.sol\":5420:5573  for(uint i=0; i<current_cancel_counterparty_signed.length; i++) {... */\n      iszero\n      tag_98\n      jumpi\n        /* \"contracts/MultisigWallet.sol\":5541:5542  0 */\n      0x00\n        /* \"contracts/MultisigWallet.sol\":5492:5543  current_cancel_counterparty_signed[i] != address(0) */\n      0xffffffffffffffffffffffffffffffffffffffff\n      and\n        /* \"contracts/MultisigWallet.sol\":5492:5526  current_cancel_counterparty_signed */\n      0x08\n        /* \"contracts/MultisigWallet.sol\":5527:5528  i */\n      dup3\n        /* \"contracts/MultisigWallet.sol\":5492:5529  current_cancel_counterparty_signed[i] */\n      dup2\n      sload\n      dup2\n      lt\n      tag_100\n      jumpi\n      tag_101\n      tag_102\n      jump\t// in\n    tag_101:\n    tag_100:\n      swap1\n      0x00\n      mstore\n      keccak256(0x00, 0x20)\n      add\n      0x00\n      swap1\n      sload\n      swap1\n      0x0100\n      exp\n      swap1\n      div\n      0xffffffffffffffffffffffffffffffffffffffff\n      and\n        /* \"contracts/MultisigWallet.sol\":5492:5543  current_cancel_counterparty_signed[i] != address(0) */\n      0xffffffffffffffffffffffffffffffffffffffff\n      and\n      eq\n        /* \"contracts/MultisigWallet.sol\":5489:5569  if(current_cancel_counterparty_signed[i] != address(0)){... */\n      tag_104\n      jumpi\n        /* \"contracts/MultisigWallet.sol\":5550:5563  signedCount++ */\n      dup2\n      dup1\n      tag_105\n      swap1\n      tag_106\n      jump\t// in\n    tag_105:\n      swap3\n      pop\n      pop\n        /* \"contracts/MultisigWallet.sol\":5489:5569  if(current_cancel_counterparty_signed[i] != address(0)){... */\n    tag_104:\n        /* \"contracts/MultisigWallet.sol\":5479:5482  i++ */\n      dup1\n      dup1\n      tag_107\n      swap1\n      tag_106\n      jump\t// in\n    tag_107:\n      swap2\n      pop\n      pop\n        /* \"contracts/MultisigWallet.sol\":5420:5573  for(uint i=0; i<current_cancel_counterparty_signed.length; i++) {... */\n      jump(tag_97)\n    tag_98:\n      pop\n        /* \"contracts/MultisigWallet.sol\":5617:5618  1 */\n      0x01\n        /* \"contracts/MultisigWallet.sol\":5594:5607  collaborators */\n      0x02\n        /* \"contracts/MultisigWallet.sol\":5594:5614  collaborators.length */\n      dup1\n      sload\n      swap1\n      pop\n        /* \"contracts/MultisigWallet.sol\":5594:5618  collaborators.length - 1 */\n      tag_108\n      swap2\n      swap1\n      tag_109\n      jump\t// in\n    tag_108:\n        /* \"contracts/MultisigWallet.sol\":5579:5590  signedCount */\n      dup2\n        /* \"contracts/MultisigWallet.sol\":5579:5618  signedCount == collaborators.length - 1 */\n      eq\n        /* \"contracts/MultisigWallet.sol\":5576:5650  if(signedCount == collaborators.length - 1) {... */\n      iszero\n      tag_110\n      jumpi\n        /* \"contracts/MultisigWallet.sol\":5625:5645  do_cancel_withdraw() */\n      tag_111\n        /* \"contracts/MultisigWallet.sol\":5625:5643  do_cancel_withdraw */\n      tag_112\n        /* \"contracts/MultisigWallet.sol\":5625:5645  do_cancel_withdraw() */\n      jump\t// in\n    tag_111:\n        /* \"contracts/MultisigWallet.sol\":5576:5650  if(signedCount == collaborators.length - 1) {... */\n    tag_110:\n        /* \"contracts/MultisigWallet.sol\":5023:5653  {... */\n      pop\n        /* \"contracts/MultisigWallet.sol\":4955:5653  function cancel_withdraw_by_counterparty() public onlyCollaborators {... */\n      jump\t// out\n        /* \"contracts/MultisigWallet.sol\":6307:6671  function collaboratorSign() public onlyCollaborators {... */\n    tag_30:\n        /* \"contracts/MultisigWallet.sol\":3669:3693  is_oneof_collaborators() */\n      tag_114\n        /* \"contracts/MultisigWallet.sol\":3669:3691  is_oneof_collaborators */\n      tag_58\n        /* \"contracts/MultisigWallet.sol\":3669:3693  is_oneof_collaborators() */\n      jump\t// in\n    tag_114:\n        /* \"contracts/MultisigWallet.sol\":3661:3736  require(is_oneof_collaborators(), \"only collaborators have the permission\") */\n      tag_115\n      jumpi\n      mload(0x40)\n      0x08c379a000000000000000000000000000000000000000000000000000000000\n      dup2\n      mstore\n      0x04\n      add\n      tag_116\n      swap1\n      tag_61\n      jump\t// in\n    tag_116:\n      mload(0x40)\n      dup1\n      swap2\n      sub\n      swap1\n      revert\n    tag_115:\n        /* \"contracts/MultisigWallet.sol\":6395:6396  0 */\n      0x00\n        /* \"contracts/MultisigWallet.sol\":6372:6392  waitfor_withdraw_wei */\n      sload(0x04)\n        /* \"contracts/MultisigWallet.sol\":6372:6396  waitfor_withdraw_wei > 0 */\n      gt\n        /* \"contracts/MultisigWallet.sol\":6364:6445  require(waitfor_withdraw_wei > 0, \"there is no withdraw action waiting for sign\") */\n      tag_118\n      jumpi\n      mload(0x40)\n      0x08c379a000000000000000000000000000000000000000000000000000000000\n      dup2\n      mstore\n      0x04\n      add\n      tag_119\n      swap1\n      tag_120\n      jump\t// in\n    tag_119:\n      mload(0x40)\n      dup1\n      swap2\n      sub\n      swap1\n      revert\n    tag_118:\n        /* \"contracts/MultisigWallet.sol\":6464:6480  already_signed() */\n      tag_121\n        /* \"contracts/MultisigWallet.sol\":6464:6478  already_signed */\n      tag_122\n        /* \"contracts/MultisigWallet.sol\":6464:6480  already_signed() */\n      jump\t// in\n    tag_121:\n        /* \"contracts/MultisigWallet.sol\":6463:6480  !already_signed() */\n      iszero\n        /* \"contracts/MultisigWallet.sol\":6455:6541  require(!already_signed(), \"you have signed this withdraw process, plz don't repeat.\") */\n      tag_123\n      jumpi\n      mload(0x40)\n      0x08c379a000000000000000000000000000000000000000000000000000000000\n      dup2\n      mstore\n      0x04\n      add\n      tag_124\n      swap1\n      tag_125\n      jump\t// in\n    tag_124:\n      mload(0x40)\n      dup1\n      swap2\n      sub\n      swap1\n      revert\n    tag_123:\n        /* \"contracts/MultisigWallet.sol\":6545:6559  current_signed */\n      0x07\n        /* \"contracts/MultisigWallet.sol\":6565:6575  msg.sender */\n      caller\n        /* \"contracts/MultisigWallet.sol\":6545:6576  current_signed.push(msg.sender) */\n      swap1\n      dup1\n      0x01\n      dup2\n      sload\n      add\n      dup1\n      dup3\n      sstore\n      dup1\n      swap2\n      pop\n      pop\n      0x01\n      swap1\n      sub\n      swap1\n      0x00\n      mstore\n      keccak256(0x00, 0x20)\n      add\n      0x00\n      swap1\n      swap2\n      swap1\n      swap2\n      swap1\n      swap2\n      0x0100\n      exp\n      dup2\n      sload\n      dup2\n      0xffffffffffffffffffffffffffffffffffffffff\n      mul\n      not\n      and\n      swap1\n      dup4\n      0xffffffffffffffffffffffffffffffffffffffff\n      and\n      mul\n      or\n      swap1\n      sstore\n      pop\n        /* \"contracts/MultisigWallet.sol\":6624:6643  signedCountEnough() */\n      tag_127\n        /* \"contracts/MultisigWallet.sol\":6624:6641  signedCountEnough */\n      tag_74\n        /* \"contracts/MultisigWallet.sol\":6624:6643  signedCountEnough() */\n      jump\t// in\n    tag_127:\n        /* \"contracts/MultisigWallet.sol\":6621:6668  if(signedCountEnough()) {... */\n      iszero\n      tag_128\n      jumpi\n        /* \"contracts/MultisigWallet.sol\":6650:6663  do_withdraw() */\n      tag_129\n        /* \"contracts/MultisigWallet.sol\":6650:6661  do_withdraw */\n      tag_77\n        /* \"contracts/MultisigWallet.sol\":6650:6663  do_withdraw() */\n      jump\t// in\n    tag_129:\n        /* \"contracts/MultisigWallet.sol\":6621:6668  if(signedCountEnough()) {... */\n    tag_128:\n        /* \"contracts/MultisigWallet.sol\":6307:6671  function collaboratorSign() public onlyCollaborators {... */\n      jump\t// out\n        /* \"contracts/MultisigWallet.sol\":1163:1192  uint public withdraw_fee_rate */\n    tag_33:\n      sload(0x0a)\n      dup2\n      jump\t// out\n        /* \"contracts/MultisigWallet.sol\":5695:5857  function cancel_withdraw() public onlyCollaborators {... */\n    tag_38:\n        /* \"contracts/MultisigWallet.sol\":3669:3693  is_oneof_collaborators() */\n      tag_131\n        /* \"contracts/MultisigWallet.sol\":3669:3691  is_oneof_collaborators */\n      tag_58\n        /* \"contracts/MultisigWallet.sol\":3669:3693  is_oneof_collaborators() */\n      jump\t// in\n    tag_131:\n        /* \"contracts/MultisigWallet.sol\":3661:3736  require(is_oneof_collaborators(), \"only collaborators have the permission\") */\n      tag_132\n      jumpi\n      mload(0x40)\n      0x08c379a000000000000000000000000000000000000000000000000000000000\n      dup2\n      mstore\n      0x04\n      add\n      tag_133\n      swap1\n      tag_61\n      jump\t// in\n    tag_133:\n      mload(0x40)\n      dup1\n      swap2\n      sub\n      swap1\n      revert\n    tag_132:\n        /* \"contracts/MultisigWallet.sol\":5773:5782  initiator */\n      0x06\n      0x00\n      swap1\n      sload\n      swap1\n      0x0100\n      exp\n      swap1\n      div\n      0xffffffffffffffffffffffffffffffffffffffff\n      and\n        /* \"contracts/MultisigWallet.sol\":5759:5782  msg.sender == initiator */\n      0xffffffffffffffffffffffffffffffffffffffff\n      and\n        /* \"contracts/MultisigWallet.sol\":5759:5769  msg.sender */\n      caller\n        /* \"contracts/MultisigWallet.sol\":5759:5782  msg.sender == initiator */\n      0xffffffffffffffffffffffffffffffffffffffff\n      and\n      eq\n        /* \"contracts/MultisigWallet.sol\":5751:5829  require(msg.sender == initiator, \"only the initiator can cancel this process\") */\n      tag_135\n      jumpi\n      mload(0x40)\n      0x08c379a000000000000000000000000000000000000000000000000000000000\n      dup2\n      mstore\n      0x04\n      add\n      tag_136\n      swap1\n      tag_137\n      jump\t// in\n    tag_136:\n      mload(0x40)\n      dup1\n      swap2\n      sub\n      swap1\n      revert\n    tag_135:\n        /* \"contracts/MultisigWallet.sol\":5833:5853  do_cancel_withdraw() */\n      tag_138\n        /* \"contracts/MultisigWallet.sol\":5833:5851  do_cancel_withdraw */\n      tag_112\n        /* \"contracts/MultisigWallet.sol\":5833:5853  do_cancel_withdraw() */\n      jump\t// in\n    tag_138:\n        /* \"contracts/MultisigWallet.sol\":5695:5857  function cancel_withdraw() public onlyCollaborators {... */\n      jump\t// out\n        /* \"contracts/MultisigWallet.sol\":169:188  uint public balance */\n    tag_41:\n      sload(0x00)\n      dup2\n      jump\t// out\n        /* \"contracts/MultisigWallet.sol\":2746:2971  function changePlatformAccount(address newAccount) public {... */\n    tag_47:\n        /* \"contracts/MultisigWallet.sol\":2836:2852  platform_account */\n      0x0c\n      0x00\n      swap1\n      sload\n      swap1\n      0x0100\n      exp\n      swap1\n      div\n      0xffffffffffffffffffffffffffffffffffffffff\n      and\n        /* \"contracts/MultisigWallet.sol\":2822:2852  msg.sender == platform_account */\n      0xffffffffffffffffffffffffffffffffffffffff\n      and\n        /* \"contracts/MultisigWallet.sol\":2822:2832  msg.sender */\n      caller\n        /* \"contracts/MultisigWallet.sol\":2822:2852  msg.sender == platform_account */\n      0xffffffffffffffffffffffffffffffffffffffff\n      and\n      eq\n        /* \"contracts/MultisigWallet.sol\":2814:2916  require(msg.sender == platform_account, \"only platform account itself can change it to other account\") */\n      tag_140\n      jumpi\n      mload(0x40)\n      0x08c379a000000000000000000000000000000000000000000000000000000000\n      dup2\n      mstore\n      0x04\n      add\n      tag_141\n      swap1\n      tag_142\n      jump\t// in\n    tag_141:\n      mload(0x40)\n      dup1\n      swap2\n      sub\n      swap1\n      revert\n    tag_140:\n        /* \"contracts/MultisigWallet.sol\":2953:2963  newAccount */\n      dup1\n        /* \"contracts/MultisigWallet.sol\":2926:2942  platform_account */\n      0x0c\n      0x00\n        /* \"contracts/MultisigWallet.sol\":2926:2964  platform_account = payable(newAccount) */\n      0x0100\n      exp\n      dup2\n      sload\n      dup2\n      0xffffffffffffffffffffffffffffffffffffffff\n      mul\n      not\n      and\n      swap1\n      dup4\n      0xffffffffffffffffffffffffffffffffffffffff\n      and\n      mul\n      or\n      swap1\n      sstore\n      pop\n        /* \"contracts/MultisigWallet.sol\":2746:2971  function changePlatformAccount(address newAccount) public {... */\n      pop\n      jump\t// out\n        /* \"contracts/MultisigWallet.sol\":1085:1111  uint public withdraw_count */\n    tag_50:\n      sload(0x09)\n      dup2\n      jump\t// out\n        /* \"contracts/MultisigWallet.sol\":1220:1251  uint public withdraw_free_count */\n    tag_54:\n      sload(0x0b)\n      dup2\n      jump\t// out\n        /* \"contracts/MultisigWallet.sol\":3347:3467  function is_oneof_collaborators() private view returns (bool) {... */\n    tag_58:\n        /* \"contracts/MultisigWallet.sol\":3403:3407  bool */\n      0x00\n        /* \"contracts/MultisigWallet.sol\":3420:3463  address_array_in(collaborators, msg.sender) */\n      tag_144\n        /* \"contracts/MultisigWallet.sol\":3437:3450  collaborators */\n      0x02\n        /* \"contracts/MultisigWallet.sol\":3420:3463  address_array_in(collaborators, msg.sender) */\n      dup1\n      sload\n      dup1\n      0x20\n      mul\n      0x20\n      add\n      mload(0x40)\n      swap1\n      dup2\n      add\n      0x40\n      mstore\n      dup1\n      swap3\n      swap2\n      swap1\n      dup2\n      dup2\n      mstore\n      0x20\n      add\n      dup3\n      dup1\n      sload\n      dup1\n      iszero\n      tag_145\n      jumpi\n      0x20\n      mul\n      dup3\n      add\n      swap2\n      swap1\n      0x00\n      mstore\n      keccak256(0x00, 0x20)\n      swap1\n    tag_146:\n      dup2\n      0x00\n      swap1\n      sload\n      swap1\n      0x0100\n      exp\n      swap1\n      div\n      0xffffffffffffffffffffffffffffffffffffffff\n      and\n      0xffffffffffffffffffffffffffffffffffffffff\n      and\n      dup2\n      mstore\n      0x20\n      add\n      swap1\n      0x01\n      add\n      swap1\n      dup1\n      dup4\n      gt\n      tag_146\n      jumpi\n    tag_145:\n      pop\n      pop\n      pop\n      pop\n      pop\n        /* \"contracts/MultisigWallet.sol\":3452:3462  msg.sender */\n      caller\n        /* \"contracts/MultisigWallet.sol\":3420:3436  address_array_in */\n      tag_89\n        /* \"contracts/MultisigWallet.sol\":3420:3463  address_array_in(collaborators, msg.sender) */\n      jump\t// in\n    tag_144:\n        /* \"contracts/MultisigWallet.sol\":3413:3463  return address_array_in(collaborators, msg.sender) */\n      swap1\n      pop\n        /* \"contracts/MultisigWallet.sol\":3347:3467  function is_oneof_collaborators() private view returns (bool) {... */\n      swap1\n      jump\t// out\n        /* \"contracts/MultisigWallet.sol\":7819:8172  function signedCountEnough() private view returns (bool) {... */\n    tag_74:\n        /* \"contracts/MultisigWallet.sol\":7870:7874  bool */\n      0x00\n        /* \"contracts/MultisigWallet.sol\":7880:7903  address[] memory signed */\n      dup1\n        /* \"contracts/MultisigWallet.sol\":7906:7920  current_signed */\n      0x07\n        /* \"contracts/MultisigWallet.sol\":7880:7920  address[] memory signed = current_signed */\n      dup1\n      sload\n      dup1\n      0x20\n      mul\n      0x20\n      add\n      mload(0x40)\n      swap1\n      dup2\n      add\n      0x40\n      mstore\n      dup1\n      swap3\n      swap2\n      swap1\n      dup2\n      dup2\n      mstore\n      0x20\n      add\n      dup3\n      dup1\n      sload\n      dup1\n      iszero\n      tag_148\n      jumpi\n      0x20\n      mul\n      dup3\n      add\n      swap2\n      swap1\n      0x00\n      mstore\n      keccak256(0x00, 0x20)\n      swap1\n    tag_149:\n      dup2\n      0x00\n      swap1\n      sload\n      swap1\n      0x0100\n      exp\n      swap1\n      div\n      0xffffffffffffffffffffffffffffffffffffffff\n      and\n      0xffffffffffffffffffffffffffffffffffffffff\n      and\n      dup2\n      mstore\n      0x20\n      add\n      swap1\n      0x01\n      add\n      swap1\n      dup1\n      dup4\n      gt\n      tag_149\n      jumpi\n    tag_148:\n      pop\n      pop\n      pop\n      pop\n      pop\n      swap1\n      pop\n        /* \"contracts/MultisigWallet.sol\":7924:7946  uint8 signedMatchCount */\n      0x00\n        /* \"contracts/MultisigWallet.sol\":7958:7964  uint i */\n      dup1\n        /* \"contracts/MultisigWallet.sol\":7954:8119  for(uint i=0; i<signed.length; i++) {... */\n    tag_150:\n        /* \"contracts/MultisigWallet.sol\":7970:7976  signed */\n      dup3\n        /* \"contracts/MultisigWallet.sol\":7970:7983  signed.length */\n      mload\n        /* \"contracts/MultisigWallet.sol\":7968:7969  i */\n      dup2\n        /* \"contracts/MultisigWallet.sol\":7968:7983  i<signed.length */\n      lt\n        /* \"contracts/MultisigWallet.sol\":7954:8119  for(uint i=0; i<signed.length; i++) {... */\n      iszero\n      tag_151\n      jumpi\n        /* \"contracts/MultisigWallet.sol\":7999:8005  uint j */\n      0x00\n        /* \"contracts/MultisigWallet.sol\":7995:8115  for(uint j=0; j<collaborators.length; j++) {... */\n    tag_153:\n        /* \"contracts/MultisigWallet.sol\":8011:8024  collaborators */\n      0x02\n        /* \"contracts/MultisigWallet.sol\":8011:8031  collaborators.length */\n      dup1\n      sload\n      swap1\n      pop\n        /* \"contracts/MultisigWallet.sol\":8009:8010  j */\n      dup2\n        /* \"contracts/MultisigWallet.sol\":8009:8031  j<collaborators.length */\n      lt\n        /* \"contracts/MultisigWallet.sol\":7995:8115  for(uint j=0; j<collaborators.length; j++) {... */\n      iszero\n      tag_154\n      jumpi\n        /* \"contracts/MultisigWallet.sol\":8067:8073  signed */\n      dup4\n        /* \"contracts/MultisigWallet.sol\":8074:8075  i */\n      dup3\n        /* \"contracts/MultisigWallet.sol\":8067:8076  signed[i] */\n      dup2\n      mload\n      dup2\n      lt\n      tag_156\n      jumpi\n      tag_157\n      tag_102\n      jump\t// in\n    tag_157:\n    tag_156:\n      0x20\n      mul\n      0x20\n      add\n      add\n      mload\n        /* \"contracts/MultisigWallet.sol\":8047:8076  collaborators[j] == signed[i] */\n      0xffffffffffffffffffffffffffffffffffffffff\n      and\n        /* \"contracts/MultisigWallet.sol\":8047:8060  collaborators */\n      0x02\n        /* \"contracts/MultisigWallet.sol\":8061:8062  j */\n      dup3\n        /* \"contracts/MultisigWallet.sol\":8047:8063  collaborators[j] */\n      dup2\n      sload\n      dup2\n      lt\n      tag_158\n      jumpi\n      tag_159\n      tag_102\n      jump\t// in\n    tag_159:\n    tag_158:\n      swap1\n      0x00\n      mstore\n      keccak256(0x00, 0x20)\n      add\n      0x00\n      swap1\n      sload\n      swap1\n      0x0100\n      exp\n      swap1\n      div\n      0xffffffffffffffffffffffffffffffffffffffff\n      and\n        /* \"contracts/MultisigWallet.sol\":8047:8076  collaborators[j] == signed[i] */\n      0xffffffffffffffffffffffffffffffffffffffff\n      and\n      eq\n        /* \"contracts/MultisigWallet.sol\":8044:8110  if(collaborators[j] == signed[i]) {... */\n      iszero\n      tag_161\n      jumpi\n        /* \"contracts/MultisigWallet.sol\":8085:8103  signedMatchCount++ */\n      dup3\n      dup1\n      tag_162\n      swap1\n      tag_163\n      jump\t// in\n    tag_162:\n      swap4\n      pop\n      pop\n        /* \"contracts/MultisigWallet.sol\":8044:8110  if(collaborators[j] == signed[i]) {... */\n    tag_161:\n        /* \"contracts/MultisigWallet.sol\":8033:8036  j++ */\n      dup1\n      dup1\n      tag_164\n      swap1\n      tag_106\n      jump\t// in\n    tag_164:\n      swap2\n      pop\n      pop\n        /* \"contracts/MultisigWallet.sol\":7995:8115  for(uint j=0; j<collaborators.length; j++) {... */\n      jump(tag_153)\n    tag_154:\n      pop\n        /* \"contracts/MultisigWallet.sol\":7985:7988  i++ */\n      dup1\n      dup1\n      tag_165\n      swap1\n      tag_106\n      jump\t// in\n    tag_165:\n      swap2\n      pop\n      pop\n        /* \"contracts/MultisigWallet.sol\":7954:8119  for(uint i=0; i<signed.length; i++) {... */\n      jump(tag_150)\n    tag_151:\n      pop\n        /* \"contracts/MultisigWallet.sol\":8149:8168  at_least_sign_count */\n      0x03\n      0x00\n      swap1\n      sload\n      swap1\n      0x0100\n      exp\n      swap1\n      div\n      0xff\n      and\n        /* \"contracts/MultisigWallet.sol\":8129:8168  signedMatchCount >= at_least_sign_count */\n      0xff\n      and\n        /* \"contracts/MultisigWallet.sol\":8129:8145  signedMatchCount */\n      dup2\n        /* \"contracts/MultisigWallet.sol\":8129:8168  signedMatchCount >= at_least_sign_count */\n      0xff\n      and\n      lt\n      iszero\n        /* \"contracts/MultisigWallet.sol\":8122:8168  return signedMatchCount >= at_least_sign_count */\n      swap3\n      pop\n      pop\n      pop\n        /* \"contracts/MultisigWallet.sol\":7819:8172  function signedCountEnough() private view returns (bool) {... */\n      swap1\n      jump\t// out\n        /* \"contracts/MultisigWallet.sol\":6677:7150  function do_withdraw() private {... */\n    tag_77:\n        /* \"contracts/MultisigWallet.sol\":6718:6727  uint weis */\n      0x00\n        /* \"contracts/MultisigWallet.sol\":6730:6750  waitfor_withdraw_wei */\n      sload(0x04)\n        /* \"contracts/MultisigWallet.sol\":6718:6750  uint weis = waitfor_withdraw_wei */\n      swap1\n      pop\n        /* \"contracts/MultisigWallet.sol\":6783:6784  0 */\n      0x00\n        /* \"contracts/MultisigWallet.sol\":6760:6780  waitfor_withdraw_wei */\n      0x04\n        /* \"contracts/MultisigWallet.sol\":6760:6784  waitfor_withdraw_wei = 0 */\n      dup2\n      swap1\n      sstore\n      pop\n        /* \"contracts/MultisigWallet.sol\":6794:6818  waitfor_withdraw_address */\n      0x05\n      0x00\n      swap1\n      sload\n      swap1\n      0x0100\n      exp\n      swap1\n      div\n      0xffffffffffffffffffffffffffffffffffffffff\n      and\n        /* \"contracts/MultisigWallet.sol\":6794:6827  waitfor_withdraw_address.transfer */\n      0xffffffffffffffffffffffffffffffffffffffff\n      and\n        /* \"contracts/MultisigWallet.sol\":6794:6833  waitfor_withdraw_address.transfer(weis) */\n      0x08fc\n        /* \"contracts/MultisigWallet.sol\":6828:6832  weis */\n      dup3\n        /* \"contracts/MultisigWallet.sol\":6794:6833  waitfor_withdraw_address.transfer(weis) */\n      swap1\n      dup2\n      iszero\n      mul\n      swap1\n      mload(0x40)\n      0x00\n      mload(0x40)\n      dup1\n      dup4\n      sub\n      dup2\n      dup6\n      dup9\n      dup9\n      call\n      swap4\n      pop\n      pop\n      pop\n      pop\n      iszero\n      dup1\n      iszero\n      tag_168\n      jumpi\n      returndatasize\n      0x00\n      dup1\n      returndatacopy\n      revert(0x00, returndatasize)\n    tag_168:\n      pop\n        /* \"contracts/MultisigWallet.sol\":6864:6868  weis */\n      dup1\n        /* \"contracts/MultisigWallet.sol\":6854:6861  balance */\n      sload(0x00)\n        /* \"contracts/MultisigWallet.sol\":6854:6868  balance - weis */\n      tag_169\n      swap2\n      swap1\n      tag_109\n      jump\t// in\n    tag_169:\n        /* \"contracts/MultisigWallet.sol\":6843:6850  balance */\n      0x00\n        /* \"contracts/MultisigWallet.sol\":6843:6868  balance =  balance - weis */\n      dup2\n      swap1\n      sstore\n      pop\n        /* \"contracts/MultisigWallet.sol\":6878:6892  withdraw_count */\n      0x09\n      0x00\n        /* \"contracts/MultisigWallet.sol\":6878:6894  withdraw_count++ */\n      dup2\n      sload\n      dup1\n      swap3\n      swap2\n      swap1\n      tag_170\n      swap1\n      tag_106\n      jump\t// in\n    tag_170:\n      swap2\n      swap1\n      pop\n      sstore\n      pop\n        /* \"contracts/MultisigWallet.sol\":6911:6935  waitfor_withdraw_address */\n      0x05\n      0x00\n        /* \"contracts/MultisigWallet.sol\":6904:6935  delete waitfor_withdraw_address */\n      0x0100\n      exp\n      dup2\n      sload\n      swap1\n      0xffffffffffffffffffffffffffffffffffffffff\n      mul\n      not\n      and\n      swap1\n      sstore\n        /* \"contracts/MultisigWallet.sol\":6953:6967  current_signed */\n      0x07\n      0x00\n        /* \"contracts/MultisigWallet.sol\":6946:6967  delete current_signed */\n      tag_171\n      swap2\n      swap1\n      tag_172\n      jump\t// in\n    tag_171:\n        /* \"contracts/MultisigWallet.sol\":6984:6993  initiator */\n      0x06\n      0x00\n        /* \"contracts/MultisigWallet.sol\":6977:6993  delete initiator */\n      0x0100\n      exp\n      dup2\n      sload\n      swap1\n      0xffffffffffffffffffffffffffffffffffffffff\n      mul\n      not\n      and\n      swap1\n      sstore\n        /* \"contracts/MultisigWallet.sol\":7010:7044  current_cancel_counterparty_signed */\n      0x08\n      0x00\n        /* \"contracts/MultisigWallet.sol\":7003:7044  delete current_cancel_counterparty_signed */\n      tag_173\n      swap2\n      swap1\n      tag_172\n      jump\t// in\n    tag_173:\n        /* \"contracts/MultisigWallet.sol\":7074:7093  withdraw_free_count */\n      sload(0x0b)\n        /* \"contracts/MultisigWallet.sol\":7057:7071  withdraw_count */\n      sload(0x09)\n        /* \"contracts/MultisigWallet.sol\":7057:7093  withdraw_count > withdraw_free_count */\n      gt\n        /* \"contracts/MultisigWallet.sol\":7054:7144  if(withdraw_count > withdraw_free_count) {... */\n      iszero\n      tag_174\n      jumpi\n        /* \"contracts/MultisigWallet.sol\":7109:7133  do_pay_service_fee(weis) */\n      tag_175\n        /* \"contracts/MultisigWallet.sol\":7128:7132  weis */\n      dup2\n        /* \"contracts/MultisigWallet.sol\":7109:7127  do_pay_service_fee */\n      tag_176\n        /* \"contracts/MultisigWallet.sol\":7109:7133  do_pay_service_fee(weis) */\n      jump\t// in\n    tag_175:\n        /* \"contracts/MultisigWallet.sol\":7054:7144  if(withdraw_count > withdraw_free_count) {... */\n    tag_174:\n        /* \"contracts/MultisigWallet.sol\":6708:7150  {... */\n      pop\n        /* \"contracts/MultisigWallet.sol\":6677:7150  function do_withdraw() private {... */\n      jump\t// out\n        /* \"contracts/MultisigWallet.sol\":7441:7688  function address_array_in(address[] memory array, address member) private pure returns (bool) {... */\n    tag_89:\n        /* \"contracts/MultisigWallet.sol\":7529:7533  bool */\n      0x00\n        /* \"contracts/MultisigWallet.sol\":7539:7551  bool inArray */\n      dup1\n        /* \"contracts/MultisigWallet.sol\":7554:7559  false */\n      0x00\n        /* \"contracts/MultisigWallet.sol\":7539:7559  bool inArray = false */\n      swap1\n      pop\n        /* \"contracts/MultisigWallet.sol\":7567:7573  uint i */\n      0x00\n        /* \"contracts/MultisigWallet.sol\":7563:7667  for(uint i=0; i<array.length; i++) {... */\n    tag_178:\n        /* \"contracts/MultisigWallet.sol\":7579:7584  array */\n      dup5\n        /* \"contracts/MultisigWallet.sol\":7579:7591  array.length */\n      mload\n        /* \"contracts/MultisigWallet.sol\":7577:7578  i */\n      dup2\n        /* \"contracts/MultisigWallet.sol\":7577:7591  i<array.length */\n      lt\n        /* \"contracts/MultisigWallet.sol\":7563:7667  for(uint i=0; i<array.length; i++) {... */\n      iszero\n      tag_179\n      jumpi\n        /* \"contracts/MultisigWallet.sol\":7618:7624  member */\n      dup4\n        /* \"contracts/MultisigWallet.sol\":7606:7624  array[i] == member */\n      0xffffffffffffffffffffffffffffffffffffffff\n      and\n        /* \"contracts/MultisigWallet.sol\":7606:7611  array */\n      dup6\n        /* \"contracts/MultisigWallet.sol\":7612:7613  i */\n      dup3\n        /* \"contracts/MultisigWallet.sol\":7606:7614  array[i] */\n      dup2\n      mload\n      dup2\n      lt\n      tag_181\n      jumpi\n      tag_182\n      tag_102\n      jump\t// in\n    tag_182:\n    tag_181:\n      0x20\n      mul\n      0x20\n      add\n      add\n      mload\n        /* \"contracts/MultisigWallet.sol\":7606:7624  array[i] == member */\n      0xffffffffffffffffffffffffffffffffffffffff\n      and\n      eq\n        /* \"contracts/MultisigWallet.sol\":7603:7663  if(array[i] == member) {... */\n      iszero\n      tag_183\n      jumpi\n        /* \"contracts/MultisigWallet.sol\":7642:7646  true */\n      0x01\n        /* \"contracts/MultisigWallet.sol\":7632:7646  inArray = true */\n      swap2\n      pop\n        /* \"contracts/MultisigWallet.sol\":7652:7657  break */\n      jump(tag_179)\n        /* \"contracts/MultisigWallet.sol\":7603:7663  if(array[i] == member) {... */\n    tag_183:\n        /* \"contracts/MultisigWallet.sol\":7593:7596  i++ */\n      dup1\n      dup1\n      tag_184\n      swap1\n      tag_106\n      jump\t// in\n    tag_184:\n      swap2\n      pop\n      pop\n        /* \"contracts/MultisigWallet.sol\":7563:7667  for(uint i=0; i<array.length; i++) {... */\n      jump(tag_178)\n    tag_179:\n      pop\n        /* \"contracts/MultisigWallet.sol\":7677:7684  inArray */\n      dup1\n        /* \"contracts/MultisigWallet.sol\":7670:7684  return inArray */\n      swap2\n      pop\n      pop\n        /* \"contracts/MultisigWallet.sol\":7441:7688  function address_array_in(address[] memory array, address member) private pure returns (bool) {... */\n      swap3\n      swap2\n      pop\n      pop\n      jump\t// out\n        /* \"contracts/MultisigWallet.sol\":5903:6099  function do_cancel_withdraw() private {... */\n    tag_112:\n        /* \"contracts/MultisigWallet.sol\":5952:5961  initiator */\n      0x06\n      0x00\n        /* \"contracts/MultisigWallet.sol\":5945:5961  delete initiator */\n      0x0100\n      exp\n      dup2\n      sload\n      swap1\n      0xffffffffffffffffffffffffffffffffffffffff\n      mul\n      not\n      and\n      swap1\n      sstore\n        /* \"contracts/MultisigWallet.sol\":5972:5996  waitfor_withdraw_address */\n      0x05\n      0x00\n        /* \"contracts/MultisigWallet.sol\":5965:5996  delete waitfor_withdraw_address */\n      0x0100\n      exp\n      dup2\n      sload\n      swap1\n      0xffffffffffffffffffffffffffffffffffffffff\n      mul\n      not\n      and\n      swap1\n      sstore\n        /* \"contracts/MultisigWallet.sol\":6024:6025  0 */\n      0x00\n        /* \"contracts/MultisigWallet.sol\":6001:6021  waitfor_withdraw_wei */\n      0x04\n        /* \"contracts/MultisigWallet.sol\":6001:6025  waitfor_withdraw_wei = 0 */\n      dup2\n      swap1\n      sstore\n      pop\n        /* \"contracts/MultisigWallet.sol\":6036:6050  current_signed */\n      0x07\n      0x00\n        /* \"contracts/MultisigWallet.sol\":6029:6050  delete current_signed */\n      tag_186\n      swap2\n      swap1\n      tag_172\n      jump\t// in\n    tag_186:\n        /* \"contracts/MultisigWallet.sol\":6061:6095  current_cancel_counterparty_signed */\n      0x08\n      0x00\n        /* \"contracts/MultisigWallet.sol\":6054:6095  delete current_cancel_counterparty_signed */\n      tag_187\n      swap2\n      swap1\n      tag_172\n      jump\t// in\n    tag_187:\n        /* \"contracts/MultisigWallet.sol\":5903:6099  function do_cancel_withdraw() private {... */\n      jump\t// out\n        /* \"contracts/MultisigWallet.sol\":7694:7816  function already_signed() private view returns (bool) {... */\n    tag_122:\n        /* \"contracts/MultisigWallet.sol\":7742:7746  bool */\n      0x00\n        /* \"contracts/MultisigWallet.sol\":7765:7809  address_array_in(current_signed, msg.sender) */\n      tag_189\n        /* \"contracts/MultisigWallet.sol\":7782:7796  current_signed */\n      0x07\n        /* \"contracts/MultisigWallet.sol\":7765:7809  address_array_in(current_signed, msg.sender) */\n      dup1\n      sload\n      dup1\n      0x20\n      mul\n      0x20\n      add\n      mload(0x40)\n      swap1\n      dup2\n      add\n      0x40\n      mstore\n      dup1\n      swap3\n      swap2\n      swap1\n      dup2\n      dup2\n      mstore\n      0x20\n      add\n      dup3\n      dup1\n      sload\n      dup1\n      iszero\n      tag_190\n      jumpi\n      0x20\n      mul\n      dup3\n      add\n      swap2\n      swap1\n      0x00\n      mstore\n      keccak256(0x00, 0x20)\n      swap1\n    tag_191:\n      dup2\n      0x00\n      swap1\n      sload\n      swap1\n      0x0100\n      exp\n      swap1\n      div\n      0xffffffffffffffffffffffffffffffffffffffff\n      and\n      0xffffffffffffffffffffffffffffffffffffffff\n      and\n      dup2\n      mstore\n      0x20\n      add\n      swap1\n      0x01\n      add\n      swap1\n      dup1\n      dup4\n      gt\n      tag_191\n      jumpi\n    tag_190:\n      pop\n      pop\n      pop\n      pop\n      pop\n        /* \"contracts/MultisigWallet.sol\":7798:7808  msg.sender */\n      caller\n        /* \"contracts/MultisigWallet.sol\":7765:7781  address_array_in */\n      tag_89\n        /* \"contracts/MultisigWallet.sol\":7765:7809  address_array_in(current_signed, msg.sender) */\n      jump\t// in\n    tag_189:\n        /* \"contracts/MultisigWallet.sol\":7758:7809  return address_array_in(current_signed, msg.sender) */\n      swap1\n      pop\n        /* \"contracts/MultisigWallet.sol\":7694:7816  function already_signed() private view returns (bool) {... */\n      swap1\n      jump\t// out\n        /* \"contracts/MultisigWallet.sol\":7156:7336  function do_pay_service_fee(uint transferWeis) private {       ... */\n    tag_176:\n        /* \"contracts/MultisigWallet.sol\":7228:7241  uint rate_wei */\n      0x00\n        /* \"contracts/MultisigWallet.sol\":7267:7284  withdraw_fee_rate */\n      sload(0x0a)\n        /* \"contracts/MultisigWallet.sol\":7259:7264  10000 */\n      0x2710\n        /* \"contracts/MultisigWallet.sol\":7244:7256  transferWeis */\n      dup4\n        /* \"contracts/MultisigWallet.sol\":7244:7264  transferWeis / 10000 */\n      tag_193\n      swap2\n      swap1\n      tag_194\n      jump\t// in\n    tag_193:\n        /* \"contracts/MultisigWallet.sol\":7244:7284  transferWeis / 10000 * withdraw_fee_rate */\n      tag_195\n      swap2\n      swap1\n      tag_196\n      jump\t// in\n    tag_195:\n        /* \"contracts/MultisigWallet.sol\":7228:7284  uint rate_wei = transferWeis / 10000 * withdraw_fee_rate */\n      swap1\n      pop\n        /* \"contracts/MultisigWallet.sol\":7294:7310  platform_account */\n      0x0c\n      0x00\n      swap1\n      sload\n      swap1\n      0x0100\n      exp\n      swap1\n      div\n      0xffffffffffffffffffffffffffffffffffffffff\n      and\n        /* \"contracts/MultisigWallet.sol\":7294:7319  platform_account.transfer */\n      0xffffffffffffffffffffffffffffffffffffffff\n      and\n        /* \"contracts/MultisigWallet.sol\":7294:7329  platform_account.transfer(rate_wei) */\n      0x08fc\n        /* \"contracts/MultisigWallet.sol\":7320:7328  rate_wei */\n      dup3\n        /* \"contracts/MultisigWallet.sol\":7294:7329  platform_account.transfer(rate_wei) */\n      swap1\n      dup2\n      iszero\n      mul\n      swap1\n      mload(0x40)\n      0x00\n      mload(0x40)\n      dup1\n      dup4\n      sub\n      dup2\n      dup6\n      dup9\n      dup9\n      call\n      swap4\n      pop\n      pop\n      pop\n      pop\n      iszero\n      dup1\n      iszero\n      tag_198\n      jumpi\n      returndatasize\n      0x00\n      dup1\n      returndatacopy\n      revert(0x00, returndatasize)\n    tag_198:\n      pop\n        /* \"contracts/MultisigWallet.sol\":7211:7336  {       ... */\n      pop\n        /* \"contracts/MultisigWallet.sol\":7156:7336  function do_pay_service_fee(uint transferWeis) private {       ... */\n      pop\n      jump\t// out\n    tag_172:\n      pop\n      dup1\n      sload\n      0x00\n      dup3\n      sstore\n      swap1\n      0x00\n      mstore\n      keccak256(0x00, 0x20)\n      swap1\n      dup2\n      add\n      swap1\n      tag_200\n      swap2\n      swap1\n      tag_201\n      jump\t// in\n    tag_200:\n      pop\n      jump\t// out\n    tag_201:\n    tag_202:\n      dup1\n      dup3\n      gt\n      iszero\n      tag_203\n      jumpi\n      0x00\n      dup2\n      0x00\n      swap1\n      sstore\n      pop\n      0x01\n      add\n      jump(tag_202)\n    tag_203:\n      pop\n      swap1\n      jump\t// out\n        /* \"#utility.yul\":7:146   */\n    tag_205:\n        /* \"#utility.yul\":53:58   */\n      0x00\n        /* \"#utility.yul\":91:97   */\n      dup2\n        /* \"#utility.yul\":78:98   */\n      calldataload\n        /* \"#utility.yul\":69:98   */\n      swap1\n      pop\n        /* \"#utility.yul\":107:140   */\n      tag_207\n        /* \"#utility.yul\":134:139   */\n      dup2\n        /* \"#utility.yul\":107:140   */\n      tag_208\n      jump\t// in\n    tag_207:\n        /* \"#utility.yul\":7:146   */\n      swap3\n      swap2\n      pop\n      pop\n      jump\t// out\n        /* \"#utility.yul\":152:307   */\n    tag_209:\n        /* \"#utility.yul\":206:211   */\n      0x00\n        /* \"#utility.yul\":244:250   */\n      dup2\n        /* \"#utility.yul\":231:251   */\n      calldataload\n        /* \"#utility.yul\":222:251   */\n      swap1\n      pop\n        /* \"#utility.yul\":260:301   */\n      tag_211\n        /* \"#utility.yul\":295:300   */\n      dup2\n        /* \"#utility.yul\":260:301   */\n      tag_212\n      jump\t// in\n    tag_211:\n        /* \"#utility.yul\":152:307   */\n      swap3\n      swap2\n      pop\n      pop\n      jump\t// out\n        /* \"#utility.yul\":313:452   */\n    tag_213:\n        /* \"#utility.yul\":359:364   */\n      0x00\n        /* \"#utility.yul\":397:403   */\n      dup2\n        /* \"#utility.yul\":384:404   */\n      calldataload\n        /* \"#utility.yul\":375:404   */\n      swap1\n      pop\n        /* \"#utility.yul\":413:446   */\n      tag_215\n        /* \"#utility.yul\":440:445   */\n      dup2\n        /* \"#utility.yul\":413:446   */\n      tag_216\n      jump\t// in\n    tag_215:\n        /* \"#utility.yul\":313:452   */\n      swap3\n      swap2\n      pop\n      pop\n      jump\t// out\n        /* \"#utility.yul\":458:787   */\n    tag_46:\n        /* \"#utility.yul\":517:523   */\n      0x00\n        /* \"#utility.yul\":566:568   */\n      0x20\n        /* \"#utility.yul\":554:563   */\n      dup3\n        /* \"#utility.yul\":545:552   */\n      dup5\n        /* \"#utility.yul\":541:564   */\n      sub\n        /* \"#utility.yul\":537:569   */\n      slt\n        /* \"#utility.yul\":534:653   */\n      iszero\n      tag_218\n      jumpi\n        /* \"#utility.yul\":572:651   */\n      tag_219\n      tag_220\n      jump\t// in\n    tag_219:\n        /* \"#utility.yul\":534:653   */\n    tag_218:\n        /* \"#utility.yul\":692:693   */\n      0x00\n        /* \"#utility.yul\":717:770   */\n      tag_221\n        /* \"#utility.yul\":762:769   */\n      dup5\n        /* \"#utility.yul\":753:759   */\n      dup3\n        /* \"#utility.yul\":742:751   */\n      dup6\n        /* \"#utility.yul\":738:760   */\n      add\n        /* \"#utility.yul\":717:770   */\n      tag_205\n      jump\t// in\n    tag_221:\n        /* \"#utility.yul\":707:770   */\n      swap2\n      pop\n        /* \"#utility.yul\":663:780   */\n      pop\n        /* \"#utility.yul\":458:787   */\n      swap3\n      swap2\n      pop\n      pop\n      jump\t// out\n        /* \"#utility.yul\":793:1283   */\n    tag_23:\n        /* \"#utility.yul\":869:875   */\n      0x00\n        /* \"#utility.yul\":877:883   */\n      dup1\n        /* \"#utility.yul\":926:928   */\n      0x40\n        /* \"#utility.yul\":914:923   */\n      dup4\n        /* \"#utility.yul\":905:912   */\n      dup6\n        /* \"#utility.yul\":901:924   */\n      sub\n        /* \"#utility.yul\":897:929   */\n      slt\n        /* \"#utility.yul\":894:1013   */\n      iszero\n      tag_223\n      jumpi\n        /* \"#utility.yul\":932:1011   */\n      tag_224\n      tag_220\n      jump\t// in\n    tag_224:\n        /* \"#utility.yul\":894:1013   */\n    tag_223:\n        /* \"#utility.yul\":1052:1053   */\n      0x00\n        /* \"#utility.yul\":1077:1130   */\n      tag_225\n        /* \"#utility.yul\":1122:1129   */\n      dup6\n        /* \"#utility.yul\":1113:1119   */\n      dup3\n        /* \"#utility.yul\":1102:1111   */\n      dup7\n        /* \"#utility.yul\":1098:1120   */\n      add\n        /* \"#utility.yul\":1077:1130   */\n      tag_213\n      jump\t// in\n    tag_225:\n        /* \"#utility.yul\":1067:1130   */\n      swap3\n      pop\n        /* \"#utility.yul\":1023:1140   */\n      pop\n        /* \"#utility.yul\":1179:1181   */\n      0x20\n        /* \"#utility.yul\":1205:1266   */\n      tag_226\n        /* \"#utility.yul\":1258:1265   */\n      dup6\n        /* \"#utility.yul\":1249:1255   */\n      dup3\n        /* \"#utility.yul\":1238:1247   */\n      dup7\n        /* \"#utility.yul\":1234:1256   */\n      add\n        /* \"#utility.yul\":1205:1266   */\n      tag_209\n      jump\t// in\n    tag_226:\n        /* \"#utility.yul\":1195:1266   */\n      swap2\n      pop\n        /* \"#utility.yul\":1150:1276   */\n      pop\n        /* \"#utility.yul\":793:1283   */\n      swap3\n      pop\n      swap3\n      swap1\n      pop\n      jump\t// out\n        /* \"#utility.yul\":1289:1655   */\n    tag_227:\n        /* \"#utility.yul\":1431:1434   */\n      0x00\n        /* \"#utility.yul\":1452:1519   */\n      tag_229\n        /* \"#utility.yul\":1516:1518   */\n      0x58\n        /* \"#utility.yul\":1511:1514   */\n      dup4\n        /* \"#utility.yul\":1452:1519   */\n      tag_230\n      jump\t// in\n    tag_229:\n        /* \"#utility.yul\":1445:1519   */\n      swap2\n      pop\n        /* \"#utility.yul\":1528:1621   */\n      tag_231\n        /* \"#utility.yul\":1617:1620   */\n      dup3\n        /* \"#utility.yul\":1528:1621   */\n      tag_232\n      jump\t// in\n    tag_231:\n        /* \"#utility.yul\":1646:1648   */\n      0x60\n        /* \"#utility.yul\":1641:1644   */\n      dup3\n        /* \"#utility.yul\":1637:1649   */\n      add\n        /* \"#utility.yul\":1630:1649   */\n      swap1\n      pop\n        /* \"#utility.yul\":1289:1655   */\n      swap2\n      swap1\n      pop\n      jump\t// out\n        /* \"#utility.yul\":1661:2027   */\n    tag_233:\n        /* \"#utility.yul\":1803:1806   */\n      0x00\n        /* \"#utility.yul\":1824:1891   */\n      tag_235\n        /* \"#utility.yul\":1888:1890   */\n      0x2f\n        /* \"#utility.yul\":1883:1886   */\n      dup4\n        /* \"#utility.yul\":1824:1891   */\n      tag_230\n      jump\t// in\n    tag_235:\n        /* \"#utility.yul\":1817:1891   */\n      swap2\n      pop\n        /* \"#utility.yul\":1900:1993   */\n      tag_236\n        /* \"#utility.yul\":1989:1992   */\n      dup3\n        /* \"#utility.yul\":1900:1993   */\n      tag_237\n      jump\t// in\n    tag_236:\n        /* \"#utility.yul\":2018:2020   */\n      0x40\n        /* \"#utility.yul\":2013:2016   */\n      dup3\n        /* \"#utility.yul\":2009:2021   */\n      add\n        /* \"#utility.yul\":2002:2021   */\n      swap1\n      pop\n        /* \"#utility.yul\":1661:2027   */\n      swap2\n      swap1\n      pop\n      jump\t// out\n        /* \"#utility.yul\":2033:2399   */\n    tag_238:\n        /* \"#utility.yul\":2175:2178   */\n      0x00\n        /* \"#utility.yul\":2196:2263   */\n      tag_240\n        /* \"#utility.yul\":2260:2262   */\n      0x3a\n        /* \"#utility.yul\":2255:2258   */\n      dup4\n        /* \"#utility.yul\":2196:2263   */\n      tag_230\n      jump\t// in\n    tag_240:\n        /* \"#utility.yul\":2189:2263   */\n      swap2\n      pop\n        /* \"#utility.yul\":2272:2365   */\n      tag_241\n        /* \"#utility.yul\":2361:2364   */\n      dup3\n        /* \"#utility.yul\":2272:2365   */\n      tag_242\n      jump\t// in\n    tag_241:\n        /* \"#utility.yul\":2390:2392   */\n      0x40\n        /* \"#utility.yul\":2385:2388   */\n      dup3\n        /* \"#utility.yul\":2381:2393   */\n      add\n        /* \"#utility.yul\":2374:2393   */\n      swap1\n      pop\n        /* \"#utility.yul\":2033:2399   */\n      swap2\n      swap1\n      pop\n      jump\t// out\n        /* \"#utility.yul\":2405:2771   */\n    tag_243:\n        /* \"#utility.yul\":2547:2550   */\n      0x00\n        /* \"#utility.yul\":2568:2635   */\n      tag_245\n        /* \"#utility.yul\":2632:2634   */\n      0x2e\n        /* \"#utility.yul\":2627:2630   */\n      dup4\n        /* \"#utility.yul\":2568:2635   */\n      tag_230\n      jump\t// in\n    tag_245:\n        /* \"#utility.yul\":2561:2635   */\n      swap2\n      pop\n        /* \"#utility.yul\":2644:2737   */\n      tag_246\n        /* \"#utility.yul\":2733:2736   */\n      dup3\n        /* \"#utility.yul\":2644:2737   */\n      tag_247\n      jump\t// in\n    tag_246:\n        /* \"#utility.yul\":2762:2764   */\n      0x40\n        /* \"#utility.yul\":2757:2760   */\n      dup3\n        /* \"#utility.yul\":2753:2765   */\n      add\n        /* \"#utility.yul\":2746:2765   */\n      swap1\n      pop\n        /* \"#utility.yul\":2405:2771   */\n      swap2\n      swap1\n      pop\n      jump\t// out\n        /* \"#utility.yul\":2777:3143   */\n    tag_248:\n        /* \"#utility.yul\":2919:2922   */\n      0x00\n        /* \"#utility.yul\":2940:3007   */\n      tag_250\n        /* \"#utility.yul\":3004:3006   */\n      0x15\n        /* \"#utility.yul\":2999:3002   */\n      dup4\n        /* \"#utility.yul\":2940:3007   */\n      tag_230\n      jump\t// in\n    tag_250:\n        /* \"#utility.yul\":2933:3007   */\n      swap2\n      pop\n        /* \"#utility.yul\":3016:3109   */\n      tag_251\n        /* \"#utility.yul\":3105:3108   */\n      dup3\n        /* \"#utility.yul\":3016:3109   */\n      tag_252\n      jump\t// in\n    tag_251:\n        /* \"#utility.yul\":3134:3136   */\n      0x20\n        /* \"#utility.yul\":3129:3132   */\n      dup3\n        /* \"#utility.yul\":3125:3137   */\n      add\n        /* \"#utility.yul\":3118:3137   */\n      swap1\n      pop\n        /* \"#utility.yul\":2777:3143   */\n      swap2\n      swap1\n      pop\n      jump\t// out\n        /* \"#utility.yul\":3149:3515   */\n    tag_253:\n        /* \"#utility.yul\":3291:3294   */\n      0x00\n        /* \"#utility.yul\":3312:3379   */\n      tag_255\n        /* \"#utility.yul\":3376:3378   */\n      0x3b\n        /* \"#utility.yul\":3371:3374   */\n      dup4\n        /* \"#utility.yul\":3312:3379   */\n      tag_230\n      jump\t// in\n    tag_255:\n        /* \"#utility.yul\":3305:3379   */\n      swap2\n      pop\n        /* \"#utility.yul\":3388:3481   */\n      tag_256\n        /* \"#utility.yul\":3477:3480   */\n      dup3\n        /* \"#utility.yul\":3388:3481   */\n      tag_257\n      jump\t// in\n    tag_256:\n        /* \"#utility.yul\":3506:3508   */\n      0x40\n        /* \"#utility.yul\":3501:3504   */\n      dup3\n        /* \"#utility.yul\":3497:3509   */\n      add\n        /* \"#utility.yul\":3490:3509   */\n      swap1\n      pop\n        /* \"#utility.yul\":3149:3515   */\n      swap2\n      swap1\n      pop\n      jump\t// out\n        /* \"#utility.yul\":3521:3887   */\n    tag_258:\n        /* \"#utility.yul\":3663:3666   */\n      0x00\n        /* \"#utility.yul\":3684:3751   */\n      tag_260\n        /* \"#utility.yul\":3748:3750   */\n      0x2c\n        /* \"#utility.yul\":3743:3746   */\n      dup4\n        /* \"#utility.yul\":3684:3751   */\n      tag_230\n      jump\t// in\n    tag_260:\n        /* \"#utility.yul\":3677:3751   */\n      swap2\n      pop\n        /* \"#utility.yul\":3760:3853   */\n      tag_261\n        /* \"#utility.yul\":3849:3852   */\n      dup3\n        /* \"#utility.yul\":3760:3853   */\n      tag_262\n      jump\t// in\n    tag_261:\n        /* \"#utility.yul\":3878:3880   */\n      0x40\n        /* \"#utility.yul\":3873:3876   */\n      dup3\n        /* \"#utility.yul\":3869:3881   */\n      add\n        /* \"#utility.yul\":3862:3881   */\n      swap1\n      pop\n        /* \"#utility.yul\":3521:3887   */\n      swap2\n      swap1\n      pop\n      jump\t// out\n        /* \"#utility.yul\":3893:4259   */\n    tag_263:\n        /* \"#utility.yul\":4035:4038   */\n      0x00\n        /* \"#utility.yul\":4056:4123   */\n      tag_265\n        /* \"#utility.yul\":4120:4122   */\n      0x38\n        /* \"#utility.yul\":4115:4118   */\n      dup4\n        /* \"#utility.yul\":4056:4123   */\n      tag_230\n      jump\t// in\n    tag_265:\n        /* \"#utility.yul\":4049:4123   */\n      swap2\n      pop\n        /* \"#utility.yul\":4132:4225   */\n      tag_266\n        /* \"#utility.yul\":4221:4224   */\n      dup3\n        /* \"#utility.yul\":4132:4225   */\n      tag_267\n      jump\t// in\n    tag_266:\n        /* \"#utility.yul\":4250:4252   */\n      0x40\n        /* \"#utility.yul\":4245:4248   */\n      dup3\n        /* \"#utility.yul\":4241:4253   */\n      add\n        /* \"#utility.yul\":4234:4253   */\n      swap1\n      pop\n        /* \"#utility.yul\":3893:4259   */\n      swap2\n      swap1\n      pop\n      jump\t// out\n        /* \"#utility.yul\":4265:4631   */\n    tag_268:\n        /* \"#utility.yul\":4407:4410   */\n      0x00\n        /* \"#utility.yul\":4428:4495   */\n      tag_270\n        /* \"#utility.yul\":4492:4494   */\n      0x1d\n        /* \"#utility.yul\":4487:4490   */\n      dup4\n        /* \"#utility.yul\":4428:4495   */\n      tag_230\n      jump\t// in\n    tag_270:\n        /* \"#utility.yul\":4421:4495   */\n      swap2\n      pop\n        /* \"#utility.yul\":4504:4597   */\n      tag_271\n        /* \"#utility.yul\":4593:4596   */\n      dup3\n        /* \"#utility.yul\":4504:4597   */\n      tag_272\n      jump\t// in\n    tag_271:\n        /* \"#utility.yul\":4622:4624   */\n      0x20\n        /* \"#utility.yul\":4617:4620   */\n      dup3\n        /* \"#utility.yul\":4613:4625   */\n      add\n        /* \"#utility.yul\":4606:4625   */\n      swap1\n      pop\n        /* \"#utility.yul\":4265:4631   */\n      swap2\n      swap1\n      pop\n      jump\t// out\n        /* \"#utility.yul\":4637:5003   */\n    tag_273:\n        /* \"#utility.yul\":4779:4782   */\n      0x00\n        /* \"#utility.yul\":4800:4867   */\n      tag_275\n        /* \"#utility.yul\":4864:4866   */\n      0x26\n        /* \"#utility.yul\":4859:4862   */\n      dup4\n        /* \"#utility.yul\":4800:4867   */\n      tag_230\n      jump\t// in\n    tag_275:\n        /* \"#utility.yul\":4793:4867   */\n      swap2\n      pop\n        /* \"#utility.yul\":4876:4969   */\n      tag_276\n        /* \"#utility.yul\":4965:4968   */\n      dup3\n        /* \"#utility.yul\":4876:4969   */\n      tag_277\n      jump\t// in\n    tag_276:\n        /* \"#utility.yul\":4994:4996   */\n      0x40\n        /* \"#utility.yul\":4989:4992   */\n      dup3\n        /* \"#utility.yul\":4985:4997   */\n      add\n        /* \"#utility.yul\":4978:4997   */\n      swap1\n      pop\n        /* \"#utility.yul\":4637:5003   */\n      swap2\n      swap1\n      pop\n      jump\t// out\n        /* \"#utility.yul\":5009:5375   */\n    tag_278:\n        /* \"#utility.yul\":5151:5154   */\n      0x00\n        /* \"#utility.yul\":5172:5239   */\n      tag_280\n        /* \"#utility.yul\":5236:5238   */\n      0x2a\n        /* \"#utility.yul\":5231:5234   */\n      dup4\n        /* \"#utility.yul\":5172:5239   */\n      tag_230\n      jump\t// in\n    tag_280:\n        /* \"#utility.yul\":5165:5239   */\n      swap2\n      pop\n        /* \"#utility.yul\":5248:5341   */\n      tag_281\n        /* \"#utility.yul\":5337:5340   */\n      dup3\n        /* \"#utility.yul\":5248:5341   */\n      tag_282\n      jump\t// in\n    tag_281:\n        /* \"#utility.yul\":5366:5368   */\n      0x40\n        /* \"#utility.yul\":5361:5364   */\n      dup3\n        /* \"#utility.yul\":5357:5369   */\n      add\n        /* \"#utility.yul\":5350:5369   */\n      swap1\n      pop\n        /* \"#utility.yul\":5009:5375   */\n      swap2\n      swap1\n      pop\n      jump\t// out\n        /* \"#utility.yul\":5381:5747   */\n    tag_283:\n        /* \"#utility.yul\":5523:5526   */\n      0x00\n        /* \"#utility.yul\":5544:5611   */\n      tag_285\n        /* \"#utility.yul\":5608:5610   */\n      0x2c\n        /* \"#utility.yul\":5603:5606   */\n      dup4\n        /* \"#utility.yul\":5544:5611   */\n      tag_230\n      jump\t// in\n    tag_285:\n        /* \"#utility.yul\":5537:5611   */\n      swap2\n      pop\n        /* \"#utility.yul\":5620:5713   */\n      tag_286\n        /* \"#utility.yul\":5709:5712   */\n      dup3\n        /* \"#utility.yul\":5620:5713   */\n      tag_287\n      jump\t// in\n    tag_286:\n        /* \"#utility.yul\":5738:5740   */\n      0x40\n        /* \"#utility.yul\":5733:5736   */\n      dup3\n        /* \"#utility.yul\":5729:5741   */\n      add\n        /* \"#utility.yul\":5722:5741   */\n      swap1\n      pop\n        /* \"#utility.yul\":5381:5747   */\n      swap2\n      swap1\n      pop\n      jump\t// out\n        /* \"#utility.yul\":5753:5871   */\n    tag_288:\n        /* \"#utility.yul\":5840:5864   */\n      tag_290\n        /* \"#utility.yul\":5858:5863   */\n      dup2\n        /* \"#utility.yul\":5840:5864   */\n      tag_291\n      jump\t// in\n    tag_290:\n        /* \"#utility.yul\":5835:5838   */\n      dup3\n        /* \"#utility.yul\":5828:5865   */\n      mstore\n        /* \"#utility.yul\":5753:5871   */\n      pop\n      pop\n      jump\t// out\n        /* \"#utility.yul\":5877:6296   */\n    tag_17:\n        /* \"#utility.yul\":6043:6047   */\n      0x00\n        /* \"#utility.yul\":6081:6083   */\n      0x20\n        /* \"#utility.yul\":6070:6079   */\n      dup3\n        /* \"#utility.yul\":6066:6084   */\n      add\n        /* \"#utility.yul\":6058:6084   */\n      swap1\n      pop\n        /* \"#utility.yul\":6130:6139   */\n      dup2\n        /* \"#utility.yul\":6124:6128   */\n      dup2\n        /* \"#utility.yul\":6120:6140   */\n      sub\n        /* \"#utility.yul\":6116:6117   */\n      0x00\n        /* \"#utility.yul\":6105:6114   */\n      dup4\n        /* \"#utility.yul\":6101:6118   */\n      add\n        /* \"#utility.yul\":6094:6141   */\n      mstore\n        /* \"#utility.yul\":6158:6289   */\n      tag_293\n        /* \"#utility.yul\":6284:6288   */\n      dup2\n        /* \"#utility.yul\":6158:6289   */\n      tag_227\n      jump\t// in\n    tag_293:\n        /* \"#utility.yul\":6150:6289   */\n      swap1\n      pop\n        /* \"#utility.yul\":5877:6296   */\n      swap2\n      swap1\n      pop\n      jump\t// out\n        /* \"#utility.yul\":6302:6721   */\n    tag_95:\n        /* \"#utility.yul\":6468:6472   */\n      0x00\n        /* \"#utility.yul\":6506:6508   */\n      0x20\n        /* \"#utility.yul\":6495:6504   */\n      dup3\n        /* \"#utility.yul\":6491:6509   */\n      add\n        /* \"#utility.yul\":6483:6509   */\n      swap1\n      pop\n        /* \"#utility.yul\":6555:6564   */\n      dup2\n        /* \"#utility.yul\":6549:6553   */\n      dup2\n        /* \"#utility.yul\":6545:6565   */\n      sub\n        /* \"#utility.yul\":6541:6542   */\n      0x00\n        /* \"#utility.yul\":6530:6539   */\n      dup4\n        /* \"#utility.yul\":6526:6543   */\n      add\n        /* \"#utility.yul\":6519:6566   */\n      mstore\n        /* \"#utility.yul\":6583:6714   */\n      tag_295\n        /* \"#utility.yul\":6709:6713   */\n      dup2\n        /* \"#utility.yul\":6583:6714   */\n      tag_233\n      jump\t// in\n    tag_295:\n        /* \"#utility.yul\":6575:6714   */\n      swap1\n      pop\n        /* \"#utility.yul\":6302:6721   */\n      swap2\n      swap1\n      pop\n      jump\t// out\n        /* \"#utility.yul\":6727:7146   */\n    tag_85:\n        /* \"#utility.yul\":6893:6897   */\n      0x00\n        /* \"#utility.yul\":6931:6933   */\n      0x20\n        /* \"#utility.yul\":6920:6929   */\n      dup3\n        /* \"#utility.yul\":6916:6934   */\n      add\n        /* \"#utility.yul\":6908:6934   */\n      swap1\n      pop\n        /* \"#utility.yul\":6980:6989   */\n      dup2\n        /* \"#utility.yul\":6974:6978   */\n      dup2\n        /* \"#utility.yul\":6970:6990   */\n      sub\n        /* \"#utility.yul\":6966:6967   */\n      0x00\n        /* \"#utility.yul\":6955:6964   */\n      dup4\n        /* \"#utility.yul\":6951:6968   */\n      add\n        /* \"#utility.yul\":6944:6991   */\n      mstore\n        /* \"#utility.yul\":7008:7139   */\n      tag_297\n        /* \"#utility.yul\":7134:7138   */\n      dup2\n        /* \"#utility.yul\":7008:7139   */\n      tag_238\n      jump\t// in\n    tag_297:\n        /* \"#utility.yul\":7000:7139   */\n      swap1\n      pop\n        /* \"#utility.yul\":6727:7146   */\n      swap2\n      swap1\n      pop\n      jump\t// out\n        /* \"#utility.yul\":7152:7571   */\n    tag_92:\n        /* \"#utility.yul\":7318:7322   */\n      0x00\n        /* \"#utility.yul\":7356:7358   */\n      0x20\n        /* \"#utility.yul\":7345:7354   */\n      dup3\n        /* \"#utility.yul\":7341:7359   */\n      add\n        /* \"#utility.yul\":7333:7359   */\n      swap1\n      pop\n        /* \"#utility.yul\":7405:7414   */\n      dup2\n        /* \"#utility.yul\":7399:7403   */\n      dup2\n        /* \"#utility.yul\":7395:7415   */\n      sub\n        /* \"#utility.yul\":7391:7392   */\n      0x00\n        /* \"#utility.yul\":7380:7389   */\n      dup4\n        /* \"#utility.yul\":7376:7393   */\n      add\n        /* \"#utility.yul\":7369:7416   */\n      mstore\n        /* \"#utility.yul\":7433:7564   */\n      tag_299\n        /* \"#utility.yul\":7559:7563   */\n      dup2\n        /* \"#utility.yul\":7433:7564   */\n      tag_243\n      jump\t// in\n    tag_299:\n        /* \"#utility.yul\":7425:7564   */\n      swap1\n      pop\n        /* \"#utility.yul\":7152:7571   */\n      swap2\n      swap1\n      pop\n      jump\t// out\n        /* \"#utility.yul\":7577:7996   */\n    tag_71:\n        /* \"#utility.yul\":7743:7747   */\n      0x00\n        /* \"#utility.yul\":7781:7783   */\n      0x20\n        /* \"#utility.yul\":7770:7779   */\n      dup3\n        /* \"#utility.yul\":7766:7784   */\n      add\n        /* \"#utility.yul\":7758:7784   */\n      swap1\n      pop\n        /* \"#utility.yul\":7830:7839   */\n      dup2\n        /* \"#utility.yul\":7824:7828   */\n      dup2\n        /* \"#utility.yul\":7820:7840   */\n      sub\n        /* \"#utility.yul\":7816:7817   */\n      0x00\n        /* \"#utility.yul\":7805:7814   */\n      dup4\n        /* \"#utility.yul\":7801:7818   */\n      add\n        /* \"#utility.yul\":7794:7841   */\n      mstore\n        /* \"#utility.yul\":7858:7989   */\n      tag_301\n        /* \"#utility.yul\":7984:7988   */\n      dup2\n        /* \"#utility.yul\":7858:7989   */\n      tag_248\n      jump\t// in\n    tag_301:\n        /* \"#utility.yul\":7850:7989   */\n      swap1\n      pop\n        /* \"#utility.yul\":7577:7996   */\n      swap2\n      swap1\n      pop\n      jump\t// out\n        /* \"#utility.yul\":8002:8421   */\n    tag_142:\n        /* \"#utility.yul\":8168:8172   */\n      0x00\n        /* \"#utility.yul\":8206:8208   */\n      0x20\n        /* \"#utility.yul\":8195:8204   */\n      dup3\n        /* \"#utility.yul\":8191:8209   */\n      add\n        /* \"#utility.yul\":8183:8209   */\n      swap1\n      pop\n        /* \"#utility.yul\":8255:8264   */\n      dup2\n        /* \"#utility.yul\":8249:8253   */\n      dup2\n        /* \"#utility.yul\":8245:8265   */\n      sub\n        /* \"#utility.yul\":8241:8242   */\n      0x00\n        /* \"#utility.yul\":8230:8239   */\n      dup4\n        /* \"#utility.yul\":8226:8243   */\n      add\n        /* \"#utility.yul\":8219:8266   */\n      mstore\n        /* \"#utility.yul\":8283:8414   */\n      tag_303\n        /* \"#utility.yul\":8409:8413   */\n      dup2\n        /* \"#utility.yul\":8283:8414   */\n      tag_253\n      jump\t// in\n    tag_303:\n        /* \"#utility.yul\":8275:8414   */\n      swap1\n      pop\n        /* \"#utility.yul\":8002:8421   */\n      swap2\n      swap1\n      pop\n      jump\t// out\n        /* \"#utility.yul\":8427:8846   */\n    tag_120:\n        /* \"#utility.yul\":8593:8597   */\n      0x00\n        /* \"#utility.yul\":8631:8633   */\n      0x20\n        /* \"#utility.yul\":8620:8629   */\n      dup3\n        /* \"#utility.yul\":8616:8634   */\n      add\n        /* \"#utility.yul\":8608:8634   */\n      swap1\n      pop\n        /* \"#utility.yul\":8680:8689   */\n      dup2\n        /* \"#utility.yul\":8674:8678   */\n      dup2\n        /* \"#utility.yul\":8670:8690   */\n      sub\n        /* \"#utility.yul\":8666:8667   */\n      0x00\n        /* \"#utility.yul\":8655:8664   */\n      dup4\n        /* \"#utility.yul\":8651:8668   */\n      add\n        /* \"#utility.yul\":8644:8691   */\n      mstore\n        /* \"#utility.yul\":8708:8839   */\n      tag_305\n        /* \"#utility.yul\":8834:8838   */\n      dup2\n        /* \"#utility.yul\":8708:8839   */\n      tag_258\n      jump\t// in\n    tag_305:\n        /* \"#utility.yul\":8700:8839   */\n      swap1\n      pop\n        /* \"#utility.yul\":8427:8846   */\n      swap2\n      swap1\n      pop\n      jump\t// out\n        /* \"#utility.yul\":8852:9271   */\n    tag_125:\n        /* \"#utility.yul\":9018:9022   */\n      0x00\n        /* \"#utility.yul\":9056:9058   */\n      0x20\n        /* \"#utility.yul\":9045:9054   */\n      dup3\n        /* \"#utility.yul\":9041:9059   */\n      add\n        /* \"#utility.yul\":9033:9059   */\n      swap1\n      pop\n        /* \"#utility.yul\":9105:9114   */\n      dup2\n        /* \"#utility.yul\":9099:9103   */\n      dup2\n        /* \"#utility.yul\":9095:9115   */\n      sub\n        /* \"#utility.yul\":9091:9092   */\n      0x00\n        /* \"#utility.yul\":9080:9089   */\n      dup4\n        /* \"#utility.yul\":9076:9093   */\n      add\n        /* \"#utility.yul\":9069:9116   */\n      mstore\n        /* \"#utility.yul\":9133:9264   */\n      tag_307\n        /* \"#utility.yul\":9259:9263   */\n      dup2\n        /* \"#utility.yul\":9133:9264   */\n      tag_263\n      jump\t// in\n    tag_307:\n        /* \"#utility.yul\":9125:9264   */\n      swap1\n      pop\n        /* \"#utility.yul\":8852:9271   */\n      swap2\n      swap1\n      pop\n      jump\t// out\n        /* \"#utility.yul\":9277:9696   */\n    tag_65:\n        /* \"#utility.yul\":9443:9447   */\n      0x00\n        /* \"#utility.yul\":9481:9483   */\n      0x20\n        /* \"#utility.yul\":9470:9479   */\n      dup3\n        /* \"#utility.yul\":9466:9484   */\n      add\n        /* \"#utility.yul\":9458:9484   */\n      swap1\n      pop\n        /* \"#utility.yul\":9530:9539   */\n      dup2\n        /* \"#utility.yul\":9524:9528   */\n      dup2\n        /* \"#utility.yul\":9520:9540   */\n      sub\n        /* \"#utility.yul\":9516:9517   */\n      0x00\n        /* \"#utility.yul\":9505:9514   */\n      dup4\n        /* \"#utility.yul\":9501:9518   */\n      add\n        /* \"#utility.yul\":9494:9541   */\n      mstore\n        /* \"#utility.yul\":9558:9689   */\n      tag_309\n        /* \"#utility.yul\":9684:9688   */\n      dup2\n        /* \"#utility.yul\":9558:9689   */\n      tag_268\n      jump\t// in\n    tag_309:\n        /* \"#utility.yul\":9550:9689   */\n      swap1\n      pop\n        /* \"#utility.yul\":9277:9696   */\n      swap2\n      swap1\n      pop\n      jump\t// out\n        /* \"#utility.yul\":9702:10121   */\n    tag_61:\n        /* \"#utility.yul\":9868:9872   */\n      0x00\n        /* \"#utility.yul\":9906:9908   */\n      0x20\n        /* \"#utility.yul\":9895:9904   */\n      dup3\n        /* \"#utility.yul\":9891:9909   */\n      add\n        /* \"#utility.yul\":9883:9909   */\n      swap1\n      pop\n        /* \"#utility.yul\":9955:9964   */\n      dup2\n        /* \"#utility.yul\":9949:9953   */\n      dup2\n        /* \"#utility.yul\":9945:9965   */\n      sub\n        /* \"#utility.yul\":9941:9942   */\n      0x00\n        /* \"#utility.yul\":9930:9939   */\n      dup4\n        /* \"#utility.yul\":9926:9943   */\n      add\n        /* \"#utility.yul\":9919:9966   */\n      mstore\n        /* \"#utility.yul\":9983:10114   */\n      tag_311\n        /* \"#utility.yul\":10109:10113   */\n      dup2\n        /* \"#utility.yul\":9983:10114   */\n      tag_273\n      jump\t// in\n    tag_311:\n        /* \"#utility.yul\":9975:10114   */\n      swap1\n      pop\n        /* \"#utility.yul\":9702:10121   */\n      swap2\n      swap1\n      pop\n      jump\t// out\n        /* \"#utility.yul\":10127:10546   */\n    tag_137:\n        /* \"#utility.yul\":10293:10297   */\n      0x00\n        /* \"#utility.yul\":10331:10333   */\n      0x20\n        /* \"#utility.yul\":10320:10329   */\n      dup3\n        /* \"#utility.yul\":10316:10334   */\n      add\n        /* \"#utility.yul\":10308:10334   */\n      swap1\n      pop\n        /* \"#utility.yul\":10380:10389   */\n      dup2\n        /* \"#utility.yul\":10374:10378   */\n      dup2\n        /* \"#utility.yul\":10370:10390   */\n      sub\n        /* \"#utility.yul\":10366:10367   */\n      0x00\n        /* \"#utility.yul\":10355:10364   */\n      dup4\n        /* \"#utility.yul\":10351:10368   */\n      add\n        /* \"#utility.yul\":10344:10391   */\n      mstore\n        /* \"#utility.yul\":10408:10539   */\n      tag_313\n        /* \"#utility.yul\":10534:10538   */\n      dup2\n        /* \"#utility.yul\":10408:10539   */\n      tag_278\n      jump\t// in\n    tag_313:\n        /* \"#utility.yul\":10400:10539   */\n      swap1\n      pop\n        /* \"#utility.yul\":10127:10546   */\n      swap2\n      swap1\n      pop\n      jump\t// out\n        /* \"#utility.yul\":10552:10971   */\n    tag_68:\n        /* \"#utility.yul\":10718:10722   */\n      0x00\n        /* \"#utility.yul\":10756:10758   */\n      0x20\n        /* \"#utility.yul\":10745:10754   */\n      dup3\n        /* \"#utility.yul\":10741:10759   */\n      add\n        /* \"#utility.yul\":10733:10759   */\n      swap1\n      pop\n        /* \"#utility.yul\":10805:10814   */\n      dup2\n        /* \"#utility.yul\":10799:10803   */\n      dup2\n        /* \"#utility.yul\":10795:10815   */\n      sub\n        /* \"#utility.yul\":10791:10792   */\n      0x00\n        /* \"#utility.yul\":10780:10789   */\n      dup4\n        /* \"#utility.yul\":10776:10793   */\n      add\n        /* \"#utility.yul\":10769:10816   */\n      mstore\n        /* \"#utility.yul\":10833:10964   */\n      tag_315\n        /* \"#utility.yul\":10959:10963   */\n      dup2\n        /* \"#utility.yul\":10833:10964   */\n      tag_283\n      jump\t// in\n    tag_315:\n        /* \"#utility.yul\":10825:10964   */\n      swap1\n      pop\n        /* \"#utility.yul\":10552:10971   */\n      swap2\n      swap1\n      pop\n      jump\t// out\n        /* \"#utility.yul\":10977:11199   */\n    tag_35:\n        /* \"#utility.yul\":11070:11074   */\n      0x00\n        /* \"#utility.yul\":11108:11110   */\n      0x20\n        /* \"#utility.yul\":11097:11106   */\n      dup3\n        /* \"#utility.yul\":11093:11111   */\n      add\n        /* \"#utility.yul\":11085:11111   */\n      swap1\n      pop\n        /* \"#utility.yul\":11121:11192   */\n      tag_317\n        /* \"#utility.yul\":11189:11190   */\n      0x00\n        /* \"#utility.yul\":11178:11187   */\n      dup4\n        /* \"#utility.yul\":11174:11191   */\n      add\n        /* \"#utility.yul\":11165:11171   */\n      dup5\n        /* \"#utility.yul\":11121:11192   */\n      tag_288\n      jump\t// in\n    tag_317:\n        /* \"#utility.yul\":10977:11199   */\n      swap3\n      swap2\n      pop\n      pop\n      jump\t// out\n        /* \"#utility.yul\":11286:11455   */\n    tag_230:\n        /* \"#utility.yul\":11370:11381   */\n      0x00\n        /* \"#utility.yul\":11404:11410   */\n      dup3\n        /* \"#utility.yul\":11399:11402   */\n      dup3\n        /* \"#utility.yul\":11392:11411   */\n      mstore\n        /* \"#utility.yul\":11444:11448   */\n      0x20\n        /* \"#utility.yul\":11439:11442   */\n      dup3\n        /* \"#utility.yul\":11435:11449   */\n      add\n        /* \"#utility.yul\":11420:11449   */\n      swap1\n      pop\n        /* \"#utility.yul\":11286:11455   */\n      swap3\n      swap2\n      pop\n      pop\n      jump\t// out\n        /* \"#utility.yul\":11461:11766   */\n    tag_19:\n        /* \"#utility.yul\":11501:11504   */\n      0x00\n        /* \"#utility.yul\":11520:11540   */\n      tag_322\n        /* \"#utility.yul\":11538:11539   */\n      dup3\n        /* \"#utility.yul\":11520:11540   */\n      tag_291\n      jump\t// in\n    tag_322:\n        /* \"#utility.yul\":11515:11540   */\n      swap2\n      pop\n        /* \"#utility.yul\":11554:11574   */\n      tag_323\n        /* \"#utility.yul\":11572:11573   */\n      dup4\n        /* \"#utility.yul\":11554:11574   */\n      tag_291\n      jump\t// in\n    tag_323:\n        /* \"#utility.yul\":11549:11574   */\n      swap3\n      pop\n        /* \"#utility.yul\":11708:11709   */\n      dup3\n        /* \"#utility.yul\":11640:11706   */\n      0xffffffffffffffffffffffffffffffffffffffffffffffffffffffffffffffff\n        /* \"#utility.yul\":11636:11710   */\n      sub\n        /* \"#utility.yul\":11633:11634   */\n      dup3\n        /* \"#utility.yul\":11630:11711   */\n      gt\n        /* \"#utility.yul\":11627:11734   */\n      iszero\n      tag_324\n      jumpi\n        /* \"#utility.yul\":11714:11732   */\n      tag_325\n      tag_326\n      jump\t// in\n    tag_325:\n        /* \"#utility.yul\":11627:11734   */\n    tag_324:\n        /* \"#utility.yul\":11758:11759   */\n      dup3\n        /* \"#utility.yul\":11755:11756   */\n      dup3\n        /* \"#utility.yul\":11751:11760   */\n      add\n        /* \"#utility.yul\":11744:11760   */\n      swap1\n      pop\n        /* \"#utility.yul\":11461:11766   */\n      swap3\n      swap2\n      pop\n      pop\n      jump\t// out\n        /* \"#utility.yul\":11772:11957   */\n    tag_194:\n        /* \"#utility.yul\":11812:11813   */\n      0x00\n        /* \"#utility.yul\":11829:11849   */\n      tag_328\n        /* \"#utility.yul\":11847:11848   */\n      dup3\n        /* \"#utility.yul\":11829:11849   */\n      tag_291\n      jump\t// in\n    tag_328:\n        /* \"#utility.yul\":11824:11849   */\n      swap2\n      pop\n        /* \"#utility.yul\":11863:11883   */\n      tag_329\n        /* \"#utility.yul\":11881:11882   */\n      dup4\n        /* \"#utility.yul\":11863:11883   */\n      tag_291\n      jump\t// in\n    tag_329:\n        /* \"#utility.yul\":11858:11883   */\n      swap3\n      pop\n        /* \"#utility.yul\":11902:11903   */\n      dup3\n        /* \"#utility.yul\":11892:11927   */\n      tag_330\n      jumpi\n        /* \"#utility.yul\":11907:11925   */\n      tag_331\n      tag_332\n      jump\t// in\n    tag_331:\n        /* \"#utility.yul\":11892:11927   */\n    tag_330:\n        /* \"#utility.yul\":11949:11950   */\n      dup3\n        /* \"#utility.yul\":11946:11947   */\n      dup3\n        /* \"#utility.yul\":11942:11951   */\n      div\n        /* \"#utility.yul\":11937:11951   */\n      swap1\n      pop\n        /* \"#utility.yul\":11772:11957   */\n      swap3\n      swap2\n      pop\n      pop\n      jump\t// out\n        /* \"#utility.yul\":11963:12311   */\n    tag_196:\n        /* \"#utility.yul\":12003:12010   */\n      0x00\n        /* \"#utility.yul\":12026:12046   */\n      tag_334\n        /* \"#utility.yul\":12044:12045   */\n      dup3\n        /* \"#utility.yul\":12026:12046   */\n      tag_291\n      jump\t// in\n    tag_334:\n        /* \"#utility.yul\":12021:12046   */\n      swap2\n      pop\n        /* \"#utility.yul\":12060:12080   */\n      tag_335\n        /* \"#utility.yul\":12078:12079   */\n      dup4\n        /* \"#utility.yul\":12060:12080   */\n      tag_291\n      jump\t// in\n    tag_335:\n        /* \"#utility.yul\":12055:12080   */\n      swap3\n      pop\n        /* \"#utility.yul\":12248:12249   */\n      dup2\n        /* \"#utility.yul\":12180:12246   */\n      0xffffffffffffffffffffffffffffffffffffffffffffffffffffffffffffffff\n        /* \"#utility.yul\":12176:12250   */\n      div\n        /* \"#utility.yul\":12173:12174   */\n      dup4\n        /* \"#utility.yul\":12170:12251   */\n      gt\n        /* \"#utility.yul\":12165:12166   */\n      dup3\n        /* \"#utility.yul\":12158:12167   */\n      iszero\n        /* \"#utility.yul\":12151:12168   */\n      iszero\n        /* \"#utility.yul\":12147:12252   */\n      and\n        /* \"#utility.yul\":12144:12275   */\n      iszero\n      tag_336\n      jumpi\n        /* \"#utility.yul\":12255:12273   */\n      tag_337\n      tag_326\n      jump\t// in\n    tag_337:\n        /* \"#utility.yul\":12144:12275   */\n    tag_336:\n        /* \"#utility.yul\":12303:12304   */\n      dup3\n        /* \"#utility.yul\":12300:12301   */\n      dup3\n        /* \"#utility.yul\":12296:12305   */\n      mul\n        /* \"#utility.yul\":12285:12305   */\n      swap1\n      pop\n        /* \"#utility.yul\":11963:12311   */\n      swap3\n      swap2\n      pop\n      pop\n      jump\t// out\n        /* \"#utility.yul\":12317:12508   */\n    tag_109:\n        /* \"#utility.yul\":12357:12361   */\n      0x00\n        /* \"#utility.yul\":12377:12397   */\n      tag_339\n        /* \"#utility.yul\":12395:12396   */\n      dup3\n        /* \"#utility.yul\":12377:12397   */\n      tag_291\n      jump\t// in\n    tag_339:\n        /* \"#utility.yul\":12372:12397   */\n      swap2\n      pop\n        /* \"#utility.yul\":12411:12431   */\n      tag_340\n        /* \"#utility.yul\":12429:12430   */\n      dup4\n        /* \"#utility.yul\":12411:12431   */\n      tag_291\n      jump\t// in\n    tag_340:\n        /* \"#utility.yul\":12406:12431   */\n      swap3\n      pop\n        /* \"#utility.yul\":12450:12451   */\n      dup3\n        /* \"#utility.yul\":12447:12448   */\n      dup3\n        /* \"#utility.yul\":12444:12452   */\n      lt\n        /* \"#utility.yul\":12441:12475   */\n      iszero\n      tag_341\n      jumpi\n        /* \"#utility.yul\":12455:12473   */\n      tag_342\n      tag_326\n      jump\t// in\n    tag_342:\n        /* \"#utility.yul\":12441:12475   */\n    tag_341:\n        /* \"#utility.yul\":12500:12501   */\n      dup3\n        /* \"#utility.yul\":12497:12498   */\n      dup3\n        /* \"#utility.yul\":12493:12502   */\n      sub\n        /* \"#utility.yul\":12485:12502   */\n      swap1\n      pop\n        /* \"#utility.yul\":12317:12508   */\n      swap3\n      swap2\n      pop\n      pop\n      jump\t// out\n        /* \"#utility.yul\":12514:12610   */\n    tag_343:\n        /* \"#utility.yul\":12551:12558   */\n      0x00\n        /* \"#utility.yul\":12580:12604   */\n      tag_345\n        /* \"#utility.yul\":12598:12603   */\n      dup3\n        /* \"#utility.yul\":12580:12604   */\n      tag_346\n      jump\t// in\n    tag_345:\n        /* \"#utility.yul\":12569:12604   */\n      swap1\n      pop\n        /* \"#utility.yul\":12514:12610   */\n      swap2\n      swap1\n      pop\n      jump\t// out\n        /* \"#utility.yul\":12616:12720   */\n    tag_347:\n        /* \"#utility.yul\":12661:12668   */\n      0x00\n        /* \"#utility.yul\":12690:12714   */\n      tag_349\n        /* \"#utility.yul\":12708:12713   */\n      dup3\n        /* \"#utility.yul\":12690:12714   */\n      tag_346\n      jump\t// in\n    tag_349:\n        /* \"#utility.yul\":12679:12714   */\n      swap1\n      pop\n        /* \"#utility.yul\":12616:12720   */\n      swap2\n      swap1\n      pop\n      jump\t// out\n        /* \"#utility.yul\":12726:12852   */\n    tag_346:\n        /* \"#utility.yul\":12763:12770   */\n      0x00\n        /* \"#utility.yul\":12803:12845   */\n      0xffffffffffffffffffffffffffffffffffffffff\n        /* \"#utility.yul\":12796:12801   */\n      dup3\n        /* \"#utility.yul\":12792:12846   */\n      and\n        /* \"#utility.yul\":12781:12846   */\n      swap1\n      pop\n        /* \"#utility.yul\":12726:12852   */\n      swap2\n      swap1\n      pop\n      jump\t// out\n        /* \"#utility.yul\":12858:12935   */\n    tag_291:\n        /* \"#utility.yul\":12895:12902   */\n      0x00\n        /* \"#utility.yul\":12924:12929   */\n      dup2\n        /* \"#utility.yul\":12913:12929   */\n      swap1\n      pop\n        /* \"#utility.yul\":12858:12935   */\n      swap2\n      swap1\n      pop\n      jump\t// out\n        /* \"#utility.yul\":12941:13027   */\n    tag_352:\n        /* \"#utility.yul\":12976:12983   */\n      0x00\n        /* \"#utility.yul\":13016:13020   */\n      0xff\n        /* \"#utility.yul\":13009:13014   */\n      dup3\n        /* \"#utility.yul\":13005:13021   */\n      and\n        /* \"#utility.yul\":12994:13021   */\n      swap1\n      pop\n        /* \"#utility.yul\":12941:13027   */\n      swap2\n      swap1\n      pop\n      jump\t// out\n        /* \"#utility.yul\":13033:13266   */\n    tag_106:\n        /* \"#utility.yul\":13072:13075   */\n      0x00\n        /* \"#utility.yul\":13095:13119   */\n      tag_355\n        /* \"#utility.yul\":13113:13118   */\n      dup3\n        /* \"#utility.yul\":13095:13119   */\n      tag_291\n      jump\t// in\n    tag_355:\n        /* \"#utility.yul\":13086:13119   */\n      swap2\n      pop\n        /* \"#utility.yul\":13141:13207   */\n      0xffffffffffffffffffffffffffffffffffffffffffffffffffffffffffffffff\n        /* \"#utility.yul\":13134:13139   */\n      dup3\n        /* \"#utility.yul\":13131:13208   */\n      eq\n        /* \"#utility.yul\":13128:13231   */\n      iszero\n      tag_356\n      jumpi\n        /* \"#utility.yul\":13211:13229   */\n      tag_357\n      tag_326\n      jump\t// in\n    tag_357:\n        /* \"#utility.yul\":13128:13231   */\n    tag_356:\n        /* \"#utility.yul\":13258:13259   */\n      0x01\n        /* \"#utility.yul\":13251:13256   */\n      dup3\n        /* \"#utility.yul\":13247:13260   */\n      add\n        /* \"#utility.yul\":13240:13260   */\n      swap1\n      pop\n        /* \"#utility.yul\":13033:13266   */\n      swap2\n      swap1\n      pop\n      jump\t// out\n        /* \"#utility.yul\":13272:13439   */\n    tag_163:\n        /* \"#utility.yul\":13309:13312   */\n      0x00\n        /* \"#utility.yul\":13332:13354   */\n      tag_359\n        /* \"#utility.yul\":13348:13353   */\n      dup3\n        /* \"#utility.yul\":13332:13354   */\n      tag_352\n      jump\t// in\n    tag_359:\n        /* \"#utility.yul\":13323:13354   */\n      swap2\n      pop\n        /* \"#utility.yul\":13376:13380   */\n      0xff\n        /* \"#utility.yul\":13369:13374   */\n      dup3\n        /* \"#utility.yul\":13366:13381   */\n      eq\n        /* \"#utility.yul\":13363:13404   */\n      iszero\n      tag_360\n      jumpi\n        /* \"#utility.yul\":13384:13402   */\n      tag_361\n      tag_326\n      jump\t// in\n    tag_361:\n        /* \"#utility.yul\":13363:13404   */\n    tag_360:\n        /* \"#utility.yul\":13431:13432   */\n      0x01\n        /* \"#utility.yul\":13424:13429   */\n      dup3\n        /* \"#utility.yul\":13420:13433   */\n      add\n        /* \"#utility.yul\":13413:13433   */\n      swap1\n      pop\n        /* \"#utility.yul\":13272:13439   */\n      swap2\n      swap1\n      pop\n      jump\t// out\n        /* \"#utility.yul\":13445:13625   */\n    tag_326:\n        /* \"#utility.yul\":13493:13570   */\n      0x4e487b7100000000000000000000000000000000000000000000000000000000\n        /* \"#utility.yul\":13490:13491   */\n      0x00\n        /* \"#utility.yul\":13483:13571   */\n      mstore\n        /* \"#utility.yul\":13590:13594   */\n      0x11\n        /* \"#utility.yul\":13587:13588   */\n      0x04\n        /* \"#utility.yul\":13580:13595   */\n      mstore\n        /* \"#utility.yul\":13614:13618   */\n      0x24\n        /* \"#utility.yul\":13611:13612   */\n      0x00\n        /* \"#utility.yul\":13604:13619   */\n      revert\n        /* \"#utility.yul\":13631:13811   */\n    tag_332:\n        /* \"#utility.yul\":13679:13756   */\n      0x4e487b7100000000000000000000000000000000000000000000000000000000\n        /* \"#utility.yul\":13676:13677   */\n      0x00\n        /* \"#utility.yul\":13669:13757   */\n      mstore\n        /* \"#utility.yul\":13776:13780   */\n      0x12\n        /* \"#utility.yul\":13773:13774   */\n      0x04\n        /* \"#utility.yul\":13766:13781   */\n      mstore\n        /* \"#utility.yul\":13800:13804   */\n      0x24\n        /* \"#utility.yul\":13797:13798   */\n      0x00\n        /* \"#utility.yul\":13790:13805   */\n      revert\n        /* \"#utility.yul\":13817:13997   */\n    tag_102:\n        /* \"#utility.yul\":13865:13942   */\n      0x4e487b7100000000000000000000000000000000000000000000000000000000\n        /* \"#utility.yul\":13862:13863   */\n      0x00\n        /* \"#utility.yul\":13855:13943   */\n      mstore\n        /* \"#utility.yul\":13962:13966   */\n      0x32\n        /* \"#utility.yul\":13959:13960   */\n      0x04\n        /* \"#utility.yul\":13952:13967   */\n      mstore\n        /* \"#utility.yul\":13986:13990   */\n      0x24\n        /* \"#utility.yul\":13983:13984   */\n      0x00\n        /* \"#utility.yul\":13976:13991   */\n      revert\n        /* \"#utility.yul\":14126:14243   */\n    tag_220:\n        /* \"#utility.yul\":14235:14236   */\n      0x00\n        /* \"#utility.yul\":14232:14233   */\n      dup1\n        /* \"#utility.yul\":14225:14237   */\n      revert\n        /* \"#utility.yul\":14249:14561   */\n    tag_232:\n        /* \"#utility.yul\":14389:14423   */\n      0x73746f7265206d757374206d6f7265207468616e2030207765692c20696e6465\n        /* \"#utility.yul\":14385:14386   */\n      0x00\n        /* \"#utility.yul\":14377:14383   */\n      dup3\n        /* \"#utility.yul\":14373:14387   */\n      add\n        /* \"#utility.yul\":14366:14424   */\n      mstore\n        /* \"#utility.yul\":14458:14492   */\n      0x656420746865206761732066656520646f206e6f742064656372656173652069\n        /* \"#utility.yul\":14453:14455   */\n      0x20\n        /* \"#utility.yul\":14445:14451   */\n      dup3\n        /* \"#utility.yul\":14441:14456   */\n      add\n        /* \"#utility.yul\":14434:14493   */\n      mstore\n        /* \"#utility.yul\":14527:14553   */\n      0x6620796f7520746f70696e2061206c6f772076616c75652e0000000000000000\n        /* \"#utility.yul\":14522:14524   */\n      0x40\n        /* \"#utility.yul\":14514:14520   */\n      dup3\n        /* \"#utility.yul\":14510:14525   */\n      add\n        /* \"#utility.yul\":14503:14554   */\n      mstore\n        /* \"#utility.yul\":14249:14561   */\n      pop\n      jump\t// out\n        /* \"#utility.yul\":14567:14801   */\n    tag_237:\n        /* \"#utility.yul\":14707:14741   */\n      0x74686572652069736e277420616e792077697468647277616c73207761697420\n        /* \"#utility.yul\":14703:14704   */\n      0x00\n        /* \"#utility.yul\":14695:14701   */\n      dup3\n        /* \"#utility.yul\":14691:14705   */\n      add\n        /* \"#utility.yul\":14684:14742   */\n      mstore\n        /* \"#utility.yul\":14776:14793   */\n      0x666f722063616e63656c6174696f6e0000000000000000000000000000000000\n        /* \"#utility.yul\":14771:14773   */\n      0x20\n        /* \"#utility.yul\":14763:14769   */\n      dup3\n        /* \"#utility.yul\":14759:14774   */\n      add\n        /* \"#utility.yul\":14752:14794   */\n      mstore\n        /* \"#utility.yul\":14567:14801   */\n      pop\n      jump\t// out\n        /* \"#utility.yul\":14807:15052   */\n    tag_242:\n        /* \"#utility.yul\":14947:14981   */\n      0x6f6e6c792074686520636f756e746572207061727479206f6620696e69746961\n        /* \"#utility.yul\":14943:14944   */\n      0x00\n        /* \"#utility.yul\":14935:14941   */\n      dup3\n        /* \"#utility.yul\":14931:14945   */\n      add\n        /* \"#utility.yul\":14924:14982   */\n      mstore\n        /* \"#utility.yul\":15016:15044   */\n      0x746f722063616e2063616c6c20746869732066756e6374696f6e000000000000\n        /* \"#utility.yul\":15011:15013   */\n      0x20\n        /* \"#utility.yul\":15003:15009   */\n      dup3\n        /* \"#utility.yul\":14999:15014   */\n      add\n        /* \"#utility.yul\":14992:15045   */\n      mstore\n        /* \"#utility.yul\":14807:15052   */\n      pop\n      jump\t// out\n        /* \"#utility.yul\":15058:15291   */\n    tag_247:\n        /* \"#utility.yul\":15198:15232   */\n      0x796f752068617665207369676e656420666f722063616e63656c6c6174696f6e\n        /* \"#utility.yul\":15194:15195   */\n      0x00\n        /* \"#utility.yul\":15186:15192   */\n      dup3\n        /* \"#utility.yul\":15182:15196   */\n      add\n        /* \"#utility.yul\":15175:15233   */\n      mstore\n        /* \"#utility.yul\":15267:15283   */\n      0x2c20646f6e277420726570656174000000000000000000000000000000000000\n        /* \"#utility.yul\":15262:15264   */\n      0x20\n        /* \"#utility.yul\":15254:15260   */\n      dup3\n        /* \"#utility.yul\":15250:15265   */\n      add\n        /* \"#utility.yul\":15243:15284   */\n      mstore\n        /* \"#utility.yul\":15058:15291   */\n      pop\n      jump\t// out\n        /* \"#utility.yul\":15297:15468   */\n    tag_252:\n        /* \"#utility.yul\":15437:15460   */\n      0x696e76616c696420746172676574416464726573730000000000000000000000\n        /* \"#utility.yul\":15433:15434   */\n      0x00\n        /* \"#utility.yul\":15425:15431   */\n      dup3\n        /* \"#utility.yul\":15421:15435   */\n      add\n        /* \"#utility.yul\":15414:15461   */\n      mstore\n        /* \"#utility.yul\":15297:15468   */\n      pop\n      jump\t// out\n        /* \"#utility.yul\":15474:15720   */\n    tag_257:\n        /* \"#utility.yul\":15614:15648   */\n      0x6f6e6c7920706c6174666f726d206163636f756e7420697473656c662063616e\n        /* \"#utility.yul\":15610:15611   */\n      0x00\n        /* \"#utility.yul\":15602:15608   */\n      dup3\n        /* \"#utility.yul\":15598:15612   */\n      add\n        /* \"#utility.yul\":15591:15649   */\n      mstore\n        /* \"#utility.yul\":15683:15712   */\n      0x206368616e676520697420746f206f74686572206163636f756e740000000000\n        /* \"#utility.yul\":15678:15680   */\n      0x20\n        /* \"#utility.yul\":15670:15676   */\n      dup3\n        /* \"#utility.yul\":15666:15681   */\n      add\n        /* \"#utility.yul\":15659:15713   */\n      mstore\n        /* \"#utility.yul\":15474:15720   */\n      pop\n      jump\t// out\n        /* \"#utility.yul\":15726:15957   */\n    tag_262:\n        /* \"#utility.yul\":15866:15900   */\n      0x7468657265206973206e6f20776974686472617720616374696f6e2077616974\n        /* \"#utility.yul\":15862:15863   */\n      0x00\n        /* \"#utility.yul\":15854:15860   */\n      dup3\n        /* \"#utility.yul\":15850:15864   */\n      add\n        /* \"#utility.yul\":15843:15901   */\n      mstore\n        /* \"#utility.yul\":15935:15949   */\n      0x696e6720666f72207369676e0000000000000000000000000000000000000000\n        /* \"#utility.yul\":15930:15932   */\n      0x20\n        /* \"#utility.yul\":15922:15928   */\n      dup3\n        /* \"#utility.yul\":15918:15933   */\n      add\n        /* \"#utility.yul\":15911:15950   */\n      mstore\n        /* \"#utility.yul\":15726:15957   */\n      pop\n      jump\t// out\n        /* \"#utility.yul\":15963:16206   */\n    tag_267:\n        /* \"#utility.yul\":16103:16137   */\n      0x796f752068617665207369676e65642074686973207769746864726177207072\n        /* \"#utility.yul\":16099:16100   */\n      0x00\n        /* \"#utility.yul\":16091:16097   */\n      dup3\n        /* \"#utility.yul\":16087:16101   */\n      add\n        /* \"#utility.yul\":16080:16138   */\n      mstore\n        /* \"#utility.yul\":16172:16198   */\n      0x6f636573732c20706c7a20646f6e2774207265706561742e0000000000000000\n        /* \"#utility.yul\":16167:16169   */\n      0x20\n        /* \"#utility.yul\":16159:16165   */\n      dup3\n        /* \"#utility.yul\":16155:16170   */\n      add\n        /* \"#utility.yul\":16148:16199   */\n      mstore\n        /* \"#utility.yul\":15963:16206   */\n      pop\n      jump\t// out\n        /* \"#utility.yul\":16212:16391   */\n    tag_272:\n        /* \"#utility.yul\":16352:16383   */\n      0x7072652070726f6365737320686173206e6f74206265656e206f766572000000\n        /* \"#utility.yul\":16348:16349   */\n      0x00\n        /* \"#utility.yul\":16340:16346   */\n      dup3\n        /* \"#utility.yul\":16336:16350   */\n      add\n        /* \"#utility.yul\":16329:16384   */\n      mstore\n        /* \"#utility.yul\":16212:16391   */\n      pop\n      jump\t// out\n        /* \"#utility.yul\":16397:16622   */\n    tag_277:\n        /* \"#utility.yul\":16537:16571   */\n      0x6f6e6c7920636f6c6c61626f7261746f7273206861766520746865207065726d\n        /* \"#utility.yul\":16533:16534   */\n      0x00\n        /* \"#utility.yul\":16525:16531   */\n      dup3\n        /* \"#utility.yul\":16521:16535   */\n      add\n        /* \"#utility.yul\":16514:16572   */\n      mstore\n        /* \"#utility.yul\":16606:16614   */\n      0x697373696f6e0000000000000000000000000000000000000000000000000000\n        /* \"#utility.yul\":16601:16603   */\n      0x20\n        /* \"#utility.yul\":16593:16599   */\n      dup3\n        /* \"#utility.yul\":16589:16604   */\n      add\n        /* \"#utility.yul\":16582:16615   */\n      mstore\n        /* \"#utility.yul\":16397:16622   */\n      pop\n      jump\t// out\n        /* \"#utility.yul\":16628:16857   */\n    tag_282:\n        /* \"#utility.yul\":16768:16802   */\n      0x6f6e6c792074686520696e69746961746f722063616e2063616e63656c207468\n        /* \"#utility.yul\":16764:16765   */\n      0x00\n        /* \"#utility.yul\":16756:16762   */\n      dup3\n        /* \"#utility.yul\":16752:16766   */\n      add\n        /* \"#utility.yul\":16745:16803   */\n      mstore\n        /* \"#utility.yul\":16837:16849   */\n      0x69732070726f6365737300000000000000000000000000000000000000000000\n        /* \"#utility.yul\":16832:16834   */\n      0x20\n        /* \"#utility.yul\":16824:16830   */\n      dup3\n        /* \"#utility.yul\":16820:16835   */\n      add\n        /* \"#utility.yul\":16813:16850   */\n      mstore\n        /* \"#utility.yul\":16628:16857   */\n      pop\n      jump\t// out\n        /* \"#utility.yul\":16863:17094   */\n    tag_287:\n        /* \"#utility.yul\":17003:17037   */\n      0x77697468647261772062616c616e636520636f756c64206e6f74206d6f726520\n        /* \"#utility.yul\":16999:17000   */\n      0x00\n        /* \"#utility.yul\":16991:16997   */\n      dup3\n        /* \"#utility.yul\":16987:17001   */\n      add\n        /* \"#utility.yul\":16980:17038   */\n      mstore\n        /* \"#utility.yul\":17072:17086   */\n      0x7468616e2062616c616e63650000000000000000000000000000000000000000\n        /* \"#utility.yul\":17067:17069   */\n      0x20\n        /* \"#utility.yul\":17059:17065   */\n      dup3\n        /* \"#utility.yul\":17055:17070   */\n      add\n        /* \"#utility.yul\":17048:17087   */\n      mstore\n        /* \"#utility.yul\":16863:17094   */\n      pop\n      jump\t// out\n        /* \"#utility.yul\":17100:17222   */\n    tag_208:\n        /* \"#utility.yul\":17173:17197   */\n      tag_381\n        /* \"#utility.yul\":17191:17196   */\n      dup2\n        /* \"#utility.yul\":17173:17197   */\n      tag_343\n      jump\t// in\n    tag_381:\n        /* \"#utility.yul\":17166:17171   */\n      dup2\n        /* \"#utility.yul\":17163:17198   */\n      eq\n        /* \"#utility.yul\":17153:17216   */\n      tag_382\n      jumpi\n        /* \"#utility.yul\":17212:17213   */\n      0x00\n        /* \"#utility.yul\":17209:17210   */\n      dup1\n        /* \"#utility.yul\":17202:17214   */\n      revert\n        /* \"#utility.yul\":17153:17216   */\n    tag_382:\n        /* \"#utility.yul\":17100:17222   */\n      pop\n      jump\t// out\n        /* \"#utility.yul\":17228:17366   */\n    tag_212:\n        /* \"#utility.yul\":17309:17341   */\n      tag_384\n        /* \"#utility.yul\":17335:17340   */\n      dup2\n        /* \"#utility.yul\":17309:17341   */\n      tag_347\n      jump\t// in\n    tag_384:\n        /* \"#utility.yul\":17302:17307   */\n      dup2\n        /* \"#utility.yul\":17299:17342   */\n      eq\n        /* \"#utility.yul\":17289:17360   */\n      tag_385\n      jumpi\n        /* \"#utility.yul\":17356:17357   */\n      0x00\n        /* \"#utility.yul\":17353:17354   */\n      dup1\n        /* \"#utility.yul\":17346:17358   */\n      revert\n        /* \"#utility.yul\":17289:17360   */\n    tag_385:\n        /* \"#utility.yul\":17228:17366   */\n      pop\n      jump\t// out\n        /* \"#utility.yul\":17372:17494   */\n    tag_216:\n        /* \"#utility.yul\":17445:17469   */\n      tag_387\n        /* \"#utility.yul\":17463:17468   */\n      dup2\n        /* \"#utility.yul\":17445:17469   */\n      tag_291\n      jump\t// in\n    tag_387:\n        /* \"#utility.yul\":17438:17443   */\n      dup2\n        /* \"#utility.yul\":17435:17470   */\n      eq\n        /* \"#utility.yul\":17425:17488   */\n      tag_388\n      jumpi\n        /* \"#utility.yul\":17484:17485   */\n      0x00\n        /* \"#utility.yul\":17481:17482   */\n      dup1\n        /* \"#utility.yul\":17474:17486   */\n      revert\n        /* \"#utility.yul\":17425:17488   */\n    tag_388:\n        /* \"#utility.yul\":17372:17494   */\n      pop\n      jump\t// out\n\n    auxdata: 0xa26469706673582212203d0abf596f8c0d616e06ecd5a8b7ccfe6b615ec5e741ec35fa3bf9e1643ef84d64736f6c63430008070033\n}\n",
				"bytecode": {
					"linkReferences": {},
					"object": "60806040523480156200001157600080fd5b50604051620026e1380380620026e183398181016040528101906200003791906200056d565b33600160006101000a81548173ffffffffffffffffffffffffffffffffffffffff021916908373ffffffffffffffffffffffffffffffffffffffff1602179055506000825111620000bf576040517f08c379a0000000000000000000000000000000000000000000000000000000008152600401620000b6906200072b565b60405180910390fd5b620000cf6200029060201b60201c565b62000111576040517f08c379a000000000000000000000000000000000000000000000000000000000815260040162000108906200074d565b60405180910390fd5b60008160ff1611801562000129575081518160ff1611155b6200016b576040517f08c379a000000000000000000000000000000000000000000000000000000000815260040162000162906200076f565b60405180910390fd5b816002908051906020019062000183929190620003e3565b5080600360006101000a81548160ff021916908360ff16021790555073dd870fa1b7c4700f2bd7f44238821c26f7392148600c60006101000a81548173ffffffffffffffffffffffffffffffffffffffff021916908373ffffffffffffffffffffffffffffffffffffffff1602179055506014600a819055506005600b81905550600160009054906101000a900473ffffffffffffffffffffffffffffffffffffffff1673ffffffffffffffffffffffffffffffffffffffff167f89e2b4055c1d8caf36018e020d7898aeb3b3d3611c9a02083f0fd59779f6e3116002600360009054906101000a900460ff1660405162000280929190620006f7565b60405180910390a2505062000bf8565b6000806000905060005b600280549050811015620003da576001600280549050620002bc919062000895565b811415620002ca57620003da565b6000600182620002db919062000838565b90505b600280549050811015620003c3576002818154811062000303576200030262000a0c565b5b9060005260206000200160009054906101000a900473ffffffffffffffffffffffffffffffffffffffff1673ffffffffffffffffffffffffffffffffffffffff16600283815481106200035b576200035a62000a0c565b5b9060005260206000200160009054906101000a900473ffffffffffffffffffffffffffffffffffffffff1673ffffffffffffffffffffffffffffffffffffffff161415620003ad5760019250620003c3565b8080620003ba906200098f565b915050620002de565b508080620003d1906200098f565b9150506200029a565b50801591505090565b8280548282559060005260206000209081019282156200045f579160200282015b828111156200045e5782518260006101000a81548173ffffffffffffffffffffffffffffffffffffffff021916908373ffffffffffffffffffffffffffffffffffffffff1602179055509160200191906001019062000404565b5b5090506200046e919062000472565b5090565b5b808211156200048d57600081600090555060010162000473565b5090565b6000620004a8620004a284620007ba565b62000791565b90508083825260208201905082856020860282011115620004ce57620004cd62000a84565b5b60005b85811015620005025781620004e788826200050c565b845260208401935060208301925050600181019050620004d1565b5050509392505050565b6000815190506200051d8162000bc4565b92915050565b600082601f8301126200053b576200053a62000a7f565b5b81516200054d84826020860162000491565b91505092915050565b600081519050620005678162000bde565b92915050565b6000806040838503121562000587576200058662000a8e565b5b600083015167ffffffffffffffff811115620005a857620005a762000a89565b5b620005b68582860162000523565b9250506020620005c98582860162000556565b9150509250929050565b6000620005e18383620005ed565b60208301905092915050565b620005f881620008f0565b82525050565b60006200060b82620007fe565b62000617818562000816565b93506200062483620007e9565b8060005b8381101562000664576200063c8262000a6a565b620006488882620005d3565b9750620006558362000809565b92505060018101905062000628565b5085935050505092915050565b60006200068060248362000827565b91506200068d8262000ab1565b604082019050919050565b6000620006a760278362000827565b9150620006b48262000b00565b604082019050919050565b6000620006ce60508362000827565b9150620006db8262000b4f565b606082019050919050565b620006f1816200092e565b82525050565b60006040820190508181036000830152620007138185620005fe565b9050620007246020830184620006e6565b9392505050565b60006020820190508181036000830152620007468162000671565b9050919050565b60006020820190508181036000830152620007688162000698565b9050919050565b600060208201905081810360008301526200078a81620006bf565b9050919050565b60006200079d620007b0565b9050620007ab828262000959565b919050565b6000604051905090565b600067ffffffffffffffff821115620007d857620007d762000a3b565b5b602082029050602081019050919050565b60008190508160005260206000209050919050565b600081549050919050565b6000600182019050919050565b600082825260208201905092915050565b600082825260208201905092915050565b6000620008458262000924565b9150620008528362000924565b9250827fffffffffffffffffffffffffffffffffffffffffffffffffffffffffffffffff038211156200088a5762000889620009dd565b5b828201905092915050565b6000620008a28262000924565b9150620008af8362000924565b925082821015620008c557620008c4620009dd565b5b828203905092915050565b600073ffffffffffffffffffffffffffffffffffffffff82169050919050565b6000620008fd8262000904565b9050919050565b600073ffffffffffffffffffffffffffffffffffffffff82169050919050565b6000819050919050565b600060ff82169050919050565b6000620009526200094c8362000aa4565b620008d0565b9050919050565b620009648262000a93565b810181811067ffffffffffffffff8211171562000986576200098562000a3b565b5b80604052505050565b60006200099c8262000924565b91507fffffffffffffffffffffffffffffffffffffffffffffffffffffffffffffffff821415620009d257620009d1620009dd565b5b600182019050919050565b7f4e487b7100000000000000000000000000000000000000000000000000000000600052601160045260246000fd5b7f4e487b7100000000000000000000000000000000000000000000000000000000600052603260045260246000fd5b7f4e487b7100000000000000000000000000000000000000000000000000000000600052604160045260246000fd5b600062000a7882546200093b565b9050919050565b600080fd5b600080fd5b600080fd5b600080fd5b6000601f19601f8301169050919050565b60008160001c9050919050565b7f616c6c20636f6c6c61626f7261746f727320636f756e74206174206c6561737460008201527f206f6e6500000000000000000000000000000000000000000000000000000000602082015250565b7f74686520636f6c6c61626f7261746f7273206d757374206e6f2062652064757060008201527f6c69636174656400000000000000000000000000000000000000000000000000602082015250565b7f6174206c65617374207369676e20636f756e74206d757374206d6f726520746860008201527f616e203020616e64206c657373207468616e206f7220657175616c7320636f6c60208201527f6c61626f7261746f727320636f756e7400000000000000000000000000000000604082015250565b62000bcf81620008f0565b811462000bdb57600080fd5b50565b62000be9816200092e565b811462000bf557600080fd5b50565b611ad98062000c086000396000f3fe6080604052600436106100895760003560e01c8063b517e0b411610059578063b517e0b414610172578063b69ef8a814610189578063bc44e739146101b4578063ca3ea43f146101dd578063cfa4a5f614610208576100eb565b80623bdf3e146100f05780631535430b14610119578063352ce050146101305780633a0a197b14610147576100eb565b366100eb57600034116100d1576040517f08c379a00000000000000000000000000000000000000000000000000000000081526004016100c8906112af565b60405180910390fd5b346000808282546100e2919061145b565b92505081905550005b600080fd5b3480156100fc57600080fd5b50610117600480360381019061011291906110bc565b610233565b005b34801561012557600080fd5b5061012e61047a565b005b34801561013c57600080fd5b50610145610795565b005b34801561015357600080fd5b5061015c6108e4565b604051610169919061142f565b60405180910390f35b34801561017e57600080fd5b506101876108ea565b005b34801561019557600080fd5b5061019e6109cb565b6040516101ab919061142f565b60405180910390f35b3480156101c057600080fd5b506101db60048036038101906101d6919061108f565b6109d1565b005b3480156101e957600080fd5b506101f2610aa5565b6040516101ff919061142f565b60405180910390f35b34801561021457600080fd5b5061021d610aab565b60405161022a919061142f565b60405180910390f35b61023b610ab1565b61027a576040517f08c379a0000000000000000000000000000000000000000000000000000000008152600401610271906113cf565b60405180910390fd5b6000600454146102bf576040517f08c379a00000000000000000000000000000000000000000000000000000000081526004016102b6906113af565b60405180910390fd5b600054821115610304576040517f08c379a00000000000000000000000000000000000000000000000000000000081526004016102fb9061140f565b60405180910390fd5b600073ffffffffffffffffffffffffffffffffffffffff168173ffffffffffffffffffffffffffffffffffffffff161415610374576040517f08c379a000000000000000000000000000000000000000000000000000000000815260040161036b9061132f565b60405180910390fd5b33600660006101000a81548173ffffffffffffffffffffffffffffffffffffffff021916908373ffffffffffffffffffffffffffffffffffffffff1602179055508160048190555080600560006101000a81548173ffffffffffffffffffffffffffffffffffffffff021916908373ffffffffffffffffffffffffffffffffffffffff1602179055506007339080600181540180825580915050600190039060005260206000200160009091909190916101000a81548173ffffffffffffffffffffffffffffffffffffffff021916908373ffffffffffffffffffffffffffffffffffffffff160217905550610468610b48565b1561047657610475610cd4565b5b5050565b610482610ab1565b6104c1576040517f08c379a00000000000000000000000000000000000000000000000000000000081526004016104b8906113cf565b60405180910390fd5b600660009054906101000a900473ffffffffffffffffffffffffffffffffffffffff1673ffffffffffffffffffffffffffffffffffffffff163373ffffffffffffffffffffffffffffffffffffffff161415610552576040517f08c379a0000000000000000000000000000000000000000000000000000000008152600401610549906112ef565b60405180910390fd5b6105e260088054806020026020016040519081016040528092919081815260200182805480156105d757602002820191906000526020600020905b8160009054906101000a900473ffffffffffffffffffffffffffffffffffffffff1673ffffffffffffffffffffffffffffffffffffffff168152602001906001019080831161058d575b505050505033610df7565b15610622576040517f08c379a00000000000000000000000000000000000000000000000000000000081526004016106199061130f565b60405180910390fd5b600060045411610667576040517f08c379a000000000000000000000000000000000000000000000000000000000815260040161065e906112cf565b60405180910390fd5b6008339080600181540180825580915050600190039060005260206000200160009091909190916101000a81548173ffffffffffffffffffffffffffffffffffffffff021916908373ffffffffffffffffffffffffffffffffffffffff1602179055506000805b60088054905081101561076f57600073ffffffffffffffffffffffffffffffffffffffff16600882815481106107075761070661169c565b5b9060005260206000200160009054906101000a900473ffffffffffffffffffffffffffffffffffffffff1673ffffffffffffffffffffffffffffffffffffffff161461075c578180610758906115cb565b9250505b8080610767906115cb565b9150506106ce565b506001600280549050610782919061153c565b81141561079257610791610e7f565b5b50565b61079d610ab1565b6107dc576040517f08c379a00000000000000000000000000000000000000000000000000000000081526004016107d3906113cf565b60405180910390fd5b600060045411610821576040517f08c379a00000000000000000000000000000000000000000000000000000000081526004016108189061136f565b60405180910390fd5b610829610eef565b15610869576040517f08c379a00000000000000000000000000000000000000000000000000000000081526004016108609061138f565b60405180910390fd5b6007339080600181540180825580915050600190039060005260206000200160009091909190916101000a81548173ffffffffffffffffffffffffffffffffffffffff021916908373ffffffffffffffffffffffffffffffffffffffff1602179055506108d4610b48565b156108e2576108e1610cd4565b5b565b600a5481565b6108f2610ab1565b610931576040517f08c379a0000000000000000000000000000000000000000000000000000000008152600401610928906113cf565b60405180910390fd5b600660009054906101000a900473ffffffffffffffffffffffffffffffffffffffff1673ffffffffffffffffffffffffffffffffffffffff163373ffffffffffffffffffffffffffffffffffffffff16146109c1576040517f08c379a00000000000000000000000000000000000000000000000000000000081526004016109b8906113ef565b60405180910390fd5b6109c9610e7f565b565b60005481565b600c60009054906101000a900473ffffffffffffffffffffffffffffffffffffffff1673ffffffffffffffffffffffffffffffffffffffff163373ffffffffffffffffffffffffffffffffffffffff1614610a61576040517f08c379a0000000000000000000000000000000000000000000000000000000008152600401610a589061134f565b60405180910390fd5b80600c60006101000a81548173ffffffffffffffffffffffffffffffffffffffff021916908373ffffffffffffffffffffffffffffffffffffffff16021790555050565b60095481565b600b5481565b6000610b436002805480602002602001604051908101604052809291908181526020018280548015610b3857602002820191906000526020600020905b8160009054906101000a900473ffffffffffffffffffffffffffffffffffffffff1673ffffffffffffffffffffffffffffffffffffffff1681526020019060010190808311610aee575b505050505033610df7565b905090565b6000806007805480602002602001604051908101604052809291908181526020018280548015610bcd57602002820191906000526020600020905b8160009054906101000a900473ffffffffffffffffffffffffffffffffffffffff1673ffffffffffffffffffffffffffffffffffffffff1681526020019060010190808311610b83575b505050505090506000805b8251811015610cb35760005b600280549050811015610c9f57838281518110610c0457610c0361169c565b5b602002602001015173ffffffffffffffffffffffffffffffffffffffff1660028281548110610c3657610c3561169c565b5b9060005260206000200160009054906101000a900473ffffffffffffffffffffffffffffffffffffffff1673ffffffffffffffffffffffffffffffffffffffff161415610c8c578280610c8890611614565b9350505b8080610c97906115cb565b915050610be4565b508080610cab906115cb565b915050610bd8565b50600360009054906101000a900460ff1660ff168160ff1610159250505090565b600060045490506000600481905550600560009054906101000a900473ffffffffffffffffffffffffffffffffffffffff1673ffffffffffffffffffffffffffffffffffffffff166108fc829081150290604051600060405180830381858888f19350505050158015610d4b573d6000803e3d6000fd5b5080600054610d5a919061153c565b60008190555060096000815480929190610d73906115cb565b9190505550600560006101000a81549073ffffffffffffffffffffffffffffffffffffffff021916905560076000610dab9190611012565b600660006101000a81549073ffffffffffffffffffffffffffffffffffffffff021916905560086000610dde9190611012565b600b546009541115610df457610df381610f86565b5b50565b6000806000905060005b8451811015610e74578373ffffffffffffffffffffffffffffffffffffffff16858281518110610e3457610e3361169c565b5b602002602001015173ffffffffffffffffffffffffffffffffffffffff161415610e615760019150610e74565b8080610e6c906115cb565b915050610e01565b508091505092915050565b600660006101000a81549073ffffffffffffffffffffffffffffffffffffffff0219169055600560006101000a81549073ffffffffffffffffffffffffffffffffffffffff0219169055600060048190555060076000610edf9190611012565b60086000610eed9190611012565b565b6000610f816007805480602002602001604051908101604052809291908181526020018280548015610f7657602002820191906000526020600020905b8160009054906101000a900473ffffffffffffffffffffffffffffffffffffffff1673ffffffffffffffffffffffffffffffffffffffff1681526020019060010190808311610f2c575b505050505033610df7565b905090565b6000600a5461271083610f9991906114b1565b610fa391906114e2565b9050600c60009054906101000a900473ffffffffffffffffffffffffffffffffffffffff1673ffffffffffffffffffffffffffffffffffffffff166108fc829081150290604051600060405180830381858888f1935050505015801561100d573d6000803e3d6000fd5b505050565b50805460008255906000526020600020908101906110309190611033565b50565b5b8082111561104c576000816000905550600101611034565b5090565b60008135905061105f81611a5e565b92915050565b60008135905061107481611a75565b92915050565b60008135905061108981611a8c565b92915050565b6000602082840312156110a5576110a46116cb565b5b60006110b384828501611050565b91505092915050565b600080604083850312156110d3576110d26116cb565b5b60006110e18582860161107a565b92505060206110f285828601611065565b9150509250929050565b600061110960588361144a565b9150611114826116d0565b606082019050919050565b600061112c602f8361144a565b915061113782611745565b604082019050919050565b600061114f603a8361144a565b915061115a82611794565b604082019050919050565b6000611172602e8361144a565b915061117d826117e3565b604082019050919050565b600061119560158361144a565b91506111a082611832565b602082019050919050565b60006111b8603b8361144a565b91506111c38261185b565b604082019050919050565b60006111db602c8361144a565b91506111e6826118aa565b604082019050919050565b60006111fe60388361144a565b9150611209826118f9565b604082019050919050565b6000611221601d8361144a565b915061122c82611948565b602082019050919050565b600061124460268361144a565b915061124f82611971565b604082019050919050565b6000611267602a8361144a565b9150611272826119c0565b604082019050919050565b600061128a602c8361144a565b915061129582611a0f565b604082019050919050565b6112a9816115b4565b82525050565b600060208201905081810360008301526112c8816110fc565b9050919050565b600060208201905081810360008301526112e88161111f565b9050919050565b6000602082019050818103600083015261130881611142565b9050919050565b6000602082019050818103600083015261132881611165565b9050919050565b6000602082019050818103600083015261134881611188565b9050919050565b60006020820190508181036000830152611368816111ab565b9050919050565b60006020820190508181036000830152611388816111ce565b9050919050565b600060208201905081810360008301526113a8816111f1565b9050919050565b600060208201905081810360008301526113c881611214565b9050919050565b600060208201905081810360008301526113e881611237565b9050919050565b600060208201905081810360008301526114088161125a565b9050919050565b600060208201905081810360008301526114288161127d565b9050919050565b600060208201905061144460008301846112a0565b92915050565b600082825260208201905092915050565b6000611466826115b4565b9150611471836115b4565b9250827fffffffffffffffffffffffffffffffffffffffffffffffffffffffffffffffff038211156114a6576114a561163e565b5b828201905092915050565b60006114bc826115b4565b91506114c7836115b4565b9250826114d7576114d661166d565b5b828204905092915050565b60006114ed826115b4565b91506114f8836115b4565b9250817fffffffffffffffffffffffffffffffffffffffffffffffffffffffffffffffff04831182151516156115315761153061163e565b5b828202905092915050565b6000611547826115b4565b9150611552836115b4565b9250828210156115655761156461163e565b5b828203905092915050565b600061157b82611594565b9050919050565b600061158d82611594565b9050919050565b600073ffffffffffffffffffffffffffffffffffffffff82169050919050565b6000819050919050565b600060ff82169050919050565b60006115d6826115b4565b91507fffffffffffffffffffffffffffffffffffffffffffffffffffffffffffffffff8214156116095761160861163e565b5b600182019050919050565b600061161f826115be565b915060ff8214156116335761163261163e565b5b600182019050919050565b7f4e487b7100000000000000000000000000000000000000000000000000000000600052601160045260246000fd5b7f4e487b7100000000000000000000000000000000000000000000000000000000600052601260045260246000fd5b7f4e487b7100000000000000000000000000000000000000000000000000000000600052603260045260246000fd5b600080fd5b7f73746f7265206d757374206d6f7265207468616e2030207765692c20696e646560008201527f656420746865206761732066656520646f206e6f74206465637265617365206960208201527f6620796f7520746f70696e2061206c6f772076616c75652e0000000000000000604082015250565b7f74686572652069736e277420616e792077697468647277616c7320776169742060008201527f666f722063616e63656c6174696f6e0000000000000000000000000000000000602082015250565b7f6f6e6c792074686520636f756e746572207061727479206f6620696e6974696160008201527f746f722063616e2063616c6c20746869732066756e6374696f6e000000000000602082015250565b7f796f752068617665207369676e656420666f722063616e63656c6c6174696f6e60008201527f2c20646f6e277420726570656174000000000000000000000000000000000000602082015250565b7f696e76616c696420746172676574416464726573730000000000000000000000600082015250565b7f6f6e6c7920706c6174666f726d206163636f756e7420697473656c662063616e60008201527f206368616e676520697420746f206f74686572206163636f756e740000000000602082015250565b7f7468657265206973206e6f20776974686472617720616374696f6e207761697460008201527f696e6720666f72207369676e0000000000000000000000000000000000000000602082015250565b7f796f752068617665207369676e6564207468697320776974686472617720707260008201527f6f636573732c20706c7a20646f6e2774207265706561742e0000000000000000602082015250565b7f7072652070726f6365737320686173206e6f74206265656e206f766572000000600082015250565b7f6f6e6c7920636f6c6c61626f7261746f7273206861766520746865207065726d60008201527f697373696f6e0000000000000000000000000000000000000000000000000000602082015250565b7f6f6e6c792074686520696e69746961746f722063616e2063616e63656c20746860008201527f69732070726f6365737300000000000000000000000000000000000000000000602082015250565b7f77697468647261772062616c616e636520636f756c64206e6f74206d6f72652060008201527f7468616e2062616c616e63650000000000000000000000000000000000000000602082015250565b611a6781611570565b8114611a7257600080fd5b50565b611a7e81611582565b8114611a8957600080fd5b50565b611a95816115b4565b8114611aa057600080fd5b5056fea26469706673582212203d0abf596f8c0d616e06ecd5a8b7ccfe6b615ec5e741ec35fa3bf9e1643ef84d64736f6c63430008070033",
					"opcodes": "PUSH1 0x80 PUSH1 0x40 MSTORE CALLVALUE DUP1 ISZERO PUSH3 0x11 JUMPI PUSH1 0x0 DUP1 REVERT JUMPDEST POP PUSH1 0x40 MLOAD PUSH3 0x26E1 CODESIZE SUB DUP1 PUSH3 0x26E1 DUP4 CODECOPY DUP2 DUP2 ADD PUSH1 0x40 MSTORE DUP2 ADD SWAP1 PUSH3 0x37 SWAP2 SWAP1 PUSH3 0x56D JUMP JUMPDEST CALLER PUSH1 0x1 PUSH1 0x0 PUSH2 0x100 EXP DUP2 SLOAD DUP2 PUSH20 0xFFFFFFFFFFFFFFFFFFFFFFFFFFFFFFFFFFFFFFFF MUL NOT AND SWAP1 DUP4 PUSH20 0xFFFFFFFFFFFFFFFFFFFFFFFFFFFFFFFFFFFFFFFF AND MUL OR SWAP1 SSTORE POP PUSH1 0x0 DUP3 MLOAD GT PUSH3 0xBF JUMPI PUSH1 0x40 MLOAD PUSH32 0x8C379A000000000000000000000000000000000000000000000000000000000 DUP2 MSTORE PUSH1 0x4 ADD PUSH3 0xB6 SWAP1 PUSH3 0x72B JUMP JUMPDEST PUSH1 0x40 MLOAD DUP1 SWAP2 SUB SWAP1 REVERT JUMPDEST PUSH3 0xCF PUSH3 0x290 PUSH1 0x20 SHL PUSH1 0x20 SHR JUMP JUMPDEST PUSH3 0x111 JUMPI PUSH1 0x40 MLOAD PUSH32 0x8C379A000000000000000000000000000000000000000000000000000000000 DUP2 MSTORE PUSH1 0x4 ADD PUSH3 0x108 SWAP1 PUSH3 0x74D JUMP JUMPDEST PUSH1 0x40 MLOAD DUP1 SWAP2 SUB SWAP1 REVERT JUMPDEST PUSH1 0x0 DUP2 PUSH1 0xFF AND GT DUP1 ISZERO PUSH3 0x129 JUMPI POP DUP2 MLOAD DUP2 PUSH1 0xFF AND GT ISZERO JUMPDEST PUSH3 0x16B JUMPI PUSH1 0x40 MLOAD PUSH32 0x8C379A000000000000000000000000000000000000000000000000000000000 DUP2 MSTORE PUSH1 0x4 ADD PUSH3 0x162 SWAP1 PUSH3 0x76F JUMP JUMPDEST PUSH1 0x40 MLOAD DUP1 SWAP2 SUB SWAP1 REVERT JUMPDEST DUP2 PUSH1 0x2 SWAP1 DUP1 MLOAD SWAP1 PUSH1 0x20 ADD SWAP1 PUSH3 0x183 SWAP3 SWAP2 SWAP1 PUSH3 0x3E3 JUMP JUMPDEST POP DUP1 PUSH1 0x3 PUSH1 0x0 PUSH2 0x100 EXP DUP2 SLOAD DUP2 PUSH1 0xFF MUL NOT AND SWAP1 DUP4 PUSH1 0xFF AND MUL OR SWAP1 SSTORE POP PUSH20 0xDD870FA1B7C4700F2BD7F44238821C26F7392148 PUSH1 0xC PUSH1 0x0 PUSH2 0x100 EXP DUP2 SLOAD DUP2 PUSH20 0xFFFFFFFFFFFFFFFFFFFFFFFFFFFFFFFFFFFFFFFF MUL NOT AND SWAP1 DUP4 PUSH20 0xFFFFFFFFFFFFFFFFFFFFFFFFFFFFFFFFFFFFFFFF AND MUL OR SWAP1 SSTORE POP PUSH1 0x14 PUSH1 0xA DUP2 SWAP1 SSTORE POP PUSH1 0x5 PUSH1 0xB DUP2 SWAP1 SSTORE POP PUSH1 0x1 PUSH1 0x0 SWAP1 SLOAD SWAP1 PUSH2 0x100 EXP SWAP1 DIV PUSH20 0xFFFFFFFFFFFFFFFFFFFFFFFFFFFFFFFFFFFFFFFF AND PUSH20 0xFFFFFFFFFFFFFFFFFFFFFFFFFFFFFFFFFFFFFFFF AND PUSH32 0x89E2B4055C1D8CAF36018E020D7898AEB3B3D3611C9A02083F0FD59779F6E311 PUSH1 0x2 PUSH1 0x3 PUSH1 0x0 SWAP1 SLOAD SWAP1 PUSH2 0x100 EXP SWAP1 DIV PUSH1 0xFF AND PUSH1 0x40 MLOAD PUSH3 0x280 SWAP3 SWAP2 SWAP1 PUSH3 0x6F7 JUMP JUMPDEST PUSH1 0x40 MLOAD DUP1 SWAP2 SUB SWAP1 LOG2 POP POP PUSH3 0xBF8 JUMP JUMPDEST PUSH1 0x0 DUP1 PUSH1 0x0 SWAP1 POP PUSH1 0x0 JUMPDEST PUSH1 0x2 DUP1 SLOAD SWAP1 POP DUP2 LT ISZERO PUSH3 0x3DA JUMPI PUSH1 0x1 PUSH1 0x2 DUP1 SLOAD SWAP1 POP PUSH3 0x2BC SWAP2 SWAP1 PUSH3 0x895 JUMP JUMPDEST DUP2 EQ ISZERO PUSH3 0x2CA JUMPI PUSH3 0x3DA JUMP JUMPDEST PUSH1 0x0 PUSH1 0x1 DUP3 PUSH3 0x2DB SWAP2 SWAP1 PUSH3 0x838 JUMP JUMPDEST SWAP1 POP JUMPDEST PUSH1 0x2 DUP1 SLOAD SWAP1 POP DUP2 LT ISZERO PUSH3 0x3C3 JUMPI PUSH1 0x2 DUP2 DUP2 SLOAD DUP2 LT PUSH3 0x303 JUMPI PUSH3 0x302 PUSH3 0xA0C JUMP JUMPDEST JUMPDEST SWAP1 PUSH1 0x0 MSTORE PUSH1 0x20 PUSH1 0x0 KECCAK256 ADD PUSH1 0x0 SWAP1 SLOAD SWAP1 PUSH2 0x100 EXP SWAP1 DIV PUSH20 0xFFFFFFFFFFFFFFFFFFFFFFFFFFFFFFFFFFFFFFFF AND PUSH20 0xFFFFFFFFFFFFFFFFFFFFFFFFFFFFFFFFFFFFFFFF AND PUSH1 0x2 DUP4 DUP2 SLOAD DUP2 LT PUSH3 0x35B JUMPI PUSH3 0x35A PUSH3 0xA0C JUMP JUMPDEST JUMPDEST SWAP1 PUSH1 0x0 MSTORE PUSH1 0x20 PUSH1 0x0 KECCAK256 ADD PUSH1 0x0 SWAP1 SLOAD SWAP1 PUSH2 0x100 EXP SWAP1 DIV PUSH20 0xFFFFFFFFFFFFFFFFFFFFFFFFFFFFFFFFFFFFFFFF AND PUSH20 0xFFFFFFFFFFFFFFFFFFFFFFFFFFFFFFFFFFFFFFFF AND EQ ISZERO PUSH3 0x3AD JUMPI PUSH1 0x1 SWAP3 POP PUSH3 0x3C3 JUMP JUMPDEST DUP1 DUP1 PUSH3 0x3BA SWAP1 PUSH3 0x98F JUMP JUMPDEST SWAP2 POP POP PUSH3 0x2DE JUMP JUMPDEST POP DUP1 DUP1 PUSH3 0x3D1 SWAP1 PUSH3 0x98F JUMP JUMPDEST SWAP2 POP POP PUSH3 0x29A JUMP JUMPDEST POP DUP1 ISZERO SWAP2 POP POP SWAP1 JUMP JUMPDEST DUP3 DUP1 SLOAD DUP3 DUP3 SSTORE SWAP1 PUSH1 0x0 MSTORE PUSH1 0x20 PUSH1 0x0 KECCAK256 SWAP1 DUP2 ADD SWAP3 DUP3 ISZERO PUSH3 0x45F JUMPI SWAP2 PUSH1 0x20 MUL DUP3 ADD JUMPDEST DUP3 DUP2 GT ISZERO PUSH3 0x45E JUMPI DUP3 MLOAD DUP3 PUSH1 0x0 PUSH2 0x100 EXP DUP2 SLOAD DUP2 PUSH20 0xFFFFFFFFFFFFFFFFFFFFFFFFFFFFFFFFFFFFFFFF MUL NOT AND SWAP1 DUP4 PUSH20 0xFFFFFFFFFFFFFFFFFFFFFFFFFFFFFFFFFFFFFFFF AND MUL OR SWAP1 SSTORE POP SWAP2 PUSH1 0x20 ADD SWAP2 SWAP1 PUSH1 0x1 ADD SWAP1 PUSH3 0x404 JUMP JUMPDEST JUMPDEST POP SWAP1 POP PUSH3 0x46E SWAP2 SWAP1 PUSH3 0x472 JUMP JUMPDEST POP SWAP1 JUMP JUMPDEST JUMPDEST DUP1 DUP3 GT ISZERO PUSH3 0x48D JUMPI PUSH1 0x0 DUP2 PUSH1 0x0 SWAP1 SSTORE POP PUSH1 0x1 ADD PUSH3 0x473 JUMP JUMPDEST POP SWAP1 JUMP JUMPDEST PUSH1 0x0 PUSH3 0x4A8 PUSH3 0x4A2 DUP5 PUSH3 0x7BA JUMP JUMPDEST PUSH3 0x791 JUMP JUMPDEST SWAP1 POP DUP1 DUP4 DUP3 MSTORE PUSH1 0x20 DUP3 ADD SWAP1 POP DUP3 DUP6 PUSH1 0x20 DUP7 MUL DUP3 ADD GT ISZERO PUSH3 0x4CE JUMPI PUSH3 0x4CD PUSH3 0xA84 JUMP JUMPDEST JUMPDEST PUSH1 0x0 JUMPDEST DUP6 DUP2 LT ISZERO PUSH3 0x502 JUMPI DUP2 PUSH3 0x4E7 DUP9 DUP3 PUSH3 0x50C JUMP JUMPDEST DUP5 MSTORE PUSH1 0x20 DUP5 ADD SWAP4 POP PUSH1 0x20 DUP4 ADD SWAP3 POP POP PUSH1 0x1 DUP2 ADD SWAP1 POP PUSH3 0x4D1 JUMP JUMPDEST POP POP POP SWAP4 SWAP3 POP POP POP JUMP JUMPDEST PUSH1 0x0 DUP2 MLOAD SWAP1 POP PUSH3 0x51D DUP2 PUSH3 0xBC4 JUMP JUMPDEST SWAP3 SWAP2 POP POP JUMP JUMPDEST PUSH1 0x0 DUP3 PUSH1 0x1F DUP4 ADD SLT PUSH3 0x53B JUMPI PUSH3 0x53A PUSH3 0xA7F JUMP JUMPDEST JUMPDEST DUP2 MLOAD PUSH3 0x54D DUP5 DUP3 PUSH1 0x20 DUP7 ADD PUSH3 0x491 JUMP JUMPDEST SWAP2 POP POP SWAP3 SWAP2 POP POP JUMP JUMPDEST PUSH1 0x0 DUP2 MLOAD SWAP1 POP PUSH3 0x567 DUP2 PUSH3 0xBDE JUMP JUMPDEST SWAP3 SWAP2 POP POP JUMP JUMPDEST PUSH1 0x0 DUP1 PUSH1 0x40 DUP4 DUP6 SUB SLT ISZERO PUSH3 0x587 JUMPI PUSH3 0x586 PUSH3 0xA8E JUMP JUMPDEST JUMPDEST PUSH1 0x0 DUP4 ADD MLOAD PUSH8 0xFFFFFFFFFFFFFFFF DUP2 GT ISZERO PUSH3 0x5A8 JUMPI PUSH3 0x5A7 PUSH3 0xA89 JUMP JUMPDEST JUMPDEST PUSH3 0x5B6 DUP6 DUP3 DUP7 ADD PUSH3 0x523 JUMP JUMPDEST SWAP3 POP POP PUSH1 0x20 PUSH3 0x5C9 DUP6 DUP3 DUP7 ADD PUSH3 0x556 JUMP JUMPDEST SWAP2 POP POP SWAP3 POP SWAP3 SWAP1 POP JUMP JUMPDEST PUSH1 0x0 PUSH3 0x5E1 DUP4 DUP4 PUSH3 0x5ED JUMP JUMPDEST PUSH1 0x20 DUP4 ADD SWAP1 POP SWAP3 SWAP2 POP POP JUMP JUMPDEST PUSH3 0x5F8 DUP2 PUSH3 0x8F0 JUMP JUMPDEST DUP3 MSTORE POP POP JUMP JUMPDEST PUSH1 0x0 PUSH3 0x60B DUP3 PUSH3 0x7FE JUMP JUMPDEST PUSH3 0x617 DUP2 DUP6 PUSH3 0x816 JUMP JUMPDEST SWAP4 POP PUSH3 0x624 DUP4 PUSH3 0x7E9 JUMP JUMPDEST DUP1 PUSH1 0x0 JUMPDEST DUP4 DUP2 LT ISZERO PUSH3 0x664 JUMPI PUSH3 0x63C DUP3 PUSH3 0xA6A JUMP JUMPDEST PUSH3 0x648 DUP9 DUP3 PUSH3 0x5D3 JUMP JUMPDEST SWAP8 POP PUSH3 0x655 DUP4 PUSH3 0x809 JUMP JUMPDEST SWAP3 POP POP PUSH1 0x1 DUP2 ADD SWAP1 POP PUSH3 0x628 JUMP JUMPDEST POP DUP6 SWAP4 POP POP POP POP SWAP3 SWAP2 POP POP JUMP JUMPDEST PUSH1 0x0 PUSH3 0x680 PUSH1 0x24 DUP4 PUSH3 0x827 JUMP JUMPDEST SWAP2 POP PUSH3 0x68D DUP3 PUSH3 0xAB1 JUMP JUMPDEST PUSH1 0x40 DUP3 ADD SWAP1 POP SWAP2 SWAP1 POP JUMP JUMPDEST PUSH1 0x0 PUSH3 0x6A7 PUSH1 0x27 DUP4 PUSH3 0x827 JUMP JUMPDEST SWAP2 POP PUSH3 0x6B4 DUP3 PUSH3 0xB00 JUMP JUMPDEST PUSH1 0x40 DUP3 ADD SWAP1 POP SWAP2 SWAP1 POP JUMP JUMPDEST PUSH1 0x0 PUSH3 0x6CE PUSH1 0x50 DUP4 PUSH3 0x827 JUMP JUMPDEST SWAP2 POP PUSH3 0x6DB DUP3 PUSH3 0xB4F JUMP JUMPDEST PUSH1 0x60 DUP3 ADD SWAP1 POP SWAP2 SWAP1 POP JUMP JUMPDEST PUSH3 0x6F1 DUP2 PUSH3 0x92E JUMP JUMPDEST DUP3 MSTORE POP POP JUMP JUMPDEST PUSH1 0x0 PUSH1 0x40 DUP3 ADD SWAP1 POP DUP2 DUP2 SUB PUSH1 0x0 DUP4 ADD MSTORE PUSH3 0x713 DUP2 DUP6 PUSH3 0x5FE JUMP JUMPDEST SWAP1 POP PUSH3 0x724 PUSH1 0x20 DUP4 ADD DUP5 PUSH3 0x6E6 JUMP JUMPDEST SWAP4 SWAP3 POP POP POP JUMP JUMPDEST PUSH1 0x0 PUSH1 0x20 DUP3 ADD SWAP1 POP DUP2 DUP2 SUB PUSH1 0x0 DUP4 ADD MSTORE PUSH3 0x746 DUP2 PUSH3 0x671 JUMP JUMPDEST SWAP1 POP SWAP2 SWAP1 POP JUMP JUMPDEST PUSH1 0x0 PUSH1 0x20 DUP3 ADD SWAP1 POP DUP2 DUP2 SUB PUSH1 0x0 DUP4 ADD MSTORE PUSH3 0x768 DUP2 PUSH3 0x698 JUMP JUMPDEST SWAP1 POP SWAP2 SWAP1 POP JUMP JUMPDEST PUSH1 0x0 PUSH1 0x20 DUP3 ADD SWAP1 POP DUP2 DUP2 SUB PUSH1 0x0 DUP4 ADD MSTORE PUSH3 0x78A DUP2 PUSH3 0x6BF JUMP JUMPDEST SWAP1 POP SWAP2 SWAP1 POP JUMP JUMPDEST PUSH1 0x0 PUSH3 0x79D PUSH3 0x7B0 JUMP JUMPDEST SWAP1 POP PUSH3 0x7AB DUP3 DUP3 PUSH3 0x959 JUMP JUMPDEST SWAP2 SWAP1 POP JUMP JUMPDEST PUSH1 0x0 PUSH1 0x40 MLOAD SWAP1 POP SWAP1 JUMP JUMPDEST PUSH1 0x0 PUSH8 0xFFFFFFFFFFFFFFFF DUP3 GT ISZERO PUSH3 0x7D8 JUMPI PUSH3 0x7D7 PUSH3 0xA3B JUMP JUMPDEST JUMPDEST PUSH1 0x20 DUP3 MUL SWAP1 POP PUSH1 0x20 DUP2 ADD SWAP1 POP SWAP2 SWAP1 POP JUMP JUMPDEST PUSH1 0x0 DUP2 SWAP1 POP DUP2 PUSH1 0x0 MSTORE PUSH1 0x20 PUSH1 0x0 KECCAK256 SWAP1 POP SWAP2 SWAP1 POP JUMP JUMPDEST PUSH1 0x0 DUP2 SLOAD SWAP1 POP SWAP2 SWAP1 POP JUMP JUMPDEST PUSH1 0x0 PUSH1 0x1 DUP3 ADD SWAP1 POP SWAP2 SWAP1 POP JUMP JUMPDEST PUSH1 0x0 DUP3 DUP3 MSTORE PUSH1 0x20 DUP3 ADD SWAP1 POP SWAP3 SWAP2 POP POP JUMP JUMPDEST PUSH1 0x0 DUP3 DUP3 MSTORE PUSH1 0x20 DUP3 ADD SWAP1 POP SWAP3 SWAP2 POP POP JUMP JUMPDEST PUSH1 0x0 PUSH3 0x845 DUP3 PUSH3 0x924 JUMP JUMPDEST SWAP2 POP PUSH3 0x852 DUP4 PUSH3 0x924 JUMP JUMPDEST SWAP3 POP DUP3 PUSH32 0xFFFFFFFFFFFFFFFFFFFFFFFFFFFFFFFFFFFFFFFFFFFFFFFFFFFFFFFFFFFFFFFF SUB DUP3 GT ISZERO PUSH3 0x88A JUMPI PUSH3 0x889 PUSH3 0x9DD JUMP JUMPDEST JUMPDEST DUP3 DUP3 ADD SWAP1 POP SWAP3 SWAP2 POP POP JUMP JUMPDEST PUSH1 0x0 PUSH3 0x8A2 DUP3 PUSH3 0x924 JUMP JUMPDEST SWAP2 POP PUSH3 0x8AF DUP4 PUSH3 0x924 JUMP JUMPDEST SWAP3 POP DUP3 DUP3 LT ISZERO PUSH3 0x8C5 JUMPI PUSH3 0x8C4 PUSH3 0x9DD JUMP JUMPDEST JUMPDEST DUP3 DUP3 SUB SWAP1 POP SWAP3 SWAP2 POP POP JUMP JUMPDEST PUSH1 0x0 PUSH20 0xFFFFFFFFFFFFFFFFFFFFFFFFFFFFFFFFFFFFFFFF DUP3 AND SWAP1 POP SWAP2 SWAP1 POP JUMP JUMPDEST PUSH1 0x0 PUSH3 0x8FD DUP3 PUSH3 0x904 JUMP JUMPDEST SWAP1 POP SWAP2 SWAP1 POP JUMP JUMPDEST PUSH1 0x0 PUSH20 0xFFFFFFFFFFFFFFFFFFFFFFFFFFFFFFFFFFFFFFFF DUP3 AND SWAP1 POP SWAP2 SWAP1 POP JUMP JUMPDEST PUSH1 0x0 DUP2 SWAP1 POP SWAP2 SWAP1 POP JUMP JUMPDEST PUSH1 0x0 PUSH1 0xFF DUP3 AND SWAP1 POP SWAP2 SWAP1 POP JUMP JUMPDEST PUSH1 0x0 PUSH3 0x952 PUSH3 0x94C DUP4 PUSH3 0xAA4 JUMP JUMPDEST PUSH3 0x8D0 JUMP JUMPDEST SWAP1 POP SWAP2 SWAP1 POP JUMP JUMPDEST PUSH3 0x964 DUP3 PUSH3 0xA93 JUMP JUMPDEST DUP2 ADD DUP2 DUP2 LT PUSH8 0xFFFFFFFFFFFFFFFF DUP3 GT OR ISZERO PUSH3 0x986 JUMPI PUSH3 0x985 PUSH3 0xA3B JUMP JUMPDEST JUMPDEST DUP1 PUSH1 0x40 MSTORE POP POP POP JUMP JUMPDEST PUSH1 0x0 PUSH3 0x99C DUP3 PUSH3 0x924 JUMP JUMPDEST SWAP2 POP PUSH32 0xFFFFFFFFFFFFFFFFFFFFFFFFFFFFFFFFFFFFFFFFFFFFFFFFFFFFFFFFFFFFFFFF DUP3 EQ ISZERO PUSH3 0x9D2 JUMPI PUSH3 0x9D1 PUSH3 0x9DD JUMP JUMPDEST JUMPDEST PUSH1 0x1 DUP3 ADD SWAP1 POP SWAP2 SWAP1 POP JUMP JUMPDEST PUSH32 0x4E487B7100000000000000000000000000000000000000000000000000000000 PUSH1 0x0 MSTORE PUSH1 0x11 PUSH1 0x4 MSTORE PUSH1 0x24 PUSH1 0x0 REVERT JUMPDEST PUSH32 0x4E487B7100000000000000000000000000000000000000000000000000000000 PUSH1 0x0 MSTORE PUSH1 0x32 PUSH1 0x4 MSTORE PUSH1 0x24 PUSH1 0x0 REVERT JUMPDEST PUSH32 0x4E487B7100000000000000000000000000000000000000000000000000000000 PUSH1 0x0 MSTORE PUSH1 0x41 PUSH1 0x4 MSTORE PUSH1 0x24 PUSH1 0x0 REVERT JUMPDEST PUSH1 0x0 PUSH3 0xA78 DUP3 SLOAD PUSH3 0x93B JUMP JUMPDEST SWAP1 POP SWAP2 SWAP1 POP JUMP JUMPDEST PUSH1 0x0 DUP1 REVERT JUMPDEST PUSH1 0x0 DUP1 REVERT JUMPDEST PUSH1 0x0 DUP1 REVERT JUMPDEST PUSH1 0x0 DUP1 REVERT JUMPDEST PUSH1 0x0 PUSH1 0x1F NOT PUSH1 0x1F DUP4 ADD AND SWAP1 POP SWAP2 SWAP1 POP JUMP JUMPDEST PUSH1 0x0 DUP2 PUSH1 0x0 SHR SWAP1 POP SWAP2 SWAP1 POP JUMP JUMPDEST PUSH32 0x616C6C20636F6C6C61626F7261746F727320636F756E74206174206C65617374 PUSH1 0x0 DUP3 ADD MSTORE PUSH32 0x206F6E6500000000000000000000000000000000000000000000000000000000 PUSH1 0x20 DUP3 ADD MSTORE POP JUMP JUMPDEST PUSH32 0x74686520636F6C6C61626F7261746F7273206D757374206E6F20626520647570 PUSH1 0x0 DUP3 ADD MSTORE PUSH32 0x6C69636174656400000000000000000000000000000000000000000000000000 PUSH1 0x20 DUP3 ADD MSTORE POP JUMP JUMPDEST PUSH32 0x6174206C65617374207369676E20636F756E74206D757374206D6F7265207468 PUSH1 0x0 DUP3 ADD MSTORE PUSH32 0x616E203020616E64206C657373207468616E206F7220657175616C7320636F6C PUSH1 0x20 DUP3 ADD MSTORE PUSH32 0x6C61626F7261746F727320636F756E7400000000000000000000000000000000 PUSH1 0x40 DUP3 ADD MSTORE POP JUMP JUMPDEST PUSH3 0xBCF DUP2 PUSH3 0x8F0 JUMP JUMPDEST DUP2 EQ PUSH3 0xBDB JUMPI PUSH1 0x0 DUP1 REVERT JUMPDEST POP JUMP JUMPDEST PUSH3 0xBE9 DUP2 PUSH3 0x92E JUMP JUMPDEST DUP2 EQ PUSH3 0xBF5 JUMPI PUSH1 0x0 DUP1 REVERT JUMPDEST POP JUMP JUMPDEST PUSH2 0x1AD9 DUP1 PUSH3 0xC08 PUSH1 0x0 CODECOPY PUSH1 0x0 RETURN INVALID PUSH1 0x80 PUSH1 0x40 MSTORE PUSH1 0x4 CALLDATASIZE LT PUSH2 0x89 JUMPI PUSH1 0x0 CALLDATALOAD PUSH1 0xE0 SHR DUP1 PUSH4 0xB517E0B4 GT PUSH2 0x59 JUMPI DUP1 PUSH4 0xB517E0B4 EQ PUSH2 0x172 JUMPI DUP1 PUSH4 0xB69EF8A8 EQ PUSH2 0x189 JUMPI DUP1 PUSH4 0xBC44E739 EQ PUSH2 0x1B4 JUMPI DUP1 PUSH4 0xCA3EA43F EQ PUSH2 0x1DD JUMPI DUP1 PUSH4 0xCFA4A5F6 EQ PUSH2 0x208 JUMPI PUSH2 0xEB JUMP JUMPDEST DUP1 PUSH3 0x3BDF3E EQ PUSH2 0xF0 JUMPI DUP1 PUSH4 0x1535430B EQ PUSH2 0x119 JUMPI DUP1 PUSH4 0x352CE050 EQ PUSH2 0x130 JUMPI DUP1 PUSH4 0x3A0A197B EQ PUSH2 0x147 JUMPI PUSH2 0xEB JUMP JUMPDEST CALLDATASIZE PUSH2 0xEB JUMPI PUSH1 0x0 CALLVALUE GT PUSH2 0xD1 JUMPI PUSH1 0x40 MLOAD PUSH32 0x8C379A000000000000000000000000000000000000000000000000000000000 DUP2 MSTORE PUSH1 0x4 ADD PUSH2 0xC8 SWAP1 PUSH2 0x12AF JUMP JUMPDEST PUSH1 0x40 MLOAD DUP1 SWAP2 SUB SWAP1 REVERT JUMPDEST CALLVALUE PUSH1 0x0 DUP1 DUP3 DUP3 SLOAD PUSH2 0xE2 SWAP2 SWAP1 PUSH2 0x145B JUMP JUMPDEST SWAP3 POP POP DUP2 SWAP1 SSTORE POP STOP JUMPDEST PUSH1 0x0 DUP1 REVERT JUMPDEST CALLVALUE DUP1 ISZERO PUSH2 0xFC JUMPI PUSH1 0x0 DUP1 REVERT JUMPDEST POP PUSH2 0x117 PUSH1 0x4 DUP1 CALLDATASIZE SUB DUP2 ADD SWAP1 PUSH2 0x112 SWAP2 SWAP1 PUSH2 0x10BC JUMP JUMPDEST PUSH2 0x233 JUMP JUMPDEST STOP JUMPDEST CALLVALUE DUP1 ISZERO PUSH2 0x125 JUMPI PUSH1 0x0 DUP1 REVERT JUMPDEST POP PUSH2 0x12E PUSH2 0x47A JUMP JUMPDEST STOP JUMPDEST CALLVALUE DUP1 ISZERO PUSH2 0x13C JUMPI PUSH1 0x0 DUP1 REVERT JUMPDEST POP PUSH2 0x145 PUSH2 0x795 JUMP JUMPDEST STOP JUMPDEST CALLVALUE DUP1 ISZERO PUSH2 0x153 JUMPI PUSH1 0x0 DUP1 REVERT JUMPDEST POP PUSH2 0x15C PUSH2 0x8E4 JUMP JUMPDEST PUSH1 0x40 MLOAD PUSH2 0x169 SWAP2 SWAP1 PUSH2 0x142F JUMP JUMPDEST PUSH1 0x40 MLOAD DUP1 SWAP2 SUB SWAP1 RETURN JUMPDEST CALLVALUE DUP1 ISZERO PUSH2 0x17E JUMPI PUSH1 0x0 DUP1 REVERT JUMPDEST POP PUSH2 0x187 PUSH2 0x8EA JUMP JUMPDEST STOP JUMPDEST CALLVALUE DUP1 ISZERO PUSH2 0x195 JUMPI PUSH1 0x0 DUP1 REVERT JUMPDEST POP PUSH2 0x19E PUSH2 0x9CB JUMP JUMPDEST PUSH1 0x40 MLOAD PUSH2 0x1AB SWAP2 SWAP1 PUSH2 0x142F JUMP JUMPDEST PUSH1 0x40 MLOAD DUP1 SWAP2 SUB SWAP1 RETURN JUMPDEST CALLVALUE DUP1 ISZERO PUSH2 0x1C0 JUMPI PUSH1 0x0 DUP1 REVERT JUMPDEST POP PUSH2 0x1DB PUSH1 0x4 DUP1 CALLDATASIZE SUB DUP2 ADD SWAP1 PUSH2 0x1D6 SWAP2 SWAP1 PUSH2 0x108F JUMP JUMPDEST PUSH2 0x9D1 JUMP JUMPDEST STOP JUMPDEST CALLVALUE DUP1 ISZERO PUSH2 0x1E9 JUMPI PUSH1 0x0 DUP1 REVERT JUMPDEST POP PUSH2 0x1F2 PUSH2 0xAA5 JUMP JUMPDEST PUSH1 0x40 MLOAD PUSH2 0x1FF SWAP2 SWAP1 PUSH2 0x142F JUMP JUMPDEST PUSH1 0x40 MLOAD DUP1 SWAP2 SUB SWAP1 RETURN JUMPDEST CALLVALUE DUP1 ISZERO PUSH2 0x214 JUMPI PUSH1 0x0 DUP1 REVERT JUMPDEST POP PUSH2 0x21D PUSH2 0xAAB JUMP JUMPDEST PUSH1 0x40 MLOAD PUSH2 0x22A SWAP2 SWAP1 PUSH2 0x142F JUMP JUMPDEST PUSH1 0x40 MLOAD DUP1 SWAP2 SUB SWAP1 RETURN JUMPDEST PUSH2 0x23B PUSH2 0xAB1 JUMP JUMPDEST PUSH2 0x27A JUMPI PUSH1 0x40 MLOAD PUSH32 0x8C379A000000000000000000000000000000000000000000000000000000000 DUP2 MSTORE PUSH1 0x4 ADD PUSH2 0x271 SWAP1 PUSH2 0x13CF JUMP JUMPDEST PUSH1 0x40 MLOAD DUP1 SWAP2 SUB SWAP1 REVERT JUMPDEST PUSH1 0x0 PUSH1 0x4 SLOAD EQ PUSH2 0x2BF JUMPI PUSH1 0x40 MLOAD PUSH32 0x8C379A000000000000000000000000000000000000000000000000000000000 DUP2 MSTORE PUSH1 0x4 ADD PUSH2 0x2B6 SWAP1 PUSH2 0x13AF JUMP JUMPDEST PUSH1 0x40 MLOAD DUP1 SWAP2 SUB SWAP1 REVERT JUMPDEST PUSH1 0x0 SLOAD DUP3 GT ISZERO PUSH2 0x304 JUMPI PUSH1 0x40 MLOAD PUSH32 0x8C379A000000000000000000000000000000000000000000000000000000000 DUP2 MSTORE PUSH1 0x4 ADD PUSH2 0x2FB SWAP1 PUSH2 0x140F JUMP JUMPDEST PUSH1 0x40 MLOAD DUP1 SWAP2 SUB SWAP1 REVERT JUMPDEST PUSH1 0x0 PUSH20 0xFFFFFFFFFFFFFFFFFFFFFFFFFFFFFFFFFFFFFFFF AND DUP2 PUSH20 0xFFFFFFFFFFFFFFFFFFFFFFFFFFFFFFFFFFFFFFFF AND EQ ISZERO PUSH2 0x374 JUMPI PUSH1 0x40 MLOAD PUSH32 0x8C379A000000000000000000000000000000000000000000000000000000000 DUP2 MSTORE PUSH1 0x4 ADD PUSH2 0x36B SWAP1 PUSH2 0x132F JUMP JUMPDEST PUSH1 0x40 MLOAD DUP1 SWAP2 SUB SWAP1 REVERT JUMPDEST CALLER PUSH1 0x6 PUSH1 0x0 PUSH2 0x100 EXP DUP2 SLOAD DUP2 PUSH20 0xFFFFFFFFFFFFFFFFFFFFFFFFFFFFFFFFFFFFFFFF MUL NOT AND SWAP1 DUP4 PUSH20 0xFFFFFFFFFFFFFFFFFFFFFFFFFFFFFFFFFFFFFFFF AND MUL OR SWAP1 SSTORE POP DUP2 PUSH1 0x4 DUP2 SWAP1 SSTORE POP DUP1 PUSH1 0x5 PUSH1 0x0 PUSH2 0x100 EXP DUP2 SLOAD DUP2 PUSH20 0xFFFFFFFFFFFFFFFFFFFFFFFFFFFFFFFFFFFFFFFF MUL NOT AND SWAP1 DUP4 PUSH20 0xFFFFFFFFFFFFFFFFFFFFFFFFFFFFFFFFFFFFFFFF AND MUL OR SWAP1 SSTORE POP PUSH1 0x7 CALLER SWAP1 DUP1 PUSH1 0x1 DUP2 SLOAD ADD DUP1 DUP3 SSTORE DUP1 SWAP2 POP POP PUSH1 0x1 SWAP1 SUB SWAP1 PUSH1 0x0 MSTORE PUSH1 0x20 PUSH1 0x0 KECCAK256 ADD PUSH1 0x0 SWAP1 SWAP2 SWAP1 SWAP2 SWAP1 SWAP2 PUSH2 0x100 EXP DUP2 SLOAD DUP2 PUSH20 0xFFFFFFFFFFFFFFFFFFFFFFFFFFFFFFFFFFFFFFFF MUL NOT AND SWAP1 DUP4 PUSH20 0xFFFFFFFFFFFFFFFFFFFFFFFFFFFFFFFFFFFFFFFF AND MUL OR SWAP1 SSTORE POP PUSH2 0x468 PUSH2 0xB48 JUMP JUMPDEST ISZERO PUSH2 0x476 JUMPI PUSH2 0x475 PUSH2 0xCD4 JUMP JUMPDEST JUMPDEST POP POP JUMP JUMPDEST PUSH2 0x482 PUSH2 0xAB1 JUMP JUMPDEST PUSH2 0x4C1 JUMPI PUSH1 0x40 MLOAD PUSH32 0x8C379A000000000000000000000000000000000000000000000000000000000 DUP2 MSTORE PUSH1 0x4 ADD PUSH2 0x4B8 SWAP1 PUSH2 0x13CF JUMP JUMPDEST PUSH1 0x40 MLOAD DUP1 SWAP2 SUB SWAP1 REVERT JUMPDEST PUSH1 0x6 PUSH1 0x0 SWAP1 SLOAD SWAP1 PUSH2 0x100 EXP SWAP1 DIV PUSH20 0xFFFFFFFFFFFFFFFFFFFFFFFFFFFFFFFFFFFFFFFF AND PUSH20 0xFFFFFFFFFFFFFFFFFFFFFFFFFFFFFFFFFFFFFFFF AND CALLER PUSH20 0xFFFFFFFFFFFFFFFFFFFFFFFFFFFFFFFFFFFFFFFF AND EQ ISZERO PUSH2 0x552 JUMPI PUSH1 0x40 MLOAD PUSH32 0x8C379A000000000000000000000000000000000000000000000000000000000 DUP2 MSTORE PUSH1 0x4 ADD PUSH2 0x549 SWAP1 PUSH2 0x12EF JUMP JUMPDEST PUSH1 0x40 MLOAD DUP1 SWAP2 SUB SWAP1 REVERT JUMPDEST PUSH2 0x5E2 PUSH1 0x8 DUP1 SLOAD DUP1 PUSH1 0x20 MUL PUSH1 0x20 ADD PUSH1 0x40 MLOAD SWAP1 DUP2 ADD PUSH1 0x40 MSTORE DUP1 SWAP3 SWAP2 SWAP1 DUP2 DUP2 MSTORE PUSH1 0x20 ADD DUP3 DUP1 SLOAD DUP1 ISZERO PUSH2 0x5D7 JUMPI PUSH1 0x20 MUL DUP3 ADD SWAP2 SWAP1 PUSH1 0x0 MSTORE PUSH1 0x20 PUSH1 0x0 KECCAK256 SWAP1 JUMPDEST DUP2 PUSH1 0x0 SWAP1 SLOAD SWAP1 PUSH2 0x100 EXP SWAP1 DIV PUSH20 0xFFFFFFFFFFFFFFFFFFFFFFFFFFFFFFFFFFFFFFFF AND PUSH20 0xFFFFFFFFFFFFFFFFFFFFFFFFFFFFFFFFFFFFFFFF AND DUP2 MSTORE PUSH1 0x20 ADD SWAP1 PUSH1 0x1 ADD SWAP1 DUP1 DUP4 GT PUSH2 0x58D JUMPI JUMPDEST POP POP POP POP POP CALLER PUSH2 0xDF7 JUMP JUMPDEST ISZERO PUSH2 0x622 JUMPI PUSH1 0x40 MLOAD PUSH32 0x8C379A000000000000000000000000000000000000000000000000000000000 DUP2 MSTORE PUSH1 0x4 ADD PUSH2 0x619 SWAP1 PUSH2 0x130F JUMP JUMPDEST PUSH1 0x40 MLOAD DUP1 SWAP2 SUB SWAP1 REVERT JUMPDEST PUSH1 0x0 PUSH1 0x4 SLOAD GT PUSH2 0x667 JUMPI PUSH1 0x40 MLOAD PUSH32 0x8C379A000000000000000000000000000000000000000000000000000000000 DUP2 MSTORE PUSH1 0x4 ADD PUSH2 0x65E SWAP1 PUSH2 0x12CF JUMP JUMPDEST PUSH1 0x40 MLOAD DUP1 SWAP2 SUB SWAP1 REVERT JUMPDEST PUSH1 0x8 CALLER SWAP1 DUP1 PUSH1 0x1 DUP2 SLOAD ADD DUP1 DUP3 SSTORE DUP1 SWAP2 POP POP PUSH1 0x1 SWAP1 SUB SWAP1 PUSH1 0x0 MSTORE PUSH1 0x20 PUSH1 0x0 KECCAK256 ADD PUSH1 0x0 SWAP1 SWAP2 SWAP1 SWAP2 SWAP1 SWAP2 PUSH2 0x100 EXP DUP2 SLOAD DUP2 PUSH20 0xFFFFFFFFFFFFFFFFFFFFFFFFFFFFFFFFFFFFFFFF MUL NOT AND SWAP1 DUP4 PUSH20 0xFFFFFFFFFFFFFFFFFFFFFFFFFFFFFFFFFFFFFFFF AND MUL OR SWAP1 SSTORE POP PUSH1 0x0 DUP1 JUMPDEST PUSH1 0x8 DUP1 SLOAD SWAP1 POP DUP2 LT ISZERO PUSH2 0x76F JUMPI PUSH1 0x0 PUSH20 0xFFFFFFFFFFFFFFFFFFFFFFFFFFFFFFFFFFFFFFFF AND PUSH1 0x8 DUP3 DUP2 SLOAD DUP2 LT PUSH2 0x707 JUMPI PUSH2 0x706 PUSH2 0x169C JUMP JUMPDEST JUMPDEST SWAP1 PUSH1 0x0 MSTORE PUSH1 0x20 PUSH1 0x0 KECCAK256 ADD PUSH1 0x0 SWAP1 SLOAD SWAP1 PUSH2 0x100 EXP SWAP1 DIV PUSH20 0xFFFFFFFFFFFFFFFFFFFFFFFFFFFFFFFFFFFFFFFF AND PUSH20 0xFFFFFFFFFFFFFFFFFFFFFFFFFFFFFFFFFFFFFFFF AND EQ PUSH2 0x75C JUMPI DUP2 DUP1 PUSH2 0x758 SWAP1 PUSH2 0x15CB JUMP JUMPDEST SWAP3 POP POP JUMPDEST DUP1 DUP1 PUSH2 0x767 SWAP1 PUSH2 0x15CB JUMP JUMPDEST SWAP2 POP POP PUSH2 0x6CE JUMP JUMPDEST POP PUSH1 0x1 PUSH1 0x2 DUP1 SLOAD SWAP1 POP PUSH2 0x782 SWAP2 SWAP1 PUSH2 0x153C JUMP JUMPDEST DUP2 EQ ISZERO PUSH2 0x792 JUMPI PUSH2 0x791 PUSH2 0xE7F JUMP JUMPDEST JUMPDEST POP JUMP JUMPDEST PUSH2 0x79D PUSH2 0xAB1 JUMP JUMPDEST PUSH2 0x7DC JUMPI PUSH1 0x40 MLOAD PUSH32 0x8C379A000000000000000000000000000000000000000000000000000000000 DUP2 MSTORE PUSH1 0x4 ADD PUSH2 0x7D3 SWAP1 PUSH2 0x13CF JUMP JUMPDEST PUSH1 0x40 MLOAD DUP1 SWAP2 SUB SWAP1 REVERT JUMPDEST PUSH1 0x0 PUSH1 0x4 SLOAD GT PUSH2 0x821 JUMPI PUSH1 0x40 MLOAD PUSH32 0x8C379A000000000000000000000000000000000000000000000000000000000 DUP2 MSTORE PUSH1 0x4 ADD PUSH2 0x818 SWAP1 PUSH2 0x136F JUMP JUMPDEST PUSH1 0x40 MLOAD DUP1 SWAP2 SUB SWAP1 REVERT JUMPDEST PUSH2 0x829 PUSH2 0xEEF JUMP JUMPDEST ISZERO PUSH2 0x869 JUMPI PUSH1 0x40 MLOAD PUSH32 0x8C379A000000000000000000000000000000000000000000000000000000000 DUP2 MSTORE PUSH1 0x4 ADD PUSH2 0x860 SWAP1 PUSH2 0x138F JUMP JUMPDEST PUSH1 0x40 MLOAD DUP1 SWAP2 SUB SWAP1 REVERT JUMPDEST PUSH1 0x7 CALLER SWAP1 DUP1 PUSH1 0x1 DUP2 SLOAD ADD DUP1 DUP3 SSTORE DUP1 SWAP2 POP POP PUSH1 0x1 SWAP1 SUB SWAP1 PUSH1 0x0 MSTORE PUSH1 0x20 PUSH1 0x0 KECCAK256 ADD PUSH1 0x0 SWAP1 SWAP2 SWAP1 SWAP2 SWAP1 SWAP2 PUSH2 0x100 EXP DUP2 SLOAD DUP2 PUSH20 0xFFFFFFFFFFFFFFFFFFFFFFFFFFFFFFFFFFFFFFFF MUL NOT AND SWAP1 DUP4 PUSH20 0xFFFFFFFFFFFFFFFFFFFFFFFFFFFFFFFFFFFFFFFF AND MUL OR SWAP1 SSTORE POP PUSH2 0x8D4 PUSH2 0xB48 JUMP JUMPDEST ISZERO PUSH2 0x8E2 JUMPI PUSH2 0x8E1 PUSH2 0xCD4 JUMP JUMPDEST JUMPDEST JUMP JUMPDEST PUSH1 0xA SLOAD DUP2 JUMP JUMPDEST PUSH2 0x8F2 PUSH2 0xAB1 JUMP JUMPDEST PUSH2 0x931 JUMPI PUSH1 0x40 MLOAD PUSH32 0x8C379A000000000000000000000000000000000000000000000000000000000 DUP2 MSTORE PUSH1 0x4 ADD PUSH2 0x928 SWAP1 PUSH2 0x13CF JUMP JUMPDEST PUSH1 0x40 MLOAD DUP1 SWAP2 SUB SWAP1 REVERT JUMPDEST PUSH1 0x6 PUSH1 0x0 SWAP1 SLOAD SWAP1 PUSH2 0x100 EXP SWAP1 DIV PUSH20 0xFFFFFFFFFFFFFFFFFFFFFFFFFFFFFFFFFFFFFFFF AND PUSH20 0xFFFFFFFFFFFFFFFFFFFFFFFFFFFFFFFFFFFFFFFF AND CALLER PUSH20 0xFFFFFFFFFFFFFFFFFFFFFFFFFFFFFFFFFFFFFFFF AND EQ PUSH2 0x9C1 JUMPI PUSH1 0x40 MLOAD PUSH32 0x8C379A000000000000000000000000000000000000000000000000000000000 DUP2 MSTORE PUSH1 0x4 ADD PUSH2 0x9B8 SWAP1 PUSH2 0x13EF JUMP JUMPDEST PUSH1 0x40 MLOAD DUP1 SWAP2 SUB SWAP1 REVERT JUMPDEST PUSH2 0x9C9 PUSH2 0xE7F JUMP JUMPDEST JUMP JUMPDEST PUSH1 0x0 SLOAD DUP2 JUMP JUMPDEST PUSH1 0xC PUSH1 0x0 SWAP1 SLOAD SWAP1 PUSH2 0x100 EXP SWAP1 DIV PUSH20 0xFFFFFFFFFFFFFFFFFFFFFFFFFFFFFFFFFFFFFFFF AND PUSH20 0xFFFFFFFFFFFFFFFFFFFFFFFFFFFFFFFFFFFFFFFF AND CALLER PUSH20 0xFFFFFFFFFFFFFFFFFFFFFFFFFFFFFFFFFFFFFFFF AND EQ PUSH2 0xA61 JUMPI PUSH1 0x40 MLOAD PUSH32 0x8C379A000000000000000000000000000000000000000000000000000000000 DUP2 MSTORE PUSH1 0x4 ADD PUSH2 0xA58 SWAP1 PUSH2 0x134F JUMP JUMPDEST PUSH1 0x40 MLOAD DUP1 SWAP2 SUB SWAP1 REVERT JUMPDEST DUP1 PUSH1 0xC PUSH1 0x0 PUSH2 0x100 EXP DUP2 SLOAD DUP2 PUSH20 0xFFFFFFFFFFFFFFFFFFFFFFFFFFFFFFFFFFFFFFFF MUL NOT AND SWAP1 DUP4 PUSH20 0xFFFFFFFFFFFFFFFFFFFFFFFFFFFFFFFFFFFFFFFF AND MUL OR SWAP1 SSTORE POP POP JUMP JUMPDEST PUSH1 0x9 SLOAD DUP2 JUMP JUMPDEST PUSH1 0xB SLOAD DUP2 JUMP JUMPDEST PUSH1 0x0 PUSH2 0xB43 PUSH1 0x2 DUP1 SLOAD DUP1 PUSH1 0x20 MUL PUSH1 0x20 ADD PUSH1 0x40 MLOAD SWAP1 DUP2 ADD PUSH1 0x40 MSTORE DUP1 SWAP3 SWAP2 SWAP1 DUP2 DUP2 MSTORE PUSH1 0x20 ADD DUP3 DUP1 SLOAD DUP1 ISZERO PUSH2 0xB38 JUMPI PUSH1 0x20 MUL DUP3 ADD SWAP2 SWAP1 PUSH1 0x0 MSTORE PUSH1 0x20 PUSH1 0x0 KECCAK256 SWAP1 JUMPDEST DUP2 PUSH1 0x0 SWAP1 SLOAD SWAP1 PUSH2 0x100 EXP SWAP1 DIV PUSH20 0xFFFFFFFFFFFFFFFFFFFFFFFFFFFFFFFFFFFFFFFF AND PUSH20 0xFFFFFFFFFFFFFFFFFFFFFFFFFFFFFFFFFFFFFFFF AND DUP2 MSTORE PUSH1 0x20 ADD SWAP1 PUSH1 0x1 ADD SWAP1 DUP1 DUP4 GT PUSH2 0xAEE JUMPI JUMPDEST POP POP POP POP POP CALLER PUSH2 0xDF7 JUMP JUMPDEST SWAP1 POP SWAP1 JUMP JUMPDEST PUSH1 0x0 DUP1 PUSH1 0x7 DUP1 SLOAD DUP1 PUSH1 0x20 MUL PUSH1 0x20 ADD PUSH1 0x40 MLOAD SWAP1 DUP2 ADD PUSH1 0x40 MSTORE DUP1 SWAP3 SWAP2 SWAP1 DUP2 DUP2 MSTORE PUSH1 0x20 ADD DUP3 DUP1 SLOAD DUP1 ISZERO PUSH2 0xBCD JUMPI PUSH1 0x20 MUL DUP3 ADD SWAP2 SWAP1 PUSH1 0x0 MSTORE PUSH1 0x20 PUSH1 0x0 KECCAK256 SWAP1 JUMPDEST DUP2 PUSH1 0x0 SWAP1 SLOAD SWAP1 PUSH2 0x100 EXP SWAP1 DIV PUSH20 0xFFFFFFFFFFFFFFFFFFFFFFFFFFFFFFFFFFFFFFFF AND PUSH20 0xFFFFFFFFFFFFFFFFFFFFFFFFFFFFFFFFFFFFFFFF AND DUP2 MSTORE PUSH1 0x20 ADD SWAP1 PUSH1 0x1 ADD SWAP1 DUP1 DUP4 GT PUSH2 0xB83 JUMPI JUMPDEST POP POP POP POP POP SWAP1 POP PUSH1 0x0 DUP1 JUMPDEST DUP3 MLOAD DUP2 LT ISZERO PUSH2 0xCB3 JUMPI PUSH1 0x0 JUMPDEST PUSH1 0x2 DUP1 SLOAD SWAP1 POP DUP2 LT ISZERO PUSH2 0xC9F JUMPI DUP4 DUP3 DUP2 MLOAD DUP2 LT PUSH2 0xC04 JUMPI PUSH2 0xC03 PUSH2 0x169C JUMP JUMPDEST JUMPDEST PUSH1 0x20 MUL PUSH1 0x20 ADD ADD MLOAD PUSH20 0xFFFFFFFFFFFFFFFFFFFFFFFFFFFFFFFFFFFFFFFF AND PUSH1 0x2 DUP3 DUP2 SLOAD DUP2 LT PUSH2 0xC36 JUMPI PUSH2 0xC35 PUSH2 0x169C JUMP JUMPDEST JUMPDEST SWAP1 PUSH1 0x0 MSTORE PUSH1 0x20 PUSH1 0x0 KECCAK256 ADD PUSH1 0x0 SWAP1 SLOAD SWAP1 PUSH2 0x100 EXP SWAP1 DIV PUSH20 0xFFFFFFFFFFFFFFFFFFFFFFFFFFFFFFFFFFFFFFFF AND PUSH20 0xFFFFFFFFFFFFFFFFFFFFFFFFFFFFFFFFFFFFFFFF AND EQ ISZERO PUSH2 0xC8C JUMPI DUP3 DUP1 PUSH2 0xC88 SWAP1 PUSH2 0x1614 JUMP JUMPDEST SWAP4 POP POP JUMPDEST DUP1 DUP1 PUSH2 0xC97 SWAP1 PUSH2 0x15CB JUMP JUMPDEST SWAP2 POP POP PUSH2 0xBE4 JUMP JUMPDEST POP DUP1 DUP1 PUSH2 0xCAB SWAP1 PUSH2 0x15CB JUMP JUMPDEST SWAP2 POP POP PUSH2 0xBD8 JUMP JUMPDEST POP PUSH1 0x3 PUSH1 0x0 SWAP1 SLOAD SWAP1 PUSH2 0x100 EXP SWAP1 DIV PUSH1 0xFF AND PUSH1 0xFF AND DUP2 PUSH1 0xFF AND LT ISZERO SWAP3 POP POP POP SWAP1 JUMP JUMPDEST PUSH1 0x0 PUSH1 0x4 SLOAD SWAP1 POP PUSH1 0x0 PUSH1 0x4 DUP2 SWAP1 SSTORE POP PUSH1 0x5 PUSH1 0x0 SWAP1 SLOAD SWAP1 PUSH2 0x100 EXP SWAP1 DIV PUSH20 0xFFFFFFFFFFFFFFFFFFFFFFFFFFFFFFFFFFFFFFFF AND PUSH20 0xFFFFFFFFFFFFFFFFFFFFFFFFFFFFFFFFFFFFFFFF AND PUSH2 0x8FC DUP3 SWAP1 DUP2 ISZERO MUL SWAP1 PUSH1 0x40 MLOAD PUSH1 0x0 PUSH1 0x40 MLOAD DUP1 DUP4 SUB DUP2 DUP6 DUP9 DUP9 CALL SWAP4 POP POP POP POP ISZERO DUP1 ISZERO PUSH2 0xD4B JUMPI RETURNDATASIZE PUSH1 0x0 DUP1 RETURNDATACOPY RETURNDATASIZE PUSH1 0x0 REVERT JUMPDEST POP DUP1 PUSH1 0x0 SLOAD PUSH2 0xD5A SWAP2 SWAP1 PUSH2 0x153C JUMP JUMPDEST PUSH1 0x0 DUP2 SWAP1 SSTORE POP PUSH1 0x9 PUSH1 0x0 DUP2 SLOAD DUP1 SWAP3 SWAP2 SWAP1 PUSH2 0xD73 SWAP1 PUSH2 0x15CB JUMP JUMPDEST SWAP2 SWAP1 POP SSTORE POP PUSH1 0x5 PUSH1 0x0 PUSH2 0x100 EXP DUP2 SLOAD SWAP1 PUSH20 0xFFFFFFFFFFFFFFFFFFFFFFFFFFFFFFFFFFFFFFFF MUL NOT AND SWAP1 SSTORE PUSH1 0x7 PUSH1 0x0 PUSH2 0xDAB SWAP2 SWAP1 PUSH2 0x1012 JUMP JUMPDEST PUSH1 0x6 PUSH1 0x0 PUSH2 0x100 EXP DUP2 SLOAD SWAP1 PUSH20 0xFFFFFFFFFFFFFFFFFFFFFFFFFFFFFFFFFFFFFFFF MUL NOT AND SWAP1 SSTORE PUSH1 0x8 PUSH1 0x0 PUSH2 0xDDE SWAP2 SWAP1 PUSH2 0x1012 JUMP JUMPDEST PUSH1 0xB SLOAD PUSH1 0x9 SLOAD GT ISZERO PUSH2 0xDF4 JUMPI PUSH2 0xDF3 DUP2 PUSH2 0xF86 JUMP JUMPDEST JUMPDEST POP JUMP JUMPDEST PUSH1 0x0 DUP1 PUSH1 0x0 SWAP1 POP PUSH1 0x0 JUMPDEST DUP5 MLOAD DUP2 LT ISZERO PUSH2 0xE74 JUMPI DUP4 PUSH20 0xFFFFFFFFFFFFFFFFFFFFFFFFFFFFFFFFFFFFFFFF AND DUP6 DUP3 DUP2 MLOAD DUP2 LT PUSH2 0xE34 JUMPI PUSH2 0xE33 PUSH2 0x169C JUMP JUMPDEST JUMPDEST PUSH1 0x20 MUL PUSH1 0x20 ADD ADD MLOAD PUSH20 0xFFFFFFFFFFFFFFFFFFFFFFFFFFFFFFFFFFFFFFFF AND EQ ISZERO PUSH2 0xE61 JUMPI PUSH1 0x1 SWAP2 POP PUSH2 0xE74 JUMP JUMPDEST DUP1 DUP1 PUSH2 0xE6C SWAP1 PUSH2 0x15CB JUMP JUMPDEST SWAP2 POP POP PUSH2 0xE01 JUMP JUMPDEST POP DUP1 SWAP2 POP POP SWAP3 SWAP2 POP POP JUMP JUMPDEST PUSH1 0x6 PUSH1 0x0 PUSH2 0x100 EXP DUP2 SLOAD SWAP1 PUSH20 0xFFFFFFFFFFFFFFFFFFFFFFFFFFFFFFFFFFFFFFFF MUL NOT AND SWAP1 SSTORE PUSH1 0x5 PUSH1 0x0 PUSH2 0x100 EXP DUP2 SLOAD SWAP1 PUSH20 0xFFFFFFFFFFFFFFFFFFFFFFFFFFFFFFFFFFFFFFFF MUL NOT AND SWAP1 SSTORE PUSH1 0x0 PUSH1 0x4 DUP2 SWAP1 SSTORE POP PUSH1 0x7 PUSH1 0x0 PUSH2 0xEDF SWAP2 SWAP1 PUSH2 0x1012 JUMP JUMPDEST PUSH1 0x8 PUSH1 0x0 PUSH2 0xEED SWAP2 SWAP1 PUSH2 0x1012 JUMP JUMPDEST JUMP JUMPDEST PUSH1 0x0 PUSH2 0xF81 PUSH1 0x7 DUP1 SLOAD DUP1 PUSH1 0x20 MUL PUSH1 0x20 ADD PUSH1 0x40 MLOAD SWAP1 DUP2 ADD PUSH1 0x40 MSTORE DUP1 SWAP3 SWAP2 SWAP1 DUP2 DUP2 MSTORE PUSH1 0x20 ADD DUP3 DUP1 SLOAD DUP1 ISZERO PUSH2 0xF76 JUMPI PUSH1 0x20 MUL DUP3 ADD SWAP2 SWAP1 PUSH1 0x0 MSTORE PUSH1 0x20 PUSH1 0x0 KECCAK256 SWAP1 JUMPDEST DUP2 PUSH1 0x0 SWAP1 SLOAD SWAP1 PUSH2 0x100 EXP SWAP1 DIV PUSH20 0xFFFFFFFFFFFFFFFFFFFFFFFFFFFFFFFFFFFFFFFF AND PUSH20 0xFFFFFFFFFFFFFFFFFFFFFFFFFFFFFFFFFFFFFFFF AND DUP2 MSTORE PUSH1 0x20 ADD SWAP1 PUSH1 0x1 ADD SWAP1 DUP1 DUP4 GT PUSH2 0xF2C JUMPI JUMPDEST POP POP POP POP POP CALLER PUSH2 0xDF7 JUMP JUMPDEST SWAP1 POP SWAP1 JUMP JUMPDEST PUSH1 0x0 PUSH1 0xA SLOAD PUSH2 0x2710 DUP4 PUSH2 0xF99 SWAP2 SWAP1 PUSH2 0x14B1 JUMP JUMPDEST PUSH2 0xFA3 SWAP2 SWAP1 PUSH2 0x14E2 JUMP JUMPDEST SWAP1 POP PUSH1 0xC PUSH1 0x0 SWAP1 SLOAD SWAP1 PUSH2 0x100 EXP SWAP1 DIV PUSH20 0xFFFFFFFFFFFFFFFFFFFFFFFFFFFFFFFFFFFFFFFF AND PUSH20 0xFFFFFFFFFFFFFFFFFFFFFFFFFFFFFFFFFFFFFFFF AND PUSH2 0x8FC DUP3 SWAP1 DUP2 ISZERO MUL SWAP1 PUSH1 0x40 MLOAD PUSH1 0x0 PUSH1 0x40 MLOAD DUP1 DUP4 SUB DUP2 DUP6 DUP9 DUP9 CALL SWAP4 POP POP POP POP ISZERO DUP1 ISZERO PUSH2 0x100D JUMPI RETURNDATASIZE PUSH1 0x0 DUP1 RETURNDATACOPY RETURNDATASIZE PUSH1 0x0 REVERT JUMPDEST POP POP POP JUMP JUMPDEST POP DUP1 SLOAD PUSH1 0x0 DUP3 SSTORE SWAP1 PUSH1 0x0 MSTORE PUSH1 0x20 PUSH1 0x0 KECCAK256 SWAP1 DUP2 ADD SWAP1 PUSH2 0x1030 SWAP2 SWAP1 PUSH2 0x1033 JUMP JUMPDEST POP JUMP JUMPDEST JUMPDEST DUP1 DUP3 GT ISZERO PUSH2 0x104C JUMPI PUSH1 0x0 DUP2 PUSH1 0x0 SWAP1 SSTORE POP PUSH1 0x1 ADD PUSH2 0x1034 JUMP JUMPDEST POP SWAP1 JUMP JUMPDEST PUSH1 0x0 DUP2 CALLDATALOAD SWAP1 POP PUSH2 0x105F DUP2 PUSH2 0x1A5E JUMP JUMPDEST SWAP3 SWAP2 POP POP JUMP JUMPDEST PUSH1 0x0 DUP2 CALLDATALOAD SWAP1 POP PUSH2 0x1074 DUP2 PUSH2 0x1A75 JUMP JUMPDEST SWAP3 SWAP2 POP POP JUMP JUMPDEST PUSH1 0x0 DUP2 CALLDATALOAD SWAP1 POP PUSH2 0x1089 DUP2 PUSH2 0x1A8C JUMP JUMPDEST SWAP3 SWAP2 POP POP JUMP JUMPDEST PUSH1 0x0 PUSH1 0x20 DUP3 DUP5 SUB SLT ISZERO PUSH2 0x10A5 JUMPI PUSH2 0x10A4 PUSH2 0x16CB JUMP JUMPDEST JUMPDEST PUSH1 0x0 PUSH2 0x10B3 DUP5 DUP3 DUP6 ADD PUSH2 0x1050 JUMP JUMPDEST SWAP2 POP POP SWAP3 SWAP2 POP POP JUMP JUMPDEST PUSH1 0x0 DUP1 PUSH1 0x40 DUP4 DUP6 SUB SLT ISZERO PUSH2 0x10D3 JUMPI PUSH2 0x10D2 PUSH2 0x16CB JUMP JUMPDEST JUMPDEST PUSH1 0x0 PUSH2 0x10E1 DUP6 DUP3 DUP7 ADD PUSH2 0x107A JUMP JUMPDEST SWAP3 POP POP PUSH1 0x20 PUSH2 0x10F2 DUP6 DUP3 DUP7 ADD PUSH2 0x1065 JUMP JUMPDEST SWAP2 POP POP SWAP3 POP SWAP3 SWAP1 POP JUMP JUMPDEST PUSH1 0x0 PUSH2 0x1109 PUSH1 0x58 DUP4 PUSH2 0x144A JUMP JUMPDEST SWAP2 POP PUSH2 0x1114 DUP3 PUSH2 0x16D0 JUMP JUMPDEST PUSH1 0x60 DUP3 ADD SWAP1 POP SWAP2 SWAP1 POP JUMP JUMPDEST PUSH1 0x0 PUSH2 0x112C PUSH1 0x2F DUP4 PUSH2 0x144A JUMP JUMPDEST SWAP2 POP PUSH2 0x1137 DUP3 PUSH2 0x1745 JUMP JUMPDEST PUSH1 0x40 DUP3 ADD SWAP1 POP SWAP2 SWAP1 POP JUMP JUMPDEST PUSH1 0x0 PUSH2 0x114F PUSH1 0x3A DUP4 PUSH2 0x144A JUMP JUMPDEST SWAP2 POP PUSH2 0x115A DUP3 PUSH2 0x1794 JUMP JUMPDEST PUSH1 0x40 DUP3 ADD SWAP1 POP SWAP2 SWAP1 POP JUMP JUMPDEST PUSH1 0x0 PUSH2 0x1172 PUSH1 0x2E DUP4 PUSH2 0x144A JUMP JUMPDEST SWAP2 POP PUSH2 0x117D DUP3 PUSH2 0x17E3 JUMP JUMPDEST PUSH1 0x40 DUP3 ADD SWAP1 POP SWAP2 SWAP1 POP JUMP JUMPDEST PUSH1 0x0 PUSH2 0x1195 PUSH1 0x15 DUP4 PUSH2 0x144A JUMP JUMPDEST SWAP2 POP PUSH2 0x11A0 DUP3 PUSH2 0x1832 JUMP JUMPDEST PUSH1 0x20 DUP3 ADD SWAP1 POP SWAP2 SWAP1 POP JUMP JUMPDEST PUSH1 0x0 PUSH2 0x11B8 PUSH1 0x3B DUP4 PUSH2 0x144A JUMP JUMPDEST SWAP2 POP PUSH2 0x11C3 DUP3 PUSH2 0x185B JUMP JUMPDEST PUSH1 0x40 DUP3 ADD SWAP1 POP SWAP2 SWAP1 POP JUMP JUMPDEST PUSH1 0x0 PUSH2 0x11DB PUSH1 0x2C DUP4 PUSH2 0x144A JUMP JUMPDEST SWAP2 POP PUSH2 0x11E6 DUP3 PUSH2 0x18AA JUMP JUMPDEST PUSH1 0x40 DUP3 ADD SWAP1 POP SWAP2 SWAP1 POP JUMP JUMPDEST PUSH1 0x0 PUSH2 0x11FE PUSH1 0x38 DUP4 PUSH2 0x144A JUMP JUMPDEST SWAP2 POP PUSH2 0x1209 DUP3 PUSH2 0x18F9 JUMP JUMPDEST PUSH1 0x40 DUP3 ADD SWAP1 POP SWAP2 SWAP1 POP JUMP JUMPDEST PUSH1 0x0 PUSH2 0x1221 PUSH1 0x1D DUP4 PUSH2 0x144A JUMP JUMPDEST SWAP2 POP PUSH2 0x122C DUP3 PUSH2 0x1948 JUMP JUMPDEST PUSH1 0x20 DUP3 ADD SWAP1 POP SWAP2 SWAP1 POP JUMP JUMPDEST PUSH1 0x0 PUSH2 0x1244 PUSH1 0x26 DUP4 PUSH2 0x144A JUMP JUMPDEST SWAP2 POP PUSH2 0x124F DUP3 PUSH2 0x1971 JUMP JUMPDEST PUSH1 0x40 DUP3 ADD SWAP1 POP SWAP2 SWAP1 POP JUMP JUMPDEST PUSH1 0x0 PUSH2 0x1267 PUSH1 0x2A DUP4 PUSH2 0x144A JUMP JUMPDEST SWAP2 POP PUSH2 0x1272 DUP3 PUSH2 0x19C0 JUMP JUMPDEST PUSH1 0x40 DUP3 ADD SWAP1 POP SWAP2 SWAP1 POP JUMP JUMPDEST PUSH1 0x0 PUSH2 0x128A PUSH1 0x2C DUP4 PUSH2 0x144A JUMP JUMPDEST SWAP2 POP PUSH2 0x1295 DUP3 PUSH2 0x1A0F JUMP JUMPDEST PUSH1 0x40 DUP3 ADD SWAP1 POP SWAP2 SWAP1 POP JUMP JUMPDEST PUSH2 0x12A9 DUP2 PUSH2 0x15B4 JUMP JUMPDEST DUP3 MSTORE POP POP JUMP JUMPDEST PUSH1 0x0 PUSH1 0x20 DUP3 ADD SWAP1 POP DUP2 DUP2 SUB PUSH1 0x0 DUP4 ADD MSTORE PUSH2 0x12C8 DUP2 PUSH2 0x10FC JUMP JUMPDEST SWAP1 POP SWAP2 SWAP1 POP JUMP JUMPDEST PUSH1 0x0 PUSH1 0x20 DUP3 ADD SWAP1 POP DUP2 DUP2 SUB PUSH1 0x0 DUP4 ADD MSTORE PUSH2 0x12E8 DUP2 PUSH2 0x111F JUMP JUMPDEST SWAP1 POP SWAP2 SWAP1 POP JUMP JUMPDEST PUSH1 0x0 PUSH1 0x20 DUP3 ADD SWAP1 POP DUP2 DUP2 SUB PUSH1 0x0 DUP4 ADD MSTORE PUSH2 0x1308 DUP2 PUSH2 0x1142 JUMP JUMPDEST SWAP1 POP SWAP2 SWAP1 POP JUMP JUMPDEST PUSH1 0x0 PUSH1 0x20 DUP3 ADD SWAP1 POP DUP2 DUP2 SUB PUSH1 0x0 DUP4 ADD MSTORE PUSH2 0x1328 DUP2 PUSH2 0x1165 JUMP JUMPDEST SWAP1 POP SWAP2 SWAP1 POP JUMP JUMPDEST PUSH1 0x0 PUSH1 0x20 DUP3 ADD SWAP1 POP DUP2 DUP2 SUB PUSH1 0x0 DUP4 ADD MSTORE PUSH2 0x1348 DUP2 PUSH2 0x1188 JUMP JUMPDEST SWAP1 POP SWAP2 SWAP1 POP JUMP JUMPDEST PUSH1 0x0 PUSH1 0x20 DUP3 ADD SWAP1 POP DUP2 DUP2 SUB PUSH1 0x0 DUP4 ADD MSTORE PUSH2 0x1368 DUP2 PUSH2 0x11AB JUMP JUMPDEST SWAP1 POP SWAP2 SWAP1 POP JUMP JUMPDEST PUSH1 0x0 PUSH1 0x20 DUP3 ADD SWAP1 POP DUP2 DUP2 SUB PUSH1 0x0 DUP4 ADD MSTORE PUSH2 0x1388 DUP2 PUSH2 0x11CE JUMP JUMPDEST SWAP1 POP SWAP2 SWAP1 POP JUMP JUMPDEST PUSH1 0x0 PUSH1 0x20 DUP3 ADD SWAP1 POP DUP2 DUP2 SUB PUSH1 0x0 DUP4 ADD MSTORE PUSH2 0x13A8 DUP2 PUSH2 0x11F1 JUMP JUMPDEST SWAP1 POP SWAP2 SWAP1 POP JUMP JUMPDEST PUSH1 0x0 PUSH1 0x20 DUP3 ADD SWAP1 POP DUP2 DUP2 SUB PUSH1 0x0 DUP4 ADD MSTORE PUSH2 0x13C8 DUP2 PUSH2 0x1214 JUMP JUMPDEST SWAP1 POP SWAP2 SWAP1 POP JUMP JUMPDEST PUSH1 0x0 PUSH1 0x20 DUP3 ADD SWAP1 POP DUP2 DUP2 SUB PUSH1 0x0 DUP4 ADD MSTORE PUSH2 0x13E8 DUP2 PUSH2 0x1237 JUMP JUMPDEST SWAP1 POP SWAP2 SWAP1 POP JUMP JUMPDEST PUSH1 0x0 PUSH1 0x20 DUP3 ADD SWAP1 POP DUP2 DUP2 SUB PUSH1 0x0 DUP4 ADD MSTORE PUSH2 0x1408 DUP2 PUSH2 0x125A JUMP JUMPDEST SWAP1 POP SWAP2 SWAP1 POP JUMP JUMPDEST PUSH1 0x0 PUSH1 0x20 DUP3 ADD SWAP1 POP DUP2 DUP2 SUB PUSH1 0x0 DUP4 ADD MSTORE PUSH2 0x1428 DUP2 PUSH2 0x127D JUMP JUMPDEST SWAP1 POP SWAP2 SWAP1 POP JUMP JUMPDEST PUSH1 0x0 PUSH1 0x20 DUP3 ADD SWAP1 POP PUSH2 0x1444 PUSH1 0x0 DUP4 ADD DUP5 PUSH2 0x12A0 JUMP JUMPDEST SWAP3 SWAP2 POP POP JUMP JUMPDEST PUSH1 0x0 DUP3 DUP3 MSTORE PUSH1 0x20 DUP3 ADD SWAP1 POP SWAP3 SWAP2 POP POP JUMP JUMPDEST PUSH1 0x0 PUSH2 0x1466 DUP3 PUSH2 0x15B4 JUMP JUMPDEST SWAP2 POP PUSH2 0x1471 DUP4 PUSH2 0x15B4 JUMP JUMPDEST SWAP3 POP DUP3 PUSH32 0xFFFFFFFFFFFFFFFFFFFFFFFFFFFFFFFFFFFFFFFFFFFFFFFFFFFFFFFFFFFFFFFF SUB DUP3 GT ISZERO PUSH2 0x14A6 JUMPI PUSH2 0x14A5 PUSH2 0x163E JUMP JUMPDEST JUMPDEST DUP3 DUP3 ADD SWAP1 POP SWAP3 SWAP2 POP POP JUMP JUMPDEST PUSH1 0x0 PUSH2 0x14BC DUP3 PUSH2 0x15B4 JUMP JUMPDEST SWAP2 POP PUSH2 0x14C7 DUP4 PUSH2 0x15B4 JUMP JUMPDEST SWAP3 POP DUP3 PUSH2 0x14D7 JUMPI PUSH2 0x14D6 PUSH2 0x166D JUMP JUMPDEST JUMPDEST DUP3 DUP3 DIV SWAP1 POP SWAP3 SWAP2 POP POP JUMP JUMPDEST PUSH1 0x0 PUSH2 0x14ED DUP3 PUSH2 0x15B4 JUMP JUMPDEST SWAP2 POP PUSH2 0x14F8 DUP4 PUSH2 0x15B4 JUMP JUMPDEST SWAP3 POP DUP2 PUSH32 0xFFFFFFFFFFFFFFFFFFFFFFFFFFFFFFFFFFFFFFFFFFFFFFFFFFFFFFFFFFFFFFFF DIV DUP4 GT DUP3 ISZERO ISZERO AND ISZERO PUSH2 0x1531 JUMPI PUSH2 0x1530 PUSH2 0x163E JUMP JUMPDEST JUMPDEST DUP3 DUP3 MUL SWAP1 POP SWAP3 SWAP2 POP POP JUMP JUMPDEST PUSH1 0x0 PUSH2 0x1547 DUP3 PUSH2 0x15B4 JUMP JUMPDEST SWAP2 POP PUSH2 0x1552 DUP4 PUSH2 0x15B4 JUMP JUMPDEST SWAP3 POP DUP3 DUP3 LT ISZERO PUSH2 0x1565 JUMPI PUSH2 0x1564 PUSH2 0x163E JUMP JUMPDEST JUMPDEST DUP3 DUP3 SUB SWAP1 POP SWAP3 SWAP2 POP POP JUMP JUMPDEST PUSH1 0x0 PUSH2 0x157B DUP3 PUSH2 0x1594 JUMP JUMPDEST SWAP1 POP SWAP2 SWAP1 POP JUMP JUMPDEST PUSH1 0x0 PUSH2 0x158D DUP3 PUSH2 0x1594 JUMP JUMPDEST SWAP1 POP SWAP2 SWAP1 POP JUMP JUMPDEST PUSH1 0x0 PUSH20 0xFFFFFFFFFFFFFFFFFFFFFFFFFFFFFFFFFFFFFFFF DUP3 AND SWAP1 POP SWAP2 SWAP1 POP JUMP JUMPDEST PUSH1 0x0 DUP2 SWAP1 POP SWAP2 SWAP1 POP JUMP JUMPDEST PUSH1 0x0 PUSH1 0xFF DUP3 AND SWAP1 POP SWAP2 SWAP1 POP JUMP JUMPDEST PUSH1 0x0 PUSH2 0x15D6 DUP3 PUSH2 0x15B4 JUMP JUMPDEST SWAP2 POP PUSH32 0xFFFFFFFFFFFFFFFFFFFFFFFFFFFFFFFFFFFFFFFFFFFFFFFFFFFFFFFFFFFFFFFF DUP3 EQ ISZERO PUSH2 0x1609 JUMPI PUSH2 0x1608 PUSH2 0x163E JUMP JUMPDEST JUMPDEST PUSH1 0x1 DUP3 ADD SWAP1 POP SWAP2 SWAP1 POP JUMP JUMPDEST PUSH1 0x0 PUSH2 0x161F DUP3 PUSH2 0x15BE JUMP JUMPDEST SWAP2 POP PUSH1 0xFF DUP3 EQ ISZERO PUSH2 0x1633 JUMPI PUSH2 0x1632 PUSH2 0x163E JUMP JUMPDEST JUMPDEST PUSH1 0x1 DUP3 ADD SWAP1 POP SWAP2 SWAP1 POP JUMP JUMPDEST PUSH32 0x4E487B7100000000000000000000000000000000000000000000000000000000 PUSH1 0x0 MSTORE PUSH1 0x11 PUSH1 0x4 MSTORE PUSH1 0x24 PUSH1 0x0 REVERT JUMPDEST PUSH32 0x4E487B7100000000000000000000000000000000000000000000000000000000 PUSH1 0x0 MSTORE PUSH1 0x12 PUSH1 0x4 MSTORE PUSH1 0x24 PUSH1 0x0 REVERT JUMPDEST PUSH32 0x4E487B7100000000000000000000000000000000000000000000000000000000 PUSH1 0x0 MSTORE PUSH1 0x32 PUSH1 0x4 MSTORE PUSH1 0x24 PUSH1 0x0 REVERT JUMPDEST PUSH1 0x0 DUP1 REVERT JUMPDEST PUSH32 0x73746F7265206D757374206D6F7265207468616E2030207765692C20696E6465 PUSH1 0x0 DUP3 ADD MSTORE PUSH32 0x656420746865206761732066656520646F206E6F742064656372656173652069 PUSH1 0x20 DUP3 ADD MSTORE PUSH32 0x6620796F7520746F70696E2061206C6F772076616C75652E0000000000000000 PUSH1 0x40 DUP3 ADD MSTORE POP JUMP JUMPDEST PUSH32 0x74686572652069736E277420616E792077697468647277616C73207761697420 PUSH1 0x0 DUP3 ADD MSTORE PUSH32 0x666F722063616E63656C6174696F6E0000000000000000000000000000000000 PUSH1 0x20 DUP3 ADD MSTORE POP JUMP JUMPDEST PUSH32 0x6F6E6C792074686520636F756E746572207061727479206F6620696E69746961 PUSH1 0x0 DUP3 ADD MSTORE PUSH32 0x746F722063616E2063616C6C20746869732066756E6374696F6E000000000000 PUSH1 0x20 DUP3 ADD MSTORE POP JUMP JUMPDEST PUSH32 0x796F752068617665207369676E656420666F722063616E63656C6C6174696F6E PUSH1 0x0 DUP3 ADD MSTORE PUSH32 0x2C20646F6E277420726570656174000000000000000000000000000000000000 PUSH1 0x20 DUP3 ADD MSTORE POP JUMP JUMPDEST PUSH32 0x696E76616C696420746172676574416464726573730000000000000000000000 PUSH1 0x0 DUP3 ADD MSTORE POP JUMP JUMPDEST PUSH32 0x6F6E6C7920706C6174666F726D206163636F756E7420697473656C662063616E PUSH1 0x0 DUP3 ADD MSTORE PUSH32 0x206368616E676520697420746F206F74686572206163636F756E740000000000 PUSH1 0x20 DUP3 ADD MSTORE POP JUMP JUMPDEST PUSH32 0x7468657265206973206E6F20776974686472617720616374696F6E2077616974 PUSH1 0x0 DUP3 ADD MSTORE PUSH32 0x696E6720666F72207369676E0000000000000000000000000000000000000000 PUSH1 0x20 DUP3 ADD MSTORE POP JUMP JUMPDEST PUSH32 0x796F752068617665207369676E65642074686973207769746864726177207072 PUSH1 0x0 DUP3 ADD MSTORE PUSH32 0x6F636573732C20706C7A20646F6E2774207265706561742E0000000000000000 PUSH1 0x20 DUP3 ADD MSTORE POP JUMP JUMPDEST PUSH32 0x7072652070726F6365737320686173206E6F74206265656E206F766572000000 PUSH1 0x0 DUP3 ADD MSTORE POP JUMP JUMPDEST PUSH32 0x6F6E6C7920636F6C6C61626F7261746F7273206861766520746865207065726D PUSH1 0x0 DUP3 ADD MSTORE PUSH32 0x697373696F6E0000000000000000000000000000000000000000000000000000 PUSH1 0x20 DUP3 ADD MSTORE POP JUMP JUMPDEST PUSH32 0x6F6E6C792074686520696E69746961746F722063616E2063616E63656C207468 PUSH1 0x0 DUP3 ADD MSTORE PUSH32 0x69732070726F6365737300000000000000000000000000000000000000000000 PUSH1 0x20 DUP3 ADD MSTORE POP JUMP JUMPDEST PUSH32 0x77697468647261772062616C616E636520636F756C64206E6F74206D6F726520 PUSH1 0x0 DUP3 ADD MSTORE PUSH32 0x7468616E2062616C616E63650000000000000000000000000000000000000000 PUSH1 0x20 DUP3 ADD MSTORE POP JUMP JUMPDEST PUSH2 0x1A67 DUP2 PUSH2 0x1570 JUMP JUMPDEST DUP2 EQ PUSH2 0x1A72 JUMPI PUSH1 0x0 DUP1 REVERT JUMPDEST POP JUMP JUMPDEST PUSH2 0x1A7E DUP2 PUSH2 0x1582 JUMP JUMPDEST DUP2 EQ PUSH2 0x1A89 JUMPI PUSH1 0x0 DUP1 REVERT JUMPDEST POP JUMP JUMPDEST PUSH2 0x1A95 DUP2 PUSH2 0x15B4 JUMP JUMPDEST DUP2 EQ PUSH2 0x1AA0 JUMPI PUSH1 0x0 DUP1 REVERT JUMPDEST POP JUMP INVALID LOG2 PUSH5 0x6970667358 0x22 SLT KECCAK256 RETURNDATASIZE EXP 0xBF MSIZE PUSH16 0x8C0D616E06ECD5A8B7CCFE6B615EC5E7 COINBASE 0xEC CALLDATALOAD STATICCALL EXTCODESIZE 0xF9 0xE1 PUSH5 0x3EF84D6473 PUSH16 0x6C634300080700330000000000000000 "
				},
				"gasEstimates": {
					"creation": {
						"codeDepositCost": "1374600",
						"executionCost": "infinite",
						"totalCost": "infinite"
					},
					"external": {
						"balance()": "2451",
						"cancel_withdraw()": "infinite",
						"cancel_withdraw_by_counterparty()": "infinite",
						"changePlatformAccount(address)": "26936",
						"collaboratorSign()": "infinite",
						"process_withdraw(uint256,address)": "infinite",
						"withdraw_count()": "2495",
						"withdraw_fee_rate()": "2496",
						"withdraw_free_count()": "2517"
					},
					"internal": {
						"address_array_in(address[] memory,address)": "infinite",
						"already_signed()": "infinite",
						"do_cancel_withdraw()": "infinite",
						"do_pay_service_fee(uint256)": "infinite",
						"do_withdraw()": "infinite",
						"is_oneof_collaborators()": "infinite",
						"no_duplicated_collaborators()": "infinite",
						"signedCountEnough()": "infinite"
					}
				},
				"methodIdentifiers": {
					"balance()": "b69ef8a8",
					"cancel_withdraw()": "b517e0b4",
					"cancel_withdraw_by_counterparty()": "1535430b",
					"changePlatformAccount(address)": "bc44e739",
					"collaboratorSign()": "352ce050",
					"process_withdraw(uint256,address)": "003bdf3e",
					"withdraw_count()": "ca3ea43f",
					"withdraw_fee_rate()": "3a0a197b",
					"withdraw_free_count()": "cfa4a5f6"
				}
			},
			"storageLayout": {
				"storage": [
					{
						"astId": 5,
						"contract": "contracts/MultisigWallet.sol:MultisigWallet",
						"label": "balance",
						"offset": 0,
						"slot": "0",
						"type": "t_uint256"
					},
					{
						"astId": 8,
						"contract": "contracts/MultisigWallet.sol:MultisigWallet",
						"label": "owner",
						"offset": 0,
						"slot": "1",
						"type": "t_address"
					},
					{
						"astId": 12,
						"contract": "contracts/MultisigWallet.sol:MultisigWallet",
						"label": "collaborators",
						"offset": 0,
						"slot": "2",
						"type": "t_array(t_address)dyn_storage"
					},
					{
						"astId": 15,
						"contract": "contracts/MultisigWallet.sol:MultisigWallet",
						"label": "at_least_sign_count",
						"offset": 0,
						"slot": "3",
						"type": "t_uint8"
					},
					{
						"astId": 18,
						"contract": "contracts/MultisigWallet.sol:MultisigWallet",
						"label": "waitfor_withdraw_wei",
						"offset": 0,
						"slot": "4",
						"type": "t_uint256"
					},
					{
						"astId": 21,
						"contract": "contracts/MultisigWallet.sol:MultisigWallet",
						"label": "waitfor_withdraw_address",
						"offset": 0,
						"slot": "5",
						"type": "t_address_payable"
					},
					{
						"astId": 24,
						"contract": "contracts/MultisigWallet.sol:MultisigWallet",
						"label": "initiator",
						"offset": 0,
						"slot": "6",
						"type": "t_address"
					},
					{
						"astId": 28,
						"contract": "contracts/MultisigWallet.sol:MultisigWallet",
						"label": "current_signed",
						"offset": 0,
						"slot": "7",
						"type": "t_array(t_address)dyn_storage"
					},
					{
						"astId": 32,
						"contract": "contracts/MultisigWallet.sol:MultisigWallet",
						"label": "current_cancel_counterparty_signed",
						"offset": 0,
						"slot": "8",
						"type": "t_array(t_address)dyn_storage"
					},
					{
						"astId": 35,
						"contract": "contracts/MultisigWallet.sol:MultisigWallet",
						"label": "withdraw_count",
						"offset": 0,
						"slot": "9",
						"type": "t_uint256"
					},
					{
						"astId": 38,
						"contract": "contracts/MultisigWallet.sol:MultisigWallet",
						"label": "withdraw_fee_rate",
						"offset": 0,
						"slot": "10",
						"type": "t_uint256"
					},
					{
						"astId": 41,
						"contract": "contracts/MultisigWallet.sol:MultisigWallet",
						"label": "withdraw_free_count",
						"offset": 0,
						"slot": "11",
						"type": "t_uint256"
					},
					{
						"astId": 43,
						"contract": "contracts/MultisigWallet.sol:MultisigWallet",
						"label": "platform_account",
						"offset": 0,
						"slot": "12",
						"type": "t_address_payable"
					}
				],
				"types": {
					"t_address": {
						"encoding": "inplace",
						"label": "address",
						"numberOfBytes": "20"
					},
					"t_address_payable": {
						"encoding": "inplace",
						"label": "address payable",
						"numberOfBytes": "20"
					},
					"t_array(t_address)dyn_storage": {
						"base": "t_address",
						"encoding": "dynamic_array",
						"label": "address[]",
						"numberOfBytes": "32"
					},
					"t_uint256": {
						"encoding": "inplace",
						"label": "uint256",
						"numberOfBytes": "32"
					},
					"t_uint8": {
						"encoding": "inplace",
						"label": "uint8",
						"numberOfBytes": "1"
					}
				}
			},
			"userdoc": {
				"events": {
					"ContractSetup(address,address[],uint8)": {
						"notice": "事件定义"
					}
				},
				"kind": "user",
				"methods": {
					"balance()": {
						"notice": "当前余额，单位是wei"
					},
					"cancel_withdraw()": {
						"notice": "发起方才能直接取消提款"
					},
					"cancel_withdraw_by_counterparty()": {
						"notice": "增加一个另外全方，协作罢免发起方的提款请求 这是在发起方帐户丢失时才需要干的事情，防止合同废掉了，卡死在这里 发起方会先签名一次，如果金额有误且非常重大但刚好帐户丢失，直接让另外一方签署 容易导致大额损失，所以通过取消的操作来进行。"
					},
					"collaboratorSign()": {
						"notice": "协作方签名，只要进来这个函数，就是说明前面的以太坊认证已经通过，收集地址即可。 当最后一个签名方满足多签需求的时候，直接发起转账提款"
					},
					"withdraw_count()": {
						"notice": "记录转账多少次，可以设置一些条款，例如前10次免费，之后按xx比例收取手续费。 手续费打入xx帐户。"
					},
					"withdraw_fee_rate()": {
						"notice": "转账费率，单位是万分之一"
					},
					"withdraw_free_count()": {
						"notice": "前N次免费"
					}
				},
				"notice": "多签名钱包简单实现。",
				"version": 1
			}
		}
	}
}