{
	"contracts/MultisigWallet.sol": {
		"MultisigWallet": {
			"abi": [
				{
					"inputs": [
						{
							"internalType": "address[]",
							"name": "collaborators_",
							"type": "address[]"
						},
						{
							"internalType": "uint8",
							"name": "at_least_sign_count_",
							"type": "uint8"
						}
					],
					"stateMutability": "nonpayable",
					"type": "constructor"
				},
				{
					"anonymous": false,
					"inputs": [
						{
							"indexed": true,
							"internalType": "address",
							"name": "initiator",
							"type": "address"
						}
					],
					"name": "CancelByInitiator",
					"type": "event"
				},
				{
					"anonymous": false,
					"inputs": [
						{
							"indexed": true,
							"internalType": "address[]",
							"name": "counter_parties",
							"type": "address[]"
						}
					],
					"name": "CanceledByCounterParties",
					"type": "event"
				},
				{
					"anonymous": false,
					"inputs": [
						{
							"indexed": true,
							"internalType": "address",
							"name": "counter_party",
							"type": "address"
						}
					],
					"name": "CancellingByCounterPartiesSign",
					"type": "event"
				},
				{
					"anonymous": false,
					"inputs": [
						{
							"indexed": true,
							"internalType": "address",
							"name": "collaborator",
							"type": "address"
						}
					],
					"name": "CollaboratorSign",
					"type": "event"
				},
				{
					"anonymous": false,
					"inputs": [
						{
							"indexed": true,
							"internalType": "address",
							"name": "sender",
							"type": "address"
						},
						{
							"indexed": true,
							"internalType": "uint256",
							"name": "amount",
							"type": "uint256"
						}
					],
					"name": "Deposit",
					"type": "event"
				},
				{
					"anonymous": false,
					"inputs": [
						{
							"indexed": true,
							"internalType": "address",
							"name": "initiator",
							"type": "address"
						},
						{
							"indexed": true,
							"internalType": "uint256",
							"name": "amount",
							"type": "uint256"
						}
					],
					"name": "ProcessWithdraw",
					"type": "event"
				},
				{
					"inputs": [],
					"name": "balance",
					"outputs": [
						{
							"internalType": "uint256",
							"name": "",
							"type": "uint256"
						}
					],
					"stateMutability": "view",
					"type": "function"
				},
				{
					"inputs": [],
					"name": "cancel_withdraw",
					"outputs": [],
					"stateMutability": "nonpayable",
					"type": "function"
				},
				{
					"inputs": [],
					"name": "cancel_withdraw_by_counterparty",
					"outputs": [],
					"stateMutability": "nonpayable",
					"type": "function"
				},
				{
					"inputs": [
						{
							"internalType": "address",
							"name": "newAccount",
							"type": "address"
						}
					],
					"name": "changePlatformAccount",
					"outputs": [],
					"stateMutability": "nonpayable",
					"type": "function"
				},
				{
					"inputs": [],
					"name": "collaboratorSign",
					"outputs": [],
					"stateMutability": "nonpayable",
					"type": "function"
				},
				{
					"inputs": [
						{
							"internalType": "uint256",
							"name": "weis",
							"type": "uint256"
						},
						{
							"internalType": "address payable",
							"name": "targetAddress",
							"type": "address"
						}
					],
					"name": "process_withdraw",
					"outputs": [],
					"stateMutability": "nonpayable",
					"type": "function"
				},
				{
					"inputs": [],
					"name": "withdraw_count",
					"outputs": [
						{
							"internalType": "uint256",
							"name": "",
							"type": "uint256"
						}
					],
					"stateMutability": "view",
					"type": "function"
				},
				{
					"inputs": [],
					"name": "withdraw_fee_rate",
					"outputs": [
						{
							"internalType": "uint256",
							"name": "",
							"type": "uint256"
						}
					],
					"stateMutability": "view",
					"type": "function"
				},
				{
					"inputs": [],
					"name": "withdraw_free_count",
					"outputs": [
						{
							"internalType": "uint256",
							"name": "",
							"type": "uint256"
						}
					],
					"stateMutability": "view",
					"type": "function"
				},
				{
					"stateMutability": "payable",
					"type": "receive"
				}
			],
			"devdoc": {
				"kind": "dev",
				"methods": {},
				"version": 1
			},
			"evm": {
				"assembly": "    /* \"contracts/MultisigWallet.sol\":108:8034  contract MultisigWallet {... */\n  mstore(0x40, 0x80)\n    /* \"contracts/MultisigWallet.sol\":1814:2559  constructor(address[] memory collaborators_, uint8 at_least_sign_count_) {... */\n  callvalue\n  dup1\n  iszero\n  tag_1\n  jumpi\n  0x00\n  dup1\n  revert\ntag_1:\n  pop\n  mload(0x40)\n  sub(codesize, bytecodeSize)\n  dup1\n  bytecodeSize\n  dup4\n  codecopy\n  dup2\n  dup2\n  add\n  0x40\n  mstore\n  dup2\n  add\n  swap1\n  tag_2\n  swap2\n  swap1\n  tag_3\n  jump\t// in\ntag_2:\n    /* \"contracts/MultisigWallet.sol\":1899:1909  msg.sender */\n  caller\n    /* \"contracts/MultisigWallet.sol\":1891:1896  owner */\n  0x01\n  0x00\n    /* \"contracts/MultisigWallet.sol\":1891:1909  owner = msg.sender */\n  0x0100\n  exp\n  dup2\n  sload\n  dup2\n  0xffffffffffffffffffffffffffffffffffffffff\n  mul\n  not\n  and\n  swap1\n  dup4\n  0xffffffffffffffffffffffffffffffffffffffff\n  and\n  mul\n  or\n  swap1\n  sstore\n  pop\n    /* \"contracts/MultisigWallet.sol\":1945:1946  0 */\n  0x00\n    /* \"contracts/MultisigWallet.sol\":1921:1935  collaborators_ */\n  dup3\n    /* \"contracts/MultisigWallet.sol\":1921:1942  collaborators_.length */\n  mload\n    /* \"contracts/MultisigWallet.sol\":1921:1946  collaborators_.length > 0 */\n  gt\n    /* \"contracts/MultisigWallet.sol\":1913:1987  require(collaborators_.length > 0, \"all collaborators count at least one\") */\n  tag_6\n  jumpi\n  mload(0x40)\n  0x08c379a000000000000000000000000000000000000000000000000000000000\n  dup2\n  mstore\n  0x04\n  add\n  tag_7\n  swap1\n  tag_8\n  jump\t// in\ntag_7:\n  mload(0x40)\n  dup1\n  swap2\n  sub\n  swap1\n  revert\ntag_6:\n    /* \"contracts/MultisigWallet.sol\":1999:2028  no_duplicated_collaborators() */\n  tag_9\n    /* \"contracts/MultisigWallet.sol\":1999:2026  no_duplicated_collaborators */\n  shl(0x20, tag_10)\n    /* \"contracts/MultisigWallet.sol\":1999:2028  no_duplicated_collaborators() */\n  0x20\n  shr\n  jump\t// in\ntag_9:\n    /* \"contracts/MultisigWallet.sol\":1991:2072  require(no_duplicated_collaborators(), \"the collaborators must no be duplicated\") */\n  tag_11\n  jumpi\n  mload(0x40)\n  0x08c379a000000000000000000000000000000000000000000000000000000000\n  dup2\n  mstore\n  0x04\n  add\n  tag_12\n  swap1\n  tag_13\n  jump\t// in\ntag_12:\n  mload(0x40)\n  dup1\n  swap2\n  sub\n  swap1\n  revert\ntag_11:\n    /* \"contracts/MultisigWallet.sol\":2107:2108  0 */\n  0x00\n    /* \"contracts/MultisigWallet.sol\":2084:2104  at_least_sign_count_ */\n  dup2\n    /* \"contracts/MultisigWallet.sol\":2084:2108  at_least_sign_count_ > 0 */\n  0xff\n  and\n  gt\n    /* \"contracts/MultisigWallet.sol\":2084:2157  at_least_sign_count_ > 0 && at_least_sign_count_ <= collaborators_.length */\n  dup1\n  iszero\n  tag_14\n  jumpi\n  pop\n    /* \"contracts/MultisigWallet.sol\":2136:2150  collaborators_ */\n  dup2\n    /* \"contracts/MultisigWallet.sol\":2136:2157  collaborators_.length */\n  mload\n    /* \"contracts/MultisigWallet.sol\":2112:2132  at_least_sign_count_ */\n  dup2\n    /* \"contracts/MultisigWallet.sol\":2112:2157  at_least_sign_count_ <= collaborators_.length */\n  0xff\n  and\n  gt\n  iszero\n    /* \"contracts/MultisigWallet.sol\":2084:2157  at_least_sign_count_ > 0 && at_least_sign_count_ <= collaborators_.length */\ntag_14:\n    /* \"contracts/MultisigWallet.sol\":2076:2242  require(at_least_sign_count_ > 0 && at_least_sign_count_ <= collaborators_.length, \"at least sign count must more than 0 and less than or equals collaborators count\") */\n  tag_15\n  jumpi\n  mload(0x40)\n  0x08c379a000000000000000000000000000000000000000000000000000000000\n  dup2\n  mstore\n  0x04\n  add\n  tag_16\n  swap1\n  tag_17\n  jump\t// in\ntag_16:\n  mload(0x40)\n  dup1\n  swap2\n  sub\n  swap1\n  revert\ntag_15:\n    /* \"contracts/MultisigWallet.sol\":2262:2276  collaborators_ */\n  dup2\n    /* \"contracts/MultisigWallet.sol\":2246:2259  collaborators */\n  0x02\n    /* \"contracts/MultisigWallet.sol\":2246:2276  collaborators = collaborators_ */\n  swap1\n  dup1\n  mload\n  swap1\n  0x20\n  add\n  swap1\n  tag_18\n  swap3\n  swap2\n  swap1\n  tag_19\n  jump\t// in\ntag_18:\n  pop\n    /* \"contracts/MultisigWallet.sol\":2304:2324  at_least_sign_count_ */\n  dup1\n    /* \"contracts/MultisigWallet.sol\":2282:2301  at_least_sign_count */\n  0x03\n  0x00\n    /* \"contracts/MultisigWallet.sol\":2282:2324  at_least_sign_count = at_least_sign_count_ */\n  0x0100\n  exp\n  dup2\n  sload\n  dup2\n  0xff\n  mul\n  not\n  and\n  swap1\n  dup4\n  0xff\n  and\n  mul\n  or\n  swap1\n  sstore\n  pop\n    /* \"contracts/MultisigWallet.sol\":2447:2489  0xdD870fA1b7C4700F2BD7f44238821C26f7392148 */\n  0xdd870fa1b7c4700f2bd7f44238821c26f7392148\n    /* \"contracts/MultisigWallet.sol\":2420:2436  platform_account */\n  0x0c\n  0x00\n    /* \"contracts/MultisigWallet.sol\":2420:2490  platform_account = payable(0xdD870fA1b7C4700F2BD7f44238821C26f7392148) */\n  0x0100\n  exp\n  dup2\n  sload\n  dup2\n  0xffffffffffffffffffffffffffffffffffffffff\n  mul\n  not\n  and\n  swap1\n  dup4\n  0xffffffffffffffffffffffffffffffffffffffff\n  and\n  mul\n  or\n  swap1\n  sstore\n  pop\n    /* \"contracts/MultisigWallet.sol\":2520:2522  20 */\n  0x14\n    /* \"contracts/MultisigWallet.sol\":2500:2517  withdraw_fee_rate */\n  0x0a\n    /* \"contracts/MultisigWallet.sol\":2500:2522  withdraw_fee_rate = 20 */\n  dup2\n  swap1\n  sstore\n  pop\n    /* \"contracts/MultisigWallet.sol\":2554:2555  5 */\n  0x05\n    /* \"contracts/MultisigWallet.sol\":2532:2551  withdraw_free_count */\n  0x0b\n    /* \"contracts/MultisigWallet.sol\":2532:2555  withdraw_free_count = 5 */\n  dup2\n  swap1\n  sstore\n  pop\n    /* \"contracts/MultisigWallet.sol\":1814:2559  constructor(address[] memory collaborators_, uint8 at_least_sign_count_) {... */\n  pop\n  pop\n    /* \"contracts/MultisigWallet.sol\":108:8034  contract MultisigWallet {... */\n  jump(tag_20)\n    /* \"contracts/MultisigWallet.sol\":2793:3163  function no_duplicated_collaborators() private view returns (bool) {... */\ntag_10:\n    /* \"contracts/MultisigWallet.sol\":2854:2858  bool */\n  0x00\n    /* \"contracts/MultisigWallet.sol\":2864:2879  bool duplicated */\n  dup1\n    /* \"contracts/MultisigWallet.sol\":2882:2887  false */\n  0x00\n    /* \"contracts/MultisigWallet.sol\":2864:2887  bool duplicated = false */\n  swap1\n  pop\n    /* \"contracts/MultisigWallet.sol\":2895:2901  uint i */\n  0x00\n    /* \"contracts/MultisigWallet.sol\":2891:3138  for(uint i=0; i<collaborators.length; i++) {... */\ntag_22:\n    /* \"contracts/MultisigWallet.sol\":2907:2920  collaborators */\n  0x02\n    /* \"contracts/MultisigWallet.sol\":2907:2927  collaborators.length */\n  dup1\n  sload\n  swap1\n  pop\n    /* \"contracts/MultisigWallet.sol\":2905:2906  i */\n  dup2\n    /* \"contracts/MultisigWallet.sol\":2905:2927  i<collaborators.length */\n  lt\n    /* \"contracts/MultisigWallet.sol\":2891:3138  for(uint i=0; i<collaborators.length; i++) {... */\n  iszero\n  tag_23\n  jumpi\n    /* \"contracts/MultisigWallet.sol\":2970:2971  1 */\n  0x01\n    /* \"contracts/MultisigWallet.sol\":2947:2960  collaborators */\n  0x02\n    /* \"contracts/MultisigWallet.sol\":2947:2967  collaborators.length */\n  dup1\n  sload\n  swap1\n  pop\n    /* \"contracts/MultisigWallet.sol\":2947:2971  collaborators.length - 1 */\n  tag_25\n  swap2\n  swap1\n  tag_26\n  jump\t// in\ntag_25:\n    /* \"contracts/MultisigWallet.sol\":2942:2943  i */\n  dup2\n    /* \"contracts/MultisigWallet.sol\":2942:2971  i == collaborators.length - 1 */\n  eq\n    /* \"contracts/MultisigWallet.sol\":2939:2990  if(i == collaborators.length - 1) {... */\n  iszero\n  tag_27\n  jumpi\n    /* \"contracts/MultisigWallet.sol\":2979:2984  break */\n  jump(tag_23)\n    /* \"contracts/MultisigWallet.sol\":2939:2990  if(i == collaborators.length - 1) {... */\ntag_27:\n    /* \"contracts/MultisigWallet.sol\":2998:3004  uint j */\n  0x00\n    /* \"contracts/MultisigWallet.sol\":3007:3008  1 */\n  0x01\n    /* \"contracts/MultisigWallet.sol\":3005:3006  i */\n  dup3\n    /* \"contracts/MultisigWallet.sol\":3005:3008  i+1 */\n  tag_31\n  swap2\n  swap1\n  tag_32\n  jump\t// in\ntag_31:\n    /* \"contracts/MultisigWallet.sol\":2998:3008  uint j=i+1 */\n  swap1\n  pop\n    /* \"contracts/MultisigWallet.sol\":2994:3134  for(uint j=i+1; j<collaborators.length; j++) {... */\ntag_28:\n    /* \"contracts/MultisigWallet.sol\":3012:3025  collaborators */\n  0x02\n    /* \"contracts/MultisigWallet.sol\":3012:3032  collaborators.length */\n  dup1\n  sload\n  swap1\n  pop\n    /* \"contracts/MultisigWallet.sol\":3010:3011  j */\n  dup2\n    /* \"contracts/MultisigWallet.sol\":3010:3032  j<collaborators.length */\n  lt\n    /* \"contracts/MultisigWallet.sol\":2994:3134  for(uint j=i+1; j<collaborators.length; j++) {... */\n  iszero\n  tag_29\n  jumpi\n    /* \"contracts/MultisigWallet.sol\":3068:3081  collaborators */\n  0x02\n    /* \"contracts/MultisigWallet.sol\":3082:3083  j */\n  dup2\n    /* \"contracts/MultisigWallet.sol\":3068:3084  collaborators[j] */\n  dup2\n  sload\n  dup2\n  lt\n  tag_33\n  jumpi\n  tag_34\n  tag_35\n  jump\t// in\ntag_34:\ntag_33:\n  swap1\n  0x00\n  mstore\n  keccak256(0x00, 0x20)\n  add\n  0x00\n  swap1\n  sload\n  swap1\n  0x0100\n  exp\n  swap1\n  div\n  0xffffffffffffffffffffffffffffffffffffffff\n  and\n    /* \"contracts/MultisigWallet.sol\":3048:3084  collaborators[i] == collaborators[j] */\n  0xffffffffffffffffffffffffffffffffffffffff\n  and\n    /* \"contracts/MultisigWallet.sol\":3048:3061  collaborators */\n  0x02\n    /* \"contracts/MultisigWallet.sol\":3062:3063  i */\n  dup4\n    /* \"contracts/MultisigWallet.sol\":3048:3064  collaborators[i] */\n  dup2\n  sload\n  dup2\n  lt\n  tag_37\n  jumpi\n  tag_38\n  tag_35\n  jump\t// in\ntag_38:\ntag_37:\n  swap1\n  0x00\n  mstore\n  keccak256(0x00, 0x20)\n  add\n  0x00\n  swap1\n  sload\n  swap1\n  0x0100\n  exp\n  swap1\n  div\n  0xffffffffffffffffffffffffffffffffffffffff\n  and\n    /* \"contracts/MultisigWallet.sol\":3048:3084  collaborators[i] == collaborators[j] */\n  0xffffffffffffffffffffffffffffffffffffffff\n  and\n  eq\n    /* \"contracts/MultisigWallet.sol\":3045:3129  if(collaborators[i] == collaborators[j]) {... */\n  iszero\n  tag_40\n  jumpi\n    /* \"contracts/MultisigWallet.sol\":3106:3110  true */\n  0x01\n    /* \"contracts/MultisigWallet.sol\":3093:3110  duplicated = true */\n  swap3\n  pop\n    /* \"contracts/MultisigWallet.sol\":3117:3122  break */\n  jump(tag_29)\n    /* \"contracts/MultisigWallet.sol\":3045:3129  if(collaborators[i] == collaborators[j]) {... */\ntag_40:\n    /* \"contracts/MultisigWallet.sol\":3034:3037  j++ */\n  dup1\n  dup1\n  tag_41\n  swap1\n  tag_42\n  jump\t// in\ntag_41:\n  swap2\n  pop\n  pop\n    /* \"contracts/MultisigWallet.sol\":2994:3134  for(uint j=i+1; j<collaborators.length; j++) {... */\n  jump(tag_28)\ntag_29:\n  pop\n    /* \"contracts/MultisigWallet.sol\":2929:2932  i++ */\n  dup1\n  dup1\n  tag_43\n  swap1\n  tag_42\n  jump\t// in\ntag_43:\n  swap2\n  pop\n  pop\n    /* \"contracts/MultisigWallet.sol\":2891:3138  for(uint i=0; i<collaborators.length; i++) {... */\n  jump(tag_22)\ntag_23:\n  pop\n    /* \"contracts/MultisigWallet.sol\":3149:3159  duplicated */\n  dup1\n    /* \"contracts/MultisigWallet.sol\":3148:3159  !duplicated */\n  iszero\n    /* \"contracts/MultisigWallet.sol\":3141:3159  return !duplicated */\n  swap2\n  pop\n  pop\n    /* \"contracts/MultisigWallet.sol\":2793:3163  function no_duplicated_collaborators() private view returns (bool) {... */\n  swap1\n  jump\t// out\n    /* \"contracts/MultisigWallet.sol\":108:8034  contract MultisigWallet {... */\ntag_19:\n  dup3\n  dup1\n  sload\n  dup3\n  dup3\n  sstore\n  swap1\n  0x00\n  mstore\n  keccak256(0x00, 0x20)\n  swap1\n  dup2\n  add\n  swap3\n  dup3\n  iszero\n  tag_44\n  jumpi\n  swap2\n  0x20\n  mul\n  dup3\n  add\ntag_45:\n  dup3\n  dup2\n  gt\n  iszero\n  tag_46\n  jumpi\n  dup3\n  mload\n  dup3\n  exp(0x0100, 0x00)\n  dup2\n  sload\n  dup2\n  0xffffffffffffffffffffffffffffffffffffffff\n  mul\n  not\n  and\n  swap1\n  dup4\n  0xffffffffffffffffffffffffffffffffffffffff\n  and\n  mul\n  or\n  swap1\n  sstore\n  pop\n  swap2\n  0x20\n  add\n  swap2\n  swap1\n  0x01\n  add\n  swap1\n  jump(tag_45)\ntag_46:\ntag_44:\n  pop\n  swap1\n  pop\n  tag_47\n  swap2\n  swap1\n  tag_48\n  jump\t// in\ntag_47:\n  pop\n  swap1\n  jump\t// out\ntag_48:\ntag_49:\n  dup1\n  dup3\n  gt\n  iszero\n  tag_50\n  jumpi\n  0x00\n  dup2\n  0x00\n  swap1\n  sstore\n  pop\n  0x01\n  add\n  jump(tag_49)\ntag_50:\n  pop\n  swap1\n  jump\t// out\n    /* \"#utility.yul\":24:768   */\ntag_52:\n    /* \"#utility.yul\":131:136   */\n  0x00\n    /* \"#utility.yul\":156:237   */\n  tag_54\n    /* \"#utility.yul\":172:236   */\n  tag_55\n    /* \"#utility.yul\":229:235   */\n  dup5\n    /* \"#utility.yul\":172:236   */\n  tag_56\n  jump\t// in\ntag_55:\n    /* \"#utility.yul\":156:237   */\n  tag_57\n  jump\t// in\ntag_54:\n    /* \"#utility.yul\":147:237   */\n  swap1\n  pop\n    /* \"#utility.yul\":257:262   */\n  dup1\n    /* \"#utility.yul\":286:292   */\n  dup4\n    /* \"#utility.yul\":279:284   */\n  dup3\n    /* \"#utility.yul\":272:293   */\n  mstore\n    /* \"#utility.yul\":320:324   */\n  0x20\n    /* \"#utility.yul\":313:318   */\n  dup3\n    /* \"#utility.yul\":309:325   */\n  add\n    /* \"#utility.yul\":302:325   */\n  swap1\n  pop\n    /* \"#utility.yul\":346:352   */\n  dup3\n    /* \"#utility.yul\":396:399   */\n  dup6\n    /* \"#utility.yul\":388:392   */\n  0x20\n    /* \"#utility.yul\":380:386   */\n  dup7\n    /* \"#utility.yul\":376:393   */\n  mul\n    /* \"#utility.yul\":371:374   */\n  dup3\n    /* \"#utility.yul\":367:394   */\n  add\n    /* \"#utility.yul\":364:400   */\n  gt\n    /* \"#utility.yul\":361:504   */\n  iszero\n  tag_58\n  jumpi\n    /* \"#utility.yul\":415:494   */\n  tag_59\n  tag_60\n  jump\t// in\ntag_59:\n    /* \"#utility.yul\":361:504   */\ntag_58:\n    /* \"#utility.yul\":528:529   */\n  0x00\n    /* \"#utility.yul\":513:762   */\ntag_61:\n    /* \"#utility.yul\":538:544   */\n  dup6\n    /* \"#utility.yul\":535:536   */\n  dup2\n    /* \"#utility.yul\":532:545   */\n  lt\n    /* \"#utility.yul\":513:762   */\n  iszero\n  tag_63\n  jumpi\n    /* \"#utility.yul\":606:609   */\n  dup2\n    /* \"#utility.yul\":635:683   */\n  tag_64\n    /* \"#utility.yul\":679:682   */\n  dup9\n    /* \"#utility.yul\":667:677   */\n  dup3\n    /* \"#utility.yul\":635:683   */\n  tag_65\n  jump\t// in\ntag_64:\n    /* \"#utility.yul\":630:633   */\n  dup5\n    /* \"#utility.yul\":623:684   */\n  mstore\n    /* \"#utility.yul\":713:717   */\n  0x20\n    /* \"#utility.yul\":708:711   */\n  dup5\n    /* \"#utility.yul\":704:718   */\n  add\n    /* \"#utility.yul\":697:718   */\n  swap4\n  pop\n    /* \"#utility.yul\":747:751   */\n  0x20\n    /* \"#utility.yul\":742:745   */\n  dup4\n    /* \"#utility.yul\":738:752   */\n  add\n    /* \"#utility.yul\":731:752   */\n  swap3\n  pop\n    /* \"#utility.yul\":573:762   */\n  pop\n    /* \"#utility.yul\":560:561   */\n  0x01\n    /* \"#utility.yul\":557:558   */\n  dup2\n    /* \"#utility.yul\":553:562   */\n  add\n    /* \"#utility.yul\":548:562   */\n  swap1\n  pop\n    /* \"#utility.yul\":513:762   */\n  jump(tag_61)\ntag_63:\n    /* \"#utility.yul\":517:531   */\n  pop\n    /* \"#utility.yul\":137:768   */\n  pop\n  pop\n    /* \"#utility.yul\":24:768   */\n  swap4\n  swap3\n  pop\n  pop\n  pop\n  jump\t// out\n    /* \"#utility.yul\":774:917   */\ntag_65:\n    /* \"#utility.yul\":831:836   */\n  0x00\n    /* \"#utility.yul\":862:868   */\n  dup2\n    /* \"#utility.yul\":856:869   */\n  mload\n    /* \"#utility.yul\":847:869   */\n  swap1\n  pop\n    /* \"#utility.yul\":878:911   */\n  tag_67\n    /* \"#utility.yul\":905:910   */\n  dup2\n    /* \"#utility.yul\":878:911   */\n  tag_68\n  jump\t// in\ntag_67:\n    /* \"#utility.yul\":774:917   */\n  swap3\n  swap2\n  pop\n  pop\n  jump\t// out\n    /* \"#utility.yul\":940:1325   */\ntag_69:\n    /* \"#utility.yul\":1022:1027   */\n  0x00\n    /* \"#utility.yul\":1071:1074   */\n  dup3\n    /* \"#utility.yul\":1064:1068   */\n  0x1f\n    /* \"#utility.yul\":1056:1062   */\n  dup4\n    /* \"#utility.yul\":1052:1069   */\n  add\n    /* \"#utility.yul\":1048:1075   */\n  slt\n    /* \"#utility.yul\":1038:1160   */\n  tag_71\n  jumpi\n    /* \"#utility.yul\":1079:1158   */\n  tag_72\n  tag_73\n  jump\t// in\ntag_72:\n    /* \"#utility.yul\":1038:1160   */\ntag_71:\n    /* \"#utility.yul\":1189:1195   */\n  dup2\n    /* \"#utility.yul\":1183:1196   */\n  mload\n    /* \"#utility.yul\":1214:1319   */\n  tag_74\n    /* \"#utility.yul\":1315:1318   */\n  dup5\n    /* \"#utility.yul\":1307:1313   */\n  dup3\n    /* \"#utility.yul\":1300:1304   */\n  0x20\n    /* \"#utility.yul\":1292:1298   */\n  dup7\n    /* \"#utility.yul\":1288:1305   */\n  add\n    /* \"#utility.yul\":1214:1319   */\n  tag_52\n  jump\t// in\ntag_74:\n    /* \"#utility.yul\":1205:1319   */\n  swap2\n  pop\n    /* \"#utility.yul\":1028:1325   */\n  pop\n    /* \"#utility.yul\":940:1325   */\n  swap3\n  swap2\n  pop\n  pop\n  jump\t// out\n    /* \"#utility.yul\":1331:1470   */\ntag_75:\n    /* \"#utility.yul\":1386:1391   */\n  0x00\n    /* \"#utility.yul\":1417:1423   */\n  dup2\n    /* \"#utility.yul\":1411:1424   */\n  mload\n    /* \"#utility.yul\":1402:1424   */\n  swap1\n  pop\n    /* \"#utility.yul\":1433:1464   */\n  tag_77\n    /* \"#utility.yul\":1458:1463   */\n  dup2\n    /* \"#utility.yul\":1433:1464   */\n  tag_78\n  jump\t// in\ntag_77:\n    /* \"#utility.yul\":1331:1470   */\n  swap3\n  swap2\n  pop\n  pop\n  jump\t// out\n    /* \"#utility.yul\":1476:2182   */\ntag_3:\n    /* \"#utility.yul\":1578:1584   */\n  0x00\n    /* \"#utility.yul\":1586:1592   */\n  dup1\n    /* \"#utility.yul\":1635:1637   */\n  0x40\n    /* \"#utility.yul\":1623:1632   */\n  dup4\n    /* \"#utility.yul\":1614:1621   */\n  dup6\n    /* \"#utility.yul\":1610:1633   */\n  sub\n    /* \"#utility.yul\":1606:1638   */\n  slt\n    /* \"#utility.yul\":1603:1722   */\n  iszero\n  tag_80\n  jumpi\n    /* \"#utility.yul\":1641:1720   */\n  tag_81\n  tag_82\n  jump\t// in\ntag_81:\n    /* \"#utility.yul\":1603:1722   */\ntag_80:\n    /* \"#utility.yul\":1782:1783   */\n  0x00\n    /* \"#utility.yul\":1771:1780   */\n  dup4\n    /* \"#utility.yul\":1767:1784   */\n  add\n    /* \"#utility.yul\":1761:1785   */\n  mload\n    /* \"#utility.yul\":1812:1830   */\n  0xffffffffffffffff\n    /* \"#utility.yul\":1804:1810   */\n  dup2\n    /* \"#utility.yul\":1801:1831   */\n  gt\n    /* \"#utility.yul\":1798:1915   */\n  iszero\n  tag_83\n  jumpi\n    /* \"#utility.yul\":1834:1913   */\n  tag_84\n  tag_85\n  jump\t// in\ntag_84:\n    /* \"#utility.yul\":1798:1915   */\ntag_83:\n    /* \"#utility.yul\":1939:2028   */\n  tag_86\n    /* \"#utility.yul\":2020:2027   */\n  dup6\n    /* \"#utility.yul\":2011:2017   */\n  dup3\n    /* \"#utility.yul\":2000:2009   */\n  dup7\n    /* \"#utility.yul\":1996:2018   */\n  add\n    /* \"#utility.yul\":1939:2028   */\n  tag_69\n  jump\t// in\ntag_86:\n    /* \"#utility.yul\":1929:2028   */\n  swap3\n  pop\n    /* \"#utility.yul\":1732:2038   */\n  pop\n    /* \"#utility.yul\":2077:2079   */\n  0x20\n    /* \"#utility.yul\":2103:2165   */\n  tag_87\n    /* \"#utility.yul\":2157:2164   */\n  dup6\n    /* \"#utility.yul\":2148:2154   */\n  dup3\n    /* \"#utility.yul\":2137:2146   */\n  dup7\n    /* \"#utility.yul\":2133:2155   */\n  add\n    /* \"#utility.yul\":2103:2165   */\n  tag_75\n  jump\t// in\ntag_87:\n    /* \"#utility.yul\":2093:2165   */\n  swap2\n  pop\n    /* \"#utility.yul\":2048:2175   */\n  pop\n    /* \"#utility.yul\":1476:2182   */\n  swap3\n  pop\n  swap3\n  swap1\n  pop\n  jump\t// out\n    /* \"#utility.yul\":2188:2554   */\ntag_88:\n    /* \"#utility.yul\":2330:2333   */\n  0x00\n    /* \"#utility.yul\":2351:2418   */\n  tag_90\n    /* \"#utility.yul\":2415:2417   */\n  0x24\n    /* \"#utility.yul\":2410:2413   */\n  dup4\n    /* \"#utility.yul\":2351:2418   */\n  tag_91\n  jump\t// in\ntag_90:\n    /* \"#utility.yul\":2344:2418   */\n  swap2\n  pop\n    /* \"#utility.yul\":2427:2520   */\n  tag_92\n    /* \"#utility.yul\":2516:2519   */\n  dup3\n    /* \"#utility.yul\":2427:2520   */\n  tag_93\n  jump\t// in\ntag_92:\n    /* \"#utility.yul\":2545:2547   */\n  0x40\n    /* \"#utility.yul\":2540:2543   */\n  dup3\n    /* \"#utility.yul\":2536:2548   */\n  add\n    /* \"#utility.yul\":2529:2548   */\n  swap1\n  pop\n    /* \"#utility.yul\":2188:2554   */\n  swap2\n  swap1\n  pop\n  jump\t// out\n    /* \"#utility.yul\":2560:2926   */\ntag_94:\n    /* \"#utility.yul\":2702:2705   */\n  0x00\n    /* \"#utility.yul\":2723:2790   */\n  tag_96\n    /* \"#utility.yul\":2787:2789   */\n  0x27\n    /* \"#utility.yul\":2782:2785   */\n  dup4\n    /* \"#utility.yul\":2723:2790   */\n  tag_91\n  jump\t// in\ntag_96:\n    /* \"#utility.yul\":2716:2790   */\n  swap2\n  pop\n    /* \"#utility.yul\":2799:2892   */\n  tag_97\n    /* \"#utility.yul\":2888:2891   */\n  dup3\n    /* \"#utility.yul\":2799:2892   */\n  tag_98\n  jump\t// in\ntag_97:\n    /* \"#utility.yul\":2917:2919   */\n  0x40\n    /* \"#utility.yul\":2912:2915   */\n  dup3\n    /* \"#utility.yul\":2908:2920   */\n  add\n    /* \"#utility.yul\":2901:2920   */\n  swap1\n  pop\n    /* \"#utility.yul\":2560:2926   */\n  swap2\n  swap1\n  pop\n  jump\t// out\n    /* \"#utility.yul\":2932:3298   */\ntag_99:\n    /* \"#utility.yul\":3074:3077   */\n  0x00\n    /* \"#utility.yul\":3095:3162   */\n  tag_101\n    /* \"#utility.yul\":3159:3161   */\n  0x50\n    /* \"#utility.yul\":3154:3157   */\n  dup4\n    /* \"#utility.yul\":3095:3162   */\n  tag_91\n  jump\t// in\ntag_101:\n    /* \"#utility.yul\":3088:3162   */\n  swap2\n  pop\n    /* \"#utility.yul\":3171:3264   */\n  tag_102\n    /* \"#utility.yul\":3260:3263   */\n  dup3\n    /* \"#utility.yul\":3171:3264   */\n  tag_103\n  jump\t// in\ntag_102:\n    /* \"#utility.yul\":3289:3291   */\n  0x60\n    /* \"#utility.yul\":3284:3287   */\n  dup3\n    /* \"#utility.yul\":3280:3292   */\n  add\n    /* \"#utility.yul\":3273:3292   */\n  swap1\n  pop\n    /* \"#utility.yul\":2932:3298   */\n  swap2\n  swap1\n  pop\n  jump\t// out\n    /* \"#utility.yul\":3304:3723   */\ntag_8:\n    /* \"#utility.yul\":3470:3474   */\n  0x00\n    /* \"#utility.yul\":3508:3510   */\n  0x20\n    /* \"#utility.yul\":3497:3506   */\n  dup3\n    /* \"#utility.yul\":3493:3511   */\n  add\n    /* \"#utility.yul\":3485:3511   */\n  swap1\n  pop\n    /* \"#utility.yul\":3557:3566   */\n  dup2\n    /* \"#utility.yul\":3551:3555   */\n  dup2\n    /* \"#utility.yul\":3547:3567   */\n  sub\n    /* \"#utility.yul\":3543:3544   */\n  0x00\n    /* \"#utility.yul\":3532:3541   */\n  dup4\n    /* \"#utility.yul\":3528:3545   */\n  add\n    /* \"#utility.yul\":3521:3568   */\n  mstore\n    /* \"#utility.yul\":3585:3716   */\n  tag_105\n    /* \"#utility.yul\":3711:3715   */\n  dup2\n    /* \"#utility.yul\":3585:3716   */\n  tag_88\n  jump\t// in\ntag_105:\n    /* \"#utility.yul\":3577:3716   */\n  swap1\n  pop\n    /* \"#utility.yul\":3304:3723   */\n  swap2\n  swap1\n  pop\n  jump\t// out\n    /* \"#utility.yul\":3729:4148   */\ntag_13:\n    /* \"#utility.yul\":3895:3899   */\n  0x00\n    /* \"#utility.yul\":3933:3935   */\n  0x20\n    /* \"#utility.yul\":3922:3931   */\n  dup3\n    /* \"#utility.yul\":3918:3936   */\n  add\n    /* \"#utility.yul\":3910:3936   */\n  swap1\n  pop\n    /* \"#utility.yul\":3982:3991   */\n  dup2\n    /* \"#utility.yul\":3976:3980   */\n  dup2\n    /* \"#utility.yul\":3972:3992   */\n  sub\n    /* \"#utility.yul\":3968:3969   */\n  0x00\n    /* \"#utility.yul\":3957:3966   */\n  dup4\n    /* \"#utility.yul\":3953:3970   */\n  add\n    /* \"#utility.yul\":3946:3993   */\n  mstore\n    /* \"#utility.yul\":4010:4141   */\n  tag_107\n    /* \"#utility.yul\":4136:4140   */\n  dup2\n    /* \"#utility.yul\":4010:4141   */\n  tag_94\n  jump\t// in\ntag_107:\n    /* \"#utility.yul\":4002:4141   */\n  swap1\n  pop\n    /* \"#utility.yul\":3729:4148   */\n  swap2\n  swap1\n  pop\n  jump\t// out\n    /* \"#utility.yul\":4154:4573   */\ntag_17:\n    /* \"#utility.yul\":4320:4324   */\n  0x00\n    /* \"#utility.yul\":4358:4360   */\n  0x20\n    /* \"#utility.yul\":4347:4356   */\n  dup3\n    /* \"#utility.yul\":4343:4361   */\n  add\n    /* \"#utility.yul\":4335:4361   */\n  swap1\n  pop\n    /* \"#utility.yul\":4407:4416   */\n  dup2\n    /* \"#utility.yul\":4401:4405   */\n  dup2\n    /* \"#utility.yul\":4397:4417   */\n  sub\n    /* \"#utility.yul\":4393:4394   */\n  0x00\n    /* \"#utility.yul\":4382:4391   */\n  dup4\n    /* \"#utility.yul\":4378:4395   */\n  add\n    /* \"#utility.yul\":4371:4418   */\n  mstore\n    /* \"#utility.yul\":4435:4566   */\n  tag_109\n    /* \"#utility.yul\":4561:4565   */\n  dup2\n    /* \"#utility.yul\":4435:4566   */\n  tag_99\n  jump\t// in\ntag_109:\n    /* \"#utility.yul\":4427:4566   */\n  swap1\n  pop\n    /* \"#utility.yul\":4154:4573   */\n  swap2\n  swap1\n  pop\n  jump\t// out\n    /* \"#utility.yul\":4579:4708   */\ntag_57:\n    /* \"#utility.yul\":4613:4619   */\n  0x00\n    /* \"#utility.yul\":4640:4660   */\n  tag_111\n  tag_112\n  jump\t// in\ntag_111:\n    /* \"#utility.yul\":4630:4660   */\n  swap1\n  pop\n    /* \"#utility.yul\":4669:4702   */\n  tag_113\n    /* \"#utility.yul\":4697:4701   */\n  dup3\n    /* \"#utility.yul\":4689:4695   */\n  dup3\n    /* \"#utility.yul\":4669:4702   */\n  tag_114\n  jump\t// in\ntag_113:\n    /* \"#utility.yul\":4579:4708   */\n  swap2\n  swap1\n  pop\n  jump\t// out\n    /* \"#utility.yul\":4714:4789   */\ntag_112:\n    /* \"#utility.yul\":4747:4753   */\n  0x00\n    /* \"#utility.yul\":4780:4782   */\n  0x40\n    /* \"#utility.yul\":4774:4783   */\n  mload\n    /* \"#utility.yul\":4764:4783   */\n  swap1\n  pop\n    /* \"#utility.yul\":4714:4789   */\n  swap1\n  jump\t// out\n    /* \"#utility.yul\":4795:5106   */\ntag_56:\n    /* \"#utility.yul\":4872:4876   */\n  0x00\n    /* \"#utility.yul\":4962:4980   */\n  0xffffffffffffffff\n    /* \"#utility.yul\":4954:4960   */\n  dup3\n    /* \"#utility.yul\":4951:4981   */\n  gt\n    /* \"#utility.yul\":4948:5004   */\n  iszero\n  tag_117\n  jumpi\n    /* \"#utility.yul\":4984:5002   */\n  tag_118\n  tag_119\n  jump\t// in\ntag_118:\n    /* \"#utility.yul\":4948:5004   */\ntag_117:\n    /* \"#utility.yul\":5034:5038   */\n  0x20\n    /* \"#utility.yul\":5026:5032   */\n  dup3\n    /* \"#utility.yul\":5022:5039   */\n  mul\n    /* \"#utility.yul\":5014:5039   */\n  swap1\n  pop\n    /* \"#utility.yul\":5094:5098   */\n  0x20\n    /* \"#utility.yul\":5088:5092   */\n  dup2\n    /* \"#utility.yul\":5084:5099   */\n  add\n    /* \"#utility.yul\":5076:5099   */\n  swap1\n  pop\n    /* \"#utility.yul\":4795:5106   */\n  swap2\n  swap1\n  pop\n  jump\t// out\n    /* \"#utility.yul\":5112:5281   */\ntag_91:\n    /* \"#utility.yul\":5196:5207   */\n  0x00\n    /* \"#utility.yul\":5230:5236   */\n  dup3\n    /* \"#utility.yul\":5225:5228   */\n  dup3\n    /* \"#utility.yul\":5218:5237   */\n  mstore\n    /* \"#utility.yul\":5270:5274   */\n  0x20\n    /* \"#utility.yul\":5265:5268   */\n  dup3\n    /* \"#utility.yul\":5261:5275   */\n  add\n    /* \"#utility.yul\":5246:5275   */\n  swap1\n  pop\n    /* \"#utility.yul\":5112:5281   */\n  swap3\n  swap2\n  pop\n  pop\n  jump\t// out\n    /* \"#utility.yul\":5287:5592   */\ntag_32:\n    /* \"#utility.yul\":5327:5330   */\n  0x00\n    /* \"#utility.yul\":5346:5366   */\n  tag_122\n    /* \"#utility.yul\":5364:5365   */\n  dup3\n    /* \"#utility.yul\":5346:5366   */\n  tag_123\n  jump\t// in\ntag_122:\n    /* \"#utility.yul\":5341:5366   */\n  swap2\n  pop\n    /* \"#utility.yul\":5380:5400   */\n  tag_124\n    /* \"#utility.yul\":5398:5399   */\n  dup4\n    /* \"#utility.yul\":5380:5400   */\n  tag_123\n  jump\t// in\ntag_124:\n    /* \"#utility.yul\":5375:5400   */\n  swap3\n  pop\n    /* \"#utility.yul\":5534:5535   */\n  dup3\n    /* \"#utility.yul\":5466:5532   */\n  0xffffffffffffffffffffffffffffffffffffffffffffffffffffffffffffffff\n    /* \"#utility.yul\":5462:5536   */\n  sub\n    /* \"#utility.yul\":5459:5460   */\n  dup3\n    /* \"#utility.yul\":5456:5537   */\n  gt\n    /* \"#utility.yul\":5453:5560   */\n  iszero\n  tag_125\n  jumpi\n    /* \"#utility.yul\":5540:5558   */\n  tag_126\n  tag_127\n  jump\t// in\ntag_126:\n    /* \"#utility.yul\":5453:5560   */\ntag_125:\n    /* \"#utility.yul\":5584:5585   */\n  dup3\n    /* \"#utility.yul\":5581:5582   */\n  dup3\n    /* \"#utility.yul\":5577:5586   */\n  add\n    /* \"#utility.yul\":5570:5586   */\n  swap1\n  pop\n    /* \"#utility.yul\":5287:5592   */\n  swap3\n  swap2\n  pop\n  pop\n  jump\t// out\n    /* \"#utility.yul\":5598:5789   */\ntag_26:\n    /* \"#utility.yul\":5638:5642   */\n  0x00\n    /* \"#utility.yul\":5658:5678   */\n  tag_129\n    /* \"#utility.yul\":5676:5677   */\n  dup3\n    /* \"#utility.yul\":5658:5678   */\n  tag_123\n  jump\t// in\ntag_129:\n    /* \"#utility.yul\":5653:5678   */\n  swap2\n  pop\n    /* \"#utility.yul\":5692:5712   */\n  tag_130\n    /* \"#utility.yul\":5710:5711   */\n  dup4\n    /* \"#utility.yul\":5692:5712   */\n  tag_123\n  jump\t// in\ntag_130:\n    /* \"#utility.yul\":5687:5712   */\n  swap3\n  pop\n    /* \"#utility.yul\":5731:5732   */\n  dup3\n    /* \"#utility.yul\":5728:5729   */\n  dup3\n    /* \"#utility.yul\":5725:5733   */\n  lt\n    /* \"#utility.yul\":5722:5756   */\n  iszero\n  tag_131\n  jumpi\n    /* \"#utility.yul\":5736:5754   */\n  tag_132\n  tag_127\n  jump\t// in\ntag_132:\n    /* \"#utility.yul\":5722:5756   */\ntag_131:\n    /* \"#utility.yul\":5781:5782   */\n  dup3\n    /* \"#utility.yul\":5778:5779   */\n  dup3\n    /* \"#utility.yul\":5774:5783   */\n  sub\n    /* \"#utility.yul\":5766:5783   */\n  swap1\n  pop\n    /* \"#utility.yul\":5598:5789   */\n  swap3\n  swap2\n  pop\n  pop\n  jump\t// out\n    /* \"#utility.yul\":5795:5891   */\ntag_133:\n    /* \"#utility.yul\":5832:5839   */\n  0x00\n    /* \"#utility.yul\":5861:5885   */\n  tag_135\n    /* \"#utility.yul\":5879:5884   */\n  dup3\n    /* \"#utility.yul\":5861:5885   */\n  tag_136\n  jump\t// in\ntag_135:\n    /* \"#utility.yul\":5850:5885   */\n  swap1\n  pop\n    /* \"#utility.yul\":5795:5891   */\n  swap2\n  swap1\n  pop\n  jump\t// out\n    /* \"#utility.yul\":5897:6023   */\ntag_136:\n    /* \"#utility.yul\":5934:5941   */\n  0x00\n    /* \"#utility.yul\":5974:6016   */\n  0xffffffffffffffffffffffffffffffffffffffff\n    /* \"#utility.yul\":5967:5972   */\n  dup3\n    /* \"#utility.yul\":5963:6017   */\n  and\n    /* \"#utility.yul\":5952:6017   */\n  swap1\n  pop\n    /* \"#utility.yul\":5897:6023   */\n  swap2\n  swap1\n  pop\n  jump\t// out\n    /* \"#utility.yul\":6029:6106   */\ntag_123:\n    /* \"#utility.yul\":6066:6073   */\n  0x00\n    /* \"#utility.yul\":6095:6100   */\n  dup2\n    /* \"#utility.yul\":6084:6100   */\n  swap1\n  pop\n    /* \"#utility.yul\":6029:6106   */\n  swap2\n  swap1\n  pop\n  jump\t// out\n    /* \"#utility.yul\":6112:6198   */\ntag_139:\n    /* \"#utility.yul\":6147:6154   */\n  0x00\n    /* \"#utility.yul\":6187:6191   */\n  0xff\n    /* \"#utility.yul\":6180:6185   */\n  dup3\n    /* \"#utility.yul\":6176:6192   */\n  and\n    /* \"#utility.yul\":6165:6192   */\n  swap1\n  pop\n    /* \"#utility.yul\":6112:6198   */\n  swap2\n  swap1\n  pop\n  jump\t// out\n    /* \"#utility.yul\":6204:6485   */\ntag_114:\n    /* \"#utility.yul\":6287:6314   */\n  tag_142\n    /* \"#utility.yul\":6309:6313   */\n  dup3\n    /* \"#utility.yul\":6287:6314   */\n  tag_143\n  jump\t// in\ntag_142:\n    /* \"#utility.yul\":6279:6285   */\n  dup2\n    /* \"#utility.yul\":6275:6315   */\n  add\n    /* \"#utility.yul\":6417:6423   */\n  dup2\n    /* \"#utility.yul\":6405:6415   */\n  dup2\n    /* \"#utility.yul\":6402:6424   */\n  lt\n    /* \"#utility.yul\":6381:6399   */\n  0xffffffffffffffff\n    /* \"#utility.yul\":6369:6379   */\n  dup3\n    /* \"#utility.yul\":6366:6400   */\n  gt\n    /* \"#utility.yul\":6363:6425   */\n  or\n    /* \"#utility.yul\":6360:6448   */\n  iszero\n  tag_144\n  jumpi\n    /* \"#utility.yul\":6428:6446   */\n  tag_145\n  tag_119\n  jump\t// in\ntag_145:\n    /* \"#utility.yul\":6360:6448   */\ntag_144:\n    /* \"#utility.yul\":6468:6478   */\n  dup1\n    /* \"#utility.yul\":6464:6466   */\n  0x40\n    /* \"#utility.yul\":6457:6479   */\n  mstore\n    /* \"#utility.yul\":6247:6485   */\n  pop\n    /* \"#utility.yul\":6204:6485   */\n  pop\n  pop\n  jump\t// out\n    /* \"#utility.yul\":6491:6724   */\ntag_42:\n    /* \"#utility.yul\":6530:6533   */\n  0x00\n    /* \"#utility.yul\":6553:6577   */\n  tag_147\n    /* \"#utility.yul\":6571:6576   */\n  dup3\n    /* \"#utility.yul\":6553:6577   */\n  tag_123\n  jump\t// in\ntag_147:\n    /* \"#utility.yul\":6544:6577   */\n  swap2\n  pop\n    /* \"#utility.yul\":6599:6665   */\n  0xffffffffffffffffffffffffffffffffffffffffffffffffffffffffffffffff\n    /* \"#utility.yul\":6592:6597   */\n  dup3\n    /* \"#utility.yul\":6589:6666   */\n  eq\n    /* \"#utility.yul\":6586:6689   */\n  iszero\n  tag_148\n  jumpi\n    /* \"#utility.yul\":6669:6687   */\n  tag_149\n  tag_127\n  jump\t// in\ntag_149:\n    /* \"#utility.yul\":6586:6689   */\ntag_148:\n    /* \"#utility.yul\":6716:6717   */\n  0x01\n    /* \"#utility.yul\":6709:6714   */\n  dup3\n    /* \"#utility.yul\":6705:6718   */\n  add\n    /* \"#utility.yul\":6698:6718   */\n  swap1\n  pop\n    /* \"#utility.yul\":6491:6724   */\n  swap2\n  swap1\n  pop\n  jump\t// out\n    /* \"#utility.yul\":6730:6910   */\ntag_127:\n    /* \"#utility.yul\":6778:6855   */\n  0x4e487b7100000000000000000000000000000000000000000000000000000000\n    /* \"#utility.yul\":6775:6776   */\n  0x00\n    /* \"#utility.yul\":6768:6856   */\n  mstore\n    /* \"#utility.yul\":6875:6879   */\n  0x11\n    /* \"#utility.yul\":6872:6873   */\n  0x04\n    /* \"#utility.yul\":6865:6880   */\n  mstore\n    /* \"#utility.yul\":6899:6903   */\n  0x24\n    /* \"#utility.yul\":6896:6897   */\n  0x00\n    /* \"#utility.yul\":6889:6904   */\n  revert\n    /* \"#utility.yul\":6916:7096   */\ntag_35:\n    /* \"#utility.yul\":6964:7041   */\n  0x4e487b7100000000000000000000000000000000000000000000000000000000\n    /* \"#utility.yul\":6961:6962   */\n  0x00\n    /* \"#utility.yul\":6954:7042   */\n  mstore\n    /* \"#utility.yul\":7061:7065   */\n  0x32\n    /* \"#utility.yul\":7058:7059   */\n  0x04\n    /* \"#utility.yul\":7051:7066   */\n  mstore\n    /* \"#utility.yul\":7085:7089   */\n  0x24\n    /* \"#utility.yul\":7082:7083   */\n  0x00\n    /* \"#utility.yul\":7075:7090   */\n  revert\n    /* \"#utility.yul\":7102:7282   */\ntag_119:\n    /* \"#utility.yul\":7150:7227   */\n  0x4e487b7100000000000000000000000000000000000000000000000000000000\n    /* \"#utility.yul\":7147:7148   */\n  0x00\n    /* \"#utility.yul\":7140:7228   */\n  mstore\n    /* \"#utility.yul\":7247:7251   */\n  0x41\n    /* \"#utility.yul\":7244:7245   */\n  0x04\n    /* \"#utility.yul\":7237:7252   */\n  mstore\n    /* \"#utility.yul\":7271:7275   */\n  0x24\n    /* \"#utility.yul\":7268:7269   */\n  0x00\n    /* \"#utility.yul\":7261:7276   */\n  revert\n    /* \"#utility.yul\":7288:7405   */\ntag_73:\n    /* \"#utility.yul\":7397:7398   */\n  0x00\n    /* \"#utility.yul\":7394:7395   */\n  dup1\n    /* \"#utility.yul\":7387:7399   */\n  revert\n    /* \"#utility.yul\":7411:7528   */\ntag_60:\n    /* \"#utility.yul\":7520:7521   */\n  0x00\n    /* \"#utility.yul\":7517:7518   */\n  dup1\n    /* \"#utility.yul\":7510:7522   */\n  revert\n    /* \"#utility.yul\":7534:7651   */\ntag_85:\n    /* \"#utility.yul\":7643:7644   */\n  0x00\n    /* \"#utility.yul\":7640:7641   */\n  dup1\n    /* \"#utility.yul\":7633:7645   */\n  revert\n    /* \"#utility.yul\":7657:7774   */\ntag_82:\n    /* \"#utility.yul\":7766:7767   */\n  0x00\n    /* \"#utility.yul\":7763:7764   */\n  dup1\n    /* \"#utility.yul\":7756:7768   */\n  revert\n    /* \"#utility.yul\":7780:7882   */\ntag_143:\n    /* \"#utility.yul\":7821:7827   */\n  0x00\n    /* \"#utility.yul\":7872:7874   */\n  0x1f\n    /* \"#utility.yul\":7868:7875   */\n  not\n    /* \"#utility.yul\":7863:7865   */\n  0x1f\n    /* \"#utility.yul\":7856:7861   */\n  dup4\n    /* \"#utility.yul\":7852:7866   */\n  add\n    /* \"#utility.yul\":7848:7876   */\n  and\n    /* \"#utility.yul\":7838:7876   */\n  swap1\n  pop\n    /* \"#utility.yul\":7780:7882   */\n  swap2\n  swap1\n  pop\n  jump\t// out\n    /* \"#utility.yul\":7888:8111   */\ntag_93:\n    /* \"#utility.yul\":8028:8062   */\n  0x616c6c20636f6c6c61626f7261746f727320636f756e74206174206c65617374\n    /* \"#utility.yul\":8024:8025   */\n  0x00\n    /* \"#utility.yul\":8016:8022   */\n  dup3\n    /* \"#utility.yul\":8012:8026   */\n  add\n    /* \"#utility.yul\":8005:8063   */\n  mstore\n    /* \"#utility.yul\":8097:8103   */\n  0x206f6e6500000000000000000000000000000000000000000000000000000000\n    /* \"#utility.yul\":8092:8094   */\n  0x20\n    /* \"#utility.yul\":8084:8090   */\n  dup3\n    /* \"#utility.yul\":8080:8095   */\n  add\n    /* \"#utility.yul\":8073:8104   */\n  mstore\n    /* \"#utility.yul\":7888:8111   */\n  pop\n  jump\t// out\n    /* \"#utility.yul\":8117:8343   */\ntag_98:\n    /* \"#utility.yul\":8257:8291   */\n  0x74686520636f6c6c61626f7261746f7273206d757374206e6f20626520647570\n    /* \"#utility.yul\":8253:8254   */\n  0x00\n    /* \"#utility.yul\":8245:8251   */\n  dup3\n    /* \"#utility.yul\":8241:8255   */\n  add\n    /* \"#utility.yul\":8234:8292   */\n  mstore\n    /* \"#utility.yul\":8326:8335   */\n  0x6c69636174656400000000000000000000000000000000000000000000000000\n    /* \"#utility.yul\":8321:8323   */\n  0x20\n    /* \"#utility.yul\":8313:8319   */\n  dup3\n    /* \"#utility.yul\":8309:8324   */\n  add\n    /* \"#utility.yul\":8302:8336   */\n  mstore\n    /* \"#utility.yul\":8117:8343   */\n  pop\n  jump\t// out\n    /* \"#utility.yul\":8349:8653   */\ntag_103:\n    /* \"#utility.yul\":8489:8523   */\n  0x6174206c65617374207369676e20636f756e74206d757374206d6f7265207468\n    /* \"#utility.yul\":8485:8486   */\n  0x00\n    /* \"#utility.yul\":8477:8483   */\n  dup3\n    /* \"#utility.yul\":8473:8487   */\n  add\n    /* \"#utility.yul\":8466:8524   */\n  mstore\n    /* \"#utility.yul\":8558:8592   */\n  0x616e203020616e64206c657373207468616e206f7220657175616c7320636f6c\n    /* \"#utility.yul\":8553:8555   */\n  0x20\n    /* \"#utility.yul\":8545:8551   */\n  dup3\n    /* \"#utility.yul\":8541:8556   */\n  add\n    /* \"#utility.yul\":8534:8593   */\n  mstore\n    /* \"#utility.yul\":8627:8645   */\n  0x6c61626f7261746f727320636f756e7400000000000000000000000000000000\n    /* \"#utility.yul\":8622:8624   */\n  0x40\n    /* \"#utility.yul\":8614:8620   */\n  dup3\n    /* \"#utility.yul\":8610:8625   */\n  add\n    /* \"#utility.yul\":8603:8646   */\n  mstore\n    /* \"#utility.yul\":8349:8653   */\n  pop\n  jump\t// out\n    /* \"#utility.yul\":8659:8781   */\ntag_68:\n    /* \"#utility.yul\":8732:8756   */\n  tag_162\n    /* \"#utility.yul\":8750:8755   */\n  dup2\n    /* \"#utility.yul\":8732:8756   */\n  tag_133\n  jump\t// in\ntag_162:\n    /* \"#utility.yul\":8725:8730   */\n  dup2\n    /* \"#utility.yul\":8722:8757   */\n  eq\n    /* \"#utility.yul\":8712:8775   */\n  tag_163\n  jumpi\n    /* \"#utility.yul\":8771:8772   */\n  0x00\n    /* \"#utility.yul\":8768:8769   */\n  dup1\n    /* \"#utility.yul\":8761:8773   */\n  revert\n    /* \"#utility.yul\":8712:8775   */\ntag_163:\n    /* \"#utility.yul\":8659:8781   */\n  pop\n  jump\t// out\n    /* \"#utility.yul\":8787:8905   */\ntag_78:\n    /* \"#utility.yul\":8858:8880   */\n  tag_165\n    /* \"#utility.yul\":8874:8879   */\n  dup2\n    /* \"#utility.yul\":8858:8880   */\n  tag_139\n  jump\t// in\ntag_165:\n    /* \"#utility.yul\":8851:8856   */\n  dup2\n    /* \"#utility.yul\":8848:8881   */\n  eq\n    /* \"#utility.yul\":8838:8899   */\n  tag_166\n  jumpi\n    /* \"#utility.yul\":8895:8896   */\n  0x00\n    /* \"#utility.yul\":8892:8893   */\n  dup1\n    /* \"#utility.yul\":8885:8897   */\n  revert\n    /* \"#utility.yul\":8838:8899   */\ntag_166:\n    /* \"#utility.yul\":8787:8905   */\n  pop\n  jump\t// out\n    /* \"contracts/MultisigWallet.sol\":108:8034  contract MultisigWallet {... */\ntag_20:\n  dataSize(sub_0)\n  dup1\n  dataOffset(sub_0)\n  0x00\n  codecopy\n  0x00\n  return\nstop\n\nsub_0: assembly {\n        /* \"contracts/MultisigWallet.sol\":108:8034  contract MultisigWallet {... */\n      mstore(0x40, 0x80)\n      jumpi(tag_1, lt(calldatasize, 0x04))\n      shr(0xe0, calldataload(0x00))\n      dup1\n      0xb517e0b4\n      gt\n      tag_12\n      jumpi\n      dup1\n      0xb517e0b4\n      eq\n      tag_7\n      jumpi\n      dup1\n      0xb69ef8a8\n      eq\n      tag_8\n      jumpi\n      dup1\n      0xbc44e739\n      eq\n      tag_9\n      jumpi\n      dup1\n      0xca3ea43f\n      eq\n      tag_10\n      jumpi\n      dup1\n      0xcfa4a5f6\n      eq\n      tag_11\n      jumpi\n      jump(tag_2)\n    tag_12:\n      dup1\n      0x3bdf3e\n      eq\n      tag_3\n      jumpi\n      dup1\n      0x1535430b\n      eq\n      tag_4\n      jumpi\n      dup1\n      0x352ce050\n      eq\n      tag_5\n      jumpi\n      dup1\n      0x3a0a197b\n      eq\n      tag_6\n      jumpi\n      jump(tag_2)\n    tag_1:\n      jumpi(tag_2, calldatasize)\n        /* \"contracts/MultisigWallet.sol\":3671:3672  0 */\n      0x00\n        /* \"contracts/MultisigWallet.sol\":3659:3668  msg.value */\n      callvalue\n        /* \"contracts/MultisigWallet.sol\":3659:3672  msg.value > 0 */\n      gt\n        /* \"contracts/MultisigWallet.sol\":3651:3765  require(msg.value > 0, \"store must more than 0 wei, indeed the gas fee do not decrease if you topin a low value.\") */\n      tag_15\n      jumpi\n      mload(0x40)\n      0x08c379a000000000000000000000000000000000000000000000000000000000\n      dup2\n      mstore\n      0x04\n      add\n      tag_16\n      swap1\n      tag_17\n      jump\t// in\n    tag_16:\n      mload(0x40)\n      dup1\n      swap2\n      sub\n      swap1\n      revert\n    tag_15:\n        /* \"contracts/MultisigWallet.sol\":3780:3789  msg.value */\n      callvalue\n        /* \"contracts/MultisigWallet.sol\":3769:3776  balance */\n      0x00\n      dup1\n        /* \"contracts/MultisigWallet.sol\":3769:3789  balance += msg.value */\n      dup3\n      dup3\n      sload\n      tag_18\n      swap2\n      swap1\n      tag_19\n      jump\t// in\n    tag_18:\n      swap3\n      pop\n      pop\n      dup2\n      swap1\n      sstore\n      pop\n        /* \"contracts/MultisigWallet.sol\":3819:3828  msg.value */\n      callvalue\n        /* \"contracts/MultisigWallet.sol\":3806:3816  msg.sender */\n      caller\n        /* \"contracts/MultisigWallet.sol\":3798:3829  Deposit(msg.sender,  msg.value) */\n      0xffffffffffffffffffffffffffffffffffffffff\n      and\n      0xe1fffcc4923d04b559f4d29a8bfc6cda04eb5b0d3c460751c2402c5c5cc9109c\n      mload(0x40)\n      mload(0x40)\n      dup1\n      swap2\n      sub\n      swap1\n      log3\n        /* \"contracts/MultisigWallet.sol\":108:8034  contract MultisigWallet {... */\n      stop\n    tag_2:\n      0x00\n      dup1\n      revert\n        /* \"contracts/MultisigWallet.sol\":3836:4448  function process_withdraw(uint weis, address payable targetAddress) public onlyCollaborators {... */\n    tag_3:\n      callvalue\n      dup1\n      iszero\n      tag_20\n      jumpi\n      0x00\n      dup1\n      revert\n    tag_20:\n      pop\n      tag_21\n      0x04\n      dup1\n      calldatasize\n      sub\n      dup2\n      add\n      swap1\n      tag_22\n      swap2\n      swap1\n      tag_23\n      jump\t// in\n    tag_22:\n      tag_24\n      jump\t// in\n    tag_21:\n      stop\n        /* \"contracts/MultisigWallet.sol\":4814:5512  function cancel_withdraw_by_counterparty() public onlyCollaborators {... */\n    tag_4:\n      callvalue\n      dup1\n      iszero\n      tag_25\n      jumpi\n      0x00\n      dup1\n      revert\n    tag_25:\n      pop\n      tag_26\n      tag_27\n      jump\t// in\n    tag_26:\n      stop\n        /* \"contracts/MultisigWallet.sol\":6166:6530  function collaboratorSign() public onlyCollaborators {... */\n    tag_5:\n      callvalue\n      dup1\n      iszero\n      tag_28\n      jumpi\n      0x00\n      dup1\n      revert\n    tag_28:\n      pop\n      tag_29\n      tag_30\n      jump\t// in\n    tag_29:\n      stop\n        /* \"contracts/MultisigWallet.sol\":1163:1192  uint public withdraw_fee_rate */\n    tag_6:\n      callvalue\n      dup1\n      iszero\n      tag_31\n      jumpi\n      0x00\n      dup1\n      revert\n    tag_31:\n      pop\n      tag_32\n      tag_33\n      jump\t// in\n    tag_32:\n      mload(0x40)\n      tag_34\n      swap2\n      swap1\n      tag_35\n      jump\t// in\n    tag_34:\n      mload(0x40)\n      dup1\n      swap2\n      sub\n      swap1\n      return\n        /* \"contracts/MultisigWallet.sol\":5554:5716  function cancel_withdraw() public onlyCollaborators {... */\n    tag_7:\n      callvalue\n      dup1\n      iszero\n      tag_36\n      jumpi\n      0x00\n      dup1\n      revert\n    tag_36:\n      pop\n      tag_37\n      tag_38\n      jump\t// in\n    tag_37:\n      stop\n        /* \"contracts/MultisigWallet.sol\":169:188  uint public balance */\n    tag_8:\n      callvalue\n      dup1\n      iszero\n      tag_39\n      jumpi\n      0x00\n      dup1\n      revert\n    tag_39:\n      pop\n      tag_40\n      tag_41\n      jump\t// in\n    tag_40:\n      mload(0x40)\n      tag_42\n      swap2\n      swap1\n      tag_35\n      jump\t// in\n    tag_42:\n      mload(0x40)\n      dup1\n      swap2\n      sub\n      swap1\n      return\n        /* \"contracts/MultisigWallet.sol\":2565:2790  function changePlatformAccount(address newAccount) public {... */\n    tag_9:\n      callvalue\n      dup1\n      iszero\n      tag_43\n      jumpi\n      0x00\n      dup1\n      revert\n    tag_43:\n      pop\n      tag_44\n      0x04\n      dup1\n      calldatasize\n      sub\n      dup2\n      add\n      swap1\n      tag_45\n      swap2\n      swap1\n      tag_46\n      jump\t// in\n    tag_45:\n      tag_47\n      jump\t// in\n    tag_44:\n      stop\n        /* \"contracts/MultisigWallet.sol\":1085:1111  uint public withdraw_count */\n    tag_10:\n      callvalue\n      dup1\n      iszero\n      tag_48\n      jumpi\n      0x00\n      dup1\n      revert\n    tag_48:\n      pop\n      tag_49\n      tag_50\n      jump\t// in\n    tag_49:\n      mload(0x40)\n      tag_51\n      swap2\n      swap1\n      tag_35\n      jump\t// in\n    tag_51:\n      mload(0x40)\n      dup1\n      swap2\n      sub\n      swap1\n      return\n        /* \"contracts/MultisigWallet.sol\":1220:1251  uint public withdraw_free_count */\n    tag_11:\n      callvalue\n      dup1\n      iszero\n      tag_52\n      jumpi\n      0x00\n      dup1\n      revert\n    tag_52:\n      pop\n      tag_53\n      tag_54\n      jump\t// in\n    tag_53:\n      mload(0x40)\n      tag_55\n      swap2\n      swap1\n      tag_35\n      jump\t// in\n    tag_55:\n      mload(0x40)\n      dup1\n      swap2\n      sub\n      swap1\n      return\n        /* \"contracts/MultisigWallet.sol\":3836:4448  function process_withdraw(uint weis, address payable targetAddress) public onlyCollaborators {... */\n    tag_24:\n        /* \"contracts/MultisigWallet.sol\":3488:3512  is_oneof_collaborators() */\n      tag_57\n        /* \"contracts/MultisigWallet.sol\":3488:3510  is_oneof_collaborators */\n      tag_58\n        /* \"contracts/MultisigWallet.sol\":3488:3512  is_oneof_collaborators() */\n      jump\t// in\n    tag_57:\n        /* \"contracts/MultisigWallet.sol\":3480:3555  require(is_oneof_collaborators(), \"only collaborators have the permission\") */\n      tag_59\n      jumpi\n      mload(0x40)\n      0x08c379a000000000000000000000000000000000000000000000000000000000\n      dup2\n      mstore\n      0x04\n      add\n      tag_60\n      swap1\n      tag_61\n      jump\t// in\n    tag_60:\n      mload(0x40)\n      dup1\n      swap2\n      sub\n      swap1\n      revert\n    tag_59:\n        /* \"contracts/MultisigWallet.sol\":3965:3966  0 */\n      0x00\n        /* \"contracts/MultisigWallet.sol\":3941:3961  waitfor_withdraw_wei */\n      sload(0x04)\n        /* \"contracts/MultisigWallet.sol\":3941:3966  waitfor_withdraw_wei == 0 */\n      eq\n        /* \"contracts/MultisigWallet.sol\":3933:4000  require(waitfor_withdraw_wei == 0, \"pre process has not been over\") */\n      tag_63\n      jumpi\n      mload(0x40)\n      0x08c379a000000000000000000000000000000000000000000000000000000000\n      dup2\n      mstore\n      0x04\n      add\n      tag_64\n      swap1\n      tag_65\n      jump\t// in\n    tag_64:\n      mload(0x40)\n      dup1\n      swap2\n      sub\n      swap1\n      revert\n    tag_63:\n        /* \"contracts/MultisigWallet.sol\":4022:4029  balance */\n      sload(0x00)\n        /* \"contracts/MultisigWallet.sol\":4014:4018  weis */\n      dup3\n        /* \"contracts/MultisigWallet.sol\":4014:4029  weis <= balance */\n      gt\n      iszero\n        /* \"contracts/MultisigWallet.sol\":4006:4078  require(weis <= balance, \"withdraw balance could not more than balance\") */\n      tag_66\n      jumpi\n      mload(0x40)\n      0x08c379a000000000000000000000000000000000000000000000000000000000\n      dup2\n      mstore\n      0x04\n      add\n      tag_67\n      swap1\n      tag_68\n      jump\t// in\n    tag_67:\n      mload(0x40)\n      dup1\n      swap2\n      sub\n      swap1\n      revert\n    tag_66:\n        /* \"contracts/MultisigWallet.sol\":4115:4118  0x0 */\n      0x00\n        /* \"contracts/MultisigWallet.sol\":4090:4119  targetAddress != address(0x0) */\n      0xffffffffffffffffffffffffffffffffffffffff\n      and\n        /* \"contracts/MultisigWallet.sol\":4090:4103  targetAddress */\n      dup2\n        /* \"contracts/MultisigWallet.sol\":4090:4119  targetAddress != address(0x0) */\n      0xffffffffffffffffffffffffffffffffffffffff\n      and\n      eq\n      iszero\n        /* \"contracts/MultisigWallet.sol\":4082:4145  require(targetAddress != address(0x0), \"invalid targetAddress\") */\n      tag_69\n      jumpi\n      mload(0x40)\n      0x08c379a000000000000000000000000000000000000000000000000000000000\n      dup2\n      mstore\n      0x04\n      add\n      tag_70\n      swap1\n      tag_71\n      jump\t// in\n    tag_70:\n      mload(0x40)\n      dup1\n      swap2\n      sub\n      swap1\n      revert\n    tag_69:\n        /* \"contracts/MultisigWallet.sol\":4161:4171  msg.sender */\n      caller\n        /* \"contracts/MultisigWallet.sol\":4149:4158  initiator */\n      0x06\n      0x00\n        /* \"contracts/MultisigWallet.sol\":4149:4171  initiator = msg.sender */\n      0x0100\n      exp\n      dup2\n      sload\n      dup2\n      0xffffffffffffffffffffffffffffffffffffffff\n      mul\n      not\n      and\n      swap1\n      dup4\n      0xffffffffffffffffffffffffffffffffffffffff\n      and\n      mul\n      or\n      swap1\n      sstore\n      pop\n        /* \"contracts/MultisigWallet.sol\":4198:4202  weis */\n      dup2\n        /* \"contracts/MultisigWallet.sol\":4175:4195  waitfor_withdraw_wei */\n      0x04\n        /* \"contracts/MultisigWallet.sol\":4175:4202  waitfor_withdraw_wei = weis */\n      dup2\n      swap1\n      sstore\n      pop\n        /* \"contracts/MultisigWallet.sol\":4233:4246  targetAddress */\n      dup1\n        /* \"contracts/MultisigWallet.sol\":4206:4230  waitfor_withdraw_address */\n      0x05\n      0x00\n        /* \"contracts/MultisigWallet.sol\":4206:4246  waitfor_withdraw_address = targetAddress */\n      0x0100\n      exp\n      dup2\n      sload\n      dup2\n      0xffffffffffffffffffffffffffffffffffffffff\n      mul\n      not\n      and\n      swap1\n      dup4\n      0xffffffffffffffffffffffffffffffffffffffff\n      and\n      mul\n      or\n      swap1\n      sstore\n      pop\n        /* \"contracts/MultisigWallet.sol\":4250:4264  current_signed */\n      0x07\n        /* \"contracts/MultisigWallet.sol\":4270:4280  msg.sender */\n      caller\n        /* \"contracts/MultisigWallet.sol\":4250:4281  current_signed.push(msg.sender) */\n      swap1\n      dup1\n      0x01\n      dup2\n      sload\n      add\n      dup1\n      dup3\n      sstore\n      dup1\n      swap2\n      pop\n      pop\n      0x01\n      swap1\n      sub\n      swap1\n      0x00\n      mstore\n      keccak256(0x00, 0x20)\n      add\n      0x00\n      swap1\n      swap2\n      swap1\n      swap2\n      swap1\n      swap2\n      0x0100\n      exp\n      dup2\n      sload\n      dup2\n      0xffffffffffffffffffffffffffffffffffffffff\n      mul\n      not\n      and\n      swap1\n      dup4\n      0xffffffffffffffffffffffffffffffffffffffff\n      and\n      mul\n      or\n      swap1\n      sstore\n      pop\n        /* \"contracts/MultisigWallet.sol\":4401:4420  signedCountEnough() */\n      tag_73\n        /* \"contracts/MultisigWallet.sol\":4401:4418  signedCountEnough */\n      tag_74\n        /* \"contracts/MultisigWallet.sol\":4401:4420  signedCountEnough() */\n      jump\t// in\n    tag_73:\n        /* \"contracts/MultisigWallet.sol\":4398:4445  if(signedCountEnough()) {... */\n      iszero\n      tag_75\n      jumpi\n        /* \"contracts/MultisigWallet.sol\":4427:4440  do_withdraw() */\n      tag_76\n        /* \"contracts/MultisigWallet.sol\":4427:4438  do_withdraw */\n      tag_77\n        /* \"contracts/MultisigWallet.sol\":4427:4440  do_withdraw() */\n      jump\t// in\n    tag_76:\n        /* \"contracts/MultisigWallet.sol\":4398:4445  if(signedCountEnough()) {... */\n    tag_75:\n        /* \"contracts/MultisigWallet.sol\":3836:4448  function process_withdraw(uint weis, address payable targetAddress) public onlyCollaborators {... */\n      pop\n      pop\n      jump\t// out\n        /* \"contracts/MultisigWallet.sol\":4814:5512  function cancel_withdraw_by_counterparty() public onlyCollaborators {... */\n    tag_27:\n        /* \"contracts/MultisigWallet.sol\":3488:3512  is_oneof_collaborators() */\n      tag_79\n        /* \"contracts/MultisigWallet.sol\":3488:3510  is_oneof_collaborators */\n      tag_58\n        /* \"contracts/MultisigWallet.sol\":3488:3512  is_oneof_collaborators() */\n      jump\t// in\n    tag_79:\n        /* \"contracts/MultisigWallet.sol\":3480:3555  require(is_oneof_collaborators(), \"only collaborators have the permission\") */\n      tag_80\n      jumpi\n      mload(0x40)\n      0x08c379a000000000000000000000000000000000000000000000000000000000\n      dup2\n      mstore\n      0x04\n      add\n      tag_81\n      swap1\n      tag_61\n      jump\t// in\n    tag_81:\n      mload(0x40)\n      dup1\n      swap2\n      sub\n      swap1\n      revert\n    tag_80:\n        /* \"contracts/MultisigWallet.sol\":4908:4917  initiator */\n      0x06\n      0x00\n      swap1\n      sload\n      swap1\n      0x0100\n      exp\n      swap1\n      div\n      0xffffffffffffffffffffffffffffffffffffffff\n      and\n        /* \"contracts/MultisigWallet.sol\":4894:4917  msg.sender != initiator */\n      0xffffffffffffffffffffffffffffffffffffffff\n      and\n        /* \"contracts/MultisigWallet.sol\":4894:4904  msg.sender */\n      caller\n        /* \"contracts/MultisigWallet.sol\":4894:4917  msg.sender != initiator */\n      0xffffffffffffffffffffffffffffffffffffffff\n      and\n      eq\n      iszero\n        /* \"contracts/MultisigWallet.sol\":4886:4980  require(msg.sender != initiator, \"only the counter party of initiator can call this function\") */\n      tag_83\n      jumpi\n      mload(0x40)\n      0x08c379a000000000000000000000000000000000000000000000000000000000\n      dup2\n      mstore\n      0x04\n      add\n      tag_84\n      swap1\n      tag_85\n      jump\t// in\n    tag_84:\n      mload(0x40)\n      dup1\n      swap2\n      sub\n      swap1\n      revert\n    tag_83:\n        /* \"contracts/MultisigWallet.sol\":4993:5057  address_array_in(current_cancel_counterparty_signed, msg.sender) */\n      tag_86\n        /* \"contracts/MultisigWallet.sol\":5010:5044  current_cancel_counterparty_signed */\n      0x08\n        /* \"contracts/MultisigWallet.sol\":4993:5057  address_array_in(current_cancel_counterparty_signed, msg.sender) */\n      dup1\n      sload\n      dup1\n      0x20\n      mul\n      0x20\n      add\n      mload(0x40)\n      swap1\n      dup2\n      add\n      0x40\n      mstore\n      dup1\n      swap3\n      swap2\n      swap1\n      dup2\n      dup2\n      mstore\n      0x20\n      add\n      dup3\n      dup1\n      sload\n      dup1\n      iszero\n      tag_87\n      jumpi\n      0x20\n      mul\n      dup3\n      add\n      swap2\n      swap1\n      0x00\n      mstore\n      keccak256(0x00, 0x20)\n      swap1\n    tag_88:\n      dup2\n      0x00\n      swap1\n      sload\n      swap1\n      0x0100\n      exp\n      swap1\n      div\n      0xffffffffffffffffffffffffffffffffffffffff\n      and\n      0xffffffffffffffffffffffffffffffffffffffff\n      and\n      dup2\n      mstore\n      0x20\n      add\n      swap1\n      0x01\n      add\n      swap1\n      dup1\n      dup4\n      gt\n      tag_88\n      jumpi\n    tag_87:\n      pop\n      pop\n      pop\n      pop\n      pop\n        /* \"contracts/MultisigWallet.sol\":5046:5056  msg.sender */\n      caller\n        /* \"contracts/MultisigWallet.sol\":4993:5009  address_array_in */\n      tag_89\n        /* \"contracts/MultisigWallet.sol\":4993:5057  address_array_in(current_cancel_counterparty_signed, msg.sender) */\n      jump\t// in\n    tag_86:\n        /* \"contracts/MultisigWallet.sol\":4992:5057  !address_array_in(current_cancel_counterparty_signed, msg.sender) */\n      iszero\n        /* \"contracts/MultisigWallet.sol\":4984:5108  require(!address_array_in(current_cancel_counterparty_signed, msg.sender), \"you have signed for cancellation, don't repeat\") */\n      tag_90\n      jumpi\n      mload(0x40)\n      0x08c379a000000000000000000000000000000000000000000000000000000000\n      dup2\n      mstore\n      0x04\n      add\n      tag_91\n      swap1\n      tag_92\n      jump\t// in\n    tag_91:\n      mload(0x40)\n      dup1\n      swap2\n      sub\n      swap1\n      revert\n    tag_90:\n        /* \"contracts/MultisigWallet.sol\":5143:5144  0 */\n      0x00\n        /* \"contracts/MultisigWallet.sol\":5120:5140  waitfor_withdraw_wei */\n      sload(0x04)\n        /* \"contracts/MultisigWallet.sol\":5120:5144  waitfor_withdraw_wei > 0 */\n      gt\n        /* \"contracts/MultisigWallet.sol\":5112:5196  require(waitfor_withdraw_wei > 0, \"there isn't any withdrwals wait for cancelation\") */\n      tag_93\n      jumpi\n      mload(0x40)\n      0x08c379a000000000000000000000000000000000000000000000000000000000\n      dup2\n      mstore\n      0x04\n      add\n      tag_94\n      swap1\n      tag_95\n      jump\t// in\n    tag_94:\n      mload(0x40)\n      dup1\n      swap2\n      sub\n      swap1\n      revert\n    tag_93:\n        /* \"contracts/MultisigWallet.sol\":5200:5234  current_cancel_counterparty_signed */\n      0x08\n        /* \"contracts/MultisigWallet.sol\":5240:5250  msg.sender */\n      caller\n        /* \"contracts/MultisigWallet.sol\":5200:5251  current_cancel_counterparty_signed.push(msg.sender) */\n      swap1\n      dup1\n      0x01\n      dup2\n      sload\n      add\n      dup1\n      dup3\n      sstore\n      dup1\n      swap2\n      pop\n      pop\n      0x01\n      swap1\n      sub\n      swap1\n      0x00\n      mstore\n      keccak256(0x00, 0x20)\n      add\n      0x00\n      swap1\n      swap2\n      swap1\n      swap2\n      swap1\n      swap2\n      0x0100\n      exp\n      dup2\n      sload\n      dup2\n      0xffffffffffffffffffffffffffffffffffffffff\n      mul\n      not\n      and\n      swap1\n      dup4\n      0xffffffffffffffffffffffffffffffffffffffff\n      and\n      mul\n      or\n      swap1\n      sstore\n      pop\n        /* \"contracts/MultisigWallet.sol\":5255:5271  uint signedCount */\n      0x00\n        /* \"contracts/MultisigWallet.sol\":5283:5289  uint i */\n      dup1\n        /* \"contracts/MultisigWallet.sol\":5279:5432  for(uint i=0; i<current_cancel_counterparty_signed.length; i++) {... */\n    tag_97:\n        /* \"contracts/MultisigWallet.sol\":5295:5329  current_cancel_counterparty_signed */\n      0x08\n        /* \"contracts/MultisigWallet.sol\":5295:5336  current_cancel_counterparty_signed.length */\n      dup1\n      sload\n      swap1\n      pop\n        /* \"contracts/MultisigWallet.sol\":5293:5294  i */\n      dup2\n        /* \"contracts/MultisigWallet.sol\":5293:5336  i<current_cancel_counterparty_signed.length */\n      lt\n        /* \"contracts/MultisigWallet.sol\":5279:5432  for(uint i=0; i<current_cancel_counterparty_signed.length; i++) {... */\n      iszero\n      tag_98\n      jumpi\n        /* \"contracts/MultisigWallet.sol\":5400:5401  0 */\n      0x00\n        /* \"contracts/MultisigWallet.sol\":5351:5402  current_cancel_counterparty_signed[i] != address(0) */\n      0xffffffffffffffffffffffffffffffffffffffff\n      and\n        /* \"contracts/MultisigWallet.sol\":5351:5385  current_cancel_counterparty_signed */\n      0x08\n        /* \"contracts/MultisigWallet.sol\":5386:5387  i */\n      dup3\n        /* \"contracts/MultisigWallet.sol\":5351:5388  current_cancel_counterparty_signed[i] */\n      dup2\n      sload\n      dup2\n      lt\n      tag_100\n      jumpi\n      tag_101\n      tag_102\n      jump\t// in\n    tag_101:\n    tag_100:\n      swap1\n      0x00\n      mstore\n      keccak256(0x00, 0x20)\n      add\n      0x00\n      swap1\n      sload\n      swap1\n      0x0100\n      exp\n      swap1\n      div\n      0xffffffffffffffffffffffffffffffffffffffff\n      and\n        /* \"contracts/MultisigWallet.sol\":5351:5402  current_cancel_counterparty_signed[i] != address(0) */\n      0xffffffffffffffffffffffffffffffffffffffff\n      and\n      eq\n        /* \"contracts/MultisigWallet.sol\":5348:5428  if(current_cancel_counterparty_signed[i] != address(0)){... */\n      tag_104\n      jumpi\n        /* \"contracts/MultisigWallet.sol\":5409:5422  signedCount++ */\n      dup2\n      dup1\n      tag_105\n      swap1\n      tag_106\n      jump\t// in\n    tag_105:\n      swap3\n      pop\n      pop\n        /* \"contracts/MultisigWallet.sol\":5348:5428  if(current_cancel_counterparty_signed[i] != address(0)){... */\n    tag_104:\n        /* \"contracts/MultisigWallet.sol\":5338:5341  i++ */\n      dup1\n      dup1\n      tag_107\n      swap1\n      tag_106\n      jump\t// in\n    tag_107:\n      swap2\n      pop\n      pop\n        /* \"contracts/MultisigWallet.sol\":5279:5432  for(uint i=0; i<current_cancel_counterparty_signed.length; i++) {... */\n      jump(tag_97)\n    tag_98:\n      pop\n        /* \"contracts/MultisigWallet.sol\":5476:5477  1 */\n      0x01\n        /* \"contracts/MultisigWallet.sol\":5453:5466  collaborators */\n      0x02\n        /* \"contracts/MultisigWallet.sol\":5453:5473  collaborators.length */\n      dup1\n      sload\n      swap1\n      pop\n        /* \"contracts/MultisigWallet.sol\":5453:5477  collaborators.length - 1 */\n      tag_108\n      swap2\n      swap1\n      tag_109\n      jump\t// in\n    tag_108:\n        /* \"contracts/MultisigWallet.sol\":5438:5449  signedCount */\n      dup2\n        /* \"contracts/MultisigWallet.sol\":5438:5477  signedCount == collaborators.length - 1 */\n      eq\n        /* \"contracts/MultisigWallet.sol\":5435:5509  if(signedCount == collaborators.length - 1) {... */\n      iszero\n      tag_110\n      jumpi\n        /* \"contracts/MultisigWallet.sol\":5484:5504  do_cancel_withdraw() */\n      tag_111\n        /* \"contracts/MultisigWallet.sol\":5484:5502  do_cancel_withdraw */\n      tag_112\n        /* \"contracts/MultisigWallet.sol\":5484:5504  do_cancel_withdraw() */\n      jump\t// in\n    tag_111:\n        /* \"contracts/MultisigWallet.sol\":5435:5509  if(signedCount == collaborators.length - 1) {... */\n    tag_110:\n        /* \"contracts/MultisigWallet.sol\":4882:5512  {... */\n      pop\n        /* \"contracts/MultisigWallet.sol\":4814:5512  function cancel_withdraw_by_counterparty() public onlyCollaborators {... */\n      jump\t// out\n        /* \"contracts/MultisigWallet.sol\":6166:6530  function collaboratorSign() public onlyCollaborators {... */\n    tag_30:\n        /* \"contracts/MultisigWallet.sol\":3488:3512  is_oneof_collaborators() */\n      tag_114\n        /* \"contracts/MultisigWallet.sol\":3488:3510  is_oneof_collaborators */\n      tag_58\n        /* \"contracts/MultisigWallet.sol\":3488:3512  is_oneof_collaborators() */\n      jump\t// in\n    tag_114:\n        /* \"contracts/MultisigWallet.sol\":3480:3555  require(is_oneof_collaborators(), \"only collaborators have the permission\") */\n      tag_115\n      jumpi\n      mload(0x40)\n      0x08c379a000000000000000000000000000000000000000000000000000000000\n      dup2\n      mstore\n      0x04\n      add\n      tag_116\n      swap1\n      tag_61\n      jump\t// in\n    tag_116:\n      mload(0x40)\n      dup1\n      swap2\n      sub\n      swap1\n      revert\n    tag_115:\n        /* \"contracts/MultisigWallet.sol\":6254:6255  0 */\n      0x00\n        /* \"contracts/MultisigWallet.sol\":6231:6251  waitfor_withdraw_wei */\n      sload(0x04)\n        /* \"contracts/MultisigWallet.sol\":6231:6255  waitfor_withdraw_wei > 0 */\n      gt\n        /* \"contracts/MultisigWallet.sol\":6223:6304  require(waitfor_withdraw_wei > 0, \"there is no withdraw action waiting for sign\") */\n      tag_118\n      jumpi\n      mload(0x40)\n      0x08c379a000000000000000000000000000000000000000000000000000000000\n      dup2\n      mstore\n      0x04\n      add\n      tag_119\n      swap1\n      tag_120\n      jump\t// in\n    tag_119:\n      mload(0x40)\n      dup1\n      swap2\n      sub\n      swap1\n      revert\n    tag_118:\n        /* \"contracts/MultisigWallet.sol\":6323:6339  already_signed() */\n      tag_121\n        /* \"contracts/MultisigWallet.sol\":6323:6337  already_signed */\n      tag_122\n        /* \"contracts/MultisigWallet.sol\":6323:6339  already_signed() */\n      jump\t// in\n    tag_121:\n        /* \"contracts/MultisigWallet.sol\":6322:6339  !already_signed() */\n      iszero\n        /* \"contracts/MultisigWallet.sol\":6314:6400  require(!already_signed(), \"you have signed this withdraw process, plz don't repeat.\") */\n      tag_123\n      jumpi\n      mload(0x40)\n      0x08c379a000000000000000000000000000000000000000000000000000000000\n      dup2\n      mstore\n      0x04\n      add\n      tag_124\n      swap1\n      tag_125\n      jump\t// in\n    tag_124:\n      mload(0x40)\n      dup1\n      swap2\n      sub\n      swap1\n      revert\n    tag_123:\n        /* \"contracts/MultisigWallet.sol\":6404:6418  current_signed */\n      0x07\n        /* \"contracts/MultisigWallet.sol\":6424:6434  msg.sender */\n      caller\n        /* \"contracts/MultisigWallet.sol\":6404:6435  current_signed.push(msg.sender) */\n      swap1\n      dup1\n      0x01\n      dup2\n      sload\n      add\n      dup1\n      dup3\n      sstore\n      dup1\n      swap2\n      pop\n      pop\n      0x01\n      swap1\n      sub\n      swap1\n      0x00\n      mstore\n      keccak256(0x00, 0x20)\n      add\n      0x00\n      swap1\n      swap2\n      swap1\n      swap2\n      swap1\n      swap2\n      0x0100\n      exp\n      dup2\n      sload\n      dup2\n      0xffffffffffffffffffffffffffffffffffffffff\n      mul\n      not\n      and\n      swap1\n      dup4\n      0xffffffffffffffffffffffffffffffffffffffff\n      and\n      mul\n      or\n      swap1\n      sstore\n      pop\n        /* \"contracts/MultisigWallet.sol\":6483:6502  signedCountEnough() */\n      tag_127\n        /* \"contracts/MultisigWallet.sol\":6483:6500  signedCountEnough */\n      tag_74\n        /* \"contracts/MultisigWallet.sol\":6483:6502  signedCountEnough() */\n      jump\t// in\n    tag_127:\n        /* \"contracts/MultisigWallet.sol\":6480:6527  if(signedCountEnough()) {... */\n      iszero\n      tag_128\n      jumpi\n        /* \"contracts/MultisigWallet.sol\":6509:6522  do_withdraw() */\n      tag_129\n        /* \"contracts/MultisigWallet.sol\":6509:6520  do_withdraw */\n      tag_77\n        /* \"contracts/MultisigWallet.sol\":6509:6522  do_withdraw() */\n      jump\t// in\n    tag_129:\n        /* \"contracts/MultisigWallet.sol\":6480:6527  if(signedCountEnough()) {... */\n    tag_128:\n        /* \"contracts/MultisigWallet.sol\":6166:6530  function collaboratorSign() public onlyCollaborators {... */\n      jump\t// out\n        /* \"contracts/MultisigWallet.sol\":1163:1192  uint public withdraw_fee_rate */\n    tag_33:\n      sload(0x0a)\n      dup2\n      jump\t// out\n        /* \"contracts/MultisigWallet.sol\":5554:5716  function cancel_withdraw() public onlyCollaborators {... */\n    tag_38:\n        /* \"contracts/MultisigWallet.sol\":3488:3512  is_oneof_collaborators() */\n      tag_131\n        /* \"contracts/MultisigWallet.sol\":3488:3510  is_oneof_collaborators */\n      tag_58\n        /* \"contracts/MultisigWallet.sol\":3488:3512  is_oneof_collaborators() */\n      jump\t// in\n    tag_131:\n        /* \"contracts/MultisigWallet.sol\":3480:3555  require(is_oneof_collaborators(), \"only collaborators have the permission\") */\n      tag_132\n      jumpi\n      mload(0x40)\n      0x08c379a000000000000000000000000000000000000000000000000000000000\n      dup2\n      mstore\n      0x04\n      add\n      tag_133\n      swap1\n      tag_61\n      jump\t// in\n    tag_133:\n      mload(0x40)\n      dup1\n      swap2\n      sub\n      swap1\n      revert\n    tag_132:\n        /* \"contracts/MultisigWallet.sol\":5632:5641  initiator */\n      0x06\n      0x00\n      swap1\n      sload\n      swap1\n      0x0100\n      exp\n      swap1\n      div\n      0xffffffffffffffffffffffffffffffffffffffff\n      and\n        /* \"contracts/MultisigWallet.sol\":5618:5641  msg.sender == initiator */\n      0xffffffffffffffffffffffffffffffffffffffff\n      and\n        /* \"contracts/MultisigWallet.sol\":5618:5628  msg.sender */\n      caller\n        /* \"contracts/MultisigWallet.sol\":5618:5641  msg.sender == initiator */\n      0xffffffffffffffffffffffffffffffffffffffff\n      and\n      eq\n        /* \"contracts/MultisigWallet.sol\":5610:5688  require(msg.sender == initiator, \"only the initiator can cancel this process\") */\n      tag_135\n      jumpi\n      mload(0x40)\n      0x08c379a000000000000000000000000000000000000000000000000000000000\n      dup2\n      mstore\n      0x04\n      add\n      tag_136\n      swap1\n      tag_137\n      jump\t// in\n    tag_136:\n      mload(0x40)\n      dup1\n      swap2\n      sub\n      swap1\n      revert\n    tag_135:\n        /* \"contracts/MultisigWallet.sol\":5692:5712  do_cancel_withdraw() */\n      tag_138\n        /* \"contracts/MultisigWallet.sol\":5692:5710  do_cancel_withdraw */\n      tag_112\n        /* \"contracts/MultisigWallet.sol\":5692:5712  do_cancel_withdraw() */\n      jump\t// in\n    tag_138:\n        /* \"contracts/MultisigWallet.sol\":5554:5716  function cancel_withdraw() public onlyCollaborators {... */\n      jump\t// out\n        /* \"contracts/MultisigWallet.sol\":169:188  uint public balance */\n    tag_41:\n      sload(0x00)\n      dup2\n      jump\t// out\n        /* \"contracts/MultisigWallet.sol\":2565:2790  function changePlatformAccount(address newAccount) public {... */\n    tag_47:\n        /* \"contracts/MultisigWallet.sol\":2655:2671  platform_account */\n      0x0c\n      0x00\n      swap1\n      sload\n      swap1\n      0x0100\n      exp\n      swap1\n      div\n      0xffffffffffffffffffffffffffffffffffffffff\n      and\n        /* \"contracts/MultisigWallet.sol\":2641:2671  msg.sender == platform_account */\n      0xffffffffffffffffffffffffffffffffffffffff\n      and\n        /* \"contracts/MultisigWallet.sol\":2641:2651  msg.sender */\n      caller\n        /* \"contracts/MultisigWallet.sol\":2641:2671  msg.sender == platform_account */\n      0xffffffffffffffffffffffffffffffffffffffff\n      and\n      eq\n        /* \"contracts/MultisigWallet.sol\":2633:2735  require(msg.sender == platform_account, \"only platform account itself can change it to other account\") */\n      tag_140\n      jumpi\n      mload(0x40)\n      0x08c379a000000000000000000000000000000000000000000000000000000000\n      dup2\n      mstore\n      0x04\n      add\n      tag_141\n      swap1\n      tag_142\n      jump\t// in\n    tag_141:\n      mload(0x40)\n      dup1\n      swap2\n      sub\n      swap1\n      revert\n    tag_140:\n        /* \"contracts/MultisigWallet.sol\":2772:2782  newAccount */\n      dup1\n        /* \"contracts/MultisigWallet.sol\":2745:2761  platform_account */\n      0x0c\n      0x00\n        /* \"contracts/MultisigWallet.sol\":2745:2783  platform_account = payable(newAccount) */\n      0x0100\n      exp\n      dup2\n      sload\n      dup2\n      0xffffffffffffffffffffffffffffffffffffffff\n      mul\n      not\n      and\n      swap1\n      dup4\n      0xffffffffffffffffffffffffffffffffffffffff\n      and\n      mul\n      or\n      swap1\n      sstore\n      pop\n        /* \"contracts/MultisigWallet.sol\":2565:2790  function changePlatformAccount(address newAccount) public {... */\n      pop\n      jump\t// out\n        /* \"contracts/MultisigWallet.sol\":1085:1111  uint public withdraw_count */\n    tag_50:\n      sload(0x09)\n      dup2\n      jump\t// out\n        /* \"contracts/MultisigWallet.sol\":1220:1251  uint public withdraw_free_count */\n    tag_54:\n      sload(0x0b)\n      dup2\n      jump\t// out\n        /* \"contracts/MultisigWallet.sol\":3166:3286  function is_oneof_collaborators() private view returns (bool) {... */\n    tag_58:\n        /* \"contracts/MultisigWallet.sol\":3222:3226  bool */\n      0x00\n        /* \"contracts/MultisigWallet.sol\":3239:3282  address_array_in(collaborators, msg.sender) */\n      tag_144\n        /* \"contracts/MultisigWallet.sol\":3256:3269  collaborators */\n      0x02\n        /* \"contracts/MultisigWallet.sol\":3239:3282  address_array_in(collaborators, msg.sender) */\n      dup1\n      sload\n      dup1\n      0x20\n      mul\n      0x20\n      add\n      mload(0x40)\n      swap1\n      dup2\n      add\n      0x40\n      mstore\n      dup1\n      swap3\n      swap2\n      swap1\n      dup2\n      dup2\n      mstore\n      0x20\n      add\n      dup3\n      dup1\n      sload\n      dup1\n      iszero\n      tag_145\n      jumpi\n      0x20\n      mul\n      dup3\n      add\n      swap2\n      swap1\n      0x00\n      mstore\n      keccak256(0x00, 0x20)\n      swap1\n    tag_146:\n      dup2\n      0x00\n      swap1\n      sload\n      swap1\n      0x0100\n      exp\n      swap1\n      div\n      0xffffffffffffffffffffffffffffffffffffffff\n      and\n      0xffffffffffffffffffffffffffffffffffffffff\n      and\n      dup2\n      mstore\n      0x20\n      add\n      swap1\n      0x01\n      add\n      swap1\n      dup1\n      dup4\n      gt\n      tag_146\n      jumpi\n    tag_145:\n      pop\n      pop\n      pop\n      pop\n      pop\n        /* \"contracts/MultisigWallet.sol\":3271:3281  msg.sender */\n      caller\n        /* \"contracts/MultisigWallet.sol\":3239:3255  address_array_in */\n      tag_89\n        /* \"contracts/MultisigWallet.sol\":3239:3282  address_array_in(collaborators, msg.sender) */\n      jump\t// in\n    tag_144:\n        /* \"contracts/MultisigWallet.sol\":3232:3282  return address_array_in(collaborators, msg.sender) */\n      swap1\n      pop\n        /* \"contracts/MultisigWallet.sol\":3166:3286  function is_oneof_collaborators() private view returns (bool) {... */\n      swap1\n      jump\t// out\n        /* \"contracts/MultisigWallet.sol\":7678:8031  function signedCountEnough() private view returns (bool) {... */\n    tag_74:\n        /* \"contracts/MultisigWallet.sol\":7729:7733  bool */\n      0x00\n        /* \"contracts/MultisigWallet.sol\":7739:7762  address[] memory signed */\n      dup1\n        /* \"contracts/MultisigWallet.sol\":7765:7779  current_signed */\n      0x07\n        /* \"contracts/MultisigWallet.sol\":7739:7779  address[] memory signed = current_signed */\n      dup1\n      sload\n      dup1\n      0x20\n      mul\n      0x20\n      add\n      mload(0x40)\n      swap1\n      dup2\n      add\n      0x40\n      mstore\n      dup1\n      swap3\n      swap2\n      swap1\n      dup2\n      dup2\n      mstore\n      0x20\n      add\n      dup3\n      dup1\n      sload\n      dup1\n      iszero\n      tag_148\n      jumpi\n      0x20\n      mul\n      dup3\n      add\n      swap2\n      swap1\n      0x00\n      mstore\n      keccak256(0x00, 0x20)\n      swap1\n    tag_149:\n      dup2\n      0x00\n      swap1\n      sload\n      swap1\n      0x0100\n      exp\n      swap1\n      div\n      0xffffffffffffffffffffffffffffffffffffffff\n      and\n      0xffffffffffffffffffffffffffffffffffffffff\n      and\n      dup2\n      mstore\n      0x20\n      add\n      swap1\n      0x01\n      add\n      swap1\n      dup1\n      dup4\n      gt\n      tag_149\n      jumpi\n    tag_148:\n      pop\n      pop\n      pop\n      pop\n      pop\n      swap1\n      pop\n        /* \"contracts/MultisigWallet.sol\":7783:7805  uint8 signedMatchCount */\n      0x00\n        /* \"contracts/MultisigWallet.sol\":7817:7823  uint i */\n      dup1\n        /* \"contracts/MultisigWallet.sol\":7813:7978  for(uint i=0; i<signed.length; i++) {... */\n    tag_150:\n        /* \"contracts/MultisigWallet.sol\":7829:7835  signed */\n      dup3\n        /* \"contracts/MultisigWallet.sol\":7829:7842  signed.length */\n      mload\n        /* \"contracts/MultisigWallet.sol\":7827:7828  i */\n      dup2\n        /* \"contracts/MultisigWallet.sol\":7827:7842  i<signed.length */\n      lt\n        /* \"contracts/MultisigWallet.sol\":7813:7978  for(uint i=0; i<signed.length; i++) {... */\n      iszero\n      tag_151\n      jumpi\n        /* \"contracts/MultisigWallet.sol\":7858:7864  uint j */\n      0x00\n        /* \"contracts/MultisigWallet.sol\":7854:7974  for(uint j=0; j<collaborators.length; j++) {... */\n    tag_153:\n        /* \"contracts/MultisigWallet.sol\":7870:7883  collaborators */\n      0x02\n        /* \"contracts/MultisigWallet.sol\":7870:7890  collaborators.length */\n      dup1\n      sload\n      swap1\n      pop\n        /* \"contracts/MultisigWallet.sol\":7868:7869  j */\n      dup2\n        /* \"contracts/MultisigWallet.sol\":7868:7890  j<collaborators.length */\n      lt\n        /* \"contracts/MultisigWallet.sol\":7854:7974  for(uint j=0; j<collaborators.length; j++) {... */\n      iszero\n      tag_154\n      jumpi\n        /* \"contracts/MultisigWallet.sol\":7926:7932  signed */\n      dup4\n        /* \"contracts/MultisigWallet.sol\":7933:7934  i */\n      dup3\n        /* \"contracts/MultisigWallet.sol\":7926:7935  signed[i] */\n      dup2\n      mload\n      dup2\n      lt\n      tag_156\n      jumpi\n      tag_157\n      tag_102\n      jump\t// in\n    tag_157:\n    tag_156:\n      0x20\n      mul\n      0x20\n      add\n      add\n      mload\n        /* \"contracts/MultisigWallet.sol\":7906:7935  collaborators[j] == signed[i] */\n      0xffffffffffffffffffffffffffffffffffffffff\n      and\n        /* \"contracts/MultisigWallet.sol\":7906:7919  collaborators */\n      0x02\n        /* \"contracts/MultisigWallet.sol\":7920:7921  j */\n      dup3\n        /* \"contracts/MultisigWallet.sol\":7906:7922  collaborators[j] */\n      dup2\n      sload\n      dup2\n      lt\n      tag_158\n      jumpi\n      tag_159\n      tag_102\n      jump\t// in\n    tag_159:\n    tag_158:\n      swap1\n      0x00\n      mstore\n      keccak256(0x00, 0x20)\n      add\n      0x00\n      swap1\n      sload\n      swap1\n      0x0100\n      exp\n      swap1\n      div\n      0xffffffffffffffffffffffffffffffffffffffff\n      and\n        /* \"contracts/MultisigWallet.sol\":7906:7935  collaborators[j] == signed[i] */\n      0xffffffffffffffffffffffffffffffffffffffff\n      and\n      eq\n        /* \"contracts/MultisigWallet.sol\":7903:7969  if(collaborators[j] == signed[i]) {... */\n      iszero\n      tag_161\n      jumpi\n        /* \"contracts/MultisigWallet.sol\":7944:7962  signedMatchCount++ */\n      dup3\n      dup1\n      tag_162\n      swap1\n      tag_163\n      jump\t// in\n    tag_162:\n      swap4\n      pop\n      pop\n        /* \"contracts/MultisigWallet.sol\":7903:7969  if(collaborators[j] == signed[i]) {... */\n    tag_161:\n        /* \"contracts/MultisigWallet.sol\":7892:7895  j++ */\n      dup1\n      dup1\n      tag_164\n      swap1\n      tag_106\n      jump\t// in\n    tag_164:\n      swap2\n      pop\n      pop\n        /* \"contracts/MultisigWallet.sol\":7854:7974  for(uint j=0; j<collaborators.length; j++) {... */\n      jump(tag_153)\n    tag_154:\n      pop\n        /* \"contracts/MultisigWallet.sol\":7844:7847  i++ */\n      dup1\n      dup1\n      tag_165\n      swap1\n      tag_106\n      jump\t// in\n    tag_165:\n      swap2\n      pop\n      pop\n        /* \"contracts/MultisigWallet.sol\":7813:7978  for(uint i=0; i<signed.length; i++) {... */\n      jump(tag_150)\n    tag_151:\n      pop\n        /* \"contracts/MultisigWallet.sol\":8008:8027  at_least_sign_count */\n      0x03\n      0x00\n      swap1\n      sload\n      swap1\n      0x0100\n      exp\n      swap1\n      div\n      0xff\n      and\n        /* \"contracts/MultisigWallet.sol\":7988:8027  signedMatchCount >= at_least_sign_count */\n      0xff\n      and\n        /* \"contracts/MultisigWallet.sol\":7988:8004  signedMatchCount */\n      dup2\n        /* \"contracts/MultisigWallet.sol\":7988:8027  signedMatchCount >= at_least_sign_count */\n      0xff\n      and\n      lt\n      iszero\n        /* \"contracts/MultisigWallet.sol\":7981:8027  return signedMatchCount >= at_least_sign_count */\n      swap3\n      pop\n      pop\n      pop\n        /* \"contracts/MultisigWallet.sol\":7678:8031  function signedCountEnough() private view returns (bool) {... */\n      swap1\n      jump\t// out\n        /* \"contracts/MultisigWallet.sol\":6536:7009  function do_withdraw() private {... */\n    tag_77:\n        /* \"contracts/MultisigWallet.sol\":6577:6586  uint weis */\n      0x00\n        /* \"contracts/MultisigWallet.sol\":6589:6609  waitfor_withdraw_wei */\n      sload(0x04)\n        /* \"contracts/MultisigWallet.sol\":6577:6609  uint weis = waitfor_withdraw_wei */\n      swap1\n      pop\n        /* \"contracts/MultisigWallet.sol\":6642:6643  0 */\n      0x00\n        /* \"contracts/MultisigWallet.sol\":6619:6639  waitfor_withdraw_wei */\n      0x04\n        /* \"contracts/MultisigWallet.sol\":6619:6643  waitfor_withdraw_wei = 0 */\n      dup2\n      swap1\n      sstore\n      pop\n        /* \"contracts/MultisigWallet.sol\":6653:6677  waitfor_withdraw_address */\n      0x05\n      0x00\n      swap1\n      sload\n      swap1\n      0x0100\n      exp\n      swap1\n      div\n      0xffffffffffffffffffffffffffffffffffffffff\n      and\n        /* \"contracts/MultisigWallet.sol\":6653:6686  waitfor_withdraw_address.transfer */\n      0xffffffffffffffffffffffffffffffffffffffff\n      and\n        /* \"contracts/MultisigWallet.sol\":6653:6692  waitfor_withdraw_address.transfer(weis) */\n      0x08fc\n        /* \"contracts/MultisigWallet.sol\":6687:6691  weis */\n      dup3\n        /* \"contracts/MultisigWallet.sol\":6653:6692  waitfor_withdraw_address.transfer(weis) */\n      swap1\n      dup2\n      iszero\n      mul\n      swap1\n      mload(0x40)\n      0x00\n      mload(0x40)\n      dup1\n      dup4\n      sub\n      dup2\n      dup6\n      dup9\n      dup9\n      call\n      swap4\n      pop\n      pop\n      pop\n      pop\n      iszero\n      dup1\n      iszero\n      tag_168\n      jumpi\n      returndatasize\n      0x00\n      dup1\n      returndatacopy\n      revert(0x00, returndatasize)\n    tag_168:\n      pop\n        /* \"contracts/MultisigWallet.sol\":6723:6727  weis */\n      dup1\n        /* \"contracts/MultisigWallet.sol\":6713:6720  balance */\n      sload(0x00)\n        /* \"contracts/MultisigWallet.sol\":6713:6727  balance - weis */\n      tag_169\n      swap2\n      swap1\n      tag_109\n      jump\t// in\n    tag_169:\n        /* \"contracts/MultisigWallet.sol\":6702:6709  balance */\n      0x00\n        /* \"contracts/MultisigWallet.sol\":6702:6727  balance =  balance - weis */\n      dup2\n      swap1\n      sstore\n      pop\n        /* \"contracts/MultisigWallet.sol\":6737:6751  withdraw_count */\n      0x09\n      0x00\n        /* \"contracts/MultisigWallet.sol\":6737:6753  withdraw_count++ */\n      dup2\n      sload\n      dup1\n      swap3\n      swap2\n      swap1\n      tag_170\n      swap1\n      tag_106\n      jump\t// in\n    tag_170:\n      swap2\n      swap1\n      pop\n      sstore\n      pop\n        /* \"contracts/MultisigWallet.sol\":6770:6794  waitfor_withdraw_address */\n      0x05\n      0x00\n        /* \"contracts/MultisigWallet.sol\":6763:6794  delete waitfor_withdraw_address */\n      0x0100\n      exp\n      dup2\n      sload\n      swap1\n      0xffffffffffffffffffffffffffffffffffffffff\n      mul\n      not\n      and\n      swap1\n      sstore\n        /* \"contracts/MultisigWallet.sol\":6812:6826  current_signed */\n      0x07\n      0x00\n        /* \"contracts/MultisigWallet.sol\":6805:6826  delete current_signed */\n      tag_171\n      swap2\n      swap1\n      tag_172\n      jump\t// in\n    tag_171:\n        /* \"contracts/MultisigWallet.sol\":6843:6852  initiator */\n      0x06\n      0x00\n        /* \"contracts/MultisigWallet.sol\":6836:6852  delete initiator */\n      0x0100\n      exp\n      dup2\n      sload\n      swap1\n      0xffffffffffffffffffffffffffffffffffffffff\n      mul\n      not\n      and\n      swap1\n      sstore\n        /* \"contracts/MultisigWallet.sol\":6869:6903  current_cancel_counterparty_signed */\n      0x08\n      0x00\n        /* \"contracts/MultisigWallet.sol\":6862:6903  delete current_cancel_counterparty_signed */\n      tag_173\n      swap2\n      swap1\n      tag_172\n      jump\t// in\n    tag_173:\n        /* \"contracts/MultisigWallet.sol\":6933:6952  withdraw_free_count */\n      sload(0x0b)\n        /* \"contracts/MultisigWallet.sol\":6916:6930  withdraw_count */\n      sload(0x09)\n        /* \"contracts/MultisigWallet.sol\":6916:6952  withdraw_count > withdraw_free_count */\n      gt\n        /* \"contracts/MultisigWallet.sol\":6913:7003  if(withdraw_count > withdraw_free_count) {... */\n      iszero\n      tag_174\n      jumpi\n        /* \"contracts/MultisigWallet.sol\":6968:6992  do_pay_service_fee(weis) */\n      tag_175\n        /* \"contracts/MultisigWallet.sol\":6987:6991  weis */\n      dup2\n        /* \"contracts/MultisigWallet.sol\":6968:6986  do_pay_service_fee */\n      tag_176\n        /* \"contracts/MultisigWallet.sol\":6968:6992  do_pay_service_fee(weis) */\n      jump\t// in\n    tag_175:\n        /* \"contracts/MultisigWallet.sol\":6913:7003  if(withdraw_count > withdraw_free_count) {... */\n    tag_174:\n        /* \"contracts/MultisigWallet.sol\":6567:7009  {... */\n      pop\n        /* \"contracts/MultisigWallet.sol\":6536:7009  function do_withdraw() private {... */\n      jump\t// out\n        /* \"contracts/MultisigWallet.sol\":7300:7547  function address_array_in(address[] memory array, address member) private pure returns (bool) {... */\n    tag_89:\n        /* \"contracts/MultisigWallet.sol\":7388:7392  bool */\n      0x00\n        /* \"contracts/MultisigWallet.sol\":7398:7410  bool inArray */\n      dup1\n        /* \"contracts/MultisigWallet.sol\":7413:7418  false */\n      0x00\n        /* \"contracts/MultisigWallet.sol\":7398:7418  bool inArray = false */\n      swap1\n      pop\n        /* \"contracts/MultisigWallet.sol\":7426:7432  uint i */\n      0x00\n        /* \"contracts/MultisigWallet.sol\":7422:7526  for(uint i=0; i<array.length; i++) {... */\n    tag_178:\n        /* \"contracts/MultisigWallet.sol\":7438:7443  array */\n      dup5\n        /* \"contracts/MultisigWallet.sol\":7438:7450  array.length */\n      mload\n        /* \"contracts/MultisigWallet.sol\":7436:7437  i */\n      dup2\n        /* \"contracts/MultisigWallet.sol\":7436:7450  i<array.length */\n      lt\n        /* \"contracts/MultisigWallet.sol\":7422:7526  for(uint i=0; i<array.length; i++) {... */\n      iszero\n      tag_179\n      jumpi\n        /* \"contracts/MultisigWallet.sol\":7477:7483  member */\n      dup4\n        /* \"contracts/MultisigWallet.sol\":7465:7483  array[i] == member */\n      0xffffffffffffffffffffffffffffffffffffffff\n      and\n        /* \"contracts/MultisigWallet.sol\":7465:7470  array */\n      dup6\n        /* \"contracts/MultisigWallet.sol\":7471:7472  i */\n      dup3\n        /* \"contracts/MultisigWallet.sol\":7465:7473  array[i] */\n      dup2\n      mload\n      dup2\n      lt\n      tag_181\n      jumpi\n      tag_182\n      tag_102\n      jump\t// in\n    tag_182:\n    tag_181:\n      0x20\n      mul\n      0x20\n      add\n      add\n      mload\n        /* \"contracts/MultisigWallet.sol\":7465:7483  array[i] == member */\n      0xffffffffffffffffffffffffffffffffffffffff\n      and\n      eq\n        /* \"contracts/MultisigWallet.sol\":7462:7522  if(array[i] == member) {... */\n      iszero\n      tag_183\n      jumpi\n        /* \"contracts/MultisigWallet.sol\":7501:7505  true */\n      0x01\n        /* \"contracts/MultisigWallet.sol\":7491:7505  inArray = true */\n      swap2\n      pop\n        /* \"contracts/MultisigWallet.sol\":7511:7516  break */\n      jump(tag_179)\n        /* \"contracts/MultisigWallet.sol\":7462:7522  if(array[i] == member) {... */\n    tag_183:\n        /* \"contracts/MultisigWallet.sol\":7452:7455  i++ */\n      dup1\n      dup1\n      tag_184\n      swap1\n      tag_106\n      jump\t// in\n    tag_184:\n      swap2\n      pop\n      pop\n        /* \"contracts/MultisigWallet.sol\":7422:7526  for(uint i=0; i<array.length; i++) {... */\n      jump(tag_178)\n    tag_179:\n      pop\n        /* \"contracts/MultisigWallet.sol\":7536:7543  inArray */\n      dup1\n        /* \"contracts/MultisigWallet.sol\":7529:7543  return inArray */\n      swap2\n      pop\n      pop\n        /* \"contracts/MultisigWallet.sol\":7300:7547  function address_array_in(address[] memory array, address member) private pure returns (bool) {... */\n      swap3\n      swap2\n      pop\n      pop\n      jump\t// out\n        /* \"contracts/MultisigWallet.sol\":5762:5958  function do_cancel_withdraw() private {... */\n    tag_112:\n        /* \"contracts/MultisigWallet.sol\":5811:5820  initiator */\n      0x06\n      0x00\n        /* \"contracts/MultisigWallet.sol\":5804:5820  delete initiator */\n      0x0100\n      exp\n      dup2\n      sload\n      swap1\n      0xffffffffffffffffffffffffffffffffffffffff\n      mul\n      not\n      and\n      swap1\n      sstore\n        /* \"contracts/MultisigWallet.sol\":5831:5855  waitfor_withdraw_address */\n      0x05\n      0x00\n        /* \"contracts/MultisigWallet.sol\":5824:5855  delete waitfor_withdraw_address */\n      0x0100\n      exp\n      dup2\n      sload\n      swap1\n      0xffffffffffffffffffffffffffffffffffffffff\n      mul\n      not\n      and\n      swap1\n      sstore\n        /* \"contracts/MultisigWallet.sol\":5883:5884  0 */\n      0x00\n        /* \"contracts/MultisigWallet.sol\":5860:5880  waitfor_withdraw_wei */\n      0x04\n        /* \"contracts/MultisigWallet.sol\":5860:5884  waitfor_withdraw_wei = 0 */\n      dup2\n      swap1\n      sstore\n      pop\n        /* \"contracts/MultisigWallet.sol\":5895:5909  current_signed */\n      0x07\n      0x00\n        /* \"contracts/MultisigWallet.sol\":5888:5909  delete current_signed */\n      tag_186\n      swap2\n      swap1\n      tag_172\n      jump\t// in\n    tag_186:\n        /* \"contracts/MultisigWallet.sol\":5920:5954  current_cancel_counterparty_signed */\n      0x08\n      0x00\n        /* \"contracts/MultisigWallet.sol\":5913:5954  delete current_cancel_counterparty_signed */\n      tag_187\n      swap2\n      swap1\n      tag_172\n      jump\t// in\n    tag_187:\n        /* \"contracts/MultisigWallet.sol\":5762:5958  function do_cancel_withdraw() private {... */\n      jump\t// out\n        /* \"contracts/MultisigWallet.sol\":7553:7675  function already_signed() private view returns (bool) {... */\n    tag_122:\n        /* \"contracts/MultisigWallet.sol\":7601:7605  bool */\n      0x00\n        /* \"contracts/MultisigWallet.sol\":7624:7668  address_array_in(current_signed, msg.sender) */\n      tag_189\n        /* \"contracts/MultisigWallet.sol\":7641:7655  current_signed */\n      0x07\n        /* \"contracts/MultisigWallet.sol\":7624:7668  address_array_in(current_signed, msg.sender) */\n      dup1\n      sload\n      dup1\n      0x20\n      mul\n      0x20\n      add\n      mload(0x40)\n      swap1\n      dup2\n      add\n      0x40\n      mstore\n      dup1\n      swap3\n      swap2\n      swap1\n      dup2\n      dup2\n      mstore\n      0x20\n      add\n      dup3\n      dup1\n      sload\n      dup1\n      iszero\n      tag_190\n      jumpi\n      0x20\n      mul\n      dup3\n      add\n      swap2\n      swap1\n      0x00\n      mstore\n      keccak256(0x00, 0x20)\n      swap1\n    tag_191:\n      dup2\n      0x00\n      swap1\n      sload\n      swap1\n      0x0100\n      exp\n      swap1\n      div\n      0xffffffffffffffffffffffffffffffffffffffff\n      and\n      0xffffffffffffffffffffffffffffffffffffffff\n      and\n      dup2\n      mstore\n      0x20\n      add\n      swap1\n      0x01\n      add\n      swap1\n      dup1\n      dup4\n      gt\n      tag_191\n      jumpi\n    tag_190:\n      pop\n      pop\n      pop\n      pop\n      pop\n        /* \"contracts/MultisigWallet.sol\":7657:7667  msg.sender */\n      caller\n        /* \"contracts/MultisigWallet.sol\":7624:7640  address_array_in */\n      tag_89\n        /* \"contracts/MultisigWallet.sol\":7624:7668  address_array_in(current_signed, msg.sender) */\n      jump\t// in\n    tag_189:\n        /* \"contracts/MultisigWallet.sol\":7617:7668  return address_array_in(current_signed, msg.sender) */\n      swap1\n      pop\n        /* \"contracts/MultisigWallet.sol\":7553:7675  function already_signed() private view returns (bool) {... */\n      swap1\n      jump\t// out\n        /* \"contracts/MultisigWallet.sol\":7015:7195  function do_pay_service_fee(uint transferWeis) private {       ... */\n    tag_176:\n        /* \"contracts/MultisigWallet.sol\":7087:7100  uint rate_wei */\n      0x00\n        /* \"contracts/MultisigWallet.sol\":7126:7143  withdraw_fee_rate */\n      sload(0x0a)\n        /* \"contracts/MultisigWallet.sol\":7118:7123  10000 */\n      0x2710\n        /* \"contracts/MultisigWallet.sol\":7103:7115  transferWeis */\n      dup4\n        /* \"contracts/MultisigWallet.sol\":7103:7123  transferWeis / 10000 */\n      tag_193\n      swap2\n      swap1\n      tag_194\n      jump\t// in\n    tag_193:\n        /* \"contracts/MultisigWallet.sol\":7103:7143  transferWeis / 10000 * withdraw_fee_rate */\n      tag_195\n      swap2\n      swap1\n      tag_196\n      jump\t// in\n    tag_195:\n        /* \"contracts/MultisigWallet.sol\":7087:7143  uint rate_wei = transferWeis / 10000 * withdraw_fee_rate */\n      swap1\n      pop\n        /* \"contracts/MultisigWallet.sol\":7153:7169  platform_account */\n      0x0c\n      0x00\n      swap1\n      sload\n      swap1\n      0x0100\n      exp\n      swap1\n      div\n      0xffffffffffffffffffffffffffffffffffffffff\n      and\n        /* \"contracts/MultisigWallet.sol\":7153:7178  platform_account.transfer */\n      0xffffffffffffffffffffffffffffffffffffffff\n      and\n        /* \"contracts/MultisigWallet.sol\":7153:7188  platform_account.transfer(rate_wei) */\n      0x08fc\n        /* \"contracts/MultisigWallet.sol\":7179:7187  rate_wei */\n      dup3\n        /* \"contracts/MultisigWallet.sol\":7153:7188  platform_account.transfer(rate_wei) */\n      swap1\n      dup2\n      iszero\n      mul\n      swap1\n      mload(0x40)\n      0x00\n      mload(0x40)\n      dup1\n      dup4\n      sub\n      dup2\n      dup6\n      dup9\n      dup9\n      call\n      swap4\n      pop\n      pop\n      pop\n      pop\n      iszero\n      dup1\n      iszero\n      tag_198\n      jumpi\n      returndatasize\n      0x00\n      dup1\n      returndatacopy\n      revert(0x00, returndatasize)\n    tag_198:\n      pop\n        /* \"contracts/MultisigWallet.sol\":7070:7195  {       ... */\n      pop\n        /* \"contracts/MultisigWallet.sol\":7015:7195  function do_pay_service_fee(uint transferWeis) private {       ... */\n      pop\n      jump\t// out\n    tag_172:\n      pop\n      dup1\n      sload\n      0x00\n      dup3\n      sstore\n      swap1\n      0x00\n      mstore\n      keccak256(0x00, 0x20)\n      swap1\n      dup2\n      add\n      swap1\n      tag_200\n      swap2\n      swap1\n      tag_201\n      jump\t// in\n    tag_200:\n      pop\n      jump\t// out\n    tag_201:\n    tag_202:\n      dup1\n      dup3\n      gt\n      iszero\n      tag_203\n      jumpi\n      0x00\n      dup2\n      0x00\n      swap1\n      sstore\n      pop\n      0x01\n      add\n      jump(tag_202)\n    tag_203:\n      pop\n      swap1\n      jump\t// out\n        /* \"#utility.yul\":7:146   */\n    tag_205:\n        /* \"#utility.yul\":53:58   */\n      0x00\n        /* \"#utility.yul\":91:97   */\n      dup2\n        /* \"#utility.yul\":78:98   */\n      calldataload\n        /* \"#utility.yul\":69:98   */\n      swap1\n      pop\n        /* \"#utility.yul\":107:140   */\n      tag_207\n        /* \"#utility.yul\":134:139   */\n      dup2\n        /* \"#utility.yul\":107:140   */\n      tag_208\n      jump\t// in\n    tag_207:\n        /* \"#utility.yul\":7:146   */\n      swap3\n      swap2\n      pop\n      pop\n      jump\t// out\n        /* \"#utility.yul\":152:307   */\n    tag_209:\n        /* \"#utility.yul\":206:211   */\n      0x00\n        /* \"#utility.yul\":244:250   */\n      dup2\n        /* \"#utility.yul\":231:251   */\n      calldataload\n        /* \"#utility.yul\":222:251   */\n      swap1\n      pop\n        /* \"#utility.yul\":260:301   */\n      tag_211\n        /* \"#utility.yul\":295:300   */\n      dup2\n        /* \"#utility.yul\":260:301   */\n      tag_212\n      jump\t// in\n    tag_211:\n        /* \"#utility.yul\":152:307   */\n      swap3\n      swap2\n      pop\n      pop\n      jump\t// out\n        /* \"#utility.yul\":313:452   */\n    tag_213:\n        /* \"#utility.yul\":359:364   */\n      0x00\n        /* \"#utility.yul\":397:403   */\n      dup2\n        /* \"#utility.yul\":384:404   */\n      calldataload\n        /* \"#utility.yul\":375:404   */\n      swap1\n      pop\n        /* \"#utility.yul\":413:446   */\n      tag_215\n        /* \"#utility.yul\":440:445   */\n      dup2\n        /* \"#utility.yul\":413:446   */\n      tag_216\n      jump\t// in\n    tag_215:\n        /* \"#utility.yul\":313:452   */\n      swap3\n      swap2\n      pop\n      pop\n      jump\t// out\n        /* \"#utility.yul\":458:787   */\n    tag_46:\n        /* \"#utility.yul\":517:523   */\n      0x00\n        /* \"#utility.yul\":566:568   */\n      0x20\n        /* \"#utility.yul\":554:563   */\n      dup3\n        /* \"#utility.yul\":545:552   */\n      dup5\n        /* \"#utility.yul\":541:564   */\n      sub\n        /* \"#utility.yul\":537:569   */\n      slt\n        /* \"#utility.yul\":534:653   */\n      iszero\n      tag_218\n      jumpi\n        /* \"#utility.yul\":572:651   */\n      tag_219\n      tag_220\n      jump\t// in\n    tag_219:\n        /* \"#utility.yul\":534:653   */\n    tag_218:\n        /* \"#utility.yul\":692:693   */\n      0x00\n        /* \"#utility.yul\":717:770   */\n      tag_221\n        /* \"#utility.yul\":762:769   */\n      dup5\n        /* \"#utility.yul\":753:759   */\n      dup3\n        /* \"#utility.yul\":742:751   */\n      dup6\n        /* \"#utility.yul\":738:760   */\n      add\n        /* \"#utility.yul\":717:770   */\n      tag_205\n      jump\t// in\n    tag_221:\n        /* \"#utility.yul\":707:770   */\n      swap2\n      pop\n        /* \"#utility.yul\":663:780   */\n      pop\n        /* \"#utility.yul\":458:787   */\n      swap3\n      swap2\n      pop\n      pop\n      jump\t// out\n        /* \"#utility.yul\":793:1283   */\n    tag_23:\n        /* \"#utility.yul\":869:875   */\n      0x00\n        /* \"#utility.yul\":877:883   */\n      dup1\n        /* \"#utility.yul\":926:928   */\n      0x40\n        /* \"#utility.yul\":914:923   */\n      dup4\n        /* \"#utility.yul\":905:912   */\n      dup6\n        /* \"#utility.yul\":901:924   */\n      sub\n        /* \"#utility.yul\":897:929   */\n      slt\n        /* \"#utility.yul\":894:1013   */\n      iszero\n      tag_223\n      jumpi\n        /* \"#utility.yul\":932:1011   */\n      tag_224\n      tag_220\n      jump\t// in\n    tag_224:\n        /* \"#utility.yul\":894:1013   */\n    tag_223:\n        /* \"#utility.yul\":1052:1053   */\n      0x00\n        /* \"#utility.yul\":1077:1130   */\n      tag_225\n        /* \"#utility.yul\":1122:1129   */\n      dup6\n        /* \"#utility.yul\":1113:1119   */\n      dup3\n        /* \"#utility.yul\":1102:1111   */\n      dup7\n        /* \"#utility.yul\":1098:1120   */\n      add\n        /* \"#utility.yul\":1077:1130   */\n      tag_213\n      jump\t// in\n    tag_225:\n        /* \"#utility.yul\":1067:1130   */\n      swap3\n      pop\n        /* \"#utility.yul\":1023:1140   */\n      pop\n        /* \"#utility.yul\":1179:1181   */\n      0x20\n        /* \"#utility.yul\":1205:1266   */\n      tag_226\n        /* \"#utility.yul\":1258:1265   */\n      dup6\n        /* \"#utility.yul\":1249:1255   */\n      dup3\n        /* \"#utility.yul\":1238:1247   */\n      dup7\n        /* \"#utility.yul\":1234:1256   */\n      add\n        /* \"#utility.yul\":1205:1266   */\n      tag_209\n      jump\t// in\n    tag_226:\n        /* \"#utility.yul\":1195:1266   */\n      swap2\n      pop\n        /* \"#utility.yul\":1150:1276   */\n      pop\n        /* \"#utility.yul\":793:1283   */\n      swap3\n      pop\n      swap3\n      swap1\n      pop\n      jump\t// out\n        /* \"#utility.yul\":1289:1655   */\n    tag_227:\n        /* \"#utility.yul\":1431:1434   */\n      0x00\n        /* \"#utility.yul\":1452:1519   */\n      tag_229\n        /* \"#utility.yul\":1516:1518   */\n      0x58\n        /* \"#utility.yul\":1511:1514   */\n      dup4\n        /* \"#utility.yul\":1452:1519   */\n      tag_230\n      jump\t// in\n    tag_229:\n        /* \"#utility.yul\":1445:1519   */\n      swap2\n      pop\n        /* \"#utility.yul\":1528:1621   */\n      tag_231\n        /* \"#utility.yul\":1617:1620   */\n      dup3\n        /* \"#utility.yul\":1528:1621   */\n      tag_232\n      jump\t// in\n    tag_231:\n        /* \"#utility.yul\":1646:1648   */\n      0x60\n        /* \"#utility.yul\":1641:1644   */\n      dup3\n        /* \"#utility.yul\":1637:1649   */\n      add\n        /* \"#utility.yul\":1630:1649   */\n      swap1\n      pop\n        /* \"#utility.yul\":1289:1655   */\n      swap2\n      swap1\n      pop\n      jump\t// out\n        /* \"#utility.yul\":1661:2027   */\n    tag_233:\n        /* \"#utility.yul\":1803:1806   */\n      0x00\n        /* \"#utility.yul\":1824:1891   */\n      tag_235\n        /* \"#utility.yul\":1888:1890   */\n      0x2f\n        /* \"#utility.yul\":1883:1886   */\n      dup4\n        /* \"#utility.yul\":1824:1891   */\n      tag_230\n      jump\t// in\n    tag_235:\n        /* \"#utility.yul\":1817:1891   */\n      swap2\n      pop\n        /* \"#utility.yul\":1900:1993   */\n      tag_236\n        /* \"#utility.yul\":1989:1992   */\n      dup3\n        /* \"#utility.yul\":1900:1993   */\n      tag_237\n      jump\t// in\n    tag_236:\n        /* \"#utility.yul\":2018:2020   */\n      0x40\n        /* \"#utility.yul\":2013:2016   */\n      dup3\n        /* \"#utility.yul\":2009:2021   */\n      add\n        /* \"#utility.yul\":2002:2021   */\n      swap1\n      pop\n        /* \"#utility.yul\":1661:2027   */\n      swap2\n      swap1\n      pop\n      jump\t// out\n        /* \"#utility.yul\":2033:2399   */\n    tag_238:\n        /* \"#utility.yul\":2175:2178   */\n      0x00\n        /* \"#utility.yul\":2196:2263   */\n      tag_240\n        /* \"#utility.yul\":2260:2262   */\n      0x3a\n        /* \"#utility.yul\":2255:2258   */\n      dup4\n        /* \"#utility.yul\":2196:2263   */\n      tag_230\n      jump\t// in\n    tag_240:\n        /* \"#utility.yul\":2189:2263   */\n      swap2\n      pop\n        /* \"#utility.yul\":2272:2365   */\n      tag_241\n        /* \"#utility.yul\":2361:2364   */\n      dup3\n        /* \"#utility.yul\":2272:2365   */\n      tag_242\n      jump\t// in\n    tag_241:\n        /* \"#utility.yul\":2390:2392   */\n      0x40\n        /* \"#utility.yul\":2385:2388   */\n      dup3\n        /* \"#utility.yul\":2381:2393   */\n      add\n        /* \"#utility.yul\":2374:2393   */\n      swap1\n      pop\n        /* \"#utility.yul\":2033:2399   */\n      swap2\n      swap1\n      pop\n      jump\t// out\n        /* \"#utility.yul\":2405:2771   */\n    tag_243:\n        /* \"#utility.yul\":2547:2550   */\n      0x00\n        /* \"#utility.yul\":2568:2635   */\n      tag_245\n        /* \"#utility.yul\":2632:2634   */\n      0x2e\n        /* \"#utility.yul\":2627:2630   */\n      dup4\n        /* \"#utility.yul\":2568:2635   */\n      tag_230\n      jump\t// in\n    tag_245:\n        /* \"#utility.yul\":2561:2635   */\n      swap2\n      pop\n        /* \"#utility.yul\":2644:2737   */\n      tag_246\n        /* \"#utility.yul\":2733:2736   */\n      dup3\n        /* \"#utility.yul\":2644:2737   */\n      tag_247\n      jump\t// in\n    tag_246:\n        /* \"#utility.yul\":2762:2764   */\n      0x40\n        /* \"#utility.yul\":2757:2760   */\n      dup3\n        /* \"#utility.yul\":2753:2765   */\n      add\n        /* \"#utility.yul\":2746:2765   */\n      swap1\n      pop\n        /* \"#utility.yul\":2405:2771   */\n      swap2\n      swap1\n      pop\n      jump\t// out\n        /* \"#utility.yul\":2777:3143   */\n    tag_248:\n        /* \"#utility.yul\":2919:2922   */\n      0x00\n        /* \"#utility.yul\":2940:3007   */\n      tag_250\n        /* \"#utility.yul\":3004:3006   */\n      0x15\n        /* \"#utility.yul\":2999:3002   */\n      dup4\n        /* \"#utility.yul\":2940:3007   */\n      tag_230\n      jump\t// in\n    tag_250:\n        /* \"#utility.yul\":2933:3007   */\n      swap2\n      pop\n        /* \"#utility.yul\":3016:3109   */\n      tag_251\n        /* \"#utility.yul\":3105:3108   */\n      dup3\n        /* \"#utility.yul\":3016:3109   */\n      tag_252\n      jump\t// in\n    tag_251:\n        /* \"#utility.yul\":3134:3136   */\n      0x20\n        /* \"#utility.yul\":3129:3132   */\n      dup3\n        /* \"#utility.yul\":3125:3137   */\n      add\n        /* \"#utility.yul\":3118:3137   */\n      swap1\n      pop\n        /* \"#utility.yul\":2777:3143   */\n      swap2\n      swap1\n      pop\n      jump\t// out\n        /* \"#utility.yul\":3149:3515   */\n    tag_253:\n        /* \"#utility.yul\":3291:3294   */\n      0x00\n        /* \"#utility.yul\":3312:3379   */\n      tag_255\n        /* \"#utility.yul\":3376:3378   */\n      0x3b\n        /* \"#utility.yul\":3371:3374   */\n      dup4\n        /* \"#utility.yul\":3312:3379   */\n      tag_230\n      jump\t// in\n    tag_255:\n        /* \"#utility.yul\":3305:3379   */\n      swap2\n      pop\n        /* \"#utility.yul\":3388:3481   */\n      tag_256\n        /* \"#utility.yul\":3477:3480   */\n      dup3\n        /* \"#utility.yul\":3388:3481   */\n      tag_257\n      jump\t// in\n    tag_256:\n        /* \"#utility.yul\":3506:3508   */\n      0x40\n        /* \"#utility.yul\":3501:3504   */\n      dup3\n        /* \"#utility.yul\":3497:3509   */\n      add\n        /* \"#utility.yul\":3490:3509   */\n      swap1\n      pop\n        /* \"#utility.yul\":3149:3515   */\n      swap2\n      swap1\n      pop\n      jump\t// out\n        /* \"#utility.yul\":3521:3887   */\n    tag_258:\n        /* \"#utility.yul\":3663:3666   */\n      0x00\n        /* \"#utility.yul\":3684:3751   */\n      tag_260\n        /* \"#utility.yul\":3748:3750   */\n      0x2c\n        /* \"#utility.yul\":3743:3746   */\n      dup4\n        /* \"#utility.yul\":3684:3751   */\n      tag_230\n      jump\t// in\n    tag_260:\n        /* \"#utility.yul\":3677:3751   */\n      swap2\n      pop\n        /* \"#utility.yul\":3760:3853   */\n      tag_261\n        /* \"#utility.yul\":3849:3852   */\n      dup3\n        /* \"#utility.yul\":3760:3853   */\n      tag_262\n      jump\t// in\n    tag_261:\n        /* \"#utility.yul\":3878:3880   */\n      0x40\n        /* \"#utility.yul\":3873:3876   */\n      dup3\n        /* \"#utility.yul\":3869:3881   */\n      add\n        /* \"#utility.yul\":3862:3881   */\n      swap1\n      pop\n        /* \"#utility.yul\":3521:3887   */\n      swap2\n      swap1\n      pop\n      jump\t// out\n        /* \"#utility.yul\":3893:4259   */\n    tag_263:\n        /* \"#utility.yul\":4035:4038   */\n      0x00\n        /* \"#utility.yul\":4056:4123   */\n      tag_265\n        /* \"#utility.yul\":4120:4122   */\n      0x38\n        /* \"#utility.yul\":4115:4118   */\n      dup4\n        /* \"#utility.yul\":4056:4123   */\n      tag_230\n      jump\t// in\n    tag_265:\n        /* \"#utility.yul\":4049:4123   */\n      swap2\n      pop\n        /* \"#utility.yul\":4132:4225   */\n      tag_266\n        /* \"#utility.yul\":4221:4224   */\n      dup3\n        /* \"#utility.yul\":4132:4225   */\n      tag_267\n      jump\t// in\n    tag_266:\n        /* \"#utility.yul\":4250:4252   */\n      0x40\n        /* \"#utility.yul\":4245:4248   */\n      dup3\n        /* \"#utility.yul\":4241:4253   */\n      add\n        /* \"#utility.yul\":4234:4253   */\n      swap1\n      pop\n        /* \"#utility.yul\":3893:4259   */\n      swap2\n      swap1\n      pop\n      jump\t// out\n        /* \"#utility.yul\":4265:4631   */\n    tag_268:\n        /* \"#utility.yul\":4407:4410   */\n      0x00\n        /* \"#utility.yul\":4428:4495   */\n      tag_270\n        /* \"#utility.yul\":4492:4494   */\n      0x1d\n        /* \"#utility.yul\":4487:4490   */\n      dup4\n        /* \"#utility.yul\":4428:4495   */\n      tag_230\n      jump\t// in\n    tag_270:\n        /* \"#utility.yul\":4421:4495   */\n      swap2\n      pop\n        /* \"#utility.yul\":4504:4597   */\n      tag_271\n        /* \"#utility.yul\":4593:4596   */\n      dup3\n        /* \"#utility.yul\":4504:4597   */\n      tag_272\n      jump\t// in\n    tag_271:\n        /* \"#utility.yul\":4622:4624   */\n      0x20\n        /* \"#utility.yul\":4617:4620   */\n      dup3\n        /* \"#utility.yul\":4613:4625   */\n      add\n        /* \"#utility.yul\":4606:4625   */\n      swap1\n      pop\n        /* \"#utility.yul\":4265:4631   */\n      swap2\n      swap1\n      pop\n      jump\t// out\n        /* \"#utility.yul\":4637:5003   */\n    tag_273:\n        /* \"#utility.yul\":4779:4782   */\n      0x00\n        /* \"#utility.yul\":4800:4867   */\n      tag_275\n        /* \"#utility.yul\":4864:4866   */\n      0x26\n        /* \"#utility.yul\":4859:4862   */\n      dup4\n        /* \"#utility.yul\":4800:4867   */\n      tag_230\n      jump\t// in\n    tag_275:\n        /* \"#utility.yul\":4793:4867   */\n      swap2\n      pop\n        /* \"#utility.yul\":4876:4969   */\n      tag_276\n        /* \"#utility.yul\":4965:4968   */\n      dup3\n        /* \"#utility.yul\":4876:4969   */\n      tag_277\n      jump\t// in\n    tag_276:\n        /* \"#utility.yul\":4994:4996   */\n      0x40\n        /* \"#utility.yul\":4989:4992   */\n      dup3\n        /* \"#utility.yul\":4985:4997   */\n      add\n        /* \"#utility.yul\":4978:4997   */\n      swap1\n      pop\n        /* \"#utility.yul\":4637:5003   */\n      swap2\n      swap1\n      pop\n      jump\t// out\n        /* \"#utility.yul\":5009:5375   */\n    tag_278:\n        /* \"#utility.yul\":5151:5154   */\n      0x00\n        /* \"#utility.yul\":5172:5239   */\n      tag_280\n        /* \"#utility.yul\":5236:5238   */\n      0x2a\n        /* \"#utility.yul\":5231:5234   */\n      dup4\n        /* \"#utility.yul\":5172:5239   */\n      tag_230\n      jump\t// in\n    tag_280:\n        /* \"#utility.yul\":5165:5239   */\n      swap2\n      pop\n        /* \"#utility.yul\":5248:5341   */\n      tag_281\n        /* \"#utility.yul\":5337:5340   */\n      dup3\n        /* \"#utility.yul\":5248:5341   */\n      tag_282\n      jump\t// in\n    tag_281:\n        /* \"#utility.yul\":5366:5368   */\n      0x40\n        /* \"#utility.yul\":5361:5364   */\n      dup3\n        /* \"#utility.yul\":5357:5369   */\n      add\n        /* \"#utility.yul\":5350:5369   */\n      swap1\n      pop\n        /* \"#utility.yul\":5009:5375   */\n      swap2\n      swap1\n      pop\n      jump\t// out\n        /* \"#utility.yul\":5381:5747   */\n    tag_283:\n        /* \"#utility.yul\":5523:5526   */\n      0x00\n        /* \"#utility.yul\":5544:5611   */\n      tag_285\n        /* \"#utility.yul\":5608:5610   */\n      0x2c\n        /* \"#utility.yul\":5603:5606   */\n      dup4\n        /* \"#utility.yul\":5544:5611   */\n      tag_230\n      jump\t// in\n    tag_285:\n        /* \"#utility.yul\":5537:5611   */\n      swap2\n      pop\n        /* \"#utility.yul\":5620:5713   */\n      tag_286\n        /* \"#utility.yul\":5709:5712   */\n      dup3\n        /* \"#utility.yul\":5620:5713   */\n      tag_287\n      jump\t// in\n    tag_286:\n        /* \"#utility.yul\":5738:5740   */\n      0x40\n        /* \"#utility.yul\":5733:5736   */\n      dup3\n        /* \"#utility.yul\":5729:5741   */\n      add\n        /* \"#utility.yul\":5722:5741   */\n      swap1\n      pop\n        /* \"#utility.yul\":5381:5747   */\n      swap2\n      swap1\n      pop\n      jump\t// out\n        /* \"#utility.yul\":5753:5871   */\n    tag_288:\n        /* \"#utility.yul\":5840:5864   */\n      tag_290\n        /* \"#utility.yul\":5858:5863   */\n      dup2\n        /* \"#utility.yul\":5840:5864   */\n      tag_291\n      jump\t// in\n    tag_290:\n        /* \"#utility.yul\":5835:5838   */\n      dup3\n        /* \"#utility.yul\":5828:5865   */\n      mstore\n        /* \"#utility.yul\":5753:5871   */\n      pop\n      pop\n      jump\t// out\n        /* \"#utility.yul\":5877:6296   */\n    tag_17:\n        /* \"#utility.yul\":6043:6047   */\n      0x00\n        /* \"#utility.yul\":6081:6083   */\n      0x20\n        /* \"#utility.yul\":6070:6079   */\n      dup3\n        /* \"#utility.yul\":6066:6084   */\n      add\n        /* \"#utility.yul\":6058:6084   */\n      swap1\n      pop\n        /* \"#utility.yul\":6130:6139   */\n      dup2\n        /* \"#utility.yul\":6124:6128   */\n      dup2\n        /* \"#utility.yul\":6120:6140   */\n      sub\n        /* \"#utility.yul\":6116:6117   */\n      0x00\n        /* \"#utility.yul\":6105:6114   */\n      dup4\n        /* \"#utility.yul\":6101:6118   */\n      add\n        /* \"#utility.yul\":6094:6141   */\n      mstore\n        /* \"#utility.yul\":6158:6289   */\n      tag_293\n        /* \"#utility.yul\":6284:6288   */\n      dup2\n        /* \"#utility.yul\":6158:6289   */\n      tag_227\n      jump\t// in\n    tag_293:\n        /* \"#utility.yul\":6150:6289   */\n      swap1\n      pop\n        /* \"#utility.yul\":5877:6296   */\n      swap2\n      swap1\n      pop\n      jump\t// out\n        /* \"#utility.yul\":6302:6721   */\n    tag_95:\n        /* \"#utility.yul\":6468:6472   */\n      0x00\n        /* \"#utility.yul\":6506:6508   */\n      0x20\n        /* \"#utility.yul\":6495:6504   */\n      dup3\n        /* \"#utility.yul\":6491:6509   */\n      add\n        /* \"#utility.yul\":6483:6509   */\n      swap1\n      pop\n        /* \"#utility.yul\":6555:6564   */\n      dup2\n        /* \"#utility.yul\":6549:6553   */\n      dup2\n        /* \"#utility.yul\":6545:6565   */\n      sub\n        /* \"#utility.yul\":6541:6542   */\n      0x00\n        /* \"#utility.yul\":6530:6539   */\n      dup4\n        /* \"#utility.yul\":6526:6543   */\n      add\n        /* \"#utility.yul\":6519:6566   */\n      mstore\n        /* \"#utility.yul\":6583:6714   */\n      tag_295\n        /* \"#utility.yul\":6709:6713   */\n      dup2\n        /* \"#utility.yul\":6583:6714   */\n      tag_233\n      jump\t// in\n    tag_295:\n        /* \"#utility.yul\":6575:6714   */\n      swap1\n      pop\n        /* \"#utility.yul\":6302:6721   */\n      swap2\n      swap1\n      pop\n      jump\t// out\n        /* \"#utility.yul\":6727:7146   */\n    tag_85:\n        /* \"#utility.yul\":6893:6897   */\n      0x00\n        /* \"#utility.yul\":6931:6933   */\n      0x20\n        /* \"#utility.yul\":6920:6929   */\n      dup3\n        /* \"#utility.yul\":6916:6934   */\n      add\n        /* \"#utility.yul\":6908:6934   */\n      swap1\n      pop\n        /* \"#utility.yul\":6980:6989   */\n      dup2\n        /* \"#utility.yul\":6974:6978   */\n      dup2\n        /* \"#utility.yul\":6970:6990   */\n      sub\n        /* \"#utility.yul\":6966:6967   */\n      0x00\n        /* \"#utility.yul\":6955:6964   */\n      dup4\n        /* \"#utility.yul\":6951:6968   */\n      add\n        /* \"#utility.yul\":6944:6991   */\n      mstore\n        /* \"#utility.yul\":7008:7139   */\n      tag_297\n        /* \"#utility.yul\":7134:7138   */\n      dup2\n        /* \"#utility.yul\":7008:7139   */\n      tag_238\n      jump\t// in\n    tag_297:\n        /* \"#utility.yul\":7000:7139   */\n      swap1\n      pop\n        /* \"#utility.yul\":6727:7146   */\n      swap2\n      swap1\n      pop\n      jump\t// out\n        /* \"#utility.yul\":7152:7571   */\n    tag_92:\n        /* \"#utility.yul\":7318:7322   */\n      0x00\n        /* \"#utility.yul\":7356:7358   */\n      0x20\n        /* \"#utility.yul\":7345:7354   */\n      dup3\n        /* \"#utility.yul\":7341:7359   */\n      add\n        /* \"#utility.yul\":7333:7359   */\n      swap1\n      pop\n        /* \"#utility.yul\":7405:7414   */\n      dup2\n        /* \"#utility.yul\":7399:7403   */\n      dup2\n        /* \"#utility.yul\":7395:7415   */\n      sub\n        /* \"#utility.yul\":7391:7392   */\n      0x00\n        /* \"#utility.yul\":7380:7389   */\n      dup4\n        /* \"#utility.yul\":7376:7393   */\n      add\n        /* \"#utility.yul\":7369:7416   */\n      mstore\n        /* \"#utility.yul\":7433:7564   */\n      tag_299\n        /* \"#utility.yul\":7559:7563   */\n      dup2\n        /* \"#utility.yul\":7433:7564   */\n      tag_243\n      jump\t// in\n    tag_299:\n        /* \"#utility.yul\":7425:7564   */\n      swap1\n      pop\n        /* \"#utility.yul\":7152:7571   */\n      swap2\n      swap1\n      pop\n      jump\t// out\n        /* \"#utility.yul\":7577:7996   */\n    tag_71:\n        /* \"#utility.yul\":7743:7747   */\n      0x00\n        /* \"#utility.yul\":7781:7783   */\n      0x20\n        /* \"#utility.yul\":7770:7779   */\n      dup3\n        /* \"#utility.yul\":7766:7784   */\n      add\n        /* \"#utility.yul\":7758:7784   */\n      swap1\n      pop\n        /* \"#utility.yul\":7830:7839   */\n      dup2\n        /* \"#utility.yul\":7824:7828   */\n      dup2\n        /* \"#utility.yul\":7820:7840   */\n      sub\n        /* \"#utility.yul\":7816:7817   */\n      0x00\n        /* \"#utility.yul\":7805:7814   */\n      dup4\n        /* \"#utility.yul\":7801:7818   */\n      add\n        /* \"#utility.yul\":7794:7841   */\n      mstore\n        /* \"#utility.yul\":7858:7989   */\n      tag_301\n        /* \"#utility.yul\":7984:7988   */\n      dup2\n        /* \"#utility.yul\":7858:7989   */\n      tag_248\n      jump\t// in\n    tag_301:\n        /* \"#utility.yul\":7850:7989   */\n      swap1\n      pop\n        /* \"#utility.yul\":7577:7996   */\n      swap2\n      swap1\n      pop\n      jump\t// out\n        /* \"#utility.yul\":8002:8421   */\n    tag_142:\n        /* \"#utility.yul\":8168:8172   */\n      0x00\n        /* \"#utility.yul\":8206:8208   */\n      0x20\n        /* \"#utility.yul\":8195:8204   */\n      dup3\n        /* \"#utility.yul\":8191:8209   */\n      add\n        /* \"#utility.yul\":8183:8209   */\n      swap1\n      pop\n        /* \"#utility.yul\":8255:8264   */\n      dup2\n        /* \"#utility.yul\":8249:8253   */\n      dup2\n        /* \"#utility.yul\":8245:8265   */\n      sub\n        /* \"#utility.yul\":8241:8242   */\n      0x00\n        /* \"#utility.yul\":8230:8239   */\n      dup4\n        /* \"#utility.yul\":8226:8243   */\n      add\n        /* \"#utility.yul\":8219:8266   */\n      mstore\n        /* \"#utility.yul\":8283:8414   */\n      tag_303\n        /* \"#utility.yul\":8409:8413   */\n      dup2\n        /* \"#utility.yul\":8283:8414   */\n      tag_253\n      jump\t// in\n    tag_303:\n        /* \"#utility.yul\":8275:8414   */\n      swap1\n      pop\n        /* \"#utility.yul\":8002:8421   */\n      swap2\n      swap1\n      pop\n      jump\t// out\n        /* \"#utility.yul\":8427:8846   */\n    tag_120:\n        /* \"#utility.yul\":8593:8597   */\n      0x00\n        /* \"#utility.yul\":8631:8633   */\n      0x20\n        /* \"#utility.yul\":8620:8629   */\n      dup3\n        /* \"#utility.yul\":8616:8634   */\n      add\n        /* \"#utility.yul\":8608:8634   */\n      swap1\n      pop\n        /* \"#utility.yul\":8680:8689   */\n      dup2\n        /* \"#utility.yul\":8674:8678   */\n      dup2\n        /* \"#utility.yul\":8670:8690   */\n      sub\n        /* \"#utility.yul\":8666:8667   */\n      0x00\n        /* \"#utility.yul\":8655:8664   */\n      dup4\n        /* \"#utility.yul\":8651:8668   */\n      add\n        /* \"#utility.yul\":8644:8691   */\n      mstore\n        /* \"#utility.yul\":8708:8839   */\n      tag_305\n        /* \"#utility.yul\":8834:8838   */\n      dup2\n        /* \"#utility.yul\":8708:8839   */\n      tag_258\n      jump\t// in\n    tag_305:\n        /* \"#utility.yul\":8700:8839   */\n      swap1\n      pop\n        /* \"#utility.yul\":8427:8846   */\n      swap2\n      swap1\n      pop\n      jump\t// out\n        /* \"#utility.yul\":8852:9271   */\n    tag_125:\n        /* \"#utility.yul\":9018:9022   */\n      0x00\n        /* \"#utility.yul\":9056:9058   */\n      0x20\n        /* \"#utility.yul\":9045:9054   */\n      dup3\n        /* \"#utility.yul\":9041:9059   */\n      add\n        /* \"#utility.yul\":9033:9059   */\n      swap1\n      pop\n        /* \"#utility.yul\":9105:9114   */\n      dup2\n        /* \"#utility.yul\":9099:9103   */\n      dup2\n        /* \"#utility.yul\":9095:9115   */\n      sub\n        /* \"#utility.yul\":9091:9092   */\n      0x00\n        /* \"#utility.yul\":9080:9089   */\n      dup4\n        /* \"#utility.yul\":9076:9093   */\n      add\n        /* \"#utility.yul\":9069:9116   */\n      mstore\n        /* \"#utility.yul\":9133:9264   */\n      tag_307\n        /* \"#utility.yul\":9259:9263   */\n      dup2\n        /* \"#utility.yul\":9133:9264   */\n      tag_263\n      jump\t// in\n    tag_307:\n        /* \"#utility.yul\":9125:9264   */\n      swap1\n      pop\n        /* \"#utility.yul\":8852:9271   */\n      swap2\n      swap1\n      pop\n      jump\t// out\n        /* \"#utility.yul\":9277:9696   */\n    tag_65:\n        /* \"#utility.yul\":9443:9447   */\n      0x00\n        /* \"#utility.yul\":9481:9483   */\n      0x20\n        /* \"#utility.yul\":9470:9479   */\n      dup3\n        /* \"#utility.yul\":9466:9484   */\n      add\n        /* \"#utility.yul\":9458:9484   */\n      swap1\n      pop\n        /* \"#utility.yul\":9530:9539   */\n      dup2\n        /* \"#utility.yul\":9524:9528   */\n      dup2\n        /* \"#utility.yul\":9520:9540   */\n      sub\n        /* \"#utility.yul\":9516:9517   */\n      0x00\n        /* \"#utility.yul\":9505:9514   */\n      dup4\n        /* \"#utility.yul\":9501:9518   */\n      add\n        /* \"#utility.yul\":9494:9541   */\n      mstore\n        /* \"#utility.yul\":9558:9689   */\n      tag_309\n        /* \"#utility.yul\":9684:9688   */\n      dup2\n        /* \"#utility.yul\":9558:9689   */\n      tag_268\n      jump\t// in\n    tag_309:\n        /* \"#utility.yul\":9550:9689   */\n      swap1\n      pop\n        /* \"#utility.yul\":9277:9696   */\n      swap2\n      swap1\n      pop\n      jump\t// out\n        /* \"#utility.yul\":9702:10121   */\n    tag_61:\n        /* \"#utility.yul\":9868:9872   */\n      0x00\n        /* \"#utility.yul\":9906:9908   */\n      0x20\n        /* \"#utility.yul\":9895:9904   */\n      dup3\n        /* \"#utility.yul\":9891:9909   */\n      add\n        /* \"#utility.yul\":9883:9909   */\n      swap1\n      pop\n        /* \"#utility.yul\":9955:9964   */\n      dup2\n        /* \"#utility.yul\":9949:9953   */\n      dup2\n        /* \"#utility.yul\":9945:9965   */\n      sub\n        /* \"#utility.yul\":9941:9942   */\n      0x00\n        /* \"#utility.yul\":9930:9939   */\n      dup4\n        /* \"#utility.yul\":9926:9943   */\n      add\n        /* \"#utility.yul\":9919:9966   */\n      mstore\n        /* \"#utility.yul\":9983:10114   */\n      tag_311\n        /* \"#utility.yul\":10109:10113   */\n      dup2\n        /* \"#utility.yul\":9983:10114   */\n      tag_273\n      jump\t// in\n    tag_311:\n        /* \"#utility.yul\":9975:10114   */\n      swap1\n      pop\n        /* \"#utility.yul\":9702:10121   */\n      swap2\n      swap1\n      pop\n      jump\t// out\n        /* \"#utility.yul\":10127:10546   */\n    tag_137:\n        /* \"#utility.yul\":10293:10297   */\n      0x00\n        /* \"#utility.yul\":10331:10333   */\n      0x20\n        /* \"#utility.yul\":10320:10329   */\n      dup3\n        /* \"#utility.yul\":10316:10334   */\n      add\n        /* \"#utility.yul\":10308:10334   */\n      swap1\n      pop\n        /* \"#utility.yul\":10380:10389   */\n      dup2\n        /* \"#utility.yul\":10374:10378   */\n      dup2\n        /* \"#utility.yul\":10370:10390   */\n      sub\n        /* \"#utility.yul\":10366:10367   */\n      0x00\n        /* \"#utility.yul\":10355:10364   */\n      dup4\n        /* \"#utility.yul\":10351:10368   */\n      add\n        /* \"#utility.yul\":10344:10391   */\n      mstore\n        /* \"#utility.yul\":10408:10539   */\n      tag_313\n        /* \"#utility.yul\":10534:10538   */\n      dup2\n        /* \"#utility.yul\":10408:10539   */\n      tag_278\n      jump\t// in\n    tag_313:\n        /* \"#utility.yul\":10400:10539   */\n      swap1\n      pop\n        /* \"#utility.yul\":10127:10546   */\n      swap2\n      swap1\n      pop\n      jump\t// out\n        /* \"#utility.yul\":10552:10971   */\n    tag_68:\n        /* \"#utility.yul\":10718:10722   */\n      0x00\n        /* \"#utility.yul\":10756:10758   */\n      0x20\n        /* \"#utility.yul\":10745:10754   */\n      dup3\n        /* \"#utility.yul\":10741:10759   */\n      add\n        /* \"#utility.yul\":10733:10759   */\n      swap1\n      pop\n        /* \"#utility.yul\":10805:10814   */\n      dup2\n        /* \"#utility.yul\":10799:10803   */\n      dup2\n        /* \"#utility.yul\":10795:10815   */\n      sub\n        /* \"#utility.yul\":10791:10792   */\n      0x00\n        /* \"#utility.yul\":10780:10789   */\n      dup4\n        /* \"#utility.yul\":10776:10793   */\n      add\n        /* \"#utility.yul\":10769:10816   */\n      mstore\n        /* \"#utility.yul\":10833:10964   */\n      tag_315\n        /* \"#utility.yul\":10959:10963   */\n      dup2\n        /* \"#utility.yul\":10833:10964   */\n      tag_283\n      jump\t// in\n    tag_315:\n        /* \"#utility.yul\":10825:10964   */\n      swap1\n      pop\n        /* \"#utility.yul\":10552:10971   */\n      swap2\n      swap1\n      pop\n      jump\t// out\n        /* \"#utility.yul\":10977:11199   */\n    tag_35:\n        /* \"#utility.yul\":11070:11074   */\n      0x00\n        /* \"#utility.yul\":11108:11110   */\n      0x20\n        /* \"#utility.yul\":11097:11106   */\n      dup3\n        /* \"#utility.yul\":11093:11111   */\n      add\n        /* \"#utility.yul\":11085:11111   */\n      swap1\n      pop\n        /* \"#utility.yul\":11121:11192   */\n      tag_317\n        /* \"#utility.yul\":11189:11190   */\n      0x00\n        /* \"#utility.yul\":11178:11187   */\n      dup4\n        /* \"#utility.yul\":11174:11191   */\n      add\n        /* \"#utility.yul\":11165:11171   */\n      dup5\n        /* \"#utility.yul\":11121:11192   */\n      tag_288\n      jump\t// in\n    tag_317:\n        /* \"#utility.yul\":10977:11199   */\n      swap3\n      swap2\n      pop\n      pop\n      jump\t// out\n        /* \"#utility.yul\":11286:11455   */\n    tag_230:\n        /* \"#utility.yul\":11370:11381   */\n      0x00\n        /* \"#utility.yul\":11404:11410   */\n      dup3\n        /* \"#utility.yul\":11399:11402   */\n      dup3\n        /* \"#utility.yul\":11392:11411   */\n      mstore\n        /* \"#utility.yul\":11444:11448   */\n      0x20\n        /* \"#utility.yul\":11439:11442   */\n      dup3\n        /* \"#utility.yul\":11435:11449   */\n      add\n        /* \"#utility.yul\":11420:11449   */\n      swap1\n      pop\n        /* \"#utility.yul\":11286:11455   */\n      swap3\n      swap2\n      pop\n      pop\n      jump\t// out\n        /* \"#utility.yul\":11461:11766   */\n    tag_19:\n        /* \"#utility.yul\":11501:11504   */\n      0x00\n        /* \"#utility.yul\":11520:11540   */\n      tag_322\n        /* \"#utility.yul\":11538:11539   */\n      dup3\n        /* \"#utility.yul\":11520:11540   */\n      tag_291\n      jump\t// in\n    tag_322:\n        /* \"#utility.yul\":11515:11540   */\n      swap2\n      pop\n        /* \"#utility.yul\":11554:11574   */\n      tag_323\n        /* \"#utility.yul\":11572:11573   */\n      dup4\n        /* \"#utility.yul\":11554:11574   */\n      tag_291\n      jump\t// in\n    tag_323:\n        /* \"#utility.yul\":11549:11574   */\n      swap3\n      pop\n        /* \"#utility.yul\":11708:11709   */\n      dup3\n        /* \"#utility.yul\":11640:11706   */\n      0xffffffffffffffffffffffffffffffffffffffffffffffffffffffffffffffff\n        /* \"#utility.yul\":11636:11710   */\n      sub\n        /* \"#utility.yul\":11633:11634   */\n      dup3\n        /* \"#utility.yul\":11630:11711   */\n      gt\n        /* \"#utility.yul\":11627:11734   */\n      iszero\n      tag_324\n      jumpi\n        /* \"#utility.yul\":11714:11732   */\n      tag_325\n      tag_326\n      jump\t// in\n    tag_325:\n        /* \"#utility.yul\":11627:11734   */\n    tag_324:\n        /* \"#utility.yul\":11758:11759   */\n      dup3\n        /* \"#utility.yul\":11755:11756   */\n      dup3\n        /* \"#utility.yul\":11751:11760   */\n      add\n        /* \"#utility.yul\":11744:11760   */\n      swap1\n      pop\n        /* \"#utility.yul\":11461:11766   */\n      swap3\n      swap2\n      pop\n      pop\n      jump\t// out\n        /* \"#utility.yul\":11772:11957   */\n    tag_194:\n        /* \"#utility.yul\":11812:11813   */\n      0x00\n        /* \"#utility.yul\":11829:11849   */\n      tag_328\n        /* \"#utility.yul\":11847:11848   */\n      dup3\n        /* \"#utility.yul\":11829:11849   */\n      tag_291\n      jump\t// in\n    tag_328:\n        /* \"#utility.yul\":11824:11849   */\n      swap2\n      pop\n        /* \"#utility.yul\":11863:11883   */\n      tag_329\n        /* \"#utility.yul\":11881:11882   */\n      dup4\n        /* \"#utility.yul\":11863:11883   */\n      tag_291\n      jump\t// in\n    tag_329:\n        /* \"#utility.yul\":11858:11883   */\n      swap3\n      pop\n        /* \"#utility.yul\":11902:11903   */\n      dup3\n        /* \"#utility.yul\":11892:11927   */\n      tag_330\n      jumpi\n        /* \"#utility.yul\":11907:11925   */\n      tag_331\n      tag_332\n      jump\t// in\n    tag_331:\n        /* \"#utility.yul\":11892:11927   */\n    tag_330:\n        /* \"#utility.yul\":11949:11950   */\n      dup3\n        /* \"#utility.yul\":11946:11947   */\n      dup3\n        /* \"#utility.yul\":11942:11951   */\n      div\n        /* \"#utility.yul\":11937:11951   */\n      swap1\n      pop\n        /* \"#utility.yul\":11772:11957   */\n      swap3\n      swap2\n      pop\n      pop\n      jump\t// out\n        /* \"#utility.yul\":11963:12311   */\n    tag_196:\n        /* \"#utility.yul\":12003:12010   */\n      0x00\n        /* \"#utility.yul\":12026:12046   */\n      tag_334\n        /* \"#utility.yul\":12044:12045   */\n      dup3\n        /* \"#utility.yul\":12026:12046   */\n      tag_291\n      jump\t// in\n    tag_334:\n        /* \"#utility.yul\":12021:12046   */\n      swap2\n      pop\n        /* \"#utility.yul\":12060:12080   */\n      tag_335\n        /* \"#utility.yul\":12078:12079   */\n      dup4\n        /* \"#utility.yul\":12060:12080   */\n      tag_291\n      jump\t// in\n    tag_335:\n        /* \"#utility.yul\":12055:12080   */\n      swap3\n      pop\n        /* \"#utility.yul\":12248:12249   */\n      dup2\n        /* \"#utility.yul\":12180:12246   */\n      0xffffffffffffffffffffffffffffffffffffffffffffffffffffffffffffffff\n        /* \"#utility.yul\":12176:12250   */\n      div\n        /* \"#utility.yul\":12173:12174   */\n      dup4\n        /* \"#utility.yul\":12170:12251   */\n      gt\n        /* \"#utility.yul\":12165:12166   */\n      dup3\n        /* \"#utility.yul\":12158:12167   */\n      iszero\n        /* \"#utility.yul\":12151:12168   */\n      iszero\n        /* \"#utility.yul\":12147:12252   */\n      and\n        /* \"#utility.yul\":12144:12275   */\n      iszero\n      tag_336\n      jumpi\n        /* \"#utility.yul\":12255:12273   */\n      tag_337\n      tag_326\n      jump\t// in\n    tag_337:\n        /* \"#utility.yul\":12144:12275   */\n    tag_336:\n        /* \"#utility.yul\":12303:12304   */\n      dup3\n        /* \"#utility.yul\":12300:12301   */\n      dup3\n        /* \"#utility.yul\":12296:12305   */\n      mul\n        /* \"#utility.yul\":12285:12305   */\n      swap1\n      pop\n        /* \"#utility.yul\":11963:12311   */\n      swap3\n      swap2\n      pop\n      pop\n      jump\t// out\n        /* \"#utility.yul\":12317:12508   */\n    tag_109:\n        /* \"#utility.yul\":12357:12361   */\n      0x00\n        /* \"#utility.yul\":12377:12397   */\n      tag_339\n        /* \"#utility.yul\":12395:12396   */\n      dup3\n        /* \"#utility.yul\":12377:12397   */\n      tag_291\n      jump\t// in\n    tag_339:\n        /* \"#utility.yul\":12372:12397   */\n      swap2\n      pop\n        /* \"#utility.yul\":12411:12431   */\n      tag_340\n        /* \"#utility.yul\":12429:12430   */\n      dup4\n        /* \"#utility.yul\":12411:12431   */\n      tag_291\n      jump\t// in\n    tag_340:\n        /* \"#utility.yul\":12406:12431   */\n      swap3\n      pop\n        /* \"#utility.yul\":12450:12451   */\n      dup3\n        /* \"#utility.yul\":12447:12448   */\n      dup3\n        /* \"#utility.yul\":12444:12452   */\n      lt\n        /* \"#utility.yul\":12441:12475   */\n      iszero\n      tag_341\n      jumpi\n        /* \"#utility.yul\":12455:12473   */\n      tag_342\n      tag_326\n      jump\t// in\n    tag_342:\n        /* \"#utility.yul\":12441:12475   */\n    tag_341:\n        /* \"#utility.yul\":12500:12501   */\n      dup3\n        /* \"#utility.yul\":12497:12498   */\n      dup3\n        /* \"#utility.yul\":12493:12502   */\n      sub\n        /* \"#utility.yul\":12485:12502   */\n      swap1\n      pop\n        /* \"#utility.yul\":12317:12508   */\n      swap3\n      swap2\n      pop\n      pop\n      jump\t// out\n        /* \"#utility.yul\":12514:12610   */\n    tag_343:\n        /* \"#utility.yul\":12551:12558   */\n      0x00\n        /* \"#utility.yul\":12580:12604   */\n      tag_345\n        /* \"#utility.yul\":12598:12603   */\n      dup3\n        /* \"#utility.yul\":12580:12604   */\n      tag_346\n      jump\t// in\n    tag_345:\n        /* \"#utility.yul\":12569:12604   */\n      swap1\n      pop\n        /* \"#utility.yul\":12514:12610   */\n      swap2\n      swap1\n      pop\n      jump\t// out\n        /* \"#utility.yul\":12616:12720   */\n    tag_347:\n        /* \"#utility.yul\":12661:12668   */\n      0x00\n        /* \"#utility.yul\":12690:12714   */\n      tag_349\n        /* \"#utility.yul\":12708:12713   */\n      dup3\n        /* \"#utility.yul\":12690:12714   */\n      tag_346\n      jump\t// in\n    tag_349:\n        /* \"#utility.yul\":12679:12714   */\n      swap1\n      pop\n        /* \"#utility.yul\":12616:12720   */\n      swap2\n      swap1\n      pop\n      jump\t// out\n        /* \"#utility.yul\":12726:12852   */\n    tag_346:\n        /* \"#utility.yul\":12763:12770   */\n      0x00\n        /* \"#utility.yul\":12803:12845   */\n      0xffffffffffffffffffffffffffffffffffffffff\n        /* \"#utility.yul\":12796:12801   */\n      dup3\n        /* \"#utility.yul\":12792:12846   */\n      and\n        /* \"#utility.yul\":12781:12846   */\n      swap1\n      pop\n        /* \"#utility.yul\":12726:12852   */\n      swap2\n      swap1\n      pop\n      jump\t// out\n        /* \"#utility.yul\":12858:12935   */\n    tag_291:\n        /* \"#utility.yul\":12895:12902   */\n      0x00\n        /* \"#utility.yul\":12924:12929   */\n      dup2\n        /* \"#utility.yul\":12913:12929   */\n      swap1\n      pop\n        /* \"#utility.yul\":12858:12935   */\n      swap2\n      swap1\n      pop\n      jump\t// out\n        /* \"#utility.yul\":12941:13027   */\n    tag_352:\n        /* \"#utility.yul\":12976:12983   */\n      0x00\n        /* \"#utility.yul\":13016:13020   */\n      0xff\n        /* \"#utility.yul\":13009:13014   */\n      dup3\n        /* \"#utility.yul\":13005:13021   */\n      and\n        /* \"#utility.yul\":12994:13021   */\n      swap1\n      pop\n        /* \"#utility.yul\":12941:13027   */\n      swap2\n      swap1\n      pop\n      jump\t// out\n        /* \"#utility.yul\":13033:13266   */\n    tag_106:\n        /* \"#utility.yul\":13072:13075   */\n      0x00\n        /* \"#utility.yul\":13095:13119   */\n      tag_355\n        /* \"#utility.yul\":13113:13118   */\n      dup3\n        /* \"#utility.yul\":13095:13119   */\n      tag_291\n      jump\t// in\n    tag_355:\n        /* \"#utility.yul\":13086:13119   */\n      swap2\n      pop\n        /* \"#utility.yul\":13141:13207   */\n      0xffffffffffffffffffffffffffffffffffffffffffffffffffffffffffffffff\n        /* \"#utility.yul\":13134:13139   */\n      dup3\n        /* \"#utility.yul\":13131:13208   */\n      eq\n        /* \"#utility.yul\":13128:13231   */\n      iszero\n      tag_356\n      jumpi\n        /* \"#utility.yul\":13211:13229   */\n      tag_357\n      tag_326\n      jump\t// in\n    tag_357:\n        /* \"#utility.yul\":13128:13231   */\n    tag_356:\n        /* \"#utility.yul\":13258:13259   */\n      0x01\n        /* \"#utility.yul\":13251:13256   */\n      dup3\n        /* \"#utility.yul\":13247:13260   */\n      add\n        /* \"#utility.yul\":13240:13260   */\n      swap1\n      pop\n        /* \"#utility.yul\":13033:13266   */\n      swap2\n      swap1\n      pop\n      jump\t// out\n        /* \"#utility.yul\":13272:13439   */\n    tag_163:\n        /* \"#utility.yul\":13309:13312   */\n      0x00\n        /* \"#utility.yul\":13332:13354   */\n      tag_359\n        /* \"#utility.yul\":13348:13353   */\n      dup3\n        /* \"#utility.yul\":13332:13354   */\n      tag_352\n      jump\t// in\n    tag_359:\n        /* \"#utility.yul\":13323:13354   */\n      swap2\n      pop\n        /* \"#utility.yul\":13376:13380   */\n      0xff\n        /* \"#utility.yul\":13369:13374   */\n      dup3\n        /* \"#utility.yul\":13366:13381   */\n      eq\n        /* \"#utility.yul\":13363:13404   */\n      iszero\n      tag_360\n      jumpi\n        /* \"#utility.yul\":13384:13402   */\n      tag_361\n      tag_326\n      jump\t// in\n    tag_361:\n        /* \"#utility.yul\":13363:13404   */\n    tag_360:\n        /* \"#utility.yul\":13431:13432   */\n      0x01\n        /* \"#utility.yul\":13424:13429   */\n      dup3\n        /* \"#utility.yul\":13420:13433   */\n      add\n        /* \"#utility.yul\":13413:13433   */\n      swap1\n      pop\n        /* \"#utility.yul\":13272:13439   */\n      swap2\n      swap1\n      pop\n      jump\t// out\n        /* \"#utility.yul\":13445:13625   */\n    tag_326:\n        /* \"#utility.yul\":13493:13570   */\n      0x4e487b7100000000000000000000000000000000000000000000000000000000\n        /* \"#utility.yul\":13490:13491   */\n      0x00\n        /* \"#utility.yul\":13483:13571   */\n      mstore\n        /* \"#utility.yul\":13590:13594   */\n      0x11\n        /* \"#utility.yul\":13587:13588   */\n      0x04\n        /* \"#utility.yul\":13580:13595   */\n      mstore\n        /* \"#utility.yul\":13614:13618   */\n      0x24\n        /* \"#utility.yul\":13611:13612   */\n      0x00\n        /* \"#utility.yul\":13604:13619   */\n      revert\n        /* \"#utility.yul\":13631:13811   */\n    tag_332:\n        /* \"#utility.yul\":13679:13756   */\n      0x4e487b7100000000000000000000000000000000000000000000000000000000\n        /* \"#utility.yul\":13676:13677   */\n      0x00\n        /* \"#utility.yul\":13669:13757   */\n      mstore\n        /* \"#utility.yul\":13776:13780   */\n      0x12\n        /* \"#utility.yul\":13773:13774   */\n      0x04\n        /* \"#utility.yul\":13766:13781   */\n      mstore\n        /* \"#utility.yul\":13800:13804   */\n      0x24\n        /* \"#utility.yul\":13797:13798   */\n      0x00\n        /* \"#utility.yul\":13790:13805   */\n      revert\n        /* \"#utility.yul\":13817:13997   */\n    tag_102:\n        /* \"#utility.yul\":13865:13942   */\n      0x4e487b7100000000000000000000000000000000000000000000000000000000\n        /* \"#utility.yul\":13862:13863   */\n      0x00\n        /* \"#utility.yul\":13855:13943   */\n      mstore\n        /* \"#utility.yul\":13962:13966   */\n      0x32\n        /* \"#utility.yul\":13959:13960   */\n      0x04\n        /* \"#utility.yul\":13952:13967   */\n      mstore\n        /* \"#utility.yul\":13986:13990   */\n      0x24\n        /* \"#utility.yul\":13983:13984   */\n      0x00\n        /* \"#utility.yul\":13976:13991   */\n      revert\n        /* \"#utility.yul\":14126:14243   */\n    tag_220:\n        /* \"#utility.yul\":14235:14236   */\n      0x00\n        /* \"#utility.yul\":14232:14233   */\n      dup1\n        /* \"#utility.yul\":14225:14237   */\n      revert\n        /* \"#utility.yul\":14249:14561   */\n    tag_232:\n        /* \"#utility.yul\":14389:14423   */\n      0x73746f7265206d757374206d6f7265207468616e2030207765692c20696e6465\n        /* \"#utility.yul\":14385:14386   */\n      0x00\n        /* \"#utility.yul\":14377:14383   */\n      dup3\n        /* \"#utility.yul\":14373:14387   */\n      add\n        /* \"#utility.yul\":14366:14424   */\n      mstore\n        /* \"#utility.yul\":14458:14492   */\n      0x656420746865206761732066656520646f206e6f742064656372656173652069\n        /* \"#utility.yul\":14453:14455   */\n      0x20\n        /* \"#utility.yul\":14445:14451   */\n      dup3\n        /* \"#utility.yul\":14441:14456   */\n      add\n        /* \"#utility.yul\":14434:14493   */\n      mstore\n        /* \"#utility.yul\":14527:14553   */\n      0x6620796f7520746f70696e2061206c6f772076616c75652e0000000000000000\n        /* \"#utility.yul\":14522:14524   */\n      0x40\n        /* \"#utility.yul\":14514:14520   */\n      dup3\n        /* \"#utility.yul\":14510:14525   */\n      add\n        /* \"#utility.yul\":14503:14554   */\n      mstore\n        /* \"#utility.yul\":14249:14561   */\n      pop\n      jump\t// out\n        /* \"#utility.yul\":14567:14801   */\n    tag_237:\n        /* \"#utility.yul\":14707:14741   */\n      0x74686572652069736e277420616e792077697468647277616c73207761697420\n        /* \"#utility.yul\":14703:14704   */\n      0x00\n        /* \"#utility.yul\":14695:14701   */\n      dup3\n        /* \"#utility.yul\":14691:14705   */\n      add\n        /* \"#utility.yul\":14684:14742   */\n      mstore\n        /* \"#utility.yul\":14776:14793   */\n      0x666f722063616e63656c6174696f6e0000000000000000000000000000000000\n        /* \"#utility.yul\":14771:14773   */\n      0x20\n        /* \"#utility.yul\":14763:14769   */\n      dup3\n        /* \"#utility.yul\":14759:14774   */\n      add\n        /* \"#utility.yul\":14752:14794   */\n      mstore\n        /* \"#utility.yul\":14567:14801   */\n      pop\n      jump\t// out\n        /* \"#utility.yul\":14807:15052   */\n    tag_242:\n        /* \"#utility.yul\":14947:14981   */\n      0x6f6e6c792074686520636f756e746572207061727479206f6620696e69746961\n        /* \"#utility.yul\":14943:14944   */\n      0x00\n        /* \"#utility.yul\":14935:14941   */\n      dup3\n        /* \"#utility.yul\":14931:14945   */\n      add\n        /* \"#utility.yul\":14924:14982   */\n      mstore\n        /* \"#utility.yul\":15016:15044   */\n      0x746f722063616e2063616c6c20746869732066756e6374696f6e000000000000\n        /* \"#utility.yul\":15011:15013   */\n      0x20\n        /* \"#utility.yul\":15003:15009   */\n      dup3\n        /* \"#utility.yul\":14999:15014   */\n      add\n        /* \"#utility.yul\":14992:15045   */\n      mstore\n        /* \"#utility.yul\":14807:15052   */\n      pop\n      jump\t// out\n        /* \"#utility.yul\":15058:15291   */\n    tag_247:\n        /* \"#utility.yul\":15198:15232   */\n      0x796f752068617665207369676e656420666f722063616e63656c6c6174696f6e\n        /* \"#utility.yul\":15194:15195   */\n      0x00\n        /* \"#utility.yul\":15186:15192   */\n      dup3\n        /* \"#utility.yul\":15182:15196   */\n      add\n        /* \"#utility.yul\":15175:15233   */\n      mstore\n        /* \"#utility.yul\":15267:15283   */\n      0x2c20646f6e277420726570656174000000000000000000000000000000000000\n        /* \"#utility.yul\":15262:15264   */\n      0x20\n        /* \"#utility.yul\":15254:15260   */\n      dup3\n        /* \"#utility.yul\":15250:15265   */\n      add\n        /* \"#utility.yul\":15243:15284   */\n      mstore\n        /* \"#utility.yul\":15058:15291   */\n      pop\n      jump\t// out\n        /* \"#utility.yul\":15297:15468   */\n    tag_252:\n        /* \"#utility.yul\":15437:15460   */\n      0x696e76616c696420746172676574416464726573730000000000000000000000\n        /* \"#utility.yul\":15433:15434   */\n      0x00\n        /* \"#utility.yul\":15425:15431   */\n      dup3\n        /* \"#utility.yul\":15421:15435   */\n      add\n        /* \"#utility.yul\":15414:15461   */\n      mstore\n        /* \"#utility.yul\":15297:15468   */\n      pop\n      jump\t// out\n        /* \"#utility.yul\":15474:15720   */\n    tag_257:\n        /* \"#utility.yul\":15614:15648   */\n      0x6f6e6c7920706c6174666f726d206163636f756e7420697473656c662063616e\n        /* \"#utility.yul\":15610:15611   */\n      0x00\n        /* \"#utility.yul\":15602:15608   */\n      dup3\n        /* \"#utility.yul\":15598:15612   */\n      add\n        /* \"#utility.yul\":15591:15649   */\n      mstore\n        /* \"#utility.yul\":15683:15712   */\n      0x206368616e676520697420746f206f74686572206163636f756e740000000000\n        /* \"#utility.yul\":15678:15680   */\n      0x20\n        /* \"#utility.yul\":15670:15676   */\n      dup3\n        /* \"#utility.yul\":15666:15681   */\n      add\n        /* \"#utility.yul\":15659:15713   */\n      mstore\n        /* \"#utility.yul\":15474:15720   */\n      pop\n      jump\t// out\n        /* \"#utility.yul\":15726:15957   */\n    tag_262:\n        /* \"#utility.yul\":15866:15900   */\n      0x7468657265206973206e6f20776974686472617720616374696f6e2077616974\n        /* \"#utility.yul\":15862:15863   */\n      0x00\n        /* \"#utility.yul\":15854:15860   */\n      dup3\n        /* \"#utility.yul\":15850:15864   */\n      add\n        /* \"#utility.yul\":15843:15901   */\n      mstore\n        /* \"#utility.yul\":15935:15949   */\n      0x696e6720666f72207369676e0000000000000000000000000000000000000000\n        /* \"#utility.yul\":15930:15932   */\n      0x20\n        /* \"#utility.yul\":15922:15928   */\n      dup3\n        /* \"#utility.yul\":15918:15933   */\n      add\n        /* \"#utility.yul\":15911:15950   */\n      mstore\n        /* \"#utility.yul\":15726:15957   */\n      pop\n      jump\t// out\n        /* \"#utility.yul\":15963:16206   */\n    tag_267:\n        /* \"#utility.yul\":16103:16137   */\n      0x796f752068617665207369676e65642074686973207769746864726177207072\n        /* \"#utility.yul\":16099:16100   */\n      0x00\n        /* \"#utility.yul\":16091:16097   */\n      dup3\n        /* \"#utility.yul\":16087:16101   */\n      add\n        /* \"#utility.yul\":16080:16138   */\n      mstore\n        /* \"#utility.yul\":16172:16198   */\n      0x6f636573732c20706c7a20646f6e2774207265706561742e0000000000000000\n        /* \"#utility.yul\":16167:16169   */\n      0x20\n        /* \"#utility.yul\":16159:16165   */\n      dup3\n        /* \"#utility.yul\":16155:16170   */\n      add\n        /* \"#utility.yul\":16148:16199   */\n      mstore\n        /* \"#utility.yul\":15963:16206   */\n      pop\n      jump\t// out\n        /* \"#utility.yul\":16212:16391   */\n    tag_272:\n        /* \"#utility.yul\":16352:16383   */\n      0x7072652070726f6365737320686173206e6f74206265656e206f766572000000\n        /* \"#utility.yul\":16348:16349   */\n      0x00\n        /* \"#utility.yul\":16340:16346   */\n      dup3\n        /* \"#utility.yul\":16336:16350   */\n      add\n        /* \"#utility.yul\":16329:16384   */\n      mstore\n        /* \"#utility.yul\":16212:16391   */\n      pop\n      jump\t// out\n        /* \"#utility.yul\":16397:16622   */\n    tag_277:\n        /* \"#utility.yul\":16537:16571   */\n      0x6f6e6c7920636f6c6c61626f7261746f7273206861766520746865207065726d\n        /* \"#utility.yul\":16533:16534   */\n      0x00\n        /* \"#utility.yul\":16525:16531   */\n      dup3\n        /* \"#utility.yul\":16521:16535   */\n      add\n        /* \"#utility.yul\":16514:16572   */\n      mstore\n        /* \"#utility.yul\":16606:16614   */\n      0x697373696f6e0000000000000000000000000000000000000000000000000000\n        /* \"#utility.yul\":16601:16603   */\n      0x20\n        /* \"#utility.yul\":16593:16599   */\n      dup3\n        /* \"#utility.yul\":16589:16604   */\n      add\n        /* \"#utility.yul\":16582:16615   */\n      mstore\n        /* \"#utility.yul\":16397:16622   */\n      pop\n      jump\t// out\n        /* \"#utility.yul\":16628:16857   */\n    tag_282:\n        /* \"#utility.yul\":16768:16802   */\n      0x6f6e6c792074686520696e69746961746f722063616e2063616e63656c207468\n        /* \"#utility.yul\":16764:16765   */\n      0x00\n        /* \"#utility.yul\":16756:16762   */\n      dup3\n        /* \"#utility.yul\":16752:16766   */\n      add\n        /* \"#utility.yul\":16745:16803   */\n      mstore\n        /* \"#utility.yul\":16837:16849   */\n      0x69732070726f6365737300000000000000000000000000000000000000000000\n        /* \"#utility.yul\":16832:16834   */\n      0x20\n        /* \"#utility.yul\":16824:16830   */\n      dup3\n        /* \"#utility.yul\":16820:16835   */\n      add\n        /* \"#utility.yul\":16813:16850   */\n      mstore\n        /* \"#utility.yul\":16628:16857   */\n      pop\n      jump\t// out\n        /* \"#utility.yul\":16863:17094   */\n    tag_287:\n        /* \"#utility.yul\":17003:17037   */\n      0x77697468647261772062616c616e636520636f756c64206e6f74206d6f726520\n        /* \"#utility.yul\":16999:17000   */\n      0x00\n        /* \"#utility.yul\":16991:16997   */\n      dup3\n        /* \"#utility.yul\":16987:17001   */\n      add\n        /* \"#utility.yul\":16980:17038   */\n      mstore\n        /* \"#utility.yul\":17072:17086   */\n      0x7468616e2062616c616e63650000000000000000000000000000000000000000\n        /* \"#utility.yul\":17067:17069   */\n      0x20\n        /* \"#utility.yul\":17059:17065   */\n      dup3\n        /* \"#utility.yul\":17055:17070   */\n      add\n        /* \"#utility.yul\":17048:17087   */\n      mstore\n        /* \"#utility.yul\":16863:17094   */\n      pop\n      jump\t// out\n        /* \"#utility.yul\":17100:17222   */\n    tag_208:\n        /* \"#utility.yul\":17173:17197   */\n      tag_381\n        /* \"#utility.yul\":17191:17196   */\n      dup2\n        /* \"#utility.yul\":17173:17197   */\n      tag_343\n      jump\t// in\n    tag_381:\n        /* \"#utility.yul\":17166:17171   */\n      dup2\n        /* \"#utility.yul\":17163:17198   */\n      eq\n        /* \"#utility.yul\":17153:17216   */\n      tag_382\n      jumpi\n        /* \"#utility.yul\":17212:17213   */\n      0x00\n        /* \"#utility.yul\":17209:17210   */\n      dup1\n        /* \"#utility.yul\":17202:17214   */\n      revert\n        /* \"#utility.yul\":17153:17216   */\n    tag_382:\n        /* \"#utility.yul\":17100:17222   */\n      pop\n      jump\t// out\n        /* \"#utility.yul\":17228:17366   */\n    tag_212:\n        /* \"#utility.yul\":17309:17341   */\n      tag_384\n        /* \"#utility.yul\":17335:17340   */\n      dup2\n        /* \"#utility.yul\":17309:17341   */\n      tag_347\n      jump\t// in\n    tag_384:\n        /* \"#utility.yul\":17302:17307   */\n      dup2\n        /* \"#utility.yul\":17299:17342   */\n      eq\n        /* \"#utility.yul\":17289:17360   */\n      tag_385\n      jumpi\n        /* \"#utility.yul\":17356:17357   */\n      0x00\n        /* \"#utility.yul\":17353:17354   */\n      dup1\n        /* \"#utility.yul\":17346:17358   */\n      revert\n        /* \"#utility.yul\":17289:17360   */\n    tag_385:\n        /* \"#utility.yul\":17228:17366   */\n      pop\n      jump\t// out\n        /* \"#utility.yul\":17372:17494   */\n    tag_216:\n        /* \"#utility.yul\":17445:17469   */\n      tag_387\n        /* \"#utility.yul\":17463:17468   */\n      dup2\n        /* \"#utility.yul\":17445:17469   */\n      tag_291\n      jump\t// in\n    tag_387:\n        /* \"#utility.yul\":17438:17443   */\n      dup2\n        /* \"#utility.yul\":17435:17470   */\n      eq\n        /* \"#utility.yul\":17425:17488   */\n      tag_388\n      jumpi\n        /* \"#utility.yul\":17484:17485   */\n      0x00\n        /* \"#utility.yul\":17481:17482   */\n      dup1\n        /* \"#utility.yul\":17474:17486   */\n      revert\n        /* \"#utility.yul\":17425:17488   */\n    tag_388:\n        /* \"#utility.yul\":17372:17494   */\n      pop\n      jump\t// out\n\n    auxdata: 0xa26469706673582212207b013121d8d22598e747eb8ab742c0c495885b25d12c40274ddff6ea4418df8564736f6c63430008070033\n}\n",
				"bytecode": {
					"linkReferences": {},
					"object": "60806040523480156200001157600080fd5b5060405162002520380380620025208339818101604052810190620000379190620004e9565b33600160006101000a81548173ffffffffffffffffffffffffffffffffffffffff021916908373ffffffffffffffffffffffffffffffffffffffff1602179055506000825111620000bf576040517f08c379a0000000000000000000000000000000000000000000000000000000008152600401620000b690620005c4565b60405180910390fd5b620000cf6200020c60201b60201c565b62000111576040517f08c379a00000000000000000000000000000000000000000000000000000000081526004016200010890620005e6565b60405180910390fd5b60008160ff1611801562000129575081518160ff1611155b6200016b576040517f08c379a0000000000000000000000000000000000000000000000000000000008152600401620001629062000608565b60405180910390fd5b8160029080519060200190620001839291906200035f565b5080600360006101000a81548160ff021916908360ff16021790555073dd870fa1b7c4700f2bd7f44238821c26f7392148600c60006101000a81548173ffffffffffffffffffffffffffffffffffffffff021916908373ffffffffffffffffffffffffffffffffffffffff1602179055506014600a819055506005600b819055505050620009f3565b6000806000905060005b60028054905081101562000356576001600280549050620002389190620006f0565b811415620002465762000356565b600060018262000257919062000693565b90505b6002805490508110156200033f57600281815481106200027f576200027e62000829565b5b9060005260206000200160009054906101000a900473ffffffffffffffffffffffffffffffffffffffff1673ffffffffffffffffffffffffffffffffffffffff1660028381548110620002d757620002d662000829565b5b9060005260206000200160009054906101000a900473ffffffffffffffffffffffffffffffffffffffff1673ffffffffffffffffffffffffffffffffffffffff1614156200032957600192506200033f565b80806200033690620007ac565b9150506200025a565b5080806200034d90620007ac565b91505062000216565b50801591505090565b828054828255906000526020600020908101928215620003db579160200282015b82811115620003da5782518260006101000a81548173ffffffffffffffffffffffffffffffffffffffff021916908373ffffffffffffffffffffffffffffffffffffffff1602179055509160200191906001019062000380565b5b509050620003ea9190620003ee565b5090565b5b8082111562000409576000816000905550600101620003ef565b5090565b6000620004246200041e8462000653565b6200062a565b905080838252602082019050828560208602820111156200044a57620004496200088c565b5b60005b858110156200047e578162000463888262000488565b8452602084019350602083019250506001810190506200044d565b5050509392505050565b6000815190506200049981620009bf565b92915050565b600082601f830112620004b757620004b662000887565b5b8151620004c98482602086016200040d565b91505092915050565b600081519050620004e381620009d9565b92915050565b6000806040838503121562000503576200050262000896565b5b600083015167ffffffffffffffff81111562000524576200052362000891565b5b62000532858286016200049f565b92505060206200054585828601620004d2565b9150509250929050565b60006200055e60248362000682565b91506200056b82620008ac565b604082019050919050565b60006200058560278362000682565b91506200059282620008fb565b604082019050919050565b6000620005ac60508362000682565b9150620005b9826200094a565b606082019050919050565b60006020820190508181036000830152620005df816200054f565b9050919050565b60006020820190508181036000830152620006018162000576565b9050919050565b6000602082019050818103600083015262000623816200059d565b9050919050565b60006200063662000649565b905062000644828262000776565b919050565b6000604051905090565b600067ffffffffffffffff82111562000671576200067062000858565b5b602082029050602081019050919050565b600082825260208201905092915050565b6000620006a0826200075f565b9150620006ad836200075f565b9250827fffffffffffffffffffffffffffffffffffffffffffffffffffffffffffffffff03821115620006e557620006e4620007fa565b5b828201905092915050565b6000620006fd826200075f565b91506200070a836200075f565b92508282101562000720576200071f620007fa565b5b828203905092915050565b600062000738826200073f565b9050919050565b600073ffffffffffffffffffffffffffffffffffffffff82169050919050565b6000819050919050565b600060ff82169050919050565b62000781826200089b565b810181811067ffffffffffffffff82111715620007a357620007a262000858565b5b80604052505050565b6000620007b9826200075f565b91507fffffffffffffffffffffffffffffffffffffffffffffffffffffffffffffffff821415620007ef57620007ee620007fa565b5b600182019050919050565b7f4e487b7100000000000000000000000000000000000000000000000000000000600052601160045260246000fd5b7f4e487b7100000000000000000000000000000000000000000000000000000000600052603260045260246000fd5b7f4e487b7100000000000000000000000000000000000000000000000000000000600052604160045260246000fd5b600080fd5b600080fd5b600080fd5b600080fd5b6000601f19601f8301169050919050565b7f616c6c20636f6c6c61626f7261746f727320636f756e74206174206c6561737460008201527f206f6e6500000000000000000000000000000000000000000000000000000000602082015250565b7f74686520636f6c6c61626f7261746f7273206d757374206e6f2062652064757060008201527f6c69636174656400000000000000000000000000000000000000000000000000602082015250565b7f6174206c65617374207369676e20636f756e74206d757374206d6f726520746860008201527f616e203020616e64206c657373207468616e206f7220657175616c7320636f6c60208201527f6c61626f7261746f727320636f756e7400000000000000000000000000000000604082015250565b620009ca816200072b565b8114620009d657600080fd5b50565b620009e48162000769565b8114620009f057600080fd5b50565b611b1d8062000a036000396000f3fe6080604052600436106100895760003560e01c8063b517e0b411610059578063b517e0b4146101b6578063b69ef8a8146101cd578063bc44e739146101f8578063ca3ea43f14610221578063cfa4a5f61461024c5761012f565b80623bdf3e146101345780631535430b1461015d578063352ce050146101745780633a0a197b1461018b5761012f565b3661012f57600034116100d1576040517f08c379a00000000000000000000000000000000000000000000000000000000081526004016100c8906112f3565b60405180910390fd5b346000808282546100e2919061149f565b92505081905550343373ffffffffffffffffffffffffffffffffffffffff167fe1fffcc4923d04b559f4d29a8bfc6cda04eb5b0d3c460751c2402c5c5cc9109c60405160405180910390a3005b600080fd5b34801561014057600080fd5b5061015b60048036038101906101569190611100565b610277565b005b34801561016957600080fd5b506101726104be565b005b34801561018057600080fd5b506101896107d9565b005b34801561019757600080fd5b506101a0610928565b6040516101ad9190611473565b60405180910390f35b3480156101c257600080fd5b506101cb61092e565b005b3480156101d957600080fd5b506101e2610a0f565b6040516101ef9190611473565b60405180910390f35b34801561020457600080fd5b5061021f600480360381019061021a91906110d3565b610a15565b005b34801561022d57600080fd5b50610236610ae9565b6040516102439190611473565b60405180910390f35b34801561025857600080fd5b50610261610aef565b60405161026e9190611473565b60405180910390f35b61027f610af5565b6102be576040517f08c379a00000000000000000000000000000000000000000000000000000000081526004016102b590611413565b60405180910390fd5b600060045414610303576040517f08c379a00000000000000000000000000000000000000000000000000000000081526004016102fa906113f3565b60405180910390fd5b600054821115610348576040517f08c379a000000000000000000000000000000000000000000000000000000000815260040161033f90611453565b60405180910390fd5b600073ffffffffffffffffffffffffffffffffffffffff168173ffffffffffffffffffffffffffffffffffffffff1614156103b8576040517f08c379a00000000000000000000000000000000000000000000000000000000081526004016103af90611373565b60405180910390fd5b33600660006101000a81548173ffffffffffffffffffffffffffffffffffffffff021916908373ffffffffffffffffffffffffffffffffffffffff1602179055508160048190555080600560006101000a81548173ffffffffffffffffffffffffffffffffffffffff021916908373ffffffffffffffffffffffffffffffffffffffff1602179055506007339080600181540180825580915050600190039060005260206000200160009091909190916101000a81548173ffffffffffffffffffffffffffffffffffffffff021916908373ffffffffffffffffffffffffffffffffffffffff1602179055506104ac610b8c565b156104ba576104b9610d18565b5b5050565b6104c6610af5565b610505576040517f08c379a00000000000000000000000000000000000000000000000000000000081526004016104fc90611413565b60405180910390fd5b600660009054906101000a900473ffffffffffffffffffffffffffffffffffffffff1673ffffffffffffffffffffffffffffffffffffffff163373ffffffffffffffffffffffffffffffffffffffff161415610596576040517f08c379a000000000000000000000000000000000000000000000000000000000815260040161058d90611333565b60405180910390fd5b610626600880548060200260200160405190810160405280929190818152602001828054801561061b57602002820191906000526020600020905b8160009054906101000a900473ffffffffffffffffffffffffffffffffffffffff1673ffffffffffffffffffffffffffffffffffffffff16815260200190600101908083116105d1575b505050505033610e3b565b15610666576040517f08c379a000000000000000000000000000000000000000000000000000000000815260040161065d90611353565b60405180910390fd5b6000600454116106ab576040517f08c379a00000000000000000000000000000000000000000000000000000000081526004016106a290611313565b60405180910390fd5b6008339080600181540180825580915050600190039060005260206000200160009091909190916101000a81548173ffffffffffffffffffffffffffffffffffffffff021916908373ffffffffffffffffffffffffffffffffffffffff1602179055506000805b6008805490508110156107b357600073ffffffffffffffffffffffffffffffffffffffff166008828154811061074b5761074a6116e0565b5b9060005260206000200160009054906101000a900473ffffffffffffffffffffffffffffffffffffffff1673ffffffffffffffffffffffffffffffffffffffff16146107a057818061079c9061160f565b9250505b80806107ab9061160f565b915050610712565b5060016002805490506107c69190611580565b8114156107d6576107d5610ec3565b5b50565b6107e1610af5565b610820576040517f08c379a000000000000000000000000000000000000000000000000000000000815260040161081790611413565b60405180910390fd5b600060045411610865576040517f08c379a000000000000000000000000000000000000000000000000000000000815260040161085c906113b3565b60405180910390fd5b61086d610f33565b156108ad576040517f08c379a00000000000000000000000000000000000000000000000000000000081526004016108a4906113d3565b60405180910390fd5b6007339080600181540180825580915050600190039060005260206000200160009091909190916101000a81548173ffffffffffffffffffffffffffffffffffffffff021916908373ffffffffffffffffffffffffffffffffffffffff160217905550610918610b8c565b1561092657610925610d18565b5b565b600a5481565b610936610af5565b610975576040517f08c379a000000000000000000000000000000000000000000000000000000000815260040161096c90611413565b60405180910390fd5b600660009054906101000a900473ffffffffffffffffffffffffffffffffffffffff1673ffffffffffffffffffffffffffffffffffffffff163373ffffffffffffffffffffffffffffffffffffffff1614610a05576040517f08c379a00000000000000000000000000000000000000000000000000000000081526004016109fc90611433565b60405180910390fd5b610a0d610ec3565b565b60005481565b600c60009054906101000a900473ffffffffffffffffffffffffffffffffffffffff1673ffffffffffffffffffffffffffffffffffffffff163373ffffffffffffffffffffffffffffffffffffffff1614610aa5576040517f08c379a0000000000000000000000000000000000000000000000000000000008152600401610a9c90611393565b60405180910390fd5b80600c60006101000a81548173ffffffffffffffffffffffffffffffffffffffff021916908373ffffffffffffffffffffffffffffffffffffffff16021790555050565b60095481565b600b5481565b6000610b876002805480602002602001604051908101604052809291908181526020018280548015610b7c57602002820191906000526020600020905b8160009054906101000a900473ffffffffffffffffffffffffffffffffffffffff1673ffffffffffffffffffffffffffffffffffffffff1681526020019060010190808311610b32575b505050505033610e3b565b905090565b6000806007805480602002602001604051908101604052809291908181526020018280548015610c1157602002820191906000526020600020905b8160009054906101000a900473ffffffffffffffffffffffffffffffffffffffff1673ffffffffffffffffffffffffffffffffffffffff1681526020019060010190808311610bc7575b505050505090506000805b8251811015610cf75760005b600280549050811015610ce357838281518110610c4857610c476116e0565b5b602002602001015173ffffffffffffffffffffffffffffffffffffffff1660028281548110610c7a57610c796116e0565b5b9060005260206000200160009054906101000a900473ffffffffffffffffffffffffffffffffffffffff1673ffffffffffffffffffffffffffffffffffffffff161415610cd0578280610ccc90611658565b9350505b8080610cdb9061160f565b915050610c28565b508080610cef9061160f565b915050610c1c565b50600360009054906101000a900460ff1660ff168160ff1610159250505090565b600060045490506000600481905550600560009054906101000a900473ffffffffffffffffffffffffffffffffffffffff1673ffffffffffffffffffffffffffffffffffffffff166108fc829081150290604051600060405180830381858888f19350505050158015610d8f573d6000803e3d6000fd5b5080600054610d9e9190611580565b60008190555060096000815480929190610db79061160f565b9190505550600560006101000a81549073ffffffffffffffffffffffffffffffffffffffff021916905560076000610def9190611056565b600660006101000a81549073ffffffffffffffffffffffffffffffffffffffff021916905560086000610e229190611056565b600b546009541115610e3857610e3781610fca565b5b50565b6000806000905060005b8451811015610eb8578373ffffffffffffffffffffffffffffffffffffffff16858281518110610e7857610e776116e0565b5b602002602001015173ffffffffffffffffffffffffffffffffffffffff161415610ea55760019150610eb8565b8080610eb09061160f565b915050610e45565b508091505092915050565b600660006101000a81549073ffffffffffffffffffffffffffffffffffffffff0219169055600560006101000a81549073ffffffffffffffffffffffffffffffffffffffff0219169055600060048190555060076000610f239190611056565b60086000610f319190611056565b565b6000610fc56007805480602002602001604051908101604052809291908181526020018280548015610fba57602002820191906000526020600020905b8160009054906101000a900473ffffffffffffffffffffffffffffffffffffffff1673ffffffffffffffffffffffffffffffffffffffff1681526020019060010190808311610f70575b505050505033610e3b565b905090565b6000600a5461271083610fdd91906114f5565b610fe79190611526565b9050600c60009054906101000a900473ffffffffffffffffffffffffffffffffffffffff1673ffffffffffffffffffffffffffffffffffffffff166108fc829081150290604051600060405180830381858888f19350505050158015611051573d6000803e3d6000fd5b505050565b50805460008255906000526020600020908101906110749190611077565b50565b5b80821115611090576000816000905550600101611078565b5090565b6000813590506110a381611aa2565b92915050565b6000813590506110b881611ab9565b92915050565b6000813590506110cd81611ad0565b92915050565b6000602082840312156110e9576110e861170f565b5b60006110f784828501611094565b91505092915050565b600080604083850312156111175761111661170f565b5b6000611125858286016110be565b9250506020611136858286016110a9565b9150509250929050565b600061114d60588361148e565b915061115882611714565b606082019050919050565b6000611170602f8361148e565b915061117b82611789565b604082019050919050565b6000611193603a8361148e565b915061119e826117d8565b604082019050919050565b60006111b6602e8361148e565b91506111c182611827565b604082019050919050565b60006111d960158361148e565b91506111e482611876565b602082019050919050565b60006111fc603b8361148e565b91506112078261189f565b604082019050919050565b600061121f602c8361148e565b915061122a826118ee565b604082019050919050565b600061124260388361148e565b915061124d8261193d565b604082019050919050565b6000611265601d8361148e565b91506112708261198c565b602082019050919050565b600061128860268361148e565b9150611293826119b5565b604082019050919050565b60006112ab602a8361148e565b91506112b682611a04565b604082019050919050565b60006112ce602c8361148e565b91506112d982611a53565b604082019050919050565b6112ed816115f8565b82525050565b6000602082019050818103600083015261130c81611140565b9050919050565b6000602082019050818103600083015261132c81611163565b9050919050565b6000602082019050818103600083015261134c81611186565b9050919050565b6000602082019050818103600083015261136c816111a9565b9050919050565b6000602082019050818103600083015261138c816111cc565b9050919050565b600060208201905081810360008301526113ac816111ef565b9050919050565b600060208201905081810360008301526113cc81611212565b9050919050565b600060208201905081810360008301526113ec81611235565b9050919050565b6000602082019050818103600083015261140c81611258565b9050919050565b6000602082019050818103600083015261142c8161127b565b9050919050565b6000602082019050818103600083015261144c8161129e565b9050919050565b6000602082019050818103600083015261146c816112c1565b9050919050565b600060208201905061148860008301846112e4565b92915050565b600082825260208201905092915050565b60006114aa826115f8565b91506114b5836115f8565b9250827fffffffffffffffffffffffffffffffffffffffffffffffffffffffffffffffff038211156114ea576114e9611682565b5b828201905092915050565b6000611500826115f8565b915061150b836115f8565b92508261151b5761151a6116b1565b5b828204905092915050565b6000611531826115f8565b915061153c836115f8565b9250817fffffffffffffffffffffffffffffffffffffffffffffffffffffffffffffffff048311821515161561157557611574611682565b5b828202905092915050565b600061158b826115f8565b9150611596836115f8565b9250828210156115a9576115a8611682565b5b828203905092915050565b60006115bf826115d8565b9050919050565b60006115d1826115d8565b9050919050565b600073ffffffffffffffffffffffffffffffffffffffff82169050919050565b6000819050919050565b600060ff82169050919050565b600061161a826115f8565b91507fffffffffffffffffffffffffffffffffffffffffffffffffffffffffffffffff82141561164d5761164c611682565b5b600182019050919050565b600061166382611602565b915060ff82141561167757611676611682565b5b600182019050919050565b7f4e487b7100000000000000000000000000000000000000000000000000000000600052601160045260246000fd5b7f4e487b7100000000000000000000000000000000000000000000000000000000600052601260045260246000fd5b7f4e487b7100000000000000000000000000000000000000000000000000000000600052603260045260246000fd5b600080fd5b7f73746f7265206d757374206d6f7265207468616e2030207765692c20696e646560008201527f656420746865206761732066656520646f206e6f74206465637265617365206960208201527f6620796f7520746f70696e2061206c6f772076616c75652e0000000000000000604082015250565b7f74686572652069736e277420616e792077697468647277616c7320776169742060008201527f666f722063616e63656c6174696f6e0000000000000000000000000000000000602082015250565b7f6f6e6c792074686520636f756e746572207061727479206f6620696e6974696160008201527f746f722063616e2063616c6c20746869732066756e6374696f6e000000000000602082015250565b7f796f752068617665207369676e656420666f722063616e63656c6c6174696f6e60008201527f2c20646f6e277420726570656174000000000000000000000000000000000000602082015250565b7f696e76616c696420746172676574416464726573730000000000000000000000600082015250565b7f6f6e6c7920706c6174666f726d206163636f756e7420697473656c662063616e60008201527f206368616e676520697420746f206f74686572206163636f756e740000000000602082015250565b7f7468657265206973206e6f20776974686472617720616374696f6e207761697460008201527f696e6720666f72207369676e0000000000000000000000000000000000000000602082015250565b7f796f752068617665207369676e6564207468697320776974686472617720707260008201527f6f636573732c20706c7a20646f6e2774207265706561742e0000000000000000602082015250565b7f7072652070726f6365737320686173206e6f74206265656e206f766572000000600082015250565b7f6f6e6c7920636f6c6c61626f7261746f7273206861766520746865207065726d60008201527f697373696f6e0000000000000000000000000000000000000000000000000000602082015250565b7f6f6e6c792074686520696e69746961746f722063616e2063616e63656c20746860008201527f69732070726f6365737300000000000000000000000000000000000000000000602082015250565b7f77697468647261772062616c616e636520636f756c64206e6f74206d6f72652060008201527f7468616e2062616c616e63650000000000000000000000000000000000000000602082015250565b611aab816115b4565b8114611ab657600080fd5b50565b611ac2816115c6565b8114611acd57600080fd5b50565b611ad9816115f8565b8114611ae457600080fd5b5056fea26469706673582212207b013121d8d22598e747eb8ab742c0c495885b25d12c40274ddff6ea4418df8564736f6c63430008070033",
					"opcodes": "PUSH1 0x80 PUSH1 0x40 MSTORE CALLVALUE DUP1 ISZERO PUSH3 0x11 JUMPI PUSH1 0x0 DUP1 REVERT JUMPDEST POP PUSH1 0x40 MLOAD PUSH3 0x2520 CODESIZE SUB DUP1 PUSH3 0x2520 DUP4 CODECOPY DUP2 DUP2 ADD PUSH1 0x40 MSTORE DUP2 ADD SWAP1 PUSH3 0x37 SWAP2 SWAP1 PUSH3 0x4E9 JUMP JUMPDEST CALLER PUSH1 0x1 PUSH1 0x0 PUSH2 0x100 EXP DUP2 SLOAD DUP2 PUSH20 0xFFFFFFFFFFFFFFFFFFFFFFFFFFFFFFFFFFFFFFFF MUL NOT AND SWAP1 DUP4 PUSH20 0xFFFFFFFFFFFFFFFFFFFFFFFFFFFFFFFFFFFFFFFF AND MUL OR SWAP1 SSTORE POP PUSH1 0x0 DUP3 MLOAD GT PUSH3 0xBF JUMPI PUSH1 0x40 MLOAD PUSH32 0x8C379A000000000000000000000000000000000000000000000000000000000 DUP2 MSTORE PUSH1 0x4 ADD PUSH3 0xB6 SWAP1 PUSH3 0x5C4 JUMP JUMPDEST PUSH1 0x40 MLOAD DUP1 SWAP2 SUB SWAP1 REVERT JUMPDEST PUSH3 0xCF PUSH3 0x20C PUSH1 0x20 SHL PUSH1 0x20 SHR JUMP JUMPDEST PUSH3 0x111 JUMPI PUSH1 0x40 MLOAD PUSH32 0x8C379A000000000000000000000000000000000000000000000000000000000 DUP2 MSTORE PUSH1 0x4 ADD PUSH3 0x108 SWAP1 PUSH3 0x5E6 JUMP JUMPDEST PUSH1 0x40 MLOAD DUP1 SWAP2 SUB SWAP1 REVERT JUMPDEST PUSH1 0x0 DUP2 PUSH1 0xFF AND GT DUP1 ISZERO PUSH3 0x129 JUMPI POP DUP2 MLOAD DUP2 PUSH1 0xFF AND GT ISZERO JUMPDEST PUSH3 0x16B JUMPI PUSH1 0x40 MLOAD PUSH32 0x8C379A000000000000000000000000000000000000000000000000000000000 DUP2 MSTORE PUSH1 0x4 ADD PUSH3 0x162 SWAP1 PUSH3 0x608 JUMP JUMPDEST PUSH1 0x40 MLOAD DUP1 SWAP2 SUB SWAP1 REVERT JUMPDEST DUP2 PUSH1 0x2 SWAP1 DUP1 MLOAD SWAP1 PUSH1 0x20 ADD SWAP1 PUSH3 0x183 SWAP3 SWAP2 SWAP1 PUSH3 0x35F JUMP JUMPDEST POP DUP1 PUSH1 0x3 PUSH1 0x0 PUSH2 0x100 EXP DUP2 SLOAD DUP2 PUSH1 0xFF MUL NOT AND SWAP1 DUP4 PUSH1 0xFF AND MUL OR SWAP1 SSTORE POP PUSH20 0xDD870FA1B7C4700F2BD7F44238821C26F7392148 PUSH1 0xC PUSH1 0x0 PUSH2 0x100 EXP DUP2 SLOAD DUP2 PUSH20 0xFFFFFFFFFFFFFFFFFFFFFFFFFFFFFFFFFFFFFFFF MUL NOT AND SWAP1 DUP4 PUSH20 0xFFFFFFFFFFFFFFFFFFFFFFFFFFFFFFFFFFFFFFFF AND MUL OR SWAP1 SSTORE POP PUSH1 0x14 PUSH1 0xA DUP2 SWAP1 SSTORE POP PUSH1 0x5 PUSH1 0xB DUP2 SWAP1 SSTORE POP POP POP PUSH3 0x9F3 JUMP JUMPDEST PUSH1 0x0 DUP1 PUSH1 0x0 SWAP1 POP PUSH1 0x0 JUMPDEST PUSH1 0x2 DUP1 SLOAD SWAP1 POP DUP2 LT ISZERO PUSH3 0x356 JUMPI PUSH1 0x1 PUSH1 0x2 DUP1 SLOAD SWAP1 POP PUSH3 0x238 SWAP2 SWAP1 PUSH3 0x6F0 JUMP JUMPDEST DUP2 EQ ISZERO PUSH3 0x246 JUMPI PUSH3 0x356 JUMP JUMPDEST PUSH1 0x0 PUSH1 0x1 DUP3 PUSH3 0x257 SWAP2 SWAP1 PUSH3 0x693 JUMP JUMPDEST SWAP1 POP JUMPDEST PUSH1 0x2 DUP1 SLOAD SWAP1 POP DUP2 LT ISZERO PUSH3 0x33F JUMPI PUSH1 0x2 DUP2 DUP2 SLOAD DUP2 LT PUSH3 0x27F JUMPI PUSH3 0x27E PUSH3 0x829 JUMP JUMPDEST JUMPDEST SWAP1 PUSH1 0x0 MSTORE PUSH1 0x20 PUSH1 0x0 KECCAK256 ADD PUSH1 0x0 SWAP1 SLOAD SWAP1 PUSH2 0x100 EXP SWAP1 DIV PUSH20 0xFFFFFFFFFFFFFFFFFFFFFFFFFFFFFFFFFFFFFFFF AND PUSH20 0xFFFFFFFFFFFFFFFFFFFFFFFFFFFFFFFFFFFFFFFF AND PUSH1 0x2 DUP4 DUP2 SLOAD DUP2 LT PUSH3 0x2D7 JUMPI PUSH3 0x2D6 PUSH3 0x829 JUMP JUMPDEST JUMPDEST SWAP1 PUSH1 0x0 MSTORE PUSH1 0x20 PUSH1 0x0 KECCAK256 ADD PUSH1 0x0 SWAP1 SLOAD SWAP1 PUSH2 0x100 EXP SWAP1 DIV PUSH20 0xFFFFFFFFFFFFFFFFFFFFFFFFFFFFFFFFFFFFFFFF AND PUSH20 0xFFFFFFFFFFFFFFFFFFFFFFFFFFFFFFFFFFFFFFFF AND EQ ISZERO PUSH3 0x329 JUMPI PUSH1 0x1 SWAP3 POP PUSH3 0x33F JUMP JUMPDEST DUP1 DUP1 PUSH3 0x336 SWAP1 PUSH3 0x7AC JUMP JUMPDEST SWAP2 POP POP PUSH3 0x25A JUMP JUMPDEST POP DUP1 DUP1 PUSH3 0x34D SWAP1 PUSH3 0x7AC JUMP JUMPDEST SWAP2 POP POP PUSH3 0x216 JUMP JUMPDEST POP DUP1 ISZERO SWAP2 POP POP SWAP1 JUMP JUMPDEST DUP3 DUP1 SLOAD DUP3 DUP3 SSTORE SWAP1 PUSH1 0x0 MSTORE PUSH1 0x20 PUSH1 0x0 KECCAK256 SWAP1 DUP2 ADD SWAP3 DUP3 ISZERO PUSH3 0x3DB JUMPI SWAP2 PUSH1 0x20 MUL DUP3 ADD JUMPDEST DUP3 DUP2 GT ISZERO PUSH3 0x3DA JUMPI DUP3 MLOAD DUP3 PUSH1 0x0 PUSH2 0x100 EXP DUP2 SLOAD DUP2 PUSH20 0xFFFFFFFFFFFFFFFFFFFFFFFFFFFFFFFFFFFFFFFF MUL NOT AND SWAP1 DUP4 PUSH20 0xFFFFFFFFFFFFFFFFFFFFFFFFFFFFFFFFFFFFFFFF AND MUL OR SWAP1 SSTORE POP SWAP2 PUSH1 0x20 ADD SWAP2 SWAP1 PUSH1 0x1 ADD SWAP1 PUSH3 0x380 JUMP JUMPDEST JUMPDEST POP SWAP1 POP PUSH3 0x3EA SWAP2 SWAP1 PUSH3 0x3EE JUMP JUMPDEST POP SWAP1 JUMP JUMPDEST JUMPDEST DUP1 DUP3 GT ISZERO PUSH3 0x409 JUMPI PUSH1 0x0 DUP2 PUSH1 0x0 SWAP1 SSTORE POP PUSH1 0x1 ADD PUSH3 0x3EF JUMP JUMPDEST POP SWAP1 JUMP JUMPDEST PUSH1 0x0 PUSH3 0x424 PUSH3 0x41E DUP5 PUSH3 0x653 JUMP JUMPDEST PUSH3 0x62A JUMP JUMPDEST SWAP1 POP DUP1 DUP4 DUP3 MSTORE PUSH1 0x20 DUP3 ADD SWAP1 POP DUP3 DUP6 PUSH1 0x20 DUP7 MUL DUP3 ADD GT ISZERO PUSH3 0x44A JUMPI PUSH3 0x449 PUSH3 0x88C JUMP JUMPDEST JUMPDEST PUSH1 0x0 JUMPDEST DUP6 DUP2 LT ISZERO PUSH3 0x47E JUMPI DUP2 PUSH3 0x463 DUP9 DUP3 PUSH3 0x488 JUMP JUMPDEST DUP5 MSTORE PUSH1 0x20 DUP5 ADD SWAP4 POP PUSH1 0x20 DUP4 ADD SWAP3 POP POP PUSH1 0x1 DUP2 ADD SWAP1 POP PUSH3 0x44D JUMP JUMPDEST POP POP POP SWAP4 SWAP3 POP POP POP JUMP JUMPDEST PUSH1 0x0 DUP2 MLOAD SWAP1 POP PUSH3 0x499 DUP2 PUSH3 0x9BF JUMP JUMPDEST SWAP3 SWAP2 POP POP JUMP JUMPDEST PUSH1 0x0 DUP3 PUSH1 0x1F DUP4 ADD SLT PUSH3 0x4B7 JUMPI PUSH3 0x4B6 PUSH3 0x887 JUMP JUMPDEST JUMPDEST DUP2 MLOAD PUSH3 0x4C9 DUP5 DUP3 PUSH1 0x20 DUP7 ADD PUSH3 0x40D JUMP JUMPDEST SWAP2 POP POP SWAP3 SWAP2 POP POP JUMP JUMPDEST PUSH1 0x0 DUP2 MLOAD SWAP1 POP PUSH3 0x4E3 DUP2 PUSH3 0x9D9 JUMP JUMPDEST SWAP3 SWAP2 POP POP JUMP JUMPDEST PUSH1 0x0 DUP1 PUSH1 0x40 DUP4 DUP6 SUB SLT ISZERO PUSH3 0x503 JUMPI PUSH3 0x502 PUSH3 0x896 JUMP JUMPDEST JUMPDEST PUSH1 0x0 DUP4 ADD MLOAD PUSH8 0xFFFFFFFFFFFFFFFF DUP2 GT ISZERO PUSH3 0x524 JUMPI PUSH3 0x523 PUSH3 0x891 JUMP JUMPDEST JUMPDEST PUSH3 0x532 DUP6 DUP3 DUP7 ADD PUSH3 0x49F JUMP JUMPDEST SWAP3 POP POP PUSH1 0x20 PUSH3 0x545 DUP6 DUP3 DUP7 ADD PUSH3 0x4D2 JUMP JUMPDEST SWAP2 POP POP SWAP3 POP SWAP3 SWAP1 POP JUMP JUMPDEST PUSH1 0x0 PUSH3 0x55E PUSH1 0x24 DUP4 PUSH3 0x682 JUMP JUMPDEST SWAP2 POP PUSH3 0x56B DUP3 PUSH3 0x8AC JUMP JUMPDEST PUSH1 0x40 DUP3 ADD SWAP1 POP SWAP2 SWAP1 POP JUMP JUMPDEST PUSH1 0x0 PUSH3 0x585 PUSH1 0x27 DUP4 PUSH3 0x682 JUMP JUMPDEST SWAP2 POP PUSH3 0x592 DUP3 PUSH3 0x8FB JUMP JUMPDEST PUSH1 0x40 DUP3 ADD SWAP1 POP SWAP2 SWAP1 POP JUMP JUMPDEST PUSH1 0x0 PUSH3 0x5AC PUSH1 0x50 DUP4 PUSH3 0x682 JUMP JUMPDEST SWAP2 POP PUSH3 0x5B9 DUP3 PUSH3 0x94A JUMP JUMPDEST PUSH1 0x60 DUP3 ADD SWAP1 POP SWAP2 SWAP1 POP JUMP JUMPDEST PUSH1 0x0 PUSH1 0x20 DUP3 ADD SWAP1 POP DUP2 DUP2 SUB PUSH1 0x0 DUP4 ADD MSTORE PUSH3 0x5DF DUP2 PUSH3 0x54F JUMP JUMPDEST SWAP1 POP SWAP2 SWAP1 POP JUMP JUMPDEST PUSH1 0x0 PUSH1 0x20 DUP3 ADD SWAP1 POP DUP2 DUP2 SUB PUSH1 0x0 DUP4 ADD MSTORE PUSH3 0x601 DUP2 PUSH3 0x576 JUMP JUMPDEST SWAP1 POP SWAP2 SWAP1 POP JUMP JUMPDEST PUSH1 0x0 PUSH1 0x20 DUP3 ADD SWAP1 POP DUP2 DUP2 SUB PUSH1 0x0 DUP4 ADD MSTORE PUSH3 0x623 DUP2 PUSH3 0x59D JUMP JUMPDEST SWAP1 POP SWAP2 SWAP1 POP JUMP JUMPDEST PUSH1 0x0 PUSH3 0x636 PUSH3 0x649 JUMP JUMPDEST SWAP1 POP PUSH3 0x644 DUP3 DUP3 PUSH3 0x776 JUMP JUMPDEST SWAP2 SWAP1 POP JUMP JUMPDEST PUSH1 0x0 PUSH1 0x40 MLOAD SWAP1 POP SWAP1 JUMP JUMPDEST PUSH1 0x0 PUSH8 0xFFFFFFFFFFFFFFFF DUP3 GT ISZERO PUSH3 0x671 JUMPI PUSH3 0x670 PUSH3 0x858 JUMP JUMPDEST JUMPDEST PUSH1 0x20 DUP3 MUL SWAP1 POP PUSH1 0x20 DUP2 ADD SWAP1 POP SWAP2 SWAP1 POP JUMP JUMPDEST PUSH1 0x0 DUP3 DUP3 MSTORE PUSH1 0x20 DUP3 ADD SWAP1 POP SWAP3 SWAP2 POP POP JUMP JUMPDEST PUSH1 0x0 PUSH3 0x6A0 DUP3 PUSH3 0x75F JUMP JUMPDEST SWAP2 POP PUSH3 0x6AD DUP4 PUSH3 0x75F JUMP JUMPDEST SWAP3 POP DUP3 PUSH32 0xFFFFFFFFFFFFFFFFFFFFFFFFFFFFFFFFFFFFFFFFFFFFFFFFFFFFFFFFFFFFFFFF SUB DUP3 GT ISZERO PUSH3 0x6E5 JUMPI PUSH3 0x6E4 PUSH3 0x7FA JUMP JUMPDEST JUMPDEST DUP3 DUP3 ADD SWAP1 POP SWAP3 SWAP2 POP POP JUMP JUMPDEST PUSH1 0x0 PUSH3 0x6FD DUP3 PUSH3 0x75F JUMP JUMPDEST SWAP2 POP PUSH3 0x70A DUP4 PUSH3 0x75F JUMP JUMPDEST SWAP3 POP DUP3 DUP3 LT ISZERO PUSH3 0x720 JUMPI PUSH3 0x71F PUSH3 0x7FA JUMP JUMPDEST JUMPDEST DUP3 DUP3 SUB SWAP1 POP SWAP3 SWAP2 POP POP JUMP JUMPDEST PUSH1 0x0 PUSH3 0x738 DUP3 PUSH3 0x73F JUMP JUMPDEST SWAP1 POP SWAP2 SWAP1 POP JUMP JUMPDEST PUSH1 0x0 PUSH20 0xFFFFFFFFFFFFFFFFFFFFFFFFFFFFFFFFFFFFFFFF DUP3 AND SWAP1 POP SWAP2 SWAP1 POP JUMP JUMPDEST PUSH1 0x0 DUP2 SWAP1 POP SWAP2 SWAP1 POP JUMP JUMPDEST PUSH1 0x0 PUSH1 0xFF DUP3 AND SWAP1 POP SWAP2 SWAP1 POP JUMP JUMPDEST PUSH3 0x781 DUP3 PUSH3 0x89B JUMP JUMPDEST DUP2 ADD DUP2 DUP2 LT PUSH8 0xFFFFFFFFFFFFFFFF DUP3 GT OR ISZERO PUSH3 0x7A3 JUMPI PUSH3 0x7A2 PUSH3 0x858 JUMP JUMPDEST JUMPDEST DUP1 PUSH1 0x40 MSTORE POP POP POP JUMP JUMPDEST PUSH1 0x0 PUSH3 0x7B9 DUP3 PUSH3 0x75F JUMP JUMPDEST SWAP2 POP PUSH32 0xFFFFFFFFFFFFFFFFFFFFFFFFFFFFFFFFFFFFFFFFFFFFFFFFFFFFFFFFFFFFFFFF DUP3 EQ ISZERO PUSH3 0x7EF JUMPI PUSH3 0x7EE PUSH3 0x7FA JUMP JUMPDEST JUMPDEST PUSH1 0x1 DUP3 ADD SWAP1 POP SWAP2 SWAP1 POP JUMP JUMPDEST PUSH32 0x4E487B7100000000000000000000000000000000000000000000000000000000 PUSH1 0x0 MSTORE PUSH1 0x11 PUSH1 0x4 MSTORE PUSH1 0x24 PUSH1 0x0 REVERT JUMPDEST PUSH32 0x4E487B7100000000000000000000000000000000000000000000000000000000 PUSH1 0x0 MSTORE PUSH1 0x32 PUSH1 0x4 MSTORE PUSH1 0x24 PUSH1 0x0 REVERT JUMPDEST PUSH32 0x4E487B7100000000000000000000000000000000000000000000000000000000 PUSH1 0x0 MSTORE PUSH1 0x41 PUSH1 0x4 MSTORE PUSH1 0x24 PUSH1 0x0 REVERT JUMPDEST PUSH1 0x0 DUP1 REVERT JUMPDEST PUSH1 0x0 DUP1 REVERT JUMPDEST PUSH1 0x0 DUP1 REVERT JUMPDEST PUSH1 0x0 DUP1 REVERT JUMPDEST PUSH1 0x0 PUSH1 0x1F NOT PUSH1 0x1F DUP4 ADD AND SWAP1 POP SWAP2 SWAP1 POP JUMP JUMPDEST PUSH32 0x616C6C20636F6C6C61626F7261746F727320636F756E74206174206C65617374 PUSH1 0x0 DUP3 ADD MSTORE PUSH32 0x206F6E6500000000000000000000000000000000000000000000000000000000 PUSH1 0x20 DUP3 ADD MSTORE POP JUMP JUMPDEST PUSH32 0x74686520636F6C6C61626F7261746F7273206D757374206E6F20626520647570 PUSH1 0x0 DUP3 ADD MSTORE PUSH32 0x6C69636174656400000000000000000000000000000000000000000000000000 PUSH1 0x20 DUP3 ADD MSTORE POP JUMP JUMPDEST PUSH32 0x6174206C65617374207369676E20636F756E74206D757374206D6F7265207468 PUSH1 0x0 DUP3 ADD MSTORE PUSH32 0x616E203020616E64206C657373207468616E206F7220657175616C7320636F6C PUSH1 0x20 DUP3 ADD MSTORE PUSH32 0x6C61626F7261746F727320636F756E7400000000000000000000000000000000 PUSH1 0x40 DUP3 ADD MSTORE POP JUMP JUMPDEST PUSH3 0x9CA DUP2 PUSH3 0x72B JUMP JUMPDEST DUP2 EQ PUSH3 0x9D6 JUMPI PUSH1 0x0 DUP1 REVERT JUMPDEST POP JUMP JUMPDEST PUSH3 0x9E4 DUP2 PUSH3 0x769 JUMP JUMPDEST DUP2 EQ PUSH3 0x9F0 JUMPI PUSH1 0x0 DUP1 REVERT JUMPDEST POP JUMP JUMPDEST PUSH2 0x1B1D DUP1 PUSH3 0xA03 PUSH1 0x0 CODECOPY PUSH1 0x0 RETURN INVALID PUSH1 0x80 PUSH1 0x40 MSTORE PUSH1 0x4 CALLDATASIZE LT PUSH2 0x89 JUMPI PUSH1 0x0 CALLDATALOAD PUSH1 0xE0 SHR DUP1 PUSH4 0xB517E0B4 GT PUSH2 0x59 JUMPI DUP1 PUSH4 0xB517E0B4 EQ PUSH2 0x1B6 JUMPI DUP1 PUSH4 0xB69EF8A8 EQ PUSH2 0x1CD JUMPI DUP1 PUSH4 0xBC44E739 EQ PUSH2 0x1F8 JUMPI DUP1 PUSH4 0xCA3EA43F EQ PUSH2 0x221 JUMPI DUP1 PUSH4 0xCFA4A5F6 EQ PUSH2 0x24C JUMPI PUSH2 0x12F JUMP JUMPDEST DUP1 PUSH3 0x3BDF3E EQ PUSH2 0x134 JUMPI DUP1 PUSH4 0x1535430B EQ PUSH2 0x15D JUMPI DUP1 PUSH4 0x352CE050 EQ PUSH2 0x174 JUMPI DUP1 PUSH4 0x3A0A197B EQ PUSH2 0x18B JUMPI PUSH2 0x12F JUMP JUMPDEST CALLDATASIZE PUSH2 0x12F JUMPI PUSH1 0x0 CALLVALUE GT PUSH2 0xD1 JUMPI PUSH1 0x40 MLOAD PUSH32 0x8C379A000000000000000000000000000000000000000000000000000000000 DUP2 MSTORE PUSH1 0x4 ADD PUSH2 0xC8 SWAP1 PUSH2 0x12F3 JUMP JUMPDEST PUSH1 0x40 MLOAD DUP1 SWAP2 SUB SWAP1 REVERT JUMPDEST CALLVALUE PUSH1 0x0 DUP1 DUP3 DUP3 SLOAD PUSH2 0xE2 SWAP2 SWAP1 PUSH2 0x149F JUMP JUMPDEST SWAP3 POP POP DUP2 SWAP1 SSTORE POP CALLVALUE CALLER PUSH20 0xFFFFFFFFFFFFFFFFFFFFFFFFFFFFFFFFFFFFFFFF AND PUSH32 0xE1FFFCC4923D04B559F4D29A8BFC6CDA04EB5B0D3C460751C2402C5C5CC9109C PUSH1 0x40 MLOAD PUSH1 0x40 MLOAD DUP1 SWAP2 SUB SWAP1 LOG3 STOP JUMPDEST PUSH1 0x0 DUP1 REVERT JUMPDEST CALLVALUE DUP1 ISZERO PUSH2 0x140 JUMPI PUSH1 0x0 DUP1 REVERT JUMPDEST POP PUSH2 0x15B PUSH1 0x4 DUP1 CALLDATASIZE SUB DUP2 ADD SWAP1 PUSH2 0x156 SWAP2 SWAP1 PUSH2 0x1100 JUMP JUMPDEST PUSH2 0x277 JUMP JUMPDEST STOP JUMPDEST CALLVALUE DUP1 ISZERO PUSH2 0x169 JUMPI PUSH1 0x0 DUP1 REVERT JUMPDEST POP PUSH2 0x172 PUSH2 0x4BE JUMP JUMPDEST STOP JUMPDEST CALLVALUE DUP1 ISZERO PUSH2 0x180 JUMPI PUSH1 0x0 DUP1 REVERT JUMPDEST POP PUSH2 0x189 PUSH2 0x7D9 JUMP JUMPDEST STOP JUMPDEST CALLVALUE DUP1 ISZERO PUSH2 0x197 JUMPI PUSH1 0x0 DUP1 REVERT JUMPDEST POP PUSH2 0x1A0 PUSH2 0x928 JUMP JUMPDEST PUSH1 0x40 MLOAD PUSH2 0x1AD SWAP2 SWAP1 PUSH2 0x1473 JUMP JUMPDEST PUSH1 0x40 MLOAD DUP1 SWAP2 SUB SWAP1 RETURN JUMPDEST CALLVALUE DUP1 ISZERO PUSH2 0x1C2 JUMPI PUSH1 0x0 DUP1 REVERT JUMPDEST POP PUSH2 0x1CB PUSH2 0x92E JUMP JUMPDEST STOP JUMPDEST CALLVALUE DUP1 ISZERO PUSH2 0x1D9 JUMPI PUSH1 0x0 DUP1 REVERT JUMPDEST POP PUSH2 0x1E2 PUSH2 0xA0F JUMP JUMPDEST PUSH1 0x40 MLOAD PUSH2 0x1EF SWAP2 SWAP1 PUSH2 0x1473 JUMP JUMPDEST PUSH1 0x40 MLOAD DUP1 SWAP2 SUB SWAP1 RETURN JUMPDEST CALLVALUE DUP1 ISZERO PUSH2 0x204 JUMPI PUSH1 0x0 DUP1 REVERT JUMPDEST POP PUSH2 0x21F PUSH1 0x4 DUP1 CALLDATASIZE SUB DUP2 ADD SWAP1 PUSH2 0x21A SWAP2 SWAP1 PUSH2 0x10D3 JUMP JUMPDEST PUSH2 0xA15 JUMP JUMPDEST STOP JUMPDEST CALLVALUE DUP1 ISZERO PUSH2 0x22D JUMPI PUSH1 0x0 DUP1 REVERT JUMPDEST POP PUSH2 0x236 PUSH2 0xAE9 JUMP JUMPDEST PUSH1 0x40 MLOAD PUSH2 0x243 SWAP2 SWAP1 PUSH2 0x1473 JUMP JUMPDEST PUSH1 0x40 MLOAD DUP1 SWAP2 SUB SWAP1 RETURN JUMPDEST CALLVALUE DUP1 ISZERO PUSH2 0x258 JUMPI PUSH1 0x0 DUP1 REVERT JUMPDEST POP PUSH2 0x261 PUSH2 0xAEF JUMP JUMPDEST PUSH1 0x40 MLOAD PUSH2 0x26E SWAP2 SWAP1 PUSH2 0x1473 JUMP JUMPDEST PUSH1 0x40 MLOAD DUP1 SWAP2 SUB SWAP1 RETURN JUMPDEST PUSH2 0x27F PUSH2 0xAF5 JUMP JUMPDEST PUSH2 0x2BE JUMPI PUSH1 0x40 MLOAD PUSH32 0x8C379A000000000000000000000000000000000000000000000000000000000 DUP2 MSTORE PUSH1 0x4 ADD PUSH2 0x2B5 SWAP1 PUSH2 0x1413 JUMP JUMPDEST PUSH1 0x40 MLOAD DUP1 SWAP2 SUB SWAP1 REVERT JUMPDEST PUSH1 0x0 PUSH1 0x4 SLOAD EQ PUSH2 0x303 JUMPI PUSH1 0x40 MLOAD PUSH32 0x8C379A000000000000000000000000000000000000000000000000000000000 DUP2 MSTORE PUSH1 0x4 ADD PUSH2 0x2FA SWAP1 PUSH2 0x13F3 JUMP JUMPDEST PUSH1 0x40 MLOAD DUP1 SWAP2 SUB SWAP1 REVERT JUMPDEST PUSH1 0x0 SLOAD DUP3 GT ISZERO PUSH2 0x348 JUMPI PUSH1 0x40 MLOAD PUSH32 0x8C379A000000000000000000000000000000000000000000000000000000000 DUP2 MSTORE PUSH1 0x4 ADD PUSH2 0x33F SWAP1 PUSH2 0x1453 JUMP JUMPDEST PUSH1 0x40 MLOAD DUP1 SWAP2 SUB SWAP1 REVERT JUMPDEST PUSH1 0x0 PUSH20 0xFFFFFFFFFFFFFFFFFFFFFFFFFFFFFFFFFFFFFFFF AND DUP2 PUSH20 0xFFFFFFFFFFFFFFFFFFFFFFFFFFFFFFFFFFFFFFFF AND EQ ISZERO PUSH2 0x3B8 JUMPI PUSH1 0x40 MLOAD PUSH32 0x8C379A000000000000000000000000000000000000000000000000000000000 DUP2 MSTORE PUSH1 0x4 ADD PUSH2 0x3AF SWAP1 PUSH2 0x1373 JUMP JUMPDEST PUSH1 0x40 MLOAD DUP1 SWAP2 SUB SWAP1 REVERT JUMPDEST CALLER PUSH1 0x6 PUSH1 0x0 PUSH2 0x100 EXP DUP2 SLOAD DUP2 PUSH20 0xFFFFFFFFFFFFFFFFFFFFFFFFFFFFFFFFFFFFFFFF MUL NOT AND SWAP1 DUP4 PUSH20 0xFFFFFFFFFFFFFFFFFFFFFFFFFFFFFFFFFFFFFFFF AND MUL OR SWAP1 SSTORE POP DUP2 PUSH1 0x4 DUP2 SWAP1 SSTORE POP DUP1 PUSH1 0x5 PUSH1 0x0 PUSH2 0x100 EXP DUP2 SLOAD DUP2 PUSH20 0xFFFFFFFFFFFFFFFFFFFFFFFFFFFFFFFFFFFFFFFF MUL NOT AND SWAP1 DUP4 PUSH20 0xFFFFFFFFFFFFFFFFFFFFFFFFFFFFFFFFFFFFFFFF AND MUL OR SWAP1 SSTORE POP PUSH1 0x7 CALLER SWAP1 DUP1 PUSH1 0x1 DUP2 SLOAD ADD DUP1 DUP3 SSTORE DUP1 SWAP2 POP POP PUSH1 0x1 SWAP1 SUB SWAP1 PUSH1 0x0 MSTORE PUSH1 0x20 PUSH1 0x0 KECCAK256 ADD PUSH1 0x0 SWAP1 SWAP2 SWAP1 SWAP2 SWAP1 SWAP2 PUSH2 0x100 EXP DUP2 SLOAD DUP2 PUSH20 0xFFFFFFFFFFFFFFFFFFFFFFFFFFFFFFFFFFFFFFFF MUL NOT AND SWAP1 DUP4 PUSH20 0xFFFFFFFFFFFFFFFFFFFFFFFFFFFFFFFFFFFFFFFF AND MUL OR SWAP1 SSTORE POP PUSH2 0x4AC PUSH2 0xB8C JUMP JUMPDEST ISZERO PUSH2 0x4BA JUMPI PUSH2 0x4B9 PUSH2 0xD18 JUMP JUMPDEST JUMPDEST POP POP JUMP JUMPDEST PUSH2 0x4C6 PUSH2 0xAF5 JUMP JUMPDEST PUSH2 0x505 JUMPI PUSH1 0x40 MLOAD PUSH32 0x8C379A000000000000000000000000000000000000000000000000000000000 DUP2 MSTORE PUSH1 0x4 ADD PUSH2 0x4FC SWAP1 PUSH2 0x1413 JUMP JUMPDEST PUSH1 0x40 MLOAD DUP1 SWAP2 SUB SWAP1 REVERT JUMPDEST PUSH1 0x6 PUSH1 0x0 SWAP1 SLOAD SWAP1 PUSH2 0x100 EXP SWAP1 DIV PUSH20 0xFFFFFFFFFFFFFFFFFFFFFFFFFFFFFFFFFFFFFFFF AND PUSH20 0xFFFFFFFFFFFFFFFFFFFFFFFFFFFFFFFFFFFFFFFF AND CALLER PUSH20 0xFFFFFFFFFFFFFFFFFFFFFFFFFFFFFFFFFFFFFFFF AND EQ ISZERO PUSH2 0x596 JUMPI PUSH1 0x40 MLOAD PUSH32 0x8C379A000000000000000000000000000000000000000000000000000000000 DUP2 MSTORE PUSH1 0x4 ADD PUSH2 0x58D SWAP1 PUSH2 0x1333 JUMP JUMPDEST PUSH1 0x40 MLOAD DUP1 SWAP2 SUB SWAP1 REVERT JUMPDEST PUSH2 0x626 PUSH1 0x8 DUP1 SLOAD DUP1 PUSH1 0x20 MUL PUSH1 0x20 ADD PUSH1 0x40 MLOAD SWAP1 DUP2 ADD PUSH1 0x40 MSTORE DUP1 SWAP3 SWAP2 SWAP1 DUP2 DUP2 MSTORE PUSH1 0x20 ADD DUP3 DUP1 SLOAD DUP1 ISZERO PUSH2 0x61B JUMPI PUSH1 0x20 MUL DUP3 ADD SWAP2 SWAP1 PUSH1 0x0 MSTORE PUSH1 0x20 PUSH1 0x0 KECCAK256 SWAP1 JUMPDEST DUP2 PUSH1 0x0 SWAP1 SLOAD SWAP1 PUSH2 0x100 EXP SWAP1 DIV PUSH20 0xFFFFFFFFFFFFFFFFFFFFFFFFFFFFFFFFFFFFFFFF AND PUSH20 0xFFFFFFFFFFFFFFFFFFFFFFFFFFFFFFFFFFFFFFFF AND DUP2 MSTORE PUSH1 0x20 ADD SWAP1 PUSH1 0x1 ADD SWAP1 DUP1 DUP4 GT PUSH2 0x5D1 JUMPI JUMPDEST POP POP POP POP POP CALLER PUSH2 0xE3B JUMP JUMPDEST ISZERO PUSH2 0x666 JUMPI PUSH1 0x40 MLOAD PUSH32 0x8C379A000000000000000000000000000000000000000000000000000000000 DUP2 MSTORE PUSH1 0x4 ADD PUSH2 0x65D SWAP1 PUSH2 0x1353 JUMP JUMPDEST PUSH1 0x40 MLOAD DUP1 SWAP2 SUB SWAP1 REVERT JUMPDEST PUSH1 0x0 PUSH1 0x4 SLOAD GT PUSH2 0x6AB JUMPI PUSH1 0x40 MLOAD PUSH32 0x8C379A000000000000000000000000000000000000000000000000000000000 DUP2 MSTORE PUSH1 0x4 ADD PUSH2 0x6A2 SWAP1 PUSH2 0x1313 JUMP JUMPDEST PUSH1 0x40 MLOAD DUP1 SWAP2 SUB SWAP1 REVERT JUMPDEST PUSH1 0x8 CALLER SWAP1 DUP1 PUSH1 0x1 DUP2 SLOAD ADD DUP1 DUP3 SSTORE DUP1 SWAP2 POP POP PUSH1 0x1 SWAP1 SUB SWAP1 PUSH1 0x0 MSTORE PUSH1 0x20 PUSH1 0x0 KECCAK256 ADD PUSH1 0x0 SWAP1 SWAP2 SWAP1 SWAP2 SWAP1 SWAP2 PUSH2 0x100 EXP DUP2 SLOAD DUP2 PUSH20 0xFFFFFFFFFFFFFFFFFFFFFFFFFFFFFFFFFFFFFFFF MUL NOT AND SWAP1 DUP4 PUSH20 0xFFFFFFFFFFFFFFFFFFFFFFFFFFFFFFFFFFFFFFFF AND MUL OR SWAP1 SSTORE POP PUSH1 0x0 DUP1 JUMPDEST PUSH1 0x8 DUP1 SLOAD SWAP1 POP DUP2 LT ISZERO PUSH2 0x7B3 JUMPI PUSH1 0x0 PUSH20 0xFFFFFFFFFFFFFFFFFFFFFFFFFFFFFFFFFFFFFFFF AND PUSH1 0x8 DUP3 DUP2 SLOAD DUP2 LT PUSH2 0x74B JUMPI PUSH2 0x74A PUSH2 0x16E0 JUMP JUMPDEST JUMPDEST SWAP1 PUSH1 0x0 MSTORE PUSH1 0x20 PUSH1 0x0 KECCAK256 ADD PUSH1 0x0 SWAP1 SLOAD SWAP1 PUSH2 0x100 EXP SWAP1 DIV PUSH20 0xFFFFFFFFFFFFFFFFFFFFFFFFFFFFFFFFFFFFFFFF AND PUSH20 0xFFFFFFFFFFFFFFFFFFFFFFFFFFFFFFFFFFFFFFFF AND EQ PUSH2 0x7A0 JUMPI DUP2 DUP1 PUSH2 0x79C SWAP1 PUSH2 0x160F JUMP JUMPDEST SWAP3 POP POP JUMPDEST DUP1 DUP1 PUSH2 0x7AB SWAP1 PUSH2 0x160F JUMP JUMPDEST SWAP2 POP POP PUSH2 0x712 JUMP JUMPDEST POP PUSH1 0x1 PUSH1 0x2 DUP1 SLOAD SWAP1 POP PUSH2 0x7C6 SWAP2 SWAP1 PUSH2 0x1580 JUMP JUMPDEST DUP2 EQ ISZERO PUSH2 0x7D6 JUMPI PUSH2 0x7D5 PUSH2 0xEC3 JUMP JUMPDEST JUMPDEST POP JUMP JUMPDEST PUSH2 0x7E1 PUSH2 0xAF5 JUMP JUMPDEST PUSH2 0x820 JUMPI PUSH1 0x40 MLOAD PUSH32 0x8C379A000000000000000000000000000000000000000000000000000000000 DUP2 MSTORE PUSH1 0x4 ADD PUSH2 0x817 SWAP1 PUSH2 0x1413 JUMP JUMPDEST PUSH1 0x40 MLOAD DUP1 SWAP2 SUB SWAP1 REVERT JUMPDEST PUSH1 0x0 PUSH1 0x4 SLOAD GT PUSH2 0x865 JUMPI PUSH1 0x40 MLOAD PUSH32 0x8C379A000000000000000000000000000000000000000000000000000000000 DUP2 MSTORE PUSH1 0x4 ADD PUSH2 0x85C SWAP1 PUSH2 0x13B3 JUMP JUMPDEST PUSH1 0x40 MLOAD DUP1 SWAP2 SUB SWAP1 REVERT JUMPDEST PUSH2 0x86D PUSH2 0xF33 JUMP JUMPDEST ISZERO PUSH2 0x8AD JUMPI PUSH1 0x40 MLOAD PUSH32 0x8C379A000000000000000000000000000000000000000000000000000000000 DUP2 MSTORE PUSH1 0x4 ADD PUSH2 0x8A4 SWAP1 PUSH2 0x13D3 JUMP JUMPDEST PUSH1 0x40 MLOAD DUP1 SWAP2 SUB SWAP1 REVERT JUMPDEST PUSH1 0x7 CALLER SWAP1 DUP1 PUSH1 0x1 DUP2 SLOAD ADD DUP1 DUP3 SSTORE DUP1 SWAP2 POP POP PUSH1 0x1 SWAP1 SUB SWAP1 PUSH1 0x0 MSTORE PUSH1 0x20 PUSH1 0x0 KECCAK256 ADD PUSH1 0x0 SWAP1 SWAP2 SWAP1 SWAP2 SWAP1 SWAP2 PUSH2 0x100 EXP DUP2 SLOAD DUP2 PUSH20 0xFFFFFFFFFFFFFFFFFFFFFFFFFFFFFFFFFFFFFFFF MUL NOT AND SWAP1 DUP4 PUSH20 0xFFFFFFFFFFFFFFFFFFFFFFFFFFFFFFFFFFFFFFFF AND MUL OR SWAP1 SSTORE POP PUSH2 0x918 PUSH2 0xB8C JUMP JUMPDEST ISZERO PUSH2 0x926 JUMPI PUSH2 0x925 PUSH2 0xD18 JUMP JUMPDEST JUMPDEST JUMP JUMPDEST PUSH1 0xA SLOAD DUP2 JUMP JUMPDEST PUSH2 0x936 PUSH2 0xAF5 JUMP JUMPDEST PUSH2 0x975 JUMPI PUSH1 0x40 MLOAD PUSH32 0x8C379A000000000000000000000000000000000000000000000000000000000 DUP2 MSTORE PUSH1 0x4 ADD PUSH2 0x96C SWAP1 PUSH2 0x1413 JUMP JUMPDEST PUSH1 0x40 MLOAD DUP1 SWAP2 SUB SWAP1 REVERT JUMPDEST PUSH1 0x6 PUSH1 0x0 SWAP1 SLOAD SWAP1 PUSH2 0x100 EXP SWAP1 DIV PUSH20 0xFFFFFFFFFFFFFFFFFFFFFFFFFFFFFFFFFFFFFFFF AND PUSH20 0xFFFFFFFFFFFFFFFFFFFFFFFFFFFFFFFFFFFFFFFF AND CALLER PUSH20 0xFFFFFFFFFFFFFFFFFFFFFFFFFFFFFFFFFFFFFFFF AND EQ PUSH2 0xA05 JUMPI PUSH1 0x40 MLOAD PUSH32 0x8C379A000000000000000000000000000000000000000000000000000000000 DUP2 MSTORE PUSH1 0x4 ADD PUSH2 0x9FC SWAP1 PUSH2 0x1433 JUMP JUMPDEST PUSH1 0x40 MLOAD DUP1 SWAP2 SUB SWAP1 REVERT JUMPDEST PUSH2 0xA0D PUSH2 0xEC3 JUMP JUMPDEST JUMP JUMPDEST PUSH1 0x0 SLOAD DUP2 JUMP JUMPDEST PUSH1 0xC PUSH1 0x0 SWAP1 SLOAD SWAP1 PUSH2 0x100 EXP SWAP1 DIV PUSH20 0xFFFFFFFFFFFFFFFFFFFFFFFFFFFFFFFFFFFFFFFF AND PUSH20 0xFFFFFFFFFFFFFFFFFFFFFFFFFFFFFFFFFFFFFFFF AND CALLER PUSH20 0xFFFFFFFFFFFFFFFFFFFFFFFFFFFFFFFFFFFFFFFF AND EQ PUSH2 0xAA5 JUMPI PUSH1 0x40 MLOAD PUSH32 0x8C379A000000000000000000000000000000000000000000000000000000000 DUP2 MSTORE PUSH1 0x4 ADD PUSH2 0xA9C SWAP1 PUSH2 0x1393 JUMP JUMPDEST PUSH1 0x40 MLOAD DUP1 SWAP2 SUB SWAP1 REVERT JUMPDEST DUP1 PUSH1 0xC PUSH1 0x0 PUSH2 0x100 EXP DUP2 SLOAD DUP2 PUSH20 0xFFFFFFFFFFFFFFFFFFFFFFFFFFFFFFFFFFFFFFFF MUL NOT AND SWAP1 DUP4 PUSH20 0xFFFFFFFFFFFFFFFFFFFFFFFFFFFFFFFFFFFFFFFF AND MUL OR SWAP1 SSTORE POP POP JUMP JUMPDEST PUSH1 0x9 SLOAD DUP2 JUMP JUMPDEST PUSH1 0xB SLOAD DUP2 JUMP JUMPDEST PUSH1 0x0 PUSH2 0xB87 PUSH1 0x2 DUP1 SLOAD DUP1 PUSH1 0x20 MUL PUSH1 0x20 ADD PUSH1 0x40 MLOAD SWAP1 DUP2 ADD PUSH1 0x40 MSTORE DUP1 SWAP3 SWAP2 SWAP1 DUP2 DUP2 MSTORE PUSH1 0x20 ADD DUP3 DUP1 SLOAD DUP1 ISZERO PUSH2 0xB7C JUMPI PUSH1 0x20 MUL DUP3 ADD SWAP2 SWAP1 PUSH1 0x0 MSTORE PUSH1 0x20 PUSH1 0x0 KECCAK256 SWAP1 JUMPDEST DUP2 PUSH1 0x0 SWAP1 SLOAD SWAP1 PUSH2 0x100 EXP SWAP1 DIV PUSH20 0xFFFFFFFFFFFFFFFFFFFFFFFFFFFFFFFFFFFFFFFF AND PUSH20 0xFFFFFFFFFFFFFFFFFFFFFFFFFFFFFFFFFFFFFFFF AND DUP2 MSTORE PUSH1 0x20 ADD SWAP1 PUSH1 0x1 ADD SWAP1 DUP1 DUP4 GT PUSH2 0xB32 JUMPI JUMPDEST POP POP POP POP POP CALLER PUSH2 0xE3B JUMP JUMPDEST SWAP1 POP SWAP1 JUMP JUMPDEST PUSH1 0x0 DUP1 PUSH1 0x7 DUP1 SLOAD DUP1 PUSH1 0x20 MUL PUSH1 0x20 ADD PUSH1 0x40 MLOAD SWAP1 DUP2 ADD PUSH1 0x40 MSTORE DUP1 SWAP3 SWAP2 SWAP1 DUP2 DUP2 MSTORE PUSH1 0x20 ADD DUP3 DUP1 SLOAD DUP1 ISZERO PUSH2 0xC11 JUMPI PUSH1 0x20 MUL DUP3 ADD SWAP2 SWAP1 PUSH1 0x0 MSTORE PUSH1 0x20 PUSH1 0x0 KECCAK256 SWAP1 JUMPDEST DUP2 PUSH1 0x0 SWAP1 SLOAD SWAP1 PUSH2 0x100 EXP SWAP1 DIV PUSH20 0xFFFFFFFFFFFFFFFFFFFFFFFFFFFFFFFFFFFFFFFF AND PUSH20 0xFFFFFFFFFFFFFFFFFFFFFFFFFFFFFFFFFFFFFFFF AND DUP2 MSTORE PUSH1 0x20 ADD SWAP1 PUSH1 0x1 ADD SWAP1 DUP1 DUP4 GT PUSH2 0xBC7 JUMPI JUMPDEST POP POP POP POP POP SWAP1 POP PUSH1 0x0 DUP1 JUMPDEST DUP3 MLOAD DUP2 LT ISZERO PUSH2 0xCF7 JUMPI PUSH1 0x0 JUMPDEST PUSH1 0x2 DUP1 SLOAD SWAP1 POP DUP2 LT ISZERO PUSH2 0xCE3 JUMPI DUP4 DUP3 DUP2 MLOAD DUP2 LT PUSH2 0xC48 JUMPI PUSH2 0xC47 PUSH2 0x16E0 JUMP JUMPDEST JUMPDEST PUSH1 0x20 MUL PUSH1 0x20 ADD ADD MLOAD PUSH20 0xFFFFFFFFFFFFFFFFFFFFFFFFFFFFFFFFFFFFFFFF AND PUSH1 0x2 DUP3 DUP2 SLOAD DUP2 LT PUSH2 0xC7A JUMPI PUSH2 0xC79 PUSH2 0x16E0 JUMP JUMPDEST JUMPDEST SWAP1 PUSH1 0x0 MSTORE PUSH1 0x20 PUSH1 0x0 KECCAK256 ADD PUSH1 0x0 SWAP1 SLOAD SWAP1 PUSH2 0x100 EXP SWAP1 DIV PUSH20 0xFFFFFFFFFFFFFFFFFFFFFFFFFFFFFFFFFFFFFFFF AND PUSH20 0xFFFFFFFFFFFFFFFFFFFFFFFFFFFFFFFFFFFFFFFF AND EQ ISZERO PUSH2 0xCD0 JUMPI DUP3 DUP1 PUSH2 0xCCC SWAP1 PUSH2 0x1658 JUMP JUMPDEST SWAP4 POP POP JUMPDEST DUP1 DUP1 PUSH2 0xCDB SWAP1 PUSH2 0x160F JUMP JUMPDEST SWAP2 POP POP PUSH2 0xC28 JUMP JUMPDEST POP DUP1 DUP1 PUSH2 0xCEF SWAP1 PUSH2 0x160F JUMP JUMPDEST SWAP2 POP POP PUSH2 0xC1C JUMP JUMPDEST POP PUSH1 0x3 PUSH1 0x0 SWAP1 SLOAD SWAP1 PUSH2 0x100 EXP SWAP1 DIV PUSH1 0xFF AND PUSH1 0xFF AND DUP2 PUSH1 0xFF AND LT ISZERO SWAP3 POP POP POP SWAP1 JUMP JUMPDEST PUSH1 0x0 PUSH1 0x4 SLOAD SWAP1 POP PUSH1 0x0 PUSH1 0x4 DUP2 SWAP1 SSTORE POP PUSH1 0x5 PUSH1 0x0 SWAP1 SLOAD SWAP1 PUSH2 0x100 EXP SWAP1 DIV PUSH20 0xFFFFFFFFFFFFFFFFFFFFFFFFFFFFFFFFFFFFFFFF AND PUSH20 0xFFFFFFFFFFFFFFFFFFFFFFFFFFFFFFFFFFFFFFFF AND PUSH2 0x8FC DUP3 SWAP1 DUP2 ISZERO MUL SWAP1 PUSH1 0x40 MLOAD PUSH1 0x0 PUSH1 0x40 MLOAD DUP1 DUP4 SUB DUP2 DUP6 DUP9 DUP9 CALL SWAP4 POP POP POP POP ISZERO DUP1 ISZERO PUSH2 0xD8F JUMPI RETURNDATASIZE PUSH1 0x0 DUP1 RETURNDATACOPY RETURNDATASIZE PUSH1 0x0 REVERT JUMPDEST POP DUP1 PUSH1 0x0 SLOAD PUSH2 0xD9E SWAP2 SWAP1 PUSH2 0x1580 JUMP JUMPDEST PUSH1 0x0 DUP2 SWAP1 SSTORE POP PUSH1 0x9 PUSH1 0x0 DUP2 SLOAD DUP1 SWAP3 SWAP2 SWAP1 PUSH2 0xDB7 SWAP1 PUSH2 0x160F JUMP JUMPDEST SWAP2 SWAP1 POP SSTORE POP PUSH1 0x5 PUSH1 0x0 PUSH2 0x100 EXP DUP2 SLOAD SWAP1 PUSH20 0xFFFFFFFFFFFFFFFFFFFFFFFFFFFFFFFFFFFFFFFF MUL NOT AND SWAP1 SSTORE PUSH1 0x7 PUSH1 0x0 PUSH2 0xDEF SWAP2 SWAP1 PUSH2 0x1056 JUMP JUMPDEST PUSH1 0x6 PUSH1 0x0 PUSH2 0x100 EXP DUP2 SLOAD SWAP1 PUSH20 0xFFFFFFFFFFFFFFFFFFFFFFFFFFFFFFFFFFFFFFFF MUL NOT AND SWAP1 SSTORE PUSH1 0x8 PUSH1 0x0 PUSH2 0xE22 SWAP2 SWAP1 PUSH2 0x1056 JUMP JUMPDEST PUSH1 0xB SLOAD PUSH1 0x9 SLOAD GT ISZERO PUSH2 0xE38 JUMPI PUSH2 0xE37 DUP2 PUSH2 0xFCA JUMP JUMPDEST JUMPDEST POP JUMP JUMPDEST PUSH1 0x0 DUP1 PUSH1 0x0 SWAP1 POP PUSH1 0x0 JUMPDEST DUP5 MLOAD DUP2 LT ISZERO PUSH2 0xEB8 JUMPI DUP4 PUSH20 0xFFFFFFFFFFFFFFFFFFFFFFFFFFFFFFFFFFFFFFFF AND DUP6 DUP3 DUP2 MLOAD DUP2 LT PUSH2 0xE78 JUMPI PUSH2 0xE77 PUSH2 0x16E0 JUMP JUMPDEST JUMPDEST PUSH1 0x20 MUL PUSH1 0x20 ADD ADD MLOAD PUSH20 0xFFFFFFFFFFFFFFFFFFFFFFFFFFFFFFFFFFFFFFFF AND EQ ISZERO PUSH2 0xEA5 JUMPI PUSH1 0x1 SWAP2 POP PUSH2 0xEB8 JUMP JUMPDEST DUP1 DUP1 PUSH2 0xEB0 SWAP1 PUSH2 0x160F JUMP JUMPDEST SWAP2 POP POP PUSH2 0xE45 JUMP JUMPDEST POP DUP1 SWAP2 POP POP SWAP3 SWAP2 POP POP JUMP JUMPDEST PUSH1 0x6 PUSH1 0x0 PUSH2 0x100 EXP DUP2 SLOAD SWAP1 PUSH20 0xFFFFFFFFFFFFFFFFFFFFFFFFFFFFFFFFFFFFFFFF MUL NOT AND SWAP1 SSTORE PUSH1 0x5 PUSH1 0x0 PUSH2 0x100 EXP DUP2 SLOAD SWAP1 PUSH20 0xFFFFFFFFFFFFFFFFFFFFFFFFFFFFFFFFFFFFFFFF MUL NOT AND SWAP1 SSTORE PUSH1 0x0 PUSH1 0x4 DUP2 SWAP1 SSTORE POP PUSH1 0x7 PUSH1 0x0 PUSH2 0xF23 SWAP2 SWAP1 PUSH2 0x1056 JUMP JUMPDEST PUSH1 0x8 PUSH1 0x0 PUSH2 0xF31 SWAP2 SWAP1 PUSH2 0x1056 JUMP JUMPDEST JUMP JUMPDEST PUSH1 0x0 PUSH2 0xFC5 PUSH1 0x7 DUP1 SLOAD DUP1 PUSH1 0x20 MUL PUSH1 0x20 ADD PUSH1 0x40 MLOAD SWAP1 DUP2 ADD PUSH1 0x40 MSTORE DUP1 SWAP3 SWAP2 SWAP1 DUP2 DUP2 MSTORE PUSH1 0x20 ADD DUP3 DUP1 SLOAD DUP1 ISZERO PUSH2 0xFBA JUMPI PUSH1 0x20 MUL DUP3 ADD SWAP2 SWAP1 PUSH1 0x0 MSTORE PUSH1 0x20 PUSH1 0x0 KECCAK256 SWAP1 JUMPDEST DUP2 PUSH1 0x0 SWAP1 SLOAD SWAP1 PUSH2 0x100 EXP SWAP1 DIV PUSH20 0xFFFFFFFFFFFFFFFFFFFFFFFFFFFFFFFFFFFFFFFF AND PUSH20 0xFFFFFFFFFFFFFFFFFFFFFFFFFFFFFFFFFFFFFFFF AND DUP2 MSTORE PUSH1 0x20 ADD SWAP1 PUSH1 0x1 ADD SWAP1 DUP1 DUP4 GT PUSH2 0xF70 JUMPI JUMPDEST POP POP POP POP POP CALLER PUSH2 0xE3B JUMP JUMPDEST SWAP1 POP SWAP1 JUMP JUMPDEST PUSH1 0x0 PUSH1 0xA SLOAD PUSH2 0x2710 DUP4 PUSH2 0xFDD SWAP2 SWAP1 PUSH2 0x14F5 JUMP JUMPDEST PUSH2 0xFE7 SWAP2 SWAP1 PUSH2 0x1526 JUMP JUMPDEST SWAP1 POP PUSH1 0xC PUSH1 0x0 SWAP1 SLOAD SWAP1 PUSH2 0x100 EXP SWAP1 DIV PUSH20 0xFFFFFFFFFFFFFFFFFFFFFFFFFFFFFFFFFFFFFFFF AND PUSH20 0xFFFFFFFFFFFFFFFFFFFFFFFFFFFFFFFFFFFFFFFF AND PUSH2 0x8FC DUP3 SWAP1 DUP2 ISZERO MUL SWAP1 PUSH1 0x40 MLOAD PUSH1 0x0 PUSH1 0x40 MLOAD DUP1 DUP4 SUB DUP2 DUP6 DUP9 DUP9 CALL SWAP4 POP POP POP POP ISZERO DUP1 ISZERO PUSH2 0x1051 JUMPI RETURNDATASIZE PUSH1 0x0 DUP1 RETURNDATACOPY RETURNDATASIZE PUSH1 0x0 REVERT JUMPDEST POP POP POP JUMP JUMPDEST POP DUP1 SLOAD PUSH1 0x0 DUP3 SSTORE SWAP1 PUSH1 0x0 MSTORE PUSH1 0x20 PUSH1 0x0 KECCAK256 SWAP1 DUP2 ADD SWAP1 PUSH2 0x1074 SWAP2 SWAP1 PUSH2 0x1077 JUMP JUMPDEST POP JUMP JUMPDEST JUMPDEST DUP1 DUP3 GT ISZERO PUSH2 0x1090 JUMPI PUSH1 0x0 DUP2 PUSH1 0x0 SWAP1 SSTORE POP PUSH1 0x1 ADD PUSH2 0x1078 JUMP JUMPDEST POP SWAP1 JUMP JUMPDEST PUSH1 0x0 DUP2 CALLDATALOAD SWAP1 POP PUSH2 0x10A3 DUP2 PUSH2 0x1AA2 JUMP JUMPDEST SWAP3 SWAP2 POP POP JUMP JUMPDEST PUSH1 0x0 DUP2 CALLDATALOAD SWAP1 POP PUSH2 0x10B8 DUP2 PUSH2 0x1AB9 JUMP JUMPDEST SWAP3 SWAP2 POP POP JUMP JUMPDEST PUSH1 0x0 DUP2 CALLDATALOAD SWAP1 POP PUSH2 0x10CD DUP2 PUSH2 0x1AD0 JUMP JUMPDEST SWAP3 SWAP2 POP POP JUMP JUMPDEST PUSH1 0x0 PUSH1 0x20 DUP3 DUP5 SUB SLT ISZERO PUSH2 0x10E9 JUMPI PUSH2 0x10E8 PUSH2 0x170F JUMP JUMPDEST JUMPDEST PUSH1 0x0 PUSH2 0x10F7 DUP5 DUP3 DUP6 ADD PUSH2 0x1094 JUMP JUMPDEST SWAP2 POP POP SWAP3 SWAP2 POP POP JUMP JUMPDEST PUSH1 0x0 DUP1 PUSH1 0x40 DUP4 DUP6 SUB SLT ISZERO PUSH2 0x1117 JUMPI PUSH2 0x1116 PUSH2 0x170F JUMP JUMPDEST JUMPDEST PUSH1 0x0 PUSH2 0x1125 DUP6 DUP3 DUP7 ADD PUSH2 0x10BE JUMP JUMPDEST SWAP3 POP POP PUSH1 0x20 PUSH2 0x1136 DUP6 DUP3 DUP7 ADD PUSH2 0x10A9 JUMP JUMPDEST SWAP2 POP POP SWAP3 POP SWAP3 SWAP1 POP JUMP JUMPDEST PUSH1 0x0 PUSH2 0x114D PUSH1 0x58 DUP4 PUSH2 0x148E JUMP JUMPDEST SWAP2 POP PUSH2 0x1158 DUP3 PUSH2 0x1714 JUMP JUMPDEST PUSH1 0x60 DUP3 ADD SWAP1 POP SWAP2 SWAP1 POP JUMP JUMPDEST PUSH1 0x0 PUSH2 0x1170 PUSH1 0x2F DUP4 PUSH2 0x148E JUMP JUMPDEST SWAP2 POP PUSH2 0x117B DUP3 PUSH2 0x1789 JUMP JUMPDEST PUSH1 0x40 DUP3 ADD SWAP1 POP SWAP2 SWAP1 POP JUMP JUMPDEST PUSH1 0x0 PUSH2 0x1193 PUSH1 0x3A DUP4 PUSH2 0x148E JUMP JUMPDEST SWAP2 POP PUSH2 0x119E DUP3 PUSH2 0x17D8 JUMP JUMPDEST PUSH1 0x40 DUP3 ADD SWAP1 POP SWAP2 SWAP1 POP JUMP JUMPDEST PUSH1 0x0 PUSH2 0x11B6 PUSH1 0x2E DUP4 PUSH2 0x148E JUMP JUMPDEST SWAP2 POP PUSH2 0x11C1 DUP3 PUSH2 0x1827 JUMP JUMPDEST PUSH1 0x40 DUP3 ADD SWAP1 POP SWAP2 SWAP1 POP JUMP JUMPDEST PUSH1 0x0 PUSH2 0x11D9 PUSH1 0x15 DUP4 PUSH2 0x148E JUMP JUMPDEST SWAP2 POP PUSH2 0x11E4 DUP3 PUSH2 0x1876 JUMP JUMPDEST PUSH1 0x20 DUP3 ADD SWAP1 POP SWAP2 SWAP1 POP JUMP JUMPDEST PUSH1 0x0 PUSH2 0x11FC PUSH1 0x3B DUP4 PUSH2 0x148E JUMP JUMPDEST SWAP2 POP PUSH2 0x1207 DUP3 PUSH2 0x189F JUMP JUMPDEST PUSH1 0x40 DUP3 ADD SWAP1 POP SWAP2 SWAP1 POP JUMP JUMPDEST PUSH1 0x0 PUSH2 0x121F PUSH1 0x2C DUP4 PUSH2 0x148E JUMP JUMPDEST SWAP2 POP PUSH2 0x122A DUP3 PUSH2 0x18EE JUMP JUMPDEST PUSH1 0x40 DUP3 ADD SWAP1 POP SWAP2 SWAP1 POP JUMP JUMPDEST PUSH1 0x0 PUSH2 0x1242 PUSH1 0x38 DUP4 PUSH2 0x148E JUMP JUMPDEST SWAP2 POP PUSH2 0x124D DUP3 PUSH2 0x193D JUMP JUMPDEST PUSH1 0x40 DUP3 ADD SWAP1 POP SWAP2 SWAP1 POP JUMP JUMPDEST PUSH1 0x0 PUSH2 0x1265 PUSH1 0x1D DUP4 PUSH2 0x148E JUMP JUMPDEST SWAP2 POP PUSH2 0x1270 DUP3 PUSH2 0x198C JUMP JUMPDEST PUSH1 0x20 DUP3 ADD SWAP1 POP SWAP2 SWAP1 POP JUMP JUMPDEST PUSH1 0x0 PUSH2 0x1288 PUSH1 0x26 DUP4 PUSH2 0x148E JUMP JUMPDEST SWAP2 POP PUSH2 0x1293 DUP3 PUSH2 0x19B5 JUMP JUMPDEST PUSH1 0x40 DUP3 ADD SWAP1 POP SWAP2 SWAP1 POP JUMP JUMPDEST PUSH1 0x0 PUSH2 0x12AB PUSH1 0x2A DUP4 PUSH2 0x148E JUMP JUMPDEST SWAP2 POP PUSH2 0x12B6 DUP3 PUSH2 0x1A04 JUMP JUMPDEST PUSH1 0x40 DUP3 ADD SWAP1 POP SWAP2 SWAP1 POP JUMP JUMPDEST PUSH1 0x0 PUSH2 0x12CE PUSH1 0x2C DUP4 PUSH2 0x148E JUMP JUMPDEST SWAP2 POP PUSH2 0x12D9 DUP3 PUSH2 0x1A53 JUMP JUMPDEST PUSH1 0x40 DUP3 ADD SWAP1 POP SWAP2 SWAP1 POP JUMP JUMPDEST PUSH2 0x12ED DUP2 PUSH2 0x15F8 JUMP JUMPDEST DUP3 MSTORE POP POP JUMP JUMPDEST PUSH1 0x0 PUSH1 0x20 DUP3 ADD SWAP1 POP DUP2 DUP2 SUB PUSH1 0x0 DUP4 ADD MSTORE PUSH2 0x130C DUP2 PUSH2 0x1140 JUMP JUMPDEST SWAP1 POP SWAP2 SWAP1 POP JUMP JUMPDEST PUSH1 0x0 PUSH1 0x20 DUP3 ADD SWAP1 POP DUP2 DUP2 SUB PUSH1 0x0 DUP4 ADD MSTORE PUSH2 0x132C DUP2 PUSH2 0x1163 JUMP JUMPDEST SWAP1 POP SWAP2 SWAP1 POP JUMP JUMPDEST PUSH1 0x0 PUSH1 0x20 DUP3 ADD SWAP1 POP DUP2 DUP2 SUB PUSH1 0x0 DUP4 ADD MSTORE PUSH2 0x134C DUP2 PUSH2 0x1186 JUMP JUMPDEST SWAP1 POP SWAP2 SWAP1 POP JUMP JUMPDEST PUSH1 0x0 PUSH1 0x20 DUP3 ADD SWAP1 POP DUP2 DUP2 SUB PUSH1 0x0 DUP4 ADD MSTORE PUSH2 0x136C DUP2 PUSH2 0x11A9 JUMP JUMPDEST SWAP1 POP SWAP2 SWAP1 POP JUMP JUMPDEST PUSH1 0x0 PUSH1 0x20 DUP3 ADD SWAP1 POP DUP2 DUP2 SUB PUSH1 0x0 DUP4 ADD MSTORE PUSH2 0x138C DUP2 PUSH2 0x11CC JUMP JUMPDEST SWAP1 POP SWAP2 SWAP1 POP JUMP JUMPDEST PUSH1 0x0 PUSH1 0x20 DUP3 ADD SWAP1 POP DUP2 DUP2 SUB PUSH1 0x0 DUP4 ADD MSTORE PUSH2 0x13AC DUP2 PUSH2 0x11EF JUMP JUMPDEST SWAP1 POP SWAP2 SWAP1 POP JUMP JUMPDEST PUSH1 0x0 PUSH1 0x20 DUP3 ADD SWAP1 POP DUP2 DUP2 SUB PUSH1 0x0 DUP4 ADD MSTORE PUSH2 0x13CC DUP2 PUSH2 0x1212 JUMP JUMPDEST SWAP1 POP SWAP2 SWAP1 POP JUMP JUMPDEST PUSH1 0x0 PUSH1 0x20 DUP3 ADD SWAP1 POP DUP2 DUP2 SUB PUSH1 0x0 DUP4 ADD MSTORE PUSH2 0x13EC DUP2 PUSH2 0x1235 JUMP JUMPDEST SWAP1 POP SWAP2 SWAP1 POP JUMP JUMPDEST PUSH1 0x0 PUSH1 0x20 DUP3 ADD SWAP1 POP DUP2 DUP2 SUB PUSH1 0x0 DUP4 ADD MSTORE PUSH2 0x140C DUP2 PUSH2 0x1258 JUMP JUMPDEST SWAP1 POP SWAP2 SWAP1 POP JUMP JUMPDEST PUSH1 0x0 PUSH1 0x20 DUP3 ADD SWAP1 POP DUP2 DUP2 SUB PUSH1 0x0 DUP4 ADD MSTORE PUSH2 0x142C DUP2 PUSH2 0x127B JUMP JUMPDEST SWAP1 POP SWAP2 SWAP1 POP JUMP JUMPDEST PUSH1 0x0 PUSH1 0x20 DUP3 ADD SWAP1 POP DUP2 DUP2 SUB PUSH1 0x0 DUP4 ADD MSTORE PUSH2 0x144C DUP2 PUSH2 0x129E JUMP JUMPDEST SWAP1 POP SWAP2 SWAP1 POP JUMP JUMPDEST PUSH1 0x0 PUSH1 0x20 DUP3 ADD SWAP1 POP DUP2 DUP2 SUB PUSH1 0x0 DUP4 ADD MSTORE PUSH2 0x146C DUP2 PUSH2 0x12C1 JUMP JUMPDEST SWAP1 POP SWAP2 SWAP1 POP JUMP JUMPDEST PUSH1 0x0 PUSH1 0x20 DUP3 ADD SWAP1 POP PUSH2 0x1488 PUSH1 0x0 DUP4 ADD DUP5 PUSH2 0x12E4 JUMP JUMPDEST SWAP3 SWAP2 POP POP JUMP JUMPDEST PUSH1 0x0 DUP3 DUP3 MSTORE PUSH1 0x20 DUP3 ADD SWAP1 POP SWAP3 SWAP2 POP POP JUMP JUMPDEST PUSH1 0x0 PUSH2 0x14AA DUP3 PUSH2 0x15F8 JUMP JUMPDEST SWAP2 POP PUSH2 0x14B5 DUP4 PUSH2 0x15F8 JUMP JUMPDEST SWAP3 POP DUP3 PUSH32 0xFFFFFFFFFFFFFFFFFFFFFFFFFFFFFFFFFFFFFFFFFFFFFFFFFFFFFFFFFFFFFFFF SUB DUP3 GT ISZERO PUSH2 0x14EA JUMPI PUSH2 0x14E9 PUSH2 0x1682 JUMP JUMPDEST JUMPDEST DUP3 DUP3 ADD SWAP1 POP SWAP3 SWAP2 POP POP JUMP JUMPDEST PUSH1 0x0 PUSH2 0x1500 DUP3 PUSH2 0x15F8 JUMP JUMPDEST SWAP2 POP PUSH2 0x150B DUP4 PUSH2 0x15F8 JUMP JUMPDEST SWAP3 POP DUP3 PUSH2 0x151B JUMPI PUSH2 0x151A PUSH2 0x16B1 JUMP JUMPDEST JUMPDEST DUP3 DUP3 DIV SWAP1 POP SWAP3 SWAP2 POP POP JUMP JUMPDEST PUSH1 0x0 PUSH2 0x1531 DUP3 PUSH2 0x15F8 JUMP JUMPDEST SWAP2 POP PUSH2 0x153C DUP4 PUSH2 0x15F8 JUMP JUMPDEST SWAP3 POP DUP2 PUSH32 0xFFFFFFFFFFFFFFFFFFFFFFFFFFFFFFFFFFFFFFFFFFFFFFFFFFFFFFFFFFFFFFFF DIV DUP4 GT DUP3 ISZERO ISZERO AND ISZERO PUSH2 0x1575 JUMPI PUSH2 0x1574 PUSH2 0x1682 JUMP JUMPDEST JUMPDEST DUP3 DUP3 MUL SWAP1 POP SWAP3 SWAP2 POP POP JUMP JUMPDEST PUSH1 0x0 PUSH2 0x158B DUP3 PUSH2 0x15F8 JUMP JUMPDEST SWAP2 POP PUSH2 0x1596 DUP4 PUSH2 0x15F8 JUMP JUMPDEST SWAP3 POP DUP3 DUP3 LT ISZERO PUSH2 0x15A9 JUMPI PUSH2 0x15A8 PUSH2 0x1682 JUMP JUMPDEST JUMPDEST DUP3 DUP3 SUB SWAP1 POP SWAP3 SWAP2 POP POP JUMP JUMPDEST PUSH1 0x0 PUSH2 0x15BF DUP3 PUSH2 0x15D8 JUMP JUMPDEST SWAP1 POP SWAP2 SWAP1 POP JUMP JUMPDEST PUSH1 0x0 PUSH2 0x15D1 DUP3 PUSH2 0x15D8 JUMP JUMPDEST SWAP1 POP SWAP2 SWAP1 POP JUMP JUMPDEST PUSH1 0x0 PUSH20 0xFFFFFFFFFFFFFFFFFFFFFFFFFFFFFFFFFFFFFFFF DUP3 AND SWAP1 POP SWAP2 SWAP1 POP JUMP JUMPDEST PUSH1 0x0 DUP2 SWAP1 POP SWAP2 SWAP1 POP JUMP JUMPDEST PUSH1 0x0 PUSH1 0xFF DUP3 AND SWAP1 POP SWAP2 SWAP1 POP JUMP JUMPDEST PUSH1 0x0 PUSH2 0x161A DUP3 PUSH2 0x15F8 JUMP JUMPDEST SWAP2 POP PUSH32 0xFFFFFFFFFFFFFFFFFFFFFFFFFFFFFFFFFFFFFFFFFFFFFFFFFFFFFFFFFFFFFFFF DUP3 EQ ISZERO PUSH2 0x164D JUMPI PUSH2 0x164C PUSH2 0x1682 JUMP JUMPDEST JUMPDEST PUSH1 0x1 DUP3 ADD SWAP1 POP SWAP2 SWAP1 POP JUMP JUMPDEST PUSH1 0x0 PUSH2 0x1663 DUP3 PUSH2 0x1602 JUMP JUMPDEST SWAP2 POP PUSH1 0xFF DUP3 EQ ISZERO PUSH2 0x1677 JUMPI PUSH2 0x1676 PUSH2 0x1682 JUMP JUMPDEST JUMPDEST PUSH1 0x1 DUP3 ADD SWAP1 POP SWAP2 SWAP1 POP JUMP JUMPDEST PUSH32 0x4E487B7100000000000000000000000000000000000000000000000000000000 PUSH1 0x0 MSTORE PUSH1 0x11 PUSH1 0x4 MSTORE PUSH1 0x24 PUSH1 0x0 REVERT JUMPDEST PUSH32 0x4E487B7100000000000000000000000000000000000000000000000000000000 PUSH1 0x0 MSTORE PUSH1 0x12 PUSH1 0x4 MSTORE PUSH1 0x24 PUSH1 0x0 REVERT JUMPDEST PUSH32 0x4E487B7100000000000000000000000000000000000000000000000000000000 PUSH1 0x0 MSTORE PUSH1 0x32 PUSH1 0x4 MSTORE PUSH1 0x24 PUSH1 0x0 REVERT JUMPDEST PUSH1 0x0 DUP1 REVERT JUMPDEST PUSH32 0x73746F7265206D757374206D6F7265207468616E2030207765692C20696E6465 PUSH1 0x0 DUP3 ADD MSTORE PUSH32 0x656420746865206761732066656520646F206E6F742064656372656173652069 PUSH1 0x20 DUP3 ADD MSTORE PUSH32 0x6620796F7520746F70696E2061206C6F772076616C75652E0000000000000000 PUSH1 0x40 DUP3 ADD MSTORE POP JUMP JUMPDEST PUSH32 0x74686572652069736E277420616E792077697468647277616C73207761697420 PUSH1 0x0 DUP3 ADD MSTORE PUSH32 0x666F722063616E63656C6174696F6E0000000000000000000000000000000000 PUSH1 0x20 DUP3 ADD MSTORE POP JUMP JUMPDEST PUSH32 0x6F6E6C792074686520636F756E746572207061727479206F6620696E69746961 PUSH1 0x0 DUP3 ADD MSTORE PUSH32 0x746F722063616E2063616C6C20746869732066756E6374696F6E000000000000 PUSH1 0x20 DUP3 ADD MSTORE POP JUMP JUMPDEST PUSH32 0x796F752068617665207369676E656420666F722063616E63656C6C6174696F6E PUSH1 0x0 DUP3 ADD MSTORE PUSH32 0x2C20646F6E277420726570656174000000000000000000000000000000000000 PUSH1 0x20 DUP3 ADD MSTORE POP JUMP JUMPDEST PUSH32 0x696E76616C696420746172676574416464726573730000000000000000000000 PUSH1 0x0 DUP3 ADD MSTORE POP JUMP JUMPDEST PUSH32 0x6F6E6C7920706C6174666F726D206163636F756E7420697473656C662063616E PUSH1 0x0 DUP3 ADD MSTORE PUSH32 0x206368616E676520697420746F206F74686572206163636F756E740000000000 PUSH1 0x20 DUP3 ADD MSTORE POP JUMP JUMPDEST PUSH32 0x7468657265206973206E6F20776974686472617720616374696F6E2077616974 PUSH1 0x0 DUP3 ADD MSTORE PUSH32 0x696E6720666F72207369676E0000000000000000000000000000000000000000 PUSH1 0x20 DUP3 ADD MSTORE POP JUMP JUMPDEST PUSH32 0x796F752068617665207369676E65642074686973207769746864726177207072 PUSH1 0x0 DUP3 ADD MSTORE PUSH32 0x6F636573732C20706C7A20646F6E2774207265706561742E0000000000000000 PUSH1 0x20 DUP3 ADD MSTORE POP JUMP JUMPDEST PUSH32 0x7072652070726F6365737320686173206E6F74206265656E206F766572000000 PUSH1 0x0 DUP3 ADD MSTORE POP JUMP JUMPDEST PUSH32 0x6F6E6C7920636F6C6C61626F7261746F7273206861766520746865207065726D PUSH1 0x0 DUP3 ADD MSTORE PUSH32 0x697373696F6E0000000000000000000000000000000000000000000000000000 PUSH1 0x20 DUP3 ADD MSTORE POP JUMP JUMPDEST PUSH32 0x6F6E6C792074686520696E69746961746F722063616E2063616E63656C207468 PUSH1 0x0 DUP3 ADD MSTORE PUSH32 0x69732070726F6365737300000000000000000000000000000000000000000000 PUSH1 0x20 DUP3 ADD MSTORE POP JUMP JUMPDEST PUSH32 0x77697468647261772062616C616E636520636F756C64206E6F74206D6F726520 PUSH1 0x0 DUP3 ADD MSTORE PUSH32 0x7468616E2062616C616E63650000000000000000000000000000000000000000 PUSH1 0x20 DUP3 ADD MSTORE POP JUMP JUMPDEST PUSH2 0x1AAB DUP2 PUSH2 0x15B4 JUMP JUMPDEST DUP2 EQ PUSH2 0x1AB6 JUMPI PUSH1 0x0 DUP1 REVERT JUMPDEST POP JUMP JUMPDEST PUSH2 0x1AC2 DUP2 PUSH2 0x15C6 JUMP JUMPDEST DUP2 EQ PUSH2 0x1ACD JUMPI PUSH1 0x0 DUP1 REVERT JUMPDEST POP JUMP JUMPDEST PUSH2 0x1AD9 DUP2 PUSH2 0x15F8 JUMP JUMPDEST DUP2 EQ PUSH2 0x1AE4 JUMPI PUSH1 0x0 DUP1 REVERT JUMPDEST POP JUMP INVALID LOG2 PUSH5 0x6970667358 0x22 SLT KECCAK256 PUSH28 0x13121D8D22598E747EB8AB742C0C495885B25D12C40274DDFF6EA44 XOR 0xDF DUP6 PUSH5 0x736F6C6343 STOP ADDMOD SMOD STOP CALLER "
				},
				"gasEstimates": {
					"creation": {
						"codeDepositCost": "1388200",
						"executionCost": "infinite",
						"totalCost": "infinite"
					},
					"external": {
						"balance()": "2451",
						"cancel_withdraw()": "infinite",
						"cancel_withdraw_by_counterparty()": "infinite",
						"changePlatformAccount(address)": "26936",
						"collaboratorSign()": "infinite",
						"process_withdraw(uint256,address)": "infinite",
						"withdraw_count()": "2495",
						"withdraw_fee_rate()": "2496",
						"withdraw_free_count()": "2517"
					},
					"internal": {
						"address_array_in(address[] memory,address)": "infinite",
						"already_signed()": "infinite",
						"do_cancel_withdraw()": "infinite",
						"do_pay_service_fee(uint256)": "infinite",
						"do_withdraw()": "infinite",
						"is_oneof_collaborators()": "infinite",
						"no_duplicated_collaborators()": "infinite",
						"signedCountEnough()": "infinite"
					}
				},
				"methodIdentifiers": {
					"balance()": "b69ef8a8",
					"cancel_withdraw()": "b517e0b4",
					"cancel_withdraw_by_counterparty()": "1535430b",
					"changePlatformAccount(address)": "bc44e739",
					"collaboratorSign()": "352ce050",
					"process_withdraw(uint256,address)": "003bdf3e",
					"withdraw_count()": "ca3ea43f",
					"withdraw_fee_rate()": "3a0a197b",
					"withdraw_free_count()": "cfa4a5f6"
				}
			},
			"storageLayout": {
				"storage": [
					{
						"astId": 5,
						"contract": "contracts/MultisigWallet.sol:MultisigWallet",
						"label": "balance",
						"offset": 0,
						"slot": "0",
						"type": "t_uint256"
					},
					{
						"astId": 8,
						"contract": "contracts/MultisigWallet.sol:MultisigWallet",
						"label": "owner",
						"offset": 0,
						"slot": "1",
						"type": "t_address"
					},
					{
						"astId": 12,
						"contract": "contracts/MultisigWallet.sol:MultisigWallet",
						"label": "collaborators",
						"offset": 0,
						"slot": "2",
						"type": "t_array(t_address)dyn_storage"
					},
					{
						"astId": 15,
						"contract": "contracts/MultisigWallet.sol:MultisigWallet",
						"label": "at_least_sign_count",
						"offset": 0,
						"slot": "3",
						"type": "t_uint8"
					},
					{
						"astId": 18,
						"contract": "contracts/MultisigWallet.sol:MultisigWallet",
						"label": "waitfor_withdraw_wei",
						"offset": 0,
						"slot": "4",
						"type": "t_uint256"
					},
					{
						"astId": 21,
						"contract": "contracts/MultisigWallet.sol:MultisigWallet",
						"label": "waitfor_withdraw_address",
						"offset": 0,
						"slot": "5",
						"type": "t_address_payable"
					},
					{
						"astId": 24,
						"contract": "contracts/MultisigWallet.sol:MultisigWallet",
						"label": "initiator",
						"offset": 0,
						"slot": "6",
						"type": "t_address"
					},
					{
						"astId": 28,
						"contract": "contracts/MultisigWallet.sol:MultisigWallet",
						"label": "current_signed",
						"offset": 0,
						"slot": "7",
						"type": "t_array(t_address)dyn_storage"
					},
					{
						"astId": 32,
						"contract": "contracts/MultisigWallet.sol:MultisigWallet",
						"label": "current_cancel_counterparty_signed",
						"offset": 0,
						"slot": "8",
						"type": "t_array(t_address)dyn_storage"
					},
					{
						"astId": 35,
						"contract": "contracts/MultisigWallet.sol:MultisigWallet",
						"label": "withdraw_count",
						"offset": 0,
						"slot": "9",
						"type": "t_uint256"
					},
					{
						"astId": 38,
						"contract": "contracts/MultisigWallet.sol:MultisigWallet",
						"label": "withdraw_fee_rate",
						"offset": 0,
						"slot": "10",
						"type": "t_uint256"
					},
					{
						"astId": 41,
						"contract": "contracts/MultisigWallet.sol:MultisigWallet",
						"label": "withdraw_free_count",
						"offset": 0,
						"slot": "11",
						"type": "t_uint256"
					},
					{
						"astId": 43,
						"contract": "contracts/MultisigWallet.sol:MultisigWallet",
						"label": "platform_account",
						"offset": 0,
						"slot": "12",
						"type": "t_address_payable"
					}
				],
				"types": {
					"t_address": {
						"encoding": "inplace",
						"label": "address",
						"numberOfBytes": "20"
					},
					"t_address_payable": {
						"encoding": "inplace",
						"label": "address payable",
						"numberOfBytes": "20"
					},
					"t_array(t_address)dyn_storage": {
						"base": "t_address",
						"encoding": "dynamic_array",
						"label": "address[]",
						"numberOfBytes": "32"
					},
					"t_uint256": {
						"encoding": "inplace",
						"label": "uint256",
						"numberOfBytes": "32"
					},
					"t_uint8": {
						"encoding": "inplace",
						"label": "uint8",
						"numberOfBytes": "1"
					}
				}
			},
			"userdoc": {
				"events": {
					"Deposit(address,uint256)": {
						"notice": "事件定义"
					}
				},
				"kind": "user",
				"methods": {
					"balance()": {
						"notice": "当前余额，单位是wei"
					},
					"cancel_withdraw()": {
						"notice": "发起方才能直接取消提款"
					},
					"cancel_withdraw_by_counterparty()": {
						"notice": "增加一个另外全方，协作罢免发起方的提款请求 这是在发起方帐户丢失时才需要干的事情，防止合同废掉了，卡死在这里 发起方会先签名一次，如果金额有误且非常重大但刚好帐户丢失，直接让另外一方签署 容易导致大额损失，所以通过取消的操作来进行。"
					},
					"collaboratorSign()": {
						"notice": "协作方签名，只要进来这个函数，就是说明前面的以太坊认证已经通过，收集地址即可。 当最后一个签名方满足多签需求的时候，直接发起转账提款"
					},
					"withdraw_count()": {
						"notice": "记录转账多少次，可以设置一些条款，例如前10次免费，之后按xx比例收取手续费。 手续费打入xx帐户。"
					},
					"withdraw_fee_rate()": {
						"notice": "转账费率，单位是万分之一"
					},
					"withdraw_free_count()": {
						"notice": "前N次免费"
					}
				},
				"notice": "多签名钱包简单实现。",
				"version": 1
			}
		}
	}
}