{
	"data": {
		"bytecode": {
			"linkReferences": {},
			"object": "60806040523480156200001157600080fd5b5060405162002694380380620026948339818101604052810190620000379190620004e7565b336000806101000a81548173ffffffffffffffffffffffffffffffffffffffff021916908373ffffffffffffffffffffffffffffffffffffffff1602179055506000825111620000be576040517f08c379a0000000000000000000000000000000000000000000000000000000008152600401620000b590620005c2565b60405180910390fd5b620000ce6200020b60201b60201c565b62000110576040517f08c379a00000000000000000000000000000000000000000000000000000000081526004016200010790620005e4565b60405180910390fd5b60008160ff1611801562000128575081518160ff1611155b6200016a576040517f08c379a0000000000000000000000000000000000000000000000000000000008152600401620001619062000606565b60405180910390fd5b8160019080519060200190620001829291906200035d565b5080600260006101000a81548160ff021916908360ff16021790555073dd870fa1b7c4700f2bd7f44238821c26f7392148600b60006101000a81548173ffffffffffffffffffffffffffffffffffffffff021916908373ffffffffffffffffffffffffffffffffffffffff16021790555060146009819055506005600a819055505050620009f1565b6000806000905060005b600180549050811015620003545760018080549050620002369190620006ee565b811415620002445762000354565b600060018262000255919062000691565b90505b6001805490508110156200033d57600181815481106200027d576200027c62000827565b5b9060005260206000200160009054906101000a900473ffffffffffffffffffffffffffffffffffffffff1673ffffffffffffffffffffffffffffffffffffffff1660018381548110620002d557620002d462000827565b5b9060005260206000200160009054906101000a900473ffffffffffffffffffffffffffffffffffffffff1673ffffffffffffffffffffffffffffffffffffffff1614156200032757600192506200033d565b80806200033490620007aa565b91505062000258565b5080806200034b90620007aa565b91505062000215565b50801591505090565b828054828255906000526020600020908101928215620003d9579160200282015b82811115620003d85782518260006101000a81548173ffffffffffffffffffffffffffffffffffffffff021916908373ffffffffffffffffffffffffffffffffffffffff160217905550916020019190600101906200037e565b5b509050620003e89190620003ec565b5090565b5b8082111562000407576000816000905550600101620003ed565b5090565b6000620004226200041c8462000651565b62000628565b905080838252602082019050828560208602820111156200044857620004476200088a565b5b60005b858110156200047c578162000461888262000486565b8452602084019350602083019250506001810190506200044b565b5050509392505050565b6000815190506200049781620009bd565b92915050565b600082601f830112620004b557620004b462000885565b5b8151620004c78482602086016200040b565b91505092915050565b600081519050620004e181620009d7565b92915050565b6000806040838503121562000501576200050062000894565b5b600083015167ffffffffffffffff8111156200052257620005216200088f565b5b62000530858286016200049d565b92505060206200054385828601620004d0565b9150509250929050565b60006200055c60248362000680565b91506200056982620008aa565b604082019050919050565b60006200058360278362000680565b91506200059082620008f9565b604082019050919050565b6000620005aa60508362000680565b9150620005b78262000948565b606082019050919050565b60006020820190508181036000830152620005dd816200054d565b9050919050565b60006020820190508181036000830152620005ff8162000574565b9050919050565b6000602082019050818103600083015262000621816200059b565b9050919050565b60006200063462000647565b905062000642828262000774565b919050565b6000604051905090565b600067ffffffffffffffff8211156200066f576200066e62000856565b5b602082029050602081019050919050565b600082825260208201905092915050565b60006200069e826200075d565b9150620006ab836200075d565b9250827fffffffffffffffffffffffffffffffffffffffffffffffffffffffffffffffff03821115620006e357620006e2620007f8565b5b828201905092915050565b6000620006fb826200075d565b915062000708836200075d565b9250828210156200071e576200071d620007f8565b5b828203905092915050565b600062000736826200073d565b9050919050565b600073ffffffffffffffffffffffffffffffffffffffff82169050919050565b6000819050919050565b600060ff82169050919050565b6200077f8262000899565b810181811067ffffffffffffffff82111715620007a157620007a062000856565b5b80604052505050565b6000620007b7826200075d565b91507fffffffffffffffffffffffffffffffffffffffffffffffffffffffffffffffff821415620007ed57620007ec620007f8565b5b600182019050919050565b7f4e487b7100000000000000000000000000000000000000000000000000000000600052601160045260246000fd5b7f4e487b7100000000000000000000000000000000000000000000000000000000600052603260045260246000fd5b7f4e487b7100000000000000000000000000000000000000000000000000000000600052604160045260246000fd5b600080fd5b600080fd5b600080fd5b600080fd5b6000601f19601f8301169050919050565b7f616c6c20636f6c6c61626f7261746f727320636f756e74206174206c6561737460008201527f206f6e6500000000000000000000000000000000000000000000000000000000602082015250565b7f74686520636f6c6c61626f7261746f7273206d757374206e6f2062652064757060008201527f6c69636174656400000000000000000000000000000000000000000000000000602082015250565b7f6174206c65617374207369676e20636f756e74206d757374206d6f726520746860008201527f616e203020616e64206c657373207468616e206f7220657175616c7320636f6c60208201527f6c61626f7261746f727320636f756e7400000000000000000000000000000000604082015250565b620009c88162000729565b8114620009d457600080fd5b50565b620009e28162000767565b8114620009ee57600080fd5b50565b611c938062000a016000396000f3fe6080604052600436106100895760003560e01c80633a0a197b116100595780633a0a197b1461019e578063b517e0b4146101c9578063bc44e739146101e0578063ca3ea43f14610209578063cfa4a5f61461023457610117565b80623bdf3e1461011c57806312065fe0146101455780631535430b14610170578063352ce0501461018757610117565b3661011757600034116100d1576040517f08c379a00000000000000000000000000000000000000000000000000000000081526004016100c8906114bf565b60405180910390fd5b343373ffffffffffffffffffffffffffffffffffffffff167fe1fffcc4923d04b559f4d29a8bfc6cda04eb5b0d3c460751c2402c5c5cc9109c60405160405180910390a3005b600080fd5b34801561012857600080fd5b50610143600480360381019061013e91906112cc565b61025f565b005b34801561015157600080fd5b5061015a610511565b604051610167919061163f565b60405180910390f35b34801561017c57600080fd5b50610185610519565b005b34801561019357600080fd5b5061019c610876565b005b3480156101aa57600080fd5b506101b36109c5565b6040516101c0919061163f565b60405180910390f35b3480156101d557600080fd5b506101de6109cb565b005b3480156101ec57600080fd5b506102076004803603810190610202919061129f565b610b11565b005b34801561021557600080fd5b5061021e610be5565b60405161022b919061163f565b60405180910390f35b34801561024057600080fd5b50610249610beb565b604051610256919061163f565b60405180910390f35b610267610bf1565b6102a6576040517f08c379a000000000000000000000000000000000000000000000000000000000815260040161029d906115df565b60405180910390fd5b6000600354146102eb576040517f08c379a00000000000000000000000000000000000000000000000000000000081526004016102e2906115bf565b60405180910390fd5b6102f3610511565b821115610335576040517f08c379a000000000000000000000000000000000000000000000000000000000815260040161032c9061161f565b60405180910390fd5b600073ffffffffffffffffffffffffffffffffffffffff168173ffffffffffffffffffffffffffffffffffffffff1614156103a5576040517f08c379a000000000000000000000000000000000000000000000000000000000815260040161039c9061153f565b60405180910390fd5b33600560006101000a81548173ffffffffffffffffffffffffffffffffffffffff021916908373ffffffffffffffffffffffffffffffffffffffff1602179055508160038190555080600460006101000a81548173ffffffffffffffffffffffffffffffffffffffff021916908373ffffffffffffffffffffffffffffffffffffffff1602179055506006339080600181540180825580915050600190039060005260206000200160009091909190916101000a81548173ffffffffffffffffffffffffffffffffffffffff021916908373ffffffffffffffffffffffffffffffffffffffff16021790555081600560009054906101000a900473ffffffffffffffffffffffffffffffffffffffff1673ffffffffffffffffffffffffffffffffffffffff167f01b5cfde4f816bb2ea1f47ebb11ff737e423a4556e329e913743a9ad524e58e560405160405180910390a36104ff610c88565b1561050d5761050c610e14565b5b5050565b600047905090565b610521610bf1565b610560576040517f08c379a0000000000000000000000000000000000000000000000000000000008152600401610557906115df565b60405180910390fd5b600560009054906101000a900473ffffffffffffffffffffffffffffffffffffffff1673ffffffffffffffffffffffffffffffffffffffff163373ffffffffffffffffffffffffffffffffffffffff1614156105f1576040517f08c379a00000000000000000000000000000000000000000000000000000000081526004016105e8906114ff565b60405180910390fd5b610681600780548060200260200160405190810160405280929190818152602001828054801561067657602002820191906000526020600020905b8160009054906101000a900473ffffffffffffffffffffffffffffffffffffffff1673ffffffffffffffffffffffffffffffffffffffff168152602001906001019080831161062c575b505050505033610f89565b156106c1576040517f08c379a00000000000000000000000000000000000000000000000000000000081526004016106b89061151f565b60405180910390fd5b600060035411610706576040517f08c379a00000000000000000000000000000000000000000000000000000000081526004016106fd906114df565b60405180910390fd5b6007339080600181540180825580915050600190039060005260206000200160009091909190916101000a81548173ffffffffffffffffffffffffffffffffffffffff021916908373ffffffffffffffffffffffffffffffffffffffff1602179055506000805b60078054905081101561080e57600073ffffffffffffffffffffffffffffffffffffffff16600782815481106107a6576107a5611856565b5b9060005260206000200160009054906101000a900473ffffffffffffffffffffffffffffffffffffffff1673ffffffffffffffffffffffffffffffffffffffff16146107fb5781806107f790611785565b9250505b808061080690611785565b91505061076d565b503373ffffffffffffffffffffffffffffffffffffffff167f33fe377a7c23516384ae9a0a342f124fa3956a85f8438b4d483eb17400228f3760405160405180910390a26001808054905061086391906116f6565b81141561087357610872611011565b5b50565b61087e610bf1565b6108bd576040517f08c379a00000000000000000000000000000000000000000000000000000000081526004016108b4906115df565b60405180910390fd5b600060035411610902576040517f08c379a00000000000000000000000000000000000000000000000000000000081526004016108f99061157f565b60405180910390fd5b61090a6110ff565b1561094a576040517f08c379a00000000000000000000000000000000000000000000000000000000081526004016109419061159f565b60405180910390fd5b6006339080600181540180825580915050600190039060005260206000200160009091909190916101000a81548173ffffffffffffffffffffffffffffffffffffffff021916908373ffffffffffffffffffffffffffffffffffffffff1602179055506109b5610c88565b156109c3576109c2610e14565b5b565b60095481565b6109d3610bf1565b610a12576040517f08c379a0000000000000000000000000000000000000000000000000000000008152600401610a09906115df565b60405180910390fd5b600560009054906101000a900473ffffffffffffffffffffffffffffffffffffffff1673ffffffffffffffffffffffffffffffffffffffff163373ffffffffffffffffffffffffffffffffffffffff1614610aa2576040517f08c379a0000000000000000000000000000000000000000000000000000000008152600401610a99906115ff565b60405180910390fd5b600560009054906101000a900473ffffffffffffffffffffffffffffffffffffffff1673ffffffffffffffffffffffffffffffffffffffff167fa67a2fa60466795987a45316ab86ab19936ce45fa62c95b699807909ec14828960405160405180910390a2610b0f611011565b565b600b60009054906101000a900473ffffffffffffffffffffffffffffffffffffffff1673ffffffffffffffffffffffffffffffffffffffff163373ffffffffffffffffffffffffffffffffffffffff1614610ba1576040517f08c379a0000000000000000000000000000000000000000000000000000000008152600401610b989061155f565b60405180910390fd5b80600b60006101000a81548173ffffffffffffffffffffffffffffffffffffffff021916908373ffffffffffffffffffffffffffffffffffffffff16021790555050565b60085481565b600a5481565b6000610c836001805480602002602001604051908101604052809291908181526020018280548015610c7857602002820191906000526020600020905b8160009054906101000a900473ffffffffffffffffffffffffffffffffffffffff1673ffffffffffffffffffffffffffffffffffffffff1681526020019060010190808311610c2e575b505050505033610f89565b905090565b6000806006805480602002602001604051908101604052809291908181526020018280548015610d0d57602002820191906000526020600020905b8160009054906101000a900473ffffffffffffffffffffffffffffffffffffffff1673ffffffffffffffffffffffffffffffffffffffff1681526020019060010190808311610cc3575b505050505090506000805b8251811015610df35760005b600180549050811015610ddf57838281518110610d4457610d43611856565b5b602002602001015173ffffffffffffffffffffffffffffffffffffffff1660018281548110610d7657610d75611856565b5b9060005260206000200160009054906101000a900473ffffffffffffffffffffffffffffffffffffffff1673ffffffffffffffffffffffffffffffffffffffff161415610dcc578280610dc8906117ce565b9350505b8080610dd790611785565b915050610d24565b508080610deb90611785565b915050610d18565b50600260009054906101000a900460ff1660ff168160ff1610159250505090565b600060035490506000600381905550600460009054906101000a900473ffffffffffffffffffffffffffffffffffffffff1673ffffffffffffffffffffffffffffffffffffffff166108fc829081150290604051600060405180830381858888f19350505050158015610e8b573d6000803e3d6000fd5b5060086000815480929190610e9f90611785565b9190505550600460006101000a81549073ffffffffffffffffffffffffffffffffffffffff021916905560066000610ed79190611222565b600560006101000a81549073ffffffffffffffffffffffffffffffffffffffff021916905560076000610f0a9190611222565b80600460009054906101000a900473ffffffffffffffffffffffffffffffffffffffff1673ffffffffffffffffffffffffffffffffffffffff167f884edad9ce6fa2440d8a54cc123490eb96d2768479d49ff9c7366125a942436460405160405180910390a3600a546008541115610f8657610f8581611196565b5b50565b6000806000905060005b8451811015611006578373ffffffffffffffffffffffffffffffffffffffff16858281518110610fc657610fc5611856565b5b602002602001015173ffffffffffffffffffffffffffffffffffffffff161415610ff35760019150611006565b8080610ffe90611785565b915050610f93565b508091505092915050565b600060035490506000600460009054906101000a900473ffffffffffffffffffffffffffffffffffffffff1690506000600381905550600560006101000a81549073ffffffffffffffffffffffffffffffffffffffff0219169055600460006101000a81549073ffffffffffffffffffffffffffffffffffffffff02191690556006600061109f9190611222565b600760006110ad9190611222565b8073ffffffffffffffffffffffffffffffffffffffff167f36ea5cd5608625e789af0282eecdb4eae1cb7c1cf6d0ec3f9a84f35be850260b836040516110f3919061163f565b60405180910390a25050565b6000611191600680548060200260200160405190810160405280929190818152602001828054801561118657602002820191906000526020600020905b8160009054906101000a900473ffffffffffffffffffffffffffffffffffffffff1673ffffffffffffffffffffffffffffffffffffffff168152602001906001019080831161113c575b505050505033610f89565b905090565b6000600954612710836111a9919061166b565b6111b3919061169c565b9050600b60009054906101000a900473ffffffffffffffffffffffffffffffffffffffff1673ffffffffffffffffffffffffffffffffffffffff166108fc829081150290604051600060405180830381858888f1935050505015801561121d573d6000803e3d6000fd5b505050565b50805460008255906000526020600020908101906112409190611243565b50565b5b8082111561125c576000816000905550600101611244565b5090565b60008135905061126f81611c18565b92915050565b60008135905061128481611c2f565b92915050565b60008135905061129981611c46565b92915050565b6000602082840312156112b5576112b4611885565b5b60006112c384828501611260565b91505092915050565b600080604083850312156112e3576112e2611885565b5b60006112f18582860161128a565b925050602061130285828601611275565b9150509250929050565b600061131960588361165a565b91506113248261188a565b606082019050919050565b600061133c602f8361165a565b9150611347826118ff565b604082019050919050565b600061135f603a8361165a565b915061136a8261194e565b604082019050919050565b6000611382602e8361165a565b915061138d8261199d565b604082019050919050565b60006113a560158361165a565b91506113b0826119ec565b602082019050919050565b60006113c8603b8361165a565b91506113d382611a15565b604082019050919050565b60006113eb602c8361165a565b91506113f682611a64565b604082019050919050565b600061140e60388361165a565b915061141982611ab3565b604082019050919050565b6000611431601d8361165a565b915061143c82611b02565b602082019050919050565b600061145460268361165a565b915061145f82611b2b565b604082019050919050565b6000611477602a8361165a565b915061148282611b7a565b604082019050919050565b600061149a602c8361165a565b91506114a582611bc9565b604082019050919050565b6114b98161176e565b82525050565b600060208201905081810360008301526114d88161130c565b9050919050565b600060208201905081810360008301526114f88161132f565b9050919050565b6000602082019050818103600083015261151881611352565b9050919050565b6000602082019050818103600083015261153881611375565b9050919050565b6000602082019050818103600083015261155881611398565b9050919050565b60006020820190508181036000830152611578816113bb565b9050919050565b60006020820190508181036000830152611598816113de565b9050919050565b600060208201905081810360008301526115b881611401565b9050919050565b600060208201905081810360008301526115d881611424565b9050919050565b600060208201905081810360008301526115f881611447565b9050919050565b600060208201905081810360008301526116188161146a565b9050919050565b600060208201905081810360008301526116388161148d565b9050919050565b600060208201905061165460008301846114b0565b92915050565b600082825260208201905092915050565b60006116768261176e565b91506116818361176e565b92508261169157611690611827565b5b828204905092915050565b60006116a78261176e565b91506116b28361176e565b9250817fffffffffffffffffffffffffffffffffffffffffffffffffffffffffffffffff04831182151516156116eb576116ea6117f8565b5b828202905092915050565b60006117018261176e565b915061170c8361176e565b92508282101561171f5761171e6117f8565b5b828203905092915050565b60006117358261174e565b9050919050565b60006117478261174e565b9050919050565b600073ffffffffffffffffffffffffffffffffffffffff82169050919050565b6000819050919050565b600060ff82169050919050565b60006117908261176e565b91507fffffffffffffffffffffffffffffffffffffffffffffffffffffffffffffffff8214156117c3576117c26117f8565b5b600182019050919050565b60006117d982611778565b915060ff8214156117ed576117ec6117f8565b5b600182019050919050565b7f4e487b7100000000000000000000000000000000000000000000000000000000600052601160045260246000fd5b7f4e487b7100000000000000000000000000000000000000000000000000000000600052601260045260246000fd5b7f4e487b7100000000000000000000000000000000000000000000000000000000600052603260045260246000fd5b600080fd5b7f73746f7265206d757374206d6f7265207468616e2030207765692c20696e646560008201527f656420746865206761732066656520646f206e6f74206465637265617365206960208201527f6620796f7520746f70696e2061206c6f772076616c75652e0000000000000000604082015250565b7f74686572652069736e277420616e792077697468647277616c7320776169742060008201527f666f722063616e63656c6174696f6e0000000000000000000000000000000000602082015250565b7f6f6e6c792074686520636f756e746572207061727479206f6620696e6974696160008201527f746f722063616e2063616c6c20746869732066756e6374696f6e000000000000602082015250565b7f796f752068617665207369676e656420666f722063616e63656c6c6174696f6e60008201527f2c20646f6e277420726570656174000000000000000000000000000000000000602082015250565b7f696e76616c696420746172676574416464726573730000000000000000000000600082015250565b7f6f6e6c7920706c6174666f726d206163636f756e7420697473656c662063616e60008201527f206368616e676520697420746f206f74686572206163636f756e740000000000602082015250565b7f7468657265206973206e6f20776974686472617720616374696f6e207761697460008201527f696e6720666f72207369676e0000000000000000000000000000000000000000602082015250565b7f796f752068617665207369676e6564207468697320776974686472617720707260008201527f6f636573732c20706c7a20646f6e2774207265706561742e0000000000000000602082015250565b7f7072652070726f6365737320686173206e6f74206265656e206f766572000000600082015250565b7f6f6e6c7920636f6c6c61626f7261746f7273206861766520746865207065726d60008201527f697373696f6e0000000000000000000000000000000000000000000000000000602082015250565b7f6f6e6c792074686520696e69746961746f722063616e2063616e63656c20746860008201527f69732070726f6365737300000000000000000000000000000000000000000000602082015250565b7f77697468647261772062616c616e636520636f756c64206e6f74206d6f72652060008201527f7468616e2062616c616e63650000000000000000000000000000000000000000602082015250565b611c218161172a565b8114611c2c57600080fd5b50565b611c388161173c565b8114611c4357600080fd5b50565b611c4f8161176e565b8114611c5a57600080fd5b5056fea26469706673582212200576d423d7181a2cac06a46d7df609e3c3ce52e7d42e28c48249b37a6097f1b564736f6c63430008070033",
			"opcodes": "PUSH1 0x80 PUSH1 0x40 MSTORE CALLVALUE DUP1 ISZERO PUSH3 0x11 JUMPI PUSH1 0x0 DUP1 REVERT JUMPDEST POP PUSH1 0x40 MLOAD PUSH3 0x2694 CODESIZE SUB DUP1 PUSH3 0x2694 DUP4 CODECOPY DUP2 DUP2 ADD PUSH1 0x40 MSTORE DUP2 ADD SWAP1 PUSH3 0x37 SWAP2 SWAP1 PUSH3 0x4E7 JUMP JUMPDEST CALLER PUSH1 0x0 DUP1 PUSH2 0x100 EXP DUP2 SLOAD DUP2 PUSH20 0xFFFFFFFFFFFFFFFFFFFFFFFFFFFFFFFFFFFFFFFF MUL NOT AND SWAP1 DUP4 PUSH20 0xFFFFFFFFFFFFFFFFFFFFFFFFFFFFFFFFFFFFFFFF AND MUL OR SWAP1 SSTORE POP PUSH1 0x0 DUP3 MLOAD GT PUSH3 0xBE JUMPI PUSH1 0x40 MLOAD PUSH32 0x8C379A000000000000000000000000000000000000000000000000000000000 DUP2 MSTORE PUSH1 0x4 ADD PUSH3 0xB5 SWAP1 PUSH3 0x5C2 JUMP JUMPDEST PUSH1 0x40 MLOAD DUP1 SWAP2 SUB SWAP1 REVERT JUMPDEST PUSH3 0xCE PUSH3 0x20B PUSH1 0x20 SHL PUSH1 0x20 SHR JUMP JUMPDEST PUSH3 0x110 JUMPI PUSH1 0x40 MLOAD PUSH32 0x8C379A000000000000000000000000000000000000000000000000000000000 DUP2 MSTORE PUSH1 0x4 ADD PUSH3 0x107 SWAP1 PUSH3 0x5E4 JUMP JUMPDEST PUSH1 0x40 MLOAD DUP1 SWAP2 SUB SWAP1 REVERT JUMPDEST PUSH1 0x0 DUP2 PUSH1 0xFF AND GT DUP1 ISZERO PUSH3 0x128 JUMPI POP DUP2 MLOAD DUP2 PUSH1 0xFF AND GT ISZERO JUMPDEST PUSH3 0x16A JUMPI PUSH1 0x40 MLOAD PUSH32 0x8C379A000000000000000000000000000000000000000000000000000000000 DUP2 MSTORE PUSH1 0x4 ADD PUSH3 0x161 SWAP1 PUSH3 0x606 JUMP JUMPDEST PUSH1 0x40 MLOAD DUP1 SWAP2 SUB SWAP1 REVERT JUMPDEST DUP2 PUSH1 0x1 SWAP1 DUP1 MLOAD SWAP1 PUSH1 0x20 ADD SWAP1 PUSH3 0x182 SWAP3 SWAP2 SWAP1 PUSH3 0x35D JUMP JUMPDEST POP DUP1 PUSH1 0x2 PUSH1 0x0 PUSH2 0x100 EXP DUP2 SLOAD DUP2 PUSH1 0xFF MUL NOT AND SWAP1 DUP4 PUSH1 0xFF AND MUL OR SWAP1 SSTORE POP PUSH20 0xDD870FA1B7C4700F2BD7F44238821C26F7392148 PUSH1 0xB PUSH1 0x0 PUSH2 0x100 EXP DUP2 SLOAD DUP2 PUSH20 0xFFFFFFFFFFFFFFFFFFFFFFFFFFFFFFFFFFFFFFFF MUL NOT AND SWAP1 DUP4 PUSH20 0xFFFFFFFFFFFFFFFFFFFFFFFFFFFFFFFFFFFFFFFF AND MUL OR SWAP1 SSTORE POP PUSH1 0x14 PUSH1 0x9 DUP2 SWAP1 SSTORE POP PUSH1 0x5 PUSH1 0xA DUP2 SWAP1 SSTORE POP POP POP PUSH3 0x9F1 JUMP JUMPDEST PUSH1 0x0 DUP1 PUSH1 0x0 SWAP1 POP PUSH1 0x0 JUMPDEST PUSH1 0x1 DUP1 SLOAD SWAP1 POP DUP2 LT ISZERO PUSH3 0x354 JUMPI PUSH1 0x1 DUP1 DUP1 SLOAD SWAP1 POP PUSH3 0x236 SWAP2 SWAP1 PUSH3 0x6EE JUMP JUMPDEST DUP2 EQ ISZERO PUSH3 0x244 JUMPI PUSH3 0x354 JUMP JUMPDEST PUSH1 0x0 PUSH1 0x1 DUP3 PUSH3 0x255 SWAP2 SWAP1 PUSH3 0x691 JUMP JUMPDEST SWAP1 POP JUMPDEST PUSH1 0x1 DUP1 SLOAD SWAP1 POP DUP2 LT ISZERO PUSH3 0x33D JUMPI PUSH1 0x1 DUP2 DUP2 SLOAD DUP2 LT PUSH3 0x27D JUMPI PUSH3 0x27C PUSH3 0x827 JUMP JUMPDEST JUMPDEST SWAP1 PUSH1 0x0 MSTORE PUSH1 0x20 PUSH1 0x0 KECCAK256 ADD PUSH1 0x0 SWAP1 SLOAD SWAP1 PUSH2 0x100 EXP SWAP1 DIV PUSH20 0xFFFFFFFFFFFFFFFFFFFFFFFFFFFFFFFFFFFFFFFF AND PUSH20 0xFFFFFFFFFFFFFFFFFFFFFFFFFFFFFFFFFFFFFFFF AND PUSH1 0x1 DUP4 DUP2 SLOAD DUP2 LT PUSH3 0x2D5 JUMPI PUSH3 0x2D4 PUSH3 0x827 JUMP JUMPDEST JUMPDEST SWAP1 PUSH1 0x0 MSTORE PUSH1 0x20 PUSH1 0x0 KECCAK256 ADD PUSH1 0x0 SWAP1 SLOAD SWAP1 PUSH2 0x100 EXP SWAP1 DIV PUSH20 0xFFFFFFFFFFFFFFFFFFFFFFFFFFFFFFFFFFFFFFFF AND PUSH20 0xFFFFFFFFFFFFFFFFFFFFFFFFFFFFFFFFFFFFFFFF AND EQ ISZERO PUSH3 0x327 JUMPI PUSH1 0x1 SWAP3 POP PUSH3 0x33D JUMP JUMPDEST DUP1 DUP1 PUSH3 0x334 SWAP1 PUSH3 0x7AA JUMP JUMPDEST SWAP2 POP POP PUSH3 0x258 JUMP JUMPDEST POP DUP1 DUP1 PUSH3 0x34B SWAP1 PUSH3 0x7AA JUMP JUMPDEST SWAP2 POP POP PUSH3 0x215 JUMP JUMPDEST POP DUP1 ISZERO SWAP2 POP POP SWAP1 JUMP JUMPDEST DUP3 DUP1 SLOAD DUP3 DUP3 SSTORE SWAP1 PUSH1 0x0 MSTORE PUSH1 0x20 PUSH1 0x0 KECCAK256 SWAP1 DUP2 ADD SWAP3 DUP3 ISZERO PUSH3 0x3D9 JUMPI SWAP2 PUSH1 0x20 MUL DUP3 ADD JUMPDEST DUP3 DUP2 GT ISZERO PUSH3 0x3D8 JUMPI DUP3 MLOAD DUP3 PUSH1 0x0 PUSH2 0x100 EXP DUP2 SLOAD DUP2 PUSH20 0xFFFFFFFFFFFFFFFFFFFFFFFFFFFFFFFFFFFFFFFF MUL NOT AND SWAP1 DUP4 PUSH20 0xFFFFFFFFFFFFFFFFFFFFFFFFFFFFFFFFFFFFFFFF AND MUL OR SWAP1 SSTORE POP SWAP2 PUSH1 0x20 ADD SWAP2 SWAP1 PUSH1 0x1 ADD SWAP1 PUSH3 0x37E JUMP JUMPDEST JUMPDEST POP SWAP1 POP PUSH3 0x3E8 SWAP2 SWAP1 PUSH3 0x3EC JUMP JUMPDEST POP SWAP1 JUMP JUMPDEST JUMPDEST DUP1 DUP3 GT ISZERO PUSH3 0x407 JUMPI PUSH1 0x0 DUP2 PUSH1 0x0 SWAP1 SSTORE POP PUSH1 0x1 ADD PUSH3 0x3ED JUMP JUMPDEST POP SWAP1 JUMP JUMPDEST PUSH1 0x0 PUSH3 0x422 PUSH3 0x41C DUP5 PUSH3 0x651 JUMP JUMPDEST PUSH3 0x628 JUMP JUMPDEST SWAP1 POP DUP1 DUP4 DUP3 MSTORE PUSH1 0x20 DUP3 ADD SWAP1 POP DUP3 DUP6 PUSH1 0x20 DUP7 MUL DUP3 ADD GT ISZERO PUSH3 0x448 JUMPI PUSH3 0x447 PUSH3 0x88A JUMP JUMPDEST JUMPDEST PUSH1 0x0 JUMPDEST DUP6 DUP2 LT ISZERO PUSH3 0x47C JUMPI DUP2 PUSH3 0x461 DUP9 DUP3 PUSH3 0x486 JUMP JUMPDEST DUP5 MSTORE PUSH1 0x20 DUP5 ADD SWAP4 POP PUSH1 0x20 DUP4 ADD SWAP3 POP POP PUSH1 0x1 DUP2 ADD SWAP1 POP PUSH3 0x44B JUMP JUMPDEST POP POP POP SWAP4 SWAP3 POP POP POP JUMP JUMPDEST PUSH1 0x0 DUP2 MLOAD SWAP1 POP PUSH3 0x497 DUP2 PUSH3 0x9BD JUMP JUMPDEST SWAP3 SWAP2 POP POP JUMP JUMPDEST PUSH1 0x0 DUP3 PUSH1 0x1F DUP4 ADD SLT PUSH3 0x4B5 JUMPI PUSH3 0x4B4 PUSH3 0x885 JUMP JUMPDEST JUMPDEST DUP2 MLOAD PUSH3 0x4C7 DUP5 DUP3 PUSH1 0x20 DUP7 ADD PUSH3 0x40B JUMP JUMPDEST SWAP2 POP POP SWAP3 SWAP2 POP POP JUMP JUMPDEST PUSH1 0x0 DUP2 MLOAD SWAP1 POP PUSH3 0x4E1 DUP2 PUSH3 0x9D7 JUMP JUMPDEST SWAP3 SWAP2 POP POP JUMP JUMPDEST PUSH1 0x0 DUP1 PUSH1 0x40 DUP4 DUP6 SUB SLT ISZERO PUSH3 0x501 JUMPI PUSH3 0x500 PUSH3 0x894 JUMP JUMPDEST JUMPDEST PUSH1 0x0 DUP4 ADD MLOAD PUSH8 0xFFFFFFFFFFFFFFFF DUP2 GT ISZERO PUSH3 0x522 JUMPI PUSH3 0x521 PUSH3 0x88F JUMP JUMPDEST JUMPDEST PUSH3 0x530 DUP6 DUP3 DUP7 ADD PUSH3 0x49D JUMP JUMPDEST SWAP3 POP POP PUSH1 0x20 PUSH3 0x543 DUP6 DUP3 DUP7 ADD PUSH3 0x4D0 JUMP JUMPDEST SWAP2 POP POP SWAP3 POP SWAP3 SWAP1 POP JUMP JUMPDEST PUSH1 0x0 PUSH3 0x55C PUSH1 0x24 DUP4 PUSH3 0x680 JUMP JUMPDEST SWAP2 POP PUSH3 0x569 DUP3 PUSH3 0x8AA JUMP JUMPDEST PUSH1 0x40 DUP3 ADD SWAP1 POP SWAP2 SWAP1 POP JUMP JUMPDEST PUSH1 0x0 PUSH3 0x583 PUSH1 0x27 DUP4 PUSH3 0x680 JUMP JUMPDEST SWAP2 POP PUSH3 0x590 DUP3 PUSH3 0x8F9 JUMP JUMPDEST PUSH1 0x40 DUP3 ADD SWAP1 POP SWAP2 SWAP1 POP JUMP JUMPDEST PUSH1 0x0 PUSH3 0x5AA PUSH1 0x50 DUP4 PUSH3 0x680 JUMP JUMPDEST SWAP2 POP PUSH3 0x5B7 DUP3 PUSH3 0x948 JUMP JUMPDEST PUSH1 0x60 DUP3 ADD SWAP1 POP SWAP2 SWAP1 POP JUMP JUMPDEST PUSH1 0x0 PUSH1 0x20 DUP3 ADD SWAP1 POP DUP2 DUP2 SUB PUSH1 0x0 DUP4 ADD MSTORE PUSH3 0x5DD DUP2 PUSH3 0x54D JUMP JUMPDEST SWAP1 POP SWAP2 SWAP1 POP JUMP JUMPDEST PUSH1 0x0 PUSH1 0x20 DUP3 ADD SWAP1 POP DUP2 DUP2 SUB PUSH1 0x0 DUP4 ADD MSTORE PUSH3 0x5FF DUP2 PUSH3 0x574 JUMP JUMPDEST SWAP1 POP SWAP2 SWAP1 POP JUMP JUMPDEST PUSH1 0x0 PUSH1 0x20 DUP3 ADD SWAP1 POP DUP2 DUP2 SUB PUSH1 0x0 DUP4 ADD MSTORE PUSH3 0x621 DUP2 PUSH3 0x59B JUMP JUMPDEST SWAP1 POP SWAP2 SWAP1 POP JUMP JUMPDEST PUSH1 0x0 PUSH3 0x634 PUSH3 0x647 JUMP JUMPDEST SWAP1 POP PUSH3 0x642 DUP3 DUP3 PUSH3 0x774 JUMP JUMPDEST SWAP2 SWAP1 POP JUMP JUMPDEST PUSH1 0x0 PUSH1 0x40 MLOAD SWAP1 POP SWAP1 JUMP JUMPDEST PUSH1 0x0 PUSH8 0xFFFFFFFFFFFFFFFF DUP3 GT ISZERO PUSH3 0x66F JUMPI PUSH3 0x66E PUSH3 0x856 JUMP JUMPDEST JUMPDEST PUSH1 0x20 DUP3 MUL SWAP1 POP PUSH1 0x20 DUP2 ADD SWAP1 POP SWAP2 SWAP1 POP JUMP JUMPDEST PUSH1 0x0 DUP3 DUP3 MSTORE PUSH1 0x20 DUP3 ADD SWAP1 POP SWAP3 SWAP2 POP POP JUMP JUMPDEST PUSH1 0x0 PUSH3 0x69E DUP3 PUSH3 0x75D JUMP JUMPDEST SWAP2 POP PUSH3 0x6AB DUP4 PUSH3 0x75D JUMP JUMPDEST SWAP3 POP DUP3 PUSH32 0xFFFFFFFFFFFFFFFFFFFFFFFFFFFFFFFFFFFFFFFFFFFFFFFFFFFFFFFFFFFFFFFF SUB DUP3 GT ISZERO PUSH3 0x6E3 JUMPI PUSH3 0x6E2 PUSH3 0x7F8 JUMP JUMPDEST JUMPDEST DUP3 DUP3 ADD SWAP1 POP SWAP3 SWAP2 POP POP JUMP JUMPDEST PUSH1 0x0 PUSH3 0x6FB DUP3 PUSH3 0x75D JUMP JUMPDEST SWAP2 POP PUSH3 0x708 DUP4 PUSH3 0x75D JUMP JUMPDEST SWAP3 POP DUP3 DUP3 LT ISZERO PUSH3 0x71E JUMPI PUSH3 0x71D PUSH3 0x7F8 JUMP JUMPDEST JUMPDEST DUP3 DUP3 SUB SWAP1 POP SWAP3 SWAP2 POP POP JUMP JUMPDEST PUSH1 0x0 PUSH3 0x736 DUP3 PUSH3 0x73D JUMP JUMPDEST SWAP1 POP SWAP2 SWAP1 POP JUMP JUMPDEST PUSH1 0x0 PUSH20 0xFFFFFFFFFFFFFFFFFFFFFFFFFFFFFFFFFFFFFFFF DUP3 AND SWAP1 POP SWAP2 SWAP1 POP JUMP JUMPDEST PUSH1 0x0 DUP2 SWAP1 POP SWAP2 SWAP1 POP JUMP JUMPDEST PUSH1 0x0 PUSH1 0xFF DUP3 AND SWAP1 POP SWAP2 SWAP1 POP JUMP JUMPDEST PUSH3 0x77F DUP3 PUSH3 0x899 JUMP JUMPDEST DUP2 ADD DUP2 DUP2 LT PUSH8 0xFFFFFFFFFFFFFFFF DUP3 GT OR ISZERO PUSH3 0x7A1 JUMPI PUSH3 0x7A0 PUSH3 0x856 JUMP JUMPDEST JUMPDEST DUP1 PUSH1 0x40 MSTORE POP POP POP JUMP JUMPDEST PUSH1 0x0 PUSH3 0x7B7 DUP3 PUSH3 0x75D JUMP JUMPDEST SWAP2 POP PUSH32 0xFFFFFFFFFFFFFFFFFFFFFFFFFFFFFFFFFFFFFFFFFFFFFFFFFFFFFFFFFFFFFFFF DUP3 EQ ISZERO PUSH3 0x7ED JUMPI PUSH3 0x7EC PUSH3 0x7F8 JUMP JUMPDEST JUMPDEST PUSH1 0x1 DUP3 ADD SWAP1 POP SWAP2 SWAP1 POP JUMP JUMPDEST PUSH32 0x4E487B7100000000000000000000000000000000000000000000000000000000 PUSH1 0x0 MSTORE PUSH1 0x11 PUSH1 0x4 MSTORE PUSH1 0x24 PUSH1 0x0 REVERT JUMPDEST PUSH32 0x4E487B7100000000000000000000000000000000000000000000000000000000 PUSH1 0x0 MSTORE PUSH1 0x32 PUSH1 0x4 MSTORE PUSH1 0x24 PUSH1 0x0 REVERT JUMPDEST PUSH32 0x4E487B7100000000000000000000000000000000000000000000000000000000 PUSH1 0x0 MSTORE PUSH1 0x41 PUSH1 0x4 MSTORE PUSH1 0x24 PUSH1 0x0 REVERT JUMPDEST PUSH1 0x0 DUP1 REVERT JUMPDEST PUSH1 0x0 DUP1 REVERT JUMPDEST PUSH1 0x0 DUP1 REVERT JUMPDEST PUSH1 0x0 DUP1 REVERT JUMPDEST PUSH1 0x0 PUSH1 0x1F NOT PUSH1 0x1F DUP4 ADD AND SWAP1 POP SWAP2 SWAP1 POP JUMP JUMPDEST PUSH32 0x616C6C20636F6C6C61626F7261746F727320636F756E74206174206C65617374 PUSH1 0x0 DUP3 ADD MSTORE PUSH32 0x206F6E6500000000000000000000000000000000000000000000000000000000 PUSH1 0x20 DUP3 ADD MSTORE POP JUMP JUMPDEST PUSH32 0x74686520636F6C6C61626F7261746F7273206D757374206E6F20626520647570 PUSH1 0x0 DUP3 ADD MSTORE PUSH32 0x6C69636174656400000000000000000000000000000000000000000000000000 PUSH1 0x20 DUP3 ADD MSTORE POP JUMP JUMPDEST PUSH32 0x6174206C65617374207369676E20636F756E74206D757374206D6F7265207468 PUSH1 0x0 DUP3 ADD MSTORE PUSH32 0x616E203020616E64206C657373207468616E206F7220657175616C7320636F6C PUSH1 0x20 DUP3 ADD MSTORE PUSH32 0x6C61626F7261746F727320636F756E7400000000000000000000000000000000 PUSH1 0x40 DUP3 ADD MSTORE POP JUMP JUMPDEST PUSH3 0x9C8 DUP2 PUSH3 0x729 JUMP JUMPDEST DUP2 EQ PUSH3 0x9D4 JUMPI PUSH1 0x0 DUP1 REVERT JUMPDEST POP JUMP JUMPDEST PUSH3 0x9E2 DUP2 PUSH3 0x767 JUMP JUMPDEST DUP2 EQ PUSH3 0x9EE JUMPI PUSH1 0x0 DUP1 REVERT JUMPDEST POP JUMP JUMPDEST PUSH2 0x1C93 DUP1 PUSH3 0xA01 PUSH1 0x0 CODECOPY PUSH1 0x0 RETURN INVALID PUSH1 0x80 PUSH1 0x40 MSTORE PUSH1 0x4 CALLDATASIZE LT PUSH2 0x89 JUMPI PUSH1 0x0 CALLDATALOAD PUSH1 0xE0 SHR DUP1 PUSH4 0x3A0A197B GT PUSH2 0x59 JUMPI DUP1 PUSH4 0x3A0A197B EQ PUSH2 0x19E JUMPI DUP1 PUSH4 0xB517E0B4 EQ PUSH2 0x1C9 JUMPI DUP1 PUSH4 0xBC44E739 EQ PUSH2 0x1E0 JUMPI DUP1 PUSH4 0xCA3EA43F EQ PUSH2 0x209 JUMPI DUP1 PUSH4 0xCFA4A5F6 EQ PUSH2 0x234 JUMPI PUSH2 0x117 JUMP JUMPDEST DUP1 PUSH3 0x3BDF3E EQ PUSH2 0x11C JUMPI DUP1 PUSH4 0x12065FE0 EQ PUSH2 0x145 JUMPI DUP1 PUSH4 0x1535430B EQ PUSH2 0x170 JUMPI DUP1 PUSH4 0x352CE050 EQ PUSH2 0x187 JUMPI PUSH2 0x117 JUMP JUMPDEST CALLDATASIZE PUSH2 0x117 JUMPI PUSH1 0x0 CALLVALUE GT PUSH2 0xD1 JUMPI PUSH1 0x40 MLOAD PUSH32 0x8C379A000000000000000000000000000000000000000000000000000000000 DUP2 MSTORE PUSH1 0x4 ADD PUSH2 0xC8 SWAP1 PUSH2 0x14BF JUMP JUMPDEST PUSH1 0x40 MLOAD DUP1 SWAP2 SUB SWAP1 REVERT JUMPDEST CALLVALUE CALLER PUSH20 0xFFFFFFFFFFFFFFFFFFFFFFFFFFFFFFFFFFFFFFFF AND PUSH32 0xE1FFFCC4923D04B559F4D29A8BFC6CDA04EB5B0D3C460751C2402C5C5CC9109C PUSH1 0x40 MLOAD PUSH1 0x40 MLOAD DUP1 SWAP2 SUB SWAP1 LOG3 STOP JUMPDEST PUSH1 0x0 DUP1 REVERT JUMPDEST CALLVALUE DUP1 ISZERO PUSH2 0x128 JUMPI PUSH1 0x0 DUP1 REVERT JUMPDEST POP PUSH2 0x143 PUSH1 0x4 DUP1 CALLDATASIZE SUB DUP2 ADD SWAP1 PUSH2 0x13E SWAP2 SWAP1 PUSH2 0x12CC JUMP JUMPDEST PUSH2 0x25F JUMP JUMPDEST STOP JUMPDEST CALLVALUE DUP1 ISZERO PUSH2 0x151 JUMPI PUSH1 0x0 DUP1 REVERT JUMPDEST POP PUSH2 0x15A PUSH2 0x511 JUMP JUMPDEST PUSH1 0x40 MLOAD PUSH2 0x167 SWAP2 SWAP1 PUSH2 0x163F JUMP JUMPDEST PUSH1 0x40 MLOAD DUP1 SWAP2 SUB SWAP1 RETURN JUMPDEST CALLVALUE DUP1 ISZERO PUSH2 0x17C JUMPI PUSH1 0x0 DUP1 REVERT JUMPDEST POP PUSH2 0x185 PUSH2 0x519 JUMP JUMPDEST STOP JUMPDEST CALLVALUE DUP1 ISZERO PUSH2 0x193 JUMPI PUSH1 0x0 DUP1 REVERT JUMPDEST POP PUSH2 0x19C PUSH2 0x876 JUMP JUMPDEST STOP JUMPDEST CALLVALUE DUP1 ISZERO PUSH2 0x1AA JUMPI PUSH1 0x0 DUP1 REVERT JUMPDEST POP PUSH2 0x1B3 PUSH2 0x9C5 JUMP JUMPDEST PUSH1 0x40 MLOAD PUSH2 0x1C0 SWAP2 SWAP1 PUSH2 0x163F JUMP JUMPDEST PUSH1 0x40 MLOAD DUP1 SWAP2 SUB SWAP1 RETURN JUMPDEST CALLVALUE DUP1 ISZERO PUSH2 0x1D5 JUMPI PUSH1 0x0 DUP1 REVERT JUMPDEST POP PUSH2 0x1DE PUSH2 0x9CB JUMP JUMPDEST STOP JUMPDEST CALLVALUE DUP1 ISZERO PUSH2 0x1EC JUMPI PUSH1 0x0 DUP1 REVERT JUMPDEST POP PUSH2 0x207 PUSH1 0x4 DUP1 CALLDATASIZE SUB DUP2 ADD SWAP1 PUSH2 0x202 SWAP2 SWAP1 PUSH2 0x129F JUMP JUMPDEST PUSH2 0xB11 JUMP JUMPDEST STOP JUMPDEST CALLVALUE DUP1 ISZERO PUSH2 0x215 JUMPI PUSH1 0x0 DUP1 REVERT JUMPDEST POP PUSH2 0x21E PUSH2 0xBE5 JUMP JUMPDEST PUSH1 0x40 MLOAD PUSH2 0x22B SWAP2 SWAP1 PUSH2 0x163F JUMP JUMPDEST PUSH1 0x40 MLOAD DUP1 SWAP2 SUB SWAP1 RETURN JUMPDEST CALLVALUE DUP1 ISZERO PUSH2 0x240 JUMPI PUSH1 0x0 DUP1 REVERT JUMPDEST POP PUSH2 0x249 PUSH2 0xBEB JUMP JUMPDEST PUSH1 0x40 MLOAD PUSH2 0x256 SWAP2 SWAP1 PUSH2 0x163F JUMP JUMPDEST PUSH1 0x40 MLOAD DUP1 SWAP2 SUB SWAP1 RETURN JUMPDEST PUSH2 0x267 PUSH2 0xBF1 JUMP JUMPDEST PUSH2 0x2A6 JUMPI PUSH1 0x40 MLOAD PUSH32 0x8C379A000000000000000000000000000000000000000000000000000000000 DUP2 MSTORE PUSH1 0x4 ADD PUSH2 0x29D SWAP1 PUSH2 0x15DF JUMP JUMPDEST PUSH1 0x40 MLOAD DUP1 SWAP2 SUB SWAP1 REVERT JUMPDEST PUSH1 0x0 PUSH1 0x3 SLOAD EQ PUSH2 0x2EB JUMPI PUSH1 0x40 MLOAD PUSH32 0x8C379A000000000000000000000000000000000000000000000000000000000 DUP2 MSTORE PUSH1 0x4 ADD PUSH2 0x2E2 SWAP1 PUSH2 0x15BF JUMP JUMPDEST PUSH1 0x40 MLOAD DUP1 SWAP2 SUB SWAP1 REVERT JUMPDEST PUSH2 0x2F3 PUSH2 0x511 JUMP JUMPDEST DUP3 GT ISZERO PUSH2 0x335 JUMPI PUSH1 0x40 MLOAD PUSH32 0x8C379A000000000000000000000000000000000000000000000000000000000 DUP2 MSTORE PUSH1 0x4 ADD PUSH2 0x32C SWAP1 PUSH2 0x161F JUMP JUMPDEST PUSH1 0x40 MLOAD DUP1 SWAP2 SUB SWAP1 REVERT JUMPDEST PUSH1 0x0 PUSH20 0xFFFFFFFFFFFFFFFFFFFFFFFFFFFFFFFFFFFFFFFF AND DUP2 PUSH20 0xFFFFFFFFFFFFFFFFFFFFFFFFFFFFFFFFFFFFFFFF AND EQ ISZERO PUSH2 0x3A5 JUMPI PUSH1 0x40 MLOAD PUSH32 0x8C379A000000000000000000000000000000000000000000000000000000000 DUP2 MSTORE PUSH1 0x4 ADD PUSH2 0x39C SWAP1 PUSH2 0x153F JUMP JUMPDEST PUSH1 0x40 MLOAD DUP1 SWAP2 SUB SWAP1 REVERT JUMPDEST CALLER PUSH1 0x5 PUSH1 0x0 PUSH2 0x100 EXP DUP2 SLOAD DUP2 PUSH20 0xFFFFFFFFFFFFFFFFFFFFFFFFFFFFFFFFFFFFFFFF MUL NOT AND SWAP1 DUP4 PUSH20 0xFFFFFFFFFFFFFFFFFFFFFFFFFFFFFFFFFFFFFFFF AND MUL OR SWAP1 SSTORE POP DUP2 PUSH1 0x3 DUP2 SWAP1 SSTORE POP DUP1 PUSH1 0x4 PUSH1 0x0 PUSH2 0x100 EXP DUP2 SLOAD DUP2 PUSH20 0xFFFFFFFFFFFFFFFFFFFFFFFFFFFFFFFFFFFFFFFF MUL NOT AND SWAP1 DUP4 PUSH20 0xFFFFFFFFFFFFFFFFFFFFFFFFFFFFFFFFFFFFFFFF AND MUL OR SWAP1 SSTORE POP PUSH1 0x6 CALLER SWAP1 DUP1 PUSH1 0x1 DUP2 SLOAD ADD DUP1 DUP3 SSTORE DUP1 SWAP2 POP POP PUSH1 0x1 SWAP1 SUB SWAP1 PUSH1 0x0 MSTORE PUSH1 0x20 PUSH1 0x0 KECCAK256 ADD PUSH1 0x0 SWAP1 SWAP2 SWAP1 SWAP2 SWAP1 SWAP2 PUSH2 0x100 EXP DUP2 SLOAD DUP2 PUSH20 0xFFFFFFFFFFFFFFFFFFFFFFFFFFFFFFFFFFFFFFFF MUL NOT AND SWAP1 DUP4 PUSH20 0xFFFFFFFFFFFFFFFFFFFFFFFFFFFFFFFFFFFFFFFF AND MUL OR SWAP1 SSTORE POP DUP2 PUSH1 0x5 PUSH1 0x0 SWAP1 SLOAD SWAP1 PUSH2 0x100 EXP SWAP1 DIV PUSH20 0xFFFFFFFFFFFFFFFFFFFFFFFFFFFFFFFFFFFFFFFF AND PUSH20 0xFFFFFFFFFFFFFFFFFFFFFFFFFFFFFFFFFFFFFFFF AND PUSH32 0x1B5CFDE4F816BB2EA1F47EBB11FF737E423A4556E329E913743A9AD524E58E5 PUSH1 0x40 MLOAD PUSH1 0x40 MLOAD DUP1 SWAP2 SUB SWAP1 LOG3 PUSH2 0x4FF PUSH2 0xC88 JUMP JUMPDEST ISZERO PUSH2 0x50D JUMPI PUSH2 0x50C PUSH2 0xE14 JUMP JUMPDEST JUMPDEST POP POP JUMP JUMPDEST PUSH1 0x0 SELFBALANCE SWAP1 POP SWAP1 JUMP JUMPDEST PUSH2 0x521 PUSH2 0xBF1 JUMP JUMPDEST PUSH2 0x560 JUMPI PUSH1 0x40 MLOAD PUSH32 0x8C379A000000000000000000000000000000000000000000000000000000000 DUP2 MSTORE PUSH1 0x4 ADD PUSH2 0x557 SWAP1 PUSH2 0x15DF JUMP JUMPDEST PUSH1 0x40 MLOAD DUP1 SWAP2 SUB SWAP1 REVERT JUMPDEST PUSH1 0x5 PUSH1 0x0 SWAP1 SLOAD SWAP1 PUSH2 0x100 EXP SWAP1 DIV PUSH20 0xFFFFFFFFFFFFFFFFFFFFFFFFFFFFFFFFFFFFFFFF AND PUSH20 0xFFFFFFFFFFFFFFFFFFFFFFFFFFFFFFFFFFFFFFFF AND CALLER PUSH20 0xFFFFFFFFFFFFFFFFFFFFFFFFFFFFFFFFFFFFFFFF AND EQ ISZERO PUSH2 0x5F1 JUMPI PUSH1 0x40 MLOAD PUSH32 0x8C379A000000000000000000000000000000000000000000000000000000000 DUP2 MSTORE PUSH1 0x4 ADD PUSH2 0x5E8 SWAP1 PUSH2 0x14FF JUMP JUMPDEST PUSH1 0x40 MLOAD DUP1 SWAP2 SUB SWAP1 REVERT JUMPDEST PUSH2 0x681 PUSH1 0x7 DUP1 SLOAD DUP1 PUSH1 0x20 MUL PUSH1 0x20 ADD PUSH1 0x40 MLOAD SWAP1 DUP2 ADD PUSH1 0x40 MSTORE DUP1 SWAP3 SWAP2 SWAP1 DUP2 DUP2 MSTORE PUSH1 0x20 ADD DUP3 DUP1 SLOAD DUP1 ISZERO PUSH2 0x676 JUMPI PUSH1 0x20 MUL DUP3 ADD SWAP2 SWAP1 PUSH1 0x0 MSTORE PUSH1 0x20 PUSH1 0x0 KECCAK256 SWAP1 JUMPDEST DUP2 PUSH1 0x0 SWAP1 SLOAD SWAP1 PUSH2 0x100 EXP SWAP1 DIV PUSH20 0xFFFFFFFFFFFFFFFFFFFFFFFFFFFFFFFFFFFFFFFF AND PUSH20 0xFFFFFFFFFFFFFFFFFFFFFFFFFFFFFFFFFFFFFFFF AND DUP2 MSTORE PUSH1 0x20 ADD SWAP1 PUSH1 0x1 ADD SWAP1 DUP1 DUP4 GT PUSH2 0x62C JUMPI JUMPDEST POP POP POP POP POP CALLER PUSH2 0xF89 JUMP JUMPDEST ISZERO PUSH2 0x6C1 JUMPI PUSH1 0x40 MLOAD PUSH32 0x8C379A000000000000000000000000000000000000000000000000000000000 DUP2 MSTORE PUSH1 0x4 ADD PUSH2 0x6B8 SWAP1 PUSH2 0x151F JUMP JUMPDEST PUSH1 0x40 MLOAD DUP1 SWAP2 SUB SWAP1 REVERT JUMPDEST PUSH1 0x0 PUSH1 0x3 SLOAD GT PUSH2 0x706 JUMPI PUSH1 0x40 MLOAD PUSH32 0x8C379A000000000000000000000000000000000000000000000000000000000 DUP2 MSTORE PUSH1 0x4 ADD PUSH2 0x6FD SWAP1 PUSH2 0x14DF JUMP JUMPDEST PUSH1 0x40 MLOAD DUP1 SWAP2 SUB SWAP1 REVERT JUMPDEST PUSH1 0x7 CALLER SWAP1 DUP1 PUSH1 0x1 DUP2 SLOAD ADD DUP1 DUP3 SSTORE DUP1 SWAP2 POP POP PUSH1 0x1 SWAP1 SUB SWAP1 PUSH1 0x0 MSTORE PUSH1 0x20 PUSH1 0x0 KECCAK256 ADD PUSH1 0x0 SWAP1 SWAP2 SWAP1 SWAP2 SWAP1 SWAP2 PUSH2 0x100 EXP DUP2 SLOAD DUP2 PUSH20 0xFFFFFFFFFFFFFFFFFFFFFFFFFFFFFFFFFFFFFFFF MUL NOT AND SWAP1 DUP4 PUSH20 0xFFFFFFFFFFFFFFFFFFFFFFFFFFFFFFFFFFFFFFFF AND MUL OR SWAP1 SSTORE POP PUSH1 0x0 DUP1 JUMPDEST PUSH1 0x7 DUP1 SLOAD SWAP1 POP DUP2 LT ISZERO PUSH2 0x80E JUMPI PUSH1 0x0 PUSH20 0xFFFFFFFFFFFFFFFFFFFFFFFFFFFFFFFFFFFFFFFF AND PUSH1 0x7 DUP3 DUP2 SLOAD DUP2 LT PUSH2 0x7A6 JUMPI PUSH2 0x7A5 PUSH2 0x1856 JUMP JUMPDEST JUMPDEST SWAP1 PUSH1 0x0 MSTORE PUSH1 0x20 PUSH1 0x0 KECCAK256 ADD PUSH1 0x0 SWAP1 SLOAD SWAP1 PUSH2 0x100 EXP SWAP1 DIV PUSH20 0xFFFFFFFFFFFFFFFFFFFFFFFFFFFFFFFFFFFFFFFF AND PUSH20 0xFFFFFFFFFFFFFFFFFFFFFFFFFFFFFFFFFFFFFFFF AND EQ PUSH2 0x7FB JUMPI DUP2 DUP1 PUSH2 0x7F7 SWAP1 PUSH2 0x1785 JUMP JUMPDEST SWAP3 POP POP JUMPDEST DUP1 DUP1 PUSH2 0x806 SWAP1 PUSH2 0x1785 JUMP JUMPDEST SWAP2 POP POP PUSH2 0x76D JUMP JUMPDEST POP CALLER PUSH20 0xFFFFFFFFFFFFFFFFFFFFFFFFFFFFFFFFFFFFFFFF AND PUSH32 0x33FE377A7C23516384AE9A0A342F124FA3956A85F8438B4D483EB17400228F37 PUSH1 0x40 MLOAD PUSH1 0x40 MLOAD DUP1 SWAP2 SUB SWAP1 LOG2 PUSH1 0x1 DUP1 DUP1 SLOAD SWAP1 POP PUSH2 0x863 SWAP2 SWAP1 PUSH2 0x16F6 JUMP JUMPDEST DUP2 EQ ISZERO PUSH2 0x873 JUMPI PUSH2 0x872 PUSH2 0x1011 JUMP JUMPDEST JUMPDEST POP JUMP JUMPDEST PUSH2 0x87E PUSH2 0xBF1 JUMP JUMPDEST PUSH2 0x8BD JUMPI PUSH1 0x40 MLOAD PUSH32 0x8C379A000000000000000000000000000000000000000000000000000000000 DUP2 MSTORE PUSH1 0x4 ADD PUSH2 0x8B4 SWAP1 PUSH2 0x15DF JUMP JUMPDEST PUSH1 0x40 MLOAD DUP1 SWAP2 SUB SWAP1 REVERT JUMPDEST PUSH1 0x0 PUSH1 0x3 SLOAD GT PUSH2 0x902 JUMPI PUSH1 0x40 MLOAD PUSH32 0x8C379A000000000000000000000000000000000000000000000000000000000 DUP2 MSTORE PUSH1 0x4 ADD PUSH2 0x8F9 SWAP1 PUSH2 0x157F JUMP JUMPDEST PUSH1 0x40 MLOAD DUP1 SWAP2 SUB SWAP1 REVERT JUMPDEST PUSH2 0x90A PUSH2 0x10FF JUMP JUMPDEST ISZERO PUSH2 0x94A JUMPI PUSH1 0x40 MLOAD PUSH32 0x8C379A000000000000000000000000000000000000000000000000000000000 DUP2 MSTORE PUSH1 0x4 ADD PUSH2 0x941 SWAP1 PUSH2 0x159F JUMP JUMPDEST PUSH1 0x40 MLOAD DUP1 SWAP2 SUB SWAP1 REVERT JUMPDEST PUSH1 0x6 CALLER SWAP1 DUP1 PUSH1 0x1 DUP2 SLOAD ADD DUP1 DUP3 SSTORE DUP1 SWAP2 POP POP PUSH1 0x1 SWAP1 SUB SWAP1 PUSH1 0x0 MSTORE PUSH1 0x20 PUSH1 0x0 KECCAK256 ADD PUSH1 0x0 SWAP1 SWAP2 SWAP1 SWAP2 SWAP1 SWAP2 PUSH2 0x100 EXP DUP2 SLOAD DUP2 PUSH20 0xFFFFFFFFFFFFFFFFFFFFFFFFFFFFFFFFFFFFFFFF MUL NOT AND SWAP1 DUP4 PUSH20 0xFFFFFFFFFFFFFFFFFFFFFFFFFFFFFFFFFFFFFFFF AND MUL OR SWAP1 SSTORE POP PUSH2 0x9B5 PUSH2 0xC88 JUMP JUMPDEST ISZERO PUSH2 0x9C3 JUMPI PUSH2 0x9C2 PUSH2 0xE14 JUMP JUMPDEST JUMPDEST JUMP JUMPDEST PUSH1 0x9 SLOAD DUP2 JUMP JUMPDEST PUSH2 0x9D3 PUSH2 0xBF1 JUMP JUMPDEST PUSH2 0xA12 JUMPI PUSH1 0x40 MLOAD PUSH32 0x8C379A000000000000000000000000000000000000000000000000000000000 DUP2 MSTORE PUSH1 0x4 ADD PUSH2 0xA09 SWAP1 PUSH2 0x15DF JUMP JUMPDEST PUSH1 0x40 MLOAD DUP1 SWAP2 SUB SWAP1 REVERT JUMPDEST PUSH1 0x5 PUSH1 0x0 SWAP1 SLOAD SWAP1 PUSH2 0x100 EXP SWAP1 DIV PUSH20 0xFFFFFFFFFFFFFFFFFFFFFFFFFFFFFFFFFFFFFFFF AND PUSH20 0xFFFFFFFFFFFFFFFFFFFFFFFFFFFFFFFFFFFFFFFF AND CALLER PUSH20 0xFFFFFFFFFFFFFFFFFFFFFFFFFFFFFFFFFFFFFFFF AND EQ PUSH2 0xAA2 JUMPI PUSH1 0x40 MLOAD PUSH32 0x8C379A000000000000000000000000000000000000000000000000000000000 DUP2 MSTORE PUSH1 0x4 ADD PUSH2 0xA99 SWAP1 PUSH2 0x15FF JUMP JUMPDEST PUSH1 0x40 MLOAD DUP1 SWAP2 SUB SWAP1 REVERT JUMPDEST PUSH1 0x5 PUSH1 0x0 SWAP1 SLOAD SWAP1 PUSH2 0x100 EXP SWAP1 DIV PUSH20 0xFFFFFFFFFFFFFFFFFFFFFFFFFFFFFFFFFFFFFFFF AND PUSH20 0xFFFFFFFFFFFFFFFFFFFFFFFFFFFFFFFFFFFFFFFF AND PUSH32 0xA67A2FA60466795987A45316AB86AB19936CE45FA62C95B699807909EC148289 PUSH1 0x40 MLOAD PUSH1 0x40 MLOAD DUP1 SWAP2 SUB SWAP1 LOG2 PUSH2 0xB0F PUSH2 0x1011 JUMP JUMPDEST JUMP JUMPDEST PUSH1 0xB PUSH1 0x0 SWAP1 SLOAD SWAP1 PUSH2 0x100 EXP SWAP1 DIV PUSH20 0xFFFFFFFFFFFFFFFFFFFFFFFFFFFFFFFFFFFFFFFF AND PUSH20 0xFFFFFFFFFFFFFFFFFFFFFFFFFFFFFFFFFFFFFFFF AND CALLER PUSH20 0xFFFFFFFFFFFFFFFFFFFFFFFFFFFFFFFFFFFFFFFF AND EQ PUSH2 0xBA1 JUMPI PUSH1 0x40 MLOAD PUSH32 0x8C379A000000000000000000000000000000000000000000000000000000000 DUP2 MSTORE PUSH1 0x4 ADD PUSH2 0xB98 SWAP1 PUSH2 0x155F JUMP JUMPDEST PUSH1 0x40 MLOAD DUP1 SWAP2 SUB SWAP1 REVERT JUMPDEST DUP1 PUSH1 0xB PUSH1 0x0 PUSH2 0x100 EXP DUP2 SLOAD DUP2 PUSH20 0xFFFFFFFFFFFFFFFFFFFFFFFFFFFFFFFFFFFFFFFF MUL NOT AND SWAP1 DUP4 PUSH20 0xFFFFFFFFFFFFFFFFFFFFFFFFFFFFFFFFFFFFFFFF AND MUL OR SWAP1 SSTORE POP POP JUMP JUMPDEST PUSH1 0x8 SLOAD DUP2 JUMP JUMPDEST PUSH1 0xA SLOAD DUP2 JUMP JUMPDEST PUSH1 0x0 PUSH2 0xC83 PUSH1 0x1 DUP1 SLOAD DUP1 PUSH1 0x20 MUL PUSH1 0x20 ADD PUSH1 0x40 MLOAD SWAP1 DUP2 ADD PUSH1 0x40 MSTORE DUP1 SWAP3 SWAP2 SWAP1 DUP2 DUP2 MSTORE PUSH1 0x20 ADD DUP3 DUP1 SLOAD DUP1 ISZERO PUSH2 0xC78 JUMPI PUSH1 0x20 MUL DUP3 ADD SWAP2 SWAP1 PUSH1 0x0 MSTORE PUSH1 0x20 PUSH1 0x0 KECCAK256 SWAP1 JUMPDEST DUP2 PUSH1 0x0 SWAP1 SLOAD SWAP1 PUSH2 0x100 EXP SWAP1 DIV PUSH20 0xFFFFFFFFFFFFFFFFFFFFFFFFFFFFFFFFFFFFFFFF AND PUSH20 0xFFFFFFFFFFFFFFFFFFFFFFFFFFFFFFFFFFFFFFFF AND DUP2 MSTORE PUSH1 0x20 ADD SWAP1 PUSH1 0x1 ADD SWAP1 DUP1 DUP4 GT PUSH2 0xC2E JUMPI JUMPDEST POP POP POP POP POP CALLER PUSH2 0xF89 JUMP JUMPDEST SWAP1 POP SWAP1 JUMP JUMPDEST PUSH1 0x0 DUP1 PUSH1 0x6 DUP1 SLOAD DUP1 PUSH1 0x20 MUL PUSH1 0x20 ADD PUSH1 0x40 MLOAD SWAP1 DUP2 ADD PUSH1 0x40 MSTORE DUP1 SWAP3 SWAP2 SWAP1 DUP2 DUP2 MSTORE PUSH1 0x20 ADD DUP3 DUP1 SLOAD DUP1 ISZERO PUSH2 0xD0D JUMPI PUSH1 0x20 MUL DUP3 ADD SWAP2 SWAP1 PUSH1 0x0 MSTORE PUSH1 0x20 PUSH1 0x0 KECCAK256 SWAP1 JUMPDEST DUP2 PUSH1 0x0 SWAP1 SLOAD SWAP1 PUSH2 0x100 EXP SWAP1 DIV PUSH20 0xFFFFFFFFFFFFFFFFFFFFFFFFFFFFFFFFFFFFFFFF AND PUSH20 0xFFFFFFFFFFFFFFFFFFFFFFFFFFFFFFFFFFFFFFFF AND DUP2 MSTORE PUSH1 0x20 ADD SWAP1 PUSH1 0x1 ADD SWAP1 DUP1 DUP4 GT PUSH2 0xCC3 JUMPI JUMPDEST POP POP POP POP POP SWAP1 POP PUSH1 0x0 DUP1 JUMPDEST DUP3 MLOAD DUP2 LT ISZERO PUSH2 0xDF3 JUMPI PUSH1 0x0 JUMPDEST PUSH1 0x1 DUP1 SLOAD SWAP1 POP DUP2 LT ISZERO PUSH2 0xDDF JUMPI DUP4 DUP3 DUP2 MLOAD DUP2 LT PUSH2 0xD44 JUMPI PUSH2 0xD43 PUSH2 0x1856 JUMP JUMPDEST JUMPDEST PUSH1 0x20 MUL PUSH1 0x20 ADD ADD MLOAD PUSH20 0xFFFFFFFFFFFFFFFFFFFFFFFFFFFFFFFFFFFFFFFF AND PUSH1 0x1 DUP3 DUP2 SLOAD DUP2 LT PUSH2 0xD76 JUMPI PUSH2 0xD75 PUSH2 0x1856 JUMP JUMPDEST JUMPDEST SWAP1 PUSH1 0x0 MSTORE PUSH1 0x20 PUSH1 0x0 KECCAK256 ADD PUSH1 0x0 SWAP1 SLOAD SWAP1 PUSH2 0x100 EXP SWAP1 DIV PUSH20 0xFFFFFFFFFFFFFFFFFFFFFFFFFFFFFFFFFFFFFFFF AND PUSH20 0xFFFFFFFFFFFFFFFFFFFFFFFFFFFFFFFFFFFFFFFF AND EQ ISZERO PUSH2 0xDCC JUMPI DUP3 DUP1 PUSH2 0xDC8 SWAP1 PUSH2 0x17CE JUMP JUMPDEST SWAP4 POP POP JUMPDEST DUP1 DUP1 PUSH2 0xDD7 SWAP1 PUSH2 0x1785 JUMP JUMPDEST SWAP2 POP POP PUSH2 0xD24 JUMP JUMPDEST POP DUP1 DUP1 PUSH2 0xDEB SWAP1 PUSH2 0x1785 JUMP JUMPDEST SWAP2 POP POP PUSH2 0xD18 JUMP JUMPDEST POP PUSH1 0x2 PUSH1 0x0 SWAP1 SLOAD SWAP1 PUSH2 0x100 EXP SWAP1 DIV PUSH1 0xFF AND PUSH1 0xFF AND DUP2 PUSH1 0xFF AND LT ISZERO SWAP3 POP POP POP SWAP1 JUMP JUMPDEST PUSH1 0x0 PUSH1 0x3 SLOAD SWAP1 POP PUSH1 0x0 PUSH1 0x3 DUP2 SWAP1 SSTORE POP PUSH1 0x4 PUSH1 0x0 SWAP1 SLOAD SWAP1 PUSH2 0x100 EXP SWAP1 DIV PUSH20 0xFFFFFFFFFFFFFFFFFFFFFFFFFFFFFFFFFFFFFFFF AND PUSH20 0xFFFFFFFFFFFFFFFFFFFFFFFFFFFFFFFFFFFFFFFF AND PUSH2 0x8FC DUP3 SWAP1 DUP2 ISZERO MUL SWAP1 PUSH1 0x40 MLOAD PUSH1 0x0 PUSH1 0x40 MLOAD DUP1 DUP4 SUB DUP2 DUP6 DUP9 DUP9 CALL SWAP4 POP POP POP POP ISZERO DUP1 ISZERO PUSH2 0xE8B JUMPI RETURNDATASIZE PUSH1 0x0 DUP1 RETURNDATACOPY RETURNDATASIZE PUSH1 0x0 REVERT JUMPDEST POP PUSH1 0x8 PUSH1 0x0 DUP2 SLOAD DUP1 SWAP3 SWAP2 SWAP1 PUSH2 0xE9F SWAP1 PUSH2 0x1785 JUMP JUMPDEST SWAP2 SWAP1 POP SSTORE POP PUSH1 0x4 PUSH1 0x0 PUSH2 0x100 EXP DUP2 SLOAD SWAP1 PUSH20 0xFFFFFFFFFFFFFFFFFFFFFFFFFFFFFFFFFFFFFFFF MUL NOT AND SWAP1 SSTORE PUSH1 0x6 PUSH1 0x0 PUSH2 0xED7 SWAP2 SWAP1 PUSH2 0x1222 JUMP JUMPDEST PUSH1 0x5 PUSH1 0x0 PUSH2 0x100 EXP DUP2 SLOAD SWAP1 PUSH20 0xFFFFFFFFFFFFFFFFFFFFFFFFFFFFFFFFFFFFFFFF MUL NOT AND SWAP1 SSTORE PUSH1 0x7 PUSH1 0x0 PUSH2 0xF0A SWAP2 SWAP1 PUSH2 0x1222 JUMP JUMPDEST DUP1 PUSH1 0x4 PUSH1 0x0 SWAP1 SLOAD SWAP1 PUSH2 0x100 EXP SWAP1 DIV PUSH20 0xFFFFFFFFFFFFFFFFFFFFFFFFFFFFFFFFFFFFFFFF AND PUSH20 0xFFFFFFFFFFFFFFFFFFFFFFFFFFFFFFFFFFFFFFFF AND PUSH32 0x884EDAD9CE6FA2440D8A54CC123490EB96D2768479D49FF9C7366125A9424364 PUSH1 0x40 MLOAD PUSH1 0x40 MLOAD DUP1 SWAP2 SUB SWAP1 LOG3 PUSH1 0xA SLOAD PUSH1 0x8 SLOAD GT ISZERO PUSH2 0xF86 JUMPI PUSH2 0xF85 DUP2 PUSH2 0x1196 JUMP JUMPDEST JUMPDEST POP JUMP JUMPDEST PUSH1 0x0 DUP1 PUSH1 0x0 SWAP1 POP PUSH1 0x0 JUMPDEST DUP5 MLOAD DUP2 LT ISZERO PUSH2 0x1006 JUMPI DUP4 PUSH20 0xFFFFFFFFFFFFFFFFFFFFFFFFFFFFFFFFFFFFFFFF AND DUP6 DUP3 DUP2 MLOAD DUP2 LT PUSH2 0xFC6 JUMPI PUSH2 0xFC5 PUSH2 0x1856 JUMP JUMPDEST JUMPDEST PUSH1 0x20 MUL PUSH1 0x20 ADD ADD MLOAD PUSH20 0xFFFFFFFFFFFFFFFFFFFFFFFFFFFFFFFFFFFFFFFF AND EQ ISZERO PUSH2 0xFF3 JUMPI PUSH1 0x1 SWAP2 POP PUSH2 0x1006 JUMP JUMPDEST DUP1 DUP1 PUSH2 0xFFE SWAP1 PUSH2 0x1785 JUMP JUMPDEST SWAP2 POP POP PUSH2 0xF93 JUMP JUMPDEST POP DUP1 SWAP2 POP POP SWAP3 SWAP2 POP POP JUMP JUMPDEST PUSH1 0x0 PUSH1 0x3 SLOAD SWAP1 POP PUSH1 0x0 PUSH1 0x4 PUSH1 0x0 SWAP1 SLOAD SWAP1 PUSH2 0x100 EXP SWAP1 DIV PUSH20 0xFFFFFFFFFFFFFFFFFFFFFFFFFFFFFFFFFFFFFFFF AND SWAP1 POP PUSH1 0x0 PUSH1 0x3 DUP2 SWAP1 SSTORE POP PUSH1 0x5 PUSH1 0x0 PUSH2 0x100 EXP DUP2 SLOAD SWAP1 PUSH20 0xFFFFFFFFFFFFFFFFFFFFFFFFFFFFFFFFFFFFFFFF MUL NOT AND SWAP1 SSTORE PUSH1 0x4 PUSH1 0x0 PUSH2 0x100 EXP DUP2 SLOAD SWAP1 PUSH20 0xFFFFFFFFFFFFFFFFFFFFFFFFFFFFFFFFFFFFFFFF MUL NOT AND SWAP1 SSTORE PUSH1 0x6 PUSH1 0x0 PUSH2 0x109F SWAP2 SWAP1 PUSH2 0x1222 JUMP JUMPDEST PUSH1 0x7 PUSH1 0x0 PUSH2 0x10AD SWAP2 SWAP1 PUSH2 0x1222 JUMP JUMPDEST DUP1 PUSH20 0xFFFFFFFFFFFFFFFFFFFFFFFFFFFFFFFFFFFFFFFF AND PUSH32 0x36EA5CD5608625E789AF0282EECDB4EAE1CB7C1CF6D0EC3F9A84F35BE850260B DUP4 PUSH1 0x40 MLOAD PUSH2 0x10F3 SWAP2 SWAP1 PUSH2 0x163F JUMP JUMPDEST PUSH1 0x40 MLOAD DUP1 SWAP2 SUB SWAP1 LOG2 POP POP JUMP JUMPDEST PUSH1 0x0 PUSH2 0x1191 PUSH1 0x6 DUP1 SLOAD DUP1 PUSH1 0x20 MUL PUSH1 0x20 ADD PUSH1 0x40 MLOAD SWAP1 DUP2 ADD PUSH1 0x40 MSTORE DUP1 SWAP3 SWAP2 SWAP1 DUP2 DUP2 MSTORE PUSH1 0x20 ADD DUP3 DUP1 SLOAD DUP1 ISZERO PUSH2 0x1186 JUMPI PUSH1 0x20 MUL DUP3 ADD SWAP2 SWAP1 PUSH1 0x0 MSTORE PUSH1 0x20 PUSH1 0x0 KECCAK256 SWAP1 JUMPDEST DUP2 PUSH1 0x0 SWAP1 SLOAD SWAP1 PUSH2 0x100 EXP SWAP1 DIV PUSH20 0xFFFFFFFFFFFFFFFFFFFFFFFFFFFFFFFFFFFFFFFF AND PUSH20 0xFFFFFFFFFFFFFFFFFFFFFFFFFFFFFFFFFFFFFFFF AND DUP2 MSTORE PUSH1 0x20 ADD SWAP1 PUSH1 0x1 ADD SWAP1 DUP1 DUP4 GT PUSH2 0x113C JUMPI JUMPDEST POP POP POP POP POP CALLER PUSH2 0xF89 JUMP JUMPDEST SWAP1 POP SWAP1 JUMP JUMPDEST PUSH1 0x0 PUSH1 0x9 SLOAD PUSH2 0x2710 DUP4 PUSH2 0x11A9 SWAP2 SWAP1 PUSH2 0x166B JUMP JUMPDEST PUSH2 0x11B3 SWAP2 SWAP1 PUSH2 0x169C JUMP JUMPDEST SWAP1 POP PUSH1 0xB PUSH1 0x0 SWAP1 SLOAD SWAP1 PUSH2 0x100 EXP SWAP1 DIV PUSH20 0xFFFFFFFFFFFFFFFFFFFFFFFFFFFFFFFFFFFFFFFF AND PUSH20 0xFFFFFFFFFFFFFFFFFFFFFFFFFFFFFFFFFFFFFFFF AND PUSH2 0x8FC DUP3 SWAP1 DUP2 ISZERO MUL SWAP1 PUSH1 0x40 MLOAD PUSH1 0x0 PUSH1 0x40 MLOAD DUP1 DUP4 SUB DUP2 DUP6 DUP9 DUP9 CALL SWAP4 POP POP POP POP ISZERO DUP1 ISZERO PUSH2 0x121D JUMPI RETURNDATASIZE PUSH1 0x0 DUP1 RETURNDATACOPY RETURNDATASIZE PUSH1 0x0 REVERT JUMPDEST POP POP POP JUMP JUMPDEST POP DUP1 SLOAD PUSH1 0x0 DUP3 SSTORE SWAP1 PUSH1 0x0 MSTORE PUSH1 0x20 PUSH1 0x0 KECCAK256 SWAP1 DUP2 ADD SWAP1 PUSH2 0x1240 SWAP2 SWAP1 PUSH2 0x1243 JUMP JUMPDEST POP JUMP JUMPDEST JUMPDEST DUP1 DUP3 GT ISZERO PUSH2 0x125C JUMPI PUSH1 0x0 DUP2 PUSH1 0x0 SWAP1 SSTORE POP PUSH1 0x1 ADD PUSH2 0x1244 JUMP JUMPDEST POP SWAP1 JUMP JUMPDEST PUSH1 0x0 DUP2 CALLDATALOAD SWAP1 POP PUSH2 0x126F DUP2 PUSH2 0x1C18 JUMP JUMPDEST SWAP3 SWAP2 POP POP JUMP JUMPDEST PUSH1 0x0 DUP2 CALLDATALOAD SWAP1 POP PUSH2 0x1284 DUP2 PUSH2 0x1C2F JUMP JUMPDEST SWAP3 SWAP2 POP POP JUMP JUMPDEST PUSH1 0x0 DUP2 CALLDATALOAD SWAP1 POP PUSH2 0x1299 DUP2 PUSH2 0x1C46 JUMP JUMPDEST SWAP3 SWAP2 POP POP JUMP JUMPDEST PUSH1 0x0 PUSH1 0x20 DUP3 DUP5 SUB SLT ISZERO PUSH2 0x12B5 JUMPI PUSH2 0x12B4 PUSH2 0x1885 JUMP JUMPDEST JUMPDEST PUSH1 0x0 PUSH2 0x12C3 DUP5 DUP3 DUP6 ADD PUSH2 0x1260 JUMP JUMPDEST SWAP2 POP POP SWAP3 SWAP2 POP POP JUMP JUMPDEST PUSH1 0x0 DUP1 PUSH1 0x40 DUP4 DUP6 SUB SLT ISZERO PUSH2 0x12E3 JUMPI PUSH2 0x12E2 PUSH2 0x1885 JUMP JUMPDEST JUMPDEST PUSH1 0x0 PUSH2 0x12F1 DUP6 DUP3 DUP7 ADD PUSH2 0x128A JUMP JUMPDEST SWAP3 POP POP PUSH1 0x20 PUSH2 0x1302 DUP6 DUP3 DUP7 ADD PUSH2 0x1275 JUMP JUMPDEST SWAP2 POP POP SWAP3 POP SWAP3 SWAP1 POP JUMP JUMPDEST PUSH1 0x0 PUSH2 0x1319 PUSH1 0x58 DUP4 PUSH2 0x165A JUMP JUMPDEST SWAP2 POP PUSH2 0x1324 DUP3 PUSH2 0x188A JUMP JUMPDEST PUSH1 0x60 DUP3 ADD SWAP1 POP SWAP2 SWAP1 POP JUMP JUMPDEST PUSH1 0x0 PUSH2 0x133C PUSH1 0x2F DUP4 PUSH2 0x165A JUMP JUMPDEST SWAP2 POP PUSH2 0x1347 DUP3 PUSH2 0x18FF JUMP JUMPDEST PUSH1 0x40 DUP3 ADD SWAP1 POP SWAP2 SWAP1 POP JUMP JUMPDEST PUSH1 0x0 PUSH2 0x135F PUSH1 0x3A DUP4 PUSH2 0x165A JUMP JUMPDEST SWAP2 POP PUSH2 0x136A DUP3 PUSH2 0x194E JUMP JUMPDEST PUSH1 0x40 DUP3 ADD SWAP1 POP SWAP2 SWAP1 POP JUMP JUMPDEST PUSH1 0x0 PUSH2 0x1382 PUSH1 0x2E DUP4 PUSH2 0x165A JUMP JUMPDEST SWAP2 POP PUSH2 0x138D DUP3 PUSH2 0x199D JUMP JUMPDEST PUSH1 0x40 DUP3 ADD SWAP1 POP SWAP2 SWAP1 POP JUMP JUMPDEST PUSH1 0x0 PUSH2 0x13A5 PUSH1 0x15 DUP4 PUSH2 0x165A JUMP JUMPDEST SWAP2 POP PUSH2 0x13B0 DUP3 PUSH2 0x19EC JUMP JUMPDEST PUSH1 0x20 DUP3 ADD SWAP1 POP SWAP2 SWAP1 POP JUMP JUMPDEST PUSH1 0x0 PUSH2 0x13C8 PUSH1 0x3B DUP4 PUSH2 0x165A JUMP JUMPDEST SWAP2 POP PUSH2 0x13D3 DUP3 PUSH2 0x1A15 JUMP JUMPDEST PUSH1 0x40 DUP3 ADD SWAP1 POP SWAP2 SWAP1 POP JUMP JUMPDEST PUSH1 0x0 PUSH2 0x13EB PUSH1 0x2C DUP4 PUSH2 0x165A JUMP JUMPDEST SWAP2 POP PUSH2 0x13F6 DUP3 PUSH2 0x1A64 JUMP JUMPDEST PUSH1 0x40 DUP3 ADD SWAP1 POP SWAP2 SWAP1 POP JUMP JUMPDEST PUSH1 0x0 PUSH2 0x140E PUSH1 0x38 DUP4 PUSH2 0x165A JUMP JUMPDEST SWAP2 POP PUSH2 0x1419 DUP3 PUSH2 0x1AB3 JUMP JUMPDEST PUSH1 0x40 DUP3 ADD SWAP1 POP SWAP2 SWAP1 POP JUMP JUMPDEST PUSH1 0x0 PUSH2 0x1431 PUSH1 0x1D DUP4 PUSH2 0x165A JUMP JUMPDEST SWAP2 POP PUSH2 0x143C DUP3 PUSH2 0x1B02 JUMP JUMPDEST PUSH1 0x20 DUP3 ADD SWAP1 POP SWAP2 SWAP1 POP JUMP JUMPDEST PUSH1 0x0 PUSH2 0x1454 PUSH1 0x26 DUP4 PUSH2 0x165A JUMP JUMPDEST SWAP2 POP PUSH2 0x145F DUP3 PUSH2 0x1B2B JUMP JUMPDEST PUSH1 0x40 DUP3 ADD SWAP1 POP SWAP2 SWAP1 POP JUMP JUMPDEST PUSH1 0x0 PUSH2 0x1477 PUSH1 0x2A DUP4 PUSH2 0x165A JUMP JUMPDEST SWAP2 POP PUSH2 0x1482 DUP3 PUSH2 0x1B7A JUMP JUMPDEST PUSH1 0x40 DUP3 ADD SWAP1 POP SWAP2 SWAP1 POP JUMP JUMPDEST PUSH1 0x0 PUSH2 0x149A PUSH1 0x2C DUP4 PUSH2 0x165A JUMP JUMPDEST SWAP2 POP PUSH2 0x14A5 DUP3 PUSH2 0x1BC9 JUMP JUMPDEST PUSH1 0x40 DUP3 ADD SWAP1 POP SWAP2 SWAP1 POP JUMP JUMPDEST PUSH2 0x14B9 DUP2 PUSH2 0x176E JUMP JUMPDEST DUP3 MSTORE POP POP JUMP JUMPDEST PUSH1 0x0 PUSH1 0x20 DUP3 ADD SWAP1 POP DUP2 DUP2 SUB PUSH1 0x0 DUP4 ADD MSTORE PUSH2 0x14D8 DUP2 PUSH2 0x130C JUMP JUMPDEST SWAP1 POP SWAP2 SWAP1 POP JUMP JUMPDEST PUSH1 0x0 PUSH1 0x20 DUP3 ADD SWAP1 POP DUP2 DUP2 SUB PUSH1 0x0 DUP4 ADD MSTORE PUSH2 0x14F8 DUP2 PUSH2 0x132F JUMP JUMPDEST SWAP1 POP SWAP2 SWAP1 POP JUMP JUMPDEST PUSH1 0x0 PUSH1 0x20 DUP3 ADD SWAP1 POP DUP2 DUP2 SUB PUSH1 0x0 DUP4 ADD MSTORE PUSH2 0x1518 DUP2 PUSH2 0x1352 JUMP JUMPDEST SWAP1 POP SWAP2 SWAP1 POP JUMP JUMPDEST PUSH1 0x0 PUSH1 0x20 DUP3 ADD SWAP1 POP DUP2 DUP2 SUB PUSH1 0x0 DUP4 ADD MSTORE PUSH2 0x1538 DUP2 PUSH2 0x1375 JUMP JUMPDEST SWAP1 POP SWAP2 SWAP1 POP JUMP JUMPDEST PUSH1 0x0 PUSH1 0x20 DUP3 ADD SWAP1 POP DUP2 DUP2 SUB PUSH1 0x0 DUP4 ADD MSTORE PUSH2 0x1558 DUP2 PUSH2 0x1398 JUMP JUMPDEST SWAP1 POP SWAP2 SWAP1 POP JUMP JUMPDEST PUSH1 0x0 PUSH1 0x20 DUP3 ADD SWAP1 POP DUP2 DUP2 SUB PUSH1 0x0 DUP4 ADD MSTORE PUSH2 0x1578 DUP2 PUSH2 0x13BB JUMP JUMPDEST SWAP1 POP SWAP2 SWAP1 POP JUMP JUMPDEST PUSH1 0x0 PUSH1 0x20 DUP3 ADD SWAP1 POP DUP2 DUP2 SUB PUSH1 0x0 DUP4 ADD MSTORE PUSH2 0x1598 DUP2 PUSH2 0x13DE JUMP JUMPDEST SWAP1 POP SWAP2 SWAP1 POP JUMP JUMPDEST PUSH1 0x0 PUSH1 0x20 DUP3 ADD SWAP1 POP DUP2 DUP2 SUB PUSH1 0x0 DUP4 ADD MSTORE PUSH2 0x15B8 DUP2 PUSH2 0x1401 JUMP JUMPDEST SWAP1 POP SWAP2 SWAP1 POP JUMP JUMPDEST PUSH1 0x0 PUSH1 0x20 DUP3 ADD SWAP1 POP DUP2 DUP2 SUB PUSH1 0x0 DUP4 ADD MSTORE PUSH2 0x15D8 DUP2 PUSH2 0x1424 JUMP JUMPDEST SWAP1 POP SWAP2 SWAP1 POP JUMP JUMPDEST PUSH1 0x0 PUSH1 0x20 DUP3 ADD SWAP1 POP DUP2 DUP2 SUB PUSH1 0x0 DUP4 ADD MSTORE PUSH2 0x15F8 DUP2 PUSH2 0x1447 JUMP JUMPDEST SWAP1 POP SWAP2 SWAP1 POP JUMP JUMPDEST PUSH1 0x0 PUSH1 0x20 DUP3 ADD SWAP1 POP DUP2 DUP2 SUB PUSH1 0x0 DUP4 ADD MSTORE PUSH2 0x1618 DUP2 PUSH2 0x146A JUMP JUMPDEST SWAP1 POP SWAP2 SWAP1 POP JUMP JUMPDEST PUSH1 0x0 PUSH1 0x20 DUP3 ADD SWAP1 POP DUP2 DUP2 SUB PUSH1 0x0 DUP4 ADD MSTORE PUSH2 0x1638 DUP2 PUSH2 0x148D JUMP JUMPDEST SWAP1 POP SWAP2 SWAP1 POP JUMP JUMPDEST PUSH1 0x0 PUSH1 0x20 DUP3 ADD SWAP1 POP PUSH2 0x1654 PUSH1 0x0 DUP4 ADD DUP5 PUSH2 0x14B0 JUMP JUMPDEST SWAP3 SWAP2 POP POP JUMP JUMPDEST PUSH1 0x0 DUP3 DUP3 MSTORE PUSH1 0x20 DUP3 ADD SWAP1 POP SWAP3 SWAP2 POP POP JUMP JUMPDEST PUSH1 0x0 PUSH2 0x1676 DUP3 PUSH2 0x176E JUMP JUMPDEST SWAP2 POP PUSH2 0x1681 DUP4 PUSH2 0x176E JUMP JUMPDEST SWAP3 POP DUP3 PUSH2 0x1691 JUMPI PUSH2 0x1690 PUSH2 0x1827 JUMP JUMPDEST JUMPDEST DUP3 DUP3 DIV SWAP1 POP SWAP3 SWAP2 POP POP JUMP JUMPDEST PUSH1 0x0 PUSH2 0x16A7 DUP3 PUSH2 0x176E JUMP JUMPDEST SWAP2 POP PUSH2 0x16B2 DUP4 PUSH2 0x176E JUMP JUMPDEST SWAP3 POP DUP2 PUSH32 0xFFFFFFFFFFFFFFFFFFFFFFFFFFFFFFFFFFFFFFFFFFFFFFFFFFFFFFFFFFFFFFFF DIV DUP4 GT DUP3 ISZERO ISZERO AND ISZERO PUSH2 0x16EB JUMPI PUSH2 0x16EA PUSH2 0x17F8 JUMP JUMPDEST JUMPDEST DUP3 DUP3 MUL SWAP1 POP SWAP3 SWAP2 POP POP JUMP JUMPDEST PUSH1 0x0 PUSH2 0x1701 DUP3 PUSH2 0x176E JUMP JUMPDEST SWAP2 POP PUSH2 0x170C DUP4 PUSH2 0x176E JUMP JUMPDEST SWAP3 POP DUP3 DUP3 LT ISZERO PUSH2 0x171F JUMPI PUSH2 0x171E PUSH2 0x17F8 JUMP JUMPDEST JUMPDEST DUP3 DUP3 SUB SWAP1 POP SWAP3 SWAP2 POP POP JUMP JUMPDEST PUSH1 0x0 PUSH2 0x1735 DUP3 PUSH2 0x174E JUMP JUMPDEST SWAP1 POP SWAP2 SWAP1 POP JUMP JUMPDEST PUSH1 0x0 PUSH2 0x1747 DUP3 PUSH2 0x174E JUMP JUMPDEST SWAP1 POP SWAP2 SWAP1 POP JUMP JUMPDEST PUSH1 0x0 PUSH20 0xFFFFFFFFFFFFFFFFFFFFFFFFFFFFFFFFFFFFFFFF DUP3 AND SWAP1 POP SWAP2 SWAP1 POP JUMP JUMPDEST PUSH1 0x0 DUP2 SWAP1 POP SWAP2 SWAP1 POP JUMP JUMPDEST PUSH1 0x0 PUSH1 0xFF DUP3 AND SWAP1 POP SWAP2 SWAP1 POP JUMP JUMPDEST PUSH1 0x0 PUSH2 0x1790 DUP3 PUSH2 0x176E JUMP JUMPDEST SWAP2 POP PUSH32 0xFFFFFFFFFFFFFFFFFFFFFFFFFFFFFFFFFFFFFFFFFFFFFFFFFFFFFFFFFFFFFFFF DUP3 EQ ISZERO PUSH2 0x17C3 JUMPI PUSH2 0x17C2 PUSH2 0x17F8 JUMP JUMPDEST JUMPDEST PUSH1 0x1 DUP3 ADD SWAP1 POP SWAP2 SWAP1 POP JUMP JUMPDEST PUSH1 0x0 PUSH2 0x17D9 DUP3 PUSH2 0x1778 JUMP JUMPDEST SWAP2 POP PUSH1 0xFF DUP3 EQ ISZERO PUSH2 0x17ED JUMPI PUSH2 0x17EC PUSH2 0x17F8 JUMP JUMPDEST JUMPDEST PUSH1 0x1 DUP3 ADD SWAP1 POP SWAP2 SWAP1 POP JUMP JUMPDEST PUSH32 0x4E487B7100000000000000000000000000000000000000000000000000000000 PUSH1 0x0 MSTORE PUSH1 0x11 PUSH1 0x4 MSTORE PUSH1 0x24 PUSH1 0x0 REVERT JUMPDEST PUSH32 0x4E487B7100000000000000000000000000000000000000000000000000000000 PUSH1 0x0 MSTORE PUSH1 0x12 PUSH1 0x4 MSTORE PUSH1 0x24 PUSH1 0x0 REVERT JUMPDEST PUSH32 0x4E487B7100000000000000000000000000000000000000000000000000000000 PUSH1 0x0 MSTORE PUSH1 0x32 PUSH1 0x4 MSTORE PUSH1 0x24 PUSH1 0x0 REVERT JUMPDEST PUSH1 0x0 DUP1 REVERT JUMPDEST PUSH32 0x73746F7265206D757374206D6F7265207468616E2030207765692C20696E6465 PUSH1 0x0 DUP3 ADD MSTORE PUSH32 0x656420746865206761732066656520646F206E6F742064656372656173652069 PUSH1 0x20 DUP3 ADD MSTORE PUSH32 0x6620796F7520746F70696E2061206C6F772076616C75652E0000000000000000 PUSH1 0x40 DUP3 ADD MSTORE POP JUMP JUMPDEST PUSH32 0x74686572652069736E277420616E792077697468647277616C73207761697420 PUSH1 0x0 DUP3 ADD MSTORE PUSH32 0x666F722063616E63656C6174696F6E0000000000000000000000000000000000 PUSH1 0x20 DUP3 ADD MSTORE POP JUMP JUMPDEST PUSH32 0x6F6E6C792074686520636F756E746572207061727479206F6620696E69746961 PUSH1 0x0 DUP3 ADD MSTORE PUSH32 0x746F722063616E2063616C6C20746869732066756E6374696F6E000000000000 PUSH1 0x20 DUP3 ADD MSTORE POP JUMP JUMPDEST PUSH32 0x796F752068617665207369676E656420666F722063616E63656C6C6174696F6E PUSH1 0x0 DUP3 ADD MSTORE PUSH32 0x2C20646F6E277420726570656174000000000000000000000000000000000000 PUSH1 0x20 DUP3 ADD MSTORE POP JUMP JUMPDEST PUSH32 0x696E76616C696420746172676574416464726573730000000000000000000000 PUSH1 0x0 DUP3 ADD MSTORE POP JUMP JUMPDEST PUSH32 0x6F6E6C7920706C6174666F726D206163636F756E7420697473656C662063616E PUSH1 0x0 DUP3 ADD MSTORE PUSH32 0x206368616E676520697420746F206F74686572206163636F756E740000000000 PUSH1 0x20 DUP3 ADD MSTORE POP JUMP JUMPDEST PUSH32 0x7468657265206973206E6F20776974686472617720616374696F6E2077616974 PUSH1 0x0 DUP3 ADD MSTORE PUSH32 0x696E6720666F72207369676E0000000000000000000000000000000000000000 PUSH1 0x20 DUP3 ADD MSTORE POP JUMP JUMPDEST PUSH32 0x796F752068617665207369676E65642074686973207769746864726177207072 PUSH1 0x0 DUP3 ADD MSTORE PUSH32 0x6F636573732C20706C7A20646F6E2774207265706561742E0000000000000000 PUSH1 0x20 DUP3 ADD MSTORE POP JUMP JUMPDEST PUSH32 0x7072652070726F6365737320686173206E6F74206265656E206F766572000000 PUSH1 0x0 DUP3 ADD MSTORE POP JUMP JUMPDEST PUSH32 0x6F6E6C7920636F6C6C61626F7261746F7273206861766520746865207065726D PUSH1 0x0 DUP3 ADD MSTORE PUSH32 0x697373696F6E0000000000000000000000000000000000000000000000000000 PUSH1 0x20 DUP3 ADD MSTORE POP JUMP JUMPDEST PUSH32 0x6F6E6C792074686520696E69746961746F722063616E2063616E63656C207468 PUSH1 0x0 DUP3 ADD MSTORE PUSH32 0x69732070726F6365737300000000000000000000000000000000000000000000 PUSH1 0x20 DUP3 ADD MSTORE POP JUMP JUMPDEST PUSH32 0x77697468647261772062616C616E636520636F756C64206E6F74206D6F726520 PUSH1 0x0 DUP3 ADD MSTORE PUSH32 0x7468616E2062616C616E63650000000000000000000000000000000000000000 PUSH1 0x20 DUP3 ADD MSTORE POP JUMP JUMPDEST PUSH2 0x1C21 DUP2 PUSH2 0x172A JUMP JUMPDEST DUP2 EQ PUSH2 0x1C2C JUMPI PUSH1 0x0 DUP1 REVERT JUMPDEST POP JUMP JUMPDEST PUSH2 0x1C38 DUP2 PUSH2 0x173C JUMP JUMPDEST DUP2 EQ PUSH2 0x1C43 JUMPI PUSH1 0x0 DUP1 REVERT JUMPDEST POP JUMP JUMPDEST PUSH2 0x1C4F DUP2 PUSH2 0x176E JUMP JUMPDEST DUP2 EQ PUSH2 0x1C5A JUMPI PUSH1 0x0 DUP1 REVERT JUMPDEST POP JUMP INVALID LOG2 PUSH5 0x6970667358 0x22 SLT KECCAK256 SDIV PUSH23 0xD423D7181A2CAC06A46D7DF609E3C3CE52E7D42E28C482 0x49 0xB3 PUSH27 0x6097F1B564736F6C63430008070033000000000000000000000000 "
		},
		"gasEstimates": {
			"creation": {
				"codeDepositCost": "1463000",
				"executionCost": "infinite",
				"totalCost": "infinite"
			},
			"external": {
				"cancel_withdraw()": "infinite",
				"cancel_withdraw_by_counterparty()": "infinite",
				"changePlatformAccount(address)": "26936",
				"collaboratorSign()": "infinite",
				"getBalance()": "362",
				"process_withdraw(uint256,address)": "infinite",
				"withdraw_count()": "2495",
				"withdraw_fee_rate()": "2429",
				"withdraw_free_count()": "2517"
			},
			"internal": {
				"address_array_in(address[] memory,address)": "infinite",
				"already_signed()": "infinite",
				"do_cancel_withdraw()": "infinite",
				"do_pay_service_fee(uint256)": "infinite",
				"do_withdraw()": "infinite",
				"is_oneof_collaborators()": "infinite",
				"no_duplicated_collaborators()": "infinite",
				"signedCountEnough()": "infinite"
			}
		},
		"methodIdentifiers": {
			"cancel_withdraw()": "b517e0b4",
			"cancel_withdraw_by_counterparty()": "1535430b",
			"changePlatformAccount(address)": "bc44e739",
			"collaboratorSign()": "352ce050",
			"getBalance()": "12065fe0",
			"process_withdraw(uint256,address)": "003bdf3e",
			"withdraw_count()": "ca3ea43f",
			"withdraw_fee_rate()": "3a0a197b",
			"withdraw_free_count()": "cfa4a5f6"
		}
	},
	"abi": [
		{
			"inputs": [
				{
					"internalType": "address[]",
					"name": "collaborators_",
					"type": "address[]"
				},
				{
					"internalType": "uint8",
					"name": "at_least_sign_count_",
					"type": "uint8"
				}
			],
			"stateMutability": "nonpayable",
			"type": "constructor"
		},
		{
			"anonymous": false,
			"inputs": [
				{
					"indexed": true,
					"internalType": "address",
					"name": "initiator",
					"type": "address"
				}
			],
			"name": "CancelByInitiator",
			"type": "event"
		},
		{
			"anonymous": false,
			"inputs": [
				{
					"indexed": true,
					"internalType": "address",
					"name": "target_address",
					"type": "address"
				},
				{
					"indexed": false,
					"internalType": "uint256",
					"name": "amount",
					"type": "uint256"
				}
			],
			"name": "Cancelled",
			"type": "event"
		},
		{
			"anonymous": false,
			"inputs": [
				{
					"indexed": true,
					"internalType": "address",
					"name": "counter_party",
					"type": "address"
				}
			],
			"name": "CancellingByCounterPartiesSign",
			"type": "event"
		},
		{
			"anonymous": false,
			"inputs": [
				{
					"indexed": true,
					"internalType": "address",
					"name": "collaborator",
					"type": "address"
				}
			],
			"name": "CollaboratorSign",
			"type": "event"
		},
		{
			"anonymous": false,
			"inputs": [
				{
					"indexed": true,
					"internalType": "address",
					"name": "sender",
					"type": "address"
				},
				{
					"indexed": true,
					"internalType": "uint256",
					"name": "amount",
					"type": "uint256"
				}
			],
			"name": "Deposit",
			"type": "event"
		},
		{
			"anonymous": false,
			"inputs": [
				{
					"indexed": true,
					"internalType": "address",
					"name": "initiator",
					"type": "address"
				},
				{
					"indexed": true,
					"internalType": "uint256",
					"name": "amount",
					"type": "uint256"
				}
			],
			"name": "ProcessWithdraw",
			"type": "event"
		},
		{
			"anonymous": false,
			"inputs": [
				{
					"indexed": true,
					"internalType": "address",
					"name": "target_address",
					"type": "address"
				},
				{
					"indexed": true,
					"internalType": "uint256",
					"name": "amount",
					"type": "uint256"
				}
			],
			"name": "Withdraw",
			"type": "event"
		},
		{
			"inputs": [],
			"name": "cancel_withdraw",
			"outputs": [],
			"stateMutability": "nonpayable",
			"type": "function"
		},
		{
			"inputs": [],
			"name": "cancel_withdraw_by_counterparty",
			"outputs": [],
			"stateMutability": "nonpayable",
			"type": "function"
		},
		{
			"inputs": [
				{
					"internalType": "address",
					"name": "newAccount",
					"type": "address"
				}
			],
			"name": "changePlatformAccount",
			"outputs": [],
			"stateMutability": "nonpayable",
			"type": "function"
		},
		{
			"inputs": [],
			"name": "collaboratorSign",
			"outputs": [],
			"stateMutability": "nonpayable",
			"type": "function"
		},
		{
			"inputs": [],
			"name": "getBalance",
			"outputs": [
				{
					"internalType": "uint256",
					"name": "",
					"type": "uint256"
				}
			],
			"stateMutability": "view",
			"type": "function"
		},
		{
			"inputs": [
				{
					"internalType": "uint256",
					"name": "weis",
					"type": "uint256"
				},
				{
					"internalType": "address payable",
					"name": "targetAddress",
					"type": "address"
				}
			],
			"name": "process_withdraw",
			"outputs": [],
			"stateMutability": "nonpayable",
			"type": "function"
		},
		{
			"inputs": [],
			"name": "withdraw_count",
			"outputs": [
				{
					"internalType": "uint256",
					"name": "",
					"type": "uint256"
				}
			],
			"stateMutability": "view",
			"type": "function"
		},
		{
			"inputs": [],
			"name": "withdraw_fee_rate",
			"outputs": [
				{
					"internalType": "uint256",
					"name": "",
					"type": "uint256"
				}
			],
			"stateMutability": "view",
			"type": "function"
		},
		{
			"inputs": [],
			"name": "withdraw_free_count",
			"outputs": [
				{
					"internalType": "uint256",
					"name": "",
					"type": "uint256"
				}
			],
			"stateMutability": "view",
			"type": "function"
		},
		{
			"stateMutability": "payable",
			"type": "receive"
		}
	]
}