{
	"data": {
		"bytecode": {
			"linkReferences": {},
			"object": "60806040523480156200001157600080fd5b506040516200208a3803806200208a833981810160405281019062000037919062000484565b33600160006101000a81548173ffffffffffffffffffffffffffffffffffffffff021916908373ffffffffffffffffffffffffffffffffffffffff1602179055506000825111620000bf576040517f08c379a0000000000000000000000000000000000000000000000000000000008152600401620000b6906200055f565b60405180910390fd5b620000cf620001a760201b60201c565b62000111576040517f08c379a0000000000000000000000000000000000000000000000000000000008152600401620001089062000581565b60405180910390fd5b60008160ff1611801562000129575081518160ff1611155b6200016b576040517f08c379a00000000000000000000000000000000000000000000000000000000081526004016200016290620005a3565b60405180910390fd5b816002908051906020019062000183929190620002fa565b5080600360006101000a81548160ff021916908360ff16021790555050506200098e565b6000806000905060005b600280549050811015620002f1576001600280549050620001d391906200068b565b811415620001e157620002f1565b6000600182620001f291906200062e565b90505b600280549050811015620002da57600281815481106200021a5762000219620007c4565b5b9060005260206000200160009054906101000a900473ffffffffffffffffffffffffffffffffffffffff1673ffffffffffffffffffffffffffffffffffffffff1660028381548110620002725762000271620007c4565b5b9060005260206000200160009054906101000a900473ffffffffffffffffffffffffffffffffffffffff1673ffffffffffffffffffffffffffffffffffffffff161415620002c45760019250620002da565b8080620002d19062000747565b915050620001f5565b508080620002e89062000747565b915050620001b1565b50801591505090565b82805482825590600052602060002090810192821562000376579160200282015b82811115620003755782518260006101000a81548173ffffffffffffffffffffffffffffffffffffffff021916908373ffffffffffffffffffffffffffffffffffffffff160217905550916020019190600101906200031b565b5b50905062000385919062000389565b5090565b5b80821115620003a45760008160009055506001016200038a565b5090565b6000620003bf620003b984620005ee565b620005c5565b90508083825260208201905082856020860282011115620003e557620003e462000827565b5b60005b85811015620004195781620003fe888262000423565b845260208401935060208301925050600181019050620003e8565b5050509392505050565b60008151905062000434816200095a565b92915050565b600082601f83011262000452576200045162000822565b5b815162000464848260208601620003a8565b91505092915050565b6000815190506200047e8162000974565b92915050565b600080604083850312156200049e576200049d62000831565b5b600083015167ffffffffffffffff811115620004bf57620004be6200082c565b5b620004cd858286016200043a565b9250506020620004e0858286016200046d565b9150509250929050565b6000620004f96024836200061d565b9150620005068262000847565b604082019050919050565b6000620005206027836200061d565b91506200052d8262000896565b604082019050919050565b6000620005476050836200061d565b91506200055482620008e5565b606082019050919050565b600060208201905081810360008301526200057a81620004ea565b9050919050565b600060208201905081810360008301526200059c8162000511565b9050919050565b60006020820190508181036000830152620005be8162000538565b9050919050565b6000620005d1620005e4565b9050620005df828262000711565b919050565b6000604051905090565b600067ffffffffffffffff8211156200060c576200060b620007f3565b5b602082029050602081019050919050565b600082825260208201905092915050565b60006200063b82620006fa565b91506200064883620006fa565b9250827fffffffffffffffffffffffffffffffffffffffffffffffffffffffffffffffff0382111562000680576200067f62000795565b5b828201905092915050565b60006200069882620006fa565b9150620006a583620006fa565b925082821015620006bb57620006ba62000795565b5b828203905092915050565b6000620006d382620006da565b9050919050565b600073ffffffffffffffffffffffffffffffffffffffff82169050919050565b6000819050919050565b600060ff82169050919050565b6200071c8262000836565b810181811067ffffffffffffffff821117156200073e576200073d620007f3565b5b80604052505050565b60006200075482620006fa565b91507fffffffffffffffffffffffffffffffffffffffffffffffffffffffffffffffff8214156200078a576200078962000795565b5b600182019050919050565b7f4e487b7100000000000000000000000000000000000000000000000000000000600052601160045260246000fd5b7f4e487b7100000000000000000000000000000000000000000000000000000000600052603260045260246000fd5b7f4e487b7100000000000000000000000000000000000000000000000000000000600052604160045260246000fd5b600080fd5b600080fd5b600080fd5b600080fd5b6000601f19601f8301169050919050565b7f616c6c20636f6c6c61626f7261746f727320636f756e74206174206c6561737460008201527f206f6e6500000000000000000000000000000000000000000000000000000000602082015250565b7f74686520636f6c6c61626f7261746f7273206d757374206e6f2062652064757060008201527f6c69636174656400000000000000000000000000000000000000000000000000602082015250565b7f6174206c65617374207369676e20636f756e74206d757374206d6f726520746860008201527f616e203020616e64206c657373207468616e206f7220657175616c7320636f6c60208201527f6c61626f7261746f727320636f756e7400000000000000000000000000000000604082015250565b6200096581620006c6565b81146200097157600080fd5b50565b6200097f8162000704565b81146200098b57600080fd5b50565b6116ec806200099e6000396000f3fe60806040526004361061006f5760003560e01c806368a1376b1161004e57806368a1376b146100cb578063b517e0b4146100d5578063b69ef8a8146100ec578063ca3ea43f146101175761006f565b80623bdf3e146100745780631535430b1461009d578063352ce050146100b4575b600080fd5b34801561008057600080fd5b5061009b60048036038101906100969190610e44565b610142565b005b3480156100a957600080fd5b506100b2610373565b005b3480156100c057600080fd5b506100c961068e565b005b6100d36108e0565b005b3480156100e157600080fd5b506100ea61093d565b005b3480156100f857600080fd5b50610101610a1e565b60405161010e9190611174565b60405180910390f35b34801561012357600080fd5b5061012c610a24565b6040516101399190611174565b60405180910390f35b61014a610a2a565b610189576040517f08c379a000000000000000000000000000000000000000000000000000000000815260040161018090611114565b60405180910390fd5b6000600454146101ce576040517f08c379a00000000000000000000000000000000000000000000000000000000081526004016101c5906110f4565b60405180910390fd5b600054821115610213576040517f08c379a000000000000000000000000000000000000000000000000000000000815260040161020a90611154565b60405180910390fd5b600073ffffffffffffffffffffffffffffffffffffffff168173ffffffffffffffffffffffffffffffffffffffff161415610283576040517f08c379a000000000000000000000000000000000000000000000000000000000815260040161027a90611074565b60405180910390fd5b33600660006101000a81548173ffffffffffffffffffffffffffffffffffffffff021916908373ffffffffffffffffffffffffffffffffffffffff1602179055508160048190555080600560006101000a81548173ffffffffffffffffffffffffffffffffffffffff021916908373ffffffffffffffffffffffffffffffffffffffff1602179055506007339080600181540180825580915050600190039060005260206000200160009091909190916101000a81548173ffffffffffffffffffffffffffffffffffffffff021916908373ffffffffffffffffffffffffffffffffffffffff1602179055505050565b61037b610a2a565b6103ba576040517f08c379a00000000000000000000000000000000000000000000000000000000081526004016103b190611114565b60405180910390fd5b600660009054906101000a900473ffffffffffffffffffffffffffffffffffffffff1673ffffffffffffffffffffffffffffffffffffffff163373ffffffffffffffffffffffffffffffffffffffff16141561044b576040517f08c379a000000000000000000000000000000000000000000000000000000000815260040161044290611034565b60405180910390fd5b6104db60088054806020026020016040519081016040528092919081815260200182805480156104d057602002820191906000526020600020905b8160009054906101000a900473ffffffffffffffffffffffffffffffffffffffff1673ffffffffffffffffffffffffffffffffffffffff1681526020019060010190808311610486575b505050505033610ac1565b1561051b576040517f08c379a000000000000000000000000000000000000000000000000000000000815260040161051290611054565b60405180910390fd5b600060045411610560576040517f08c379a000000000000000000000000000000000000000000000000000000000815260040161055790611014565b60405180910390fd5b6008339080600181540180825580915050600190039060005260206000200160009091909190916101000a81548173ffffffffffffffffffffffffffffffffffffffff021916908373ffffffffffffffffffffffffffffffffffffffff1602179055506000805b60088054905081101561066857600073ffffffffffffffffffffffffffffffffffffffff1660088281548110610600576105ff611315565b5b9060005260206000200160009054906101000a900473ffffffffffffffffffffffffffffffffffffffff1673ffffffffffffffffffffffffffffffffffffffff161461065557818061065190611273565b9250505b808061066090611273565b9150506105c7565b50600160028054905061067b91906111f6565b81141561068b5761068a610b49565b5b50565b610696610a2a565b6106d5576040517f08c379a00000000000000000000000000000000000000000000000000000000081526004016106cc90611114565b60405180910390fd5b60006004541161071a576040517f08c379a000000000000000000000000000000000000000000000000000000000815260040161071190611094565b60405180910390fd5b610722610bb9565b15610762576040517f08c379a0000000000000000000000000000000000000000000000000000000008152600401610759906110b4565b60405180910390fd5b6007339080600181540180825580915050600190039060005260206000200160009091909190916101000a81548173ffffffffffffffffffffffffffffffffffffffff021916908373ffffffffffffffffffffffffffffffffffffffff1602179055506107cd610c50565b156108de57600060045490506000600481905550600560009054906101000a900473ffffffffffffffffffffffffffffffffffffffff1673ffffffffffffffffffffffffffffffffffffffff166108fc829081150290604051600060405180830381858888f19350505050158015610849573d6000803e3d6000fd5b508060005461085891906111f6565b6000819055506009600081548092919061087190611273565b9190505550600560006101000a81549073ffffffffffffffffffffffffffffffffffffffff0219169055600760006108a99190610ddc565b600660006101000a81549073ffffffffffffffffffffffffffffffffffffffff0219169055600860006108dc9190610ddc565b505b565b60003411610923576040517f08c379a000000000000000000000000000000000000000000000000000000000815260040161091a906110d4565b60405180910390fd5b3460008082825461093491906111a0565b92505081905550565b610945610a2a565b610984576040517f08c379a000000000000000000000000000000000000000000000000000000000815260040161097b90611114565b60405180910390fd5b600660009054906101000a900473ffffffffffffffffffffffffffffffffffffffff1673ffffffffffffffffffffffffffffffffffffffff163373ffffffffffffffffffffffffffffffffffffffff1614610a14576040517f08c379a0000000000000000000000000000000000000000000000000000000008152600401610a0b90611134565b60405180910390fd5b610a1c610b49565b565b60005481565b60095481565b6000610abc6002805480602002602001604051908101604052809291908181526020018280548015610ab157602002820191906000526020600020905b8160009054906101000a900473ffffffffffffffffffffffffffffffffffffffff1673ffffffffffffffffffffffffffffffffffffffff1681526020019060010190808311610a67575b505050505033610ac1565b905090565b6000806000905060005b8451811015610b3e578373ffffffffffffffffffffffffffffffffffffffff16858281518110610afe57610afd611315565b5b602002602001015173ffffffffffffffffffffffffffffffffffffffff161415610b2b5760019150610b3e565b8080610b3690611273565b915050610acb565b508091505092915050565b600660006101000a81549073ffffffffffffffffffffffffffffffffffffffff0219169055600560006101000a81549073ffffffffffffffffffffffffffffffffffffffff0219169055600060048190555060076000610ba99190610ddc565b60086000610bb79190610ddc565b565b6000610c4b6007805480602002602001604051908101604052809291908181526020018280548015610c4057602002820191906000526020600020905b8160009054906101000a900473ffffffffffffffffffffffffffffffffffffffff1673ffffffffffffffffffffffffffffffffffffffff1681526020019060010190808311610bf6575b505050505033610ac1565b905090565b6000806007805480602002602001604051908101604052809291908181526020018280548015610cd557602002820191906000526020600020905b8160009054906101000a900473ffffffffffffffffffffffffffffffffffffffff1673ffffffffffffffffffffffffffffffffffffffff1681526020019060010190808311610c8b575b505050505090506000805b8251811015610dbb5760005b600280549050811015610da757838281518110610d0c57610d0b611315565b5b602002602001015173ffffffffffffffffffffffffffffffffffffffff1660028281548110610d3e57610d3d611315565b5b9060005260206000200160009054906101000a900473ffffffffffffffffffffffffffffffffffffffff1673ffffffffffffffffffffffffffffffffffffffff161415610d94578280610d90906112bc565b9350505b8080610d9f90611273565b915050610cec565b508080610db390611273565b915050610ce0565b50600360009054906101000a900460ff1660ff168160ff1610159250505090565b5080546000825590600052602060002090810190610dfa9190610dfd565b50565b5b80821115610e16576000816000905550600101610dfe565b5090565b600081359050610e2981611688565b92915050565b600081359050610e3e8161169f565b92915050565b60008060408385031215610e5b57610e5a611344565b5b6000610e6985828601610e2f565b9250506020610e7a85828601610e1a565b9150509250929050565b6000610e91602f8361118f565b9150610e9c82611349565b604082019050919050565b6000610eb4603a8361118f565b9150610ebf82611398565b604082019050919050565b6000610ed7602e8361118f565b9150610ee2826113e7565b604082019050919050565b6000610efa60158361118f565b9150610f0582611436565b602082019050919050565b6000610f1d602c8361118f565b9150610f288261145f565b604082019050919050565b6000610f4060388361118f565b9150610f4b826114ae565b604082019050919050565b6000610f6360588361118f565b9150610f6e826114fd565b606082019050919050565b6000610f86601d8361118f565b9150610f9182611572565b602082019050919050565b6000610fa960268361118f565b9150610fb48261159b565b604082019050919050565b6000610fcc602a8361118f565b9150610fd7826115ea565b604082019050919050565b6000610fef602c8361118f565b9150610ffa82611639565b604082019050919050565b61100e8161125c565b82525050565b6000602082019050818103600083015261102d81610e84565b9050919050565b6000602082019050818103600083015261104d81610ea7565b9050919050565b6000602082019050818103600083015261106d81610eca565b9050919050565b6000602082019050818103600083015261108d81610eed565b9050919050565b600060208201905081810360008301526110ad81610f10565b9050919050565b600060208201905081810360008301526110cd81610f33565b9050919050565b600060208201905081810360008301526110ed81610f56565b9050919050565b6000602082019050818103600083015261110d81610f79565b9050919050565b6000602082019050818103600083015261112d81610f9c565b9050919050565b6000602082019050818103600083015261114d81610fbf565b9050919050565b6000602082019050818103600083015261116d81610fe2565b9050919050565b60006020820190506111896000830184611005565b92915050565b600082825260208201905092915050565b60006111ab8261125c565b91506111b68361125c565b9250827fffffffffffffffffffffffffffffffffffffffffffffffffffffffffffffffff038211156111eb576111ea6112e6565b5b828201905092915050565b60006112018261125c565b915061120c8361125c565b92508282101561121f5761121e6112e6565b5b828203905092915050565b60006112358261123c565b9050919050565b600073ffffffffffffffffffffffffffffffffffffffff82169050919050565b6000819050919050565b600060ff82169050919050565b600061127e8261125c565b91507fffffffffffffffffffffffffffffffffffffffffffffffffffffffffffffffff8214156112b1576112b06112e6565b5b600182019050919050565b60006112c782611266565b915060ff8214156112db576112da6112e6565b5b600182019050919050565b7f4e487b7100000000000000000000000000000000000000000000000000000000600052601160045260246000fd5b7f4e487b7100000000000000000000000000000000000000000000000000000000600052603260045260246000fd5b600080fd5b7f74686572652069736e277420616e792077697468647277616c7320776169742060008201527f666f722063616e63656c6174696f6e0000000000000000000000000000000000602082015250565b7f6f6e6c792074686520636f756e746572207061727479206f6620696e6974696160008201527f746f722063616e2063616c6c20746869732066756e6374696f6e000000000000602082015250565b7f796f752068617665207369676e656420666f722063616e63656c6c6174696f6e60008201527f2c20646f6e277420726570656174000000000000000000000000000000000000602082015250565b7f696e76616c696420746172676574416464726573730000000000000000000000600082015250565b7f7468657265206973206e6f20776974686472617720616374696f6e207761697460008201527f696e6720666f72207369676e0000000000000000000000000000000000000000602082015250565b7f796f752068617665207369676e6564207468697320776974686472617720707260008201527f6f636573732c20706c7a20646f6e2774207265706561742e0000000000000000602082015250565b7f544f50494e206d757374206d6f7265207468616e2030207765692c20696e646560008201527f656420746865206761732066656520646f206e6f74206465637265617365206960208201527f6620796f7520746f70696e2061206c6f772076616c75652e0000000000000000604082015250565b7f7072652070726f6365737320686173206e6f74206265656e206f766572000000600082015250565b7f6f6e6c7920636f6c6c61626f7261746f7273206861766520746865207065726d60008201527f697373696f6e0000000000000000000000000000000000000000000000000000602082015250565b7f6f6e6c792074686520696e69746961746f722063616e2063616e63656c20746860008201527f69732070726f6365737300000000000000000000000000000000000000000000602082015250565b7f77697468647261772062616c616e636520636f756c64206e6f74206d6f72652060008201527f7468616e2062616c616e63650000000000000000000000000000000000000000602082015250565b6116918161122a565b811461169c57600080fd5b50565b6116a88161125c565b81146116b357600080fd5b5056fea2646970667358221220573ecaef5caf565b48d5c74b069f64d715525b5313e6758b6051aca5d325a60e64736f6c63430008070033",
			"opcodes": "PUSH1 0x80 PUSH1 0x40 MSTORE CALLVALUE DUP1 ISZERO PUSH3 0x11 JUMPI PUSH1 0x0 DUP1 REVERT JUMPDEST POP PUSH1 0x40 MLOAD PUSH3 0x208A CODESIZE SUB DUP1 PUSH3 0x208A DUP4 CODECOPY DUP2 DUP2 ADD PUSH1 0x40 MSTORE DUP2 ADD SWAP1 PUSH3 0x37 SWAP2 SWAP1 PUSH3 0x484 JUMP JUMPDEST CALLER PUSH1 0x1 PUSH1 0x0 PUSH2 0x100 EXP DUP2 SLOAD DUP2 PUSH20 0xFFFFFFFFFFFFFFFFFFFFFFFFFFFFFFFFFFFFFFFF MUL NOT AND SWAP1 DUP4 PUSH20 0xFFFFFFFFFFFFFFFFFFFFFFFFFFFFFFFFFFFFFFFF AND MUL OR SWAP1 SSTORE POP PUSH1 0x0 DUP3 MLOAD GT PUSH3 0xBF JUMPI PUSH1 0x40 MLOAD PUSH32 0x8C379A000000000000000000000000000000000000000000000000000000000 DUP2 MSTORE PUSH1 0x4 ADD PUSH3 0xB6 SWAP1 PUSH3 0x55F JUMP JUMPDEST PUSH1 0x40 MLOAD DUP1 SWAP2 SUB SWAP1 REVERT JUMPDEST PUSH3 0xCF PUSH3 0x1A7 PUSH1 0x20 SHL PUSH1 0x20 SHR JUMP JUMPDEST PUSH3 0x111 JUMPI PUSH1 0x40 MLOAD PUSH32 0x8C379A000000000000000000000000000000000000000000000000000000000 DUP2 MSTORE PUSH1 0x4 ADD PUSH3 0x108 SWAP1 PUSH3 0x581 JUMP JUMPDEST PUSH1 0x40 MLOAD DUP1 SWAP2 SUB SWAP1 REVERT JUMPDEST PUSH1 0x0 DUP2 PUSH1 0xFF AND GT DUP1 ISZERO PUSH3 0x129 JUMPI POP DUP2 MLOAD DUP2 PUSH1 0xFF AND GT ISZERO JUMPDEST PUSH3 0x16B JUMPI PUSH1 0x40 MLOAD PUSH32 0x8C379A000000000000000000000000000000000000000000000000000000000 DUP2 MSTORE PUSH1 0x4 ADD PUSH3 0x162 SWAP1 PUSH3 0x5A3 JUMP JUMPDEST PUSH1 0x40 MLOAD DUP1 SWAP2 SUB SWAP1 REVERT JUMPDEST DUP2 PUSH1 0x2 SWAP1 DUP1 MLOAD SWAP1 PUSH1 0x20 ADD SWAP1 PUSH3 0x183 SWAP3 SWAP2 SWAP1 PUSH3 0x2FA JUMP JUMPDEST POP DUP1 PUSH1 0x3 PUSH1 0x0 PUSH2 0x100 EXP DUP2 SLOAD DUP2 PUSH1 0xFF MUL NOT AND SWAP1 DUP4 PUSH1 0xFF AND MUL OR SWAP1 SSTORE POP POP POP PUSH3 0x98E JUMP JUMPDEST PUSH1 0x0 DUP1 PUSH1 0x0 SWAP1 POP PUSH1 0x0 JUMPDEST PUSH1 0x2 DUP1 SLOAD SWAP1 POP DUP2 LT ISZERO PUSH3 0x2F1 JUMPI PUSH1 0x1 PUSH1 0x2 DUP1 SLOAD SWAP1 POP PUSH3 0x1D3 SWAP2 SWAP1 PUSH3 0x68B JUMP JUMPDEST DUP2 EQ ISZERO PUSH3 0x1E1 JUMPI PUSH3 0x2F1 JUMP JUMPDEST PUSH1 0x0 PUSH1 0x1 DUP3 PUSH3 0x1F2 SWAP2 SWAP1 PUSH3 0x62E JUMP JUMPDEST SWAP1 POP JUMPDEST PUSH1 0x2 DUP1 SLOAD SWAP1 POP DUP2 LT ISZERO PUSH3 0x2DA JUMPI PUSH1 0x2 DUP2 DUP2 SLOAD DUP2 LT PUSH3 0x21A JUMPI PUSH3 0x219 PUSH3 0x7C4 JUMP JUMPDEST JUMPDEST SWAP1 PUSH1 0x0 MSTORE PUSH1 0x20 PUSH1 0x0 KECCAK256 ADD PUSH1 0x0 SWAP1 SLOAD SWAP1 PUSH2 0x100 EXP SWAP1 DIV PUSH20 0xFFFFFFFFFFFFFFFFFFFFFFFFFFFFFFFFFFFFFFFF AND PUSH20 0xFFFFFFFFFFFFFFFFFFFFFFFFFFFFFFFFFFFFFFFF AND PUSH1 0x2 DUP4 DUP2 SLOAD DUP2 LT PUSH3 0x272 JUMPI PUSH3 0x271 PUSH3 0x7C4 JUMP JUMPDEST JUMPDEST SWAP1 PUSH1 0x0 MSTORE PUSH1 0x20 PUSH1 0x0 KECCAK256 ADD PUSH1 0x0 SWAP1 SLOAD SWAP1 PUSH2 0x100 EXP SWAP1 DIV PUSH20 0xFFFFFFFFFFFFFFFFFFFFFFFFFFFFFFFFFFFFFFFF AND PUSH20 0xFFFFFFFFFFFFFFFFFFFFFFFFFFFFFFFFFFFFFFFF AND EQ ISZERO PUSH3 0x2C4 JUMPI PUSH1 0x1 SWAP3 POP PUSH3 0x2DA JUMP JUMPDEST DUP1 DUP1 PUSH3 0x2D1 SWAP1 PUSH3 0x747 JUMP JUMPDEST SWAP2 POP POP PUSH3 0x1F5 JUMP JUMPDEST POP DUP1 DUP1 PUSH3 0x2E8 SWAP1 PUSH3 0x747 JUMP JUMPDEST SWAP2 POP POP PUSH3 0x1B1 JUMP JUMPDEST POP DUP1 ISZERO SWAP2 POP POP SWAP1 JUMP JUMPDEST DUP3 DUP1 SLOAD DUP3 DUP3 SSTORE SWAP1 PUSH1 0x0 MSTORE PUSH1 0x20 PUSH1 0x0 KECCAK256 SWAP1 DUP2 ADD SWAP3 DUP3 ISZERO PUSH3 0x376 JUMPI SWAP2 PUSH1 0x20 MUL DUP3 ADD JUMPDEST DUP3 DUP2 GT ISZERO PUSH3 0x375 JUMPI DUP3 MLOAD DUP3 PUSH1 0x0 PUSH2 0x100 EXP DUP2 SLOAD DUP2 PUSH20 0xFFFFFFFFFFFFFFFFFFFFFFFFFFFFFFFFFFFFFFFF MUL NOT AND SWAP1 DUP4 PUSH20 0xFFFFFFFFFFFFFFFFFFFFFFFFFFFFFFFFFFFFFFFF AND MUL OR SWAP1 SSTORE POP SWAP2 PUSH1 0x20 ADD SWAP2 SWAP1 PUSH1 0x1 ADD SWAP1 PUSH3 0x31B JUMP JUMPDEST JUMPDEST POP SWAP1 POP PUSH3 0x385 SWAP2 SWAP1 PUSH3 0x389 JUMP JUMPDEST POP SWAP1 JUMP JUMPDEST JUMPDEST DUP1 DUP3 GT ISZERO PUSH3 0x3A4 JUMPI PUSH1 0x0 DUP2 PUSH1 0x0 SWAP1 SSTORE POP PUSH1 0x1 ADD PUSH3 0x38A JUMP JUMPDEST POP SWAP1 JUMP JUMPDEST PUSH1 0x0 PUSH3 0x3BF PUSH3 0x3B9 DUP5 PUSH3 0x5EE JUMP JUMPDEST PUSH3 0x5C5 JUMP JUMPDEST SWAP1 POP DUP1 DUP4 DUP3 MSTORE PUSH1 0x20 DUP3 ADD SWAP1 POP DUP3 DUP6 PUSH1 0x20 DUP7 MUL DUP3 ADD GT ISZERO PUSH3 0x3E5 JUMPI PUSH3 0x3E4 PUSH3 0x827 JUMP JUMPDEST JUMPDEST PUSH1 0x0 JUMPDEST DUP6 DUP2 LT ISZERO PUSH3 0x419 JUMPI DUP2 PUSH3 0x3FE DUP9 DUP3 PUSH3 0x423 JUMP JUMPDEST DUP5 MSTORE PUSH1 0x20 DUP5 ADD SWAP4 POP PUSH1 0x20 DUP4 ADD SWAP3 POP POP PUSH1 0x1 DUP2 ADD SWAP1 POP PUSH3 0x3E8 JUMP JUMPDEST POP POP POP SWAP4 SWAP3 POP POP POP JUMP JUMPDEST PUSH1 0x0 DUP2 MLOAD SWAP1 POP PUSH3 0x434 DUP2 PUSH3 0x95A JUMP JUMPDEST SWAP3 SWAP2 POP POP JUMP JUMPDEST PUSH1 0x0 DUP3 PUSH1 0x1F DUP4 ADD SLT PUSH3 0x452 JUMPI PUSH3 0x451 PUSH3 0x822 JUMP JUMPDEST JUMPDEST DUP2 MLOAD PUSH3 0x464 DUP5 DUP3 PUSH1 0x20 DUP7 ADD PUSH3 0x3A8 JUMP JUMPDEST SWAP2 POP POP SWAP3 SWAP2 POP POP JUMP JUMPDEST PUSH1 0x0 DUP2 MLOAD SWAP1 POP PUSH3 0x47E DUP2 PUSH3 0x974 JUMP JUMPDEST SWAP3 SWAP2 POP POP JUMP JUMPDEST PUSH1 0x0 DUP1 PUSH1 0x40 DUP4 DUP6 SUB SLT ISZERO PUSH3 0x49E JUMPI PUSH3 0x49D PUSH3 0x831 JUMP JUMPDEST JUMPDEST PUSH1 0x0 DUP4 ADD MLOAD PUSH8 0xFFFFFFFFFFFFFFFF DUP2 GT ISZERO PUSH3 0x4BF JUMPI PUSH3 0x4BE PUSH3 0x82C JUMP JUMPDEST JUMPDEST PUSH3 0x4CD DUP6 DUP3 DUP7 ADD PUSH3 0x43A JUMP JUMPDEST SWAP3 POP POP PUSH1 0x20 PUSH3 0x4E0 DUP6 DUP3 DUP7 ADD PUSH3 0x46D JUMP JUMPDEST SWAP2 POP POP SWAP3 POP SWAP3 SWAP1 POP JUMP JUMPDEST PUSH1 0x0 PUSH3 0x4F9 PUSH1 0x24 DUP4 PUSH3 0x61D JUMP JUMPDEST SWAP2 POP PUSH3 0x506 DUP3 PUSH3 0x847 JUMP JUMPDEST PUSH1 0x40 DUP3 ADD SWAP1 POP SWAP2 SWAP1 POP JUMP JUMPDEST PUSH1 0x0 PUSH3 0x520 PUSH1 0x27 DUP4 PUSH3 0x61D JUMP JUMPDEST SWAP2 POP PUSH3 0x52D DUP3 PUSH3 0x896 JUMP JUMPDEST PUSH1 0x40 DUP3 ADD SWAP1 POP SWAP2 SWAP1 POP JUMP JUMPDEST PUSH1 0x0 PUSH3 0x547 PUSH1 0x50 DUP4 PUSH3 0x61D JUMP JUMPDEST SWAP2 POP PUSH3 0x554 DUP3 PUSH3 0x8E5 JUMP JUMPDEST PUSH1 0x60 DUP3 ADD SWAP1 POP SWAP2 SWAP1 POP JUMP JUMPDEST PUSH1 0x0 PUSH1 0x20 DUP3 ADD SWAP1 POP DUP2 DUP2 SUB PUSH1 0x0 DUP4 ADD MSTORE PUSH3 0x57A DUP2 PUSH3 0x4EA JUMP JUMPDEST SWAP1 POP SWAP2 SWAP1 POP JUMP JUMPDEST PUSH1 0x0 PUSH1 0x20 DUP3 ADD SWAP1 POP DUP2 DUP2 SUB PUSH1 0x0 DUP4 ADD MSTORE PUSH3 0x59C DUP2 PUSH3 0x511 JUMP JUMPDEST SWAP1 POP SWAP2 SWAP1 POP JUMP JUMPDEST PUSH1 0x0 PUSH1 0x20 DUP3 ADD SWAP1 POP DUP2 DUP2 SUB PUSH1 0x0 DUP4 ADD MSTORE PUSH3 0x5BE DUP2 PUSH3 0x538 JUMP JUMPDEST SWAP1 POP SWAP2 SWAP1 POP JUMP JUMPDEST PUSH1 0x0 PUSH3 0x5D1 PUSH3 0x5E4 JUMP JUMPDEST SWAP1 POP PUSH3 0x5DF DUP3 DUP3 PUSH3 0x711 JUMP JUMPDEST SWAP2 SWAP1 POP JUMP JUMPDEST PUSH1 0x0 PUSH1 0x40 MLOAD SWAP1 POP SWAP1 JUMP JUMPDEST PUSH1 0x0 PUSH8 0xFFFFFFFFFFFFFFFF DUP3 GT ISZERO PUSH3 0x60C JUMPI PUSH3 0x60B PUSH3 0x7F3 JUMP JUMPDEST JUMPDEST PUSH1 0x20 DUP3 MUL SWAP1 POP PUSH1 0x20 DUP2 ADD SWAP1 POP SWAP2 SWAP1 POP JUMP JUMPDEST PUSH1 0x0 DUP3 DUP3 MSTORE PUSH1 0x20 DUP3 ADD SWAP1 POP SWAP3 SWAP2 POP POP JUMP JUMPDEST PUSH1 0x0 PUSH3 0x63B DUP3 PUSH3 0x6FA JUMP JUMPDEST SWAP2 POP PUSH3 0x648 DUP4 PUSH3 0x6FA JUMP JUMPDEST SWAP3 POP DUP3 PUSH32 0xFFFFFFFFFFFFFFFFFFFFFFFFFFFFFFFFFFFFFFFFFFFFFFFFFFFFFFFFFFFFFFFF SUB DUP3 GT ISZERO PUSH3 0x680 JUMPI PUSH3 0x67F PUSH3 0x795 JUMP JUMPDEST JUMPDEST DUP3 DUP3 ADD SWAP1 POP SWAP3 SWAP2 POP POP JUMP JUMPDEST PUSH1 0x0 PUSH3 0x698 DUP3 PUSH3 0x6FA JUMP JUMPDEST SWAP2 POP PUSH3 0x6A5 DUP4 PUSH3 0x6FA JUMP JUMPDEST SWAP3 POP DUP3 DUP3 LT ISZERO PUSH3 0x6BB JUMPI PUSH3 0x6BA PUSH3 0x795 JUMP JUMPDEST JUMPDEST DUP3 DUP3 SUB SWAP1 POP SWAP3 SWAP2 POP POP JUMP JUMPDEST PUSH1 0x0 PUSH3 0x6D3 DUP3 PUSH3 0x6DA JUMP JUMPDEST SWAP1 POP SWAP2 SWAP1 POP JUMP JUMPDEST PUSH1 0x0 PUSH20 0xFFFFFFFFFFFFFFFFFFFFFFFFFFFFFFFFFFFFFFFF DUP3 AND SWAP1 POP SWAP2 SWAP1 POP JUMP JUMPDEST PUSH1 0x0 DUP2 SWAP1 POP SWAP2 SWAP1 POP JUMP JUMPDEST PUSH1 0x0 PUSH1 0xFF DUP3 AND SWAP1 POP SWAP2 SWAP1 POP JUMP JUMPDEST PUSH3 0x71C DUP3 PUSH3 0x836 JUMP JUMPDEST DUP2 ADD DUP2 DUP2 LT PUSH8 0xFFFFFFFFFFFFFFFF DUP3 GT OR ISZERO PUSH3 0x73E JUMPI PUSH3 0x73D PUSH3 0x7F3 JUMP JUMPDEST JUMPDEST DUP1 PUSH1 0x40 MSTORE POP POP POP JUMP JUMPDEST PUSH1 0x0 PUSH3 0x754 DUP3 PUSH3 0x6FA JUMP JUMPDEST SWAP2 POP PUSH32 0xFFFFFFFFFFFFFFFFFFFFFFFFFFFFFFFFFFFFFFFFFFFFFFFFFFFFFFFFFFFFFFFF DUP3 EQ ISZERO PUSH3 0x78A JUMPI PUSH3 0x789 PUSH3 0x795 JUMP JUMPDEST JUMPDEST PUSH1 0x1 DUP3 ADD SWAP1 POP SWAP2 SWAP1 POP JUMP JUMPDEST PUSH32 0x4E487B7100000000000000000000000000000000000000000000000000000000 PUSH1 0x0 MSTORE PUSH1 0x11 PUSH1 0x4 MSTORE PUSH1 0x24 PUSH1 0x0 REVERT JUMPDEST PUSH32 0x4E487B7100000000000000000000000000000000000000000000000000000000 PUSH1 0x0 MSTORE PUSH1 0x32 PUSH1 0x4 MSTORE PUSH1 0x24 PUSH1 0x0 REVERT JUMPDEST PUSH32 0x4E487B7100000000000000000000000000000000000000000000000000000000 PUSH1 0x0 MSTORE PUSH1 0x41 PUSH1 0x4 MSTORE PUSH1 0x24 PUSH1 0x0 REVERT JUMPDEST PUSH1 0x0 DUP1 REVERT JUMPDEST PUSH1 0x0 DUP1 REVERT JUMPDEST PUSH1 0x0 DUP1 REVERT JUMPDEST PUSH1 0x0 DUP1 REVERT JUMPDEST PUSH1 0x0 PUSH1 0x1F NOT PUSH1 0x1F DUP4 ADD AND SWAP1 POP SWAP2 SWAP1 POP JUMP JUMPDEST PUSH32 0x616C6C20636F6C6C61626F7261746F727320636F756E74206174206C65617374 PUSH1 0x0 DUP3 ADD MSTORE PUSH32 0x206F6E6500000000000000000000000000000000000000000000000000000000 PUSH1 0x20 DUP3 ADD MSTORE POP JUMP JUMPDEST PUSH32 0x74686520636F6C6C61626F7261746F7273206D757374206E6F20626520647570 PUSH1 0x0 DUP3 ADD MSTORE PUSH32 0x6C69636174656400000000000000000000000000000000000000000000000000 PUSH1 0x20 DUP3 ADD MSTORE POP JUMP JUMPDEST PUSH32 0x6174206C65617374207369676E20636F756E74206D757374206D6F7265207468 PUSH1 0x0 DUP3 ADD MSTORE PUSH32 0x616E203020616E64206C657373207468616E206F7220657175616C7320636F6C PUSH1 0x20 DUP3 ADD MSTORE PUSH32 0x6C61626F7261746F727320636F756E7400000000000000000000000000000000 PUSH1 0x40 DUP3 ADD MSTORE POP JUMP JUMPDEST PUSH3 0x965 DUP2 PUSH3 0x6C6 JUMP JUMPDEST DUP2 EQ PUSH3 0x971 JUMPI PUSH1 0x0 DUP1 REVERT JUMPDEST POP JUMP JUMPDEST PUSH3 0x97F DUP2 PUSH3 0x704 JUMP JUMPDEST DUP2 EQ PUSH3 0x98B JUMPI PUSH1 0x0 DUP1 REVERT JUMPDEST POP JUMP JUMPDEST PUSH2 0x16EC DUP1 PUSH3 0x99E PUSH1 0x0 CODECOPY PUSH1 0x0 RETURN INVALID PUSH1 0x80 PUSH1 0x40 MSTORE PUSH1 0x4 CALLDATASIZE LT PUSH2 0x6F JUMPI PUSH1 0x0 CALLDATALOAD PUSH1 0xE0 SHR DUP1 PUSH4 0x68A1376B GT PUSH2 0x4E JUMPI DUP1 PUSH4 0x68A1376B EQ PUSH2 0xCB JUMPI DUP1 PUSH4 0xB517E0B4 EQ PUSH2 0xD5 JUMPI DUP1 PUSH4 0xB69EF8A8 EQ PUSH2 0xEC JUMPI DUP1 PUSH4 0xCA3EA43F EQ PUSH2 0x117 JUMPI PUSH2 0x6F JUMP JUMPDEST DUP1 PUSH3 0x3BDF3E EQ PUSH2 0x74 JUMPI DUP1 PUSH4 0x1535430B EQ PUSH2 0x9D JUMPI DUP1 PUSH4 0x352CE050 EQ PUSH2 0xB4 JUMPI JUMPDEST PUSH1 0x0 DUP1 REVERT JUMPDEST CALLVALUE DUP1 ISZERO PUSH2 0x80 JUMPI PUSH1 0x0 DUP1 REVERT JUMPDEST POP PUSH2 0x9B PUSH1 0x4 DUP1 CALLDATASIZE SUB DUP2 ADD SWAP1 PUSH2 0x96 SWAP2 SWAP1 PUSH2 0xE44 JUMP JUMPDEST PUSH2 0x142 JUMP JUMPDEST STOP JUMPDEST CALLVALUE DUP1 ISZERO PUSH2 0xA9 JUMPI PUSH1 0x0 DUP1 REVERT JUMPDEST POP PUSH2 0xB2 PUSH2 0x373 JUMP JUMPDEST STOP JUMPDEST CALLVALUE DUP1 ISZERO PUSH2 0xC0 JUMPI PUSH1 0x0 DUP1 REVERT JUMPDEST POP PUSH2 0xC9 PUSH2 0x68E JUMP JUMPDEST STOP JUMPDEST PUSH2 0xD3 PUSH2 0x8E0 JUMP JUMPDEST STOP JUMPDEST CALLVALUE DUP1 ISZERO PUSH2 0xE1 JUMPI PUSH1 0x0 DUP1 REVERT JUMPDEST POP PUSH2 0xEA PUSH2 0x93D JUMP JUMPDEST STOP JUMPDEST CALLVALUE DUP1 ISZERO PUSH2 0xF8 JUMPI PUSH1 0x0 DUP1 REVERT JUMPDEST POP PUSH2 0x101 PUSH2 0xA1E JUMP JUMPDEST PUSH1 0x40 MLOAD PUSH2 0x10E SWAP2 SWAP1 PUSH2 0x1174 JUMP JUMPDEST PUSH1 0x40 MLOAD DUP1 SWAP2 SUB SWAP1 RETURN JUMPDEST CALLVALUE DUP1 ISZERO PUSH2 0x123 JUMPI PUSH1 0x0 DUP1 REVERT JUMPDEST POP PUSH2 0x12C PUSH2 0xA24 JUMP JUMPDEST PUSH1 0x40 MLOAD PUSH2 0x139 SWAP2 SWAP1 PUSH2 0x1174 JUMP JUMPDEST PUSH1 0x40 MLOAD DUP1 SWAP2 SUB SWAP1 RETURN JUMPDEST PUSH2 0x14A PUSH2 0xA2A JUMP JUMPDEST PUSH2 0x189 JUMPI PUSH1 0x40 MLOAD PUSH32 0x8C379A000000000000000000000000000000000000000000000000000000000 DUP2 MSTORE PUSH1 0x4 ADD PUSH2 0x180 SWAP1 PUSH2 0x1114 JUMP JUMPDEST PUSH1 0x40 MLOAD DUP1 SWAP2 SUB SWAP1 REVERT JUMPDEST PUSH1 0x0 PUSH1 0x4 SLOAD EQ PUSH2 0x1CE JUMPI PUSH1 0x40 MLOAD PUSH32 0x8C379A000000000000000000000000000000000000000000000000000000000 DUP2 MSTORE PUSH1 0x4 ADD PUSH2 0x1C5 SWAP1 PUSH2 0x10F4 JUMP JUMPDEST PUSH1 0x40 MLOAD DUP1 SWAP2 SUB SWAP1 REVERT JUMPDEST PUSH1 0x0 SLOAD DUP3 GT ISZERO PUSH2 0x213 JUMPI PUSH1 0x40 MLOAD PUSH32 0x8C379A000000000000000000000000000000000000000000000000000000000 DUP2 MSTORE PUSH1 0x4 ADD PUSH2 0x20A SWAP1 PUSH2 0x1154 JUMP JUMPDEST PUSH1 0x40 MLOAD DUP1 SWAP2 SUB SWAP1 REVERT JUMPDEST PUSH1 0x0 PUSH20 0xFFFFFFFFFFFFFFFFFFFFFFFFFFFFFFFFFFFFFFFF AND DUP2 PUSH20 0xFFFFFFFFFFFFFFFFFFFFFFFFFFFFFFFFFFFFFFFF AND EQ ISZERO PUSH2 0x283 JUMPI PUSH1 0x40 MLOAD PUSH32 0x8C379A000000000000000000000000000000000000000000000000000000000 DUP2 MSTORE PUSH1 0x4 ADD PUSH2 0x27A SWAP1 PUSH2 0x1074 JUMP JUMPDEST PUSH1 0x40 MLOAD DUP1 SWAP2 SUB SWAP1 REVERT JUMPDEST CALLER PUSH1 0x6 PUSH1 0x0 PUSH2 0x100 EXP DUP2 SLOAD DUP2 PUSH20 0xFFFFFFFFFFFFFFFFFFFFFFFFFFFFFFFFFFFFFFFF MUL NOT AND SWAP1 DUP4 PUSH20 0xFFFFFFFFFFFFFFFFFFFFFFFFFFFFFFFFFFFFFFFF AND MUL OR SWAP1 SSTORE POP DUP2 PUSH1 0x4 DUP2 SWAP1 SSTORE POP DUP1 PUSH1 0x5 PUSH1 0x0 PUSH2 0x100 EXP DUP2 SLOAD DUP2 PUSH20 0xFFFFFFFFFFFFFFFFFFFFFFFFFFFFFFFFFFFFFFFF MUL NOT AND SWAP1 DUP4 PUSH20 0xFFFFFFFFFFFFFFFFFFFFFFFFFFFFFFFFFFFFFFFF AND MUL OR SWAP1 SSTORE POP PUSH1 0x7 CALLER SWAP1 DUP1 PUSH1 0x1 DUP2 SLOAD ADD DUP1 DUP3 SSTORE DUP1 SWAP2 POP POP PUSH1 0x1 SWAP1 SUB SWAP1 PUSH1 0x0 MSTORE PUSH1 0x20 PUSH1 0x0 KECCAK256 ADD PUSH1 0x0 SWAP1 SWAP2 SWAP1 SWAP2 SWAP1 SWAP2 PUSH2 0x100 EXP DUP2 SLOAD DUP2 PUSH20 0xFFFFFFFFFFFFFFFFFFFFFFFFFFFFFFFFFFFFFFFF MUL NOT AND SWAP1 DUP4 PUSH20 0xFFFFFFFFFFFFFFFFFFFFFFFFFFFFFFFFFFFFFFFF AND MUL OR SWAP1 SSTORE POP POP POP JUMP JUMPDEST PUSH2 0x37B PUSH2 0xA2A JUMP JUMPDEST PUSH2 0x3BA JUMPI PUSH1 0x40 MLOAD PUSH32 0x8C379A000000000000000000000000000000000000000000000000000000000 DUP2 MSTORE PUSH1 0x4 ADD PUSH2 0x3B1 SWAP1 PUSH2 0x1114 JUMP JUMPDEST PUSH1 0x40 MLOAD DUP1 SWAP2 SUB SWAP1 REVERT JUMPDEST PUSH1 0x6 PUSH1 0x0 SWAP1 SLOAD SWAP1 PUSH2 0x100 EXP SWAP1 DIV PUSH20 0xFFFFFFFFFFFFFFFFFFFFFFFFFFFFFFFFFFFFFFFF AND PUSH20 0xFFFFFFFFFFFFFFFFFFFFFFFFFFFFFFFFFFFFFFFF AND CALLER PUSH20 0xFFFFFFFFFFFFFFFFFFFFFFFFFFFFFFFFFFFFFFFF AND EQ ISZERO PUSH2 0x44B JUMPI PUSH1 0x40 MLOAD PUSH32 0x8C379A000000000000000000000000000000000000000000000000000000000 DUP2 MSTORE PUSH1 0x4 ADD PUSH2 0x442 SWAP1 PUSH2 0x1034 JUMP JUMPDEST PUSH1 0x40 MLOAD DUP1 SWAP2 SUB SWAP1 REVERT JUMPDEST PUSH2 0x4DB PUSH1 0x8 DUP1 SLOAD DUP1 PUSH1 0x20 MUL PUSH1 0x20 ADD PUSH1 0x40 MLOAD SWAP1 DUP2 ADD PUSH1 0x40 MSTORE DUP1 SWAP3 SWAP2 SWAP1 DUP2 DUP2 MSTORE PUSH1 0x20 ADD DUP3 DUP1 SLOAD DUP1 ISZERO PUSH2 0x4D0 JUMPI PUSH1 0x20 MUL DUP3 ADD SWAP2 SWAP1 PUSH1 0x0 MSTORE PUSH1 0x20 PUSH1 0x0 KECCAK256 SWAP1 JUMPDEST DUP2 PUSH1 0x0 SWAP1 SLOAD SWAP1 PUSH2 0x100 EXP SWAP1 DIV PUSH20 0xFFFFFFFFFFFFFFFFFFFFFFFFFFFFFFFFFFFFFFFF AND PUSH20 0xFFFFFFFFFFFFFFFFFFFFFFFFFFFFFFFFFFFFFFFF AND DUP2 MSTORE PUSH1 0x20 ADD SWAP1 PUSH1 0x1 ADD SWAP1 DUP1 DUP4 GT PUSH2 0x486 JUMPI JUMPDEST POP POP POP POP POP CALLER PUSH2 0xAC1 JUMP JUMPDEST ISZERO PUSH2 0x51B JUMPI PUSH1 0x40 MLOAD PUSH32 0x8C379A000000000000000000000000000000000000000000000000000000000 DUP2 MSTORE PUSH1 0x4 ADD PUSH2 0x512 SWAP1 PUSH2 0x1054 JUMP JUMPDEST PUSH1 0x40 MLOAD DUP1 SWAP2 SUB SWAP1 REVERT JUMPDEST PUSH1 0x0 PUSH1 0x4 SLOAD GT PUSH2 0x560 JUMPI PUSH1 0x40 MLOAD PUSH32 0x8C379A000000000000000000000000000000000000000000000000000000000 DUP2 MSTORE PUSH1 0x4 ADD PUSH2 0x557 SWAP1 PUSH2 0x1014 JUMP JUMPDEST PUSH1 0x40 MLOAD DUP1 SWAP2 SUB SWAP1 REVERT JUMPDEST PUSH1 0x8 CALLER SWAP1 DUP1 PUSH1 0x1 DUP2 SLOAD ADD DUP1 DUP3 SSTORE DUP1 SWAP2 POP POP PUSH1 0x1 SWAP1 SUB SWAP1 PUSH1 0x0 MSTORE PUSH1 0x20 PUSH1 0x0 KECCAK256 ADD PUSH1 0x0 SWAP1 SWAP2 SWAP1 SWAP2 SWAP1 SWAP2 PUSH2 0x100 EXP DUP2 SLOAD DUP2 PUSH20 0xFFFFFFFFFFFFFFFFFFFFFFFFFFFFFFFFFFFFFFFF MUL NOT AND SWAP1 DUP4 PUSH20 0xFFFFFFFFFFFFFFFFFFFFFFFFFFFFFFFFFFFFFFFF AND MUL OR SWAP1 SSTORE POP PUSH1 0x0 DUP1 JUMPDEST PUSH1 0x8 DUP1 SLOAD SWAP1 POP DUP2 LT ISZERO PUSH2 0x668 JUMPI PUSH1 0x0 PUSH20 0xFFFFFFFFFFFFFFFFFFFFFFFFFFFFFFFFFFFFFFFF AND PUSH1 0x8 DUP3 DUP2 SLOAD DUP2 LT PUSH2 0x600 JUMPI PUSH2 0x5FF PUSH2 0x1315 JUMP JUMPDEST JUMPDEST SWAP1 PUSH1 0x0 MSTORE PUSH1 0x20 PUSH1 0x0 KECCAK256 ADD PUSH1 0x0 SWAP1 SLOAD SWAP1 PUSH2 0x100 EXP SWAP1 DIV PUSH20 0xFFFFFFFFFFFFFFFFFFFFFFFFFFFFFFFFFFFFFFFF AND PUSH20 0xFFFFFFFFFFFFFFFFFFFFFFFFFFFFFFFFFFFFFFFF AND EQ PUSH2 0x655 JUMPI DUP2 DUP1 PUSH2 0x651 SWAP1 PUSH2 0x1273 JUMP JUMPDEST SWAP3 POP POP JUMPDEST DUP1 DUP1 PUSH2 0x660 SWAP1 PUSH2 0x1273 JUMP JUMPDEST SWAP2 POP POP PUSH2 0x5C7 JUMP JUMPDEST POP PUSH1 0x1 PUSH1 0x2 DUP1 SLOAD SWAP1 POP PUSH2 0x67B SWAP2 SWAP1 PUSH2 0x11F6 JUMP JUMPDEST DUP2 EQ ISZERO PUSH2 0x68B JUMPI PUSH2 0x68A PUSH2 0xB49 JUMP JUMPDEST JUMPDEST POP JUMP JUMPDEST PUSH2 0x696 PUSH2 0xA2A JUMP JUMPDEST PUSH2 0x6D5 JUMPI PUSH1 0x40 MLOAD PUSH32 0x8C379A000000000000000000000000000000000000000000000000000000000 DUP2 MSTORE PUSH1 0x4 ADD PUSH2 0x6CC SWAP1 PUSH2 0x1114 JUMP JUMPDEST PUSH1 0x40 MLOAD DUP1 SWAP2 SUB SWAP1 REVERT JUMPDEST PUSH1 0x0 PUSH1 0x4 SLOAD GT PUSH2 0x71A JUMPI PUSH1 0x40 MLOAD PUSH32 0x8C379A000000000000000000000000000000000000000000000000000000000 DUP2 MSTORE PUSH1 0x4 ADD PUSH2 0x711 SWAP1 PUSH2 0x1094 JUMP JUMPDEST PUSH1 0x40 MLOAD DUP1 SWAP2 SUB SWAP1 REVERT JUMPDEST PUSH2 0x722 PUSH2 0xBB9 JUMP JUMPDEST ISZERO PUSH2 0x762 JUMPI PUSH1 0x40 MLOAD PUSH32 0x8C379A000000000000000000000000000000000000000000000000000000000 DUP2 MSTORE PUSH1 0x4 ADD PUSH2 0x759 SWAP1 PUSH2 0x10B4 JUMP JUMPDEST PUSH1 0x40 MLOAD DUP1 SWAP2 SUB SWAP1 REVERT JUMPDEST PUSH1 0x7 CALLER SWAP1 DUP1 PUSH1 0x1 DUP2 SLOAD ADD DUP1 DUP3 SSTORE DUP1 SWAP2 POP POP PUSH1 0x1 SWAP1 SUB SWAP1 PUSH1 0x0 MSTORE PUSH1 0x20 PUSH1 0x0 KECCAK256 ADD PUSH1 0x0 SWAP1 SWAP2 SWAP1 SWAP2 SWAP1 SWAP2 PUSH2 0x100 EXP DUP2 SLOAD DUP2 PUSH20 0xFFFFFFFFFFFFFFFFFFFFFFFFFFFFFFFFFFFFFFFF MUL NOT AND SWAP1 DUP4 PUSH20 0xFFFFFFFFFFFFFFFFFFFFFFFFFFFFFFFFFFFFFFFF AND MUL OR SWAP1 SSTORE POP PUSH2 0x7CD PUSH2 0xC50 JUMP JUMPDEST ISZERO PUSH2 0x8DE JUMPI PUSH1 0x0 PUSH1 0x4 SLOAD SWAP1 POP PUSH1 0x0 PUSH1 0x4 DUP2 SWAP1 SSTORE POP PUSH1 0x5 PUSH1 0x0 SWAP1 SLOAD SWAP1 PUSH2 0x100 EXP SWAP1 DIV PUSH20 0xFFFFFFFFFFFFFFFFFFFFFFFFFFFFFFFFFFFFFFFF AND PUSH20 0xFFFFFFFFFFFFFFFFFFFFFFFFFFFFFFFFFFFFFFFF AND PUSH2 0x8FC DUP3 SWAP1 DUP2 ISZERO MUL SWAP1 PUSH1 0x40 MLOAD PUSH1 0x0 PUSH1 0x40 MLOAD DUP1 DUP4 SUB DUP2 DUP6 DUP9 DUP9 CALL SWAP4 POP POP POP POP ISZERO DUP1 ISZERO PUSH2 0x849 JUMPI RETURNDATASIZE PUSH1 0x0 DUP1 RETURNDATACOPY RETURNDATASIZE PUSH1 0x0 REVERT JUMPDEST POP DUP1 PUSH1 0x0 SLOAD PUSH2 0x858 SWAP2 SWAP1 PUSH2 0x11F6 JUMP JUMPDEST PUSH1 0x0 DUP2 SWAP1 SSTORE POP PUSH1 0x9 PUSH1 0x0 DUP2 SLOAD DUP1 SWAP3 SWAP2 SWAP1 PUSH2 0x871 SWAP1 PUSH2 0x1273 JUMP JUMPDEST SWAP2 SWAP1 POP SSTORE POP PUSH1 0x5 PUSH1 0x0 PUSH2 0x100 EXP DUP2 SLOAD SWAP1 PUSH20 0xFFFFFFFFFFFFFFFFFFFFFFFFFFFFFFFFFFFFFFFF MUL NOT AND SWAP1 SSTORE PUSH1 0x7 PUSH1 0x0 PUSH2 0x8A9 SWAP2 SWAP1 PUSH2 0xDDC JUMP JUMPDEST PUSH1 0x6 PUSH1 0x0 PUSH2 0x100 EXP DUP2 SLOAD SWAP1 PUSH20 0xFFFFFFFFFFFFFFFFFFFFFFFFFFFFFFFFFFFFFFFF MUL NOT AND SWAP1 SSTORE PUSH1 0x8 PUSH1 0x0 PUSH2 0x8DC SWAP2 SWAP1 PUSH2 0xDDC JUMP JUMPDEST POP JUMPDEST JUMP JUMPDEST PUSH1 0x0 CALLVALUE GT PUSH2 0x923 JUMPI PUSH1 0x40 MLOAD PUSH32 0x8C379A000000000000000000000000000000000000000000000000000000000 DUP2 MSTORE PUSH1 0x4 ADD PUSH2 0x91A SWAP1 PUSH2 0x10D4 JUMP JUMPDEST PUSH1 0x40 MLOAD DUP1 SWAP2 SUB SWAP1 REVERT JUMPDEST CALLVALUE PUSH1 0x0 DUP1 DUP3 DUP3 SLOAD PUSH2 0x934 SWAP2 SWAP1 PUSH2 0x11A0 JUMP JUMPDEST SWAP3 POP POP DUP2 SWAP1 SSTORE POP JUMP JUMPDEST PUSH2 0x945 PUSH2 0xA2A JUMP JUMPDEST PUSH2 0x984 JUMPI PUSH1 0x40 MLOAD PUSH32 0x8C379A000000000000000000000000000000000000000000000000000000000 DUP2 MSTORE PUSH1 0x4 ADD PUSH2 0x97B SWAP1 PUSH2 0x1114 JUMP JUMPDEST PUSH1 0x40 MLOAD DUP1 SWAP2 SUB SWAP1 REVERT JUMPDEST PUSH1 0x6 PUSH1 0x0 SWAP1 SLOAD SWAP1 PUSH2 0x100 EXP SWAP1 DIV PUSH20 0xFFFFFFFFFFFFFFFFFFFFFFFFFFFFFFFFFFFFFFFF AND PUSH20 0xFFFFFFFFFFFFFFFFFFFFFFFFFFFFFFFFFFFFFFFF AND CALLER PUSH20 0xFFFFFFFFFFFFFFFFFFFFFFFFFFFFFFFFFFFFFFFF AND EQ PUSH2 0xA14 JUMPI PUSH1 0x40 MLOAD PUSH32 0x8C379A000000000000000000000000000000000000000000000000000000000 DUP2 MSTORE PUSH1 0x4 ADD PUSH2 0xA0B SWAP1 PUSH2 0x1134 JUMP JUMPDEST PUSH1 0x40 MLOAD DUP1 SWAP2 SUB SWAP1 REVERT JUMPDEST PUSH2 0xA1C PUSH2 0xB49 JUMP JUMPDEST JUMP JUMPDEST PUSH1 0x0 SLOAD DUP2 JUMP JUMPDEST PUSH1 0x9 SLOAD DUP2 JUMP JUMPDEST PUSH1 0x0 PUSH2 0xABC PUSH1 0x2 DUP1 SLOAD DUP1 PUSH1 0x20 MUL PUSH1 0x20 ADD PUSH1 0x40 MLOAD SWAP1 DUP2 ADD PUSH1 0x40 MSTORE DUP1 SWAP3 SWAP2 SWAP1 DUP2 DUP2 MSTORE PUSH1 0x20 ADD DUP3 DUP1 SLOAD DUP1 ISZERO PUSH2 0xAB1 JUMPI PUSH1 0x20 MUL DUP3 ADD SWAP2 SWAP1 PUSH1 0x0 MSTORE PUSH1 0x20 PUSH1 0x0 KECCAK256 SWAP1 JUMPDEST DUP2 PUSH1 0x0 SWAP1 SLOAD SWAP1 PUSH2 0x100 EXP SWAP1 DIV PUSH20 0xFFFFFFFFFFFFFFFFFFFFFFFFFFFFFFFFFFFFFFFF AND PUSH20 0xFFFFFFFFFFFFFFFFFFFFFFFFFFFFFFFFFFFFFFFF AND DUP2 MSTORE PUSH1 0x20 ADD SWAP1 PUSH1 0x1 ADD SWAP1 DUP1 DUP4 GT PUSH2 0xA67 JUMPI JUMPDEST POP POP POP POP POP CALLER PUSH2 0xAC1 JUMP JUMPDEST SWAP1 POP SWAP1 JUMP JUMPDEST PUSH1 0x0 DUP1 PUSH1 0x0 SWAP1 POP PUSH1 0x0 JUMPDEST DUP5 MLOAD DUP2 LT ISZERO PUSH2 0xB3E JUMPI DUP4 PUSH20 0xFFFFFFFFFFFFFFFFFFFFFFFFFFFFFFFFFFFFFFFF AND DUP6 DUP3 DUP2 MLOAD DUP2 LT PUSH2 0xAFE JUMPI PUSH2 0xAFD PUSH2 0x1315 JUMP JUMPDEST JUMPDEST PUSH1 0x20 MUL PUSH1 0x20 ADD ADD MLOAD PUSH20 0xFFFFFFFFFFFFFFFFFFFFFFFFFFFFFFFFFFFFFFFF AND EQ ISZERO PUSH2 0xB2B JUMPI PUSH1 0x1 SWAP2 POP PUSH2 0xB3E JUMP JUMPDEST DUP1 DUP1 PUSH2 0xB36 SWAP1 PUSH2 0x1273 JUMP JUMPDEST SWAP2 POP POP PUSH2 0xACB JUMP JUMPDEST POP DUP1 SWAP2 POP POP SWAP3 SWAP2 POP POP JUMP JUMPDEST PUSH1 0x6 PUSH1 0x0 PUSH2 0x100 EXP DUP2 SLOAD SWAP1 PUSH20 0xFFFFFFFFFFFFFFFFFFFFFFFFFFFFFFFFFFFFFFFF MUL NOT AND SWAP1 SSTORE PUSH1 0x5 PUSH1 0x0 PUSH2 0x100 EXP DUP2 SLOAD SWAP1 PUSH20 0xFFFFFFFFFFFFFFFFFFFFFFFFFFFFFFFFFFFFFFFF MUL NOT AND SWAP1 SSTORE PUSH1 0x0 PUSH1 0x4 DUP2 SWAP1 SSTORE POP PUSH1 0x7 PUSH1 0x0 PUSH2 0xBA9 SWAP2 SWAP1 PUSH2 0xDDC JUMP JUMPDEST PUSH1 0x8 PUSH1 0x0 PUSH2 0xBB7 SWAP2 SWAP1 PUSH2 0xDDC JUMP JUMPDEST JUMP JUMPDEST PUSH1 0x0 PUSH2 0xC4B PUSH1 0x7 DUP1 SLOAD DUP1 PUSH1 0x20 MUL PUSH1 0x20 ADD PUSH1 0x40 MLOAD SWAP1 DUP2 ADD PUSH1 0x40 MSTORE DUP1 SWAP3 SWAP2 SWAP1 DUP2 DUP2 MSTORE PUSH1 0x20 ADD DUP3 DUP1 SLOAD DUP1 ISZERO PUSH2 0xC40 JUMPI PUSH1 0x20 MUL DUP3 ADD SWAP2 SWAP1 PUSH1 0x0 MSTORE PUSH1 0x20 PUSH1 0x0 KECCAK256 SWAP1 JUMPDEST DUP2 PUSH1 0x0 SWAP1 SLOAD SWAP1 PUSH2 0x100 EXP SWAP1 DIV PUSH20 0xFFFFFFFFFFFFFFFFFFFFFFFFFFFFFFFFFFFFFFFF AND PUSH20 0xFFFFFFFFFFFFFFFFFFFFFFFFFFFFFFFFFFFFFFFF AND DUP2 MSTORE PUSH1 0x20 ADD SWAP1 PUSH1 0x1 ADD SWAP1 DUP1 DUP4 GT PUSH2 0xBF6 JUMPI JUMPDEST POP POP POP POP POP CALLER PUSH2 0xAC1 JUMP JUMPDEST SWAP1 POP SWAP1 JUMP JUMPDEST PUSH1 0x0 DUP1 PUSH1 0x7 DUP1 SLOAD DUP1 PUSH1 0x20 MUL PUSH1 0x20 ADD PUSH1 0x40 MLOAD SWAP1 DUP2 ADD PUSH1 0x40 MSTORE DUP1 SWAP3 SWAP2 SWAP1 DUP2 DUP2 MSTORE PUSH1 0x20 ADD DUP3 DUP1 SLOAD DUP1 ISZERO PUSH2 0xCD5 JUMPI PUSH1 0x20 MUL DUP3 ADD SWAP2 SWAP1 PUSH1 0x0 MSTORE PUSH1 0x20 PUSH1 0x0 KECCAK256 SWAP1 JUMPDEST DUP2 PUSH1 0x0 SWAP1 SLOAD SWAP1 PUSH2 0x100 EXP SWAP1 DIV PUSH20 0xFFFFFFFFFFFFFFFFFFFFFFFFFFFFFFFFFFFFFFFF AND PUSH20 0xFFFFFFFFFFFFFFFFFFFFFFFFFFFFFFFFFFFFFFFF AND DUP2 MSTORE PUSH1 0x20 ADD SWAP1 PUSH1 0x1 ADD SWAP1 DUP1 DUP4 GT PUSH2 0xC8B JUMPI JUMPDEST POP POP POP POP POP SWAP1 POP PUSH1 0x0 DUP1 JUMPDEST DUP3 MLOAD DUP2 LT ISZERO PUSH2 0xDBB JUMPI PUSH1 0x0 JUMPDEST PUSH1 0x2 DUP1 SLOAD SWAP1 POP DUP2 LT ISZERO PUSH2 0xDA7 JUMPI DUP4 DUP3 DUP2 MLOAD DUP2 LT PUSH2 0xD0C JUMPI PUSH2 0xD0B PUSH2 0x1315 JUMP JUMPDEST JUMPDEST PUSH1 0x20 MUL PUSH1 0x20 ADD ADD MLOAD PUSH20 0xFFFFFFFFFFFFFFFFFFFFFFFFFFFFFFFFFFFFFFFF AND PUSH1 0x2 DUP3 DUP2 SLOAD DUP2 LT PUSH2 0xD3E JUMPI PUSH2 0xD3D PUSH2 0x1315 JUMP JUMPDEST JUMPDEST SWAP1 PUSH1 0x0 MSTORE PUSH1 0x20 PUSH1 0x0 KECCAK256 ADD PUSH1 0x0 SWAP1 SLOAD SWAP1 PUSH2 0x100 EXP SWAP1 DIV PUSH20 0xFFFFFFFFFFFFFFFFFFFFFFFFFFFFFFFFFFFFFFFF AND PUSH20 0xFFFFFFFFFFFFFFFFFFFFFFFFFFFFFFFFFFFFFFFF AND EQ ISZERO PUSH2 0xD94 JUMPI DUP3 DUP1 PUSH2 0xD90 SWAP1 PUSH2 0x12BC JUMP JUMPDEST SWAP4 POP POP JUMPDEST DUP1 DUP1 PUSH2 0xD9F SWAP1 PUSH2 0x1273 JUMP JUMPDEST SWAP2 POP POP PUSH2 0xCEC JUMP JUMPDEST POP DUP1 DUP1 PUSH2 0xDB3 SWAP1 PUSH2 0x1273 JUMP JUMPDEST SWAP2 POP POP PUSH2 0xCE0 JUMP JUMPDEST POP PUSH1 0x3 PUSH1 0x0 SWAP1 SLOAD SWAP1 PUSH2 0x100 EXP SWAP1 DIV PUSH1 0xFF AND PUSH1 0xFF AND DUP2 PUSH1 0xFF AND LT ISZERO SWAP3 POP POP POP SWAP1 JUMP JUMPDEST POP DUP1 SLOAD PUSH1 0x0 DUP3 SSTORE SWAP1 PUSH1 0x0 MSTORE PUSH1 0x20 PUSH1 0x0 KECCAK256 SWAP1 DUP2 ADD SWAP1 PUSH2 0xDFA SWAP2 SWAP1 PUSH2 0xDFD JUMP JUMPDEST POP JUMP JUMPDEST JUMPDEST DUP1 DUP3 GT ISZERO PUSH2 0xE16 JUMPI PUSH1 0x0 DUP2 PUSH1 0x0 SWAP1 SSTORE POP PUSH1 0x1 ADD PUSH2 0xDFE JUMP JUMPDEST POP SWAP1 JUMP JUMPDEST PUSH1 0x0 DUP2 CALLDATALOAD SWAP1 POP PUSH2 0xE29 DUP2 PUSH2 0x1688 JUMP JUMPDEST SWAP3 SWAP2 POP POP JUMP JUMPDEST PUSH1 0x0 DUP2 CALLDATALOAD SWAP1 POP PUSH2 0xE3E DUP2 PUSH2 0x169F JUMP JUMPDEST SWAP3 SWAP2 POP POP JUMP JUMPDEST PUSH1 0x0 DUP1 PUSH1 0x40 DUP4 DUP6 SUB SLT ISZERO PUSH2 0xE5B JUMPI PUSH2 0xE5A PUSH2 0x1344 JUMP JUMPDEST JUMPDEST PUSH1 0x0 PUSH2 0xE69 DUP6 DUP3 DUP7 ADD PUSH2 0xE2F JUMP JUMPDEST SWAP3 POP POP PUSH1 0x20 PUSH2 0xE7A DUP6 DUP3 DUP7 ADD PUSH2 0xE1A JUMP JUMPDEST SWAP2 POP POP SWAP3 POP SWAP3 SWAP1 POP JUMP JUMPDEST PUSH1 0x0 PUSH2 0xE91 PUSH1 0x2F DUP4 PUSH2 0x118F JUMP JUMPDEST SWAP2 POP PUSH2 0xE9C DUP3 PUSH2 0x1349 JUMP JUMPDEST PUSH1 0x40 DUP3 ADD SWAP1 POP SWAP2 SWAP1 POP JUMP JUMPDEST PUSH1 0x0 PUSH2 0xEB4 PUSH1 0x3A DUP4 PUSH2 0x118F JUMP JUMPDEST SWAP2 POP PUSH2 0xEBF DUP3 PUSH2 0x1398 JUMP JUMPDEST PUSH1 0x40 DUP3 ADD SWAP1 POP SWAP2 SWAP1 POP JUMP JUMPDEST PUSH1 0x0 PUSH2 0xED7 PUSH1 0x2E DUP4 PUSH2 0x118F JUMP JUMPDEST SWAP2 POP PUSH2 0xEE2 DUP3 PUSH2 0x13E7 JUMP JUMPDEST PUSH1 0x40 DUP3 ADD SWAP1 POP SWAP2 SWAP1 POP JUMP JUMPDEST PUSH1 0x0 PUSH2 0xEFA PUSH1 0x15 DUP4 PUSH2 0x118F JUMP JUMPDEST SWAP2 POP PUSH2 0xF05 DUP3 PUSH2 0x1436 JUMP JUMPDEST PUSH1 0x20 DUP3 ADD SWAP1 POP SWAP2 SWAP1 POP JUMP JUMPDEST PUSH1 0x0 PUSH2 0xF1D PUSH1 0x2C DUP4 PUSH2 0x118F JUMP JUMPDEST SWAP2 POP PUSH2 0xF28 DUP3 PUSH2 0x145F JUMP JUMPDEST PUSH1 0x40 DUP3 ADD SWAP1 POP SWAP2 SWAP1 POP JUMP JUMPDEST PUSH1 0x0 PUSH2 0xF40 PUSH1 0x38 DUP4 PUSH2 0x118F JUMP JUMPDEST SWAP2 POP PUSH2 0xF4B DUP3 PUSH2 0x14AE JUMP JUMPDEST PUSH1 0x40 DUP3 ADD SWAP1 POP SWAP2 SWAP1 POP JUMP JUMPDEST PUSH1 0x0 PUSH2 0xF63 PUSH1 0x58 DUP4 PUSH2 0x118F JUMP JUMPDEST SWAP2 POP PUSH2 0xF6E DUP3 PUSH2 0x14FD JUMP JUMPDEST PUSH1 0x60 DUP3 ADD SWAP1 POP SWAP2 SWAP1 POP JUMP JUMPDEST PUSH1 0x0 PUSH2 0xF86 PUSH1 0x1D DUP4 PUSH2 0x118F JUMP JUMPDEST SWAP2 POP PUSH2 0xF91 DUP3 PUSH2 0x1572 JUMP JUMPDEST PUSH1 0x20 DUP3 ADD SWAP1 POP SWAP2 SWAP1 POP JUMP JUMPDEST PUSH1 0x0 PUSH2 0xFA9 PUSH1 0x26 DUP4 PUSH2 0x118F JUMP JUMPDEST SWAP2 POP PUSH2 0xFB4 DUP3 PUSH2 0x159B JUMP JUMPDEST PUSH1 0x40 DUP3 ADD SWAP1 POP SWAP2 SWAP1 POP JUMP JUMPDEST PUSH1 0x0 PUSH2 0xFCC PUSH1 0x2A DUP4 PUSH2 0x118F JUMP JUMPDEST SWAP2 POP PUSH2 0xFD7 DUP3 PUSH2 0x15EA JUMP JUMPDEST PUSH1 0x40 DUP3 ADD SWAP1 POP SWAP2 SWAP1 POP JUMP JUMPDEST PUSH1 0x0 PUSH2 0xFEF PUSH1 0x2C DUP4 PUSH2 0x118F JUMP JUMPDEST SWAP2 POP PUSH2 0xFFA DUP3 PUSH2 0x1639 JUMP JUMPDEST PUSH1 0x40 DUP3 ADD SWAP1 POP SWAP2 SWAP1 POP JUMP JUMPDEST PUSH2 0x100E DUP2 PUSH2 0x125C JUMP JUMPDEST DUP3 MSTORE POP POP JUMP JUMPDEST PUSH1 0x0 PUSH1 0x20 DUP3 ADD SWAP1 POP DUP2 DUP2 SUB PUSH1 0x0 DUP4 ADD MSTORE PUSH2 0x102D DUP2 PUSH2 0xE84 JUMP JUMPDEST SWAP1 POP SWAP2 SWAP1 POP JUMP JUMPDEST PUSH1 0x0 PUSH1 0x20 DUP3 ADD SWAP1 POP DUP2 DUP2 SUB PUSH1 0x0 DUP4 ADD MSTORE PUSH2 0x104D DUP2 PUSH2 0xEA7 JUMP JUMPDEST SWAP1 POP SWAP2 SWAP1 POP JUMP JUMPDEST PUSH1 0x0 PUSH1 0x20 DUP3 ADD SWAP1 POP DUP2 DUP2 SUB PUSH1 0x0 DUP4 ADD MSTORE PUSH2 0x106D DUP2 PUSH2 0xECA JUMP JUMPDEST SWAP1 POP SWAP2 SWAP1 POP JUMP JUMPDEST PUSH1 0x0 PUSH1 0x20 DUP3 ADD SWAP1 POP DUP2 DUP2 SUB PUSH1 0x0 DUP4 ADD MSTORE PUSH2 0x108D DUP2 PUSH2 0xEED JUMP JUMPDEST SWAP1 POP SWAP2 SWAP1 POP JUMP JUMPDEST PUSH1 0x0 PUSH1 0x20 DUP3 ADD SWAP1 POP DUP2 DUP2 SUB PUSH1 0x0 DUP4 ADD MSTORE PUSH2 0x10AD DUP2 PUSH2 0xF10 JUMP JUMPDEST SWAP1 POP SWAP2 SWAP1 POP JUMP JUMPDEST PUSH1 0x0 PUSH1 0x20 DUP3 ADD SWAP1 POP DUP2 DUP2 SUB PUSH1 0x0 DUP4 ADD MSTORE PUSH2 0x10CD DUP2 PUSH2 0xF33 JUMP JUMPDEST SWAP1 POP SWAP2 SWAP1 POP JUMP JUMPDEST PUSH1 0x0 PUSH1 0x20 DUP3 ADD SWAP1 POP DUP2 DUP2 SUB PUSH1 0x0 DUP4 ADD MSTORE PUSH2 0x10ED DUP2 PUSH2 0xF56 JUMP JUMPDEST SWAP1 POP SWAP2 SWAP1 POP JUMP JUMPDEST PUSH1 0x0 PUSH1 0x20 DUP3 ADD SWAP1 POP DUP2 DUP2 SUB PUSH1 0x0 DUP4 ADD MSTORE PUSH2 0x110D DUP2 PUSH2 0xF79 JUMP JUMPDEST SWAP1 POP SWAP2 SWAP1 POP JUMP JUMPDEST PUSH1 0x0 PUSH1 0x20 DUP3 ADD SWAP1 POP DUP2 DUP2 SUB PUSH1 0x0 DUP4 ADD MSTORE PUSH2 0x112D DUP2 PUSH2 0xF9C JUMP JUMPDEST SWAP1 POP SWAP2 SWAP1 POP JUMP JUMPDEST PUSH1 0x0 PUSH1 0x20 DUP3 ADD SWAP1 POP DUP2 DUP2 SUB PUSH1 0x0 DUP4 ADD MSTORE PUSH2 0x114D DUP2 PUSH2 0xFBF JUMP JUMPDEST SWAP1 POP SWAP2 SWAP1 POP JUMP JUMPDEST PUSH1 0x0 PUSH1 0x20 DUP3 ADD SWAP1 POP DUP2 DUP2 SUB PUSH1 0x0 DUP4 ADD MSTORE PUSH2 0x116D DUP2 PUSH2 0xFE2 JUMP JUMPDEST SWAP1 POP SWAP2 SWAP1 POP JUMP JUMPDEST PUSH1 0x0 PUSH1 0x20 DUP3 ADD SWAP1 POP PUSH2 0x1189 PUSH1 0x0 DUP4 ADD DUP5 PUSH2 0x1005 JUMP JUMPDEST SWAP3 SWAP2 POP POP JUMP JUMPDEST PUSH1 0x0 DUP3 DUP3 MSTORE PUSH1 0x20 DUP3 ADD SWAP1 POP SWAP3 SWAP2 POP POP JUMP JUMPDEST PUSH1 0x0 PUSH2 0x11AB DUP3 PUSH2 0x125C JUMP JUMPDEST SWAP2 POP PUSH2 0x11B6 DUP4 PUSH2 0x125C JUMP JUMPDEST SWAP3 POP DUP3 PUSH32 0xFFFFFFFFFFFFFFFFFFFFFFFFFFFFFFFFFFFFFFFFFFFFFFFFFFFFFFFFFFFFFFFF SUB DUP3 GT ISZERO PUSH2 0x11EB JUMPI PUSH2 0x11EA PUSH2 0x12E6 JUMP JUMPDEST JUMPDEST DUP3 DUP3 ADD SWAP1 POP SWAP3 SWAP2 POP POP JUMP JUMPDEST PUSH1 0x0 PUSH2 0x1201 DUP3 PUSH2 0x125C JUMP JUMPDEST SWAP2 POP PUSH2 0x120C DUP4 PUSH2 0x125C JUMP JUMPDEST SWAP3 POP DUP3 DUP3 LT ISZERO PUSH2 0x121F JUMPI PUSH2 0x121E PUSH2 0x12E6 JUMP JUMPDEST JUMPDEST DUP3 DUP3 SUB SWAP1 POP SWAP3 SWAP2 POP POP JUMP JUMPDEST PUSH1 0x0 PUSH2 0x1235 DUP3 PUSH2 0x123C JUMP JUMPDEST SWAP1 POP SWAP2 SWAP1 POP JUMP JUMPDEST PUSH1 0x0 PUSH20 0xFFFFFFFFFFFFFFFFFFFFFFFFFFFFFFFFFFFFFFFF DUP3 AND SWAP1 POP SWAP2 SWAP1 POP JUMP JUMPDEST PUSH1 0x0 DUP2 SWAP1 POP SWAP2 SWAP1 POP JUMP JUMPDEST PUSH1 0x0 PUSH1 0xFF DUP3 AND SWAP1 POP SWAP2 SWAP1 POP JUMP JUMPDEST PUSH1 0x0 PUSH2 0x127E DUP3 PUSH2 0x125C JUMP JUMPDEST SWAP2 POP PUSH32 0xFFFFFFFFFFFFFFFFFFFFFFFFFFFFFFFFFFFFFFFFFFFFFFFFFFFFFFFFFFFFFFFF DUP3 EQ ISZERO PUSH2 0x12B1 JUMPI PUSH2 0x12B0 PUSH2 0x12E6 JUMP JUMPDEST JUMPDEST PUSH1 0x1 DUP3 ADD SWAP1 POP SWAP2 SWAP1 POP JUMP JUMPDEST PUSH1 0x0 PUSH2 0x12C7 DUP3 PUSH2 0x1266 JUMP JUMPDEST SWAP2 POP PUSH1 0xFF DUP3 EQ ISZERO PUSH2 0x12DB JUMPI PUSH2 0x12DA PUSH2 0x12E6 JUMP JUMPDEST JUMPDEST PUSH1 0x1 DUP3 ADD SWAP1 POP SWAP2 SWAP1 POP JUMP JUMPDEST PUSH32 0x4E487B7100000000000000000000000000000000000000000000000000000000 PUSH1 0x0 MSTORE PUSH1 0x11 PUSH1 0x4 MSTORE PUSH1 0x24 PUSH1 0x0 REVERT JUMPDEST PUSH32 0x4E487B7100000000000000000000000000000000000000000000000000000000 PUSH1 0x0 MSTORE PUSH1 0x32 PUSH1 0x4 MSTORE PUSH1 0x24 PUSH1 0x0 REVERT JUMPDEST PUSH1 0x0 DUP1 REVERT JUMPDEST PUSH32 0x74686572652069736E277420616E792077697468647277616C73207761697420 PUSH1 0x0 DUP3 ADD MSTORE PUSH32 0x666F722063616E63656C6174696F6E0000000000000000000000000000000000 PUSH1 0x20 DUP3 ADD MSTORE POP JUMP JUMPDEST PUSH32 0x6F6E6C792074686520636F756E746572207061727479206F6620696E69746961 PUSH1 0x0 DUP3 ADD MSTORE PUSH32 0x746F722063616E2063616C6C20746869732066756E6374696F6E000000000000 PUSH1 0x20 DUP3 ADD MSTORE POP JUMP JUMPDEST PUSH32 0x796F752068617665207369676E656420666F722063616E63656C6C6174696F6E PUSH1 0x0 DUP3 ADD MSTORE PUSH32 0x2C20646F6E277420726570656174000000000000000000000000000000000000 PUSH1 0x20 DUP3 ADD MSTORE POP JUMP JUMPDEST PUSH32 0x696E76616C696420746172676574416464726573730000000000000000000000 PUSH1 0x0 DUP3 ADD MSTORE POP JUMP JUMPDEST PUSH32 0x7468657265206973206E6F20776974686472617720616374696F6E2077616974 PUSH1 0x0 DUP3 ADD MSTORE PUSH32 0x696E6720666F72207369676E0000000000000000000000000000000000000000 PUSH1 0x20 DUP3 ADD MSTORE POP JUMP JUMPDEST PUSH32 0x796F752068617665207369676E65642074686973207769746864726177207072 PUSH1 0x0 DUP3 ADD MSTORE PUSH32 0x6F636573732C20706C7A20646F6E2774207265706561742E0000000000000000 PUSH1 0x20 DUP3 ADD MSTORE POP JUMP JUMPDEST PUSH32 0x544F50494E206D757374206D6F7265207468616E2030207765692C20696E6465 PUSH1 0x0 DUP3 ADD MSTORE PUSH32 0x656420746865206761732066656520646F206E6F742064656372656173652069 PUSH1 0x20 DUP3 ADD MSTORE PUSH32 0x6620796F7520746F70696E2061206C6F772076616C75652E0000000000000000 PUSH1 0x40 DUP3 ADD MSTORE POP JUMP JUMPDEST PUSH32 0x7072652070726F6365737320686173206E6F74206265656E206F766572000000 PUSH1 0x0 DUP3 ADD MSTORE POP JUMP JUMPDEST PUSH32 0x6F6E6C7920636F6C6C61626F7261746F7273206861766520746865207065726D PUSH1 0x0 DUP3 ADD MSTORE PUSH32 0x697373696F6E0000000000000000000000000000000000000000000000000000 PUSH1 0x20 DUP3 ADD MSTORE POP JUMP JUMPDEST PUSH32 0x6F6E6C792074686520696E69746961746F722063616E2063616E63656C207468 PUSH1 0x0 DUP3 ADD MSTORE PUSH32 0x69732070726F6365737300000000000000000000000000000000000000000000 PUSH1 0x20 DUP3 ADD MSTORE POP JUMP JUMPDEST PUSH32 0x77697468647261772062616C616E636520636F756C64206E6F74206D6F726520 PUSH1 0x0 DUP3 ADD MSTORE PUSH32 0x7468616E2062616C616E63650000000000000000000000000000000000000000 PUSH1 0x20 DUP3 ADD MSTORE POP JUMP JUMPDEST PUSH2 0x1691 DUP2 PUSH2 0x122A JUMP JUMPDEST DUP2 EQ PUSH2 0x169C JUMPI PUSH1 0x0 DUP1 REVERT JUMPDEST POP JUMP JUMPDEST PUSH2 0x16A8 DUP2 PUSH2 0x125C JUMP JUMPDEST DUP2 EQ PUSH2 0x16B3 JUMPI PUSH1 0x0 DUP1 REVERT JUMPDEST POP JUMP INVALID LOG2 PUSH5 0x6970667358 0x22 SLT KECCAK256 JUMPI RETURNDATACOPY 0xCA 0xEF 0x5C 0xAF JUMP JUMPDEST BASEFEE 0xD5 0xC7 0x4B MOD SWAP16 PUSH5 0xD715525B53 SGT 0xE6 PUSH22 0x8B6051ACA5D325A60E64736F6C634300080700330000 "
		},
		"gasEstimates": {
			"creation": {
				"codeDepositCost": "1173600",
				"executionCost": "infinite",
				"totalCost": "infinite"
			},
			"external": {
				"balance()": "2473",
				"cancel_withdraw()": "infinite",
				"cancel_withdraw_by_counterparty()": "infinite",
				"collaboratorSign()": "infinite",
				"process_withdraw(uint256,address)": "infinite",
				"topin()": "infinite",
				"withdraw_count()": "2495"
			},
			"internal": {
				"address_array_in(address[] memory,address)": "infinite",
				"already_signed()": "infinite",
				"do_cancel_withdraw()": "infinite",
				"is_oneof_collaborators()": "infinite",
				"no_duplicated_collaborators()": "infinite",
				"signedCountEnough()": "infinite"
			}
		},
		"methodIdentifiers": {
			"balance()": "b69ef8a8",
			"cancel_withdraw()": "b517e0b4",
			"cancel_withdraw_by_counterparty()": "1535430b",
			"collaboratorSign()": "352ce050",
			"process_withdraw(uint256,address)": "003bdf3e",
			"topin()": "68a1376b",
			"withdraw_count()": "ca3ea43f"
		}
	},
	"abi": [
		{
			"inputs": [
				{
					"internalType": "address[]",
					"name": "collaborators_",
					"type": "address[]"
				},
				{
					"internalType": "uint8",
					"name": "at_least_sign_count_",
					"type": "uint8"
				}
			],
			"stateMutability": "nonpayable",
			"type": "constructor"
		},
		{
			"inputs": [],
			"name": "balance",
			"outputs": [
				{
					"internalType": "uint256",
					"name": "",
					"type": "uint256"
				}
			],
			"stateMutability": "view",
			"type": "function"
		},
		{
			"inputs": [],
			"name": "cancel_withdraw",
			"outputs": [],
			"stateMutability": "nonpayable",
			"type": "function"
		},
		{
			"inputs": [],
			"name": "cancel_withdraw_by_counterparty",
			"outputs": [],
			"stateMutability": "nonpayable",
			"type": "function"
		},
		{
			"inputs": [],
			"name": "collaboratorSign",
			"outputs": [],
			"stateMutability": "nonpayable",
			"type": "function"
		},
		{
			"inputs": [
				{
					"internalType": "uint256",
					"name": "weis",
					"type": "uint256"
				},
				{
					"internalType": "address payable",
					"name": "targetAddress",
					"type": "address"
				}
			],
			"name": "process_withdraw",
			"outputs": [],
			"stateMutability": "nonpayable",
			"type": "function"
		},
		{
			"inputs": [],
			"name": "topin",
			"outputs": [],
			"stateMutability": "payable",
			"type": "function"
		},
		{
			"inputs": [],
			"name": "withdraw_count",
			"outputs": [
				{
					"internalType": "uint256",
					"name": "",
					"type": "uint256"
				}
			],
			"stateMutability": "view",
			"type": "function"
		}
	]
}